:100000000C946C050C941A230C9447230C949405BF
:100010000C9494050C9494050C9494050C949405FC
:100020000C9494050C9494050C9494050C949405EC
:100030000C9494050C9494050C9494050C949405DC
:100040000C9474230C9494050C94B5260C94E72618
:100050000C9494050C9494050C9494050C949405BC
:100060000C94341D0C949405084AD73B3BCE016E8A
:1000700084BCBFFDC12F3D6C74319ABD56833DDAFF
:100080003D00C77F11BED9E4BB4C3E916BAAAABE0E
:10009000000000803F05A84CCDB2D44EB93836A937
:1000A000020C50B9918688083CA6AAAA2ABE000074
:1000B00000803F002F2F2021214649464F206F7698
:1000C0006572666C6F7721210D0A005355423A43E1
:1000D0006D642F726F626F74310D0A0020290D0A52
:1000E000002F2F20444D5020496E697469616C695E
:1000F0007A6174696F6E206661696C65642028633B
:100100006F646520002F2F20444D5020726561647C
:10011000790D0A002F2F20444D50207265616479BB
:100120000D0A002F2F20496E697469616C697A6924
:100130006E6720444D502E2E2E0D0A002F2F204D7D
:1001400050553630353020636F6E6E656374696F5D
:100150006E206661696C65640D0A002F2F204D507A
:10016000553630353020636F6E6E656374696F6E1F
:10017000207375636365737366756C0D0A002F2FAA
:100180002054657374696E672064657669636520C1
:10019000636F6E6E656374696F6E732E2E2E0D0A1B
:1001A000002F2F20496E697469616C697A696E67E6
:1001B0002049324320646576696365732E2E2E0DC7
:1001C0000A0001B202FFFF0190040923A135016A70
:1001D000020600016008000000000000000000604E
:1001E00004400000000162020000006004004000C2
:1001F00000037B034CCD6C03AB03365676006804DA
:1002000002CB47A202180400058BC1010C040000B8
:100210000000037F060CC92C979797038903264695
:1002200066006C022000024004000000000244044A
:100230000000000002480400000000024C0400001E
:1002400000000250040000000002540400000000FE
:1002500002580400000000025C040000000002BC20
:10026000040000000001EC0400004000037F060CC5
:10027000C92C9797970402030D355D040904872D57
:10028000353D00A3010000000001078601FE074183
:1002900005F120283038077E01300746019A0747CC
:1002A00004F1283038076C04F128303802160200B7
:1002B00001FB00003E000B003600010002000300BD
:1002C0000000650054FFEF0000FA80000B1282006E
:1002D000010002000000000000000000000000001B
:1002E0000000280000FFFF4581FFFFFA72000000B8
:1002F00000000003E80000000100017FFFFFFE8016
:1003000001001B00000000000000000000000000D1
:1003100000003E03304000000002CAE3093E8000B6
:10032000002000000000000000400000006000000D
:100330000041FF000000000B2A00001655000021BC
:1003400082FD872650FD800000001F000000058010
:100350000000000000000100000002000000030097
:1003600000400000000000046F0002653200005EE3
:10037000C04000000000000000000000000000007D
:1003800000FB8C6F5DFD5D08D9007C733B006C1237
:10039000CC3200139D3200D0D6320008004000015C
:1003A000F4FFE68079020000000000D0D6000027AC
:1003B00010FB0000004000000000000000000000F2
:1003C000000000000100000000000001000100002A
:1003D000000000FA36FFBC308E0005FBF0FFD95B51
:1003E000C8FFD09ABE000010A9FFF41EB200CEBB19
:1003F000F7000000010000000400020002020000FB
:100400000CFFC280000001800000CF80004000008F
:1004100000000000010000000000000600000000D5
:1004200014000000000000000000000000000000B8
:1004300000000000000000000000000000000000BC
:1004400000000000000000000000000000000000AC
:100450000000000000033F68B6793528BCC67ED195
:100460006C80000000400000000000B26A00000044
:1004700000000000000000000000003FF00000004D
:10048000300000000000000000000000000000003C
:10049000000000000000000000000000000000005C
:1004A000000000254D002F706D000005AE000C020D
:1004B000D00000000000650054FFEF0000000000C5
:1004C00000000001000044000000000C00000001DA
:1004D00000000000000065000000540000FFEF0075
:1004E000000000000000000000000000000000000C
:1004F00000400000000000000000000000000000BC
:1005000000400000000000000000000000000000AB
:1005100000000000010000000200000000000000D8
:1005200000000000000000000000000000000000CB
:1005300000000000000000000000000000000000BB
:1005400000001B0000000000000000000000000090
:10055000000000000000000000000000000000009B
:10056000000000000000000000000000004000004B
:1005700000001B0000000000000000000000000060
:10058000000000000000000000000000000000006B
:10059000000000000000000000000000000000005B
:1005A000000000000000000000000000000000004B
:1005B00000D8DCBAA2F1DEB2B8B4A88191F74A90B3
:1005C0007F916AF3F9DBA8F9B0BAA080F2CE81F38B
:1005D000C2F1C1F2C3F3CCA2B280F1C6D880BAA7EF
:1005E000DFDFDFF2A7C3CBC5B6F087A29424487043
:1005F0003C95406834589B78A2F183922D557DD864
:10060000B1B4B8A1D09180F270F370F27C80A8F1FF
:1006100001B09887D943D886C988BAA1F20EB89795
:1006200080F1A9DFDFDFAADFDFDFF2AAC5CDC7A92E
:100630000CC92C97979797F1A989264666B0B4BA4A
:1006400080ACDEF2CAF1B28C02A9B69800890E160F
:100650001EB8A9B4992C547CB08AA896365676F167
:10066000B9AFB4B083C0B8A89711B18F98B9AFF043
:10067000240844106418F1A329557DAF83B593AFC6
:10068000F0002850F1A3869F61A6DADEDFD9FAA335
:100690008696DB31A6D9F8DFBAA68FC2C5C7B28C61
:1006A000C1B8A2DFDFDFA3DFDFDFD8D8F1B8A8B29F
:1006B00086B4980D355DB8AA98B0872D353DB2B691
:1006C000BAAF8C96198F9FA70E161EB49AB8AA8738
:1006D0002C547CB9A3DEDFDFA3B180F2C4CDC9F115
:1006E000B8A9B499830D355D89B9A32D557DB5930E
:1006F000A30E161EA92C547CB8B4B0F19783A81190
:1007000084A50998A383F0DA240844106418D8F16A
:10071000A529557DA58595021A2E3A565A4048F9C5
:10072000F3A3D9F8F098832408441064189782A89A
:10073000F111F098A2240844106418DAF3DED8838B
:10074000A59401D9A302F1A2C3C5C7D8F18492A28E
:100750004DDA2AD84869D92AD86855DA32D8507182
:10076000D932D8705DDA3AD85879D93AD87893A383
:100770004DDA2AD84869D92AD86855DA32D8507162
:10078000D932D8705DDA3AD85879D93AD878A88A67
:100790009AF02850789EF38818F19F1D98A8D908E0
:1007A000D8C89F129EF315A8DA1210D8F1AFC897D7
:1007B0008734B5B994A421F3D922D8F22DF3D92ADC
:1007C000D8F235F3D932D881A4606061D961D86C90
:1007D0006869D969D8747071D971D8B1A384193D89
:1007E0005DA3831A3E5E931030811011B8B0AF8FB5
:1007F00094F2DA3ED8B49AA88729DAF8D8879A35DD
:10080000DAF8D8879A3DDAF8D8B1B9A49885022EDB
:1008100056A581000C14A397B08AF12DD928D84D84
:10082000D948D86DD968D8B1840DDA0ED8A32983F8
:10083000DA2C0ED8A3844983DA2C4C0ED8B8B0A891
:100840008A9AF520AADADFD8A840AAD0DADED8A89A
:1008500060AADAD0DFD8F19786A8319B069907AB5A
:100860009728889BF00C201440B8B0B4A88C9CF05A
:10087000042851791D301438B282ABD0982C5050D6
:1008800078789BF11AB0F08A9CA82951798B29516C
:10089000798A2470598B2058718A4469388B394081
:1008A000688A6448318B304960A5882009715844B2
:1008B00068113964493019F1AC002C547CF08CA8D3
:1008C00004285078F1889726A85998AC8C022646BF
:1008D00066F0899CA8295179247059446938644884
:1008E00031A98809205970AB11384069A8193148DD
:1008F000608CA83C415C207C00F187981986A86E2A
:10090000767EA999882D557D9EB9A38A228A6E8A02
:10091000568A5E9FB183062646660E2E4E6E9DB8A1
:10092000AD002C547CF2B18CB499B9A32D557D81C6
:1009300091AC38AD3AB58391AC2DD928D84DD94872
:10094000D86DD968D88C9DAE29D904AED851D904B8
:10095000AED879D904D881F39DAD008DAE1981ADA3
:10096000D901D8F2AEDA26D88E912983A7D9ADADB8
:10097000ADADF32AD8D8F1B0AC89913E5E76F3AC38
:100980002E2EF1B18C5A9CAC2C2828289CAC301807
:10099000A8988128343C9724A728343C9C24F2B0A2
:1009A00089AC912C4C6C8A9B2DD9D8D851D9D8D8E8
:1009B00079D9D8D8F19E88A331DAD8D8912DD92801
:1009C000D84DD948D86DD968D8B18393353D8025A5
:1009D000DAD8D88569DAD8D8B49381A328343CF31F
:1009E000AB8BF8A391B609B4D9ABDEFAB0879CB94A
:1009F000A3DDF1A3A3A3A395F1A3A3A39DF1A3A3B7
:100A0000A3A3F2A3B49080F2A3A3A3A3A3A3A3A33D
:100A1000A3A3B2A3A3A3A3A3A3B087B599F1A3A350
:100A2000A398F1A3A3A3A397A3A3A3A3F39BA3A317
:100A3000DCB9A7F1262626D8D8FF0000000800025E
:100A40000100000304070000000000000000010294
:100A5000040810204080010204081020010204084C
:100A6000102004040404040404040202020202022A
:100A700003030303030300000000230026002900F2
:100A800000000000250028002B00000000002400CA
:100A900027002A004E414E494E495459494E46CDF1
:100AA000CCCC3D0AD7233C17B7D13877CC2B329525
:100AB00095E6241FB14F0A000020410000C8420003
:100AC000401C4620BCBE4CCA1B0E5AAEC59D7400CD
:100AD0002D13521CE522172711241FBECFEFD8E09B
:100AE000DEBFCDBF13E0A0E0B1E0EAE0FCE602C06B
:100AF00005900D92A236B107D9F726E0A2E6B3E041
:100B000001C01D92AB3FB207E1F71AE0C8EDDAE091
:100B100004C02297FE010E943F2EC03DD107C9F7B5
:100B20000E945B270C9403360C9400001F920F92D6
:100B30000FB60F9211242F938F939F93AF93BF9370
:100B400023B1822F817090E04A9B03C0892B19F05A
:100B50000EC0892B61F08091DF049091E004A09198
:100B6000E104B091E2040197A109B1090BC08091A1
:100B7000DF049091E004A091E104B091E2040196B9
:100B8000A11DB11D8093DF049093E004A093E104C4
:100B9000B093E204BF91AF919F918F912F910F90ED
:100BA0000FBE0F901F9018951F920F920FB60F92C5
:100BB00011242F938F939F93AF93BF9323B121FB66
:100BC000882780F990E04B9B03C0892B19F00EC059
:100BD000892B61F08091E3049091E404A091E504F5
:100BE000B091E6040197A109B1090BC08091E3041B
:100BF0009091E404A091E504B091E6040196A11D52
:100C0000B11D8093E3049093E404A093E504B093B2
:100C1000E604BF91AF919F918F912F910F900FBEDE
:100C20000F901F9018959C01FC01EE5FFE4F808194
:100C30009181680F791F613041E0740730F471834E
:100C400060830296820F931F089580E090E00895DC
:100C50009C01FC01EE57FF4F80819181680F791F45
:100C60006138710530F4718360830296820F931F9F
:100C7000089580E090E008950E94B31FFC0181E098
:100C8000208131812230310508F480E008958F926F
:100C90009F92AF92BF92CF92EF920F931F93CF93F9
:100CA000DF93CDB7DEB7C059D1090FB6F894DEBFD8
:100CB0000FBECDBF5C010E9407186EE170E080E0BE
:100CC00090E00E94ED2360E0C5010E940E1821E033
:100CD00041E060E1C5010E943C1966E0C5010E9447
:100CE0004719C5010E944D1920E040E060E0C501B0
:100CF0000E943C19C5010E948318C5010E94A118D9
:100D0000182FC5010E94C818882EC5010E94EF182F
:100D1000982E4FE760E0C5010E94C71760E0C5014B
:100D20000E94F21748E660E0C5010E94C717C5019E
:100D30000E94001864E170E080E090E00E94ED23E2
:100D4000EE24E39400E020E049E857E061EB72E034
:100D5000C5010E94AA1A882309F40EC240EC50E093
:100D600061EF71E0C5010E94721B882309F406C27D
:100D700063E0C5010E94151862E1C5010E94D31706
:100D800064E0C5010E947D1761E0C5010E948317E0
:100D900063E0C5010E948E1763E0C5010E949917A8
:100DA00063E0C5010E94751B60E0C5010E947B1BCA
:100DB00060E0C5010E949A18612FC5010E94BD180C
:100DC000682DC5010E94E418692DC5010E940B1908
:100DD000812C912CF401EE53FE4FE491A1E8B0E098
:100DE000AC0FBD1FA80DB11DEC9381E0880D9FEFE6
:100DF000891A990AE3E0E81568F7CD57DF4F488173
:100E0000C358D04050E09A012E5F3F4F90E0281722
:100E1000390704F7C12CEE24E394CE57DF4F088145
:100E2000C258D040CF57DF4F2881C158D04061E829
:100E300070E06C0F7D1F6D5F7F4FC5010E94C91967
:100E400060E0F401EE53FE4FE491A1E8B0E0AC0F96
:100E5000BD1FA60FB11DEC936F5FFFEF8F1A9F0AA6
:100E6000643078F3CD57DF4F4881C358D04050E00D
:100E70009A012E5F3F4F862F90E0281739070CF715
:100E8000C12CEE24E394CE57DF4F0881C258D040E6
:100E9000CF57DF4F2881C158D04061E870E06C0F18
:100EA0007D1F6D5F7F4FC5010E94C919C5010E945A
:100EB000F917C5010E943418482FBE016F5F7F4F9C
:100EC000C5010E94501862E0C5010E94AF176CE98D
:100ED000C5010E94BB1760E5C5010E94B51760E01F
:100EE000C5010E94C117C5010E94F91761E0C50143
:100EF0000E94EB1761E0C5010E942E19C5010E94F6
:100F0000351960E0F401EE53FE4FE491A1E8B0E042
:100F1000AC0FBD1FA60FB11DEC936F5F8FEF881A4A
:100F2000980A643078F3CD57DF4F4881C358D040DA
:100F300050E09A012E5F3F4F862F90E02817390727
:100F40000CF7C12CEE24E394CE57DF4F0881C25832
:100F5000D040CF57DF4F2881C158D04061E870E0C2
:100F60006C0F7D1F6D5F7F4FC5010E94C91960E046
:100F7000F401EE53FE4FE491A1E8B0E0AC0FBD1FC9
:100F8000A60FB11DEC936F5F9FEF891A990A643029
:100F900078F3CD57DF4F4881C358D04050E09A01D5
:100FA0002E5F3F4F862F90E0281739070CF7C12C92
:100FB000EE24E394CE57DF4F0881C258D040CF577C
:100FC000DF4F2881C158D04061E870E06C0F7D1F71
:100FD0006D5F7F4FC5010E94C91960E0F401EE53B7
:100FE000FE4FE491A1E8B0E0AC0FBD1FA60FB11D0C
:100FF000EC936F5FEFEF8E1A9E0A643078F3CD5753
:10100000DF4F4881C358D04050E09A012E5F3F4FD8
:10101000862F90E0281739070CF7C12CEE24E394B3
:10102000CE57DF4F0881C258D040CF57DF4F2881BD
:10103000C158D04061E870E06C0F7D1F6D5F7F4F3D
:10104000C5010E94C919C5010E9434188330910559
:10105000D0F3482FBE016F5F7F4FC5010E9450182B
:10106000C5010E94D91760E0F401EE53FE4FE491F0
:10107000A1E8B0E0AC0FBD1FA60FB11DEC936F5FF0
:10108000FFEF8F1A9F0A643078F3CD57DF4F488106
:10109000C358D04050E09A012E5F3F4F862F90E01A
:1010A000281739070CF7CE57DF4F0881C258D040B8
:1010B000CF57DF4F2881C158D04061E870E06C0FF6
:1010C0007D1F6D5F7F4FC5010E945F19C5010E94A2
:1010D000341883309105D0F3482FBE016F5F7F4FE6
:1010E000C5010E945018C5010E94D917F401EE53A2
:1010F000FE4F60E08491A1E8B0E0AC0FBD1FA60FE9
:10110000B11D8C936F5F643010F43196F3CFCD57DF
:10111000DF4F4881C358D04050E09A012E5F3F4FC7
:10112000862F90E02817390784F761E870E06C0F8C
:101130007D1F6D5F7F4FC12CEE24E394CE57DF4FB0
:101140000881C258D040CF57DF4F2881C158D040C6
:10115000C5010E94C91960E0C5010E942E198AE2EA
:1011600090E0F50193838283C5010E94F917C501C0
:101170000E94D91780E003C081E001C082E0C0571F
:10118000DF4F0FB6F894DEBF0FBECDBFDF91CF911A
:101190001F910F91EF90CF90BF90AF909F908F9045
:1011A0000895CF93DF93DB01FA01309719F4EC0136
:1011B000E881F981808190E0982F88272181820F32
:1011C000911D11969C938E93848190E0982F88278F
:1011D0002581820F911D13969C938E931297808583
:1011E00090E0982F88272185820F911D15969C935A
:1011F0008E931497848590E0982F88272585820FF9
:10120000911D17969C938E93169780E0DF91CF9156
:101210000895FF920F931F93CF93DF93CDB7DEB75F
:1012200028970FB6F894DEBF0FBECDBF8B01BE016D
:101230006F5F7F4F0E94D108F82E81114CC06981E9
:101240007A81882777FD8095982F0E94512B20E086
:1012500030E040E858E30E947B2CF8016083718302
:10126000828393836B817C81882777FD8095982F7B
:101270000E94512B20E030E040E858E30E947B2C94
:10128000F80164837583868397836D817E818827C7
:1012900077FD8095982F0E94512B20E030E040E8A8
:1012A00058E30E947B2CF8016087718782879387BF
:1012B0006F817885882777FD8095982F0E94512B24
:1012C00020E030E040E858E30E947B2CF80164877E
:1012D0007587868797878F2D28960FB6F894DEBF7F
:1012E0000FBECDBFDF91CF911F910F91FF90089559
:1012F0004F925F926F927F928F929F92AF92BF9226
:10130000CF92DF92EF92FF920F931F93CF93DF93D1
:10131000CDB7DEB728970FB6F894DEBF0FBECDBFAE
:101320008B01DA011496CD90DD90ED90FC9017972B
:101330001C964D905D906D907C901F978D909D9028
:10134000AD90BC90139718968D919D910D90BC9186
:10135000A02D89839A83AB83BC83A3019201C7012B
:10136000B6010E947B2C6D837E838F8398872981B1
:101370003A814B815C81C501B4010E947B2C9B01A9
:10138000AC016D817E818F8198850E94E8299B0147
:10139000AC010E94E929F801608371838283938301
:1013A000A7019601C501B4010E947B2C6D837E8349
:1013B0008F839887A301920169817A818B819C81B7
:1013C0000E947B2C9B01AC016D817E818F81988571
:1013D0000E94E9299B01AC010E94E929D8011496D9
:1013E0006D937D938D939C931797A5019401C501EF
:1013F000B4010E947B2C4B015C01A7019601C7013F
:10140000B6010E947B2C9B01AC01C501B4010E9476
:10141000E8296B017C0129813A814B815C81CA01F9
:10142000B9010E947B2C9B01AC01C701B6010E944F
:10143000E8296B017C01A3019201C301B2010E9462
:101440007B2C9B01AC01C701B6010E94E929F80180
:10145000608771878287938780E028960FB6F8941B
:10146000DEBF0FBECDBFDF91CF911F910F91FF90D7
:10147000EF90DF90CF90BF90AF909F908F907F9034
:101480006F905F904F9008952F923F924F925F928E
:101490006F927F928F929F92AF92BF92CF92DF9284
:1014A000EF92FF920F931F93CF93DF9300D000D062
:1014B00000D0CDB7DEB71B018A013E832D83FA0130
:1014C000C080D180E280F380A7019601C701B601F8
:1014D0000E94E92969837A838B839C83F801848045
:1014E0009580A680B780A5019401C501B4010E9432
:1014F000E9292B013C01A701960169817A818B8141
:101500009C810E947B2C6B017C01A5019401C3018D
:10151000B2010E947B2C9B01AC01C701B6010E9465
:10152000E92920E030E040E85FE30E94E8296B0110
:101530007C01F8012085318542855385C301B201C4
:101540000E947B2C2B013C01F801248535854685C2
:10155000578569817A818B819C810E947B2C9B01BC
:10156000AC01C301B2010E94E829A70196010E94C3
:101570005C2AF1016083718382839383ED81FE8114
:101580006481758186819781C084D184E284F384EB
:101590009B01AC010E947B2C4B015C01A7019601D1
:1015A000C701B6010E947B2C9B01AC01C501B401AF
:1015B0000E94E9290E94E82C9B01AC01ED81FE818B
:1015C00060817181828193810E94B62A0E94872A5C
:1015D000F1016483758386839783ED81FE81608149
:1015E000718182819381C084D184E284F3849B01E0
:1015F000AC010E947B2C4B015C01A7019601C70145
:10160000B6010E947B2C9B01AC01C501B4010E9474
:10161000E9290E94E82C9B01AC01ED81FE816481E7
:101620007581868197810E94B62A0E94872AF101DE
:10163000608771878287938780E026960FB6F8943B
:10164000DEBF0FBECDBFDF91CF911F910F91FF90F5
:10165000EF90DF90CF90BF90AF909F908F907F9052
:101660006F905F904F903F902F900895FC01A7815D
:10167000158616861786108A84E0A89FD00111244B
:10168000A152BB4F1D921D921D921C921397118E59
:10169000128E138E148E118A128A138A148A158E52
:1016A000168E178E10A215A216A217A210A611A2AE
:1016B00012A213A214A20895CF92EF92FF920F9359
:1016C0001F93CF93DF93EC01F42E122F1B8243E084
:1016D00050E00E942033FC821D830E83EF82C88677
:1016E00080915001882341F061E08F2D0E94D82421
:1016F00061E0812F0E94D824CE01DF91CF911F910C
:101700000F91FF90EF90CF900C94360BDC01189660
:101710002C9118971796EC912223A1F0B4E0EB9F3F
:10172000F0011124E152FB4F80819181A281B381AC
:101730009C01AD0166277727CB01621B730B840BDD
:10174000950B089534E0E39FF0011124E152FB4F23
:10175000608171818281938108952F923F924F928F
:101760005F927F928F929F92AF92BF92CF92DF92C1
:10177000EF92FF920F931F93CF93DF93CDB7DEB716
:10178000C054D1090FB6F894DEBF0FBECDBF4C01D7
:10179000FC01808577FD02C0782E03C07724739406
:1017A000782680914A011B0177FF03C03194219470
:1017B0003108442437FC4094542CFFEF8F9FC00124
:1017C000112464E670E00E94522DCB01AA2797FDF8
:1017D000A095BA2FBF93AF939F938F93A12CB12C59
:1017E000650114E6E12EF12C00E010E020E030E08D
:1017F000A901C201B1010E94A0296B017C01672DE2
:10180000F40185810E941125B601F40184810E94B2
:101810005024B601882777FD8095982F0E94512B80
:10182000F401618B728B838B948B9F928F92DF92EA
:10183000CF921F927F9287E591E09F938F938E01C5
:101840000F5F1F4F1F930F930E942F33B80188E53E
:1018500096E00E94CD270FB6F894DEBF0FBECDBF35
:10186000C05CDF4F0FB6F894DEBF0FBECDBFDF9177
:10187000CF911F910F91FF90EF90DF90CF90BF908D
:10188000AF909F908F907F905F904F903F902F9060
:10189000089568E671E088E596E00E94CD271092F1
:1018A000E3041092E4041092E5041092E60410920E
:1018B000DF041092E0041092E1041092E20462E06E
:1018C00082E00E94D82462E083E00E94D82462E093
:1018D00088E00E94D82462E089E00E94D82441E098
:1018E00050E066E975E080E00E94FA2241E050E0B5
:1018F00064ED75E081E00E94FA2280915001882316
:1019000041F161E085E00E94D82460E085E00E941A
:10191000112561E086E00E94D82460E086E00E9404
:10192000112561E08BE00E94D82460E08BE00E94EA
:10193000112561E081E10E94D82460E081E10E94EC
:10194000112581E994E00E94360B84E694E00C9422
:10195000360B0895EF92FF920F931F93CF93DF936F
:101960007C010AE011E0C0E0D0E06BE771E0C70164
:101970000E9413210E94BC1FBC01F801808191814B
:101980000E9417330C5F1F4F892B81F4CC0FDD1F92
:10199000CC0FDD1FC65FDE4FEA81FB81C701DF91FF
:1019A000CF911F910F91FF90EF9009942196C03134
:1019B000D105D9F680E0DF91CF911F910F91FF9073
:1019C000EF9008956FE771E088E596E00C94CD27DD
:1019D00026E040E052EC61E070E088E596E00E948D
:1019E000532660E971E088E596E00E94CD2761E02A
:1019F0008DE00E94D82461E08CE00E94D82460E051
:101A00008DE00E94112560E08CE00E9411250E946B
:101A1000490C80915101882309F48FC08DE795E02E
:101A20000E94181C88E18093B80062E087E00E9461
:101A3000D82461EA71E088E596E00E94A8278EEB41
:101A400094E00E9420186EE771E088E596E00E941D
:101A5000A8278EEB94E00E947B18882319F06BE591
:101A600071E002C06CE371E088E596E00E94A8276F
:101A700060E971E080E090E00E94ED2363E271E0B4
:101A800088E596E00E94EA278EEB94E00E944706E4
:101A900080935F056CED70E08EEB94E00E941C1962
:101AA0006CE470E08EEB94E00E9422196BEA7FEF09
:101AB0008EEB94E00E9428196CEF76E08EEB94E0B8
:101AC0000E94161980915F05811123C061E08EEBA1
:101AD00094E00E942E198EEB94E00E94D917809317
:101AE000600564E171E088E596E00E94A82765E062
:101AF00071E088E596E00E94A8278091C00490914B
:101B0000C10490935E0580935D0581E0809361053B
:101B100014C061EE70E088E596E00E94A8274AE0D4
:101B200050E060915F0588E596E00E94AC286CED7E
:101B300070E088E596E00E94A8278CE390E09093FF
:101B4000D2048093D10480E090E0AFE2B3E48093CC
:101B5000D3049093D404A093D504B093D60480E02A
:101B600090E0ACE5B3E48093D7049093D804A093BD
:101B7000D904B093DA0480E99BE9A2E1B1E480934F
:101B8000DB049093DC04A093DD04B093DE046BECE3
:101B900070E088E596E00C94A8274F925F926F92D0
:101BA0007F928F929F92AF92BF92CF92DF92EF92ED
:101BB000FF921F93CF93DF93CDB7DEB760970FB639
:101BC000F894DEBF0FBECDBF81E994E00E94860B82
:101BD0006D837E838F83988784E694E00E94860BD2
:101BE00069877A878B879C8780919E0490919F0458
:101BF000A091A004B091A1048D809E80AF80B88494
:101C0000881A990AAA0ABB0A8091710490917204F9
:101C1000A0917304B091740449845A846B847C84C9
:101C2000481A590A6A0A7B0A8091F3049091F404D5
:101C3000A091F504B091F6048D879E87AF87B88B8D
:101C400020916D0530916E0540916F0550917005A2
:101C5000BC01CD010E94E82969837A838B839C8330
:101C600021EE3EE245E652E40E947B2C6B017C01B2
:101C700020E030E0A9010E94702C18166CF411E0ED
:101C80002DEC3CEC4CEC5DE3C701B6010E94702CDE
:101C9000181674F010E00CC02DEC3CEC4CEC5DEB35
:101CA000C701B6010E94AF2A182F111F1127111F5B
:101CB000C501B401640D751D861D971D0E94512B31
:101CC0002091DB043091DC044091DD045091DE046E
:101CD0000E947B2C20E030E040E05FE30E947B2C00
:101CE0006B017C0120E030E0A9010E94702C1816E5
:101CF0005CF42DEC3CEC4CEC5DE3C701B6010E94BA
:101D0000702C181654F00AC02DEC3CEC4CEC5DEB3A
:101D1000C701B6010E94AF2A87FD11E080907105CE
:101D200090907205A0907305B090740520E030E0AB
:101D300040E05FE369817A818B819C810E947B2CEA
:101D40009B01AC01C501B4010E94E9292B013C01B2
:101D50000E94DE2C9B01AC01C701B6010E947B2CC6
:101D60009B01AC016091790570917A0580917B05AA
:101D700090917C050E94E9296093790570937A051A
:101D800080937B0590937C05C301B2010E94B32A26
:101D90009B01AC01C701B6010E947B2C9B01AC01E9
:101DA0006091750570917605809177059091780521
:101DB0000E94E929609375057093760580937705F5
:101DC0009093780529813A814B815C81C501B401EA
:101DD0000E94E9296B017C0120E030E0A9010E940A
:101DE000AF2A87FD09C0C0927105D0927205E092BA
:101DF0007305F092740510C02BED3FE049EC50E400
:101E0000C701B6010E94E9296093710570937205BC
:101E10008093730590937405C0907105D0907205FE
:101E2000E0907305F09074052BED3FE049EC50E431
:101E3000C701B6010E94702C87FD10C02BED3FE05A
:101E400049EC50E4C701B6010E94E829609371058E
:101E50007093720580937305909374058D859E85AC
:101E6000AF85B88980936D0590936E05A0936F053B
:101E7000B09370058D819E81AF81B88580939E045B
:101E800090939F04A093A004B093A10489859A85A0
:101E9000AB85BC858093710490937204A093730406
:101EA000B0937404812F60960FB6F894DEBF0FBE16
:101EB000CDBFDF91CF911F91FF90EF90DF90CF903A
:101EC000BF90AF909F908F907F906F905F904F905A
:101ED0000895CF93DF9300D000D0CDB7DEB77A83DB
:101EE00069831C821B82BE016F5F7F4F0E94AE2000
:101EF0008B819C810F900F900F900F90DF91CF916D
:101F00000895CF92DF92EF92FF920F931F93CF939A
:101F1000DF93CDB7DEB7C458D1090FB6F894DEBF52
:101F20000FBECDBF8DE093E09A838983CD57DF4FFD
:101F300019821882C358D040CE0101960E94801F9A
:101F40008C0160915301709154010E9413216DEA3C
:101F500071E00E94F11F64EB71E0C8010E9413213F
:101F60006CE672E00E94F11F20E030E04AE754E4A2
:101F70006091790570917A0580917B0590917C053F
:101F80000E94B62A6B017C0166EB71E0C8010E94D9
:101F9000132124E0B701A6010E94FD1F20E030E0DC
:101FA0004AE754E460917505709176058091770554
:101FB000909178050E94B62A6B017C0168EB71E074
:101FC000C8010E94132124E0B701A6010E94FD1F51
:101FD00021EE3EE245E652E4609171057091720592
:101FE00080917305909174050E947B2C6B017C019C
:101FF0006AEB71E0C8010E94132122E0B701A6013B
:102000000E94FD1F68E576E0C8010E94690F67ED38
:1020100072E088E596E00E94CD27CC57DF4F0FB6DF
:10202000F894DEBF0FBECDBFDF91CF911F910F910E
:10203000FF90EF90DF90CF900895AF92BF92CF9234
:10204000DF92EF92FF920F931F93CF93DF93CDB761
:10205000DEB7C458D1090FB6F894DEBF0FBECDBFAE
:102060008DE093E09A838983CD57DF4F19821882E0
:10207000C358D040CE0101960E94801F8C01609110
:102080005301709154010E9413216DEA71E00E9486
:10209000F11F64EB71E0C8010E9413216BE372E051
:1020A0000E94F11F81E994E00E94860B6B017C0184
:1020B0006CEB71E0C8010E9413215C01C701B601FD
:1020C0000E944F2BAB01BC0120E0C5010E94FD1F07
:1020D00084E694E00E94860B6B017C0163EC71E066
:1020E000C8010E9413215C01C701B6010E944F2B59
:1020F000AB01BC0120E0C5010E94FD1F8091510190
:102100008823B1F1C090F304D090F404E090F5047A
:10211000F090F6046AEC71E0C8010E94132124E0FB
:10212000B701A6010E94FD1FC090F704D090F804EB
:10213000E090F904F090FA046EEC71E0C8010E949E
:10214000132124E0B701A6010E94FD1FC090FB04EB
:10215000D090FC04E090FD04F090FE0462ED71E08C
:10216000C8010E94132124E0B701A6010E94FD1FAF
:1021700068E576E0C8010E94690F68ED72E088E5C5
:1021800096E00E94CD27CC57DF4F0FB6F894DEBF04
:102190000FBECDBFDF91CF911F910F91FF90EF90B8
:1021A000DF90CF90BF90AF900895EF92FF920F9382
:1021B0001F93CF93DF93CDB7DEB7C458D1090FB6C5
:1021C000F894DEBF0FBECDBF7C018DE093E09A8313
:1021D0008983CD57DF4F19821882C358D040CE0172
:1021E00001960E94801F8C016091530170915401EF
:1021F0000E9413216DEA71E00E94F11F64EB71E00F
:10220000C8010E94132166ED71E00E94F11F6AED82
:1022100071E0C8010E941321B7010E94F11F68E517
:1022200076E0C8010E94690F67ED72E088E596E0EC
:102230000E94CD27CC57DF4F0FB6F894DEBF0FBEFC
:10224000CDBFDF91CF911F910F91FF90EF90089537
:102250008EED91E00E94D51069EE71E088E596E080
:102260000E94CD2781E00895CF93DF93EC0187EFA3
:1022700091E00E94D51061E072E0CE010E9413212E
:102280000E94D71F60934A0181E0DF91CF910895AA
:10229000CF93DF93EC0187E092E00E94D51061E1DB
:1022A00072E0CE010E9413210E94C81F6093EF04C8
:1022B0007093F0048093F1049093F20463E172E070
:1022C000CE010E9413210E94C81F6093EB047093FB
:1022D000EC048093ED049093EE0465E172E0CE018E
:1022E0000E9413210E94C81F6093E7047093E804C2
:1022F0008093E9049093EA0481E0DF91CF910895FF
:10230000CF93DF93EC0187E192E00E94D51061E06A
:1023100072E0CE010E9413210E94D71F21E061309C
:10232000710509F020E020936B0581E0DF91CF91EA
:10233000089581E292E00E94D51081E00895CF9344
:10234000DF93EC0186E392E00E94D51061E072E039
:10235000CE010E9413210E94D71F21E06130710538
:1023600009F020E020936C0565E472E0CE010E9444
:102370003C06882359F065E472E0CE010E941321E7
:102380000E94D71F70934C0160934B0181E0DF9155
:10239000CF910895CF93DF93EC0189E492E00E94FE
:1023A000D51061E072E0CE010E9413210E94D71F78
:1023B00021E06130710509F020E020936A0581E099
:1023C000DF91CF910895CF93DF93EC0183E592E005
:1023D0000E94D51081E994E00E94360B84E694E0D7
:1023E0000E94360B10926D0510926E0510926F05CB
:1023F000109270051092710510927205109273057B
:10240000109274051092750510927605109277055A
:10241000109278051092790510927A0510927B053A
:1024200010927C0566EB71E0CE010E943C06882389
:1024300079F066EB71E0CE010E9413210E94C81F63
:102440006093790570937A0580937B0590937C0562
:1024500068EB71E0CE010E943C06882379F068EBBE
:1024600071E0CE010E9413210E94C81F6093750580
:102470007093760580937705909378056AEB71E009
:10248000CE010E943C068823A9F06AEB71E0CE01E0
:102490000E9413210E94C81F25E33AEF4EE85CE337
:1024A0000E947B2C60937105709372058093730575
:1024B000909374058091F3049091F404A091F50435
:1024C000B091F60480936D0590936E05A0936F050F
:1024D000B093700581E0DF91CF910895CF93DF93A2
:1024E000EC018EE592E00E94D51061E072E0CE0131
:1024F0000E9413210E94D71F21E06130710509F06D
:1025000020E020935001622F8CE00E94112581E091
:10251000DF91CF910895CF93DF93EC0187E692E0AE
:102520000E94D51061E072E0CE010E9413210E944A
:10253000D71F21E06130710509F020E020934F01A1
:1025400065E472E0CE010E943C06882359F065E400
:1025500072E0CE010E9413210E94D71F70934E019A
:1025600060934D0181E0DF91CF91089581E792E082
:102570000E94D51080E00895CF93DF93EC018BE7A4
:1025800092E00E94D51080915001882361F161E0B2
:1025900072E0CE010E9413210E94D71F6C397F4F39
:1025A0009CF061E072E0CE010E9413210E94D71FCF
:1025B0006536710564F461E072E0CE010E9413217A
:1025C0000E94D71FEB0105C0CCE9DFEF02C0C4E6D3
:1025D000D0E0BE0181E994E00E94AD0BBE0184E62B
:1025E00094E00E94AD0B81E0DF91CF910895CF93ED
:1025F000DF93EC0186E892E00E94D51060E972E07A
:10260000CE010E9413210E94D71F80E0DF91CF915D
:102610000895CF93DF93EC0186E992E00E94D510F4
:1026200060E972E0CE010E9413210E94D71F80E072
:10263000DF91CF910895CF93DF93EC018FE992E082
:102640000E94D51060E972E0CE010E9413210E9421
:10265000D71F80E0DF91CF910895CF92EF920F9333
:1026600080E090E0A0E8BFE380930B0590930C0519
:10267000A0930D05B0930E0510920F051092100552
:102680001092110510921205109213051092140564
:102690001092150510921605109217051092180544
:1026A0001092190510921A051092FF04109200055D
:1026B0001092010510920205109203051092040574
:1026C0001092050510920605109207051092080554
:1026D0001092090510920A058EEB94E00E9479177A
:1026E000C12CE12C00E12BE045E069EA72E081E9D0
:1026F00094E00E945C0BCC24C394EE24E3940FE09E
:1027000021E146E06CEA72E084E694E00E945C0B12
:102710000F91EF90CF9008950F931F93CF93DF9376
:10272000CDB7DEB7C454D1400FB6F894DEBF0FBEAC
:10273000CDBF88E596E00E947025892B09F49AC0E8
:1027400088E596E00E9489258D3009F493C0209198
:102750006204309163048A3009F062C0C9010196B5
:102760009093630480936204F901EE59FC4F108248
:1027700083E193E09A838983CD5FDE4F19821882CB
:10278000C350D1404AE062E673E0CE0101960E9458
:10279000CD228C0164EB71E00E943C0664EB71E099
:1027A000882379F0C8010E9413210E94BC1F6BE7A7
:1027B00071E00E941733892B41F5C8010E94AA0CD1
:1027C00024C0C8010E94132100D000D000D0ADB7B2
:1027D000BEB7119626E0FC0101900D922A95E1F713
:1027E0008FEA92E09F938F938E010B5F1E4F1F9392
:1027F0000F930E942F33B80188E596E00E94CD2701
:102800000FB6F894DEBF0FBECDBF40916204509169
:10281000630460E070E082E693E00E94103326C01B
:10282000A9014F5F5F4F5093630440936204F90125
:10283000EE59FC4F808341155140E0F0E09158067D
:10284000F09159060280F381E02D49E150E06AEDF4
:1028500072E088E596E0099580E091E0E2E6F3E039
:10286000DF019C011D9221503040E1F7109263047A
:1028700010926204CC5BDE4F0FB6F894DEBF0FBE41
:10288000CDBFDF91CF911F910F910895AF92BF926D
:10289000CF92DF92EF92FF920F931F93CF93DF932C
:1028A00020915101222329F020916105222309F46E
:1028B000EAC020916B05222361F029B124FB88270F
:1028C00080F990E02091520130E08217930709F0DF
:1028D000A6C00E948C1380914D0190914E012091D1
:1028E00062053091630540916405509165056091E2
:1028F0006605709167055C01C12CD12CE12CF12C8F
:1029000000E010E080916805909169050E94B22D69
:10291000A0E00E941D2E49F40E94CD0D882329F0CD
:1029200080914F0181110E94810F80914B01909104
:102930004C012091620530916305409164055091EE
:10294000650560916605709167055C01C12CD12C0D
:10295000E12CF12C00E010E0809168059091690570
:102960000E94B22DA0E00E941D2E81F48DE00E94F5
:10297000472561E0892B09F060E08DE00E94112578
:1029800080916C05882311F01D9951C080915101EF
:10299000882309F14F9B1FC08EEB94E00E94D9174A
:1029A000809360058EEB94E00E94341890935C0550
:1029B00080935B052091600524FD03C08115944040
:1029C000C9F58EEB94E00E94F91764EB70E088E59E
:1029D00096E00E94A82720916205309163054091FE
:1029E0006405509165056091660570916705809159
:1029F000680590916905A1E00E94112E209362055F
:102A000030936305409364055093650560936605B4
:102A100070936705809368059093690534C00E94A0
:102A2000E20C89B1829581708093520152CF0E944D
:102A30001D10ACCF21FFCFCF40915D056BE175E05C
:102A40008EEB94E00E9450184BE155E06BE075E08E
:102A50008EEB94E00E9409094BE055E06FEF74E0C3
:102A60008EEB94E00E9478092FEF34E04BE055E0C4
:102A700063EF74E08EEB94E00E94440A8EEB94E0E6
:102A80000E94F917A8CFDF91CF911F910F91FF906E
:102A9000EF90DF90CF90BF90AF900895EF92FF92AC
:102AA0000F931F93CF93DF9300D0CDB7DEB7062FE0
:102AB000142F682F8DE795E029833A830E94321CFA
:102AC000602F8DE795E00E94D91B2981022FE22E0D
:102AD0003A81F32E8E2D801B811740F4F70161910E
:102AE0007F018DE795E00E94D91BF4CF8DE795E03B
:102AF0000E944F1C91E0811190E0892F0F900F9060
:102B0000DF91CF911F910F91FF90EF900895CF9398
:102B1000DF931F92CDB7DEB749839E012F5F3F4FF2
:102B200041E00E944E150F90DF91CF910895DF9202
:102B3000EF92FF920F931F93CF93DF93C62F042F33
:102B40007901682F8DE795E00E94321C6C2F8DE78C
:102B500095E00E94D91B10E0000F111FD12CCD2D44
:102B6000D0E0C017D1078CF4CC0FDD1FCE0DDF1DD8
:102B700069818DE795E00E94D91B68818DE795E01A
:102B80000E94D91BD394D394EACF8DE795E00E949D
:102B90004F1C91E0811190E0892FDF91CF911F911F
:102BA0000F91FF90EF90DF900895CF93DF9300D0C7
:102BB000CDB7DEB75A8349839E012F5F3F4F41E077
:102BC0000E9497150F900F90DF91CF9108953F923B
:102BD0004F925F926F927F928F929F92AF92BF922D
:102BE000CF92DF92EF92FF920F931F93CF93DF93D9
:102BF00000D000D000D0CDB7DEB7682E562E742E90
:102C00003A8329830E94BE236B017C01312C412C25
:102C1000872D90E09C838B834801A12CB12C371425
:102C2000B0F5662D8DE795E00E94321C652D8DE78D
:102C300095E00E94D91B8DE795E00E944F1C662D00
:102C40008DE795E00E94321C4B815C81431951094C
:102C50004132510514F040E250E0662D8DE795E0D9
:102C60000E942F1C8DE795E00E94811B892B59F152
:102C70000115110579F10E94BE236C197D098E0999
:102C80009F09681579058A059B0520F11CC001156F
:102C9000110589F10E94BE236C197D098E099F09D7
:102CA00020E030E0601771078207930720F1872D3D
:102CB00090E0242D332727FD309528173907DCF4C1
:102CC00044244A9418C0872D90E2971508F480E2B6
:102CD000380EA5CFE981FA81E40DF11D47FCFA9584
:102CE000FE83ED838DE795E00E94891BED81FE81D7
:102CF00080834394B7CF842D26960FB6F894DEBF19
:102D00000FBECDBFDF91CF911F910F91FF90EF903C
:102D1000DF90CF90BF90AF909F908F907F906F90FB
:102D20005F904F903F9008950F931F9389019A01F0
:102D300041E00E94E7151F910F910895DF92EF92F5
:102D4000FF920F931F93CF93DF931F92CDB7DEB700
:102D5000D42E79019801AE014F5F5F4F0E94941607
:102D600061E070E001C0660FDA94EAF7998196237A
:102D7000F70190830F90DF91CF911F910F91FF90FA
:102D8000EF90DF900895CF92DF92EF92FF920F9332
:102D90001F93CF93DF931F92CDB7DEB7C42ED22EF1
:102DA0009701AE014F5F5F4F0E9494168823F1F0A8
:102DB0004C2D50E04D1951094F5F5F4F61E070E0BD
:102DC00002C0660F771FDA94E2F761507109042E92
:102DD00001C0660F0A94EAF72981262330E002C079
:102DE000359527954A95E2F7F80120830F90DF91FA
:102DF000CF911F910F91FF90EF90DF90CF900895AA
:102E0000EF92FF920F931F93CF93DF931F92CDB753
:102E1000DEB7182F062FF42EE22E209155013091A7
:102E20005601AE014F5F5F4F0E949416898121E0E9
:102E300030E00F2C01C0220F0A94EAF7EE2019F0BF
:102E4000482F422B03C0422F409548234983602FCF
:102E5000812F0E9487150F90DF91CF911F910F91C5
:102E6000FF90EF900895DF92EF92FF920F931F93E0
:102E7000CF93DF931F92CDB7DEB7F82EE62ED42E78
:102E8000122F2091550130915601AE014F5F5F4FD7
:102E90000E949416882319F14D2D50E0411B5109D1
:102EA0004F5F5F4FE1E0F0E002C0EE0FFF1F1A95A9
:102EB000E2F73197042E01C0EE0F0A94EAF701C041
:102EC000000F4A95EAF74E2F409589814823E02369
:102ED0004E2B49836E2D8F2D0E94871501C080E0F7
:102EE0000F90DF91CF911F910F91FF90EF90DF90A6
:102EF000089528E6FC0120830895462F69E1FC012E
:102F000080810C9487150F93062F23E045E06AE13A
:102F1000FC0180810E9433170F9108950F93062FB3
:102F200023E042E06AE1FC0180810E9433170F91A7
:102F300008950F93062F22E044E06BE1FC018081AD
:102F40000E9433170F9108950F93062F22E044E05B
:102F50006CE1FC0180810E9433170F910895462F88
:102F60006FE1FC0180810C948715462F60E2FC0123
:102F700080810C948715462F61E2FC0180810C94BE
:102F80008715462F62E2FC0180810C94871564301E
:102F900048F4262F220F260F2B5D622FFC01808123
:102FA0000C9487150895462F68E3FC0180810C94EA
:102FB0008715CF93DF93EC01209155013091560195
:102FC000AC014F5F5F4F6AE388810E94941689814C
:102FD000DF91CF910895262F46E06AE6FC018081BB
:102FE0000C940017262F45E06AE6FC0180810C94C2
:102FF000001721E042E06AE6FC0180810C94001792
:1030000021E041E06AE6FC0180810C94001721E098
:1030100047E06BE6FC0180810C940017262F46E008
:103020006BE6FC0180810C9400170F93062F23E0C0
:1030300042E06BE6FC0180810E9433170F910895F6
:10304000CF93DF93EC0161E00E94151860E0CE01A0
:103050000E94991760E0CE010E94A41760E0CE01A3
:10306000DF91CF910C940E180F931F93CF93DF93A2
:10307000EC0100915501109156019C012F5F3F4FCB
:1030800042E062E788810E94E715898190E0982FED
:1030900088272A81822BDF91CF911F910F9108956C
:1030A0000F931F939B01009155011091560164E706
:1030B000FC0180810E94E7151F910F910895EF9206
:1030C000FF920F931F93CF93DF93EC01E090550194
:1030D000F09056018C010F5F1F4F26E046E065E738
:1030E00088810E94C3168981DF91CF911F910F9132
:1030F000FF90EF9008950E945F1891E0843309F0EB
:1031000090E0892F08950F931F93CF93DF93EC01E5
:1031100000915501109156019C012F5F3F4F40E0F7
:1031200060E088810E949E168981DF91CF911F9176
:103130000F910895262F40E060E0FC0180810C94FF
:103140000017EF92FF920F931F93CF93DF93EC0141
:10315000E0905501F09056018C010F5F1F4F26E063
:1031600046E060E088810E94C3168981DF91CF919B
:103170001F910F91FF90EF9008950F93062F26E077
:1031800046E060E0FC0180810E9433170F910895B2
:10319000EF92FF920F931F93CF93DF93EC01E09098
:1031A0005501F09056018C010F5F1F4F26E046E05D
:1031B00061E088810E94C3168981DF91CF911F91C0
:1031C0000F91FF90EF9008950F93062F26E046E0B1
:1031D00061E0FC0180810E9433170F910895EF9206
:1031E000FF920F931F93CF93DF93EC01E090550173
:1031F000F09056018C010F5F1F4F26E046E062E021
:1032000088810E94C3168981DF91CF911F910F9110
:10321000FF90EF9008950F93062F26E046E062E0BE
:10322000FC0180810E9433170F910895AB016AE081
:10323000FC0180810C94D515AB0163E1FC01808118
:103240000C94D515AB0165E1FC0180810C94D5157A
:10325000AB0167E1FC0180810C94D515262F47E076
:103260006AE6FC0180810C94001721E043E06AE6E5
:10327000FC0180810C9400176F7121116062411173
:103280006064462F6DE6FC0180810C948715462F03
:103290006EE6FC0180810C948715CF93DF93EC01DF
:1032A0002091550130915601AC014F5F5F4F6FE6A1
:1032B00088810E9494168981DF91CF9108955F9251
:1032C0006F927F928F929F92AF92BF92CF92DF9236
:1032D000EF92FF920F931F93CF93DF937C015B01DB
:1032E0006A01622E702E20E040E0662D0E943C199B
:1032F000602FC7010E944719C0E0D0E0812C9924BB
:103300009394CC15DD05A8F5CE014096C816D906D4
:1033100018F45C2C5C1A02C0A0E15A2E252D30E076
:10332000C401871991098217930714F4572C5194FB
:10333000009155011091560195012C0F3D1F452D0F
:103340006FE6F70180810E94E715C50DD11D750C50
:10335000CC15DD05B0F6711001C0639420E040E0AB
:10336000662DC7010E943C19672DC7010E944719AD
:10337000C8CFDF91CF911F910F91FF90EF90DF9019
:10338000CF90BF90AF909F908F907F906F905F9005
:1033900008952F923F924F925F926F927F928F92F9
:1033A0009F92AF92BF92CF92DF92EF92FF920F93D4
:1033B0001F93CF93DF9300D000D01F92CDB7DEB71D
:1033C0009D838C837B836A834A01322ED02EE982CF
:1033D00020E040E0632D0E943C19602F8C819D818C
:1033E0000E944719E980EE2029F080E190E00E94D8
:1033F000522E5C01CC2031F080E190E00E94522EF0
:10340000582E492EE12CF12CE814F90408F07AC06A
:10341000C70140968816990618F4282C2E1802C069
:1034200010E1212E222D30E080E091E08D199109EC
:103430008217930714F42D2C2194EA81FB81EE0D61
:10344000FF1DCC2059F0852DA52DB42D9A2F981B4A
:10345000921530F494919D933196F8CF5E2E4F2EB5
:10346000252D342D422D6FE6AC81BD818C910E94BB
:103470004E15622C712CB981BB2369F1A114B104E2
:1034800051F120E040E0632D8C819D810E943C1928
:103490006D2D8C819D810E944719009155011091DD
:1034A00056019501422D6FE6EC81FD8180810E94DD
:1034B000E715A301B501852D942D0E94FA32892BC1
:1034C00051F0C5010E94EA2ECC2049F1852D942DA2
:1034D0000E94EA2E24C0E60CF71CD20CE814F90472
:1034E00008F092CFD11001C0339420E040E0632D6A
:1034F0008C819D810E943C196D2D8C819D810E9443
:10350000471982CFF981FF2319F0C5010E94EA2EE5
:10351000CC2039F0852D942D0E94EA2E02C080E047
:1035200001C081E00F900F900F900F900F90DF91EE
:10353000CF911F910F91FF90EF90DF90CF90BF90B0
:10354000AF909F908F907F906F905F904F903F9043
:103550002F900895CF92EF920F93CC24C3940E94A2
:10356000C9190F91EF90CF9008952F923F924F92EB
:103570005F926F927F928F929F92AF92BF92CF9203
:10358000DF92EF92FF920F931F93CF93DF9300D0C0
:103590001F92CDB7DEB74C017B836A833A01D22EEE
:1035A000222331F088E090E00E94522E182FF92E4D
:1035B000212C312C2614370408F051C0EA81FB81FC
:1035C000E20DF31DC10103965C01DD20C1F04491C1
:1035D000F10131968A819B81E80FF91F0491F10175
:1035E0003296E80FF91F5490511044C0F4E02F0EAA
:1035F000311CEA81FB81EA0DFB1D84910DC04081E5
:1036000001815280EA81FB81E80FF91F51100DC042
:1036100084E0280E311C80818130D1F442E368E3DC
:10362000F40180810E948715C5CF1E2FFF2E452CE7
:10363000512CC12CEE24E394242FA201612F7F2D65
:10364000C4010E94C91912012A0C3B1C8111B2CF7E
:10365000DD2061F0812F9F2D0E94EA2E07C0DD2022
:1036600039F0812F9F2D0E94EA2E02C080E024C0F5
:1036700081E022C0252C312CF2E0F51548F4B1018F
:10368000812F9F2D49830E94792F182FF92E498170
:10369000812F9F2DA0E0B0E02A813B812A0D3B1DA8
:1036A000A215B30520F6F901EA0FFB1F5491FC01A6
:1036B0005193CF011196F4CF0F900F900F90DF919F
:1036C000CF911F910F91FF90EF90DF90CF90BF901F
:1036D000AF909F908F907F906F905F904F903F90B2
:1036E0002F90089521E00C94B51A462F60E7FC0155
:1036F00080810C948715462F61E7FC0180810C9432
:1037000087158091AD0590E02091AE05821B91094F
:1037100008952091AE058091AD05281750F4E22F51
:10372000F0E0E155FA4F808190E02F5F2093AE05E5
:1037300008958FEF9FEF0895E091AE058091AD055C
:10374000E81730F4F0E0E155FA4F808190E00895F9
:103750008FEF9FEF08950895CF92DF92EF92FF923F
:103760000F931F93CF93DF937C01CB018A012091AC
:103770008905222389F0EB016B01C40ED51ECC15FF
:10378000DD0569F06991D701ED91FC910190F0811F
:10379000E02DC7010995F3CF642F0E940B1DC801CE
:1037A000DF91CF911F910F91FF90EF90DF90CF901D
:1037B0000895CF93DF931F92CDB7DEB76983209131
:1037C00089052223D1F020918A05203240F021E0A2
:1037D00030E0FC013383228380E090E015C08091CB
:1037E0008B05E82FF0E0E457FA4F998190838F5FC3
:1037F00080938B0580938A0505C061E0CE01019618
:103800000E940B1D81E090E00F90DF91CF91089511
:10381000FC011382128248EE53E060E070E04483C2
:1038200055836683778389E193E09183808308954C
:103830001092AE051092AD0510928B0510928A057C
:103840000C94561C862F413208F040E26FEA75E076
:103850000E94741C1092AE058093AD05089521E07E
:103860000C94221C81E0809389056093AC05109232
:103870008B0510928A0508950F93062F21E0409141
:103880008A056CE875E08091AC050E94B81C109226
:103890008B0510928A05109289050F91089561E0B9
:1038A0000C943C1C8DE795E00C94081C10923C068F
:1038B00081E080933A061092390661E082E10E942D
:1038C000112561E083E10E941125E9EBF0E08081A0
:1038D0008E7F808380818D7F808388E48093B80091
:1038E00085E48093BC000895413208F03FC0909178
:1038F0003C069111FCCF91E090933C0620933A0650
:103900002FEF2093CF0510921406240F2093130657
:1039100090933B0690913B06880F892B80933B0642
:1039200080913906813041F41092390680913B062E
:103930008093BB0085EC01C085EE8093BC00809134
:103940003C068130E1F380911406841710F4409115
:10395000140625E136E0FB01D9018A2F821B84176A
:1039600018F48D918193F9CF842F089580E0089504
:103970000F93413208F046C090913C069111FCCF64
:1039800092E090933C0600933A069FEF9093CF0508
:103990001092140640931306FB0165E176E0DB010B
:1039A0009A2F961B941718F491919D93F9CF10922A
:1039B0003B0690913B06880F892B80933B068091B4
:1039C0003906813041F41092390680913B0680938C
:1039D000BB0085EC01C085EE8093BC00222321F062
:1039E00080913C068230E1F38091CF058F3F61F0FA
:1039F0008091CF05803251F08091CF05803341F422
:103A000083E007C081E005C080E003C082E001C020
:103A100084E00F910895613298F420913C0624309F
:103A200089F46093F105FC0183EF95E0DC012A2F16
:103A3000281B261718F421912D93F9CF80E00895C3
:103A400081E0089582E0089585ED8093BC00809127
:103A5000BC0084FDFCCF10923C06089585EC809359
:103A6000BC0010923C0608951F920F920FB60F9261
:103A700011242F933F934F935F936F937F938F9373
:103A80009F93AF93BF93EF93FF938091B900887F8B
:103A9000803609F49CC068F5883209F45BC090F464
:103AA000803109F454C038F4882309F4F5C0883013
:103AB00009F44DC0F5C0883109F44CC0803209F4D6
:103AC0005DC0EEC0803409F468C048F4803309F466
:103AD00055C0883309F0E4C08093CF05A8C0803575
:103AE00009F44FC0883509F45DC0883409F0D8C0A6
:103AF000D5C0883909F4C6C0A8F4883709F467C06E
:103B000038F4883609F463C0803709F460C0C8C04F
:103B1000883809F4B7C0803909F45FC0803809F0EB
:103B2000BFC05BC0803B09F485C038F4803A09F41B
:103B300066C0883A09F47EC0B3C0803C09F4A6C0D0
:103B4000883C09F4A3C0883B09F489C0A9C08091CE
:103B50003B0610C09091140680911306981770F5DB
:103B6000E091140681E08E0F80931406F0E0EB5E86
:103B7000F94F80818093BB0085EC85C08093CF0591
:103B80008DC0E091140681E08E0F80931406809121
:103B9000BB00F0E0EB5EF94F8083909114068091BA
:103BA00013066DC0E091140681E08E0F8093140619
:103BB0008091BB00F0E0EB5EF94F808380913A0684
:103BC00081116CC081E08093390684EA60C083E093
:103BD00080933C061092D005CFCF8091D0058032E3
:103BE00008F050C0E091D00581E08E0F8093D005A1
:103BF0008091BB00F0E0EF52FA4F8083BDCF8091FF
:103C0000D005803230F4E091D005F0E0EF52FA4F69
:103C100010820E94241D6091D00570E0E09135066D
:103C2000F091360681ED95E009951092D0050E943D
:103C30002E1D36C084E080933C061092F20510924F
:103C4000F105E0913706F091380609958091F1056C
:103C5000811105C081E08093F1051092F305E09198
:103C6000F20581E08E0F8093F205F0E0ED50FA4FFF
:103C700080818093BB009091F2058091F1059817A7
:103C800008F47ACF85E88093BC000AC085EC809365
:103C9000BC0010923C0604C01092CF050E94241D67
:103CA000FF91EF91BF91AF919F918F917F916F9114
:103CB0005F914F913F912F910F900FBE0F901F90EA
:103CC0001895CF93DF93EC0188819981DC01ED9108
:103CD000FC910190F081E02D09952A813B81280F0C
:103CE000391F3B832A83DF91CF910895DB01ED914A
:103CF000FC9111970190F081E02DBC01CD01099458
:103D00000F931F93CF93DF938C01F801C281D3816E
:103D10008881992787FD90950E94DA32892B29F0B6
:103D20002196F801D383C283F0CFDF91CF911F9109
:103D30000F9108950F931F93CF93DF931F92CDB7E9
:103D4000DEB78C0169830E94801ED8011296ED9126
:103D5000FC9113978081698186130AC0319613966E
:103D6000FC93EE931297C8010E94801E81E001C06F
:103D700080E00F90DF91CF911F910F910895FB018B
:103D80002191BF01222379F0DC011296ED91FC9183
:103D900013973081321307C03196DC011396FC93E0
:103DA000EE931297ECCF81E0211180E00895BF924D
:103DB000CF92DF92EF92FF920F931F93CF93DF93F7
:103DC0007C01EB01009771F465E273E0CE01DF91B5
:103DD000CF911F910F91FF90EF90DF90CF90BF9008
:103DE0000C94CD27E881F9810190F081E02D62E209
:103DF000CE0109958C01F70161917F01662351F095
:103E0000E5E3F3E0B080BB2079F191819617B1F042
:103E10003296F8CFE881F9810190F081E02D62E2DD
:103E2000CE010995800F911FDF91CF911F910F91C6
:103E3000FF90EF90DF90CF90BF900895E881F981D7
:103E40000190F081E02D6CE5CE0109956C01E881CF
:103E5000F9810190F081E02D6B2DCE0109958C0D3B
:103E60009D1D080F191FC7CFE881F9810190F081CE
:103E7000E02DCE010995F5CFCF93FC015081523250
:103E800029F0573219F080E090E023C09C012F5FA9
:103E90003F4FD901F901CF0101964081442399F3A5
:103EA000451791F04C3569F401964181E9E3F3E05F
:103EB000C081CC2331F0C41302C0418102C03296CC
:103EC000F7CF4D93FC01E7CF1C92FB0191838083D8
:103ED000C901CF910895CF93DF93EC01BC0184E039
:103EE00090E00E94761EFC01009729F0D183C083E8
:103EF0001382128202C087E496E0DF91CF91089589
:103F0000CF93DF93EC01BC0184E090E00E94761E29
:103F1000FC01009729F0D183C0831382128202C072
:103F200083E496E0DF91CF9108950F931F93CF9391
:103F3000DF938B01FC01C281D381209759F0B80136
:103F40008A819B810E941733892B39F00990D8818F
:103F5000C02DF3CF80E090E001C0CE01DF91CF9182
:103F60001F910F9108950E94951F009711F00496DC
:103F700008958DE396E00895FC012081318125307C
:103F8000310519F482819381089580E090E00895CD
:103F9000FC0120813181273031052CF06281738151
:103FA00084819581089560E070E0CB010895FC0163
:103FB000208131812630310529F462817381848129
:103FC0009581089560E070E0CB010895FC01808147
:103FD0009181892B29F084E090E091838083628332
:103FE0000895FC0180819181892B31F085E090E07A
:103FF00091838083738362830895FC018081918122
:10400000892B49F030E0295F3F4F31832083428381
:104010005383648375830895FC0180819181892B8A
:1040200041F086E090E091838083428353836483F0
:1040300075830895FC0180819181892B31F082E0A4
:1040400090E091838083738362830895FC01808173
:104050009181892B31F083E090E091838083738399
:1040600062830895CF93DF93FC01EB0120813181BE
:104070002230310531F482819381DF91CF910C940C
:1040800088202330310531F482819381DF91CF91F3
:104090000C94AE202530310539F468817981828114
:1040A00093810E94D71E2BC02630310559F44281DE
:1040B0005381648175812AE030E0888199810E9472
:1040C00055281DC02430310569F48281882319F0F8
:1040D0006AE273E002C06FE273E0888199810E9416
:1040E000CD270DC02730310584F0275030E04281C4
:1040F000538164817581888199810E949E292A81DA
:104100003B81280F391F3B832A83DF91CF9108958C
:104110000F931F93CF93DF93EC018B016BE5C801E5
:104120000E94611E0A80DB81C02D209779F0B801C2
:10413000CE0102960E9432200990D881C02D20978E
:1041400029F06CE2C8010E94611EF1CF6DE5C80143
:10415000DF91CF911F910F910C94611E0F931F93CC
:10416000CF93DF938C01EB016BE7CE010E94611EC0
:10417000F801028113810115110509F16881798126
:10418000F801828193810E94D71E2A813B81280FEA
:10419000391F3B832A836AE3CE010E94611EBE0160
:1041A000C80104960E943220F80100811181011596
:1041B000110529F06CE2CE010E94611EDFCF6DE790
:1041C000CE01DF91CF911F910F910C94611EFC01E4
:1041D000608171816115710579F08AE090E00E943B
:1041E000761EFC01009741F01182108281E090E080
:1041F00095838483CF01089580E090E00895DC01E9
:104200001296ED91FC911397309749F0808191813E
:10421000009711F0FC01FACF718360830895FC01CF
:10422000738362830895EF92FF920F931F93CF934E
:10423000DF938C017B010E94951FEC01009761F4D4
:10424000C8010E94E720EC01009749F0FB82EA8256
:10425000BC01C8010E94FF20CE01049602C08DE37C
:1042600096E0DF91CF911F910F91FF90EF9008950D
:10427000FC01608171816115710579F088E090E041
:104280000E94761EFC01009741F01182108281E0AD
:1042900090E093838283CF01089580E090E00895B9
:1042A000DC011296ED91FC911397309749F08081D3
:1042B0009181009711F0FC01FACF7183608308951A
:1042C000FC017383628308950F931F93CF93DF9351
:1042D0008C010E943821EC01009739F0BC01C80123
:1042E0000E945021CE01029602C08DE396E0DF913C
:1042F000CF911F910F910895EF92FF920F931F930B
:10430000CF93DF93EC01888199810E946B1F7C0120
:104310006BE5CE010E949A1E811103C087E496E0EE
:1043200022C06DE5CE010E949A1E81111BC0C701FB
:104330000E9464218C01BC01CE010E94BA21F801C7
:10434000208131812230310548F36DE5CE010E9494
:104350009A1E811107C06CE2CE010E949A1E811143
:10436000E6CFDCCFC701DF91CF911F910F91FF9076
:10437000EF900895EF92FF920F931F93CF93DF93E7
:1043800000D0CDB7DEB78C017B01DC0114968C9197
:104390001497882309F4A3C0815014968C93C80104
:1043A0000E94801EF80182819381DC012C912A33C6
:1043B0007CF420330CF03FC0273209F461C024F4B0
:1043C000223209F45DC065C02D522230A0F161C0D7
:1043D0002E3609F442C02CF42B3581F02636B1F08C
:1043E00058C0243799F02B3709F053C0C8010E94F8
:1043F0007822BC01C7010E9426204BC0C8010E9440
:104400007C21BC01C7010E941A2043C06AE273E00C
:10441000C8010E94BF1E882311F061E008C06FE24E
:1044200073E0C8010E94BF1E882309F160E0C70144
:104430000E94E61F2EC04AE050E0BE016F5F7F4F32
:104440000E94A631AB01BC01E981FA8180818E32E4
:1044500029F18F7D8534D1F521C065E273E0C80173
:104460000E94BF1E882319F060E070E00FC086E054
:10447000EDE3F6E0D70101900D928A95E1F709C0CE
:10448000B8016E5F7F4F0E943C1FBC01C7010E94B4
:10449000F11FF80184818F5F848321C0B8016E5FB2
:1044A0007F4FD80112968D919C9113970E944330B3
:1044B000AB01BC01F8012281338189819A81281BDB
:1044C000390B2150C7010E94FD1FE3CFD80113967D
:1044D000FC93EE931297C7010E940C20DACF0F9045
:1044E0000F90DF91CF911F910F91FF90EF90089562
:1044F000CF92DF92EF92FF920F931F93CF93DF93B0
:10450000EC01888199810E94801F6C016BE7CE01CC
:104510000E949A1E811103C083E496E035C06DE7C6
:10452000CE010E949A1E81112EC07E0182E0E80E0B
:10453000F11CB7018A819B810E943C1F8C0100976E
:1045400059F36AE3CE010E949A1E882329F3B80129
:10455000C6010E9413218C01BC01CE010E94BA2128
:10456000F8012081318122303105B0F26DE7CE01B2
:104570000E949A1E811107C06CE2CE010E949A1E11
:104580008111D7CFC9CFC601DF91CF911F910F9174
:10459000FF90EF90DF90CF900895CF93DF9300D0FE
:1045A00000D01F92CDB7DEB79A8389837C836B835B
:1045B0004D83CE0101960E9478220F900F900F90AC
:1045C0000F900F90DF91CF910895109248061092AE
:1045D000470610924A06109249061092440610921D
:1045E0004306109246061092450610923E0610921F
:1045F0003D0608958230E8F4E82FF0E0EE0FFF1F4B
:10460000E55BF94F71836083813041F080916900EF
:104610008C7F842B80936900E89A089580916900CB
:10462000440F551F440F551F837F842B80936900CF
:10463000E99A08951F920F920FB60F9211242F93AB
:104640003F934F935F936F937F938F939F93AF931A
:10465000BF93EF93FF9380914B0690914C06892B6B
:1046600029F0E0914B06F0914C060995FF91EF91EE
:10467000BF91AF919F918F917F916F915F914F917A
:104680003F912F910F900FBE0F901F9018951F9282
:104690000F920FB60F9211242F933F934F935F9376
:1046A0006F937F938F939F93AF93BF93EF93FF93FA
:1046B00080914D0690914E06892B29F0E0914D0690
:1046C000F0914E060995FF91EF91BF91AF919F91A7
:1046D0008F917F916F915F914F913F912F910F90AB
:1046E0000FBE0F901F9018951F920F920FB60F924A
:1046F00011242F933F938F939F93AF93BF938091F8
:10470000500690915106A0915206B09153063091F7
:104710004F0623E0230F2D3720F40196A11DB11D74
:1047200005C026E8230F0296A11DB11D20934F0658
:104730008093500690935106A0935206B09353066F
:104740008091540690915506A0915606B091570657
:104750000196A11DB11D8093540690935506A09318
:104760005606B0935706BF91AF919F918F913F919D
:104770002F910F900FBE0F901F9018952FB7F894A0
:1047800060915006709151068091520690915306A7
:104790002FBF08953FB7F894809154069091550625
:1047A000A0915606B091570626B5A89B05C02F3F8D
:1047B00019F00196A11DB11D3FBF6627782F892FE3
:1047C0009A2F620F711D811D911D42E0660F771FA8
:1047D000881F991F4A95D1F70895CF92DF92EF92E3
:1047E000FF92CF93DF936B017C010E94CA23EB0100
:1047F000C114D104E104F10489F00E94E7290E9468
:10480000CA236C1B7D0B683E734090F381E0C81A8D
:10481000D108E108F108C851DC4FEACFDF91CF9110
:10482000FF90EF90DF90CF900895789484B58260E8
:1048300084BD84B5816084BD85B5826085BD85B544
:10484000816085BDEEE6F0E0808181608083E1E8F3
:10485000F0E010828081826080838081816080832B
:10486000E0E8F0E0808181608083E1EBF0E080812E
:1048700084608083E0EBF0E0808181608083EAE700
:10488000F0E0808184608083808182608083808189
:10489000816080838081806880831092C100089548
:1048A0001F93CF93DF93182FEB0161E00E94D82470
:1048B000209711F460E004C0CF3FD10539F461E0E6
:1048C000812FDF91CF911F910C941125E12FF0E002
:1048D000E65CF54FE491E330F9F048F4E130B9F0EB
:1048E000E230A1F584B5806284BDC8BD34C0E73034
:1048F000E9F0E83019F1E43049F5809180008062F8
:1049000080938000D0938B00C0938A0024C084B52C
:10491000806884BDC7BD1FC080918000806880937F
:104920008000D0938900C093880015C08091B000AA
:1049300080688093B000C093B3000DC08091B00038
:1049400080628093B000C093B40005C0C038D10528
:104950000CF0B5CFAFCFDF91CF911F910895833089
:1049600081F028F4813099F08230A1F008958730E9
:10497000A9F08830B9F08430D1F4809180008F7D27
:1049800003C0809180008F7780938000089584B564
:104990008F7702C084B58F7D84BD08958091B0006B
:1049A0008F7703C08091B0008F7D8093B000089511
:1049B000CF93DF9390E0FC01E25BF54F2491FC0183
:1049C000EE59F54F8491882349F190E0880F991FA3
:1049D000FC01E657F54FA591B4918058954FFC0125
:1049E000C591D4919FB7611108C0F8948C9120951E
:1049F00082238C93888182230AC0623051F4F89418
:104A00008C91322F309583238C938881822B8883DD
:104A100004C0F8948C91822B8C939FBFDF91CF912F
:104A200008950F931F93CF93DF931F92CDB7DEB7F7
:104A3000282F30E0F901E65CF54F8491F901E25B43
:104A4000F54F1491F901EE59F54F04910023C9F087
:104A5000882321F069830E94AF246981E02FF0E070
:104A6000EE0FFF1FE058F54FA591B4919FB7F89452
:104A70008C91611103C01095812301C0812B8C930F
:104A80009FBF0F90DF91CF911F910F910895CF930A
:104A9000DF93282F30E0F901E65CF54F8491F901AE
:104AA000E25BF54FD491F901EE59F54FC491CC2357
:104AB00091F081110E94AF24EC2FF0E0EE0FFF1F68
:104AC000EA58F54FA591B4912C912D2381E090E007
:104AD00021F480E002C080E090E0DF91CF91089562
:104AE000FC01818D228D90E0805C9F4F821B91099B
:104AF0008F7399270895FC01918D828D981731F05D
:104B0000828DE80FF11D858D90E008958FEF9FEF66
:104B10000895FC01918D828D981761F0828DDF01DF
:104B2000A80FB11D5D968C91928D9F5F9F73928FA0
:104B300090E008958FEF9FEF08958DE097E2892B25
:104B400049F080E090E0892B29F00E940D27811127
:104B50000C9400000895FC01848DDF01A80FB11DA5
:104B6000A35ABF4F2C91848D90E001968F739927A3
:104B7000848FA689B7892C93A089B1898C91806490
:104B80008C93938D848D981306C00288F389E02D51
:104B900080818F7D80830895CF93DF93EC01888D92
:104BA0008823C9F0EA89FB89808185FD05C0A88931
:104BB000B9898C9186FD0FC00FB607FCF5CF8081B7
:104BC00085FFF2CFA889B9898C9185FFEDCFCE0101
:104BD0000E94AB25E7CFDF91CF910895CF92DF926E
:104BE000FF920F931F93CF93DF931F92CDB7DEB742
:104BF0006C01DC015B969C915B975C968C915C9759
:104C0000981307C05096ED91FC915197808185FDD6
:104C100032C0F601038D10E00F5F1F4F0F73112795
:104C2000F02EF601848DF81211C00FB607FCF9CFF3
:104C3000D6015096ED91FC915197808185FFF1CF7F
:104C4000C60169830E94AB256981EBCF838DE80F94
:104C5000F11DE35AFF4F6083D6015B960C935B977F
:104C60005296ED91FC91539780818062808381E020
:104C700058968C930DC0D6015696ED91FC9157979E
:104C800060835096ED91FC91519780818064808380
:104C900081E090E00F90DF91CF911F910F91FF90F5
:104CA000DF90CF900895BF92CF92DF92EF92FF9264
:104CB000CF93DF93EC016A017B01B22EE889F98979
:104CC00082E08083411581EE580761057105A1F0EE
:104CD00060E079E08DE390E0A70196010E94662DE7
:104CE0002150310941095109569547953795279526
:104CF000211580E1380798F0E889F989108260E889
:104D000074E88EE190E0A70196010E94662D215083
:104D10003109410951095695479537952795EC85F5
:104D2000FD853083EE85FF852083188EEC89FD8913
:104D3000B082EA89FB89808180618083EA89FB896E
:104D4000808188608083EA89FB8980818068808394
:104D5000EA89FB8980818F7D8083DF91CF91FF90ED
:104D6000EF90DF90CF90BF9008951F920F920FB6F3
:104D70000F9211242F938F939F93EF93FF93E091C2
:104D80006806F09169068081E0916E06F0916F06E9
:104D900082FD12C09081809171068F5F8F73209188
:104DA0007206821751F0E0917106F0E0E85AF94F6F
:104DB000958F8093710601C08081FF91EF919F9143
:104DC0008F912F910F900FBE0F901F9018951F92EB
:104DD0000F920FB60F9211242F933F934F935F932F
:104DE0006F937F938F939F93AF93BF93EF93FF93B3
:104DF00088E596E00E94AB25FF91EF91BF91AF91BE
:104E00009F918F917F916F915F914F913F912F91E2
:104E10000F900FBE0F901F90189588E596E00E94A6
:104E2000702521E0892B09F420E0822F089510924B
:104E30005B0610925A0688EE93E0A0E0B0E0809303
:104E40005C0690935D06A0935E06B0935F0688E4CF
:104E500093E0909359068093580685EC90E09093E8
:104E600065068093640684EC90E0909367068093D7
:104E7000660680EC90E0909369068093680681EC6A
:104E800090E090936B0680936A0682EC90E090939A
:104E90006D0680936C0686EC90E090936F0680938D
:104EA0006E0610927106109272061092730610929E
:104EB0007406089508950E9415240E945A270E949E
:104EC000E80CCDE9D5E20E9446142097E1F30E9458
:104ED0009D25F9CFCF92DF92EF92FF920F931F9310
:104EE000CF93DF936C017A01EB01E60EF71E00E031
:104EF00010E0CE15DF0561F06991D601ED91FC91CE
:104F00000190F081E02DC6010995080F191FF1CF1E
:104F1000C801DF91CF911F910F91FF90EF90DF902B
:104F2000CF9008956115710581F0DB010D9000208F
:104F3000E9F7AD0141505109461B570BDC01ED91DA
:104F4000FC910280F381E02D099480E090E00895C7
:104F5000EF92FF920F931F93CF93DF938C01FB018E
:104F6000C0E0D0E064917F018FEFE81AF80A662371
:104F700061F0D801ED91FC910190F081E02DC80124
:104F80000995C80FD91FF701EDCFCE01DF91CF9161
:104F90001F910F91FF90EF9008950C949227DC01E0
:104FA000ED91FC910190F081E02D09940F931F93F6
:104FB000CF93DF93EC016DE00E94CF278C016AE074
:104FC000CE010E94CF27800F911FDF91CF911F91BB
:104FD0000F9108950F931F93CF93DF93EC010E94DD
:104FE000A8278C01CE010E94D627800F911FDF9148
:104FF000CF911F910F9108958F929F92AF92BF9280
:10500000CF92DF92EF92FF920F931F93CF93DF9394
:10501000CDB7DEB7A1970FB6F894DEBF0FBECDBFF8
:105020007C01C42EE52FCB01D22E19A221E02D1533
:1050300010F02AE0D22E8E010F5D1F4F8D2C912C87
:10504000A12CB12C6C2D7E2FA50194010E94662D00
:105050008C2DD29E80191124015011098A3014F42C
:10506000805D01C0895CF80180832115310541050F
:10507000510521F0C22EE32FCA01E4CFB801C701C8
:105080000E949227A1960FB6F894DEBF0FBECDBF47
:10509000DF91CF911F910F91FF90EF90DF90CF9014
:1050A000BF90AF909F908F900895CF92DF92EF9234
:1050B000FF920F931F93CF93DF93EC016A017B0163
:1050C0002115310579F4E881F9810190F081E02D15
:1050D000642FDF91CF911F910F91FF90EF90DF90A0
:1050E000CF9009942A303105E9F477FF1AC06DE2B8
:1050F0000E94CF278C0144275527BA014C195D091E
:105100006E097F092AE0CE010E94FC27800F911FC3
:10511000DF91CF911F910F91FF90EF90DF90CF9093
:1051200008952AE0B701A601CE01DF91CF911F912A
:105130000F91FF90EF90DF90CF900C94FC272115FA
:10514000310541F4DC01ED91FC910190F081E02DFD
:10515000642F09940C94FC279A01462F50E060E0DC
:1051600070E00C949F284F925F926F927F928F9283
:105170009F92AF92BF92CF92DF92EF92FF920F93E6
:105180001F93CF93DF93EC016A017B01B22E9A014A
:10519000AB01C701B6010E94292D882319F064E5EF
:1051A00073E027C026013701E89477F82FEF3FEF2F
:1051B0004FE75FE7C301B2010E94292D81110DC0A5
:1051C0002FEF3FEF4FE75FE7C301B2010E94AF2A25
:1051D00018161CF468E573E00CC02FEF3FEF4FE7A3
:1051E0005FE4C701B6010E94702C1816ACF46CE5A0
:1051F00073E0CE01DF91CF911F910F91FF90EF905F
:10520000DF90CF90BF90AF909F908F907F906F90E6
:105210005F904F900C9492272FEF3FEF4FE75FEC9A
:10522000C701B6010E94AF2A87FDE1CF20E030E040
:10523000A901C701B6010E94AF2A87FF0AC06DE22B
:10524000CE010E94CF278C01F7FAF094F7F8F09482
:1052500002C000E010E0A12C60E070E080E09FE37D
:10526000AB1441F020E030E040E251E40E94B62A65
:10527000A394F6CF9B01AC01C701B6010E94E929B6
:105280006B017C010E94232B2B013C010E944F2BC0
:105290009B01AC01C701B6010E94E8296B017C01AA
:1052A0002AE0B301A201CE010E94FC27080F191FBA
:1052B000BB2039F060E673E0CE010E949227080F10
:1052C000191F7B2C772041F120E030E040E251E4CF
:1052D000C701B6010E947B2C6B017C010E941E2B32
:1052E0004B01AA2497FCA094BA2C2AE030E0B50127
:1052F000A401CE010E945528080F191FC501B40151
:105300000E94512B9B01AC01C701B6010E94E82904
:105310006B017C017A94D6CFC801DF91CF911F91A8
:105320000F91FF90EF90DF90CF90BF90AF909F9044
:105330008F907F906F905F904F9008950C94B3285A
:105340004F925F926F927F92AF92BF92CF92DF9215
:10535000EF92FF920F931F93CF93DF93CDB7DEB7FA
:1053600029013A01621B730B840B950B29893A8939
:105370004B895C892A193B094C095D09298B3A8BB9
:105380004B8B5C8B9B01AC0169897A898B899C89E9
:105390000E94422DE418F50806091709A801970193
:1053A0000E94882D2A0D3B1D4C1D5D1DCA01B901AF
:1053B000DF91CF911F910F91FF90EF90DF90CF90F1
:1053C000BF90AF907F906F905F904F900895089539
:1053D0005058BB27AA270ED038C201D230F006D2CF
:1053E00020F031F49F3F11F41EF4C0C10EF4E0959B
:1053F000E7FBB6C1E92F4BD280F3BA1762077307F8
:105400008407950718F071F49EF563C20EF4E095D9
:105410000B2EBA2FA02D0B01B90190010C01CA016E
:10542000A0011124FF27591B99F0593F50F4503E19
:1054300068F11A16F040A22F232F342F4427585F0B
:10544000F3CF469537952795A795F0405395C9F723
:105450007EF41F16BA0B620B730B840BBAF09150DB
:10546000A1F0FF0FBB1F661F771F881FC2F70EC07A
:10547000BA0F621F731F841F48F48795779567954D
:10548000B795F7959E3F08F0B3CF9395880F08F036
:105490009927EE0F979587950895A1D158F080E848
:1054A00091E009F49EEFA2D128F040E851E059F4D0
:1054B0005EEF09C05BC10DC2E92FE078E8D168F367
:1054C000092E052AC1F3261737074807590738F070
:1054D0000E2E07F8E02569F0E025E0640AC0EF63CE
:1054E00007F8009407FADB01B9019D01DC01CA014C
:1054F000AD01EF934AD0A9D10AD05F91552331F085
:105500002BED3FE049E450FD49EC63CF0895DF9374
:10551000DD27B92FBF7740E85FE316161706480767
:105520005B0710F4D92FE0D19F938F937F936F93F4
:105530008DD2E8E6F0E01DD188D12F913F914F91B7
:105540005F91E5D1DD2349F09058A2EA2AED3FE0D2
:1055500049EC5FE3D0785D274DDFDF9176C1DCD089
:1055600008F481E008954AD1E39580C10CD06DC163
:105570003DD140F034D130F021F45F3F19F0F0C05C
:105580005111A8C1F3C083D198F39923C9F35523CE
:10559000B1F3951B550BBB27AA2762177307840726
:1055A00038F09F5F5F4F220F331F441FAA1FA9F3DC
:1055B00033D00E2E3AF0E0E830D091505040E695CE
:1055C000001CCAF729D0FE2F27D0660F771F881F2F
:1055D000BB1F261737074807AB07B0E809F0BB0B1E
:1055E000802DBF01FF2793585F4F2AF09E3F510542
:1055F00068F0B6C06FC15F3FECF3983EDCF3869570
:1056000077956795B795F7959F5FC9F7880F911DB7
:105610009695879597F90895E1E0660F771F881FA3
:10562000BB1F621773078407BA0720F0621B730B56
:10563000840BBA0BEE1F88F7E095089504D06894A8
:10564000B11148C108952BD188F09F5790F0B92F20
:105650009927B751A0F0D1F0660F771F881F991FC7
:105660001AF0BA95C9F712C0B13081F032D1B1E069
:1056700008952FC1672F782F8827B85F39F0B93F79
:10568000CCF3869577956795B395D9F73EF49095C9
:105690008095709561957F4F8F4F9F4F0895E89447
:1056A00009C097FB3EF490958095709561957F4F6A
:1056B0008F4F9F4F9923A9F0F92F96E9BB27939518
:1056C000F695879577956795B795F111F8CFFAF428
:1056D000BB0F11F460FF1BC06F5F7F4F8F4F9F4F59
:1056E00016C0882311F096E911C0772321F09EE8B7
:1056F000872F762F05C0662371F096E8862F70E01D
:1057000060E02AF09A95660F771F881FDAF7880FF6
:105710009695879597F90895990F0008550FAA0B4C
:10572000E0E8FEEF16161706E807F907C0F01216B4
:105730001306E407F50798F0621B730B840B950BB7
:1057400039F40A2661F0232B242B252B21F408950C
:105750000A2609F4A140A6958FEF811D811D0895A9
:1057600097F99F6780E870E060E008959FEF80EC14
:105770000895DF93CF931F930F93FF92EF92DF92E1
:105780007B018C01689405C0DA2EEF01C0D0FE01C8
:10579000E894A5912591359145915591AEF3EF018E
:1057A00029DEFE019701A801DA9479F7DF90EF90E6
:1057B000FF900F911F91CF91DF9108959F938F9349
:1057C0007F936F93FF93EF939B01AC0194D0EF9184
:1057D000FF91CFDF2F913F914F915F918CC00024BB
:1057E0000A941616170618060906089500240A9446
:1057F00012161306140605060895B8CF50D0E8F324
:10580000E894E0E0BB279F57F0F02AED3FE049EC39
:1058100006C0EE0FBB0F661F771F881F28F0B23A35
:1058200062077307840728F0B25A620B730B840B6C
:10583000E3959A9572F7803830F49A95BB0F661FFE
:10584000771F881FD2F790480AC1092E0394000CD5
:1058500011F4882352F0BB0F40F4BF2B11F460FF0A
:1058600004C06F5F7F4F8F4F9F4F0895EF93E0FF0E
:1058700006C0A2EA2AED3FE049EC5FEBBBDDE5DFC5
:105880000F90039401FC9058E5E9F0E097CF57FDA5
:105890009058440F551F59F05F3F71F04795880F9E
:1058A00097FB991F61F09F3F79F087950895121635
:1058B00013061406551FF2CF4695F1DF08C01616E1
:1058C00017061806991FF1CF869571056105089492
:1058D0000895E894BB2766277727CB0197F90895A9
:1058E0001BDF08F48FEF08959B01AC0160E070E0CE
:1058F00080E89FE33BCE0BD0A8CF71DF28F076DFA6
:1059000018F0952309F02CCF31CF1124E3CFBFDF5E
:10591000A0F3959FD1F3950F50E0551F629FF001C2
:10592000729FBB27F00DB11D639FAA27F00DB11D1B
:10593000AA1F649F6627B00DA11D661F829F2227A4
:10594000B00DA11D621F739FB00DA11D621F839F2B
:10595000A00D611D221F749F3327A00D611D231F01
:10596000849F600D211D822F762F6A2F11249F574F
:1059700050408AF0E1F088234AF0EE0FFF1FBB1F72
:10598000661F771F881F91505040A9F79E3F510511
:1059900070F0E6CE9FCF5F3FECF3983EDCF3869548
:1059A00077956795B795F795E7959F5FC1F7FE2BBC
:1059B000880F911D9695879597F908959F931EDFFF
:1059C0000F9007FCEE5F52CF11F40EF4CFCE45C01E
:1059D00066DFD0F39923D9F3CEF39F57550B87FF9A
:1059E0004AD00024A0E640EA900180585695979549
:1059F00028F4805C660F771F881F20F02617370772
:105A0000480730F4621B730B840B202931294A2B81
:105A1000A69517940794202531254A2758F7660F35
:105A2000771F881F20F026173707480730F4620BCE
:105A3000730B840B200D311D411DA09581F7B90119
:105A4000842F9158880F9695879508959B01AC01F6
:105A500052CF62DE880B990B08959F3F31F0915031
:105A600020F4879577956795B795880F911D969542
:105A7000879597F9089591505040660F771F881FBA
:105A8000D2F70895DB018F939F930E94A72DBF91BA
:105A9000AF91A29F800D911DA39F900DB29F900D7D
:105AA0001124089597FB072E16F4009407D077FD74
:105AB00009D00E94292E07FC05D03EF490958195CF
:105AC0009F4F0895709561957F4F0895A1E21A2E1A
:105AD000AA1BBB1BFD010DC0AA1FBB1FEE1FFF1F92
