:100000000C94E5040C946C2B0C94992B0C940D051A
:100010000C940D050C940D050C940D050C940D0518
:100020000C940D050C940D050C940D050C940D0508
:100030000C940D050C940D050C940D050C940D05F8
:100040000C94C62B0C940D050C94072F0C94392F8F
:100050000C940D050C940D050C940D050C940D05D8
:100060000C94E0230C940D05084AD73B3BCE016E5F
:1000700084BCBFFDC12F3D6C74319ABD56833DDAFF
:100080003D00C77F11BED9E4BB4C3E916BAAAABE0E
:10009000000000803F05A84CCDB2D44EB93836A937
:1000A000020C50B9918688083CA6AAAA2ABE000074
:1000B00000803F0001B202FFFF0190040923A13537
:1000C000016A020600016008000000000000000054
:1000D00000600440000000016202000000600400B3
:1000E000400000037B034CCD6C03AB033656760017
:1000F000680402CB47A202180400058BC1010C045E
:1001000000000000037F060CC92C97979703890312
:10011000264666006C022000024004000000000237
:1001200044040000000002480400000000024C04E7
:10013000000000000250040000000002540400000F
:10014000000002580400000000025C0400000000EF
:1001500002BC040000000001EC0400004000037F2A
:10016000060CC92C9797970402030D355D0409040A
:10017000872D353D00A3010000000001078601FE28
:10018000074105F120283038077E01300746019AE3
:10019000074704F1283038076C04F128303802167C
:1001A000020001FB00003E000B00360001000200CF
:1001B00003000000650054FFEF0000FA80000B12FE
:1001C00082000100020000000000000000000000AA
:1001D00000000000280000FFFF4581FFFFFA7200C9
:1001E000000000000003E80000000100017FFFFFA5
:1001F000FE8001001B000000000000000000000065
:10020000000000003E03304000000002CAE3093E47
:10021000800000200000000000000040000000609E
:1002200000000041FF000000000B2A0000165500EE
:10023000002182FD872650FD800000001F00000085
:100240000580000000000000010000000200000026
:10025000030000400000000000046F00026532004F
:10026000005EC04000000000000000000000000030
:10027000000000FB8C6F5DFD5D08D9007C733B00C6
:100280006C12CC3200139D3200D0D63200080040F0
:100290000001F4FFE68079020000000000D0D600E3
:1002A000002710FB000000400000000000000000DC
:1002B000000000000000010000000000000100013B
:1002C0000000000000FA36FFBC308E0005FBF0FF96
:1002D000D95BC8FFD09ABE000010A9FFF41EB2007F
:1002E000CEBBF70000000100000004000200020283
:1002F00000000CFFC280000001800000CF800040A1
:1003000000000000000001000000000000060000E6
:1003100000001400000000000000000000000000C9
:1003200000000000000000000000000000000000CD
:1003300000000000000000000000000000000000BD
:1003400000000000000000033F68B6793528BCC6F5
:100350007ED16C80000000400000000000B26A0006
:10036000000000000000000000000000003FF0005E
:10037000000030000000000000000000000000004D
:10038000000000000000000000000000000000006D
:100390000000000000254D002F706D000005AE002C
:1003A0000C02D00000000000650054FFEF000000C8
:1003B000000000000001000044000000000C0000EC
:1003C000000100000000000065000000540000FF74
:1003D000EF0000000000000000000000000000002E
:1003E00000000040000000000000000000000000CD
:1003F00000000040000000000000000000000000BD
:1004000000000000000001000000020000000000E9
:1004100000000000000000000000000000000000DC
:1004200000000000000000000000000000000000CC
:10043000000000001B0000000000000000000000A1
:1004400000000000000000000000000000000000AC
:10045000000000000000000000000000000000405C
:10046000000000001B000000000000000000000071
:10047000000000000000000000000000000000007C
:10048000000000000000000000000000000000006C
:10049000000000000000000000000000000000005C
:1004A000000000D8DCBAA2F1DEB2B8B4A88191F79E
:1004B0004A907F916AF3F9DBA8F9B0BAA080F2CE36
:1004C00081F3C2F1C1F2C3F3CCA2B280F1C6D880ED
:1004D000BAA7DFDFDFF2A7C3CBC5B6F087A29424AB
:1004E00048703C95406834589B78A2F183922D5512
:1004F0007DD8B1B4B8A1D09180F270F370F27C8055
:10050000A8F101B09887D943D886C988BAA1F20E5C
:10051000B89780F1A9DFDFDFAADFDFDFF2AAC5CD60
:10052000C7A90CC92C97979797F1A989264666B059
:10053000B4BA80ACDEF2CAF1B28C02A9B6980089D6
:100540000E161EB8A9B4992C547CB08AA8963656BB
:1005500076F1B9AFB4B083C0B8A89711B18F98B98C
:10056000AFF0240844106418F1A329557DAF83B57A
:1005700093AFF0002850F1A3869F61A6DADEDFD9A1
:10058000FAA38696DB31A6D9F8DFBAA68FC2C5C713
:10059000B28CC1B8A2DFDFDFA3DFDFDFD8D8F1B8CC
:1005A000A8B286B4980D355DB8AA98B0872D353DB0
:1005B000B2B6BAAF8C96198F9FA70E161EB49AB812
:1005C000AA872C547CB9A3DEDFDFA3B180F2C4CDAF
:1005D000C9F1B8A9B499830D355D89B9A32D557DAD
:1005E000B593A30E161EA92C547CB8B4B0F1978312
:1005F000A81184A50998A383F0DA2408441064188C
:10060000D8F1A529557DA58595021A2E3A565A404E
:1006100048F9F3A3D9F8F098832408441064189794
:1006200082A8F111F098A2240844106418DAF3DECD
:10063000D883A59401D9A302F1A2C3C5C7D8F18478
:1006400092A24DDA2AD84869D92AD86855DA32D820
:100650005071D932D8705DDA3AD85879D93AD87809
:1006600093A34DDA2AD84869D92AD86855DA32D8FE
:100670005071D932D8705DDA3AD85879D93AD878E9
:10068000A88A9AF02850789EF38818F19F1D98A8A0
:10069000D908D8C89F129EF315A8DA1210D8F1AF66
:1006A000C8978734B5B994A421F3D922D8F22DF391
:1006B000D92AD8F235F3D932D881A4606061D961E2
:1006C000D86C6869D969D8747071D971D8B1A384AC
:1006D000193D5DA3831A3E5E931030811011B8B0AE
:1006E000AF8F94F2DA3ED8B49AA88729DAF8D8877F
:1006F0009A35DAF8D8879A3DDAF8D8B1B9A498854E
:10070000022E56A581000C14A397B08AF12DD9288A
:10071000D84DD948D86DD968D8B1840DDA0ED8A390
:100720002983DA2C0ED8A3844983DA2C4C0ED8B84E
:10073000B0A88A9AF520AADADFD8A840AAD0DADED3
:10074000D8A860AADAD0DFD8F19786A8319B06999D
:1007500007AB9728889BF00C201440B8B0B4A88C45
:100760009CF0042851791D301438B282ABD0982CFB
:10077000505078789BF11AB0F08A9CA82951798B57
:100780002951798A2470598B2058718A4469388B91
:100790003940688A6448318B304960A588200971E6
:1007A000584468113964493019F1AC002C547CF07C
:1007B0008CA804285078F1889726A85998AC8C0208
:1007C000264666F0899CA8295179247059446938D5
:1007D000644831A98809205970AB11384069A819BB
:1007E0003148608CA83C415C207C00F187981986D8
:1007F000A86E767EA999882D557D9EB9A38A228AF6
:100800006E8A568A5E9FB183062646660E2E4E6E0F
:100810009DB8AD002C547CF2B18CB499B9A32D5580
:100820007D8191AC38AD3AB58391AC2DD928D84DA6
:10083000D948D86DD968D88C9DAE29D904AED85185
:10084000D904AED879D904D881F39DAD008DAE1905
:1008500081ADD901D8F2AEDA26D88E912983A7D9F5
:10086000ADADADADF32AD8D8F1B0AC89913E5E768E
:10087000F3AC2E2EF1B18C5A9CAC2C2828289CACC1
:100880003018A8988128343C9724A728343C9C240D
:10089000F2B089AC912C4C6C8A9B2DD9D8D851D907
:1008A000D8D879D9D8D8F19E88A331DAD8D8912D63
:1008B000D928D84DD948D86DD968D8B18393353D5A
:1008C0008025DAD8D88569DAD8D8B49381A32834BA
:1008D0003CF3AB8BF8A391B609B4D9ABDEFAB08781
:1008E0009CB9A3DDF1A3A3A3A395F1A3A3A39DF1B9
:1008F000A3A3A3A3F2A3B49080F2A3A3A3A3A3A34F
:10090000A3A3A3A3B2A3A3A3A3A3A3B087B599F161
:10091000A3A3A398F1A3A3A3A397A3A3A3A3F39B28
:10092000A3A3DCB9A7F1262626D8D8FF000000082B
:1009300000020100000304070000000000000000A6
:100940000102040810204080010204081020010266
:100950000408102004040404040404040202020233
:100960000202030303030303000000002300260028
:10097000290000000000250028002B0000000000D6
:10098000240027002A004E414E494E495459494EF1
:1009900046CDCCCC3D0AD7233C17B7D13877CC2BEA
:1009A000329595E6241FB14F0A000020410000C88F
:1009B0004200401C4620BCBE4CCA1B0E5AAEC59D10
:1009C0007400331B1822FE22692F11241FBECFEFA3
:1009D000D8E0DEBFCDBF12E0A0E0B1E0EEEEF5E77B
:1009E00002C005900D92A23CB107D9F725E0A2EC18
:1009F000B2E001C01D92AF3FB207E1F719E0CAECC7
:100A0000D9E004C02297FE010E94E135C23CD10723
:100A1000C9F70E94AD2F0C94F53A0C9400001F9278
:100A20000F920FB60F9211242F938F939F93AF9332
:100A3000BF9323B1822F817090E04A9B03C0892B22
:100A400019F00EC0892B61F08091D4039091D503E9
:100A5000A091D603B091D7030196A11DB11D0BC083
:100A60008091D4039091D503A091D603B091D70380
:100A70000197A109B1098093D4039093D503A09362
:100A8000D603B093D703BF91AF919F918F912F91D0
:100A90000F900FBE0F901F9018951F920F920FB6D8
:100AA0000F9211242F938F939F93AF93BF9323B1F2
:100AB00021FB882780F990E04B9B03C0892B19F01C
:100AC0000EC0892B61F08091D8039091D903A09139
:100AD000DA03B091DB030196A11DB11D0BC080911B
:100AE000D8039091D903A091DA03B091DB03019769
:100AF000A109B1098093D8039093D903A093DA0395
:100B0000B093DB03BF91AF919F918F912F910F9085
:100B10000FBE0F901F90189508959C01FC01EE5791
:100B2000FF4F80819181680F791F6138710530F422
:100B3000718360830296820F931F089580E090E096
:100B400008959C01FC01EE5BFF4F80819181680F4D
:100B5000791F6134710530F4718360830296820FCE
:100B6000931F089580E090E00895CF93DF93EC0108
:100B700067E671E00E94462060E070E00E94581F26
:100B80000E94FD1E81EB93E00E94D52867E671E08C
:100B9000CE010E94462061E070E00E94581F0E9432
:100BA000FD1E81EB93E00E94DB2867E671E0CE0139
:100BB0000E94462062E070E00E94581F0E94FD1EC5
:100BC00081EB93E00E94E12867E671E0CE010E948C
:100BD000462063E070E00E94581F0E94FD1E81EBDA
:100BE00093E00E94E72867E671E0CE010E9446206C
:100BF00064E070E00E94581F0E94FD1E81EB93E0AC
:100C00000E94ED2867E671E0CE010E94462065E073
:100C100070E00E94581F0E94FD1E81EB93E0DF915F
:100C2000CF910C94F32860916301709164010E944C
:100C300046200E94FD1E21E06130710509F020E090
:100C400020934601089560916301709164010E94B0
:100C500046200E94FD1E21E06130710509F020E070
:100C600020934701622F8CE00C94632D0E94D91EC3
:100C7000FC0181E0208131812230310508F480E0DF
:100C80000895CF92DF92EF92FF920F931F93CF932D
:100C9000DF938C016CE671E00E943606882309F42C
:100CA00092C06CE671E0C8010E9446200E94FD1EC1
:100CB0006B017C0182E0C816D10408F084C0E60113
:100CC00060E771E0C8010E943606882399F060E76A
:100CD00071E0C8010E9446200E94EE1E2CE02C9D6F
:100CE000F0012D9DF00D1124E75BFE4F60837183B1
:100CF000828393836DE572E0C8010E9436068823E3
:100D000099F06DE572E0C8010E9446200E94EE1E37
:100D10002CE02C9DF0012D9DF00D1124E75BFE4F82
:100D2000648375838683978363E572E0C8010E94BC
:100D30003606882399F063E572E0C8010E944620D8
:100D40000E94EE1E2CE02C9DF0012D9DF00D112433
:100D5000E75BFE4F6087718782879387209709F54D
:100D60001092710310927203109273031092740325
:100D70001092A4031092A5031092A6031092A70349
:100D800010926D0310926E0310926F031092700315
:100D90001092A0031092A1031092A2031092A30339
:100DA00012C0219781F41092DE031092DF0310929B
:100DB000E0031092E1031092E2031092E303109219
:100DC000E4031092E503DF91CF911F910F91FF9003
:100DD000EF90DF90CF900895CF92DF92EF92FF9245
:100DE0007C0162E771E00E943606882359F062E7D1
:100DF00071E0C7010E9446200E94FD1E7093C5034A
:100E00006093C40366E771E0C7010E943606882339
:100E100079F066E771E0C7010E9446200E94EE1E4D
:100E20006093C6037093C7038093C8039093C9036C
:100E30006BE771E0C7010E943606882379F06BE703
:100E400071E0C7010E9446200E94EE1E6093CA0313
:100E50007093CB038093CC039093CD0360E871E053
:100E6000C7010E943606882359F060E871E0C70187
:100E70000E9446200E94FD1E7093CF036093CE0314
:100E80002BED3FE049E450E46091C6037091C70345
:100E90008091C8039091C9030E94A8346B017C0122
:100EA0006091C4037091C503882777FD8095982FC2
:100EB0000E947E339B01AC01C701B6010E94E33260
:100EC0006093D0037093D1038093D2039093D303A4
:100ED00081E08093B003FF90EF90DF90CF90089572
:100EE000CF93DF93EC0160916301709164010E94E4
:100EF00046200E94FD1E21E06130710509F020E0CE
:100F0000209370046091610170916201CE010E9492
:100F10003606882369F06091610170916201CE010B
:100F20000E9446200E94FD1E709341016093400183
:100F3000DF91CF910895CF93DF93EC01609163012E
:100F4000709164010E9446200E94FD1E21E06130E4
:100F5000710509F020E020936F04609161017091A8
:100F60006201CE010E943606882369F0609161011A
:100F700070916201CE010E9446200E94FD1E709376
:100F8000450160934401DF91CF9108958F929F9224
:100F9000AF92BF92CF92EF920F931F93CF93DF93B5
:100FA000CDB7DEB7C059D1090FB6F894DEBF0FBE7A
:100FB000CDBF5C010E94C6276EE170E080E090E04A
:100FC0000E943F2C60E0C5010E94CD2721E041E056
:100FD00060E1C5010E94072966E0C5010E9412294F
:100FE000C5010E94182920E040E060E0C5010E9490
:100FF0000729C5010E944228C5010E946028182FB8
:10100000C5010E948728882EC5010E94AE28982E0F
:101010004FE760E0C5010E94862760E0C5010E949D
:10102000B12748E660E0C5010E948627C5010E94FD
:10103000BF2764E170E080E090E00E943F2CEE2446
:10104000E39400E020E049E857E063EA71E0C5017D
:101050000E94752A882309F40EC240EC50E063EE2A
:1010600070E0C5010E943D2B882309F406C263E0AD
:10107000C5010E94D42762E1C5010E94922764E065
:10108000C5010E943C2761E0C5010E94422763E040
:10109000C5010E944D2763E0C5010E94582763E007
:1010A000C5010E94402B60E0C5010E94462B60E014
:1010B000C5010E945928612FC5010E947C28682D16
:1010C000C5010E94A328692DC5010E94CA28812C50
:1010D000912CF401EC54FF4FE491A1E8B0E0AC0F87
:1010E000BD1FA80DB11DEC9381E0880D9FEF891AFB
:1010F000990AE3E0E81568F7CD57DF4F4881C358F8
:10110000D04050E09A012E5F3F4F90E028173907FA
:1011100004F7C12CEE24E394CE57DF4F0881C25868
:10112000D040CF57DF4F2881C158D04061E870E0F0
:101130006C0F7D1F6D5F7F4FC5010E94942960E099
:10114000F401EC54FF4FE491A1E8B0E0AC0FBD1FF7
:10115000A60FB11DEC936F5FFFEF8F1A9F0A6430EB
:1011600078F3CD57DF4F4881C358D04050E09A0103
:101170002E5F3F4F862F90E0281739070CF7C12CC0
:10118000EE24E394CE57DF4F0881C258D040CF57AA
:10119000DF4F2881C158D04061E870E06C0F7D1F9F
:1011A0006D5F7F4FC5010E949429C5010E94B82739
:1011B000C5010E94F327482FBE016F5F7F4FC50115
:1011C0000E940F2862E0C5010E946E276CE9C501EC
:1011D0000E947A2760E5C5010E94742760E0C5017E
:1011E0000E948027C5010E94B82761E0C5010E94C6
:1011F000AA2761E0C5010E94F928C5010E940029C3
:1012000060E0F401EC54FF4FE491A1E8B0E0AC0FD2
:10121000BD1FA60FB11DEC936F5F8FEF881A980A60
:10122000643078F3CD57DF4F4881C358D04050E049
:101230009A012E5F3F4F862F90E0281739070CF751
:10124000C12CEE24E394CE57DF4F0881C258D04022
:10125000CF57DF4F2881C158D04061E870E06C0F54
:101260007D1F6D5F7F4FC5010E94942960E0F401EE
:10127000EC54FF4FE491A1E8B0E0AC0FBD1FA60F06
:10128000B11DEC936F5F9FEF891A990A643078F370
:10129000CD57DF4F4881C358D04050E09A012E5FB0
:1012A0003F4F862F90E0281739070CF7C12CEE240A
:1012B000E394CE57DF4F0881C258D040CF57DF4F5D
:1012C0002881C158D04061E870E06C0F7D1F6D5FD0
:1012D0007F4FC5010E94942960E0F401EC54FF4F58
:1012E000E491A1E8B0E0AC0FBD1FA60FB11DEC93D7
:1012F0006F5FEFEF8E1A9E0A643078F3CD57DF4FA1
:101300004881C358D04050E09A012E5F3F4F862F4E
:1013100090E0281739070CF7C12CEE24E394CE5740
:10132000DF4F0881C258D040CF57DF4F2881C158C6
:10133000D04061E870E06C0F7D1F6D5F7F4FC5018D
:101340000E949429C5010E94F32783309105D0F3B0
:10135000482FBE016F5F7F4FC5010E940F28C50156
:101360000E94982760E0F401EC54FF4FE491A1E85B
:10137000B0E0AC0FBD1FA60FB11DEC936F5FFFEF88
:101380008F1A9F0A643078F3CD57DF4F4881C358D6
:10139000D04050E09A012E5F3F4F862F90E02817F3
:1013A00039070CF7CE57DF4F0881C258D040CF57CE
:1013B000DF4F2881C158D04061E870E06C0F7D1F7D
:1013C0006D5F7F4FC5010E942A29C5010E94F32746
:1013D00083309105D0F3482FBE016F5F7F4FC50169
:1013E0000E940F28C5010E949827F401EC54FF4F7A
:1013F00060E08491A1E8B0E0AC0FBD1FA60FB11D65
:101400008C936F5F643010F43196F3CFCD57DF4F7C
:101410004881C358D04050E09A012E5F3F4F862F3D
:1014200090E02817390784F761E870E06C0F7D1FA2
:101430006D5F7F4FC12CEE24E394CE57DF4F0881C0
:10144000C258D040CF57DF4F2881C158D040C50186
:101450000E94942960E0C5010E94F9288AE290E088
:10146000F50193838283C5010E94B827C5010E94BC
:10147000982780E003C081E001C082E0C057DF4FC1
:101480000FB6F894DEBF0FBECDBFDF91CF911F9195
:101490000F91EF90CF90BF90AF909F908F90089555
:1014A000CF93DF93DB01FA01309719F4EC01E88167
:1014B000F981808190E0982F88272181820F911DEA
:1014C00011969C938E93848190E0982F8827258194
:1014D000820F911D13969C938E931297808590E0B6
:1014E000982F88272185820F911D15969C938E93A6
:1014F0001497848590E0982F88272585820F911D69
:1015000017969C938E93169780E0DF91CF91089564
:10151000FF920F931F93CF93DF93CDB7DEB728973A
:101520000FB6F894DEBF0FBECDBF8B01BE016F5F5B
:101530007F4F0E94500AF82E81114CC069817A8138
:10154000882777FD8095982F0E947E3320E030E039
:1015500040E858E30E94A834F801608371838283D5
:1015600093836B817C81882777FD8095982F0E94DB
:101570007E3320E030E040E858E30E94A834F801D0
:1015800064837583868397836D817E81882777FD49
:101590008095982F0E947E3320E030E040E858E3A9
:1015A0000E94A834F80160877187828793876F81D2
:1015B0007885882777FD8095982F0E947E3320E0DC
:1015C00030E040E858E30E94A834F801648775874A
:1015D000868797878F2D28960FB6F894DEBF0FBEAB
:1015E000CDBFDF91CF911F910F91FF9008954F9242
:1015F0005F926F927F928F929F92AF92BF92CF92A3
:10160000DF92EF92FF920F931F93CF93DF93CDB7AB
:10161000DEB728970FB6F894DEBF0FBECDBF8B01A3
:10162000DA011496CD90DD90ED90FC9017971C9602
:101630004D905D906D907C901F978D909D90AD909A
:10164000BC90139718968D919D910D90BC91A02DF3
:1016500089839A83AB83BC83A3019201C701B6013E
:101660000E94A8346D837E838F83988729813A8175
:101670004B815C81C501B4010E94A8349B01AC017F
:101680006D817E818F8198850E9415329B01AC010E
:101690000E941632F8016083718382839383A701CD
:1016A0009601C501B4010E94A8346D837E838F83A7
:1016B0009887A301920169817A818B819C810E9424
:1016C000A8349B01AC016D817E818F8198850E9439
:1016D00016329B01AC010E941632D80114966D930C
:1016E0007D938D939C931797A5019401C501B40137
:1016F0000E94A8344B015C01A7019601C701B60105
:101700000E94A8349B01AC01C501B4010E941532AE
:101710006B017C0129813A814B815C81CA01B9014D
:101720000E94A8349B01AC01C701B6010E9415328A
:101730006B017C01A3019201C301B2010E94A83494
:101740009B01AC01C701B6010E941632F801608707
:1017500071878287938780E028960FB6F894DEBF62
:101760000FBECDBFDF91CF911F910F91FF90EF90F2
:10177000DF90CF90BF90AF909F908F907F906F90B1
:101780005F904F9008952F923F924F925F926F9289
:101790007F928F929F92AF92BF92CF92DF92EF9201
:1017A000FF920F931F93CF93DF9300D000D000D010
:1017B000CDB7DEB71B018A013E832D83FA01C080BD
:1017C000D180E280F380A7019601C701B6010E9493
:1017D000163269837A838B839C83F8018480958099
:1017E000A680B780A5019401C501B4010E941632FC
:1017F0002B013C01A701960169817A818B819C8133
:101800000E94A8346B017C01A5019401C301B201BF
:101810000E94A8349B01AC01C701B6010E94163298
:1018200020E030E040E85FE30E9415326B017C016C
:10183000F8012085318542855385C301B2010E949C
:10184000A8342B013C01F801248535854685578550
:1018500069817A818B819C810E94A8349B01AC01B3
:10186000C301B2010E941532A70196010E9489327C
:10187000F1016083718382839383ED81FE816481B2
:10188000758186819781C084D184E284F3849B0131
:10189000AC010E94A8344B015C01A7019601C7016D
:1018A000B6010E94A8349B01AC01C501B4010E949D
:1018B00016320E9415359B01AC01ED81FE816081DD
:1018C0007181828193810E94E3320E94B432F101DE
:1018D0006483758386839783ED81FE816081718146
:1018E00082819381C084D184E284F3849B01AC0122
:1018F0000E94A8344B015C01A7019601C701B60103
:101900000E94A8349B01AC01C501B4010E941632AB
:101910000E9415359B01AC01ED81FE8164817581CA
:10192000868197810E94E3320E94B432F101608780
:1019300071878287938780E026960FB6F894DEBF82
:101940000FBECDBFDF91CF911F910F91FF90EF9010
:10195000DF90CF90BF90AF909F908F907F906F90CF
:101960005F904F903F902F9008954F925F926F92AB
:101970007F928F929F92AF92BF92CF92DF92EF921F
:10198000FF920F931F93CF93DF93EC017B01882786
:1019900077FD8095982F0E947E332B013C012D818D
:1019A0003E814F8158850E94DC328823A1F18C80D2
:1019B000F7FE03C081E08825882EB701F7FE03C03B
:1019C000719561957109882777FD8095982F1F92F1
:1019D0001F921F922FEF2F93A12CB12C650114E6BB
:1019E000E12EF12C00E010E020E030E0A9010E949F
:1019F000CD316B017C01682D89810E94632DB60178
:101A000088810E94A22C4D825E826F8278860F9020
:101A10000F900F900F90DF91CF911F910F91FF903A
:101A2000EF90DF90CF90BF90AF909F908F907F907E
:101A30006F905F904F9008956F927F928F929F92D8
:101A4000AF92BF92CF92DF92EF92FF920F931F93CC
:101A5000CF93DF93EC014A015B016091CE0370915B
:101A6000CF03882777FD8095982F0E947E339B01B6
:101A7000AC01C501B4010E94A83420E030E048EC7C
:101A800052E40E94E3326BA77CA78DA79EA7EF8A42
:101A9000F88E098F1A8FCE2CDF2C7801F7FE08C044
:101AA000F094E094D094C094C11CD11CE11CF11CB2
:101AB00021E03FEFC316D306E3063FE7F30609F440
:101AC00020E02E8B11E020E030E0A9010E94DC3202
:101AD000811101C010E01D8B1BA21CA21DA21EA221
:101AE0001FA218A619A61AA61F8E18A219A21AA21A
:101AF00020E030E0A901C501B4010E94DC32882356
:101B000051F120E030E0A9016FA578A989A99AA92F
:101B10000E94DC3281111FC020E030E0A901C50124
:101B2000B4010E949D3487FD03C068E270E002C0EA
:101B300068ED7FEFCE01DF91CF911F910F91FF9064
:101B4000EF90DF90CF90BF90AF909F908F907F905D
:101B50006F900C94B50CDF91CF911F910F91FF9076
:101B6000EF90DF90CF90BF90AF909F908F907F903D
:101B70006F900895EF92FF920F931F93CF93DF938F
:101B8000EC01EE24EA94FE2C0FEF1FE720E030E09A
:101B900040E050E0BA010E941C0DEB8119861A86C4
:101BA0001B861C86198A1A8A1B8A1C8A84E0E89F75
:101BB000F0011124EC52FC4F108211821282138228
:101BC0001BA21CA21DA21EA21FA218A619A61AA61D
:101BD0001F8E18A219A21AA20E94102C6093EA0369
:101BE0007093EB038093EC039093ED03DF91CF911F
:101BF0001F910F91FF90EF900895CF92DF92EF9297
:101C00000F93CF93DF931F92CDB7DEB76C01862F72
:101C1000F6016083418322830383E482909147012C
:101C2000992399F061E049830E942A2D61E049815E
:101C3000842F0E942A2DC6010F90DF91CF910F9122
:101C4000EF90DF90CF900C94BA0D0F90DF91CF9171
:101C50000F91EF90DF90CF9008958F929F92AF9267
:101C6000BF92CF92DF92EF92FF920F931F93CF9389
:101C7000DF936C0165E871E00E943606882349F025
:101C800065E871E0C6010E9446200E94FD1EEB013E
:101C900002C0C0E0D0E069E871E0C6010E943606EB
:101CA000882311F169E871E0C6010E9446200E9474
:101CB000EE1E4B015C0120E030E0A9010E949D3442
:101CC00087FD06C0EE24EA94FE2C0FEF1FE705C047
:101CD000EE24E394F12C00E010E89E01B501A4018C
:101CE0008DE793E00E941C0D6CE871E0C6010E9434
:101CF0003606882311F16CE871E0C6010E94462087
:101D00000E94EE1E4B015C0120E030E0A9010E9420
:101D10009D3487FD06C0EE24EA94FE2C0FEF1FE7EA
:101D200005C0EE24E394F12C00E010E89E01B5011B
:101D3000A4018AE493E00E941C0DDF91CF911F91D2
:101D40000F91FF90EF90DF90CF90BF90AF909F905A
:101D50008F9008954F925F926F927F928F929F9291
:101D6000AF92BF92CF92DF92EF92FF920F931F93A9
:101D7000CF93DF93CDB7DEB72C970FB6F894DEBFC5
:101D80000FBECDBFE986FA860B871C870E941532ED
:101D90002B013C01ADA1BEA12D913D914D915C91D6
:101DA0000E94163229A53AA54BA55CA50E94A8342D
:101DB0006D837E838F83988720E030E040EA50EC8B
:101DC0000E94DC3287FD11C020E030E040EA50E4A0
:101DD0006D817E818F8198850E949D3418166CF4E8
:101DE000E12CF12C00EA10E404C0E12CF12C00EA13
:101DF00010ECED82FE820F831887A3019201AFA140
:101E0000B8A56D917D918D919C910E94153229A567
:101E10003AA54BA55CA50E94A83469837A838B837D
:101E20009C8320E030E040EA50EC0E94DC3287FDE9
:101E300011C020E030E040EA50E469817A818B8172
:101E40009C810E949D3418166CF4E12CF12C00EA60
:101E500010E404C0E12CF12C00EA10ECE982FA82D3
:101E60000B831C83ED80FE800F811885ADA1BEA180
:101E7000ED92FD920D931C931397E980FA800B81EC
:101E80001C81AFA1B8A5ED92FD920D931C93139701
:101E9000EBA1FCA14082518262827382A301920174
:101EA00069857A858B859C850E94A8342B013C012D
:101EB0002D813E814F815885C601B5010E94A8340D
:101EC0009B01AC01C301B2010E9416324B015C01BF
:101ED000A80197016F8D78A189A19AA10E94A834C9
:101EE0009B01AC01C501B4010E9416322C960FB6BD
:101EF000F894DEBF0FBECDBFDF91CF911F910F9140
:101F0000FF90EF90DF90CF90BF90AF909F908F9019
:101F10007F906F905F904F9008954F925F926F9275
:101F20007F928F929F92AF92BF92CF92DF92EF9269
:101F3000FF920F931F93CF93DF93CDB7DEB7289710
:101F40000FB6F894DEBF0FBECDBF4C018B01DC0194
:101F50001D962D913D914D915C91509751968D918B
:101F60009D910D90BC91A02D281B390B4A0B5B0B4A
:101F7000A8EEB3E00E94D435980140E050E00E9402
:101F8000B535CA01B9010E947E332B013C01F40131
:101F900067A770AB81AB92AB8589882309F453C0E6
:101FA000A0904D01B0904E01C0904F01D0905001D3
:101FB0008091490190914A01A0914B01B0914C014F
:101FC00089839A83AB83BC8383A594A5A5A5B6A575
:101FD0008D839E83AF83B887C80168EE73E00E944B
:101FE0007F3580E090E00E947C339F938F937F93B6
:101FF0006F93C40187969F938F9304979F938F93BA
:1020000004979F938F93809154018F9380915301F4
:102010008F93809152018F93809151018F93E9802A
:10202000FA800B811C81A30192016D817E818F81D9
:1020300098850E94AA0E2B013C010FB6F894DEBFD2
:102040000FBECDBF03C0412C512C320120E030E047
:10205000A901D4019B966D917D918D919C919E9744
:102060000E94DC32F401882379F1238D348D458D73
:10207000568DC301B2010E9416326B018C0120E023
:1020800030E048EC52EC0E94DC3287FD0FC020E0CB
:1020900030E048EC52E4B601C8010E949D341816A5
:1020A0004CF4C12CD12C08EC12E404C0C12CD12C6E
:1020B00008EC12ECA601B801D4015B964D935D9338
:1020C0006D937C935E9704C0138E148E158E168EBE
:1020D000F40185859685A785B089818B928BA38B2A
:1020E000B48B28960FB6F894DEBF0FBECDBFDF913C
:1020F000CF911F910F91FF90EF90DF90CF90BF9005
:10210000AF909F908F907F906F905F904F900895C9
:102110001092D8031092D9031092DA031092DB03C5
:102120001092D4031092D5031092D6031092D703C5
:1021300062E082E00E942A2D62E083E00E942A2D64
:1021400062E088E00E942A2D62E089E00E942A2D48
:1021500041E050E06FE075E080E00E944C2B41E0F0
:1021600050E06DE475E081E00E944C2B80914701C6
:10217000882341F161E085E00E942A2D60E085E03E
:102180000E94632D61E086E00E942A2D60E086E0D7
:102190000E94632D61E08BE00E942A2D60E08BE0BD
:1021A0000E94632D61E081E10E942A2D60E081E1BF
:1021B0000E94632D8DE793E00E94BA0D8AE493E0BC
:1021C0000E94BA0D1092EE031092EF031092F003EA
:1021D0001092F1031092F2031092F3031092F403A1
:1021E0001092F5031092F6031092F7031092F80381
:1021F0001092F9031092FA031092FB031092FC0361
:102200001092FD031092DE031092DF031092E003A0
:102210001092E1031092E2031092E3031092E403A0
:102220001092E5031092E6031092E7031092E80380
:102230001092E9031092470108954F925F926F92B6
:102240007F92AF92BF92CF92DF92EF92FF920F9365
:102250001F93CF93DF93CDB7DEB728970FB6F894CF
:10226000DEBF0FBECDBF29013A019B01AC01C80101
:10227000B7010E9415329B01AC010E94A83469830A
:102280007A838B839C83A3019201C601B5010E94CE
:1022900015326D837E838F839887A3019201C601D7
:1022A000B5010E94A8349B01AC016D817E818F81B4
:1022B00098850E94A8349B01AC0169817A818B8149
:1022C0009C810E94163228960FB6F894DEBF0FBE8E
:1022D000CDBFDF91CF911F910F91FF90EF90DF90D5
:1022E000CF90BF90AF907F906F905F904F900C9485
:1022F00015358F929F92AF92BF92EF92FF920F93FC
:102300001F936093F2037093F3038093F40390930D
:10231000F5032093EE033093EF034093F0035093C3
:10232000F1031092DE031092DF031092E00310928B
:10233000E1031092E2031092E3031092E40310927F
:10234000E5031092E6031092E7031092E80310925F
:10235000E90381E08093DD03B801882777FD80954C
:10236000982F0E947E334B015C01EE24EA94FE2CF0
:102370000FEF1FE720E030E0AB01BC018DE793E0F9
:102380000E941C0D20E030E0B501A4018AE493E036
:102390000E941C0D1F910F91FF90EF90BF90AF9086
:1023A0009F908F9008954F925F926F927F928F923D
:1023B0009F92AF92BF92CF92DF92EF92FF920F93D4
:1023C0001F93CF93DF9300D000D0CDB7DEB76B0162
:1023D0007C018A018090790490907A04A0907B041B
:1023E000B0907C04C501B4010E940B359B01AC0187
:1023F00060917504709176048091770490917804CF
:1024000029833A834B835C830E94E0322B013C0199
:1024100029813A814B815C81C701B6010E94A834B1
:102420009B01AC01C501B4010E9415324B015C0156
:10243000A3019201C701B6010E94A83420917D0436
:1024400030917E0440917F04509180040E941632A6
:10245000A50194010E9479110F900F900F900F9099
:10246000DF91CF911F910F91FF90EF90DF90CF9070
:10247000BF90AF909F908F907F906F905F904F90A4
:102480000895CF92DF92EF92FF920F931F93CF9315
:10249000DF9300D000D0CDB7DEB78C016FE871E0DC
:1024A0000E943606882339F064E971E0C8010E9471
:1024B000360681113DC06AE971E0C8010E94360606
:1024C000882309F454C068E971E0C8010E94360607
:1024D000882309F44CC064E971E0C8010E94360603
:1024E000882309F444C064E971E0C8010E944620D1
:1024F0000E94FD1E6B017C0168E971E0C8010E9429
:1025000046200E94EE1E9B01AC016AE971E0C80101
:1025100029833A834B835C830E9446200E94EE1EEF
:10252000860129813A814B815C810E9479111FC00B
:1025300064E971E0C8010E9446200E94FD1E6B0103
:102540007C016FE871E0C8010E9446200E94EE1EE7
:10255000A6010F900F900F900F90DF91CF911F91D8
:102560000F91FF90EF90DF90CF900C94D3110F90CC
:102570000F900F900F90DF91CF911F910F91FF90CF
:10258000EF90DF90CF900895EF92FF920F931F93FB
:10259000CF93DF937C010CE011E0C0E0D0E065E276
:1025A00072E0C7010E9446200E94E21EBC01F801B1
:1025B000808191810E94B23A0C5F1F4F892B81F478
:1025C000CC0FDD1FCC0FDD1FC45FDE4FEA81FB8126
:1025D000C701DF91CF911F910F91FF90EF90099468
:1025E0002196CC30D105D9F6DF91CF911F910F9173
:1025F000FF90EF9008958C01C0E0D0E0C017D107A4
:10260000B4F461E08DE00E94632D68EC70E080E03E
:1026100090E00E943F2C60E08DE00E94632D68EC0A
:1026200070E080E090E00E943F2C2196E7CF68E5C3
:1026300072E080E090E00E943F2CDECF26E040E098
:1026400052EC61E070E08CE595E00E94A52E64E11B
:1026500070E080E090E00E943F2C61E08DE00E94FD
:102660002A2D61E08CE00E942A2D62E084E00E9425
:102670002A2D60E08DE00E94632D60E08CE00E94D6
:10268000632D0E94881080914801882309F47FC03F
:102690008FE894E00E94C42288E18093B80062E051
:1026A00087E00E942A2D81EB93E00E94DF276AE0F9
:1026B00070E080E090E00E943F2C81EB93E00E946C
:1026C0003A2881EB93E00E94C607809368046AE091
:1026D00070E080E090E00E943F2C809168048111BE
:1026E0003CC061E081EB93E00E94F9286AE070E071
:1026F00080E090E00E943F2C81EB93E00E949827BD
:1027000080936A048091B303809369046CED70E058
:1027100081EB93E00E94E7286CE470E081EB93E0AA
:102720000E94ED286BEA7FEF81EB93E00E94F32893
:102730006CEF76E081EB93E00E94E1280E94102C80
:10274000605D7A488F4F9F4F6093C3027093C402BD
:102750008093C5029093C6021AC06CE971E08CE5C3
:1027600095E00E94FA2F4AE050E0609168048CE501
:1027700095E00E94D9306DEA71E08CE595E00E9409
:1027800017308091680490E001960E94FB126FEA76
:1027900071E08CE595E00C941730CF92DF92EF92C8
:1027A000FF92CF93DF93EC01C880D980EA80FB8051
:1027B0002BED3FE049E450E4C701B6010E949D348F
:1027C00018166CF42BED3FE049EC50E4C701B6015C
:1027D0000E941532688379838A839B83E5CF2BED32
:1027E0003FE049E450EC609175047091760480916B
:1027F0007704909178040E94DC3287FF0FC02BEDA4
:102800003FE049EC50E4688179818A819B810E9494
:102810001632688379838A839B83E1CFDF91CF91DE
:10282000FF90EF90DF90CF9008954F925F926F925C
:102830007F92AF92BF92CF92DF92EF92FF920F936F
:102840001F93CF93DF93CDB7DEB760970FB6F894A1
:10285000DEBF0FBECDBF0E94102C6D837E838F83A1
:1028600098878091EA039091EB030D811E81081BEC
:10287000190BE091800380918103F0E0EE0FFF1FC0
:10288000EE0FFF1FEC52FC4F882361F08081918195
:10289000A281B381B095A095909581959F4FAF4F40
:1028A000BF4F04C080819181A281B38180938A034C
:1028B00090938B03A0938C03B0938D03E0914D0311
:1028C00080914E03F0E0EE0FFF1FEE0FFF1FEC5262
:1028D000FC4F882361F080819181A281B381B09502
:1028E000A095909581959F4FAF4FBF4F04C08081B9
:1028F0009181A281B3818093570390935803A09351
:102900005903B0935A03B8018DE793E00E948D0FED
:10291000B8018AE493E00E948D0F8091DD03882343
:1029200009F4CAC020917D0430917E0440917F0457
:10293000509180046091F2037091F3038091F4034D
:102940009091F5030E9415326B017C01209179046E
:1029500030917A0440917B0450917C046091EE03A5
:102960007091EF038091F0039091F1030E94153272
:10297000A70196010E94893269837A838B839C83A5
:10298000CE0101960E94CD13A0905901B0905A013A
:10299000C0905B01D0905C018091550190915601EF
:1029A000A0915701B091580189879A87AB87BC875E
:1029B0002091750430917604409177045091780409
:1029C00049805A806B807C80B80180E090E02D8740
:1029D0003E874F87588B0E947C339F938F937F93C2
:1029E0006F938EED93E09F938F9382EE93E09F938E
:1029F0008F9386EE93E09F938F93809160018F93E6
:102A000080915F018F9380915E018F9380915D0132
:102A10008F93E984FA840B851C852D853E854F852F
:102A20005889C301B2010E94AA0E2B013C01A0905B
:102A30007904B0907A04C0907B04D0907C04E0903C
:102A4000EE03F090EF030091F0031091F103209159
:102A50007D0430917E0440917F0450918004609108
:102A6000F2037091F3038091F4039091F5030E94B7
:102A70001D110FB6F894DEBF0FBECDBF20E030E0D1
:102A800040E251E40E94DC3287FFB5C01092DD03C2
:102A90001092650310926603109267031092680308
:102AA000109298031092990310929A0310929B032C
:102AB000412C512C32019FC08091DC03882309F402
:102AC000A4C066ED71E08CE595E00E94FA2F62EEFD
:102AD00071E08CE595E00E94FA2F4091F603509149
:102AE000F7036091F8037091F90322E030E08CE580
:102AF00095E00E94CB3168EE71E08CE595E00E9494
:102B0000FA2F40917504509176046091770470918A
:102B1000780422E030E08CE595E00E94CB318CE532
:102B200095E00E9403302091750430917604409125
:102B30007704509178046091F6037091F7038091C7
:102B4000F8039091F9030E9415326B017C0120E09B
:102B500030E0A9010E949D3418165CF425E33AEF99
:102B60004EE05DE3C701B6010E94DC3287FF11C071
:102B70000AC025E33AEF4EE05DEBC701B6010E94C3
:102B80009D34181634F41092DC03412C512C320180
:102B900022C02BED3FE049E450E4C701B6010E949A
:102BA000163220E030E04CE853E40E94A8342BEDCC
:102BB0003FE049EC50E40E94E33220E030E04CE09A
:102BC00053E40E94153220E030E040E252E40E94DB
:102BD00016322B013C01109265031092660310928D
:102BE0006703109268031092980310929903109251
:102BF0009A0310929B0320E030E0A901C301B201C7
:102C00000E949D3487FD3DC003C0412C512C3201F0
:102C1000C0909803D0909903E0909A03F0909B03A2
:102C200020E030E0A901C301B2010E949D34A3015C
:102C3000920118160CF05058C701B6010E941632C6
:102C4000609398037093990380939A0390939B03E6
:102C5000C0906503D0906603E0906703F09068032E
:102C600020E030E0A901C301B2010E949D34A3011C
:102C7000920118160CF05058C701B6010E94153287
:102C800038C0C0909803D0909903E0909A03F090D8
:102C90009B0320E030E0A901C301B2010E949D34F2
:102CA000A301920118160CF05058C701B6010E94FA
:102CB0001532609398037093990380939A039093CD
:102CC0009B03C0906503D0906603E0906703F0908B
:102CD000680320E030E0A901C301B2010E949D34E5
:102CE000A301920118160CF05058C701B6010E94BA
:102CF0001632609365037093660380936703909325
:102D00006803609198037091990380919A03909160
:102D10009B030E944B338DE793E00E94B50C6091BA
:102D200065037091660380916703909168030E9428
:102D30004B338AE493E00E94B50C8D819E81AF8174
:102D4000B8858093EA039093EB03A093EC03B093D0
:102D5000ED0360960FB6F894DEBF0FBECDBFDF91D6
:102D6000CF911F910F91FF90EF90DF90CF90BF9088
:102D7000AF907F906F905F904F900895CF93DF93C7
:102D8000EC018DE793E00E94BA0D8AE493E00E9483
:102D9000BA0D109275041092760410927704109276
:102DA00078041092790410927A0410927B041092A5
:102DB0007C0410927D0410927E0410927F04109285
:102DC00080046AE971E0CE010E943606882379F01A
:102DD0006AE971E0CE010E9446200E94EE1E6093D7
:102DE0007D0470937E0480937F049093800468E94F
:102DF00071E0CE010E943606882379F068E971E01F
:102E0000CE010E9446200E94EE1E609379047093CA
:102E10007A0480937B0490937C046CEE71E0CE0185
:102E20000E9436068823A9F06CEE71E0CE010E9464
:102E300046200E94EE1E25E33AEF4EE85CE30E9436
:102E4000A83460937504709376048093770490930C
:102E5000780485E794E00E94CD132091FE03309121
:102E6000FF0340910004509101046091750470913A
:102E7000760480917704909178040E9416326093D2
:102E80007104709372048093730490937404DF91BF
:102E9000CF910895CF92DF92EF92FF92CF93DF937D
:102EA000EC016EEE71E00E9436068823A1F06EEE12
:102EB00071E0CE010E9446200E94FD1E882777FD0A
:102EC0008095982F0E947E3325E33AEF4EE85CE32D
:102ED0000E94A83428C062EF71E0CE010E9436063D
:102EE000882349F1C0907504D0907604E09077046F
:102EF000F090780462EF71E0CE010E9446200E94BB
:102F0000FD1E882777FD8095982F0E947E3325E34C
:102F10003AEF4EE85CE30E94A8349B01AC01C70184
:102F2000B6010E9416326093F6037093F703809304
:102F3000F8039093F90386EF93E00E94CD1381E0AC
:102F40008093DC03DF91CF91FF90EF90DF90CF90E3
:102F500008954F925F926F927F928F929F92AF925D
:102F6000BF92CF92DF92EF92FF921F93CF93DF93A6
:102F7000CDB7DEB72C970FB6F894DEBF0FBECDBF2E
:102F8000E091800380918103F0E08823B1F0EE0F9F
:102F9000FF1FEE0FFF1FEC52FC4F80819181A28139
:102FA000B38122273327A901281B390B4A0B5B0B5E
:102FB0002D833E834F83588711C09F01220F331FFB
:102FC000220F331F2C523C4FD9018D919D910D90B2
:102FD000BC91A02D8D839E83AF83B887E0914D0374
:102FE00080914E03F0E08823B1F0EE0FFF1FEE0F4B
:102FF000FF1FEC52FC4F80819181A281B381222777
:103000003327A901281B390B4A0B5B0B29873A8709
:103010004B875C8711C09F01220F331F220F331F84
:103020002C523C4FD9018D919D910D90BC91A02DBA
:1030300089879A87AB87BC878091860390918703A5
:10304000A0918803B09189038D809E80AF80B88461
:10305000881A990AAA0ABB0A8091530390915403D3
:10306000A0915503B091560349845A846B847C84A3
:10307000481A590A6A0A7B0A209171043091720435
:1030800040917304509174046091FE037091FF03AA
:1030900080910004909101040E94153269837A8323
:1030A0008B839C8321EE3EE245E652E40E94A834E5
:1030B0006B017C0120E030E0A9010E949D341816CC
:1030C0006CF411E02DEC3CEC4CEC5DE3C701B60177
:1030D0000E949D34181674F010E00CC02DEC3CECEE
:1030E0004CEC5DEBC701B6010E94DC32182F111FBA
:1030F0001127111FC501B401640D751D861D971D93
:103100000E947E332091D0033091D1034091D203AD
:103110005091D3030E94A83420E030E040E05FE308
:103120000E94A8346B017C0120E030E0A9010E94DC
:103130009D3418165CF420E030E040E85FE3C701FE
:10314000B6010E949D34181654F00AC020E030E009
:1031500040E85FEBC701B6010E94DC3287FD11E059
:103160008090750490907604A0907704B0907804D5
:1031700020E030E040E05FE369817A818B819C81CF
:103180000E94A8349B01AC01C501B4010E94163213
:103190002B013C010E940B359B01AC01C701B6011C
:1031A0000E94A8349B01AC0160917D0470917E0463
:1031B00080917F04909180040E94163260937D0478
:1031C00070937E0480937F0490938004C301B201C6
:1031D0000E94E0329B01AC01C701B6010E94A834F5
:1031E0009B01AC016091790470917A0480917B0419
:1031F00090917C040E9416326093790470937A0453
:1032000080937B0490937C0429813A814B815C817B
:10321000C501B4010E941632609375047093760460
:10322000809377049093780485E794E00E94CD130F
:103230004091FE035091FF036091000470910104DE
:1032400040937104509372046093730470937404F8
:103250002D813E814F8158852093860330938703CB
:10326000409388035093890389859A85AB85BC85F3
:103270008093530390935403A0935503B093560344
:10328000812F2C960FB6F894DEBF0FBECDBFDF9115
:10329000CF911F91FF90EF90DF90CF90BF90AF90B4
:1032A0009F908F907F906F905F904F900895CF93F5
:1032B000DF9300D000D0CDB7DEB77A8369831C825C
:1032C0001B82BE016F5F7F4F0E94E11F8B819C813B
:1032D0000F900F900F900F90DF91CF910895CF92A4
:1032E000DF92EF92FF920F931F93CF93DF93CDB7AF
:1032F000DEB7C454D1090FB6F894DEBF0FBECDBF00
:103300008DE692E09A83898325961FAE1EAE25979F
:10331000CE0101960E94A61E8C0166EF71E00E940C
:10332000462068EF71E00E94171F20E030E04AE776
:1033300054E460917D0470917E0480917F049091AB
:1033400080040E94E3326B017C016AE971E0C801EC
:103350000E94462024E0B701A6010E94231F20E01E
:1033600030E04AE754E46091790470917A048091E6
:103370007B0490917C040E94E3326B017C0168E93C
:1033800071E0C8010E94462024E0B701A6010E9416
:10339000231F21EE3EE245E652E4609175047091F0
:1033A000760480917704909178040E94A8346B0190
:1033B0007C016CEE71E0C8010E94462021E0B7015B
:1033C000A6010E94231F6CE575E0C8010E945719F1
:1033D0008CE595E00E940330CC5BDF4F0FB6F8948C
:1033E000DEBF0FBECDBFDF91CF911F910F91FF9038
:1033F000EF90DF90CF900895CF92DF92EF92FF92FF
:103400000F931F93CF93DF93CDB7DEB7C458D10985
:103410000FB6F894DEBF0FBECDBF83E792E09A836C
:103420008983CD57DF4F19821882C358D040CE010F
:1034300001960E94A61E8C0166EF71E00E94462054
:103440006DEF71E00E94171FC090AC03D090AD03E8
:10345000E090AE03F090AF0367E072E0C8010E9415
:10346000462022E0B701A6010E94231FC0907903E5
:10347000D0907A03E0907B03F0907C036AE072E0E6
:10348000C8010E94462022E0B701A6010E94231F26
:10349000E091800380918103F0E0EE0FFF1FEE0FBB
:1034A000FF1FEC52FC4FC080D180E280F380882364
:1034B00041F0F094E094D094C094C11CD11CE11C64
:1034C000F11C6DE072E0C8010E944620B701A60120
:1034D0000E94321FE0914D0380914E03F0E0EE0F09
:1034E000FF1FEE0FFF1FEC52FC4FC080D180E28027
:1034F000F380882341F0F094E094D094C094C11CF0
:10350000D11CE11CF11C60E172E0C8010E94462060
:10351000B701A6010E94321F6CE575E0C8010E9448
:1035200057198CE595E00E940330CC57DF4F0FB65A
:10353000F894DEBF0FBECDBFDF91CF911F910F91E9
:10354000FF90EF90DF90CF900895FF920F931F931D
:10355000CF93DF93CDB7DEB7C454D1090FB6F8943B
:10356000DEBF0FBECDBFF82E2DE632E03A832983B1
:1035700025961FAE1EAE2597CE0101960E94A61E6F
:103580008C0166EF71E00E94462063E172E00E94C8
:10359000171F6091630170916401C8010E94462069
:1035A0004F2D50E060E070E00E94321F6CE575E046
:1035B000C8010E9457198CE595E00E940330CC5B4E
:1035C000DF4F0FB6F894DEBF0FBECDBFDF91CF91B6
:1035D0001F910F91FF900895FF920F931F93CF9328
:1035E000DF93CDB7DEB7C454D1090FB6F894DEBF70
:1035F0000FBECDBFF82E2DE632E03A832983259603
:103600001FAE1EAE2597CE0101960E94A61E8C010C
:1036100066EF71E00E9446206AE172E00E94171F87
:103620006091630170916401C8010E9446204F2D92
:1036300050E060E070E00E94321F6CE575E0C80168
:103640000E9457198CE595E00E940330CC5BDF4F58
:103650000FB6F894DEBF0FBECDBFDF91CF911F91A3
:103660000F91FF900895EF920F931F9380E090E0E9
:10367000A0E8BFE38093160490931704A093180466
:10368000B093190410921A0410921B0410921C0497
:1036900010921D0410921E0410921F041092200418
:1036A00010922104109222041092230410922404F8
:1036B0001092250410920A0410920B0410920C042C
:1036C00010920D0410920E0410920F041092100428
:1036D0001092110410921204109213041092140408
:1036E0001092150482EC91E09093CF038093CE0367
:1036F00081EB93E00E943827EE24E39400E010E091
:1037000020E130E04BE050E065E070E08DE793E0D1
:103710000E94FD0DE12C01E010E02FE030E041E1DE
:1037200050E066E070E08AE493E00E94FD0D1F9196
:103730000F91EF9008950F931F93CF93DF93CDB721
:10374000DEB7C458D1090FB6F894DEBF0FBECDBFA7
:103750008CE595E00E94C22D892B09F44DC08CE5C3
:1037600095E00E94DB2D20914803309149038A3077
:1037700089F5C90101969093490380934803F901A3
:10378000E853FD4F108283E792E09A838983CD57F7
:10379000DF4F19821882C358D0404AE068EC72E0CB
:1037A000CE0101960E9400228C0165E272E00E9427
:1037B0003606882321F0C8010E94C41206C060E2C8
:1037C00072E08CE595E00E94173010924903109248
:1037D000480312C0A9014F5F5F4F509349034093C4
:1037E0004803F901E853FD4F80834038510520F02C
:1037F00084E090E00E94FB12CC57DF4F0FB6F894A4
:10380000DEBF0FBECDBFDF91CF911F910F91089505
:103810000F931F93CF93DF9320913C0130913D0193
:1038200040E050E060916B0470916C0480916D04F5
:1038300090916E040E949335672B682B692BA1F43D
:103840000E94102C0091C3021091C4022091C50265
:103850003091C602061717072807390728F4809108
:10386000C202882309F4DCC00E949B1B80914601A0
:103870008823E9F101E010E020E030E080913E0192
:1038800090913F01892B19F000E010E098014091E0
:103890006B0450916C0460916D0470916E04402330
:1038A000512362237323452B462B472B01F1809133
:1038B000C702811119C089B182958170C82F30E08B
:1038C000D32F80910A0190910B01C817D90779F085
:1038D000D0930B01C0930A0183E08093C7028C2F21
:1038E00081700E94A51A03C081508093C702809105
:1038F00047018823B1F0209142013091430140E01B
:1039000050E060916B0470916C0480916D04909113
:103910006E040E949335672B682B692B11F40E946B
:103920001514209144013091450140E050E0609130
:103930006B0470916C0480916D0490916E040E94F0
:103940009335672B682B692B49F40E94A9178823AC
:1039500029F080916F0481110E946F19209140011C
:103960003091410140E050E060916B0470916C0433
:1039700080916D0490916E040E949335672B682BA3
:10398000692B81F48DE00E94992D61E0892B09F06B
:1039900060E08DE00E94632D80917004882311F017
:1039A0001D9977C080914801882311F14F9B20C059
:1039B00081EB93E00E94982780936A0481EB93E067
:1039C0000E94F327909367048093660420916A0411
:1039D00024FD04C08115944009F05EC069E272E0E4
:1039E0008CE595E00E94173081EB93E00E94B827A8
:1039F00080916B0490916C04A0916D04B0916E0461
:103A00000196A11DB11D80936B0490936C04A0934B
:103A10006D04B0936E04DF91CF911F910F910895C3
:103A200011E01093C2028DE793E00E94BA0D8AE480
:103A300093E00E94BA0D10927504109276041092D1
:103A40007704109278041092790410927A041092FC
:103A50007B0410927C0410927D0410927E041092DC
:103A60007F04109280044091FE035091FF03609107
:103A700000047091010440937104509372046093A8
:103A800073047093740410936F0481E00E94EC1A25
:103A9000EBCE0E94FC1986CF21FFA6CF409169048E
:103AA00066E274E081EB93E00E940F2846E254E066
:103AB00066E174E081EB93E00E94880A46E154E0FD
:103AC0006AE074E081EB93E00E94F70A2AE034E0B8
:103AD00046E154E06EEF73E081EB93E00E94C30B8C
:103AE00083CFCF93DF93EC0188819981DC01ED9145
:103AF000FC910190F081E02D09952A813B81280FEE
:103B0000391F3B832A83DF91CF910895DB01ED912B
:103B1000FC9111970190F081E02DBC01CD01099439
:103B20000F931F93CF93DF938C01F801C281D38150
:103B30008881992787FD90950E947C3A892B29F0EE
:103B40002196F801D383C283F0CFDF91CF911F91EB
:103B50000F9108950F931F93CF93DF931F92CDB7CB
:103B6000DEB78C0169830E94901DD8011296ED91F9
:103B7000FC9113978081698186130AC03196139650
:103B8000FC93EE931297C8010E94901D81E001C042
:103B900080E00F90DF91CF911F910F910895FB016D
:103BA0002191BF01222379F0DC011296ED91FC9165
:103BB00013973081321307C03196DC011396FC93C2
:103BC000EE931297ECCF81E0211180E00895BF922F
:103BD000CF92DF92EF92FF920F931F93CF93DF93D9
:103BE0007C01EB01009771F465E772E0CE01DF9193
:103BF000CF911F910F91FF90EF90DF90CF90BF90EA
:103C00000C94FA2FE881F9810190F081E02D62E2B5
:103C1000CE0109958C01F70161917F01662351F076
:103C2000E5E8F2E0B080BB2079F191819617B1F020
:103C30003296F8CFE881F9810190F081E02D62E2BF
:103C4000CE010995800F911FDF91CF911F910F91A8
:103C5000FF90EF90DF90CF90BF900895E881F981B9
:103C60000190F081E02D6CE5CE0109956C01E881B1
:103C7000F9810190F081E02D6B2DCE0109958C0D1D
:103C80009D1D080F191FC7CFE881F9810190F081B0
:103C9000E02DCE010995F5CFCF93FC015081523232
:103CA00029F0573219F080E090E023C09C012F5F8B
:103CB0003F4FD901F901CF0101964081442399F387
:103CC000451791F04C3569F401964181E9E8F2E03D
:103CD000C081CC2331F0C41302C0418102C03296AE
:103CE000F7CF4D93FC01E7CF1C92FB0191838083BA
:103CF000C901CF910895DC011296ED91FC911397C3
:103D0000309731F06115710531F4CF0102960895B5
:103D100081E894E00895615071090190F081E02DEF
:103D2000EFCFCF93DF93EC01BC0184E090E00E94E1
:103D3000861DFC01009729F0D183C0831382128273
:103D400002C08BE894E0DF91CF910895CF93DF9389
:103D5000EC01BC0184E090E00E94861DFC0100970C
:103D600029F0D183C0831382128202C087E894E0D5
:103D7000DF91CF9108950F931F93CF93DF938B0122
:103D8000FC01C281D381209759F0B8018A819B81BF
:103D90000E94B23A892B39F00990D881C02DF3CF17
:103DA00080E090E001C0CE01DF91CF911F910F9193
:103DB00008950E94BB1E009711F00496089581E8B3
:103DC00094E00895FC01208131812530310519F4FA
:103DD00082819381089580E090E00895FC01208124
:103DE0003181273031052CF0628173818481958186
:103DF000089560E070E0CB010895FC0120813181DD
:103E00002630310529F4628173818481958108957A
:103E100060E070E0CB010895FC0180819181892BE5
:103E200029F084E090E09183808362830895FC010F
:103E300080819181892B31F085E090E091838083AE
:103E4000738362830895FC0180819181892B49F0FD
:103E500030E0295F3F4F3183208342835383648363
:103E600075830895FC0180819181892B41F086E062
:103E700090E09183808342835383648375830895A4
:103E8000FC0180819181892B31F082E090E0918367
:103E90008083738362830895FC0180819181892BE3
:103EA00031F083E090E0918380837383628308958F
:103EB000FC01208131812230310521F482819381FE
:103EC0000C947B1E81E894E00895CF93DF93FC016E
:103ED000EB01208131812230310531F482819381DF
:103EE000DF91CF910C94BB1F2330310531F48281D7
:103EF0009381DF91CF910C94E11F2530310539F486
:103F000068817981828193810E94E71D2BC02630D0
:103F1000310559F442815381648175812AE030E092
:103F2000888199810E9482301DC02430310569F456
:103F30008281882319F06AE772E002C06FE772E0BD
:103F4000888199810E94FA2F0DC02730310584F0B5
:103F5000275030E042815381648175818881998145
:103F60000E94CB312A813B81280F391F3B832A8352
:103F7000DF91CF9108950F931F93CF93DF93EC01BF
:103F80008B016BE5C8010E94711D0A80DB81C02D89
:103F9000209779F0B801CE0102960E94651F099022
:103FA000D881C02D209729F06CE2C8010E94711DB4
:103FB000F1CF6DE5C801DF91CF911F910F910C9466
:103FC000711D0F931F93CF93DF938C01EB016BE770
:103FD000CE010E94711DF8010281138101151105A6
:103FE00009F168817981F801828193810E94E71D3E
:103FF0002A813B81280F391F3B832A836AE3CE0144
:104000000E94711DBE01C80104960E94651FF8013F
:10401000008111810115110529F06CE2CE010E9489
:10402000711DDFCF6DE7CE01DF91CF911F910F9111
:104030000C94711DFC01608171816115710579F02D
:104040008AE090E00E94861DFC01009741F01182F9
:10405000108281E090E095838483CF01089580E011
:1040600090E00895DC011296ED91FC911397309742
:1040700049F080819181009711F0FC01FACF7183A2
:1040800060830895FC01738362830895EF92FF9229
:104090000F931F93CF93DF938C017B010E94BB1E74
:1040A000EC01009761F4C8010E941A20EC0100970E
:1040B00049F0FB82EA82BC01C8010E943220CE0195
:1040C000049602C081E894E0DF91CF911F910F9197
:1040D000FF90EF900895FC01608171816115710579
:1040E00079F088E090E00E94861DFC01009741F085
:1040F0001182108281E090E093838283CF01089542
:1041000080E090E00895DC011296ED91FC91139708
:10411000309749F080819181009711F0FC01FACF2E
:10412000718360830895FC017383628308950F9304
:104130001F93CF93DF938C010E946B20EC010097BB
:1041400039F0BC01C8010E948320CE01029602C052
:1041500081E894E0DF91CF911F910F910895EF9244
:10416000FF920F931F93CF93DF93EC018881998186
:104170000E94911E7C016BE5CE010E94AA1D811157
:1041800003C08BE894E022C06DE5CE010E94AA1D19
:1041900081111BC0C7010E9497208C01BC01CE0178
:1041A0000E94ED20F801208131812230310548F351
:1041B0006DE5CE010E94AA1D811107C06CE2CE01FF
:1041C0000E94AA1D8111E6CFDCCFC701DF91CF91FC
:1041D0001F910F91FF90EF900895EF92FF920F9330
:1041E0001F93CF93DF9300D0CDB7DEB78C017B0157
:1041F000DC0114968C911497882309F4A3C0815094
:1042000014968C93C8010E94901DF80182819381BD
:10421000DC012C912A337CF420330CF03FC0273290
:1042200009F461C024F4223209F45DC065C02D5246
:104230002230A0F161C02E3609F442C02CF42B3597
:1042400081F02636B1F058C0243799F02B3709F0A9
:1042500053C0C8010E94AB21BC01C7010E944C1F82
:104260004BC0C8010E94AF20BC01C7010E94401F83
:1042700043C06AE772E0C8010E94CF1D882311F095
:1042800061E008C06FE772E0C8010E94CF1D88237B
:1042900009F160E0C7010E940C1F2EC04AE050E007
:1042A000BE016F5F7F4F0E944839AB01BC01E981BD
:1042B000FA8180818E3229F18F7D8534D1F521C03C
:1042C00065E772E0C8010E94CF1D882319F060E005
:1042D00070E00FC086E0E1E8F4E0D70101900D92B4
:1042E0008A95E1F709C0B8016E5F7F4F0E944C1EAE
:1042F000BC01C7010E94171FF80184818F5F84836E
:1043000021C0B8016E5F7F4FD80112968D919C91AC
:1043100013970E94E537AB01BC01F801228133817C
:1043200089819A81281B390B2150C7010E94231FC4
:10433000E3CFD8011396FC93EE931297C7010E9426
:10434000321FDACF0F900F90DF91CF911F910F9115
:10435000FF90EF900895CF92DF92EF92FF920F932C
:104360001F93CF93DF93EC01888199810E94A61E51
:104370006C016BE7CE010E94AA1D811103C087E882
:1043800094E035C06DE7CE010E94AA1D81112EC0B8
:104390007E0182E0E80EF11CB7018A819B810E94B8
:1043A0004C1E8C01009759F36AE3CE010E94AA1DAE
:1043B000882329F3B801C6010E9446208C01BC0164
:1043C000CE010E94ED20F80120813181223031059B
:1043D000B0F26DE7CE010E94AA1D811107C06CE208
:1043E000CE010E94AA1D8111D7CFC9CFC601DF918E
:1043F000CF911F910F91FF90EF90DF90CF90089594
:10440000CF93DF9300D000D01F92CDB7DEB79A8351
:1044100089837C836B834D83CE0101960E94AB21FF
:104420000F900F900F900F900F90DF91CF91089504
:1044300010928C0410928B0410928E0410928D04B2
:10444000109288041092870410928A0410928904B2
:10445000109282041092810408958091BF0490E02C
:104460002091C004821B910908952091C00480917D
:10447000BF04281750F4E22FF0E0EF53FB4F808188
:1044800090E02F5F2093C00408958FEF9FEF089571
:10449000E091C0048091BF04E81730F4F0E0EF53DE
:1044A000FB4F808190E008958FEF9FEF089508956E
:1044B000CF92DF92EF92FF920F931F93CF93DF93F0
:1044C0007C01CB018A0120919B04222389F0EB011E
:1044D0006B01C40ED51ECC15DD0569F06991D701BD
:1044E000ED91FC910190F081E02DC7010995F3CF8A
:1044F000642F0E94B723C801DF91CF911F910F91C4
:10450000FF90EF90DF90CF900895CF93DF931F92AD
:10451000CDB7DEB7698320919B042223D1F020918F
:104520009C04203240F021E030E0FC013383228300
:1045300080E090E015C080919D04E82FF0E0E25605
:10454000FB4F998190838F5F80939D0480939C049F
:1045500005C061E0CE0101960E94B72381E090E0A2
:104560000F90DF91CF910895FC011382128248EEE3
:1045700053E060E070E0448355836683778388E985
:1045800092E09183808308951092C0041092BF043A
:1045900010929D0410929C040C940223862F4132A9
:1045A00008F040E261EC74E00E9420231092C00405
:1045B0008093BF04089521E00C94CE2281E0809383
:1045C0009B046093BE0410929D0410929C04089575
:1045D0000F93062F21E040919C046EE974E08091D6
:1045E000BE040E94642310929D0410929C041092B9
:1045F0009B040F91089561E00C94E8228FE894E009
:104600000C94B42210924E0581E080934C051092D8
:104610004B0561E082E10E94632D61E083E10E942D
:10462000632DE9EBF0E080818E7F808380818D7F38
:10463000808388E48093B80085E48093BC0008956B
:10464000413208F03FC090914E059111FCCF91E0AE
:1046500090934E0520934C052FEF2093E104109288
:104660002605240F2093250590934D0590914D0527
:10467000880F892B80934D0580914B05813041F443
:1046800010924B0580914D058093BB0085EC01C0D5
:1046900085EE8093BC0080914E058130E1F38091DE
:1046A0002605841710F44091260527E235E0FB012A
:1046B000D9018A2F821B841718F48D918193F9CF29
:1046C000842F089580E008950F93413208F046C08A
:1046D00090914E059111FCCF92E090934E0500937E
:1046E0004C059FEF9093E104109226054093250519
:1046F000FB0167E275E0DB019A2F961B941718F413
:1047000091919D93F9CF10924D0590914D05880F91
:10471000892B80934D0580914B05813041F4109297
:104720004B0580914D058093BB0085EC01C085EE63
:104730008093BC00222321F080914E058230E1F36A
:104740008091E1048F3F61F08091E104803251F06B
:104750008091E104803341F483E007C081E005C02B
:1047600080E003C082E001C084E00F9108956132CF
:1047700098F420914E05243089F460930305FC01E0
:1047800085E095E0DC012A2F281B261718F42191DB
:104790002D93F9CF80E0089581E0089582E0089597
:1047A00085ED8093BC008091BC0084FDFCCF10920D
:1047B0004E05089585EC8093BC0010924E05089537
:1047C0001F920F920FB60F9211242F933F934F9386
:1047D0005F936F937F938F939F93AF93BF93EF9369
:1047E000FF938091B900887F803609F49CC068F5FA
:1047F000883209F45BC090F4803109F454C038F475
:10480000882309F4F5C0883009F44DC0F5C088311B
:1048100009F44CC0803209F45DC0EEC0803409F464
:1048200068C048F4803309F455C0883309F0E4C007
:104830008093E104A8C0803509F44FC0883509F49D
:104840005DC0883409F0D8C0D5C0883909F4C6C025
:10485000A8F4883709F467C038F4883609F463C0CF
:10486000803709F460C0C8C0883809F4B7C08039FF
:1048700009F45FC0803809F0BFC05BC0803B09F419
:1048800085C038F4803A09F466C0883A09F47EC0DD
:10489000B3C0803C09F4A6C0883C09F4A3C0883B9F
:1048A00009F489C0A9C080914D0510C090912605DA
:1048B00080912505981770F5E091260581E08E0F0F
:1048C00080932605F0E0E95DFA4F80818093BB007C
:1048D00085EC85C08093E1048DC0E091260581E0E0
:1048E0008E0F809326058091BB00F0E0E95DFA4FC2
:1048F000808390912605809125056DC0E091260565
:1049000081E08E0F809326058091BB00F0E0E95D89
:10491000FA4F808380914C0581116CC081E08093B7
:104920004B0584EA60C083E080934E051092E20458
:10493000CFCF8091E204803208F050C0E091E204D1
:1049400081E08E0F8093E2048091BB00F0E0ED5196
:10495000FB4F8083BDCF8091E204803230F4E09140
:10496000E204F0E0ED51FB4F10820E94D0236091F1
:10497000E20470E0E0914705F091480583EE94E091
:1049800009951092E2040E94DA2336C084E08093F5
:104990004E051092040510920305E0914905F0912F
:1049A0004A05099580910305811105C081E0809336
:1049B000030510920505E091040581E08E0F8093B8
:1049C0000405F0E0EB5FFA4F80818093BB0090918B
:1049D000040580910305981708F47ACF85E8809341
:1049E000BC000AC085EC8093BC0010924E0504C048
:1049F0001092E1040E94D023FF91EF91BF91AF91FB
:104A00009F918F917F916F915F914F913F912F91E6
:104A10000F900FBE0F901F901895EF92FF920F937B
:104A20001F93CF93DF9300D0CDB7DEB7062F142F9F
:104A3000682F8FE894E029833A830E94DE22602F5A
:104A40008FE894E00E9485222981022FE22E3A818C
:104A5000F32E8E2D801B811740F4F70161917F01A9
:104A60008FE894E00E948522F4CF8FE894E00E94C2
:104A7000FB2291E0811190E0892F0F900F90DF9140
:104A8000CF911F910F91FF90EF900895CF93DF93F7
:104A90001F92CDB7DEB749839E012F5F3F4F41E0A4
:104AA0000E940D250F90DF91CF910895DF92EF9234
:104AB000FF920F931F93CF93DF93C62F042F79019B
:104AC000682F8FE894E00E94DE226C2F8FE894E03C
:104AD0000E94852210E0000F111FD12CCD2DD0E0B7
:104AE000C017D1078CF4CC0FDD1FCE0DDF1D6981FF
:104AF0008FE894E00E94852268818FE894E00E940C
:104B00008522D394D394EACF8FE894E00E94FB22CD
:104B100091E0811190E0892FDF91CF911F910F914A
:104B2000FF90EF90DF900895CF93DF9300D0CDB743
:104B3000DEB75A8349839E012F5F3F4F41E00E94B9
:104B400056250F900F90DF91CF9108953F924F928D
:104B50005F926F927F928F929F92AF92BF92CF920D
:104B6000DF92EF92FF920F931F93CF93DF9300D0CA
:104B700000D000D0CDB7DEB7682E562E742E3A8303
:104B800029830E94102C6B017C01312C412C872D34
:104B900090E09C838B834801A12CB12C3714B0F595
:104BA000662D8FE894E00E94DE22652D8FE894E068
:104BB0000E9485228FE894E00E94FB22662D8FE8F8
:104BC00094E00E94DE224B815C81431951094132FD
:104BD000510514F040E250E0662D8FE894E00E9409
:104BE000DB228FE894E00E942D22892B59F10115D8
:104BF000110579F10E94102C6C197D098E099F090D
:104C0000681579058A059B0520F11CC00115110561
:104C100089F10E94102C6C197D098E099F0920E0F2
:104C200030E0601771078207930720F1872D90E02D
:104C3000242D332727FD309528173907DCF4442429
:104C40004A9418C0872D90E2971508F480E2380E38
:104C5000A5CFE981FA81E40DF11D47FCFA95FE83A9
:104C6000ED838FE894E00E943522ED81FE81808300
:104C70004394B7CF842D26960FB6F894DEBF0FBEAF
:104C8000CDBFDF91CF911F910F91FF90EF90DF90FB
:104C9000CF90BF90AF909F908F907F906F905F90DC
:104CA0004F903F9008950F931F9389019A0141E01F
:104CB0000E94A6251F910F910895DF92EF92FF9217
:104CC0000F931F93CF93DF931F92CDB7DEB7D42EF0
:104CD00079019801AE014F5F5F4F0E94532661E05A
:104CE00070E001C0660FDA94EAF799819623F70124
:104CF00090830F90DF91CF911F910F91FF90EF90D4
:104D0000DF900895CF92DF92EF92FF920F931F935F
:104D1000CF93DF931F92CDB7DEB7C42ED22E97016B
:104D2000AE014F5F5F4F0E9453268823F1F04C2D58
:104D300050E04D1951094F5F5F4F61E070E002C0D4
:104D4000660F771FDA94E2F761507109042E01C0F3
:104D5000660F0A94EAF72981262330E002C03595D0
:104D600027954A95E2F7F80120830F90DF91CF91C4
:104D70001F910F91FF90EF90DF90CF900895EF92E9
:104D8000FF920F931F93CF93DF931F92CDB7DEB7A0
:104D9000182F062FF42EE22E209165013091660126
:104DA000AE014F5F5F4F0E945326898121E030E0C2
:104DB0000F2C01C0220F0A94EAF7EE2019F0482FB9
:104DC000422B03C0422F409548234983602F812FF7
:104DD0000E9446250F90DF91CF911F910F91FF9078
:104DE000EF900895DF92EF92FF920F931F93CF936E
:104DF000DF931F92CDB7DEB7F82EE62ED42E122FFA
:104E00002091650130916601AE014F5F5F4F0E94B6
:104E10005326882319F14D2D50E0411B51094F5F56
:104E20005F4FE1E0F0E002C0EE0FFF1F1A95E2F7DE
:104E30003197042E01C0EE0F0A94EAF701C0000F6B
:104E40004A95EAF74E2F409589814823E0234E2B5F
:104E500049836E2D8F2D0E94462501C080E00F9062
:104E6000DF91CF911F910F91FF90EF90DF90089508
:104E700028E6FC0120830895462F69E1FC0180812A
:104E80000C9446250F93062F23E045E06AE1FC01D0
:104E900080810E94F2260F9108950F93062F23E040
:104EA00042E06AE1FC0180810E94F2260F910895A0
:104EB0000F93062F22E044E06BE1FC0180810E9409
:104EC000F2260F9108950F93062F22E044E06CE143
:104ED000FC0180810E94F2260F910895462F6FE118
:104EE000FC0180810C944625462F60E2FC01808104
:104EF0000C944625462F61E2FC0180810C944625E6
:104F0000462F62E2FC0180810C944625643048F40F
:104F1000262F220F260F2B5D622FFC0180810C941F
:104F200046250895462F68E3FC0180810C944625B0
:104F3000CF93DF93EC012091650130916601AC01C4
:104F40004F5F5F4F6AE388810E9453268981DF911A
:104F5000CF910895262F46E06AE6FC0180810C94EB
:104F6000BF26262F45E06AE6FC0180810C94BF260F
:104F700021E042E06AE6FC0180810C94BF2621E03A
:104F800041E06AE6FC0180810C94BF2621E047E005
:104F90006BE6FC0180810C94BF26262F46E06BE671
:104FA000FC0180810C94BF260F93062F23E042E082
:104FB0006BE6FC0180810E94F2260F910895CF9349
:104FC000DF93EC0161E00E94D42760E0CE010E94F3
:104FD000582760E0CE010E94632760E0CE01DF9198
:104FE000CF910C94CD270F931F93CF93DF93EC01B8
:104FF00000916501109166019C012F5F3F4F42E0D7
:1050000062E788810E94A625898190E0982F8827F1
:105010002A81822BDF91CF911F910F9108950F93D9
:105020001F939B01009165011091660164E7FC01EB
:1050300080810E94A6251F910F910895EF92FF9203
:105040000F931F93CF93DF93EC01E0906501F090F5
:1050500066018C010F5F1F4F26E046E065E78881FF
:105060000E9482268981DF91CF911F910F91FF903D
:10507000EF9008950E941E2891E0843309F090E09B
:10508000892F08950F931F93CF93DF93EC01009125
:105090006501109166019C012F5F3F4F40E060E089
:1050A00088810E945D268981DF91CF911F910F91A8
:1050B0000895262F40E060E0FC0180810C94BF261B
:1050C000EF92FF920F931F93CF93DF93EC01E09049
:1050D0006501F09066018C010F5F1F4F26E046E0EE
:1050E00060E088810E9482268981DF91CF911F91A3
:1050F0000F91FF90EF9008950F93062F26E046E062
:1051000060E0FC0180810E94F2260F910895EF92E9
:10511000FF920F931F93CF93DF93EC01E090650113
:10512000F09066018C010F5F1F4F26E046E061E0C2
:1051300088810E9482268981DF91CF911F910F91F2
:10514000FF90EF9008950F93062F26E046E061E070
:10515000FC0180810E94F2260F910895EF92FF9248
:105160000F931F93CF93DF93EC01E0906501F090D4
:1051700066018C010F5F1F4F26E046E062E08881E8
:105180000E9482268981DF91CF911F910F91FF901C
:10519000EF9008950F93062F26E046E062E0FC01B1
:1051A00080810E94F2260F910895AB0166E0FC0118
:1051B00080810C949425AB0168E0FC0180810C9403
:1051C0009425AB016AE0FC0180810C949425AB012D
:1051D00063E1FC0180810C949425AB0165E1FC0145
:1051E00080810C949425AB0167E1FC0180810C94D3
:1051F0009425262F47E06AE6FC0180810C94BF26A7
:1052000021E043E06AE6FC0180810C94BF266F71C7
:105210002111606241116064462F6DE6FC018081BE
:105220000C944625462F6EE6FC0180810C944625A1
:10523000CF93DF93EC012091650130916601AC01C1
:105240004F5F5F4F6FE688810E9453268981DF910F
:10525000CF9108955F926F927F928F929F92AF92BB
:10526000BF92CF92DF92EF92FF920F931F93CF9353
:10527000DF937C015B016A01622E702E20E040E02A
:10528000662D0E940729602FC7010E941229C0E0E5
:10529000D0E0812C99249394CC15DD05A8F5CE019E
:1052A0004096C816D90618F45C2C5C1A02C0A0E11E
:1052B0005A2E252D30E0C4018719910982179307D2
:1052C00014F4572C519400916501109166019501D9
:1052D0002C0F3D1F452D6FE6F70180810E94A6250A
:1052E000C50DD11D750CCC15DD05B0F6711001C0D2
:1052F000639420E040E0662DC7010E940729672DD6
:10530000C7010E941229C8CFDF91CF911F910F9141
:10531000FF90EF90DF90CF90BF90AF909F908F90D5
:105320007F906F905F9008952F923F924F925F927F
:105330006F927F928F929F92AF92BF92CF92DF92A5
:10534000EF92FF920F931F93CF93DF9300D000D083
:105350001F92CDB7DEB79D838C837B836A834A011E
:10536000322ED02EE98220E040E0632D0E940729F2
:10537000602F8C819D810E941229E980EE2029F006
:1053800080E190E00E94F4355C01CC2031F080E1B6
:1053900090E00E94F435582E492EE12CF12CE814AF
:1053A000F90408F07AC0C70140968816990618F4E7
:1053B000282C2E1802C010E1212E222D30E080E092
:1053C00091E08D1991098217930714F42D2C2194E3
:1053D000EA81FB81EE0DFF1DCC2059F0852DA52D16
:1053E000B42D9A2F981B921530F494919D93319679
:1053F000F8CF5E2E4F2E252D342D422D6FE6AC8139
:10540000BD818C910E940D25622C712CB981BB232A
:1054100069F1A114B10451F120E040E0632D8C81C9
:105420009D810E9407296D2D8C819D810E941229EA
:1054300000916501109166019501422D6FE6EC81A6
:10544000FD8180810E94A625A301B501852D942DA3
:105450000E949C3A892B51F0C5010E948C36CC20C9
:1054600049F1852D942D0E948C3624C0E60CF71C42
:10547000D20CE814F90408F092CFD11001C0339493
:1054800020E040E0632D8C819D810E9407296D2DD5
:105490008C819D810E94122982CFF981FF2319F00E
:1054A000C5010E948C36CC2039F0852D942D0E94A8
:1054B0008C3602C080E001C081E00F900F900F9009
:1054C0000F900F90DF91CF911F910F91FF90EF9070
:1054D000DF90CF90BF90AF909F908F907F906F9014
:1054E0005F904F903F902F900895CF92EF920F933F
:1054F000CC24C3940E9494290F91EF90CF900895EB
:105500002F923F924F925F926F927F928F929F92D3
:10551000AF92BF92CF92DF92EF92FF920F931F93C1
:10552000CF93DF9300D01F92CDB7DEB74C017B83C2
:105530006A833A01D22E222331F088E090E00E9463
:10554000F435182FF92E212C312C2614370408F0AD
:1055500051C0EA81FB81E20DF31DC10103965C019C
:10556000DD20C1F04491F10131968A819B81E80FE1
:10557000F91F0491F1013296E80FF91F5490511070
:1055800044C0F4E02F0E311CEA81FB81EA0DFB1DC3
:1055900084910DC0408101815280EA81FB81E80F36
:1055A000F91F51100DC084E0280E311C808181301C
:1055B000D1F442E368E3F40180810E944625C5CF1F
:1055C0001E2FFF2E452C512CC12CEE24E394242FAA
:1055D000A201612F7F2DC4010E94942912012A0C7F
:1055E0003B1C8111B2CFDD2061F0812F9F2D0E94E5
:1055F0008C3607C0DD2039F0812F9F2D0E948C361C
:1056000002C080E024C081E022C0252C312CF2E0D1
:10561000F51548F4B101812F9F2D49830E941B3756
:10562000182FF92E4981812F9F2DA0E0B0E02A810B
:105630003B812A0D3B1DA215B30520F6F901EA0FA7
:10564000FB1F5491FC015193CF011196F4CF0F90A1
:105650000F900F90DF91CF911F910F91FF90EF90DE
:10566000DF90CF90BF90AF909F908F907F906F9082
:105670005F904F903F902F90089521E00C94802AE6
:10568000462F60E7FC0180810C944625462F61E798
:10569000FC0180810C9446258230E8F4E82FF0E08C
:1056A000EE0FFF1FE15BFA4F71836083813041F0A1
:1056B000809169008C7F842B80936900E89A08951B
:1056C00080916900440F551F440F551F837F842B21
:1056D00080936900E99A08951F920F920FB60F9276
:1056E00011242F933F934F935F936F937F938F93E7
:1056F0009F93AF93BF93EF93FF9380914F0590914A
:105700005005892B29F0E0914F05F091500509953E
:10571000FF91EF91BF91AF919F918F917F916F9189
:105720005F914F913F912F910F900FBE0F901F905F
:1057300018951F920F920FB60F9211242F933F933B
:105740004F935F936F937F938F939F93AF93BF9389
:10575000EF93FF938091510590915205892B29F089
:10576000E0915105F09152050995FF91EF91BF919C
:10577000AF919F918F917F916F915F914F913F91E9
:105780002F910F900FBE0F901F9018951F920F92A0
:105790000FB60F9211242F933F938F939F93AF9344
:1057A000BF938091540590915505A0915605B091F5
:1057B00057053091530523E0230F2D3720F4019630
:1057C000A11DB11D05C026E8230F0296A11DB11D24
:1057D000209353058093540590935505A093560547
:1057E000B09357058091580590915905A0915A059D
:1057F000B0915B050196A11DB11D80935805909352
:105800005905A0935A05B0935B05BF91AF919F9145
:105810008F913F912F910F900FBE0F901F90189571
:105820002FB7F894609154057091550580915605F5
:10583000909157052FBF08953FB7F8948091580570
:1058400090915905A0915A05B0915B0526B5A89B8A
:1058500005C02F3F19F00196A11DB11D3FBF66275E
:10586000782F892F9A2F620F711D811D911D42E0A3
:10587000660F771F881F991F4A95D1F70895CF9219
:10588000DF92EF92FF92CF93DF936B017C010E9436
:105890001C2CEB01C114D104E104F10489F00E9435
:1058A00014320E941C2C6C1B7D0B683E734090F3DD
:1058B00081E0C81AD108E108F108C851DC4FEACFED
:1058C000DF91CF91FF90EF90DF90CF900895789483
:1058D00084B5826084BD84B5816084BD85B58260F5
:1058E00085BD85B5816085BDEEE6F0E08081816093
:1058F0008083E1E8F0E01082808182608083808193
:1059000081608083E0E8F0E0808181608083E1EB6A
:10591000F0E0808184608083E0EBF0E08081816052
:105920008083EAE7F0E08081846080838081826008
:1059300080838081816080838081806880831092F1
:10594000C10008951F93CF93DF93182FEB0161E0FF
:105950000E942A2D209711F460E004C0CF3FD105AA
:1059600039F461E0812FDF91CF911F910C94632D69
:10597000E12FF0E0E45DF64FE491E330F9F048F414
:10598000E130B9F0E230A1F584B5806284BDC8BDD4
:1059900034C0E730E9F0E83019F1E43049F580919E
:1059A0008000806280938000D0938B00C0938A0037
:1059B00024C084B5806884BDC7BD1FC080918000AD
:1059C000806880938000D0938900C093880015C0C0
:1059D0008091B00080688093B000C093B3000DC088
:1059E0008091B00080628093B000C093B40005C085
:1059F000C038D1050CF0B5CFAFCFDF91CF911F915B
:105A00000895833081F028F4813099F08230A1F03C
:105A100008958730A9F08830B9F08430D1F48091AE
:105A200080008F7D03C0809180008F7780938000FD
:105A3000089584B58F7702C084B58F7D84BD0895A5
:105A40008091B0008F7703C08091B0008F7D8093EC
:105A5000B0000895CF93DF9390E0FC01E05CF64F37
:105A60002491FC01EC5AF64F8491882349F190E08F
:105A7000880F991FFC01E458F64FA591B4918E58F8
:105A8000964FFC01C591D4919FB7611108C0F8945D
:105A90008C91209582238C93888182230AC0623066
:105AA00051F4F8948C91322F309583238C93888114
:105AB000822B888304C0F8948C91822B8C939FBF97
:105AC000DF91CF9108950F931F93CF93DF931F9290
:105AD000CDB7DEB7282F30E0F901E45DF64F8491B1
