:100000000C94E5040C94CC260C94F9260C940D0564
:100010000C940D050C940D050C940D050C940D0518
:100020000C940D050C940D050C940D050C940D0508
:100030000C940D050C940D050C940D050C940D05F8
:100040000C9426270C940D050C94672A0C94992A7D
:100050000C940D050C940D050C940D050C940D05D8
:100060000C94401F0C940D05084AD73B3BCE016E03
:1000700084BCBFFDC12F3D6C74319ABD56833DDAFF
:100080003D00C77F11BED9E4BB4C3E916BAAAABE0E
:10009000000000803F05A84CCDB2D44EB93836A937
:1000A000020C50B9918688083CA6AAAA2ABE000074
:1000B00000803F0001B202FFFF0190040923A13537
:1000C000016A020600016008000000000000000054
:1000D00000600440000000016202000000600400B3
:1000E000400000037B034CCD6C03AB033656760017
:1000F000680402CB47A202180400058BC1010C045E
:1001000000000000037F060CC92C97979703890312
:10011000264666006C022000024004000000000237
:1001200044040000000002480400000000024C04E7
:10013000000000000250040000000002540400000F
:10014000000002580400000000025C0400000000EF
:1001500002BC040000000001EC0400004000037F2A
:10016000060CC92C9797970402030D355D0409040A
:10017000872D353D00A3010000000001078601FE28
:10018000074105F120283038077E01300746019AE3
:10019000074704F1283038076C04F128303802167C
:1001A000020001FB00003E000B00360001000200CF
:1001B00003000000650054FFEF0000FA80000B12FE
:1001C00082000100020000000000000000000000AA
:1001D00000000000280000FFFF4581FFFFFA7200C9
:1001E000000000000003E80000000100017FFFFFA5
:1001F000FE8001001B000000000000000000000065
:10020000000000003E03304000000002CAE3093E47
:10021000800000200000000000000040000000609E
:1002200000000041FF000000000B2A0000165500EE
:10023000002182FD872650FD800000001F00000085
:100240000580000000000000010000000200000026
:10025000030000400000000000046F00026532004F
:10026000005EC04000000000000000000000000030
:10027000000000FB8C6F5DFD5D08D9007C733B00C6
:100280006C12CC3200139D3200D0D63200080040F0
:100290000001F4FFE68079020000000000D0D600E3
:1002A000002710FB000000400000000000000000DC
:1002B000000000000000010000000000000100013B
:1002C0000000000000FA36FFBC308E0005FBF0FF96
:1002D000D95BC8FFD09ABE000010A9FFF41EB2007F
:1002E000CEBBF70000000100000004000200020283
:1002F00000000CFFC280000001800000CF800040A1
:1003000000000000000001000000000000060000E6
:1003100000001400000000000000000000000000C9
:1003200000000000000000000000000000000000CD
:1003300000000000000000000000000000000000BD
:1003400000000000000000033F68B6793528BCC6F5
:100350007ED16C80000000400000000000B26A0006
:10036000000000000000000000000000003FF0005E
:10037000000030000000000000000000000000004D
:10038000000000000000000000000000000000006D
:100390000000000000254D002F706D000005AE002C
:1003A0000C02D00000000000650054FFEF000000C8
:1003B000000000000001000044000000000C0000EC
:1003C000000100000000000065000000540000FF74
:1003D000EF0000000000000000000000000000002E
:1003E00000000040000000000000000000000000CD
:1003F00000000040000000000000000000000000BD
:1004000000000000000001000000020000000000E9
:1004100000000000000000000000000000000000DC
:1004200000000000000000000000000000000000CC
:10043000000000001B0000000000000000000000A1
:1004400000000000000000000000000000000000AC
:10045000000000000000000000000000000000405C
:10046000000000001B000000000000000000000071
:10047000000000000000000000000000000000007C
:10048000000000000000000000000000000000006C
:10049000000000000000000000000000000000005C
:1004A000000000D8DCBAA2F1DEB2B8B4A88191F79E
:1004B0004A907F916AF3F9DBA8F9B0BAA080F2CE36
:1004C00081F3C2F1C1F2C3F3CCA2B280F1C6D880ED
:1004D000BAA7DFDFDFF2A7C3CBC5B6F087A29424AB
:1004E00048703C95406834589B78A2F183922D5512
:1004F0007DD8B1B4B8A1D09180F270F370F27C8055
:10050000A8F101B09887D943D886C988BAA1F20E5C
:10051000B89780F1A9DFDFDFAADFDFDFF2AAC5CD60
:10052000C7A90CC92C97979797F1A989264666B059
:10053000B4BA80ACDEF2CAF1B28C02A9B6980089D6
:100540000E161EB8A9B4992C547CB08AA8963656BB
:1005500076F1B9AFB4B083C0B8A89711B18F98B98C
:10056000AFF0240844106418F1A329557DAF83B57A
:1005700093AFF0002850F1A3869F61A6DADEDFD9A1
:10058000FAA38696DB31A6D9F8DFBAA68FC2C5C713
:10059000B28CC1B8A2DFDFDFA3DFDFDFD8D8F1B8CC
:1005A000A8B286B4980D355DB8AA98B0872D353DB0
:1005B000B2B6BAAF8C96198F9FA70E161EB49AB812
:1005C000AA872C547CB9A3DEDFDFA3B180F2C4CDAF
:1005D000C9F1B8A9B499830D355D89B9A32D557DAD
:1005E000B593A30E161EA92C547CB8B4B0F1978312
:1005F000A81184A50998A383F0DA2408441064188C
:10060000D8F1A529557DA58595021A2E3A565A404E
:1006100048F9F3A3D9F8F098832408441064189794
:1006200082A8F111F098A2240844106418DAF3DECD
:10063000D883A59401D9A302F1A2C3C5C7D8F18478
:1006400092A24DDA2AD84869D92AD86855DA32D820
:100650005071D932D8705DDA3AD85879D93AD87809
:1006600093A34DDA2AD84869D92AD86855DA32D8FE
:100670005071D932D8705DDA3AD85879D93AD878E9
:10068000A88A9AF02850789EF38818F19F1D98A8A0
:10069000D908D8C89F129EF315A8DA1210D8F1AF66
:1006A000C8978734B5B994A421F3D922D8F22DF391
:1006B000D92AD8F235F3D932D881A4606061D961E2
:1006C000D86C6869D969D8747071D971D8B1A384AC
:1006D000193D5DA3831A3E5E931030811011B8B0AE
:1006E000AF8F94F2DA3ED8B49AA88729DAF8D8877F
:1006F0009A35DAF8D8879A3DDAF8D8B1B9A498854E
:10070000022E56A581000C14A397B08AF12DD9288A
:10071000D84DD948D86DD968D8B1840DDA0ED8A390
:100720002983DA2C0ED8A3844983DA2C4C0ED8B84E
:10073000B0A88A9AF520AADADFD8A840AAD0DADED3
:10074000D8A860AADAD0DFD8F19786A8319B06999D
:1007500007AB9728889BF00C201440B8B0B4A88C45
:100760009CF0042851791D301438B282ABD0982CFB
:10077000505078789BF11AB0F08A9CA82951798B57
:100780002951798A2470598B2058718A4469388B91
:100790003940688A6448318B304960A588200971E6
:1007A000584468113964493019F1AC002C547CF07C
:1007B0008CA804285078F1889726A85998AC8C0208
:1007C000264666F0899CA8295179247059446938D5
:1007D000644831A98809205970AB11384069A819BB
:1007E0003148608CA83C415C207C00F187981986D8
:1007F000A86E767EA999882D557D9EB9A38A228AF6
:100800006E8A568A5E9FB183062646660E2E4E6E0F
:100810009DB8AD002C547CF2B18CB499B9A32D5580
:100820007D8191AC38AD3AB58391AC2DD928D84DA6
:10083000D948D86DD968D88C9DAE29D904AED85185
:10084000D904AED879D904D881F39DAD008DAE1905
:1008500081ADD901D8F2AEDA26D88E912983A7D9F5
:10086000ADADADADF32AD8D8F1B0AC89913E5E768E
:10087000F3AC2E2EF1B18C5A9CAC2C2828289CACC1
:100880003018A8988128343C9724A728343C9C240D
:10089000F2B089AC912C4C6C8A9B2DD9D8D851D907
:1008A000D8D879D9D8D8F19E88A331DAD8D8912D63
:1008B000D928D84DD948D86DD968D8B18393353D5A
:1008C0008025DAD8D88569DAD8D8B49381A32834BA
:1008D0003CF3AB8BF8A391B609B4D9ABDEFAB08781
:1008E0009CB9A3DDF1A3A3A3A395F1A3A3A39DF1B9
:1008F000A3A3A3A3F2A3B49080F2A3A3A3A3A3A34F
:10090000A3A3A3A3B2A3A3A3A3A3A3B087B599F161
:10091000A3A3A398F1A3A3A3A397A3A3A3A3F39B28
:10092000A3A3DCB9A7F1262626D8D8FF000000082B
:1009300000020100000304070000000000000000A6
:100940000102040810204080010204081020010266
:100950000408102004040404040404040202020233
:100960000202030303030303000000002300260028
:10097000290000000000250028002B0000000000D6
:10098000240027002A004E414E494E495459494EF1
:1009900046CDCCCC3D0AD7233C17B7D13877CC2BEA
:1009A000329595E6241FB14F0A000020410000C88F
:1009B0004200401C4620BCBE4CCA1B0E5AAEC59D10
:1009C00074009316781D5E1EC92A11241FBECFEF36
:1009D000D8E0DEBFCDBF12E0A0E0B1E0E6E8FCE683
:1009E00002C005900D92A438B107D9F725E0A4E81C
:1009F000B2E001C01D92A33AB207E1F719E0CAECD8
:100A0000D9E004C02297FE010E942D31C23CD107DB
:100A1000C9F70E940D2B0C9441360C9400001F92D4
:100A20000F920FB60F9211242F938F939F93AF9332
:100A3000BF9323B1822F817090E04A9B03C0892B22
:100A400019F00EC0892B61F080918A0390918B037D
:100A5000A0918C03B0918D030196A11DB11D0BC017
:100A600080918A0390918B03A0918C03B0918D03A8
:100A70000197A109B10980938A0390938B03A093F6
:100A80008C03B0938D03BF91AF919F918F912F9164
:100A90000F900FBE0F901F9018951F920F920FB6D8
:100AA0000F9211242F938F939F93AF93BF9323B1F2
:100AB00021FB882780F990E04B9B03C0892B19F01C
:100AC0000EC0892B61F080918E0390918F03A091CD
:100AD0009003B09191030196A11DB11D0BC08091AF
:100AE0008E0390918F03A0919003B0919103019791
:100AF000A109B10980938E0390938F03A093900373
:100B0000B0939103BF91AF919F918F912F910F90CF
:100B10000FBE0F901F90189508959C01FC01EE5791
:100B2000FF4F80819181680F791F6138710530F422
:100B3000718360830296820F931F089580E090E096
:100B400008959C01FC01EE5BFF4F80819181680F4D
:100B5000791F6134710530F4718360830296820FCE
:100B6000931F089580E090E00895CF93DF93EC0108
:100B700063E571E00E94A61B60E070E00E94B81A75
:100B80000E945D1A83E793E00E94352463E571E0DB
:100B9000CE010E94A61B61E070E00E94B81A0E947C
:100BA0005D1A83E793E00E943B2463E571E0CE0188
:100BB0000E94A61B62E070E00E94B81A0E945D1AB3
:100BC00083E793E00E94412463E571E0CE010E9437
:100BD000A61B63E070E00E94B81A0E945D1A83E7CA
:100BE00093E00E94472463E571E0CE010E94A61BBA
:100BF00064E070E00E94B81A0E945D1A83E793E0F7
:100C00000E944D2463E571E0CE010E94A61B65E0C1
:100C100070E00E94B81A0E945D1A83E793E0DF91AA
:100C2000CF910C94532460914F01709150010E9418
:100C3000A61B0E945D1A21E06130710509F020E0D9
:100C400020933E01089560914F01709150010E94E0
:100C5000A61B0E945D1A21E06130710509F020E0B9
:100C600020931304089560914F01709150010E94E8
:100C7000A61B0E945D1A21E06130710509F020E099
:100C800020933F01622F8CE00C94C3280E94391AF4
:100C9000FC0181E0208131812230310508F480E0BF
:100CA0000895CF93DF93EC0168E571E00E9446065A
:100CB000882309F46CC068E571E0CE010E94A61B90
:100CC0000E945D1A672B09F062C06CE571E0CE01ED
:100CD0000E944606882379F06CE571E0CE010E94FF
:100CE000A61B0E944E1A60934101709342018093AB
:100CF0004301909344016EE172E0CE010E944606EA
:100D0000882379F06EE172E0CE010E94A61B0E945A
:100D10004E1A60934501709346018093470190936A
:100D2000480164E172E0CE010E944606882379F012
:100D300064E172E0CE010E94A61B0E944E1A6093ED
:100D4000490170934A0180934B0190934C0110929A
:100D5000330310923403109235031092360310922D
:100D60006603109267031092680310926903109251
:100D70002F0310923003109231031092320310921D
:100D80006203109263031092640310926503DF9173
:100D9000CF9108958F929F92AF92BF92CF92DF92A0
:100DA000EF92FF927C016EE571E00E944606882377
:100DB00059F06EE571E0C7010E94A61B0E945D1A02
:100DC000709387036093860362E671E0C7010E9417
:100DD0004606882359F062E671E0C7010E94A61B0F
:100DE0000E945D1A709389036093880367E671E03F
:100DF000C7010E944606882339F06BE671E0C701FF
:100E00000E94460681110CC081E080937203FF901E
:100E1000EF90DF90CF90BF90AF909F908F9008950C
:100E200067E671E0C7010E94A61B0E945D1A4B0194
:100E30005C016BE671E0C7010E94A61B0E944E1A7E
:100E40002BED3FE049E450E40E9408309B01AC01E7
:100E500060E070E08AE794E40E94432E6B017C011D
:100E6000B401882777FD8095982F0E94DE2E9B0184
:100E7000AC01C701B6010E9408300E94AB2E7093EE
:100E8000870360938603C0CFCF93DF93EC0160911B
:100E90004F01709150010E94A61B0E945D1A21E033
:100EA0006130710509F020E02093140460914D0138
:100EB00070914E01CE010E944606882369F0609130
:100EC0004D0170914E01CE010E94A61B0E945D1A39
:100ED0007093390160933801DF91CF9108958F921B
:100EE0009F92AF92BF92CF92EF920F931F93CF93A7
:100EF000DF93CDB7DEB7C059D1090FB6F894DEBF86
:100F00000FBECDBF5C010E9426236EE170E080E041
:100F100090E00E949F2760E0C5010E942D2321E000
:100F200041E060E1C5010E94672466E0C5010E94BE
:100F30007224C5010E94782420E040E060E0C501F1
:100F40000E946724C5010E94A223C5010E94C023FC
:100F5000182FC5010E94E723882EC5010E940E2488
:100F6000982E4FE760E0C5010E94E62260E0C501CF
:100F70000E94112348E660E0C5010E94E622C501F7
:100F80000E941F2364E170E080E090E00E949F27B0
:100F9000EE24E39400E020E049E857E063EA71E0E2
:100FA000C5010E94D525882309F40EC240EC50E00B
:100FB00063EE70E0C5010E949D26882309F406C2F5
:100FC00063E0C5010E94342362E1C5010E94F22260
:100FD00064E0C5010E949C2261E0C5010E94A2223A
:100FE00063E0C5010E94AD2263E0C5010E94B82202
:100FF00063E0C5010E94A02660E0C5010E94A6260C
:1010000060E0C5010E94B923612FC5010E94DC2365
:10101000682DC5010E940324692DC5010E942A2460
:10102000812C912CF401EC54FF4FE491A1E8B0E045
:10103000AC0FBD1FA80DB11DEC9381E0880D9FEF93
:10104000891A990AE3E0E81568F7CD57DF4F488120
:10105000C358D04050E09A012E5F3F4F90E02817D0
:10106000390704F7C12CEE24E394CE57DF4F0881F3
:10107000C258D040CF57DF4F2881C158D04061E8D7
:1010800070E06C0F7D1F6D5F7F4FC5010E94F424DF
:1010900060E0F401EC54FF4FE491A1E8B0E0AC0F44
:1010A000BD1FA60FB11DEC936F5FFFEF8F1A9F0A54
:1010B000643078F3CD57DF4F4881C358D04050E0BB
:1010C0009A012E5F3F4F862F90E0281739070CF7C3
:1010D000C12CEE24E394CE57DF4F0881C258D04094
:1010E000CF57DF4F2881C158D04061E870E06C0FC6
:1010F0007D1F6D5F7F4FC5010E94F424C5010E94D2
:101100001823C5010E945323482FBE016F5F7F4FF4
:10111000C5010E946F2362E0C5010E94CE226CE9E6
:10112000C5010E94DA2260E5C5010E94D42260E078
:10113000C5010E94E022C5010E94182361E0C5019B
:101140000E940A2361E0C5010E945924C5010E9442
:10115000602460E0F401EC54FF4FE491A1E8B0E0BA
:10116000AC0FBD1FA60FB11DEC936F5F8FEF881AF8
:10117000980A643078F3CD57DF4F4881C358D04088
:1011800050E09A012E5F3F4F862F90E028173907D5
:101190000CF7C12CEE24E394CE57DF4F0881C258E0
:1011A000D040CF57DF4F2881C158D04061E870E070
:1011B0006C0F7D1F6D5F7F4FC5010E94F42460E0BE
:1011C000F401EC54FF4FE491A1E8B0E0AC0FBD1F77
:1011D000A60FB11DEC936F5F9FEF891A990A6430D7
:1011E00078F3CD57DF4F4881C358D04050E09A0183
:1011F0002E5F3F4F862F90E0281739070CF7C12C40
:10120000EE24E394CE57DF4F0881C258D040CF5729
:10121000DF4F2881C158D04061E870E06C0F7D1F1E
:101220006D5F7F4FC5010E94F42460E0F401EC542F
:10123000FF4FE491A1E8B0E0AC0FBD1FA60FB11DB8
:10124000EC936F5FEFEF8E1A9E0A643078F3CD5700
:10125000DF4F4881C358D04050E09A012E5F3F4F86
:10126000862F90E0281739070CF7C12CEE24E39461
:10127000CE57DF4F0881C258D040CF57DF4F28816B
:10128000C158D04061E870E06C0F7D1F6D5F7F4FEB
:10129000C5010E94F424C5010E94532383309105A7
:1012A000D0F3482FBE016F5F7F4FC5010E946F23AF
:1012B000C5010E94F82260E0F401EC54FF4FE49174
:1012C000A1E8B0E0AC0FBD1FA60FB11DEC936F5F9E
:1012D000FFEF8F1A9F0A643078F3CD57DF4F4881B4
:1012E000C358D04050E09A012E5F3F4F862F90E0C8
:1012F000281739070CF7CE57DF4F0881C258D04066
:10130000CF57DF4F2881C158D04061E870E06C0FA3
:101310007D1F6D5F7F4FC5010E948A24C5010E9419
:10132000532383309105D0F3482FBE016F5F7F4F69
:10133000C5010E946F23C5010E94F822F401EC54FC
:10134000FF4F60E08491A1E8B0E0AC0FBD1FA60F95
:10135000B11D8C936F5F643010F43196F3CFCD578D
:10136000DF4F4881C358D04050E09A012E5F3F4F75
:10137000862F90E02817390784F761E870E06C0F3A
:101380007D1F6D5F7F4FC12CEE24E394CE57DF4F5E
:101390000881C258D040CF57DF4F2881C158D04074
:1013A000C5010E94F42460E0C5010E9459248AE22C
:1013B00090E0F50193838283C5010E941823C50143
:1013C0000E94F82280E003C081E001C082E0C057A3
:1013D000DF4F0FB6F894DEBF0FBECDBFDF91CF91C8
:1013E0001F910F91EF90CF90BF90AF909F908F90F3
:1013F0000895CF93DF93DB01FA01309719F4EC01E4
:10140000E881F981808190E0982F88272181820FDF
:10141000911D11969C938E93848190E0982F88273C
:101420002581820F911D13969C938E931297808530
:1014300090E0982F88272185820F911D15969C9307
:101440008E931497848590E0982F88272585820FA6
:10145000911D17969C938E93169780E0DF91CF9104
:101460000895FF920F931F93CF93DF93CDB7DEB70D
:1014700028970FB6F894DEBF0FBECDBF8B01BE011B
:101480006F5F7F4F0E94F909F82E81114CC069816E
:101490007A81882777FD8095982F0E94DE2E20E0A4
:1014A00030E040E858E30E940830F801608371831F
:1014B000828393836B817C81882777FD8095982F29
:1014C0000E94DE2E20E030E040E858E30E94083021
:1014D000F80164837583868397836D817E81882775
:1014E00077FD8095982F0E94DE2E20E030E040E8C6
:1014F00058E30E940830F8016087718782879387DC
:101500006F817885882777FD8095982F0E94DE2E41
:1015100020E030E040E858E30E940830F80164879A
:101520007587868797878F2D28960FB6F894DEBF2C
:101530000FBECDBFDF91CF911F910F91FF90089506
:101540004F925F926F927F928F929F92AF92BF92D3
:10155000CF92DF92EF92FF920F931F93CF93DF937F
:10156000CDB7DEB728970FB6F894DEBF0FBECDBF5C
:101570008B01DA011496CD90DD90ED90FC901797D9
:101580001C964D905D906D907C901F978D909D90D6
:10159000AD90BC90139718968D919D910D90BC9134
:1015A000A02D89839A83AB83BC83A3019201C701D9
:1015B000B6010E9408306D837E838F8398872981CE
:1015C0003A814B815C81C501B4010E9408309B01C6
:1015D000AC016D817E818F8198850E94752D9B0164
:1015E000AC010E94762DF80160837183828393831E
:1015F000A7019601C501B4010E9408306D837E8366
:101600008F839887A301920169817A818B819C8164
:101610000E9408309B01AC016D817E818F8198858D
:101620000E94762D9B01AC010E94762DD801149664
:101630006D937D938D939C931797A5019401C5019C
:10164000B4010E9408304B015C01A7019601C7015B
:10165000B6010E9408309B01AC01C501B4010E9493
:10166000752D6B017C0129813A814B815C81CA0116
:10167000B9010E9408309B01AC01C701B6010E946C
:10168000752D6B017C01A3019201C301B2010E947F
:1016900008309B01AC01C701B6010E94762DF8010C
:1016A000608771878287938780E028960FB6F894C9
:1016B000DEBF0FBECDBFDF91CF911F910F91FF9085
:1016C000EF90DF90CF90BF90AF909F908F907F90E2
:1016D0006F905F904F9008952F923F924F925F923C
:1016E0006F927F928F929F92AF92BF92CF92DF9232
:1016F000EF92FF920F931F93CF93DF9300D000D010
:1017000000D0CDB7DEB71B018A013E832D83FA01DD
:10171000C080D180E280F380A7019601C701B601A5
:101720000E94762D69837A838B839C83F801848061
:101730009580A680B780A5019401C501B4010E94DF
:10174000762D2B013C01A701960169817A818B815D
:101750009C810E9408306B017C01A5019401C301AA
:10176000B2010E9408309B01AC01C701B6010E9482
:10177000762D20E030E040E85FE30E94752D6B019C
:101780007C01F8012085318542855385C301B20172
:101790000E9408302B013C01F801248535854685DF
:1017A000578569817A818B819C810E9408309B01D9
:1017B000AC01C301B2010E94752DA70196010E94E0
:1017C000E92DF1016083718382839383ED81FE8132
:1017D0006481758186819781C084D184E284F38499
:1017E0009B01AC010E9408304B015C01A7019601EE
:1017F000C701B6010E9408309B01AC01C501B401CC
:101800000E94762D0E9475309B01AC01ED81FE8116
:1018100060817181828193810E94432E0E94142EE7
:10182000F1016483758386839783ED81FE816081F6
:10183000718182819381C084D184E284F3849B018D
:10184000AC010E9408304B015C01A7019601C70161
:10185000B6010E9408309B01AC01C501B4010E9491
:10186000762D0E9475309B01AC01ED81FE81648173
:101870007581868197810E94432E0E94142EF1016A
:10188000608771878287938780E026960FB6F894E9
:10189000DEBF0FBECDBFDF91CF911F910F91FF90A3
:1018A000EF90DF90CF90BF90AF909F908F907F9000
:1018B0006F905F904F903F902F9008954F925F925E
:1018C0006F927F928F929F92AF92BF92CF92DF9250
:1018D000EF92FF920F931F93CF93DF93EC017B0165
:1018E000882777FD8095982F0E94DE2E2B013C01E2
:1018F0002D813E814F8158850E943C2E8823A1F185
:101900008C80F7FE03C081E08825882EB701F7FEA2
:1019100003C0719561957109882777FD8095982F8F
:101920001F921F921F922FEF2F93A12CB12C6501B4
:1019300014E6E12EF12C00E010E020E030E0A901F7
:101940000E942D2D6B017C01682D89810E94C32886
:10195000B60188810E9402284D825E826F8278865D
:101960000F900F900F900F90DF91CF911F910F91DB
:10197000FF90EF90DF90CF90BF90AF909F908F90AF
:101980007F906F905F904F9008956F927F928F92AB
:101990009F92AF92BF92CF92DF92EF92FF920F93FE
:1019A0001F93CF93DF93EC014A015B0160918803A1
:1019B00070918903882777FD8095982F0E94DE2EED
:1019C0009B01AC01C501B4010E94083020E030E069
:1019D00048EC52E40E94432E6BA77CA78DA79EA7DC
:1019E000EF8AF88E098F1A8FCE2CDF2C7801F7FE44
:1019F00008C0F094E094D094C094C11CD11CE11CA8
:101A0000F11C21E03FEFC316D306E3063FE7F306E0
:101A100009F420E02E8B11E020E030E0A9010E94C3
:101A20003C2E811101C010E01D8B1BA21CA21DA227
:101A30001EA21FA218A619A61AA61F8E18A219A2C6
:101A40001AA2DF91CF911F910F91FF90EF90DF903D
:101A5000CF90BF90AF909F908F907F906F900895A0
:101A6000EF92FF920F931F93CF93DF93EC01EE243D
:101A7000EA94FE2C0FEF1FE720E030E040E050E05A
:101A8000BA010E94C50CEB8119861A861B861C863A
:101A9000198A1A8A1B8A1C8A84E0E89FF0011124A3
:101AA000E657FC4F10821182128213821BA21CA2E5
:101AB0001DA21EA21FA218A619A61AA61F8E18A242
:101AC00019A21AA20E94702760939E0370939F032D
:101AD0008093A0039093A103DF91CF911F910F9169
:101AE000FF90EF900895CF92DF92EF920F93CF93F4
:101AF000DF931F92CDB7DEB76C01862FF6016083AE
:101B0000418322830383E48290913F01992399F0DA
:101B100061E049830E948A2861E04981842F0E9404
:101B20008A28C6010F90DF91CF910F91EF90DF903F
:101B3000CF900C94300D0F90DF91CF910F91EF90DB
:101B4000DF90CF9008958F929F92AF92BF92CF92E5
:101B5000DF92EF92FF920F931F93CF93DF936C016D
:101B600060E771E00E944606882349F060E771E073
:101B7000C6010E94A61B0E945D1AEB0102C0C0E0D4
:101B8000D0E064E771E0C6010E944606882311F1A7
:101B900064E771E0C6010E94A61B0E944E1A4B0129
:101BA0005C0120E030E0A9010E94FD2F87FD06C006
:101BB000EE24EA94FE2C0FEF1FE705C0EE24E39419
:101BC000F12C00E010E89E01B501A4018FE393E041
:101BD0000E94C50C67E771E0C6010E944606882393
:101BE00011F167E771E0C6010E94A61B0E944E1A20
:101BF0004B015C0120E030E0A9010E94FD2F87FD30
:101C000006C0EE24EA94FE2C0FEF1FE705C0EE2479
:101C1000E394F12C00E010E89E01B501A4018CE0F2
:101C200093E00E94C50CDF91CF911F910F91FF901F
:101C3000EF90DF90CF90BF90AF909F908F900895DE
:101C40004F925F926F927F92AF92BF92CF92DF924C
:101C5000EF92FF920F931F93CF93DF93CDB7DEB731
:101C60002C970FB6F894DEBF0FBECDBFE986FA867B
:101C70000B871C870E94752D2B013C01ABA1BCA1D9
:101C80002D913D914D915C910E94762D2FA138A50B
:101C900049A55AA50E9408306D837E838F8398875B
:101CA000A3019201EDA1FEA16081718182819381E6
:101CB0000E94752D2FA138A549A55AA50E9408306C
:101CC00069837A838B839C83ED80FE800F811885E6
:101CD000ABA1BCA1ED92FD920D931C931397ADA106
:101CE000BEA16D937D938D939C931397E9A1FAA167
:101CF0004082518262827382A301920169857A8552
:101D00008B859C850E9408302B013C012D813E81F2
:101D10004F815885C601B5010E9408309B01AC0176
:101D2000C301B2010E94762D6B017C0129813A81A9
:101D30004B815C816D8D7E8D8F8D98A10E940830C6
:101D40009B01AC01C701B6010E94762D2C960FB6FF
:101D5000F894DEBF0FBECDBFDF91CF911F910F91E1
:101D6000FF90EF90DF90CF90BF90AF907F906F90FB
:101D70005F904F9008952F923F924F925F926F9293
:101D80007F928F929F92AF92BF92CF92DF92EF920B
:101D9000FF920F931F93CF93DF93CDB7DEB72C97AE
:101DA0000FB6F894DEBF0FBECDBF1C016B01DC0186
:101DB0001D962D913D914D915C91509751968D912D
:101DC0009D910D90BC91A02D281B390B4A0B5B0BEC
:101DD000A8EEB3E00E942031960140E050E0298354
:101DE0003A834B835C830E940131CA01B9010E948E
:101DF000DE2E2B013C01D1019F966D937D938D9337
:101E00009C93D297A0904501B0904601C0904701A5
:101E1000D09048012091410130914201409143010D
:101E2000509144012D833E834F8358879B968D911B
:101E30009D910D90BC91A02D89879A87AB87BC8717
:101E400069817A818B819C810E94DC2E20E030E0C8
:101E50004AE754E40E94432E9F938F937F936F939E
:101E6000C10187969F938F9304979F938F930497B5
:101E70009F938F9380914C018F9380914B018F930F
:101E800080914A018F93809149018F93ED80FE806C
:101E90000F811885A301920169857A858B859C85C0
:101EA0000E94200E4B015C01F101C3A4D4A4E5A45F
:101EB000F6A40FB6F894DEBF0FBECDBF20E030E031
:101EC000A901C701B6010E943C2E882309F45AC01B
:101ED00020E030E0A901D1019F966D917D918D9117
:101EE0009C91D2970E943C2E8823A1F1F101238D71
:101EF000348D458D568DC501B4010E94762D6B0140
:101F00007C0120E030E048EC52EC0E943C2E87FD42
:101F10000FC020E030E048EC52E4B601C7010E9457
:101F2000FD2F181654F4C12CD12C98EC82E407C074
:101F3000C12CD12C98EC82EC02C09E2D8F2DA601D5
:101F4000692F782FD1015B964D935D936D937C93B0
:101F50005E971FC020E030E0A901C701B6010E94D2
:101F6000FD2F87FD05C040E050E068E472E404C046
:101F700040E050E068E472ECF101438F548F658FCC
:101F8000768F07C0D1015B961D921D921D921C9207
:101F90005E97F1014585568567857089418B528B27
:101FA000638B748B2C960FB6F894DEBF0FBECDBF3B
:101FB000DF91CF911F910F91FF90EF90DF90CF9025
:101FC000BF90AF909F908F907F906F905F904F9059
:101FD0003F902F90089510928E0310928F031092CD
:101FE00090031092910310928A0310928B03109227
:101FF0008C0310928D0362E082E00E948A2862E0E6
:1020000083E00E948A2862E088E00E948A2862E0D9
:1020100089E00E948A2841E050E06FE075E080E0AE
:102020000E94AC2641E050E06DE475E081E00E9442
:10203000AC2680913F01882341F161E085E00E9458
:102040008A2860E085E00E94C32861E086E00E9463
:102050008A2860E086E00E94C32861E08BE00E944D
:102060008A2860E08BE00E94C32861E081E10E9441
:102070008A2860E081E10E94C3288FE393E00E94F8
:10208000300D8CE093E00E94300D1092920310927C
:10209000930310929403109295031092960310925A
:1020A0009703109298031092990310929A0310923A
:1020B0009B0310929C0310929D0310923F01089580
:1020C000CF92DF92EF92FF92CF93DF930E9470271F
:1020D0006B017C0180919E0390919F03E601C81BD8
:1020E000D90BE091420380914303F0E0EE0FFF1F14
:1020F000EE0FFF1FE657FC4F882361F0808191812E
:10210000A281B381B095A095909581959F4FAF4FD7
:10211000BF4F04C080819181A281B38180934C0321
:1021200090934D03A0934E03B0934F03E0910F03A0
:1021300080911003F0E0EE0FFF1FEE0FFF1FE65738
:10214000FC4F882361F080819181A281B381B09599
:10215000A095909581959F4FAF4FBF4F04C0808150
:102160009181A281B3818093190390931A03A09364
:102170001B03B0931C03BE018FE393E00E94BB0ED0
:10218000BE018CE093E00E94BB0E60915A037091F7
:102190005B0380915C0390915D030E94AB2E8FE303
:1021A00093E00E945E0C6091270370912803809158
:1021B000290390912A030E94AB2E8CE093E00E94A9
:1021C0005E0CC0929E03D0929F03E092A003F09217
:1021D000A103DF91CF91FF90EF90DF90CF90089512
:1021E000EF92FF920F931F93CF93DF937C010CE04C
:1021F00011E0C0E0D0E061EF71E0C7010E94A61BD2
:102200000E94421ABC01F801808191810E94FE3532
:102210000C5F1F4F892B81F4CC0FDD1FCC0FDD1F0E
:10222000C45FDE4FEA81FB81C701DF91CF911F912F
:102230000F91FF90EF9009942196CA30D105D9F6FD
:10224000DF91CF911F910F91FF90EF9008958C0136
:10225000C0E0D0E0C017D107B4F461E08DE00E9487
:10226000C32868EC70E080E090E00E949F2760E067
:102270008DE00E94C32868EC70E080E090E00E944E
:102280009F272196E7CF68E572E080E090E00E940A
:102290009F27DECF26E040E052EC61E070E080E076
:1022A00095E00E94052A64E170E080E090E00E94E1
:1022B0009F2761E08DE00E948A2861E08CE00E9407
:1022C0008A2862E084E00E948A2860E08DE00E9413
:1022D000C32860E08CE00E94C3280E94EB0F80912D
:1022E0004001882309F47FC083E394E00E94241E08
:1022F00088E18093B80062E087E00E948A2883E743
:1023000093E00E943F236AE070E080E090E00E944A
:102310009F2783E793E00E949A2383E793E00E943C
:102320006F0780930C046AE070E080E090E00E9408
:102330009F2780910C0481113CC061E083E793E00A
:102340000E9459246AE070E080E090E00E949F279C
:1023500083E793E00E94F82280930E048091750336
:1023600080930D046CED70E083E793E00E944724B6
:102370006CE470E083E793E00E944D246BEA7FEF0A
:1023800083E793E00E9453246CEF76E083E793E0C9
:102390000E9441240E947027605D7A488F4F9F4FB2
:1023A00060938502709386028093870290938802DF
:1023B0001AC06AE771E080E095E00E945A2B4AE07B
:1023C00050E060910C0480E095E00E94392C6BE8AD
:1023D00071E080E095E00E94772B80910C0490E002
:1023E00001960E9427116DE871E080E095E00C9461
:1023F000772BCF92DF92EF92FF92CF93DF93EC0196
:10240000C880D980EA80FB802BED3FE049E450E4AE
:10241000C701B6010E94FD2F18166CF42BED3FE0AA
:1024200049EC50E4C701B6010E94752D6883798399
:102430008A839B83E5CF2BED3FE049E450EC60912C
:10244000190470911A0480911B0490911C040E943D
:102450003C2E87FF0FC02BED3FE049EC50E4688134
:1024600079818A819B810E94762D688379838A8312
:102470009B83E1CFDF91CF91FF90EF90DF90CF90E2
:102480000895CF93DF93EC018FE393E00E94300D2A
:102490008CE093E00E94300D1092190410921A04FF
:1024A00010921B0410921C0410921D0410921E0422
:1024B00010921F0410922004109221041092220402
:1024C000109223041092240464EB71E0CE010E9468
:1024D0004606882379F064EB71E0CE010E94A61BCA
:1024E0000E944E1A60932104709322048093230467
:1024F0009093240466EB71E0CE010E944606882387
:1025000079F066EB71E0CE010E94A61B0E944E1A84
:1025100060931D0470931E0480931F049093200405
:1025200068EB71E0CE010E9446068823A9F068EBB3
:1025300071E0CE010E94A61B0E944E1A25E33AEFDD
:102540004EE85CE30E9408306093190470931A040B
:1025500080931B0490931C0489E194E00E94F9117C
:102560002091A2033091A3034091A4035091A503AD
:102570006091190470911A0480911B0490911C04BD
:102580000E94762D609315047093160480931704AF
:1025900090931804DF91CF9108954F925F926F92BC
:1025A0007F928F929F92AF92BF92CF92DF92EF92E3
:1025B000FF921F93CF93DF93CDB7DEB72C970FB663
:1025C000F894DEBF0FBECDBFE0914203809143037C
:1025D000F0E08823B1F0EE0FFF1FEE0FFF1FE6576C
:1025E000FC4F80819181A281B38122273327A901E9
:1025F000281B390B4A0B5B0B2D833E834F83588777
:1026000011C09F01220F331F220F331F26573C4F4B
:10261000D9018D919D910D90BC91A02D8D839E83AC
:10262000AF83B887E0910F0380911003F0E0882317
:10263000B1F0EE0FFF1FEE0FFF1FE657FC4F80813A
:102640009181A281B38122273327A901281B390B4D
:102650004A0B5B0B29873A874B875C8711C09F0128
:10266000220F331F220F331F26573C4FD9018D9164
:102670009D910D90BC91A02D89879A87AB87BC87CF
:10268000C0908603D0908703EE24D7FCE094FE2C04
:102690008091480390914903A0914A03B0914B0364
:1026A0002D813E814F815885281B390B4A0B5B0BCE
:1026B000A8EEB3E00E942031A70196010E940131EB
:1026C000CA01B9010E94DE2E4B015C018091150305
:1026D00090911603A0911703B091180329853A85AC
:1026E0004B855C85281B390B4A0B5B0BA8EEB3E0CE
:1026F0000E942031A70196010E940131CA01B9014F
:102700000E94DE2E2B013C0120911504309116040D
:1027100040911704509118046091A2037091A30393
:102720008091A4039091A5030E94752D69837A83FB
:102730008B839C8321EE3EE245E652E40E94083002
:102740006B017C0120E030E0A9010E94FD2F1816EA
:102750006CF411E02DEC3CEC4CEC5DE3C701B601F0
:102760000E94FD2F181674F010E00CC02DEC3CEC0C
:102770004CEC5DEBC701B6010E943C2E182F111FD7
:102780001127111FA3019201C501B4010E94762DEA
:1027900020E030E040E05FE30E9408306B017C0104
:1027A00020E030E0A9010E94FD2F18165CF420E023
:1027B00030E040E85FE3C701B6010E94FD2F181624
:1027C00054F00AC020E030E040E85FEBC701B601FA
:1027D0000E943C2E87FD11E08090190490901A040D
:1027E000A0901B04B0901C0420E030E040E05FE3C8
:1027F00069817A818B819C810E9408309B01AC01A8
:10280000C501B4010E94762D2B013C010E946B3062
:102810009B01AC01C701B6010E9408309B01AC01CD
:1028200060912104709122048091230490912404EA
:102830000E94762D609321047093220480932304D8
:1028400090932404C301B2010E94402E9B01AC016D
:10285000C701B6010E9408309B01AC0160911D04C4
:1028600070911E0480911F04909120040E94762D87
:1028700060931D0470931E0480931F0490932004A2
:1028800029813A814B815C81C501B4010E94762D7A
:102890006093190470931A0480931B0490931C0492
:1028A00089E194E00E94F9114091A2035091A303A1
:1028B0006091A4037091A5034093150450931604EE
:1028C00060931704709318042D813E814F815885C1
:1028D000209348033093490340934A0350934B039A
:1028E00089859A85AB85BC858093150390931603E3
:1028F000A0931703B0931803812F2C960FB6F8946A
:10290000DEBF0FBECDBFDF91CF911F91FF90EF9043
:10291000DF90CF90BF90AF909F908F907F906F90FF
:102920005F904F900895CF93DF9300D000D0CDB744
:10293000DEB77A8369831C821B82BE016F5F7F4F83
:102940000E94411B8B819C810F900F900F900F90E4
:10295000DF91CF910895CF92DF92EF92FF920F9384
:102960001F93CF93DF93CDB7DEB7C454D1090FB611
:10297000F894DEBF0FBECDBF8EE292E09A838983CA
:1029800025961FAE1EAE2597CE0101960E94061A0F
:102990008C016AEB71E00E94A61B6CEB71E00E9457
:1029A000771A20E030E04AE754E460912104709106
:1029B000220480912304909124040E94432E6B01F1
:1029C0007C0164EB71E0C8010E94A61B24E0B70102
:1029D000A6010E94831A20E030E04AE754E46091A7
:1029E0001D0470911E0480911F04909120040E9488
:1029F000432E6B017C0166EB71E0C8010E94A61BAF
:102A000024E0B701A6010E94831A21EE3EE245E6CA
:102A100052E46091190470911A0480911B04909102
:102A20001C040E9408306B017C0168EB71E0C80156
:102A30000E94A61B21E0B701A6010E94831A60E054
:102A400075E0C8010E94931480E095E00E94632B1A
:102A5000CC5BDF4F0FB6F894DEBF0FBECDBFDF916A
:102A6000CF911F910F91FF90EF90DF90CF9008953D
:102A7000CF92DF92EF92FF920F931F93CF93DF934A
:102A8000CDB7DEB7C458D1090FB6F894DEBF0FBE7C
:102A9000CDBF84E392E09A838983CD57DF4F1982BB
:102AA0001882C358D040CE0101960E94061A8C01AC
:102AB0006AEB71E00E94A61B61EC71E00E94771A3C
:102AC000C0906A03D0906B03E0906C03F0906D03AC
:102AD0006BEC71E0C8010E94A61B22E0B701A601C1
:102AE0000E94831AC0903703D0903803E0903903D6
:102AF000F0903A036EEC71E0C8010E94A61B22E040
:102B0000B701A6010E94831AC0906E03D0906F0394
:102B1000E0907003F090710361ED71E0C8010E94D4
:102B2000A61B22E0B701A6010E94831AC0903B03B6
:102B3000D0903C03E0903D03F0903E0364ED71E0E3
:102B4000C8010E94A61B22E0B701A6010E94831AB9
:102B5000E091420380914303F0E0EE0FFF1FEE0F80
:102B6000FF1FE657FC4FC080D180E280F3808823AE
:102B700041F0F094E094D094C094C11CD11CE11CAD
:102B8000F11C67ED71E0C8010E94A61BB701A60108
:102B90000E94921AE0910F0380911003F0E0EE0F73
:102BA000FF1FEE0FFF1FE657FC4FC080D180E28071
:102BB000F380882341F0F094E094D094C094C11C39
:102BC000D11CE11CF11C6BED71E0C8010E94A61B39
:102BD000B701A6010E94921A60E075E0C8010E9448
:102BE000931480E095E00E94632BCC57DF4F0FB623
:102BF000F894DEBF0FBECDBFDF91CF911F910F9133
:102C0000FF90EF90DF90CF900895FF920F931F9366
:102C1000CF93DF93CDB7DEB7C454D1090FB6F89484
:102C2000DEBF0FBECDBFF82E2EE232E03A832983FD
:102C300025961FAE1EAE2597CE0101960E94061A5C
:102C40008C016AEB71E00E94A61B6FED71E00E949F
:102C5000771A60914F0170915001C8010E94A61B24
:102C60004F2D50E060E070E00E94921A60E075E045
:102C7000C8010E94931480E095E00E94632BCC5B16
:102C8000DF4F0FB6F894DEBF0FBECDBFDF91CF91FF
:102C90001F910F91FF900895FF920F931F93CF9371
:102CA000DF93CDB7DEB7C454D1090FB6F894DEBFB9
:102CB0000FBECDBFF82E2EE232E03A83298325964F
:102CC0001FAE1EAE2597CE0101960E94061A8C01FA
:102CD0006AEB71E00E94A61B66EE71E00E94771A13
:102CE00060914F0170915001C8010E94A61B4F2DA9
:102CF00050E060E070E00E94921A60E075E0C80168
:102D00000E94931480E095E00E94632BCC5BDF4F20
:102D10000FB6F894DEBF0FBECDBFDF91CF911F91EC
:102D20000F91FF900895EF920F931F9380E090E032
:102D3000A0E8BFE38093BA039093BB03A093BC03C6
:102D4000B093BD031092BE031092BF031092C00354
:102D50001092C1031092C2031092C3031092C403D5
:102D60001092C5031092C6031092C7031092C803B5
:102D70001092C9031092AE031092AF031092B003E9
:102D80001092B1031092B2031092B3031092B403E5
:102D90001092B5031092B6031092B7031092B803C5
:102DA0001092B90382EC91E0909389038093880399
:102DB00083E793E00E949822EE24E39400E010E081
:102DC00020E130E04BE050E065E070E08FE393E01D
:102DD0000E94730DE12C01E010E02FE030E041E1B2
:102DE00050E066E070E08CE093E00E94730D1F916C
:102DF0000F91EF9008950F931F93CF93DF93CDB76B
:102E0000DEB7C458D1090FB6F894DEBF0FBECDBFF0
:102E100080E095E00E942229892B09F44DC080E0D2
:102E200095E00E943B2920910A0330910B038A30E0
:102E300089F5C901019690930B0380930A03F90168
:102E4000E657FD4F108284E392E09A838983CD5741
:102E5000DF4F19821882C358D0404AE06AE872E016
:102E6000CE0101960E94601D8C0161EF71E00E940D
:102E70004606882321F0C8010E94F01006C06CEEBF
:102E800071E080E095E00E94772B10920B03109286
:102E90000A0312C0A9014F5F5F4F50930B03409389
:102EA0000A03F901E657FD4F80834038510520F0B1
:102EB00084E090E00E942711CC57DF4F0FB6F894C2
:102EC000DEBF0FBECDBFDF91CF911F910F9108954F
:102ED0000F931F93CF93DF932091340130913501ED
:102EE00040E050E060910F04709110048091110453
:102EF000909112040E94DF30672B682B692BA1F49C
:102F00000E9470270091850210918602209187020D
:102F100030918802061717072807390728F480918F
:102F20008402882309F4DCC00E94FB1680913E01D4
:102F30008823E9F101E010E020E030E080913601E3
:102F400090913701892B19F000E010E09801409131
:102F50000F045091100460911104709112044023E9
:102F6000512362237323452B462B472B01F180917C
:102F70008902811119C089B182958170C82F30E012
:102F8000D32F80910A0190910B01C817D90779F0CE
:102F9000D0930B01C0930A0183E0809389028C2FA8
:102FA00081700E94051603C0815080938902809130
:102FB0003F018823B1F020913A0130913B0140E07C
:102FC00050E060910F047091100480911104909171
:102FD00012040E94DF30672B682B692B11F40E94CA
:102FE000601020913C0130913D0140E050E0609143
:102FF0000F047091100480911104909112040E94AA
:10300000DF30672B682B692B49F40E94CD1288238F
:1030100029F08091130481110E94AB142091380192
:103020003091390140E050E060910F04709110043C
:1030300080911104909112040E94DF30672B682B5D
:10304000692B81F48DE00E94F92861E0892B09F059
:1030500060E08DE00E94C32880911404882311F061
:103060001D9977C080914001882311F14F9B20C0AA
:1030700083E793E00E94F82280930E0483E793E0B5
:103080000E94532390930B0480930A0420910E0412
:1030900024FD04C08115944009F05EC065EF71E025
:1030A00080E095E00E94772B83E793E00E9418234D
:1030B00080910F0490911004A0911104B09112041A
:1030C0000196A11DB11D80930F0490931004A0934D
:1030D0001104B0931204DF91CF911F910F910895C5
:1030E00011E0109384028FE393E00E94300D8CE096
:1030F00093E00E94300D1092190410921A0410925D
:103100001B0410921C0410921D0410921E041092B5
:103110001F04109220041092210410922204109295
:103120002304109224044091A2035091A3036091C0
:10313000A4037091A5034093150450931604609363
:103140001704709318041093130481E00E944C1626
:10315000EBCE0E94381586CF21FFA6CF40910D04FB
:103160006AEC73E083E793E00E946F234AEC53E03C
:103170006AEB73E083E793E00E94310A4AEB53E085
:103180006EEA73E083E793E00E94A00A2EEA33E040
:103190004AEB53E062EA73E083E793E00E946C0B32
:1031A00083CFCF93DF93EC0188819981DC01ED918E
:1031B000FC910190F081E02D09952A813B81280F37
:1031C000391F3B832A83DF91CF910895DB01ED9175
:1031D000FC9111970190F081E02DBC01CD01099483
:1031E0000F931F93CF93DF938C01F801C281D3819A
:1031F0008881992787FD90950E94C835892B29F0F1
:103200002196F801D383C283F0CFDF91CF911F9134
:103210000F9108950F931F93CF93DF931F92CDB714
:10322000DEB78C0169830E94F018D8011296ED91E7
:10323000FC9113978081698186130AC03196139699
:10324000FC93EE931297C8010E94F01881E001C030
:1032500080E00F90DF91CF911F910F910895FB01B6
:103260002191BF01222379F0DC011296ED91FC91AE
:1032700013973081321307C03196DC011396FC930B
:10328000EE931297ECCF81E0211180E00895BF9278
:10329000CF92DF92EF92FF920F931F93CF93DF9322
:1032A0007C01EB01009771F466E372E0CE01DF91DF
:1032B000CF911F910F91FF90EF90DF90CF90BF9033
:1032C0000C945A2BE881F9810190F081E02D62E2A3
:1032D000CE0109958C01F70161917F01662351F0C0
:1032E000E6E4F2E0B080BB2079F191819617B1F06D
:1032F0003296F8CFE881F9810190F081E02D62E209
:10330000CE010995800F911FDF91CF911F910F91F1
:10331000FF90EF90DF90CF90BF900895E881F98102
:103320000190F081E02D6CE5CE0109956C01E881FA
:10333000F9810190F081E02D6B2DCE0109958C0D66
:103340009D1D080F191FC7CFE881F9810190F081F9
:10335000E02DCE010995F5CFCF93FC01508152327B
:1033600029F0573219F080E090E023C09C012F5FD4
:103370003F4FD901F901CF0101964081442399F3D0
:10338000451791F04C3569F401964181EAE4F2E089
:10339000C081CC2331F0C41302C0418102C03296F7
:1033A000F7CF4D93FC01E7CF1C92FB019183808303
:1033B000C901CF910895DC011296ED91FC9113970C
:1033C000309731F06115710531F4CF0102960895FF
:1033D00085E294E00895615071090190F081E02D3B
:1033E000EFCFCF93DF93EC01BC0184E090E00E942B
:1033F000E618FC01009729F0D183C0831382128262
:1034000002C08FE294E0DF91CF910895CF93DF93D4
:10341000EC01BC0184E090E00E94E618FC010097FA
:1034200029F0D183C0831382128202C08BE294E020
:10343000DF91CF9108950F931F93CF93DF938B016B
:10344000FC01C281D381209759F0B8018A819B8108
:103450000E94FE35892B39F00990D881C02DF3CF19
:1034600080E090E001C0CE01DF91CF911F910F91DC
:1034700008950E941B1A009711F00496089585E2A2
:1034800094E00895FC01208131812530310519F443
:1034900082819381089580E090E00895FC0120816D
:1034A0003181273031052CF06281738184819581CF
:1034B000089560E070E0CB010895FC012081318126
:1034C0002630310529F462817381848195810895C4
:1034D00060E070E0CB010895FC0180819181892B2F
:1034E00029F084E090E09183808362830895FC0159
:1034F00080819181892B31F085E090E091838083F8
:10350000738362830895FC0180819181892B49F046
:1035100030E0295F3F4F31832083428353836483AC
:1035200075830895FC0180819181892B41F086E0AB
:1035300090E09183808342835383648375830895ED
:10354000FC0180819181892B31F082E090E09183B0
:103550008083738362830895FC0180819181892B2C
:1035600031F083E090E091838083738362830895D8
:10357000FC01208131812230310521F48281938147
:103580000C94DB1985E294E00895CF93DF93FC015E
:10359000EB01208131812230310531F48281938128
:1035A000DF91CF910C941B1B2330310531F48281C4
:1035B0009381DF91CF910C94411B2530310539F473
:1035C00068817981828193810E9447192BC02630BE
:1035D000310559F442815381648175812AE030E0DC
:1035E000888199810E94E22B1DC02430310569F445
:1035F0008281882319F06BE372E002C060E472E01C
:10360000888199810E945A2B0DC02730310584F0A2
:10361000275030E04281538164817581888199818E
:103620000E942B2D2A813B81280F391F3B832A833F
:10363000DF91CF9108950F931F93CF93DF93EC0108
:103640008B016BE5C8010E94D1180A80DB81C02D77
:10365000209779F0B801CE0102960E94C51A099010
:10366000D881C02D209729F06CE2C8010E94D118A2
:10367000F1CF6DE5C801DF91CF911F910F910C94AF
:10368000D1180F931F93CF93DF938C01EB016BE75E
:10369000CE010E94D118F801028113810115110594
:1036A00009F168817981F801828193810E9447192B
:1036B0002A813B81280F391F3B832A836AE3CE018D
:1036C0000E94D118BE01C80104960E94C51AF801D3
:1036D000008111810115110529F06CE2CE010E94D3
:1036E000D118DFCF6DE7CE01DF91CF911F910F9100
:1036F0000C94D118FC01608171816115710579F01C
:103700008AE090E00E94E618FC01009741F01182E7
:10371000108281E090E095838483CF01089580E05A
:1037200090E00895DC011296ED91FC91139730978B
:1037300049F080819181009711F0FC01FACF7183EB
:1037400060830895FC01738362830895EF92FF9272
:103750000F931F93CF93DF938C017B010E941B1A61
:10376000EC01009761F4C8010E947A1BEC010097FC
:1037700049F0FB82EA82BC01C8010E94921BCE0183
:10378000049602C085E294E0DF91CF911F910F91E2
:10379000FF90EF900895FC016081718161157105C2
:1037A00079F088E090E00E94E618FC01009741F073
:1037B0001182108281E090E093838283CF0108958B
:1037C00080E090E00895DC011296ED91FC91139752
:1037D000309749F080819181009711F0FC01FACF78
:1037E000718360830895FC017383628308950F934E
:1037F0001F93CF93DF938C010E94CB1BEC010097AA
:1038000039F0BC01C8010E94E31BCE01029602C040
:1038100085E294E0DF91CF911F910F910895EF928F
:10382000FF920F931F93CF93DF93EC0188819981CF
:103830000E94F1197C016BE5CE010E940A198111E9
:1038400003C08FE294E022C06DE5CE010E940A1908
:1038500081111BC0C7010E94F71B8C01BC01CE0166
:103860000E944D1CF801208131812230310548F33E
:103870006DE5CE010E940A19811107C06CE2CE01EC
:103880000E940A198111E6CFDCCFC701DF91CF91E9
:103890001F910F91FF90EF900895EF92FF920F9379
:1038A0001F93CF93DF9300D0CDB7DEB78C017B01A0
:1038B000DC0114968C911497882309F4A3C08150DD
:1038C00014968C93C8010E94F018F80182819381AC
:1038D000DC012C912A337CF420330CF03FC02732DA
:1038E00009F461C024F4223209F45DC065C02D5290
:1038F0002230A0F161C02E3609F442C02CF42B35E1
:1039000081F02636B1F058C0243799F02B3709F0F2
:1039100053C0C8010E940B1DBC01C7010E94AC1A14
:103920004BC0C8010E940F1CBC01C7010E94A01A15
:1039300043C06BE372E0C8010E942F19882311F085
:1039400061E008C060E472E0C8010E942F1988237A
:1039500009F160E0C7010E946C1A2EC04AE050E0F5
:10396000BE016F5F7F4F0E949434AB01BC01E981BF
:10397000FA8180818E3229F18F7D8534D1F521C085
:1039800066E372E0C8010E942F19882319F060E0F5
:1039900070E00FC086E0E5E2F4E0D70101900D92FF
:1039A0008A95E1F709C0B8016E5F7F4F0E94AC199C
:1039B000BC01C7010E94771AF80184818F5F84835C
:1039C00021C0B8016E5F7F4FD80112968D919C91F6
:1039D00013970E943133AB01BC01F801228133817E
:1039E00089819A81281B390B2150C7010E94831AB3
:1039F000E3CFD8011396FC93EE931297C7010E9470
:103A0000921ADACF0F900F90DF91CF911F910F9103
:103A1000FF90EF900895CF92DF92EF92FF920F9375
:103A20001F93CF93DF93EC01888199810E94061A3E
:103A30006C016BE7CE010E940A19811103C08BE271
:103A400094E035C06DE7CE010E940A1981112EC0A5
:103A50007E0182E0E80EF11CB7018A819B810E9401
:103A6000AC198C01009759F36AE3CE010E940A1940
:103A7000882329F3B801C6010E94A61B8C01BC0152
:103A8000CE010E944D1CF801208131812230310588
:103A9000B0F26DE7CE010E940A19811107C06CE2F5
:103AA000CE010E940A198111D7CFC9CFC601DF917B
:103AB000CF911F910F91FF90EF90DF90CF900895DD
:103AC000CF93DF9300D000D01F92CDB7DEB79A839B
:103AD00089837C836B834D83CE0101960E940B1DED
:103AE0000F900F900F900F900F90DF91CF9108954E
:103AF0001092300410922F0410923204109231046C
:103B000010922C0410922B0410922E0410922D046B
:103B1000109226041092250408958091630490E089
:103B200020916404821B910908952091640480917E
:103B30006304281750F4E22FF0E0EB59FB4F80812B
:103B400090E02F5F2093640408958FEF9FEF089516
:103B5000E091640480916304E81730F4F0E0EB59DD
:103B6000FB4F808190E008958FEF9FEF08950895B7
:103B7000CF92DF92EF92FF920F931F93CF93DF9339
:103B80007C01CB018A0120913F04222389F0EB01C3
:103B90006B01C40ED51ECC15DD0569F06991D70106
:103BA000ED91FC910190F081E02DC7010995F3CFD3
:103BB000642F0E94171FC801DF91CF911F910F91B1
:103BC000FF90EF90DF90CF900895CF93DF931F92F7
:103BD000CDB7DEB7698320913F042223D1F0209135
:103BE0004004203240F021E030E0FC0133832283A6
:103BF00080E090E015C080914104E82FF0E0EE5B9A
:103C0000FB4F998190838F5F8093410480934004A0
:103C100005C061E0CE0101960E94171F81E090E08F
:103C20000F90DF91CF910895FC011382128248EE2C
:103C300053E060E070E0448355836683778389E5D1
:103C400092E091838083089510926404109263043B
:103C500010924104109240040C94621E862F41324F
:103C600008F040E265E674E00E94801E1092640451
:103C700080936304089521E00C942E1E81E08093CC
:103C80003F0460936204109241041092400408952E
:103C90000F93062F21E04091400462E474E080918C
:103CA00062040E94C41E10924104109240041092BB
:103CB0003F040F91089561E00C94481E83E394E063
:103CC0000C94141E1092F20481E08093F004109280
:103CD000EF0461E082E10E94C32861E083E10E9479
:103CE000C328E9EBF0E080818E7F808380818D7F27
:103CF000808388E48093B80085E48093BC000895B5
:103D0000413208F03FC09091F2049111FCCF91E054
:103D10009093F2042093F0042FEF209385041092E7
:103D2000CA04240F2093C9049093F1049091F104E4
:103D3000880F892B8093F1048091EF04813041F446
:103D40001092EF048091F1048093BB0085EC01C0D8
:103D500085EE8093BC008091F2048130E1F3809184
:103D6000CA04841710F44091CA042BEC34E0FB0120
:103D7000D9018A2F821B841718F48D918193F9CF72
:103D8000842F089580E008950F93413208F046C0D3
:103D90009091F2049111FCCF92E09093F204009381
:103DA000F0049FEF909385041092CA044093C904D5
:103DB000FB016BEC74E0DB019A2F961B941718F44F
:103DC00091919D93F9CF1092F1049091F104880F95
:103DD000892B8093F1048091EF04813041F410929B
:103DE000EF048091F1048093BB0085EC01C085EE67
:103DF0008093BC00222321F08091F2048230E1F311
:103E0000809185048F3F61F080918504803251F06C
:103E100080918504803341F483E007C081E005C0D0
:103E200080E003C082E001C084E00F910895613218
:103E300098F42091F204243089F46093A704FC01E3
:103E400089EA94E0DC012A2F281B261718F4219117
:103E50002D93F9CF80E0089581E0089582E00895E0
:103E600085ED8093BC008091BC0084FDFCCF109256
:103E7000F204089585EC8093BC001092F20408953A
:103E80001F920F920FB60F9211242F933F934F93CF
:103E90005F936F937F938F939F93AF93BF93EF93B2
:103EA000FF938091B900887F803609F49CC068F543
:103EB000883209F45BC090F4803109F454C038F4BE
:103EC000882309F4F5C0883009F44DC0F5C0883165
:103ED00009F44CC0803209F45DC0EEC0803409F4AE
:103EE00068C048F4803309F455C0883309F0E4C051
:103EF00080938504A8C0803509F44FC0883509F443
:103F00005DC0883409F0D8C0D5C0883909F4C6C06E
:103F1000A8F4883709F467C038F4883609F463C018
:103F2000803709F460C0C8C0883809F4B7C0803948
:103F300009F45FC0803809F0BFC05BC0803B09F462
:103F400085C038F4803A09F466C0883A09F47EC026
:103F5000B3C0803C09F4A6C0883C09F4A3C0883BE8
:103F600009F489C0A9C08091F10410C09091CA04DD
:103F70008091C904981770F5E091CA0481E08E0F12
:103F80008093CA04F0E0E553FB4F80818093BB002F
:103F900085EC85C0809385048DC0E091CA0481E0E2
:103FA0008E0F8093CA048091BB00F0E0E553FB4F75
:103FB00080839091CA048091C9046DC0E091CA04C5
:103FC00081E08E0F8093CA048091BB00F0E0E5533E
:103FD000FB4F80838091F00481116CC081E080935D
:103FE000EF0484EA60C083E08093F20410928604B8
:103FF000CFCF80918604803208F050C0E0918604D3
:1040000081E08E0F809386048091BB00F0E0E95739
:10401000FB4F8083BDCF80918604803230F4E091E5
:104020008604F0E0E957FB4F10820E94301F609138
:10403000860470E0E091EB04F091EC0487E894E0F2
:104040000995109286040E943A1F36C084E080933E
:10405000F2041092A8041092A704E091ED04F091EC
:10406000EE0409958091A704811105C081E0809339
:10407000A7041092A904E091A80481E08E0F809318
:10408000A804F0E0E755FB4F80818093BB0090913E
:10409000A8048091A704981708F47ACF85E8809344
:1040A000BC000AC085EC8093BC001092F20404C0EE
:1040B000109285040E94301FFF91EF91BF91AF9144
:1040C0009F918F917F916F915F914F913F912F9130
:1040D0000F900FBE0F901F901895EF92FF920F93C5
:1040E0001F93CF93DF9300D0CDB7DEB7062F142FE9
:1040F000682F83E394E029833A830E943E1E602F59
:1041000083E394E00E94E51D2981022FE22E3A818B
:10411000F32E8E2D801B811740F4F70161917F01F2
:1041200083E394E00E94E51DF4CF83E394E00E94D2
:104130005B1E91E0811190E0892F0F900F90DF912D
:10414000CF911F910F91FF90EF900895CF93DF9340
:104150001F92CDB7DEB749839E012F5F3F4F41E0ED
:104160000E946D200F90DF91CF910895DF92EF9222
:10417000FF920F931F93CF93DF93C62F042F7901E4
:10418000682F83E394E00E943E1E6C2F83E394E04B
:104190000E94E51D10E0000F111FD12CCD2DD0E0A5
:1041A000C017D1078CF4CC0FDD1FCE0DDF1D698148
:1041B00083E394E00E94E51D688183E394E00E941C
:1041C000E51DD394D394EACF83E394E00E945B1E71
:1041D00091E0811190E0892FDF91CF911F910F9194
:1041E000FF90EF90DF900895CF93DF9300D0CDB78D
:1041F000DEB75A8349839E012F5F3F4F41E00E9403
:10420000B6200F900F90DF91CF9108953F924F927B
:104210005F926F927F928F929F92AF92BF92CF9256
:10422000DF92EF92FF920F931F93CF93DF9300D013
:1042300000D000D0CDB7DEB7682E562E742E3A834C
:1042400029830E9470276B017C01312C412C872D22
:1042500090E09C838B834801A12CB12C3714B0F5DE
:10426000662D83E394E00E943E1E652D83E394E077
:104270000E94E51D83E394E00E945B1E662D83E3AC
:1042800094E00E943E1E4B815C81431951094132EA
:10429000510514F040E250E0662D83E394E00E9463
:1042A0003B1E83E394E00E948D1D892B59F101157B
:1042B000110579F10E9470276C197D098E099F09FB
:1042C000681579058A059B0520F11CC001151105AB
:1042D00089F10E9470276C197D098E099F0920E0E1
:1042E00030E0601771078207930720F1872D90E077
:1042F000242D332727FD309528173907DCF4442473
:104300004A9418C0872D90E2971508F480E2380E81
:10431000A5CFE981FA81E40DF11D47FCFA95FE83F2
:10432000ED8383E394E00E94951DED81FE818083FF
:104330004394B7CF842D26960FB6F894DEBF0FBEF8
:10434000CDBFDF91CF911F910F91FF90EF90DF9044
:10435000CF90BF90AF909F908F907F906F905F9025
:104360004F903F9008950F931F9389019A0141E068
:104370000E9406211F910F910895DF92EF92FF9204
:104380000F931F93CF93DF931F92CDB7DEB7D42E39
:1043900079019801AE014F5F5F4F0E94B32161E048
:1043A00070E001C0660FDA94EAF799819623F7016D
:1043B00090830F90DF91CF911F910F91FF90EF901D
:1043C000DF900895CF92DF92EF92FF920F931F93A9
:1043D000CF93DF931F92CDB7DEB7C42ED22E9701B5
:1043E000AE014F5F5F4F0E94B3218823F1F04C2D47
:1043F00050E04D1951094F5F5F4F61E070E002C01E
:10440000660F771FDA94E2F761507109042E01C03C
:10441000660F0A94EAF72981262330E002C0359519
:1044200027954A95E2F7F80120830F90DF91CF910D
:104430001F910F91FF90EF90DF90CF900895EF9232
:10444000FF920F931F93CF93DF931F92CDB7DEB7E9
:10445000182F062FF42EE22E209151013091520197
:10446000AE014F5F5F4F0E94B321898121E030E0B0
:104470000F2C01C0220F0A94EAF7EE2019F0482F02
:10448000422B03C0422F409548234983602F812F40
:104490000E94A6200F90DF91CF911F910F91FF9066
:1044A000EF900895DF92EF92FF920F931F93CF93B7
:1044B000DF931F92CDB7DEB7F82EE62ED42E122F43
:1044C0002091510130915201AE014F5F5F4F0E9428
:1044D000B321882319F14D2D50E0411B51094F5F45
:1044E0005F4FE1E0F0E002C0EE0FFF1F1A95E2F728
:1044F0003197042E01C0EE0F0A94EAF701C0000FB5
:104500004A95EAF74E2F409589814823E0234E2BA8
:1045100049836E2D8F2D0E94A62001C080E00F9050
:10452000DF91CF911F910F91FF90EF90DF90089551
:1045300028E6FC0120830895462F69E1FC01808173
:104540000C94A6200F93062F23E045E06AE1FC01BE
:1045500080810E9452220F9108950F93062F23E02D
:1045600042E06AE1FC0180810E9452220F9108958D
:104570000F93062F22E044E06BE1FC0180810E9452
:1045800052220F9108950F93062F22E044E06CE130
:10459000FC0180810E9452220F910895462F6FE105
:1045A000FC0180810C94A620462F60E2FC018081F2
:1045B0000C94A620462F61E2FC0180810C94A62079
:1045C000462F62E2FC0180810C94A620643048F4FE
:1045D000262F220F260F2B5D622FFC0180810C9469
:1045E000A6200895462F68E3FC0180810C94A62044
:1045F000CF93DF93EC012091510130915201AC0136
:104600004F5F5F4F6AE388810E94B3218981DF9108
:10461000CF910895262F46E06AE6FC0180810C9434
:104620001F22262F45E06AE6FC0180810C941F22A0
:1046300021E042E06AE6FC0180810C941F2221E027
:1046400041E06AE6FC0180810C941F2221E047E0F2
:104650006BE6FC0180810C941F22262F46E06BE65E
:10466000FC0180810C941F220F93062F23E042E06F
:104670006BE6FC0180810E9452220F910895CF9336
:10468000DF93EC0161E00E94342360E0CE010E94E0
:10469000B82260E0CE010E94C32260E0CE01DF912B
:1046A000CF910C942D230F931F93CF93DF93EC01A5
:1046B00000915101109152019C012F5F3F4F42E048
:1046C00062E788810E940621898190E0982F8827DF
:1046D0002A81822BDF91CF911F910F9108950F9323
:1046E0001F939B01009151011091520164E7FC015D
:1046F00080810E9406211F910F910895EF92FF92F1
:104700000F931F93CF93DF93EC01E0905101F09052
:1047100052018C010F5F1F4F26E046E065E788815C
:104720000E94E2218981DF91CF911F910F91FF902B
:10473000EF9008950E947E2391E0843309F090E089
:10474000892F08950F931F93CF93DF93EC0100916E
:104750005101109152019C012F5F3F4F40E060E0FA
:1047600088810E94BD218981DF91CF911F910F9196
:104770000895262F40E060E0FC0180810C941F2208
:10478000EF92FF920F931F93CF93DF93EC01E09092
:104790005101F09052018C010F5F1F4F26E046E05F
:1047A00060E088810E94E2218981DF91CF911F9191
:1047B0000F91FF90EF9008950F93062F26E046E0AB
:1047C00060E0FC0180810E9452220F910895EF92D7
:1047D000FF920F931F93CF93DF93EC01E090510171
:1047E000F09052018C010F5F1F4F26E046E061E020
:1047F00088810E94E2218981DF91CF911F910F91E1
:10480000FF90EF9008950F93062F26E046E061E0B9
:10481000FC0180810E9452220F910895EF92FF9235
:104820000F931F93CF93DF93EC01E0905101F09031
:1048300052018C010F5F1F4F26E046E062E0888145
:104840000E94E2218981DF91CF911F910F91FF900A
:10485000EF9008950F93062F26E046E062E0FC01FA
:1048600080810E9452220F910895AB0166E0FC0105
:1048700080810C94F420AB0168E0FC0180810C94F1
:10488000F420AB016AE0FC0180810C94F420AB01C0
:1048900063E1FC0180810C94F420AB0165E1FC0133
:1048A00080810C94F420AB0167E1FC0180810C94C1
:1048B000F420262F47E06AE6FC0180810C941F2239
:1048C00021E043E06AE6FC0180810C941F226F71B5
:1048D0002111606241116064462F6DE6FC01808108
:1048E0000C94A620462F6EE6FC0180810C94A62035
:1048F000CF93DF93EC012091510130915201AC0133
:104900004F5F5F4F6FE688810E94B3218981DF91FD
:10491000CF9108955F926F927F928F929F92AF9204
:10492000BF92CF92DF92EF92FF920F931F93CF939C
:10493000DF937C015B016A01622E702E20E040E073
:10494000662D0E946724602FC7010E947224C0E078
:10495000D0E0812C99249394CC15DD05A8F5CE01E7
:104960004096C816D90618F45C2C5C1A02C0A0E167
:104970005A2E252D30E0C40187199109821793071B
:1049800014F4572C5194009151011091520195014A
:104990002C0F3D1F452D6FE6F70180810E940621F7
:1049A000C50DD11D750CCC15DD05B0F6711001C01B
:1049B000639420E040E0662DC7010E946724672DC4
:1049C000C7010E947224C8CFDF91CF911F910F9130
:1049D000FF90EF90DF90CF90BF90AF909F908F901F
:1049E0007F906F905F9008952F923F924F925F92C9
:1049F0006F927F928F929F92AF92BF92CF92DF92EF
:104A0000EF92FF920F931F93CF93DF9300D000D0CC
:104A10001F92CDB7DEB79D838C837B836A834A0167
:104A2000322ED02EE98220E040E0632D0E946724E0
:104A3000602F8C819D810E947224E980EE2029F0F4
:104A400080E190E00E9440315C01CC2031F080E1B7
:104A500090E00E944031582E492EE12CF12CE814B0
:104A6000F90408F07AC0C70140968816990618F430
:104A7000282C2E1802C010E1212E222D30E080E0DB
:104A800091E08D1991098217930714F42D2C21942C
:104A9000EA81FB81EE0DFF1DCC2059F0852DA52D5F
:104AA000B42D9A2F981B921530F494919D933196C2
:104AB000F8CF5E2E4F2E252D342D422D6FE6AC8182
:104AC000BD818C910E946D20622C712CB981BB2319
:104AD00069F1A114B10451F120E040E0632D8C8113
:104AE0009D810E9467246D2D8C819D810E9472247E
:104AF00000915101109152019501422D6FE6EC8118
:104B0000FD8180810E940621A301B501852D942D90
:104B10000E94E835892B51F0C5010E94D831CC2084
:104B200049F1852D942D0E94D83124C0E60CF71C44
:104B3000D20CE814F90408F092CFD11001C03394DC
:104B400020E040E0632D8C819D810E9467246D2DC3
:104B50008C819D810E94722482CFF981FF2319F0FC
:104B6000C5010E94D831CC2039F0852D942D0E94AA
:104B7000D83102C080E001C081E00F900F900F900B
:104B80000F900F90DF91CF911F910F91FF90EF90B9
:104B9000DF90CF90BF90AF909F908F907F906F905D
:104BA0005F904F903F902F900895CF92EF920F9388
:104BB000CC24C3940E94F4240F91EF90CF900895D9
:104BC0002F923F924F925F926F927F928F929F921D
:104BD000AF92BF92CF92DF92EF92FF920F931F930B
:104BE000CF93DF9300D01F92CDB7DEB74C017B830C
:104BF0006A833A01D22E222331F088E090E00E94AD
:104C00004031182FF92E212C312C2614370408F0AE
:104C100051C0EA81FB81E20DF31DC10103965C01E5
:104C2000DD20C1F04491F10131968A819B81E80F2A
:104C3000F91F0491F1013296E80FF91F54905110B9
:104C400044C0F4E02F0E311CEA81FB81EA0DFB1D0C
:104C500084910DC0408101815280EA81FB81E80F7F
:104C6000F91F51100DC084E0280E311C8081813065
:104C7000D1F442E368E3F40180810E94A620C5CF0D
:104C80001E2FFF2E452C512CC12CEE24E394242FF3
:104C9000A201612F7F2DC4010E94F42412012A0C6D
:104CA0003B1C8111B2CFDD2061F0812F9F2D0E942E
:104CB000D83107C0DD2039F0812F9F2D0E94D831D7
:104CC00002C080E024C081E022C0252C312CF2E01B
:104CD000F51548F4B101812F9F2D49830E94673259
:104CE000182FF92E4981812F9F2DA0E0B0E02A8155
:104CF0003B812A0D3B1DA215B30520F6F901EA0FF1
:104D0000FB1F5491FC015193CF011196F4CF0F90EA
:104D10000F900F90DF91CF911F910F91FF90EF9027
:104D2000DF90CF90BF90AF909F908F907F906F90CB
:104D30005F904F903F902F90089521E00C94E025D4
:104D4000462F60E7FC0180810C94A620462F61E786
:104D5000FC0180810C94A6208230E8F4E82FF0E07A
:104D6000EE0FFF1FED50FB4F71836083813041F0E8
:104D7000809169008C7F842B80936900E89A089564
:104D800080916900440F551F440F551F837F842B6A
:104D900080936900E99A08951F920F920FB60F92BF
:104DA00011242F933F934F935F936F937F938F9330
:104DB0009F93AF93BF93EF93FF938091F3049091F0
:104DC000F404892B29F0E091F304F091F40409959F
:104DD000FF91EF91BF91AF919F918F917F916F91D3
:104DE0005F914F913F912F910F900FBE0F901F90A9
:104DF00018951F920F920FB60F9211242F933F9385
:104E00004F935F936F937F938F939F93AF93BF93D2
:104E1000EF93FF938091F5049091F604892B29F08C
:104E2000E091F504F091F6040995FF91EF91BF919F
:104E3000AF919F918F917F916F915F914F913F9132
:104E40002F910F900FBE0F901F9018951F920F92E9
:104E50000FB60F9211242F933F938F939F93AF938D
:104E6000BF938091F8049091F904A091FA04B09155
:104E7000FB043091F70423E0230F2D3720F4019633
:104E8000A11DB11D05C026E8230F0296A11DB11D6D
:104E90002093F7048093F8049093F904A093FA0404
:104EA000B093FB048091FC049091FD04A091FE045A
:104EB000B091FF040196A11DB11D8093FC04909355
:104EC000FD04A093FE04B093FF04BF91AF919F91A6
:104ED0008F913F912F910F900FBE0F901F901895BB
:104EE0002FB7F8946091F8047091F9048091FA0456
:104EF0009091FB042FBF08953FB7F8948091FC0474
:104F00009091FD04A091FE04B091FF0426B5A89BEA
:104F100005C02F3F19F00196A11DB11D3FBF6627A7
:104F2000782F892F9A2F620F711D811D911D42E0EC
:104F3000660F771F881F991F4A95D1F70895CF9262
:104F4000DF92EF92FF92CF93DF936B017C010E947F
:104F50007C27EB01C114D104E104F10489F00E9423
:104F6000742D0E947C276C1B7D0B683E734090F370
:104F700081E0C81AD108E108F108C851DC4FEACF36
:104F8000DF91CF91FF90EF90DF90CF9008957894CC
:104F900084B5826084BD84B5816084BD85B582603E
:104FA00085BD85B5816085BDEEE6F0E080818160DC
:104FB0008083E1E8F0E010828081826080838081DC
:104FC00081608083E0E8F0E0808181608083E1EBB4
:104FD000F0E0808184608083E0EBF0E0808181609C
:104FE0008083EAE7F0E08081846080838081826052
:104FF000808380818160808380818068808310923B
:10500000C10008951F93CF93DF93182FEB0161E048
:105010000E948A28209711F460E004C0CF3FD10598
:1050200039F461E0812FDF91CF911F910C94C32857
:10503000E12FF0E0E45DF64FE491E330F9F048F45D
:10504000E130B9F0E230A1F584B5806284BDC8BD1D
:1050500034C0E730E9F0E83019F1E43049F58091E7
:105060008000806280938000D0938B00C0938A0080
:1050700024C084B5806884BDC7BD1FC080918000F6
:10508000806880938000D0938900C093880015C009
:105090008091B00080688093B000C093B3000DC0D1
:1050A0008091B00080628093B000C093B40005C0CE
:1050B000C038D1050CF0B5CFAFCFDF91CF911F91A4
:1050C0000895833081F028F4813099F08230A1F086
:1050D00008958730A9F08830B9F08430D1F48091F8
:1050E00080008F7D03C0809180008F778093800047
:1050F000089584B58F7702C084B58F7D84BD0895EF
:105100008091B0008F7703C08091B0008F7D809335
:10511000B0000895CF93DF9390E0FC01E05CF64F80
:105120002491FC01EC5AF64F8491882349F190E0D8
:10513000880F991FFC01E458F64FA591B4918E5841
:10514000964FFC01C591D4919FB7611108C0F894A6
:105150008C91209582238C93888182230AC06230AF
:1051600051F4F8948C91322F309583238C9388815D
:10517000822B888304C0F8948C91822B8C939FBFE0
:10518000DF91CF9108950F931F93CF93DF931F92D9
:10519000CDB7DEB7282F30E0F901E45DF64F8491FA
:1051A000F901E05CF64F1491F901EC5AF64F0491C5
:1051B0000023C9F0882321F069830E946128698156
:1051C000E02FF0E0EE0FFF1FEE58F64FA591B491DF
:1051D0009FB7F8948C91611103C01095812301C091
:1051E000812B8C939FBF0F90DF91CF911F910F91D7
:1051F0000895CF93DF93282F30E0F901E45DF64F57
:105200008491F901E05CF64FD491F901EC5AF64F24
:10521000C491CC2391F081110E946128EC2FF0E021
:10522000EE0FFF1FE859F64FA591B4912C912D2355
:1052300081E090E021F480E002C080E090E0DF9126
:10524000CF910895FC01818D228D90E0805C9F4F6D
:10525000821B91098F7399270895FC01918D828D8E
:10526000981731F0828DE80FF11D858D90E008953B
:105270008FEF9FEF0895FC01918D828D981761F05B
:10528000828DDF01A80FB11D5D968C91928D9F5F7D
:105290009F73928F90E008958FEF9FEF08958FEBAB
:1052A0009AE2892B49F080E090E0892B29F00E9456
:1052B000BF2A81110C9400000895FC01848DDF0148
:1052C000A80FB11DA35ABF4F2C91848D90E0019679
:1052D0008F739927848FA689B7892C93A089B18968
:1052E0008C9180648C93938D848D981306C0028872
:1052F000F389E02D80818F7D80830895CF93DF93A4
:10530000EC01888D8823C9F0EA89FB89808185FDBD
:1053100005C0A889B9898C9186FD0FC00FB607FC1E
:10532000F5CF808185FFF2CFA889B9898C9185FF5F
:10533000EDCFCE010E945D29E7CFDF91CF91089597
:10534000CF92DF92FF920F931F93CF93DF931F9221
:10535000CDB7DEB76C01DC015B969C915B975C96E8
:105360008C915C97981307C05096ED91FC915197E2
:10537000808185FD32C0F601038D10E00F5F1F4F65
:105380000F731127F02EF601848DF81211C00FB69D
:1053900007FCF9CFD6015096ED91FC915197808191
:1053A00085FFF1CFC60169830E945D296981EBCF3A
:1053B000838DE80FF11DE35AFF4F6083D6015B96A2
:1053C0000C935B975296ED91FC915397808180628C
:1053D000808381E058968C930DC0D6015696ED914E
:1053E000FC91579760835096ED91FC915197808185
:1053F0008064808381E090E00F90DF91CF911F91D6
:105400000F91FF90DF90CF900895BF92CF92DF92DF
:10541000EF92FF92CF93DF93EC016A017B01B22EF2
:10542000E889F98982E08083411581EE580761059A
:105430007105A1F060E079E08DE390E0A7019601AD
:105440000E94DF3021503109410951095695479595
:1054500037952795211580E1380798F0E889F98973
:10546000108260E874E88EE190E0A70196010E9446
:10547000DF3021503109410951095695479537953B
:105480002795EC85FD853083EE85FF852083188E7A
:10549000EC89FD89B082EA89FB8980818061808303
:1054A000EA89FB89808188608083EA89FB89808121
:1054B00080688083EA89FB8980818F7D8083DF918A
:1054C000CF91FF90EF90DF90CF90BF9008951F9203
:1054D0000F920FB60F9211242F938F939F93EF93F8
:1054E000FF93E0911005F09111058081E091160580
:1054F000F091170582FD12C09081809119058F5F90
:105500008F7320911A05821751F0E0911905F0E090
:10551000E050FB4F958F8093190501C08081FF916A
:10552000EF919F918F912F910F900FBE0F901F9031
:1055300018951F920F920FB60F9211242F933F933D
:105540004F935F936F937F938F939F93AF93BF938B
:10555000EF93FF9380E095E00E945D29FF91EF912A
:10556000BF91AF919F918F917F916F915F914F917B
:105570003F912F910F900FBE0F901F90189580E0D4
:1055800095E00E94222921E0892B09F420E0822F56
:105590000895109203051092020588EE93E0A0E0B2
:1055A000B0E08093040590930505A0930605B093A1
:1055B000070589E692E0909301058093000585EC4C
:1055C00090E090930D0580930C0584EC90E090930F
:1055D0000F0580930E0580EC90E090931105809369
:1055E000100581EC90E0909313058093120582ECF6
:1055F00090E0909315058093140586EC90E09093CD
:105600001705809316051092190510921A0510922D
:105610001B0510921C05089508950E94C7270E943B
:105620000C2B0E944A11CFE4D9E20E946817209700
:10563000E1F30E944F29F9CFCF92DF92EF92FF92D0
:105640000F931F93CF93DF936C017A01EB01E60E6A
:10565000F71E00E010E0CE15DF0561F06991D6017C
:10566000ED91FC910190F081E02DC6010995080FA4
:10567000191FF1CFC801DF91CF911F910F91FF90BA
:10568000EF90DF90CF9008956115710581F0DB01F7
:105690000D900020E9F7AD0141505109461B570B11
:1056A000DC01ED91FC910280F381E02D099480E012
:1056B00090E008950C94442BDC01ED91FC91019055
:1056C000F081E02D09940F931F93CF93DF93EC01AA
:1056D0006DE00E945C2B8C016AE0CE010E945C2B85
:1056E000800F911FDF91CF911F910F9108950F931C
:1056F0001F93CF93DF93EC010E94442B8C01CE01CA
:105700000E94632B800F911FDF91CF911F910F910A
:1057100008958F929F92AF92BF92CF92DF92EF92B5
:10572000FF920F931F93CF93DF93CDB7DEB7A1976F
:105730000FB6F894DEBF0FBECDBF7C01C42EE52F9F
:10574000CB01D22E19A221E02D1510F02AE0D22E85
:105750008E010F5D1F4F8D2C912CA12CB12C6C2D27
:105760007E2FA50194010E94DF308C2DD29E8019DE
:105770001124015011098A3014F4805D01C0895C44
:10578000F8018083211531054105510521F0C22E14
:10579000E32FCA01E4CFB801C7010E94442BA196B0
:1057A0000FB6F894DEBF0FBECDBFDF91CF911F9132
:1057B0000F91FF90EF90DF90CF90BF90AF909F90B0
:1057C0008F900895CF92DF92EF92FF920F931F93E5
:1057D000CF93DF93EC016A017B012115310579F448
:1057E000E881F9810190F081E02D642FDF91CF9164
:1057F0001F910F91FF90EF90DF90CF9009942A3086
:105800003105E9F477FF1AC06DE20E945C2B8C0130
:1058100044275527BA014C195D096E097F092AE012
:10582000CE010E94892B800F911FDF91CF911F9194
:105830000F91FF90EF90DF90CF9008952AE0B7018D
:10584000A601CE01DF91CF911F910F91FF90EF90B4
:10585000DF90CF900C94892B2115310541F4DC01A8
:10586000ED91FC910190F081E02D642F09940C944E
:10587000892B9A01462F50E060E070E00C942C2CAC
:105880004F925F926F927F928F929F92AF92BF9250
:10589000CF92DF92EF92FF920F931F93CF93DF93FC
:1058A000EC016A017B01B22E9A01AB01C701B6017E
:1058B0000E94B630882319F065E772E027C0260100
:1058C0003701E89477F82FEF3FEF4FE75FE7C30129
:1058D000B2010E94B63081110DC02FEF3FEF4FE7AC
:1058E0005FE7C301B2010E943C2E18161CF469E761
:1058F00072E00CC02FEF3FEF4FE75FE4C701B60146
:105900000E94FD2F1816ACF46DE772E0CE01DF9116
:10591000CF911F910F91FF90EF90DF90CF90BF90AC
:10592000AF909F908F907F906F905F904F900C946E
:10593000442B2FEF3FEF4FE75FECC701B6010E940A
:105940003C2E87FDE1CF20E030E0A901C701B60180
:105950000E943C2E87FF0AC06DE2CE010E945C2BA4
:105960008C01F7FAF094F7F8F09402C000E010E030
:10597000A12C60E070E080E09FE3AB1441F020E0F8
:1059800030E040E251E40E94432EA394F6CF9B0105
:10599000AC01C701B6010E94762D6B017C010E940B
:1059A000B02E2B013C010E94DC2E9B01AC01C701F3
:1059B000B6010E94752D6B017C012AE0B301A201A2
:1059C000CE010E94892B080F191FBB2039F061E816
:1059D00072E0CE010E94442B080F191F7B2C772008
:1059E00041F120E030E040E251E4C701B6010E94FD
:1059F00008306B017C010E94AB2E4B01AA2497FC5E
:105A0000A094BA2C2AE030E0B501A401CE010E9496
:105A1000E22B080F191FC501B4010E94DE2E9B0165
:105A2000AC01C701B6010E94752D6B017C017A940F
:105A3000D6CFC801DF91CF911F910F91FF90EF90CA
:105A4000DF90CF90BF90AF909F908F907F906F909E
:105A50005F904F9008950C94402C4F925F926F92FC
:105A60007F92AF92BF92CF92DF92EF92FF920F930D
:105A70001F93CF93DF93CDB7DEB729013A01621BA5
:105A8000730B840B950B29893A894B895C892A19F8
:105A90003B094C095D09298B3A8B4B8B5C8B9B0135
:105AA000AC0169897A898B899C890E94CF30E4187E
:105AB000F50806091709A80197010E9401312A0D6E
:105AC0003B1D4C1D5D1DCA01B901DF91CF911F9196
:105AD0000F91FF90EF90DF90CF90BF90AF907F90AD
