:100000000C944F050C947A220C94A7220C9477053B
:100010000C9477050C9477050C9477050C94770570
:100020000C9477050C9477050C9477050C94770560
:100030000C9477050C9477050C9477050C94770550
:100040000C94D4220C9477050C9415260C94472616
:100050000C9477050C9477050C9477050C94770530
:100060000C94941C0C947705084AD73B3BCE016E48
:1000700084BCBFFDC12F3D6C74319ABD56833DDAFF
:100080003D00C77F11BED9E4BB4C3E916BAAAABE0E
:10009000000000803F05A84CCDB2D44EB93836A937
:1000A000020C50B9918688083CA6AAAA2ABE000074
:1000B00000803F002F2F21204649464F206F766554
:1000C00072666C6F770D0A002F2F21204D71206210
:1000D0007566666572206F76657272756E0D0A00C0
:1000E0005355423A436D642F726F626F74310D0A3B
:1000F0000020290D0A002F2F2120363035302049CD
:100100006E6974206661696C65642028636F64653C
:1001100020002F2F203329203630353020726561A2
:1001200064790D0A002F2F20322920496E6974202E
:100130004932432F363035300D0A002F2F20312918
:10014000204D6F746F72496E6974202E2E2E0D0A29
:10015000002F2F2050696C6F7420563252312E3090
:100160003520286779726F312E31290D0A002F2F23
:100170002120636D6447656F6D002F2F20636D64D0
:1001800054657374310D0A0001B202FFFF0190043F
:100190000923A135016A0206000160080000000081
:1001A0000000000000600440000000016202000046
:1001B00000600400400000037B034CCD6C03AB03E4
:1001C00036567600680402CB47A202180400058B5D
:1001D000C1010C0400000000037F060CC92C979796
:1001E00097038903264666006C0220000240040043
:1001F0000000000244040000000002480400000067
:1002000000024C0400000000025004000000000244
:1002100054040000000002580400000000025C04C6
:100220000000000002BC040000000001EC0400001B
:100230004000037F060CC92C9797970402030D35E5
:100240005D040904872D353D00A301000000000175
:10025000078601FE074105F120283038077E01306E
:100260000746019A074704F1283038076C04F12843
:1002700030380216020001FB00003E000B00360081
:100280000100020003000000650054FFEF0000FAC7
:1002900080000B128200010002000000000000003C
:1002A0000000000000000000280000FFFF4581FF63
:1002B000FFFA7200000000000003E80000000100E7
:1002C000017FFFFFFE8001001B0000000000000016
:1002D00000000000000000003E033040000000026B
:1002E000CAE3093E8000002000000000000000403A
:1002F0000000006000000041FF000000000B2A0029
:1003000000165500002182FD872650FD8000000068
:100310001F00000005800000000000000100000038
:1003200002000000030000400000000000046F0015
:1003300002653200005EC0400000000000000000C6
:1003400000000000000000FB8C6F5DFD5D08D9001F
:100350007C733B006C12CC3200139D3200D0D6323D
:10036000000800400001F4FFE68079020000000070
:1003700000D0D600002710FB000000400000000065
:10038000000000000000000000000100000000006C
:10039000000100010000000000FA36FFBC308E00B2
:1003A00005FBF0FFD95BC8FFD09ABE000010A9FF83
:1003B000F41EB200CEBBF7000000010000000400F4
:1003C0000200020200000CFFC28000000180000059
:1003D000CF8000400000000000000100000000008D
:1003E00000060000000014000000000000000000F3
:1003F00000000000000000000000000000000000FD
:1004000000000000000000000000000000000000EC
:100410000000000000000000000000033F68B67903
:100420003528BCC67ED16C80000000400000000072
:1004300000B26A00000000000000000000000000A0
:10044000003FF0000000300000000000000000004D
:10045000000000000000000000000000000000009C
:10046000000000000000000000254D002F706D000E
:100470000005AE000C02D00000000000650054FF33
:10048000EF00000000000000000100004400000038
:10049000000C0000000100000000000065000000EA
:1004A000540000FFEF00000000000000000000000A
:1004B00000000000000000400000000000000000FC
:1004C00000000000000000400000000000000000EC
:1004D0000000000000000000000001000000020019
:1004E000000000000000000000000000000000000C
:1004F00000000000000000000000000000000000FC
:1005000000000000000000001B00000000000000D0
:1005100000000000000000000000000000000000DB
:1005200000000000000000000000000000000000CB
:1005300000000040000000001B0000000000000060
:1005400000000000000000000000000000000000AB
:10055000000000000000000000000000000000009B
:10056000000000000000000000000000000000008B
:1005700000000000000000D8DCBAA2F1DEB2B8B47E
:10058000A88191F74A907F916AF3F9DBA8F9B0BA94
:10059000A080F2CE81F3C2F1C1F2C3F3CCA2B2804B
:1005A000F1C6D880BAA7DFDFDFF2A7C3CBC5B6F0AC
:1005B00087A2942448703C95406834589B78A2F1F7
:1005C00083922D557DD8B1B4B8A1D09180F270F34B
:1005D00070F27C80A8F101B09887D943D886C98889
:1005E000BAA1F20EB89780F1A9DFDFDFAADFDFDF63
:1005F000F2AAC5CDC7A90CC92C97979797F1A989DD
:10060000264666B0B4BA80ACDEF2CAF1B28C02A95A
:10061000B69800890E161EB8A9B4992C547CB08ADD
:10062000A896365676F1B9AFB4B083C0B8A8971182
:10063000B18F98B9AFF0240844106418F1A329557C
:100640007DAF83B593AFF0002850F1A3869F61A6DC
:10065000DADEDFD9FAA38696DB31A6D9F8DFBAA6AF
:100660008FC2C5C7B28CC1B8A2DFDFDFA3DFDFDF77
:10067000D8D8F1B8A8B286B4980D355DB8AA98B0AC
:10068000872D353DB2B6BAAF8C96198F9FA70E163F
:100690001EB49AB8AA872C547CB9A3DEDFDFA3B1BD
:1006A00080F2C4CDC9F1B8A9B499830D355D89B97B
:1006B000A32D557DB593A30E161EA92C547CB8B45A
:1006C000B0F19783A81184A50998A383F0DA2408D0
:1006D00044106418D8F1A529557DA58595021A2ED8
:1006E0003A565A4048F9F3A3D9F8F09883240844BD
:1006F0001064189782A8F111F098A224084410649D
:1007000018DAF3DED883A59401D9A302F1A2C3C5F8
:10071000C7D8F18492A24DDA2AD84869D92AD86874
:1007200055DA32D85071D932D8705DDA3AD8587962
:10073000D93AD87893A34DDA2AD84869D92AD86803
:1007400055DA32D85071D932D8705DDA3AD8587942
:10075000D93AD878A88A9AF02850789EF38818F168
:100760009F1D98A8D908D8C89F129EF315A8DA1221
:1007700010D8F1AFC8978734B5B994A421F3D92222
:10078000D8F22DF3D92AD8F235F3D932D881A46022
:100790006061D961D86C6869D969D8747071D97190
:1007A000D8B1A384193D5DA3831A3E5E93103081B6
:1007B0001011B8B0AF8F94F2DA3ED8B49AA8872956
:1007C000DAF8D8879A35DAF8D8879A3DDAF8D8B1C6
:1007D000B9A49885022E56A581000C14A397B08A5F
:1007E000F12DD928D84DD948D86DD968D8B1840D04
:1007F000DA0ED8A32983DA2C0ED8A3844983DA2C05
:100800004C0ED8B8B0A88A9AF520AADADFD8A8404A
:10081000AAD0DADED8A860AADAD0DFD8F19786A805
:10082000319B069907AB9728889BF00C201440B8A1
:10083000B0B4A88C9CF0042851791D301438B282D1
:10084000ABD0982C505078789BF11AB0F08A9CA8C5
:100850002951798B2951798A2470598B2058718AB2
:100860004469388B3940688A6448318B304960A5C7
:1008700088200971584468113964493019F1AC0075
:100880002C547CF08CA804285078F1889726A8591D
:1008900098AC8C02264666F0899CA8295179247070
:1008A00059446938644831A98809205970AB113816
:1008B0004069A8193148608CA83C415C207C00F15B
:1008C00087981986A86E767EA999882D557D9EB940
:1008D000A38A228A6E8A568A5E9FB183062646665E
:1008E0000E2E4E6E9DB8AD002C547CF2B18CB49996
:1008F000B9A32D557D8191AC38AD3AB58391AC2D1E
:10090000D928D84DD948D86DD968D88C9DAE29D969
:1009100004AED851D904AED879D904D881F39DADAD
:10092000008DAE1981ADD901D8F2AEDA26D88E91FC
:100930002983A7D9ADADADADF32AD8D8F1B0AC8934
:10094000913E5E76F3AC2E2EF1B18C5A9CAC2C28E5
:1009500028289CAC3018A8988128343C9724A728D4
:10096000343C9C24F2B089AC912C4C6C8A9B2DD9E0
:10097000D8D851D9D8D879D9D8D8F19E88A331DA26
:10098000D8D8912DD928D84DD948D86DD968D8B1A3
:100990008393353D8025DAD8D88569DAD8D8B493E1
:1009A00081A328343CF3AB8BF8A391B609B4D9AB3F
:1009B000DEFAB0879CB9A3DDF1A3A3A3A395F1A3AD
:1009C000A3A39DF1A3A3A3A3F2A3B49080F2A3A336
:1009D000A3A3A3A3A3A3A3A3B2A3A3A3A3A3A3B0CB
:1009E00087B599F1A3A3A398F1A3A3A3A397A3A366
:1009F000A3A3F39BA3A3DCB9A7F1262626D8D8FF8F
:100A000000000008000201000003040700000000CD
:100A100000000000010204081020408001020408C8
:100A20001020010204081020040404040404040437
:100A30000202020202020303030303030000000098
:100A400023002600290000000000250028002B00BC
:100A500000000000240027002A004E414E494E4964
:100A60005459494E46CDCCCC3D0AD7233C17B7D17B
:100A70003877CC2B329595E6241FB14F0A00002021
:100A8000410000C84200401C4620BCBE4CCA1B0EA0
:100A90005AAEC59D7400C118B21B45227726112499
:100AA0001FBECFEFD8E0DEBFCDBF12E0A0E0B1E0C7
:100AB000EEE7FAE602C005900D92A637B107D9F726
:100AC00026E0A6E7B2E001C01D92AD30B207E1F723
:100AD0001AE0CEE9DAE004C02297FE010E94792DE7
:100AE000C639D107C9F70E94BB260C943D350C943A
:100AF0000000EF92FF920F931F93CF93DF9300D0EC
:100B0000CDB7DEB7062F142F682F8FE894E0298326
:100B10003A830E94921B602F8FE894E00E94391B59
:100B20002981022FE22E3A81F32E8E2D801B811710
:100B300040F4F70161917F018FE894E00E94391B36
:100B4000F4CF8FE894E00E94AF1B91E0811190E018
:100B5000892F0F900F90DF91CF911F910F91FF90F0
:100B6000EF900895CF93DF931F92CDB7DEB74983FF
:100B70009E012F5F3F4F41E00E9479050F90DF916A
:100B8000CF910895DF92EF92FF920F931F93CF932F
:100B9000DF93C62F042F7901682F8FE894E00E941D
:100BA000921B6C2F8FE894E00E94391B10E0000F1D
:100BB000111FD12CCD2DD0E0C017D1078CF4CC0F54
:100BC000DD1FCE0DDF1D69818FE894E00E94391B87
:100BD00068818FE894E00E94391BD394D394EACFC4
:100BE0008FE894E00E94AF1B91E0811190E0892F83
:100BF000DF91CF911F910F91FF90EF90DF900895BB
:100C0000CF93DF9300D0CDB7DEB75A8349839E01DF
:100C10002F5F3F4F41E00E94C2050F900F90DF9180
:100C2000CF9108953F924F925F926F927F928F92F1
:100C30009F92AF92BF92CF92DF92EF92FF920F936B
:100C40001F93CF93DF9300D000D000D0CDB7DEB795
:100C5000682E562E742E3A8329830E941E236B0120
:100C60007C01312C412C872D90E09C838B834801A3
:100C7000A12CB12C3714B0F5662D8FE894E00E94BA
:100C8000921B652D8FE894E00E94391B8FE894E059
:100C90000E94AF1B662D8FE894E00E94921B4B814F
:100CA0005C81431951094132510514F040E250E092
:100CB000662D8FE894E00E948F1B8FE894E00E94DD
:100CC000E11A892B59F10115110579F10E941E23B2
:100CD0006C197D098E099F09681579058A059B05A0
:100CE00020F11CC00115110589F10E941E236C1909
:100CF0007D098E099F0920E030E0601771078207A7
:100D0000930720F1872D90E0242D332727FD309580
:100D100028173907DCF444244A9418C0872D90E240
:100D2000971508F480E2380EA5CFE981FA81E40D29
:100D3000F11D47FCFA95FE83ED838FE894E00E9455
:100D4000E91AED81FE8180834394B7CF842D2696E6
:100D50000FB6F894DEBF0FBECDBFDF91CF911F91CC
:100D60000F91FF90EF90DF90CF90BF90AF909F904A
:100D70008F907F906F905F904F903F9008950F936A
:100D80001F9389019A0141E00E9412061F910F9161
:100D90000895DF92EF92FF920F931F93CF93DF930B
:100DA0001F92CDB7DEB7D42E79019801AE014F5F07
:100DB0005F4F0E94BF0661E070E001C0660FDA94E9
:100DC000EAF799819623F70190830F90DF91CF91F5
:100DD0001F910F91FF90EF90DF900895CF92DF92D7
:100DE000EF92FF920F931F93CF93DF931F92CDB794
:100DF000DEB7C42ED22E9701AE014F5F5F4F0E9427
:100E0000BF068823F1F04C2D50E04D1951094F5F7A
:100E10005F4F61E070E002C0660F771FDA94E2F77F
:100E200061507109042E01C0660F0A94EAF7298106
:100E3000262330E002C0359527954A95E2F7F80160
:100E400020830F90DF91CF911F910F91FF90EF9032
:100E5000DF90CF900895EF92FF920F931F93CF935F
:100E6000DF931F92CDB7DEB7182F062FF42EE22E98
:100E700020910A0130910B01AE014F5F5F4F0E943C
:100E8000BF06898121E030E00F2C01C0220F0A94B7
:100E9000EAF7EE2019F0482F422B03C0422F40956D
:100EA00048234983602F812F0E94B2050F90DF9164
:100EB000CF911F910F91FF90EF900895DF92EF92E5
:100EC000FF920F931F93CF93DF931F92CDB7DEB79F
:100ED000F82EE62ED42E122F20910A0130910B010C
:100EE000AE014F5F5F4F0E94BF06882319F14D2D61
:100EF00050E0411B51094F5F5F4FE1E0F0E002C05D
:100F0000EE0FFF1F1A95E2F73197042E01C0EE0F86
:100F10000A94EAF701C0000F4A95EAF74E2F409570
:100F200089814823E0234E2B49836E2D8F2D0E940B
:100F3000B20501C080E00F90DF91CF911F910F911A
:100F4000FF90EF90DF90089528E6FC01208308953C
:100F5000462F69E1FC0180810C94B2050F93062FA6
:100F600023E045E06AE1FC0180810E945E070F9169
:100F700008950F93062F23E042E06AE1FC0180818F
:100F80000E945E070F9108950F93062F22E044E020
:100F90006BE1FC0180810E945E070F9108950F9321
:100FA000062F22E044E06CE1FC0180810E945E0794
:100FB0000F910895462F6FE1FC0180810C94B205DA
:100FC000462F60E2FC0180810C94B205462F61E25D
:100FD000FC0180810C94B205462F62E2FC01808105
:100FE0000C94B205643048F4262F220F260F2B5D97
:100FF000622FFC0180810C94B2050895462F68E3AE
:10100000FC0180810C94B205CF93DF93EC01209119
:101010000A0130910B01AC014F5F5F4F6AE3888199
:101020000E94BF068981DF91CF910895262F46E067
:101030006AE6FC0180810C942B07262F45E06AE6C6
:10104000FC0180810C942B0721E042E06AE6FC0160
:1010500080810C942B0721E041E06AE6FC0180814D
:101060000C942B0721E047E06BE6FC0180810C9497
:101070002B07262F46E06BE6FC0180810C942B07A2
:101080000F93062F23E042E06BE6FC0180810E9473
:101090005E070F910895CF93DF93EC0161E00E940A
:1010A000400860E0CE010E94C40760E0CE010E94CB
:1010B000CF0760E0CE01DF91CF910C9439080F93F8
:1010C0001F93CF93DF93EC0100910A0110910B0164
:1010D0009C012F5F3F4F42E062E788810E94120629
:1010E000898190E0982F88272A81822BDF91CF91E8
:1010F0001F910F9108950F931F939B0100910A0177
:1011000010910B0164E7FC0180810E9412061F917F
:101110000F910895EF92FF920F931F93CF93DF9358
:10112000EC01E0900A01F0900B018C010F5F1F4F62
:1011300026E046E065E788810E94EE068981DF911E
:10114000CF911F910F91FF90EF9008950E948A0810
:1011500091E0843309F090E0892F08950F931F9355
:10116000CF93DF93EC0100910A0110910B019C01D8
:101170002F5F3F4F40E060E088810E94C90689816F
:10118000DF91CF911F910F910895262F40E060E0ED
:10119000FC0180810C942B07EF92FF920F931F9319
:1011A000CF93DF93EC01E0900A01F0900B018C01EA
:1011B0000F5F1F4F26E046E060E088810E94EE0648
:1011C0008981DF91CF911F910F91FF90EF9008954A
:1011D0000F93062F26E046E060E0FC0180810E942C
:1011E0005E070F910895EF92FF920F931F93CF9395
:1011F000DF93EC01E0900A01F0900B018C010F5F8E
:101200001F4F26E046E061E088810E94EE0689815A
:10121000DF91CF911F910F91FF90EF9008950F9361
:10122000062F26E046E061E0FC0180810E945E0717
:101230000F910895EF92FF920F931F93CF93DF9337
:10124000EC01E0900A01F0900B018C010F5F1F4F41
:1012500026E046E062E088810E94EE068981DF9107
:10126000CF911F910F91FF90EF9008950F93062F4C
:1012700026E046E062E0FC0180810E945E070F915B
:101280000895AB016AE0FC0180810C940006AB017B
:1012900063E1FC0180810C940006AB0165E1FC0177
:1012A00080810C940006AB0167E1FC0180810C9405
:1012B0000006262F47E06AE6FC0180810C942B078C
:1012C00021E043E06AE6FC0180810C942B076F71FA
:1012D0002111606241116064462F6DE6FC0180813E
:1012E0000C94B205462F6EE6FC0180810C94B20589
:1012F000CF93DF93EC0120910A0130910B01AC01F7
:101300004F5F5F4F6FE688810E94BF068981DF9142
:10131000CF9108955F926F927F928F929F92AF923A
:10132000BF92CF92DF92EF92FF920F931F93CF93D2
:10133000DF937C015B016A01622E702E20E040E0A9
:10134000662D0E946709602FC7010E947209C0E0E4
:10135000D0E0812C99249394CC15DD05A8F5CE011D
:101360004096C816D90618F45C2C5C1A02C0A0E19D
:101370005A2E252D30E0C401871991098217930751
:1013800014F4572C519400910A0110910B0195010E
:101390002C0F3D1F452D6FE6F70180810E9412063C
:1013A000C50DD11D750CCC15DD05B0F6711001C051
:1013B000639420E040E0662DC7010E946709672D15
:1013C000C7010E947209C8CFDF91CF911F910F9181
:1013D000FF90EF90DF90CF90BF90AF909F908F9055
:1013E0007F906F905F9008952F923F924F925F92FF
:1013F0006F927F928F929F92AF92BF92CF92DF9225
:10140000EF92FF920F931F93CF93DF9300D000D002
:101410001F92CDB7DEB79D838C837B836A834A019D
:10142000322ED02EE98220E040E0632D0E94670931
:10143000602F8C819D810E947209E980EE2029F045
:1014400080E190E00E948C2D5C01CC2031F080E1A5
:1014500090E00E948C2D582E492EE12CF12CE8149E
:10146000F90408F07AC0C70140968816990618F466
:10147000282C2E1802C010E1212E222D30E080E011
:1014800091E08D1991098217930714F42D2C219462
:10149000EA81FB81EE0DFF1DCC2059F0852DA52D95
:1014A000B42D9A2F981B921530F494919D933196F8
:1014B000F8CF5E2E4F2E252D342D422D6FE6AC81B8
:1014C000BD818C910E947905622C712CB981BB235E
:1014D00069F1A114B10451F120E040E0632D8C8149
:1014E0009D810E9467096D2D8C819D810E947209EA
:1014F00000910A0110910B019501422D6FE6EC81DC
:10150000FD8180810E941206A301B501852D942DD5
:101510000E943432892B51F0C5010E94242ECC2028
:1015200049F1852D942D0E94242E24C0E60CF71C31
:10153000D20CE814F90408F092CFD11001C0339412
:1015400020E040E0632D8C819D810E9467096D2D14
:101550008C819D810E94720982CFF981FF2319F04D
:10156000C5010E94242ECC2039F0852D942D0E9497
:10157000242E02C080E001C081E00F900F900F90F8
:101580000F900F90DF91CF911F910F91FF90EF90EF
:10159000DF90CF90BF90AF909F908F907F906F9093
:1015A0005F904F903F902F900895CF92EF920F93BE
:1015B000CC24C3940E94F4090F91EF90CF9008952A
:1015C0002F923F924F925F926F927F928F929F9253
:1015D000AF92BF92CF92DF92EF92FF920F931F9341
:1015E000CF93DF9300D01F92CDB7DEB74C017B8342
:1015F0006A833A01D22E222331F088E090E00E94E3
:101600008C2D182FF92E212C312C2614370408F09C
:1016100051C0EA81FB81E20DF31DC10103965C011B
:10162000DD20C1F04491F10131968A819B81E80F60
:10163000F91F0491F1013296E80FF91F54905110EF
:1016400044C0F4E02F0E311CEA81FB81EA0DFB1D42
:1016500084910DC0408101815280EA81FB81E80FB5
:10166000F91F51100DC084E0280E311C808181309B
:10167000D1F442E368E3F40180810E94B205C5CF52
:101680001E2FFF2E452C512CC12CEE24E394242F29
:10169000A201612F7F2DC4010E94F40912012A0CBE
:1016A0003B1C8111B2CFDD2061F0812F9F2D0E9464
:1016B000242E07C0DD2039F0812F9F2D0E94242E7B
:1016C00002C080E024C081E022C0252C312CF2E051
:1016D000F51548F4B101812F9F2D49830E94B32E47
:1016E000182FF92E4981812F9F2DA0E0B0E02A818B
:1016F0003B812A0D3B1DA215B30520F6F901EA0F27
:10170000FB1F5491FC015193CF011196F4CF0F9020
:101710000F900F90DF91CF911F910F91FF90EF905D
:10172000DF90CF90BF90AF909F908F907F906F9001
:101730005F904F903F902F90089521E00C94E00A25
:10174000462F60E7FC0180810C94B205462F61E7CB
:10175000FC0180810C94B2051F920F920FB60F927C
:1017600011242F938F939F93AF93BF9323B1822F15
:10177000817090E04A9B03C0892B19F00EC0892B21
:1017800061F08091F4039091F503A091F603B0917C
:10179000F7030197A109B1090BC08091F40390915F
:1017A000F503A091F603B091F7030196A11DB11DB9
:1017B0008093F4039093F503A093F603B093F7039B
:1017C000BF91AF919F918F912F910F900FBE0F906E
:1017D0001F9018951F920F920FB60F9211242F93FE
:1017E0008F939F93AF93BF9323B121FB882780F9F9
:1017F00090E04B9B03C0892B19F00EC0892B61F040
:101800008091F8039091F903A091FA03B091FB0342
:101810000197A109B1090BC08091F8039091F903D8
:10182000A091FA03B091FB030196A11DB11D809315
:10183000F8039093F903A093FA03B093FB03BF91CD
:10184000AF919F918F912F910F900FBE0F901F908E
:10185000189580E0089581E008959C01FC01EE5FF9
:10186000FE4F80819181680F791F613041E07407DC
:1018700030F4718360830296820F931F089580E095
:1018800090E008959C01FC01EE57FF4F808191810B
:10189000680F791F6138710530F471836083029697
:1018A000820F931F089580E090E008959C01FC0151
:1018B000EE5BFF4F80819181680F791F6134710564
:1018C00030F4718360830296820F931F089580E045
:1018D00090E008956AE771E08AE695E00E940827A3
:1018E00081E008956EE671E08AE695E00E9408279F
:1018F00080E0089565E571E00E9473200E94371F23
:1019000060934A0181E008956BE571E00E947320C5
:101910000E94371F80E008956BE571E00E947320FC
:101920000E94371F80E008956BE571E00E947320EC
:101930000E94371F80E0089565E571E00E947320E2
:101940000E94371F21E06130710509F020E02093EB
:10195000500181E00895CF93DF93EC0161E671E0DF
:101960000E9473200E94281F609304047093050452
:10197000809306049093070463E671E0CE010E9411
:1019800073200E94281F60930004709301048093C9
:1019900002049093030465E671E0CE010E94732077
:1019A0000E94281F6093FC037093FD038093FE0345
:1019B0009093FF0381E0DF91CF91089565E571E099
:1019C0000E9473200E94371F21E06130710509F0E9
:1019D00020E020935101622F8CE00E94712481E06D
:1019E00008950E94131FFC0181E020813181223083
:1019F000310508F480E00895CF93DF93EC0165E5AD
:101A000071E00E9473200E94371F21E06130710550
:101A100009F020E020937E0467E671E0CE010E9489
:101A2000F10C882359F067E671E0CE010E94732023
:101A30000E94371F70934C0160934B0181E0DF914E
:101A4000CF910895CF93DF93EC0165E571E00E949B
:101A500073200E94371F21E06130710509F020E0FA
:101A600020934F0167E671E0CE010E94F10C8823BC
:101A700059F067E671E0CE010E9473200E94371F83
:101A800070934E0160934D0181E0DF91CF910895F5
:101A90008F929F92AF92BF92CF92EF920F931F932C
:101AA000CF93DF93CDB7DEB7C059D1090FB6F89405
:101AB000DEBF0FBECDBF5C010E9432086EE170E058
:101AC00080E090E00E944D2360E0C5010E9439084B
:101AD00021E041E060E1C5010E94670966E0C501BF
:101AE0000E947209C5010E94780920E040E060E090
:101AF000C5010E946709C5010E94AE08C5010E9488
:101B0000CC08182FC5010E94F308882EC5010E9439
:101B10001A09982E4FE760E0C5010E94F20760E0C5
:101B2000C5010E941D0848E660E0C5010E94F20759
:101B3000C5010E942B0864E170E080E090E00E9403
:101B40004D23EE24E39400E020E049E857E067E706
:101B500072E0C5010E94D50A882309F40EC240EC48
:101B600050E067EB71E0C5010E949D0B882309F4EA
:101B700006C263E0C5010E94400862E1C5010E94FF
:101B8000FE0764E0C5010E94A80761E0C5010E944C
:101B9000AE0763E0C5010E94B90763E0C5010E947A
:101BA000C40763E0C5010E94A00B60E0C5010E946C
:101BB000A60B60E0C5010E94C508612FC5010E9407
:101BC000E808682DC5010E940F09692DC5010E9412
:101BD0003609812C912CF401E857FE4FE491A1E8DD
:101BE000B0E0AC0FBD1FA80DB11DEC9381E0880DD6
:101BF0009FEF891A990AE3E0E81568F7CD57DF4FA0
:101C00004881C358D04050E09A012E5F3F4F90E08A
:101C10002817390704F7C12CEE24E394CE57DF4F81
:101C20000881C258D040CF57DF4F2881C158D040DB
:101C300061E870E06C0F7D1F6D5F7F4FC5010E94F2
:101C4000F40960E0F401E857FE4FE491A1E8B0E048
:101C5000AC0FBD1FA60FB11DEC936F5FFFEF8F1A86
:101C60009F0A643078F3CD57DF4F4881C358D04086
:101C700050E09A012E5F3F4F862F90E028173907DA
:101C80000CF7C12CEE24E394CE57DF4F0881C258E5
:101C9000D040CF57DF4F2881C158D04061E870E075
:101CA0006C0F7D1F6D5F7F4FC5010E94F409C50158
:101CB0000E942408C5010E945F08482FBE016F5F83
:101CC0007F4FC5010E947B0862E0C5010E94DA07D0
:101CD0006CE9C5010E94E60760E5C5010E94E007C6
:101CE00060E0C5010E94EC07C5010E94240861E084
:101CF000C5010E94160861E0C5010E945909C5018D
:101D00000E94600960E0F401E857FE4FE491A1E809
:101D1000B0E0AC0FBD1FA60FB11DEC936F5F8FEF4E
:101D2000881A980A643078F3CD57DF4F4881C3583A
:101D3000D04050E09A012E5F3F4F862F90E0281749
:101D400039070CF7C12CEE24E394CE57DF4F0881FE
:101D5000C258D040CF57DF4F2881C158D04061E8EA
:101D600070E06C0F7D1F6D5F7F4FC5010E94F4090D
:101D700060E0F401E857FE4FE491A1E8B0E0AC0F59
:101D8000BD1FA60FB11DEC936F5F9FEF891A990AD3
:101D9000643078F3CD57DF4F4881C358D04050E0CE
:101DA0009A012E5F3F4F862F90E0281739070CF7D6
:101DB000C12CEE24E394CE57DF4F0881C258D040A7
:101DC000CF57DF4F2881C158D04061E870E06C0FD9
:101DD0007D1F6D5F7F4FC5010E94F40960E0F40133
:101DE000E857FE4FE491A1E8B0E0AC0FBD1FA60F8D
:101DF000B11DEC936F5FEFEF8E1A9E0A643078F39B
:101E0000CD57DF4F4881C358D04050E09A012E5F34
:101E10003F4F862F90E0281739070CF7C12CEE248E
:101E2000E394CE57DF4F0881C258D040CF57DF4FE1
:101E30002881C158D04061E870E06C0F7D1F6D5F54
:101E40007F4FC5010E94F409C5010E945F088330DD
:101E50009105D0F3482FBE016F5F7F4FC5010E94EF
:101E60007B08C5010E94040860E0F401E857FE4FBA
:101E7000E491A1E8B0E0AC0FBD1FA60FB11DEC933B
:101E80006F5FFFEF8F1A9F0A643078F3CD57DF4FF3
:101E90004881C358D04050E09A012E5F3F4F862FB3
:101EA00090E0281739070CF7CE57DF4F0881C2584A
:101EB000D040CF57DF4F2881C158D04061E870E053
:101EC0006C0F7D1F6D5F7F4FC5010E948A09C501A0
:101ED0000E945F0883309105D0F3482FBE016F5FE9
:101EE0007F4FC5010E947B08C5010E940408F401D0
:101EF000E857FE4F60E08491A1E8B0E0AC0FBD1F51
:101F0000A60FB11D8C936F5F643010F43196F3CF40
:101F1000CD57DF4F4881C358D04050E09A012E5F23
:101F20003F4F862F90E02817390784F761E870E06B
:101F30006C0F7D1F6D5F7F4FC12CEE24E394CE5755
:101F4000DF4F0881C258D040CF57DF4F2881C1589A
:101F5000D040C5010E94F40960E0C5010E94590902
:101F60008AE290E0F50193838283C5010E942408F0
:101F7000C5010E94040880E003C081E001C082E046
:101F8000C057DF4F0FB6F894DEBF0FBECDBFDF9155
:101F9000CF911F910F91EF90CF90BF90AF909F90F6
:101FA0008F900895CF93DF93DB01FA01309719F4F6
:101FB000EC01E881F981808190E0982F88272181C8
:101FC000820F911D11969C938E93848190E0982F9F
:101FD00088272581820F911D13969C938E931297CB
:101FE000808590E0982F88272185820F911D159676
:101FF0009C938E931497848590E0982F882725854D
:10200000820F911D17969C938E93169780E0DF9117
:10201000CF910895FF920F931F93CF93DF93CDB786
:10202000DEB728970FB6F894DEBF0FBECDBF8B0189
:10203000BE016F5F7F4F0E94D20FF82E81114CC0FE
:1020400069817A81882777FD8095982F0E948B2A55
:1020500020E030E040E858E30E94B52BF8016083AF
:102060007183828393836B817C81882777FD809540
:10207000982F0E948B2A20E030E040E858E30E942D
:10208000B52BF80164837583868397836D817E8188
:10209000882777FD8095982F0E948B2A20E030E0DA
:1020A00040E858E30E94B52BF8016087718782876A
:1020B00093876F817885882777FD8095982F0E9478
:1020C0008B2A20E030E040E858E30E94B52BF8016D
:1020D00064877587868797878F2D28960FB6F89423
:1020E000DEBF0FBECDBFDF91CF911F910F91FF904B
:1020F00008954F925F926F927F928F929F92AF92CC
:10210000BF92CF92DF92EF92FF920F931F93CF93E4
:10211000DF93CDB7DEB728970FB6F894DEBF0FBEBA
:10212000CDBF8B01DA011496CD90DD90ED90FC903F
:1021300017971C964D905D906D907C901F978D9099
:102140009D90AD90BC90139718968D919D910D9098
:10215000BC91A02D89839A83AB83BC83A301920198
:10216000C701B6010E94B52B6D837E838F8398874C
:1021700029813A814B815C81C501B4010E94B52B54
:102180009B01AC016D817E818F8198850E942229FF
:102190009B01AC010E942329F80160837183828333
:1021A0009383A7019601C501B4010E94B52B6D83ED
:1021B0007E838F839887A301920169817A818B81C5
:1021C0009C810E94B52B9B01AC016D817E818F812A
:1021D00098850E9423299B01AC010E942329D801E4
:1021E00014966D937D938D939C931797A5019401FD
:1021F000C501B4010E94B52B4B015C01A7019601FA
:10220000C701B6010E94B52B9B01AC01C501B40109
:102210000E9422296B017C0129813A814B815C81DA
:10222000CA01B9010E94B52B9B01AC01C701B601DF
:102230000E9422296B017C01A3019201C301B2011A
:102240000E94B52B9B01AC01C701B6010E94232956
:10225000F801608771878287938780E028960FB6A0
:10226000F894DEBF0FBECDBFDF91CF911F910F91CC
:10227000FF90EF90DF90CF90BF90AF909F908F90A6
:102280007F906F905F904F9008952F923F924F9262
:102290005F926F927F928F929F92AF92BF92CF92F6
:1022A000DF92EF92FF920F931F93CF93DF9300D0B3
:1022B00000D000D0CDB7DEB71B018A013E832D834D
:1022C000FA01C080D180E280F380A7019601C701A6
:1022D000B6010E94232969837A838B839C83F8014A
:1022E00084809580A680B780A5019401C501B401C2
:1022F0000E9423292B013C01A701960169817A8163
:102300008B819C810E94B52B6B017C01A5019401FE
:10231000C301B2010E94B52B9B01AC01C701B601FC
:102320000E94232920E030E040E85FE30E94222958
:102330006B017C01F8012085318542855385C301FD
:10234000B2010E94B52B2B013C01F8012485358593
:102350004685578569817A818B819C810E94B52B46
:102360009B01AC01C301B2010E942229A701960181
:102370000E949629F1016083718382839383ED81AA
:10238000FE816481758186819781C084D184E284D5
:10239000F3849B01AC010E94B52B4B015C01A701AA
:1023A0009601C701B6010E94B52B9B01AC01C50186
:1023B000B4010E9423290E94222C9B01AC01ED81D3
:1023C000FE8160817181828193810E94F0290E9447
:1023D000C129F1016483758386839783ED81FE8132
:1023E0006081718182819381C084D184E284F3848D
:1023F0009B01AC010E94B52B4B015C01A70196012A
:10240000C701B6010E94B52B9B01AC01C501B40107
:102410000E9423290E94222C9B01AC01ED81FE81A8
:1024200064817581868197810E94F0290E94C1296B
:10243000F101608771878287938780E026960FB6C7
:10244000F894DEBF0FBECDBFDF91CF911F910F91EA
:10245000FF90EF90DF90CF90BF90AF909F908F90C4
:102460007F906F905F904F903F902F900895FC0168
:10247000A781158616861786108A84E0A89FD0014A
:102480001124AC50BC4F1D921D921D921C921397AB
:10249000118E128E138E148E118A128A138A148A48
:1024A000158E168E178E10A215A216A217A210A6B0
:1024B00011A212A213A214A20895CF92EF92FF923A
:1024C0000F931F93CF93DF93EC01F42E122F1B82F7
:1024D00043E050E00E945A32FC821D830E83EF825B
:1024E000C88680915101882341F061E08F2D0E94C0
:1024F000382461E0812F0E943824CE01DF91CF91F2
:102500001F910F91FF90EF90CF900C943712CF93C3
:10251000DF93EC0186EA93E00E94371289E793E0AB
:102520000E94371210927F0410928004109281044E
:1025300010928204109283041092840410928504F5
:1025400010928604109287041092880410928904D5
:1025500010928A0410928B0410928C0410928D04B5
:1025600010928E046BE671E0CE010E94F10C88237C
:1025700079F06BE671E0CE010E9473200E94281F63
:1025800060938B0470938C0480938D0490938E04DD
:102590006DE671E0CE010E94F10C882379F06DE6C2
:1025A00071E0CE010E9473200E94281F609387046F
:1025B000709388048093890490938A046FE671E095
:1025C000CE010E94F10C8823A9F06FE671E0CE01E4
:1025D0000E9473200E94281F25E33AEF4EE85CE337
:1025E0000E94B52B609383047093840480938504C8
:1025F000909386048091080490910904A0910A04A4
:10260000B0910B0480937F0490938004A093810485
:10261000B093820481E0DF91CF910895DC01189698
:102620002C9118971796EC912223A1F0B4E0EB9F20
:10263000F0011124EC50FC4F80819181A281B38183
:102640009C01AD0166277727CB01621B730B840BBE
:10265000950B089534E0E39FF0011124EC50FC4FFA
:10266000608171818281938108952F923F924F9270
:102670005F927F928F929F92AF92BF92CF92DF92A2
:10268000EF92FF920F931F93CF93DF93CDB7DEB7F7
:10269000C054D1090FB6F894DEBF0FBECDBF4C01B8
:1026A000FC01808577FD02C0782E03C077247394E7
:1026B000782680914A011B0177FF03C03194219451
:1026C0003108442437FC4094542CFFEF8F9FC00105
:1026D000112464E670E00E948C2CCB01AA2797FDA0
:1026E000A095BA2FBF93AF939F938F93A12CB12C3A
:1026F000650114E6E12EF12C00E010E020E030E06E
:10270000A901C201B1010E94DA286B017C01672D89
:10271000F40185810E947124B601F40184810E9434
:10272000B023B601882777FD8095982F0E948B2AC9
:10273000F401618B728B838B948B9F928F92DF92CB
:10274000CF921F927F9281E791E09F938F938E01AA
:102750000F5F1F4F1F930F930E946932B8018AE6E3
:1027600095E00E942D270FB6F894DEBF0FBECDBFB7
:10277000C05CDF4F0FB6F894DEBF0FBECDBFDF9158
:10278000CF911F910F91FF90EF90DF90CF90BF906E
:10279000AF909F908F907F905F904F903F902F9041
:1027A0000895CF93DF93EC0180915101882361F16B
:1027B00065E571E0CE010E9473200E94371F6C39DD
:1027C0007F4F9CF065E571E0CE010E9473200E946E
:1027D000371F6536710564F465E571E0CE010E942E
:1027E00073200E94371FEB0105C0CCE9DFEF02C068
:1027F000C4E6D0E0BE0186EA93E00E943513BE0134
:1028000089E793E00E94351381E0DF91CF9108952D
:102810001092F8031092F9031092FA031092FB033E
:102820001092F4031092F5031092F6031092F7033E
:1028300062E082E00E94382462E083E00E94382453
:1028400062E088E00E94382462E089E00E94382437
:1028500041E050E06CEA7BE080E00E945A2241E0D7
:1028600050E06AEE7BE081E00E945A2280915101A3
:10287000882341F161E085E00E94382460E085E032
:102880000E94712461E086E00E94382460E086E0C6
:102890000E94712461E08BE00E94382460E08BE0AC
:1028A0000E94712461E081E10E94382460E081E1AE
:1028B0000E94712486EA93E00E94371289E793E030
:1028C0000C9437120895EF92FF920F931F93CF93BA
:1028D000DF937C010EE011E0C0E0D0E062E871E03F
:1028E000C7010E9473200E941C1FBC01F801808157
:1028F00091810E9451320C5F1F4F892B81F4CC0FC4
:10290000DD1FCC0FDD1FC25FDE4FEA81FB81C701F7
:10291000DF91CF911F910F91FF90EF900994219635
:10292000CF30D105D9F680E0DF91CF911F910F9183
:10293000FF90EF9008958C01C0E0D0E0C017D10760
:10294000B4F461E08DE00E94712468EC70E080E0F6
:1029500090E00E944D2360E08DE00E94712468ECBD
:1029600070E080E090E00E944D232196E7CF60E286
:1029700073E080E090E00E944D23DECF26E040E04F
:1029800052EC61E070E08AE695E00E94B32561E5D3
:1029900071E08AE695E00E94082761E08DE00E94E0
:1029A000382461E08CE00E94382462E084E00E94D8
:1029B000382460E08DE00E94712460E08CE00E9489
:1029C00071246BE371E08AE695E00E9408270E947B
:1029D000081480915201882309F47FC08FE894E0A5
:1029E0000E94781B88E18093B80062E087E00E9433
:1029F000382465E271E08AE695E00E94082783EDBD
:102A000093E00E944B0864E670E080E090E00E9452
:102A10004D2383ED93E00E94A60883ED93E00E948E
:102A2000480D8093740464E670E080E090E00E94BA
:102A30004D2380917404811138C061E083ED93E0EF
:102A40000E94590968EC70E080E090E00E944D23FC
:102A500083ED93E00E9404088093750462E171E0C5
:102A60008AE695E00E9408278091D5039091D603CD
:102A700090937304809372046CED70E083ED93E0A7
:102A80000E9447096CE470E083ED93E00E944D09D9
:102A90006BEA7FEF83ED93E00E9453096CEF76E0E1
:102AA00083ED93E00E94410918C066EF70E08AE66A
:102AB00095E00E9408274AE050E0609174048AE69D
:102AC00095E00E94E62761EF70E08AE695E00E94BB
:102AD000082783E090E00E949B148CE390E09093A1
:102AE000E7038093E60380E090E0AFE2B3E48093F5
:102AF000E8039093E903A093EA03B093EB0380E02B
:102B000090E0ACE5B3E48093EC039093ED03A093E5
:102B1000EE03B093EF0380E99BE9A2E1B1E4809377
:102B2000F0039093F103A093F203B093F30360EEEC
:102B300070E08AE695E00C9408274F925F926F92BE
:102B40007F928F929F92AF92BF92CF92DF92EF923D
:102B5000FF921F93CF93DF93CDB7DEB760970FB689
:102B6000F894DEBF0FBECDBF86EA93E00E940E133D
:102B70006D837E838F83988789E793E00E940E138D
:102B800069877A878B879C878091B3039091B40380
:102B9000A091B503B091B6038D809E80AF80B884BC
:102BA000881A990AAA0ABB0A809186039091870322
:102BB000A0918803B091890349845A846B847C84F2
:102BC000481A590A6A0A7B0A8091080490910904FC
:102BD000A0910A04B0910B048D879E87AF87B88BB4
:102BE00020917F04309180044091810450918204AF
:102BF000BC01CD010E94222969837A838B839C8347
:102C000021EE3EE245E652E40E94B52B6B017C01C9
:102C100020E030E0A9010E94AA2B18166CF411E004
:102C20002DEC3CEC4CEC5DE3C701B6010E94AA2BF5
:102C3000181674F010E00CC02DEC3CEC4CEC5DEB85
:102C4000C701B6010E94E929182F111F1127111F72
:102C5000C501B401640D751D861D971D0E948B2A48
:102C60002091F0033091F1034091F2035091F3036E
:102C70000E94B52B20E030E040E05FE30E94B52BDE
:102C80006B017C0120E030E0A9010E94AA2B1816FC
:102C90005CF42DEC3CEC4CEC5DE3C701B6010E940A
:102CA000AA2B181654F00AC02DEC3CEC4CEC5DEB52
:102CB000C701B6010E94E92987FD11E080908304D5
:102CC00090908404A0908504B090860420E030E0C9
:102CD00040E05FE369817A818B819C810E94B52B02
:102CE0009B01AC01C501B4010E9423292B013C01C9
:102CF0000E94182C9B01AC01C701B6010E94B52BA4
:102D00009B01AC0160918B0470918C0480918D04C7
:102D100090918E040E94232960938B0470938C04FD
:102D200080938D0490938E04C301B2010E94ED291B
:102D30009B01AC01C701B6010E94B52B9B01AC0100
:102D400060918704709188048091890490918A042D
:102D50000E942329609387047093880480938904D8
:102D600090938A0429813A814B815C81C501B40129
:102D70000E9423296B017C0120E030E0A9010E9420
:102D8000E92987FD09C0C0928304D0928404E092AF
:102D90008504F092860410C02BED3FE049EC50E42E
:102DA000C701B6010E9423296093830470938404B1
:102DB0008093850490938604C0908304D09084040B
:102DC000E0908504F09086042BED3FE049EC50E460
:102DD000C701B6010E94AA2B87FD10C02BED3FE072
:102DE00049EC50E4C701B6010E9422296093830494
:102DF0007093840480938504909386048D859E85CA
:102E0000AF85B88980937F0490938004A093810458
:102E1000B09382048D819E81AF81B8858093B30386
:102E20009093B403A093B503B093B60389859A85B4
:102E3000AB85BC858093860390938703A09388031A
:102E4000B0938903812F60960FB6F894DEBF0FBE52
:102E5000CDBFDF91CF911F91FF90EF90DF90CF908A
:102E6000BF90AF909F908F907F906F905F904F90AA
:102E70000895CF93DF9300D000D0CDB7DEB77A832B
:102E800069831C821B82BE016F5F7F4F0E940E20F0
:102E90008B819C810F900F900F900F90DF91CF91BD
:102EA0000895CF92DF92EF92FF920F931F93CF93EB
:102EB000DF93CDB7DEB7C454D1090FB6F894DEBFA7
:102EC0000FBECDBF8BE192E09A83898325961FAE1A
:102ED0001EAE2597CE0101960E94E01E8C01E09067
:102EE0005301F0905401B7010E947320B7010E9472
:102EF000511F66E871E0C8010E94732068E871E024
:102F00000E94511F20E030E04AE754E460918B04B6
:102F100070918C0480918D0490918E040E94F02910
:102F20006B017C016BE671E0C8010E94732024E014
:102F3000B701A6010E945D1F20E030E04AE754E49B
:102F400060918704709188048091890490918A042B
:102F50000E94F0296B017C016DE671E0C8010E94BE
:102F6000732024E0B701A6010E945D1F21EE3EE21E
:102F700045E652E460918304709184048091850455
:102F8000909186040E94B52B6B017C016FE671E085
:102F9000C8010E94732022E0B701A6010E945D1FB4
:102FA0006AE675E0C8010E94391760ED71E08AE6B3
:102FB00095E00E942D27CC5BDF4F0FB6F894DEBF63
:102FC0000FBECDBFDF91CF911F910F91FF90EF907A
:102FD000DF90CF900895CF92DF92EF92FF920F9300
:102FE0001F93CF93DF93CDB7DEB7C458D1090FB687
:102FF000F894DEBF0FBECDBF81E292E09A83898351
:10300000CD57DF4F19821882C358D040CE010196A8
:103010000E94E01E8C01E0905301F0905401B70132
:103020000E947320B7010E94511F66E871E0C80139
:103030000E9473206DE871E00E94511FC090080447
:10304000D0900904E0900A04F0900B0467E971E065
:10305000C8010E94732024E0B701A6010E945D1FF1
:10306000C0900C04D0900D04E0900E04F0900F047A
:103070006BE971E0C8010E94732024E0B701A6014A
:103080000E945D1FC0901004D0901104E0901204C3
:10309000F09013046FE971E0C8010E94732024E0EE
:1030A000B701A6010E945D1F6AE675E0C8010E9493
:1030B000391760ED71E08AE695E00E942D27CC5724
:1030C000DF4F0FB6F894DEBF0FBECDBFDF91CF91BB
:1030D0001F910F91FF90EF90DF90CF900895FF9296
:1030E0000F931F93CF93DF93CDB7DEB7C454D109AD
:1030F0000FB6F894DEBF0FBECDBFF82E2BE132E045
:103100003A83298325961FAE1EAE2597CE010196E0
:103110000E94E01E8C0160915301709154010E9445
:10312000732063EA71E00E94511F66E871E0C801F4
:103130000E9473206AEA71E00E94511F65E571E008
:10314000C8010E9473204F2D50E060E070E00E94A3
:103150006C1F6AE675E0C8010E94391760ED71E0E6
:103160008AE695E00E942D27CC5BDF4F0FB6F894DE
:10317000DEBF0FBECDBFDF91CF911F910F91FF90AA
:103180000895CF92EF920F9380E090E0A0E8BFE324
:103190008093200490932104A0932204B0932304ED
:1031A00010922404109225041092260410922704F1
:1031B000109228041092290410922A0410922B04D1
:1031C00010922C0410922D0410922E0410922F04B1
:1031D0001092140410921504109216041092170401
:1031E000109218041092190410921A0410921B04E1
:1031F00010921C0410921D0410921E0410921F04C1
:1032000083ED93E00E94A407C12CE12C00E12BE0A8
:1032100045E069EB71E086EA93E00E945D12CC2400
:10322000C394EE24E3940FE021E146E06CEB71E0FF
:1032300089E793E00E945D120F91EF90CF9008957F
:103240000F931F93CF93DF93CDB7DEB7C454D14014
:103250000FB6F894DEBF0FBECDBF8AE695E00E94A0
:10326000D024892B09F492C08AE695E00E94E924D3
:103270008D3009F48BC020917703309178038A3028
:1032800009F062C0C9010196909378038093770397
:10329000F901E958FD4F108287E292E09A83898311
:1032A000CD5FDE4F19821882C350D1404AE067E7F4
:1032B00072E0CE0101960E942D228C0166E871E039
:1032C0000E94F10C66E871E0882379F0C8010E9441
:1032D00073200E941C1F62E871E00E945132892B0A
:1032E00041F5C8010E94631424C0C8010E947320E4
:1032F00000D000D000D0ADB7BEB7119626E0FC01DB
:1033000001900D922A95E1F78FEB91E09F938F93B7
:103310008E010B5F1E4F1F930F930E946932B801FD
:103320008AE695E00E942D270FB6F894DEBF0FBE07
:10333000CDBF409177035091780360E070E087E75C
:1033400092E00E944A321EC0A9014F5F5F4F509326
:10335000780340937703F901E958FD4F80834115C5
:103360005140A0F068EC70E08AE695E00E940827E2
:1033700080E091E0E7E7F2E0DF019C011D9221503F
:103380003040E1F71092780310927703CC5BDE4F68
:103390000FB6F894DEBF0FBECDBFDF91CF911F9166
:1033A0000F910895AF92BF92CF92DF92EF92FF926A
:1033B0000F931F93CF93DF930E94201980915001A8
:1033C000882329F18091760281111BC089B18295F1
:1033D0008170C82F30E0D32F80910C0190910D01A6
:1033E000C817D907A1F0D0930D01C0930C0184E157
:1033F0008093760281E0CD2B09F080E00E946F1867
:1034000006C081508093760287FD109276028091EB
:103410004D0190914E0120917604309177044091B6
:1034200078045091790460917A0470917B045C0176
:10343000C12CD12CE12CF12C00E010E080917C0417
:1034400090917D040E94EC2CA0E00E94572D49F43D
:103450000E949D15882329F080914F0181110E94BF
:10346000511780914B0190914C012091760430913D
:103470007704409178045091790460917A047091B6
:103480007B045C01C12CD12CE12CF12C00E010E07C
:1034900080917C0490917D040E94EC2CA0E00E941D
:1034A000572D81F48DE00E94A72461E0892B09F05B
:1034B00060E08DE00E94712480917E04882311F0E9
:1034C0001D9953C080915201882309F14F9B1FC061
:1034D00083ED93E00E9404088093750483ED93E0EC
:1034E0000E945F089093710480937004209175048A
:1034F00024FD03C081159440D9F583ED93E00E942B
:10350000240864EB70E08AE695E00E940827209189
:103510007604309177044091780450917904609159
:103520007A0470917B0480917C0490917D04A1E0E9
:103530000E944B2D209376043093770440937804B7
:103540005093790460937A0470937B0480937C0495
:1035500090937D04DF91CF911F910F91FF90EF9099
:10356000DF90CF90BF90AF9008950E94EB17AACF45
:1035700021FFCDCF4091720460E374E083ED93E0CE
:103580000E947B0840E354E060E274E083ED93E046
:103590000E940A1040E254E064E174E083ED93E09D
:1035A0000E94791024E134E040E254E068E074E0E5
:1035B00083ED93E00E94451183ED93E00E9424087F
:1035C000A6CF8091BF0490E02091C004821B910996
:1035D00008952091C0048091BF04281750F4E22F71
:1035E000F0E0EF53FB4F808190E02F5F2093C00409
:1035F00008958FEF9FEF0895E091C0048091BF047C
:10360000E81730F4F0E0EF53FB4F808190E008952D
:103610008FEF9FEF08950895CF92DF92EF92FF9280
:103620000F931F93CF93DF937C01CB018A012091ED
:103630009B04222389F0EB016B01C40ED51ECC152F
:10364000DD0569F06991D701ED91FC910190F08160
:10365000E02DC7010995F3CF642F0E946B1CC801B0
:10366000DF91CF911F910F91FF90EF90DF90CF905E
:103670000895CF93DF931F92CDB7DEB76983209172
:103680009B042223D1F020919C04203240F021E0C1
:1036900030E0FC013383228380E090E015C080910C
:1036A0009D04E82FF0E0E256FB4F998190838F5FF5
:1036B00080939D0480939C0405C061E0CE01019637
:1036C0000E946B1C81E090E00F90DF91CF910895F4
:1036D000FC011382128248EE53E060E070E0448304
:1036E0005583668377838DE292E09183808308958A
:1036F0001092C0041092BF0410929D0410929C047A
:103700000C94B61B862F413208F040E261EC74E065
:103710000E94D41B1092C0048093BF04089521E03E
:103720000C94821B81E080939B046093BE041092F2
:103730009D0410929C0408950F93062F21E0409160
:103740009C046EE974E08091BE040E94181C1092E3
:103750009D0410929C0410929B040F91089561E0C7
:103760000C949C1B8FE894E00C94681B10924E05FF
:1037700081E080934C0510924B0561E082E10E944C
:10378000712461E083E10E947124E9EBF0E0808123
:103790008E7F808380818D7F808388E48093B800D2
:1037A00085E48093BC000895413208F03FC09091B9
:1037B0004E059111FCCF91E090934E0520934C055E
:1037C0002FEF2093E10410922605240F2093250566
:1037D00090934D0590914D05880F892B80934D0551
:1037E00080914B05813041F410924B0580914D053D
:1037F0008093BB0085EC01C085EE8093BC00809176
:103800004E058130E1F380912605841710F4409134
:10381000260527E235E0FB01D9018A2F821B841798
:1038200018F48D918193F9CF842F089580E0089545
:103830000F93413208F046C090914E059111FCCF94
:1038400092E090934E0500934C059FEF9093E10416
:103850001092260540932505FB0167E275E0DB0128
:103860009A2F961B941718F491919D93F9CF10926B
:103870004D0590914D05880F892B80934D058091C2
:103880004B05813041F410924B0580914D0580939A
:10389000BB0085EC01C085EE8093BC00222321F0A3
:1038A00080914E058230E1F38091E1048F3F61F019
:1038B0008091E104803251F08091E104803341F441
:1038C00083E007C081E005C080E003C082E001C062
:1038D00084E00F910895613298F420914E052430D0
:1038E00089F460930305FC0185E095E0DC012A2F53
:1038F000281B261718F421912D93F9CF80E0089505
:1039000081E0089582E0089585ED8093BC00809168
:10391000BC0084FDFCCF10924E05089585EC809389
:10392000BC0010924E0508951F920F920FB60F9291
:1039300011242F933F934F935F936F937F938F93B4
:103940009F93AF93BF93EF93FF938091B900887FCC
:10395000803609F49CC068F5883209F45BC090F4A5
:10396000803109F454C038F4882309F4F5C0883054
:1039700009F44DC0F5C0883109F44CC0803209F417
:103980005DC0EEC0803409F468C048F4803309F4A7
:1039900055C0883309F0E4C08093E104A8C08035A5
:1039A00009F44FC0883509F45DC0883409F0D8C0E7
:1039B000D5C0883909F4C6C0A8F4883709F467C0AF
:1039C00038F4883609F463C0803709F460C0C8C091
:1039D000883809F4B7C0803909F45FC0803809F02D
:1039E000BFC05BC0803B09F485C038F4803A09F45D
:1039F00066C0883A09F47EC0B3C0803C09F4A6C012
:103A0000883C09F4A3C0883B09F489C0A9C080910F
:103A10004D0510C09091260580912505981770F5E9
:103A2000E091260581E08E0F80932605F0E0E95DA8
:103A3000FA4F80818093BB0085EC85C08093E104C0
:103A40008DC0E091260581E08E0F80932605809140
:103A5000BB00F0E0E95DFA4F8083909126058091EC
:103A600025056DC0E091260581E08E0F8093260527
:103A70008091BB00F0E0E95DFA4F808380914C05B6
:103A800081116CC081E080934B0584EA60C083E0C3
:103A900080934E051092E204CFCF8091E2048032F1
:103AA00008F050C0E091E20481E08E0F8093E204C0
:103AB0008091BB00F0E0ED51FB4F8083BDCF809142
:103AC000E204803230F4E091E204F0E0ED51FB4F8B
:103AD00010820E94841C6091E20470E0E09147052E
:103AE000F091480583EE94E009951092E2040E945B
:103AF0008E1C36C084E080934E051092040510920F
:103B00000305E0914905F0914A0509958091030567
:103B1000811105C081E08093030510920505E091B5
:103B2000040581E08E0F80930405F0E0EB5FFA4F0F
:103B300080818093BB0090910405809103059817C4
:103B400008F47ACF85E88093BC000AC085EC8093A6
:103B5000BC0010924E0504C01092E1040E94841C27
:103B6000FF91EF91BF91AF919F918F917F916F9155
:103B70005F914F913F912F910F900FBE0F901F902B
:103B80001895CF93DF93EC0188819981DC01ED9149
:103B9000FC910190F081E02D09952A813B81280F4D
:103BA000391F3B832A83DF91CF910895DB01ED918B
:103BB000FC9111970190F081E02DBC01CD01099499
:103BC0000F931F93CF93DF938C01F801C281D381B0
:103BD0008881992787FD90950E941432892B29F0BE
:103BE0002196F801D383C283F0CFDF91CF911F914B
:103BF0000F9108950F931F93CF93DF931F92CDB72B
:103C0000DEB78C0169830E94E01DD8011296ED9108
:103C1000FC9113978081698186130AC031961396AF
:103C2000FC93EE931297C8010E94E01D81E001C051
:103C300080E00F90DF91CF911F910F910895FB01CC
:103C40002191BF01222379F0DC011296ED91FC91C4
:103C500013973081321307C03196DC011396FC9321
:103C6000EE931297ECCF81E0211180E00895BF928E
:103C7000CF92DF92EF92FF920F931F93CF93DF9338
:103C80007C01EB01009771F469E372E0CE01DF91F2
:103C9000CF911F910F91FF90EF90DF90CF90BF9049
:103CA0000C942D27E881F9810190F081E02D62E2EA
:103CB000CE0109958C01F70161917F01662351F0D6
:103CC000E9E4F2E0B080BB2079F191819617B1F080
:103CD0003296F8CFE881F9810190F081E02D62E21F
:103CE000CE010995800F911FDF91CF911F910F9108
:103CF000FF90EF90DF90CF90BF900895E881F98119
:103D00000190F081E02D6CE5CE0109956C01E88110
:103D1000F9810190F081E02D6B2DCE0109958C0D7C
:103D20009D1D080F191FC7CFE881F9810190F0810F
:103D3000E02DCE010995F5CFCF93FC015081523291
:103D400029F0573219F080E090E023C09C012F5FEA
:103D50003F4FD901F901CF0101964081442399F3E6
:103D6000451791F04C3569F401964181EDE4F2E09C
:103D7000C081CC2331F0C41302C0418102C032960D
:103D8000F7CF4D93FC01E7CF1C92FB019183808319
:103D9000C901CF910895CF93DF93EC01BC0184E07A
:103DA00090E00E94D61DFC01009729F0D183C083CA
:103DB0001382128202C089E595E0DF91CF910895C8
:103DC000CF93DF93EC01BC0184E090E00E94D61D0C
:103DD000FC01009729F0D183C0831382128202C0B4
:103DE00085E595E0DF91CF9108950F931F93CF93D1
:103DF000DF938B01FC01C281D381209759F0B80178
:103E00008A819B810E945132892B39F00990D88197
:103E1000C02DF3CF80E090E001C0CE01DF91CF91C3
:103E20001F910F9108950E94F51E009711F00496BE
:103E300008958FE495E00895FC01208131812530BB
:103E4000310519F482819381089580E090E008950E
:103E5000FC0120813181273031052CF06281738192
:103E600084819581089560E070E0CB010895FC01A4
:103E7000208131812630310529F46281738184816A
:103E80009581089560E070E0CB010895FC01808188
:103E90009181892B29F084E090E091838083628373
:103EA0000895FC0180819181892B31F085E090E0BB
:103EB00091838083738362830895FC018081918163
:103EC000892B49F030E0295F3F4F318320834283C3
:103ED0005383648375830895FC0180819181892BCC
:103EE00041F086E090E09183808342835383648332
:103EF00075830895FC0180819181892B31F082E0E6
:103F000090E091838083738362830895FC018081B4
:103F10009181892B31F083E090E0918380837383DA
:103F200062830895CF93DF93FC01EB0120813181FF
:103F30002230310531F482819381DF91CF910C944D
:103F4000E81F2330310531F482819381DF91CF91D5
:103F50000C940E202530310539F4688179818281F5
:103F600093810E94371E2BC02630310559F44281BF
:103F70005381648175812AE030E0888199810E94B3
:103F80008F271DC02430310569F48281882319F000
:103F90006EE372E002C063E472E0888199810E945E
:103FA0002D270DC02730310584F0275030E04281A5
:103FB000538164817581888199810E94D8282A81E2
:103FC0003B81280F391F3B832A83DF91CF910895CE
:103FD0000F931F93CF93DF93EC018B016BE5C80127
:103FE0000E94C11D0A80DB81C02D209779F0B801A5
:103FF000CE0102960E94921F0990D881C02D209771
:1040000029F06CE2C8010E94C11DF1CF6DE5C80125
:10401000DF91CF911F910F910C94C11D0F931F93AE
:10402000CF93DF938C01EB016BE7CE010E94C11DA2
:10403000F801028113810115110509F16881798167
:10404000F801828193810E94371E2A813B81280FCB
:10405000391F3B832A836AE3CE010E94C11DBE0142
:10406000C80104960E94921FF80100811181011578
:10407000110529F06CE2CE010E94C11DDFCF6DE772
:10408000CE01DF91CF911F910F910C94C11DFC01C6
:10409000608171816115710579F08AE090E00E947C
:1040A000D61DFC01009741F01182108281E090E062
:1040B00095838483CF01089580E090E00895DC012A
:1040C0001296ED91FC911397309749F08081918180
:1040D000009711F0FC01FACF718360830895FC0111
:1040E000738362830895EF92FF920F931F93CF9390
:1040F000DF938C017B010E94F51EEC01009761F4B7
:10410000C8010E944720EC01009749F0FB82EA8237
:10411000BC01C8010E945F20CE01049602C08FE45A
:1041200095E0DF91CF911F910F91FF90EF9008954F
:10413000FC01608171816115710579F088E090E082
:104140000E94D61DFC01009741F01182108281E08F
:1041500090E093838283CF01089580E090E00895FA
:10416000DC011296ED91FC911397309749F0808114
:104170009181009711F0FC01FACF7183608308955B
:10418000FC017383628308950F931F93CF93DF9392
:104190008C010E949820EC01009739F0BC01C80105
:1041A0000E94B020CE01029602C08FE495E0DF911C
:1041B000CF911F910F910895EF92FF920F931F934C
:1041C000CF93DF93EC01888199810E94CB1E7C0103
:1041D0006BE5CE010E94FA1D811103C089E595E0CF
:1041E00022C06DE5CE010E94FA1D81111BC0C701DE
:1041F0000E94C4208C01BC01CE010E941A21F8014A
:10420000208131812230310548F36DE5CE010E94D5
:10421000FA1D811107C06CE2CE010E94FA1D8111C6
:10422000E6CFDCCFC701DF91CF911F910F91FF90B7
:10423000EF900895EF92FF920F931F93CF93DF9328
:1042400000D0CDB7DEB78C017B01DC0114968C91D8
:104250001497882309F4A3C0815014968C93C80145
:104260000E94E01DF80182819381DC012C912A33A8
:104270007CF420330CF03FC0273209F461C024F4F1
:10428000223209F45DC065C02D522230A0F161C018
:104290002E3609F442C02CF42B3581F02636B1F0CD
:1042A00058C0243799F02B3709F053C0C8010E9439
:1042B000D821BC01C7010E94861F4BC0C8010E94C3
:1042C000DC20BC01C7010E947A1F43C06EE372E08C
:1042D000C8010E941F1E882311F061E008C063E43A
:1042E00072E0C8010E941F1E882309F160E0C70127
:1042F0000E94461F2EC04AE050E0BE016F5F7F4F14
:104300000E94E030AB01BC01E981FA8180818E32EC
:1043100029F18F7D8534D1F521C069E372E0C801B0
:104320000E941F1E882319F060E070E00FC086E035
:10433000EFE4F5E0D70101900D928A95E1F709C00D
:10434000B8016E5F7F4F0E949C1EBC01C7010E9496
:10435000511FF80184818F5F848321C0B8016E5F93
:104360007F4FD80112968D919C9113970E947D2FBB
:10437000AB01BC01F8012281338189819A81281B1C
:10438000390B2150C7010E945D1FE3CFD80113965E
:10439000FC93EE931297C7010E946C1FDACF0F9027
:1043A0000F90DF91CF911F910F91FF90EF900895A3
:1043B000CF92DF92EF92FF920F931F93CF93DF93F1
:1043C000EC01888199810E94E01E6C016BE7CE01AF
:1043D0000E94FA1D811103C085E595E035C06DE7A7
:1043E000CE010E94FA1D81112EC07E0182E0E80EEE
:1043F000F11CB7018A819B810E949C1E8C01009751
:1044000059F36AE3CE010E94FA1D882329F3B8010B
:10441000C6010E9473208C01BC01CE010E941A21AA
:10442000F8012081318122303105B0F26DE7CE01F3
:104430000E94FA1D811107C06CE2CE010E94FA1D94
:104440008111D7CFC9CFC601DF91CF911F910F91B5
:10445000FF90EF90DF90CF900895CF93DF9300D03F
:1044600000D01F92CDB7DEB79A8389837C836B839C
:104470004D83CE0101960E94D8210F900F900F908E
:104480000F900F90DF91CF91089510925A051092DE
:10449000590510925C0510925B051092560510921A
:1044A000550510925805109257051092500510921C
:1044B0004F0508958230E8F4E82FF0E0EE0FFF1F7B
:1044C000E35AFA4F71836083813041F08091690033
:1044D0008C7F842B80936900E89A0895809169000D
:1044E000440F551F440F551F837F842B8093690011
:1044F000E99A08951F920F920FB60F9211242F93ED
:104500003F934F935F936F937F938F939F93AF935B
:10451000BF93EF93FF9380915D0590915E05892B8A
:1045200029F0E0915D05F0915E050995FF91EF910D
:10453000BF91AF919F918F917F916F915F914F91BB
:104540003F912F910F900FBE0F901F9018951F92C3
:104550000F920FB60F9211242F933F934F935F93B7
:104560006F937F938F939F93AF93BF93EF93FF933B
:1045700080915F0590916005892B29F0E0915F059E
:10458000F09160050995FF91EF91BF91AF919F91D7
:104590008F917F916F915F914F913F912F910F90EC
:1045A0000FBE0F901F9018951F920F920FB60F928B
:1045B00011242F933F938F939F93AF93BF93809139
:1045C000620590916305A0916405B09165053091F5
:1045D000610523E0230F2D3720F40196A11DB11DA5
:1045E00005C026E8230F0296A11DB11D2093610589
:1045F0008093620590936305A0936405B09365056D
:104600008091660590916705A0916805B091690554
:104610000196A11DB11D8093660590936705A09337
:104620006805B0936905BF91AF919F918F913F91BC
:104630002F910F900FBE0F901F9018952FB7F894E1
:1046400060916205709163058091640590916505A4
:104650002FBF08953FB7F894809166059091670544
:10466000A0916805B091690526B5A89B05C02F3FAC
:1046700019F00196A11DB11D3FBF6627782F892F24
:104680009A2F620F711D811D911D42E0660F771FE9
:10469000881F991F4A95D1F70895CF92DF92EF9224
:1046A000FF92CF93DF936B017C010E942A23EB01E1
:1046B000C114D104E104F10489F00E9421290E946F
:1046C0002A236C1B7D0B683E734090F381E0C81A6F
:1046D000D108E108F108C851DC4FEACFDF91CF9152
:1046E000FF90EF90DF90CF900895789484B582602A
:1046F00084BD84B5816084BD85B5826085BD85B586
:10470000816085BDEEE6F0E0808181608083E1E834
:10471000F0E010828081826080838081816080836C
:10472000E0E8F0E0808181608083E1EBF0E080816F
:1047300084608083E0EBF0E0808181608083EAE741
:10474000F0E08081846080838081826080838081CA
:10475000816080838081806880831092C100089589
:104760001F93CF93DF93182FEB0161E00E94382451
:10477000209711F460E004C0CF3FD10539F461E027
:10478000812FDF91CF911F910C947124E12FF0E0E4
:10479000E050F64FE491E330F9F048F4E130B9F03D
:1047A000E230A1F584B5806284BDC8BD34C0E73075
:1047B000E9F0E83019F1E43049F580918000806239
:1047C00080938000D0938B00C0938A0024C084B56E
:1047D000806884BDC7BD1FC08091800080688093C1
:1047E0008000D0938900C093880015C08091B000EC
:1047F00080688093B000C093B3000DC08091B0007A
:1048000080628093B000C093B40005C0C038D10569
:104810000CF0B5CFAFCFDF91CF911F9108958330CA
:1048200081F028F4813099F08230A1F0089587302A
:10483000A9F08830B9F08430D1F4809180008F7D68
:1048400003C0809180008F7780938000089584B5A5
:104850008F7702C084B58F7D84BD08958091B000AC
:104860008F7703C08091B0008F7D8093B000089552
:10487000CF93DF9390E0FC01EC5EF54F2491FC01B7
:10488000E85DF54F8491882349F190E0880F991FE6
:10489000FC01E05BF54FA591B4918A5B954FFC015B
:1048A000C591D4919FB7611108C0F8948C9120955F
:1048B00082238C93888182230AC0623051F4F89459
:1048C0008C91322F309583238C938881822B88831F
:1048D00004C0F8948C91822B8C939FBFDF91CF9171
:1048E00008950F931F93CF93DF931F92CDB7DEB739
:1048F000282F30E0F901E050F64F8491F901EC5E89
:10490000F54F1491F901E85DF54F04910023C9F0CA
:10491000882321F069830E940F246981E02FF0E051
:10492000EE0FFF1FEA5BF54FA591B4919FB7F89486
:104930008C91611103C01095812301C0812B8C9350
:104940009FBF0F90DF91CF911F910F910895CF934B
:10495000DF93282F30E0F901E050F64F8491F90100
:10496000EC5EF54FD491F901E85DF54FC491CC238D
:1049700091F081110E940F24EC2FF0E0EE0FFF1F49
:10498000E45CF54FA591B4912C912D2381E090E04A
:1049900021F480E002C080E090E0DF91CF910895A3
:1049A000FC01818D228D90E0805C9F4F821B9109DC
:1049B0008F7399270895FC01918D828D981731F09E
:1049C000828DE80FF11D858D90E008958FEF9FEFA8
:1049D0000895FC01918D828D981761F0828DDF0121
:1049E000A80FB11D5D968C91928D9F5F9F73928FE2
:1049F00090E008958FEF9FEF08958DE696E2892B62
:104A000049F080E090E0892B29F00E946D26811109
:104A10000C9400000895FC01848DDF01A80FB11DE6
:104A2000A35ABF4F2C91848D90E001968F739927E4
:104A3000848FA689B7892C93A089B1898C918064D1
:104A40008C93938D848D981306C00288F389E02D92
:104A500080818F7D80830895CF93DF93EC01888DD3
:104A60008823C9F0EA89FB89808185FD05C0A88972
:104A7000B9898C9186FD0FC00FB607FCF5CF8081F8
:104A800085FFF2CFA889B9898C9185FFEDCFCE0142
:104A90000E940B25E7CFDF91CF910895CF92DF924F
:104AA000FF920F931F93CF93DF931F92CDB7DEB783
:104AB0006C01DC015B969C915B975C968C915C979A
:104AC000981307C05096ED91FC915197808185FD18
:104AD00032C0F601038D10E00F5F1F4F0F731127D7
:104AE000F02EF601848DF81211C00FB607FCF9CF35
:104AF000D6015096ED91FC915197808185FFF1CFC1
:104B0000C60169830E940B256981EBCF838DE80F75
:104B1000F11DE35AFF4F6083D6015B960C935B97C0
:104B20005296ED91FC91539780818062808381E061
:104B300058968C930DC0D6015696ED91FC915797DF
:104B400060835096ED91FC915197808180648083C1
:104B500081E090E00F90DF91CF911F910F91FF9036
:104B6000DF90CF900895BF92CF92DF92EF92FF92A5
:104B7000CF93DF93EC016A017B01B22EE889F989BA
:104B800082E08083411581EE580761057105A1F02F
:104B900060E079E08DE390E0A70196010E94A02CEF
:104BA0002150310941095109569547953795279567
:104BB000211580E1380798F0E889F989108260E8CA
:104BC00074E88EE190E0A70196010E94A02C21508C
:104BD0003109410951095695479537952795EC8537
:104BE000FD853083EE85FF852083188EEC89FD8955
:104BF000B082EA89FB89808180618083EA89FB89B0
:104C0000808188608083EA89FB89808180688083D5
:104C1000EA89FB8980818F7D8083DF91CF91FF902E
:104C2000EF90DF90CF90BF9008951F920F920FB634
:104C30000F9211242F938F939F93EF93FF93E09103
:104C40007A05F0917B058081E0918005F0918105E6
:104C500082FD12C09081809183058F5F8F732091B8
:104C60008405821751F0E0918305F0E0E659FA4F90
:104C7000958F8093830501C08081FF91EF919F9173
:104C80008F912F910F900FBE0F901F9018951F922C
:104C90000F920FB60F9211242F933F934F935F9370
:104CA0006F937F938F939F93AF93BF93EF93FF93F4
:104CB0008AE695E00E940B25FF91EF91BF91AF919D
:104CC0009F918F917F916F915F914F913F912F9124
:104CD0000F900FBE0F901F9018958AE695E00E94E6
:104CE000D02421E0892B09F420E0822F089510922E
:104CF0006D0510926C0588EE93E0A0E0B0E0809323
:104D00006E0590936F05A0937005B09371058CE5C7
:104D100092E090936B0580936A0585EC90E0909308
:104D200077058093760584EC90E0909379058093E5
:104D3000780580EC90E090937B0580937A0581EC78
:104D400090E090937D0580937C0582EC90E09093B9
:104D50007F0580937E0586EC90E09093810580939B
:104D6000800510928305109284051092850510929B
:104D70008605089508950E9475230E94BA260E9410
:104D8000BE14CDEFD4E20E94D2192097E1F30E9425
:104D9000FD24F9CFCF92DF92EF92FF920F931F93F2
:104DA000CF93DF936C017A01EB01E60EF71E00E072
:104DB00010E0CE15DF0561F06991D601ED91FC910F
:104DC0000190F081E02DC6010995080F191FF1CF60
:104DD000C801DF91CF911F910F91FF90EF90DF906D
:104DE000CF9008956115710581F0DB010D900020D1
:104DF000E9F7AD0141505109461B570BDC01ED911C
:104E0000FC910280F381E02D099480E090E0089508
:104E1000EF92FF920F931F93CF93DF938C01FB01CF
:104E2000C0E0D0E064917F018FEFE81AF80A6623B2
:104E300061F0D801ED91FC910190F081E02DC80165
:104E40000995C80FD91FF701EDCFCE01DF91CF91A2
:104E50001F910F91FF90EF9008950C94F226DC01C2
:104E6000ED91FC910190F081E02D09948F929F9239
:104E7000AF92BF92CF92DF92EF92FF920F931F9368
:104E8000CF93DF93CDB7DEB7A1970FB6F894DEBF0F
:104E90000FBECDBF7C01C42EE52FCB01D22E19A2AF
:104EA00021E02D1510F02AE0D22E8E010F5D1F4F4C
:104EB0008D2C912CA12CB12C6C2D7E2FA501940151
:104EC0000E94A02C8C2DD29E801911240150110912
:104ED0008A3014F4805D01C0895CF801808321155B
:104EE00031054105510521F0C22EE32FCA01E4CF5F
:104EF000B801C7010E94F226A1960FB6F894DEBF52
:104F00000FBECDBFDF91CF911F910F91FF90EF901A
:104F1000DF90CF90BF90AF909F908F900895CF92E9
:104F2000DF92EF92FF920F931F93CF93DF93EC01E9
:104F30006A017B012115310579F4E881F98101903D
:104F4000F081E02D642FDF91CF911F910F91FF90A1
:104F5000EF90DF90CF9009942A303105E9F477FF84
:104F60001AC06DE20E942F278C0144275527BA01F1
:104F70004C195D096E097F092AE0CE010E9436278F
:104F8000800F911FDF91CF911F910F91FF90EF90B4
:104F9000DF90CF9008952AE0B701A601CE01DF91FE
:104FA000CF911F910F91FF90EF90DF90CF900C94D5
:104FB00036272115310541F4DC01ED91FC9101907A
:104FC000F081E02D642F09940C9436279A01462F26
:104FD00050E060E070E00C94D9274F925F926F929E
:104FE0007F928F929F92AF92BF92CF92DF92EF9279
:104FF000FF920F931F93CF93DF93EC016A017B0124
:10500000B22E9A01AB01C701B6010E94632C88231E
:1050100019F068E672E027C026013701E89477F8B6
:105020002FEF3FEF4FE75FE7C301B2010E94632C10
:1050300081110DC02FEF3FEF4FE75FE7C301B201D2
:105040000E94E92918161CF46CE672E00CC02FEFE0
:105050003FEF4FE75FE4C701B6010E94AA2B181685
:10506000ACF460E772E0CE01DF91CF911F910F9118
:10507000FF90EF90DF90CF90BF90AF909F908F9078
:105080007F906F905F904F900C94F2262FEF3FEF40
:105090004FE75FECC701B6010E94E92987FDE1CF28
:1050A00020E030E0A901C701B6010E94E92987FF8D
:1050B0000AC06DE2CE010E942F278C01F7FAF0940E
:1050C000F7F8F09402C000E010E0A12C60E070E07E
:1050D00080E09FE3AB1441F020E030E040E251E497
:1050E0000E94F029A394F6CF9B01AC01C701B60141
:1050F0000E9423296B017C010E945D2A2B013C0147
:105100000E94892A9B01AC01C701B6010E94222995
:105110006B017C012AE0B301A201CE010E94362777
:10512000080F191FBB2039F064E772E0CE010E941E
:10513000F226080F191F7B2C772041F120E030E088
:1051400040E251E4C701B6010E94B52B6B017C011E
:105150000E94582A4B01AA2497FCA094BA2C2AE05A
:1051600030E0B501A401CE010E948F27080F191F5E
:10517000C501B4010E948B2A9B01AC01C701B60195
:105180000E9422296B017C017A94D6CFC801DF915D
:10519000CF911F910F91FF90EF90DF90CF90BF9034
:1051A000AF909F908F907F906F905F904F900895F9
:1051B0000C94ED274F925F926F927F92AF92BF92C5
:1051C000CF92DF92EF92FF920F931F93CF93DF93D3
:1051D000CDB7DEB729013A01621B730B840B950B27
:1051E00029893A894B895C892A193B094C095D094F
:1051F000298B3A8B4B8B5C8B9B01AC0169897A893B
:105200008B899C890E947C2CE418F50806091709F3
:10521000A80197010E94C22C2A0D3B1D4C1D5D1D4B
:10522000CA01B901DF91CF911F910F91FF90EF90CB
:10523000DF90CF90BF90AF907F906F905F904F9036
:10524000089508955058BB27AA270ED038C201D21E
:1052500030F006D220F031F49F3F11F41EF4C0C1AB
:105260000EF4E095E7FBB6C1E92F4BD280F3BA17F5
:10527000620773078407950718F071F49EF563C2FF
:105280000EF4E0950B2EBA2FA02D0B01B901900161
:105290000C01CA01A0011124FF27591B99F0593FA5
:1052A00050F4503E68F11A16F040A22F232F342FED
:1052B0004427585FF3CF469537952795A795F0403B
:1052C0005395C9F77EF41F16BA0B620B730B840B50
:1052D000BAF09150A1F0FF0FBB1F661F771F881F08
:1052E000C2F70EC0BA0F621F731F841F48F4879560
:1052F00077956795B795F7959E3F08F0B3CF93954F
:10530000880F08F09927EE0F979587950895A1D1FA
:1053100058F080E891E009F49EEFA2D128F040E82F
:1053200051E059F45EEF09C05BC10DC2E92FE0788E
:10533000E8D168F3092E052AC1F326173707480775
:10534000590738F00E2E07F8E02569F0E025E064F3
:105350000AC0EF6307F8009407FADB01B9019D0169
:10536000DC01CA01AD01EF934AD0A9D10AD05F9107
:10537000552331F02BED3FE049E450FD49EC63CF7C
:105380000895DF93DD27B92FBF7740E85FE3161656
:10539000170648075B0710F4D92FE0D19F938F932E
:1053A0007F936F938DD2E8E6F0E01DD188D12F91E5
:1053B0003F914F915F91E5D1DD2349F09058A2EAEA
:1053C0002AED3FE049EC5FE3D0785D274DDFDF91C8
:1053D00076C1DCD008F481E008954AD1E39580C11C
:1053E0000CD06DC13DD140F034D130F021F45F3F9D
:1053F00019F0F0C05111A8C1F3C083D198F39923DB
:10540000C9F35523B1F3951B550BBB27AA27621788
:105410007307840738F09F5F5F4F220F331F441FCD
:10542000AA1FA9F333D00E2E3AF0E0E830D0915005
:105430005040E695001CCAF729D0FE2F27D0660FF2
:10544000771F881FBB1F261737074807AB07B0E831
:1054500009F0BB0B802DBF01FF2793585F4F2AF047
:105460009E3F510568F0B6C06FC15F3FECF3983EB8
:10547000DCF3869577956795B795F7959F5FC9F7A4
:10548000880F911D9695879597F90895E1E0660F2D
:10549000771F881FBB1F621773078407BA0720F0A6
:1054A000621B730B840BBA0BEE1F88F7E09508950F
:1054B00004D06894B11148C108952BD188F09F574A
:1054C00090F0B92F9927B751A0F0D1F0660F771F50
:1054D000881F991F1AF0BA95C9F712C0B13081F030
:1054E00032D1B1E008952FC1672F782F8827B85F98
:1054F00039F0B93FCCF3869577956795B395D9F791
:105500003EF490958095709561957F4F8F4F9F4F9A
:105510000895E89409C097FB3EF4909580957095A6
:1055200061957F4F8F4F9F4F9923A9F0F92F96E9EF
:10553000BB279395F695879577956795B795F11164
:10554000F8CFFAF4BB0F11F460FF1BC06F5F7F4F01
:105550008F4F9F4F16C0882311F096E911C0772313
:1055600021F09EE8872F762F05C0662371F096E81C
:10557000862F70E060E02AF09A95660F771F881FEB
:10558000DAF7880F9695879597F90895990F00088F
:10559000550FAA0BE0E8FEEF16161706E807F90705
:1055A000C0F012161306E407F50798F0621B730BA0
:1055B000840B950B39F40A2661F0232B242B252B21
:1055C00021F408950A2609F4A140A6958FEF811DC4
:1055D000811D089597F99F6780E870E060E0089565
:1055E0009FEF80EC0895DF93CF931F930F93FF926B
:1055F000EF92DF927B018C01689405C0DA2EEF01F7
:10560000C0D0FE01E894A591259135914591559121
:10561000AEF3EF0129DEFE019701A801DA9479F7D4
:10562000DF90EF90FF900F911F91CF91DF91089540
:105630009F938F937F936F93FF93EF939B01AC01A5
:1056400094D0EF91FF91CFDF2F913F914F915F91D8
:105650008CC000240A941616170618060906089529
:1056600000240A9412161306140605060895B8CFEE
:1056700050D0E8F3E894E0E0BB279F57F0F02AED24
:105680003FE049EC06C0EE0FBB0F661F771F881F77
:1056900028F0B23A62077307840728F0B25A620B07
:1056A000730B840BE3959A9572F7803830F49A95D2
:1056B000BB0F661F771F881FD2F790480AC1092EBB
:1056C0000394000C11F4882352F0BB0F40F4BF2B5D
:1056D00011F460FF04C06F5F7F4F8F4F9F4F08959D
:1056E000EF93E0FF06C0A2EA2AED3FE049EC5FEB52
:1056F000BBDDE5DF0F90039401FC9058E5E9F0E095
:1057000097CF57FD9058440F551F59F05F3F71F0E8
:105710004795880F97FB991F61F09F3F79F0879518
:105720000895121613061406551FF2CF4695F1DFA1
:1057300008C0161617061806991FF1CF8695710531
:10574000610508940895E894BB2766277727CB0165
:1057500097F908951BDF08F48FEF08959B01AC01C2
:1057600060E070E080E89FE33BCE0BD0A8CF71DF14
:1057700028F076DF18F0952309F02CCF31CF1124D3
:10578000E3CFBFDFA0F3959FD1F3950F50E0551FF6
:10579000629FF001729FBB27F00DB11D639FAA2786
:1057A000F00DB11DAA1F649F6627B00DA11D661FD5
:1057B000829F2227B00DA11D621F739FB00DA11DF6
:1057C000621F839FA00D611D221F749F3327A00DB0
:1057D000611D231F849F600D211D822F762F6A2F4C
:1057E00011249F5750408AF0E1F088234AF0EE0FD1
:1057F000FF1FBB1F661F771F881F91505040A9F7DE
:105800009E3F510570F0E6CE9FCF5F3FECF3983E90
:10581000DCF3869577956795B795F795E7959F5F44
:10582000C1F7FE2B880F911D9695879597F90895DE
:105830009F931EDF0F9007FCEE5F52CF11F40EF422
:10584000CFCE45C066DFD0F39923D9F3CEF39F576F
:10585000550B87FF4AD00024A0E640EA900180580B
:105860005695979528F4805C660F771F881F20F067
:1058700026173707480730F4621B730B840B202967
:1058800031294A2BA69517940794202531254A27BC
:1058900058F7660F771F881F20F02617370748072D
:1058A00030F4620B730B840B200D311D411DA0954C
:1058B00081F7B901842F9158880F9695879508959F
:1058C0009B01AC0152CF62DE880B990B08959F3F7C
:1058D00031F0915020F4879577956795B795880FAB
:1058E000911D9695879597F9089591505040660FB0
:1058F000771F881FD2F70895DB018F939F930E9433
:10590000E12CBF91AF91A29F800D911DA39F900D9F
:10591000B29F900D1124089597FB072E16F4009462
:1059200007D077FD09D00E94632D07FC05D03EF417
:10593000909581959F4F0895709561957F4F08953B
:10594000A1E21A2EAA1BBB1BFD010DC0AA1FBB1F83
:10595000EE1FFF1FA217B307E407F50720F0A21BF5
:10596000B30BE40BF50B661F771F881F991F1A9462
:1059700069F760957095809590959B01AC01BD018C
:10598000CF010895052E97FB1EF400940E94D92C98
:1059900057FD07D00E94A02C07FC03D04EF40C94B6
:1059A000D92C50954095309521953F4F4F4F5F4FE3
:1059B000089590958095709561957F4F8F4F9F4F7B
:1059C00008950E947D2DA59F900DB49F900DA49FDA
:1059D000800D911D11240895689401C0E8948F9260
:1059E0009F92CF93DF930E94FA2CDF91CF919F90EB
:1059F0008F90089588249924F401E401B0E49F93E2
:105A0000AA279A158B049C04ED05FE05CF05D00747
:105A1000A10798F4AD2FDC2FCF2FFE2FE92D982C66
:105A2000892E982F872F762F652F542F432F322FB3
:105A30002227B85031F7BF9127C01B2EBF91BB273B
:105A4000220F331F441F551F661F771F881F991F82
:105A5000881C991CEE1FFF1FCC1FDD1FAA1FBB1F38
:105A60008A149B04EC05FD05CE05DF05A007B107F0
:105A700048F08A189B08EC09FD09CE09DF09A00B44
:105A8000B10B21601A94E1F62EF49401AF01BE012E
:105A9000CD01000C08950024A7FD00942A0F301DAD
:105AA000401D501D601D701D801D901D0895002417
:105AB000A7FD00942A1730054005500560057005C4
:105AC000800590050895AA1BBB1B51E107C0AA1FC2
:105AD000BB1FA617B70710F0A61BB70B881F991F8F
