:100000000C94E5040C9429270C9456270C940D05A8
:100010000C940D050C940D050C940D050C940D0518
:100020000C940D050C940D050C940D050C940D0508
:100030000C940D050C940D050C940D050C940D05F8
:100040000C9483270C940D050C94E12A0C94132B2B
:100050000C940D050C940D050C940D050C940D05D8
:100060000C949D1F0C940D05084AD73B3BCE016EA6
:1000700084BCBFFDC12F3D6C74319ABD56833DDAFF
:100080003D00C77F11BED9E4BB4C3E916BAAAABE0E
:10009000000000803F05A84CCDB2D44EB93836A937
:1000A000020C50B9918688083CA6AAAA2ABE000074
:1000B00000803F0001B202FFFF0190040923A13537
:1000C000016A020600016008000000000000000054
:1000D00000600440000000016202000000600400B3
:1000E000400000037B034CCD6C03AB033656760017
:1000F000680402CB47A202180400058BC1010C045E
:1001000000000000037F060CC92C97979703890312
:10011000264666006C022000024004000000000237
:1001200044040000000002480400000000024C04E7
:10013000000000000250040000000002540400000F
:10014000000002580400000000025C0400000000EF
:1001500002BC040000000001EC0400004000037F2A
:10016000060CC92C9797970402030D355D0409040A
:10017000872D353D00A3010000000001078601FE28
:10018000074105F120283038077E01300746019AE3
:10019000074704F1283038076C04F128303802167C
:1001A000020001FB00003E000B00360001000200CF
:1001B00003000000650054FFEF0000FA80000B12FE
:1001C00082000100020000000000000000000000AA
:1001D00000000000280000FFFF4581FFFFFA7200C9
:1001E000000000000003E80000000100017FFFFFA5
:1001F000FE8001001B000000000000000000000065
:10020000000000003E03304000000002CAE3093E47
:10021000800000200000000000000040000000609E
:1002200000000041FF000000000B2A0000165500EE
:10023000002182FD872650FD800000001F00000085
:100240000580000000000000010000000200000026
:10025000030000400000000000046F00026532004F
:10026000005EC04000000000000000000000000030
:10027000000000FB8C6F5DFD5D08D9007C733B00C6
:100280006C12CC3200139D3200D0D63200080040F0
:100290000001F4FFE68079020000000000D0D600E3
:1002A000002710FB000000400000000000000000DC
:1002B000000000000000010000000000000100013B
:1002C0000000000000FA36FFBC308E0005FBF0FF96
:1002D000D95BC8FFD09ABE000010A9FFF41EB2007F
:1002E000CEBBF70000000100000004000200020283
:1002F00000000CFFC280000001800000CF800040A1
:1003000000000000000001000000000000060000E6
:1003100000001400000000000000000000000000C9
:1003200000000000000000000000000000000000CD
:1003300000000000000000000000000000000000BD
:1003400000000000000000033F68B6793528BCC6F5
:100350007ED16C80000000400000000000B26A0006
:10036000000000000000000000000000003FF0005E
:10037000000030000000000000000000000000004D
:10038000000000000000000000000000000000006D
:100390000000000000254D002F706D000005AE002C
:1003A0000C02D00000000000650054FFEF000000C8
:1003B000000000000001000044000000000C0000EC
:1003C000000100000000000065000000540000FF74
:1003D000EF0000000000000000000000000000002E
:1003E00000000040000000000000000000000000CD
:1003F00000000040000000000000000000000000BD
:1004000000000000000001000000020000000000E9
:1004100000000000000000000000000000000000DC
:1004200000000000000000000000000000000000CC
:10043000000000001B0000000000000000000000A1
:1004400000000000000000000000000000000000AC
:10045000000000000000000000000000000000405C
:10046000000000001B000000000000000000000071
:10047000000000000000000000000000000000007C
:10048000000000000000000000000000000000006C
:10049000000000000000000000000000000000005C
:1004A000000000D8DCBAA2F1DEB2B8B4A88191F79E
:1004B0004A907F916AF3F9DBA8F9B0BAA080F2CE36
:1004C00081F3C2F1C1F2C3F3CCA2B280F1C6D880ED
:1004D000BAA7DFDFDFF2A7C3CBC5B6F087A29424AB
:1004E00048703C95406834589B78A2F183922D5512
:1004F0007DD8B1B4B8A1D09180F270F370F27C8055
:10050000A8F101B09887D943D886C988BAA1F20E5C
:10051000B89780F1A9DFDFDFAADFDFDFF2AAC5CD60
:10052000C7A90CC92C97979797F1A989264666B059
:10053000B4BA80ACDEF2CAF1B28C02A9B6980089D6
:100540000E161EB8A9B4992C547CB08AA8963656BB
:1005500076F1B9AFB4B083C0B8A89711B18F98B98C
:10056000AFF0240844106418F1A329557DAF83B57A
:1005700093AFF0002850F1A3869F61A6DADEDFD9A1
:10058000FAA38696DB31A6D9F8DFBAA68FC2C5C713
:10059000B28CC1B8A2DFDFDFA3DFDFDFD8D8F1B8CC
:1005A000A8B286B4980D355DB8AA98B0872D353DB0
:1005B000B2B6BAAF8C96198F9FA70E161EB49AB812
:1005C000AA872C547CB9A3DEDFDFA3B180F2C4CDAF
:1005D000C9F1B8A9B499830D355D89B9A32D557DAD
:1005E000B593A30E161EA92C547CB8B4B0F1978312
:1005F000A81184A50998A383F0DA2408441064188C
:10060000D8F1A529557DA58595021A2E3A565A404E
:1006100048F9F3A3D9F8F098832408441064189794
:1006200082A8F111F098A2240844106418DAF3DECD
:10063000D883A59401D9A302F1A2C3C5C7D8F18478
:1006400092A24DDA2AD84869D92AD86855DA32D820
:100650005071D932D8705DDA3AD85879D93AD87809
:1006600093A34DDA2AD84869D92AD86855DA32D8FE
:100670005071D932D8705DDA3AD85879D93AD878E9
:10068000A88A9AF02850789EF38818F19F1D98A8A0
:10069000D908D8C89F129EF315A8DA1210D8F1AF66
:1006A000C8978734B5B994A421F3D922D8F22DF391
:1006B000D92AD8F235F3D932D881A4606061D961E2
:1006C000D86C6869D969D8747071D971D8B1A384AC
:1006D000193D5DA3831A3E5E931030811011B8B0AE
:1006E000AF8F94F2DA3ED8B49AA88729DAF8D8877F
:1006F0009A35DAF8D8879A3DDAF8D8B1B9A498854E
:10070000022E56A581000C14A397B08AF12DD9288A
:10071000D84DD948D86DD968D8B1840DDA0ED8A390
:100720002983DA2C0ED8A3844983DA2C4C0ED8B84E
:10073000B0A88A9AF520AADADFD8A840AAD0DADED3
:10074000D8A860AADAD0DFD8F19786A8319B06999D
:1007500007AB9728889BF00C201440B8B0B4A88C45
:100760009CF0042851791D301438B282ABD0982CFB
:10077000505078789BF11AB0F08A9CA82951798B57
:100780002951798A2470598B2058718A4469388B91
:100790003940688A6448318B304960A588200971E6
:1007A000584468113964493019F1AC002C547CF07C
:1007B0008CA804285078F1889726A85998AC8C0208
:1007C000264666F0899CA8295179247059446938D5
:1007D000644831A98809205970AB11384069A819BB
:1007E0003148608CA83C415C207C00F187981986D8
:1007F000A86E767EA999882D557D9EB9A38A228AF6
:100800006E8A568A5E9FB183062646660E2E4E6E0F
:100810009DB8AD002C547CF2B18CB499B9A32D5580
:100820007D8191AC38AD3AB58391AC2DD928D84DA6
:10083000D948D86DD968D88C9DAE29D904AED85185
:10084000D904AED879D904D881F39DAD008DAE1905
:1008500081ADD901D8F2AEDA26D88E912983A7D9F5
:10086000ADADADADF32AD8D8F1B0AC89913E5E768E
:10087000F3AC2E2EF1B18C5A9CAC2C2828289CACC1
:100880003018A8988128343C9724A728343C9C240D
:10089000F2B089AC912C4C6C8A9B2DD9D8D851D907
:1008A000D8D879D9D8D8F19E88A331DAD8D8912D63
:1008B000D928D84DD948D86DD968D8B18393353D5A
:1008C0008025DAD8D88569DAD8D8B49381A32834BA
:1008D0003CF3AB8BF8A391B609B4D9ABDEFAB08781
:1008E0009CB9A3DDF1A3A3A3A395F1A3A3A39DF1B9
:1008F000A3A3A3A3F2A3B49080F2A3A3A3A3A3A34F
:10090000A3A3A3A3B2A3A3A3A3A3A3B087B599F161
:10091000A3A3A398F1A3A3A3A397A3A3A3A3F39B28
:10092000A3A3DCB9A7F1262626D8D8FF000000082B
:1009300000020100000304070000000000000000A6
:100940000102040810204080010204081020010266
:100950000408102004040404040404040202020233
:100960000202030303030303000000002300260028
:10097000290000000000250028002B0000000000D6
:10098000240027002A004E414E494E495459494EF1
:1009900046CDCCCC3D0AD7233C17B7D13877CC2BEA
:1009A000329595E6241FB14F0A000020410000C88F
:1009B0004200401C4620BCBE4CCA1B0E5AAEC59D10
:1009C00074001F17D51DBB1E432B11241FBECFEF74
:1009D000D8E0DEBFCDBF12E0A0E0B1E0EAE7FDE67F
:1009E00002C005900D92A236B107D9F725E0A2E624
:1009F000B2E001C01D92A638B207E1F719E0CAECD7
:100A0000D9E004C02297FE010E94A731C23CD10761
:100A1000C9F70E94872B0C94BB360C9400001F92E0
:100A20000F920FB60F9211242F938F939F93AF9332
:100A3000BF9323B1822F817090E04A9B03C0892B22
:100A400019F00EC0892B61F080916D0390916E03B7
:100A5000A0916F03B09170030196A11DB11D0BC051
:100A600080916D0390916E03A0916F03B09170031C
:100A70000197A109B10980936D0390936E03A09330
:100A80006F03B0937003BF91AF919F918F912F919E
:100A90000F900FBE0F901F9018951F920F920FB6D8
:100AA0000F9211242F938F939F93AF93BF9323B1F2
:100AB00021FB882780F990E04B9B03C0892B19F01C
:100AC0000EC0892B61F08091710390917203A09107
:100AD0007303B09174030196A11DB11D0BC08091E9
:100AE000710390917203A0917303B0917403019705
:100AF000A109B1098093710390937203A0937303CA
:100B0000B0937403BF91AF919F918F912F910F90EC
:100B10000FBE0F901F9018959C01FC01EE57FF4FE0
:100B200080819181680F791F6138710530F471837C
:100B300060830296820F931F089580E090E00895ED
:100B40009C01FC01EE5BFF4F80819181680F791F52
:100B50006134710530F4718360830296820F931FB4
:100B6000089580E090E00895609143017091440100
:100B70000E94031C0E94BA1A21E06130710509F03D
:100B800020E0209332010895609143017091440167
:100B90000E94031C0E94BA1A21E06130710509F01D
:100BA00020E02093F6030895609143017091440181
:100BB0000E94031C0E94BA1A21E06130710509F0FD
:100BC00020E020933301622F8CE00C943D290E9499
:100BD000961AFC0181E0208131812230310508F430
:100BE00080E00895CF93DF93EC0168E471E00E9408
:100BF000E705882311F168E471E0CE010E94031C2F
:100C000060E070E00E94151B0E94AB1A0E94252F25
:100C1000709364036093630368E471E0CE010E9403
:100C2000031C61E070E00E94151B0E94AB1A0E9439
:100C3000252F70936603609365036DE471E0CE0128
:100C40000E94E705882309F469C06DE471E0CE01D4
:100C50000E94031C60E070E00E94151B0E94AB1A0A
:100C6000609335017093360180933701909338017A
:100C70006DE471E0CE010E94031C61E070E00E940F
:100C8000151B0E94AB1A6093390170933A0180934F
:100C90003B0190933C016DE471E0CE010E94031C86
:100CA00062E070E00E94151B0E94AB1A60933D0148
:100CB00070933E0180933F01909340011092110385
:100CC0001092120310921303109214031092440313
:100CD00010924503109246031092470310920D03A1
:100CE00010920E0310920F03109210031092400303
:100CF0001092410310924203109243031092090391
:100D000010920A0310920B0310920C0310923C03F2
:100D100010923D0310923E0310923F0361E571E093
:100D2000CE010E94E705882309F45CC061E571E00B
:100D3000CE010E94031C60E070E00E94151B0E941F
:100D4000BA1A80E593E00E94922461E571E0CE0139
:100D50000E94031C61E070E00E94151B0E94BA1AF9
:100D600080E593E00E94982461E571E0CE010E9445
:100D7000031C62E070E00E94151B0E94BA1A80E515
:100D800093E00E949E2461E571E0CE010E94031C65
:100D900063E070E00E94151B0E94BA1A80E593E0A0
:100DA0000E94A42461E571E0CE010E94031C64E06E
:100DB00070E00E94151B0E94BA1A80E593E00E9421
:100DC000AA2461E571E0CE010E94031C65E070E099
:100DD0000E94151B0E94BA1A80E593E0DF91CF9123
:100DE0000C94B024DF91CF910895CF93DF93EC0161
:100DF00060914301709144010E94031C0E94BA1A41
:100E000021E06130710509F020E02093F703609143
:100E1000410170914201CE010E94E705882369F0EB
:100E20006091410170914201CE010E94031C0E9419
:100E3000BA1A70932D0160932C01DF91CF91089520
:100E40008F929F92AF92BF92CF92EF920F931F9388
:100E5000CF93DF93CDB7DEB7C059D1090FB6F89461
:100E6000DEBF0FBECDBF5C010E9483236EE170E048
:100E700080E090E00E94FC2760E0C5010E948A2388
:100E800021E041E060E1C5010E94C42466E0C501A3
:100E90000E94CF24C5010E94D52420E040E060E0FC
:100EA000C5010E94C424C5010E94FF23C5010E9400
:100EB0001D24182FC5010E944424882EC5010E94BC
:100EC0006B24982E4FE760E0C5010E94432360E049
:100ED000C5010E946E2348E660E0C5010E944323DD
:100EE000C5010E947C2364E170E080E090E00E94F4
:100EF000FC27EE24E39400E020E049E857E063EAB1
:100F000071E0C5010E943226882309F40EC240EC2C
:100F100050E063EE70E0C5010E94FA26882309F4D0
:100F200006C263E0C5010E94912362E1C5010E94EF
:100F30004F2364E0C5010E94F92261E0C5010E94CF
:100F4000FF2263E0C5010E940A2363E0C5010E94FD
:100F5000152363E0C5010E94FD2660E0C5010E94E3
:100F6000032760E0C5010E941624612FC5010E947D
:100F70003924682DC5010E946024692DC5010E9495
:100F80008724812C912CF401EC54FF4FE491A1E8CB
:100F9000B0E0AC0FBD1FA80DB11DEC9381E0880D32
:100FA0009FEF891A990AE3E0E81568F7CD57DF4FFC
:100FB0004881C358D04050E09A012E5F3F4F90E0E7
:100FC0002817390704F7C12CEE24E394CE57DF4FDE
:100FD0000881C258D040CF57DF4F2881C158D04038
:100FE00061E870E06C0F7D1F6D5F7F4FC5010E944F
:100FF000512560E0F401EC54FF4FE491A1E8B0E02A
:10100000AC0FBD1FA60FB11DEC936F5FFFEF8F1AE2
:101010009F0A643078F3CD57DF4F4881C358D040E2
:1010200050E09A012E5F3F4F862F90E02817390736
:101030000CF7C12CEE24E394CE57DF4F0881C25841
:10104000D040CF57DF4F2881C158D04061E870E0D1
:101050006C0F7D1F6D5F7F4FC5010E945125C5013B
:101060000E947523C5010E94B023482FBE016F5F07
:101070007F4FC5010E94CC2362E0C5010E942B2353
:101080006CE9C5010E94372360E5C5010E94312348
:1010900060E0C5010E943D23C5010E94752361E007
:1010A000C5010E94672361E0C5010E94B624C50105
:1010B0000E94BD2460E0F401EC54FF4FE491A1E8EC
:1010C000B0E0AC0FBD1FA60FB11DEC936F5F8FEFAB
:1010D000881A980A643078F3CD57DF4F4881C35897
:1010E000D04050E09A012E5F3F4F862F90E02817A6
:1010F00039070CF7C12CEE24E394CE57DF4F08815B
:10110000C258D040CF57DF4F2881C158D04061E846
:1011100070E06C0F7D1F6D5F7F4FC5010E945125F0
:1011200060E0F401EC54FF4FE491A1E8B0E0AC0FB3
:10113000BD1FA60FB11DEC936F5F9FEF891A990A2F
:10114000643078F3CD57DF4F4881C358D04050E02A
:101150009A012E5F3F4F862F90E0281739070CF732
:10116000C12CEE24E394CE57DF4F0881C258D04003
:10117000CF57DF4F2881C158D04061E870E06C0F35
:101180007D1F6D5F7F4FC5010E94512560E0F40116
:10119000EC54FF4FE491A1E8B0E0AC0FBD1FA60FE7
:1011A000B11DEC936F5FEFEF8E1A9E0A643078F3F7
:1011B000CD57DF4F4881C358D04050E09A012E5F91
:1011C0003F4F862F90E0281739070CF7C12CEE24EB
:1011D000E394CE57DF4F0881C258D040CF57DF4F3E
:1011E0002881C158D04061E870E06C0F7D1F6D5FB1
:1011F0007F4FC5010E945125C5010E94B023833055
:101200009105D0F3482FBE016F5F7F4FC5010E944B
:10121000CC23C5010E94552360E0F401EC54FF4F3C
:10122000E491A1E8B0E0AC0FBD1FA60FB11DEC9397
:101230006F5FFFEF8F1A9F0A643078F3CD57DF4F4F
:101240004881C358D04050E09A012E5F3F4F862F0F
:1012500090E0281739070CF7CE57DF4F0881C258A6
:10126000D040CF57DF4F2881C158D04061E870E0AF
:101270006C0F7D1F6D5F7F4FC5010E94E724C50184
:101280000E94B02383309105D0F3482FBE016F5FD9
:101290007F4FC5010E94CC23C5010E945523F40154
:1012A000EC54FF4F60E08491A1E8B0E0AC0FBD1FAB
:1012B000A60FB11D8C936F5F643010F43196F3CF9D
:1012C000CD57DF4F4881C358D04050E09A012E5F80
:1012D0003F4F862F90E02817390784F761E870E0C8
:1012E0006C0F7D1F6D5F7F4FC12CEE24E394CE57B2
:1012F000DF4F0881C258D040CF57DF4F2881C158F7
:10130000D040C5010E94512560E0C5010E94B6246D
:101310008AE290E0F50193838283C5010E947523E0
:10132000C5010E94552380E003C081E001C082E036
:10133000C057DF4F0FB6F894DEBF0FBECDBFDF91B1
:10134000CF911F910F91EF90CF90BF90AF909F9052
:101350008F900895CF93DF93DB01FA01309719F452
:10136000EC01E881F981808190E0982F8827218124
:10137000820F911D11969C938E93848190E0982FFB
:1013800088272581820F911D13969C938E93129727
:10139000808590E0982F88272185820F911D1596D2
:1013A0009C938E931497848590E0982F88272585A9
:1013B000820F911D17969C938E93169780E0DF9174
:1013C000CF910895FF920F931F93CF93DF93CDB7E3
:1013D000DEB728970FB6F894DEBF0FBECDBF8B01E6
:1013E000BE016F5F7F4F0E94AA09F82E81114CC089
:1013F00069817A81882777FD8095982F0E94582FE0
:1014000020E030E040E858E30E948230F801608339
:101410007183828393836B817C81882777FD80959C
:10142000982F0E94582F20E030E040E858E30E94B7
:101430008230F80164837583868397836D817E8112
:10144000882777FD8095982F0E94582F20E030E064
:1014500040E858E30E948230F801608771878287F4
:1014600093876F817885882777FD8095982F0E94D4
:10147000582F20E030E040E858E30E948230F80125
:1014800064877587868797878F2D28960FB6F8947F
:10149000DEBF0FBECDBFDF91CF911F910F91FF90A7
:1014A00008954F925F926F927F928F929F92AF9228
:1014B000BF92CF92DF92EF92FF920F931F93CF9341
:1014C000DF93CDB7DEB728970FB6F894DEBF0FBE17
:1014D000CDBF8B01DA011496CD90DD90ED90FC909C
:1014E00017971C964D905D906D907C901F978D90F6
:1014F0009D90AD90BC90139718968D919D910D90F5
:10150000BC91A02D89839A83AB83BC83A3019201F4
:10151000C701B6010E9482306D837E838F839887D6
:1015200029813A814B815C81C501B4010E948230DE
:101530009B01AC016D817E818F8198850E94EF2D8A
:101540009B01AC010E94F02DF801608371838283BE
:101550009383A7019601C501B4010E9482306D8377
:101560007E838F839887A301920169817A818B8121
:101570009C810E9482309B01AC016D817E818F81B4
:1015800098850E94F02D9B01AC010E94F02DD8019E
:1015900014966D937D938D939C931797A501940159
:1015A000C501B4010E9482304B015C01A701960184
:1015B000C701B6010E9482309B01AC01C501B40194
:1015C0000E94EF2D6B017C0129813A814B815C8166
:1015D000CA01B9010E9482309B01AC01C701B6016A
:1015E0000E94EF2D6B017C01A3019201C301B201A6
:1015F0000E9482309B01AC01C701B6010E94F02D10
:10160000F801608771878287938780E028960FB6FC
:10161000F894DEBF0FBECDBFDF91CF911F910F9128
:10162000FF90EF90DF90CF90BF90AF909F908F9002
:101630007F906F905F904F9008952F923F924F92BE
:101640005F926F927F928F929F92AF92BF92CF9252
:10165000DF92EF92FF920F931F93CF93DF9300D00F
:1016600000D000D0CDB7DEB71B018A013E832D83A9
:10167000FA01C080D180E280F380A7019601C70102
:10168000B6010E94F02D69837A838B839C83F801D5
:1016900084809580A680B780A5019401C501B4011E
:1016A0000E94F02D2B013C01A701960169817A81EE
:1016B0008B819C810E9482306B017C01A501940189
:1016C000C301B2010E9482309B01AC01C701B60187
:1016D0000E94F02D20E030E040E85FE30E94EF2D13
:1016E0006B017C01F8012085318542855385C3015A
:1016F000B2010E9482302B013C01F801248535851E
:101700004685578569817A818B819C810E948230D0
:101710009B01AC01C301B2010E94EF2DA70196010C
:101720000E94632EF1016083718382839383ED8134
:10173000FE816481758186819781C084D184E28431
:10174000F3849B01AC010E9482304B015C01A70134
:101750009601C701B6010E9482309B01AC01C50110
:10176000B4010E94F02D0E94EF309B01AC01ED818D
:10177000FE8160817181828193810E94BD2E0E94D1
:101780008E2EF1016483758386839783ED81FE81BC
:101790006081718182819381C084D184E284F384E9
:1017A0009B01AC010E9482304B015C01A7019601B4
:1017B000C701B6010E9482309B01AC01C501B40192
:1017C0000E94F02D0E94EF309B01AC01ED81FE8163
:1017D00064817581868197810E94BD2E0E948E2E24
:1017E000F101608771878287938780E026960FB624
:1017F000F894DEBF0FBECDBFDF91CF911F910F9147
:10180000FF90EF90DF90CF90BF90AF909F908F9020
:101810007F906F905F904F903F902F9008954F92E0
:101820005F926F927F928F929F92AF92BF92CF9270
:10183000DF92EF92FF920F931F93CF93DF93EC0110
:101840007B01882777FD8095982F0E94582F2B01C8
:101850003C012D813E814F8158850E94B62E882300
:10186000A1F18C80F7FE03C081E08825882EB701A6
:10187000F7FE03C0719561957109882777FD809502
:10188000982F1F921F921F922FEF2F93A12CB12CF4
:10189000650114E6E12EF12C00E010E020E030E0DC
:1018A000A9010E94A72D6B017C01682D89810E94EE
:1018B0003D29B60188810E947C284D825E826F821C
:1018C00078860F900F900F900F90DF91CF911F911E
:1018D0000F91FF90EF90DF90CF90BF90AF909F90CF
:1018E0008F907F906F905F904F9008956F927F924E
:1018F0008F929F92AF92BF92CF92DF92EF92FF9220
:101900000F931F93CF93DF93EC014A015B0160912A
:10191000650370916603882777FD8095982F0E9454
:10192000582F9B01AC01C501B4010E94823020E018
:1019300030E048EC52E40E94BD2E6BA77CA78DA737
:101940009EA7EF8AF88E098F1A8FCE2CDF2C780194
:10195000F7FE08C0F094E094D094C094C11CD11C50
:10196000E11CF11C21E03FEFC316D306E3063FE77D
:10197000F30609F420E02E8B11E020E030E0A9010D
:101980000E94B62E811101C010E01D8B20E030E0D6
:10199000A901C501B4010E94B62E811114C0109294
:1019A000790310927A0310927B0310927C031092B9
:1019B00075031092760310927703109278031F8EAE
:1019C00018A219A21AA2DF91CF911F910F91FF9037
:1019D000EF90DF90CF90BF90AF909F908F907F90CF
:1019E0006F900895EF92FF920F931F93CF93DF9321
:1019F000EC01EE24EA94FE2C0FEF1FE720E030E02C
:101A000040E050E0BA010E94760CEB8119861A86FC
:101A10001B861C86198A1A8A1B8A1C8A84E0E89F06
:101A2000F0011124E359FC4F1082118212821382BB
:101A30001BA21CA21DA21EA21FA218A619A61AA6AE
:101A40001F8E18A219A21AA20E94CD2760938103AB
:101A5000709382038093830390938403DF91CF91EB
:101A60001F910F91FF90EF900895CF92DF92EF9228
:101A70000F93CF93DF931F92CDB7DEB76C01862F04
:101A8000F6016083418322830383E48290913301D2
:101A9000992399F061E049830E94042961E049811A
:101AA000842F0E940429C6010F90DF91CF910F91DE
:101AB000EF90DF90CF900C94F20C0F90DF91CF91CC
:101AC0000F91EF90DF90CF9008952F923F924F9219
:101AD0005F926F927F928F929F92AF92BF92CF92BE
:101AE000DF92EF92FF920F931F93CF93DF93CDB7C7
:101AF000DEB72C970FB6F894DEBF0FBECDBF8DA01A
:101B00009EA02FA038A40E94EF2D6D837E838F832B
:101B100098872BA53CA54DA55EA50E9482309B0110
:101B2000AC01D1016D917D918D919C910E94F02D20
:101B3000F1016083718382839383D4012D913D9160
:101B40004D915C916D817E818F8198850E94EF2DF2
:101B500069877A878B879C8720E030E048E452E4ED
:101B60006BA57CA58DA59EA50E9482309B01AC0132
:101B700069857A858B859C850E94BD2E69837A83D1
:101B80008B839C83E9A5FAA5608371838283938309
:101B90002D813E814F815885C801B7010E94823056
:101BA0002B013C01F1012081318142815381C60129
:101BB000B5010E9482309B01AC01C301B2010E94B9
:101BC000F02D2B013C0129813A814B815C8169A177
:101BD0007AA18BA19CA10E9482309B01AC01C30120
:101BE000B2010E94F02DED80FE800F811885D40196
:101BF000ED92FD920D931C9313972C960FB6F894CB
:101C0000DEBF0FBECDBFDF91CF911F910F91FF902F
:101C1000EF90DF90CF90BF90AF909F908F907F908C
:101C20006F905F904F903F902F9008952F923F922A
:101C30004F925F926F927F928F929F92AF92BF92DC
:101C4000CF92DF92EF92FF920F931F93CF93DF9388
:101C5000CDB7DEB72C970FB6F894DEBF0FBECDBF61
:101C60001C016B01DC011D962D913D914D915C9104
:101C7000509751968D919D910D90BC91A02D281B50
:101C8000390B4A0B5B0BA8EEB3E00E949A31960128
:101C900040E050E029833A834B835C830E947B3190
:101CA000CA01B9010E94582F2B013C01D1019F9616
:101CB0006D937D938D939C93D297A0903901B090B2
:101CC0003A01C0903B01D0903C0120913501309108
:101CD000360140913701509138012D833E834F8367
:101CE00058879B968D919D910D90BC91A02D8987D1
:101CF0009A87AB87BC8769817A818B819C810E949E
:101D0000562F20E030E04AE754E40E94BD2E9F9316
:101D10008F937F936F93C10187969F938F930497BF
:101D20009F938F9304979F938F93809140018F93FC
:101D300080913F018F9380913E018F9380913D016F
:101D40008F93ED80FE800F811885A3019201698534
:101D50007A858B859C850E94650D4B015C01F101A4
:101D6000C3A4D4A4E5A4F6A40FB6F894DEBF0FBEB6
:101D7000CDBF20E030E0A901C701B6010E94B62E18
:101D8000882309F45AC020E030E0A901D1019F96D0
:101D90006D917D918D919C91D2970E94B62E882352
:101DA000A1F1F101238D348D458D568DC501B4010E
:101DB0000E94F02D6B017C0120E030E048EC52ECF9
:101DC0000E94B62E87FD0FC020E030E048EC52E4C0
:101DD000B601C7010E947730181654F4C12CD12CDB
:101DE00098EC82E407C0C12CD12C98EC82EC02C0A4
:101DF0009E2D8F2DA601692F782FD1015B964D93D3
:101E00005D936D937C935E971FC020E030E0A90145
:101E1000C701B6010E94773087FD05C040E050E061
:101E200068E472E404C040E050E068E472ECF10160
:101E3000438F548F658F768F07C0D1015B961D92BB
:101E40001D921D921C925E97F1014585568567850E
:101E50007089418B528B638B748B2C960FB6F894E0
:101E6000DEBF0FBECDBFDF91CF911F910F91FF90CD
:101E7000EF90DF90CF90BF90AF909F908F907F902A
:101E80006F905F904F903F902F9008951092710344
:101E900010927203109273031092740310926D03E8
:101EA00010926E0310926F031092700362E082E052
:101EB0000E94042962E083E00E94042962E088E035
:101EC0000E94042962E089E00E94042941E050E078
:101ED0006FE075E080E00E94092741E050E06DE48A
:101EE00075E081E00E94092780913301882341F148
:101EF00061E085E00E94042960E085E00E943D29C0
:101F000061E086E00E94042960E086E00E943D29AD
:101F100061E08BE00E94042960E08BE00E943D2993
:101F200061E081E10E94042960E081E10E943D2995
:101F30008DE193E00E94F20C8AEE92E00E94F20C96
:101F40001092750310927603109277031092780323
:101F50001092790310927A0310927B0310927C0303
:101F600010927D0310927E0310927F0310928003E3
:101F7000109233010895EF92FF920F931F93CF9326
:101F8000DF937C010CE011E0C0E0D0E06CED71E08B
:101F9000C7010E94031C0E949F1ABC01F8018081A6
:101FA00091810E9478360C5F1F4F892B81F4CC0FF2
:101FB000DD1FCC0FDD1FC45FDE4FEA81FB81C7014F
:101FC000DF91CF911F910F91FF90EF90099421968F
:101FD000C730D105D9F6DF91CF911F910F91FF90B6
:101FE000EF9008958C01C0E0D0E0C017D107B4F4A1
:101FF00061E08DE00E943D2968EC70E080E090E0B7
:102000000E94FC2760E08DE00E943D2968EC70E0B2
:1020100080E090E00E94FC272196E7CF68E572E01F
:1020200080E090E00E94FC27DECF26E040E052EC0A
:1020300061E070E083EE94E00E947F2A64E170E04A
:1020400080E090E00E94FC2761E08DE00E9404297E
:1020500061E08CE00E94042962E084E00E9404298F
:1020600060E08DE00E943D2960E08CE00E943D2907
:102070000E94460F80913401882309F47FC086E1D5
:1020800094E00E94811E88E18093B80062E087E0BE
:102090000E94042980E593E00E949C236AE070E09E
:1020A00080E090E00E94FC2780E593E00E94F72307
:1020B00080E593E00E9420078093EF036AE070E0E0
:1020C00080E090E00E94FC278091EF0381113CC0EA
:1020D00061E080E593E00E94B6246AE070E080E071
:1020E00090E00E94FC2780E593E00E9455238093B6
:1020F000F103809152038093F0036CED70E080E572
:1021000093E00E94A4246CE470E080E593E00E94D8
:10211000AA246BEA7FEF80E593E00E94B0246CEF85
:1021200076E080E593E00E949E240E94CD27605DCA
:102130007A488F4F9F4F609363027093640280933D
:102140006502909366021AC065E571E083EE94E043
:102150000E94D42B4AE050E06091EF0383EE94E0BC
:102160000E94B32C66E671E083EE94E00E94F12BAE
:102170008091EF0390E001960E94F20F68E671E013
:1021800083EE94E00C94F12BCF92DF92EF92FF92CA
:10219000CF93DF93EC01C880D980EA80FB802BEDE0
:1021A0003FE049E450E4C701B6010E9477301816B9
:1021B0006CF42BED3FE049EC50E4C701B6010E94FE
:1021C000EF2D688379838A839B83E5CF2BED3FE0F6
:1021D00049E450EC6091FC037091FD038091FE0393
:1021E0009091FF030E94B62E87FF0FC02BED3FE0BA
:1021F00049EC50E4688179818A819B810E94F02DAD
:10220000688379838A839B83E1CFDF91CF91FF90AD
:10221000EF90DF90CF9008958F929F92AF92BF92F0
:10222000CF92DF92EF92FF921F93CF93DF93CDB7C0
:10223000DEB728970FB6F894DEBF0FBECDBF6B0197
:102240007C0149015A010E94EF2D6D837E838F83AB
:102250009887A5019401C701B6010E94F02D6983FA
:102260007A838B839C83CE0105960E94C410CE0195
:1022700001960E94C410C090FC03D090FD03E09032
:10228000FE03F090FF032D813E814F815885C701E9
:10229000B6010E94773087FD0EC011E029813A8196
:1022A0004B815C81C701B6010E94B62E18160CF452
:1022B00010E0812F01C080E028960FB6F894DEBFB1
:1022C0000FBECDBFDF91CF911F91FF90EF90DF90B8
:1022D000CF90BF90AF909F908F900895CF93DF9352
:1022E000EC018DE193E00E94F20C8AEE92E00E94F4
:1022F000F20C1092FC031092FD031092FE03109258
:10230000FF03109200041092010410920204109234
:102310000304109204041092050410920604109213
:10232000070460E971E0CE010E94E705882379F097
:1023300060E971E0CE010E94031C0E94AB1A609319
:10234000040470930504809306049093070462E9E3
:1023500071E0CE010E94E705882379F062E971E01F
:10236000CE010E94031C0E94AB1A6093000470937C
:102370000104809302049093030464E971E0CE01A8
:102380000E94E7058823A9F064E971E0CE010E946C
:10239000031C0E94AB1A25E33AEF4EE85CE30E946F
:1023A00082306093FC037093FD038093FE0390934F
:1023B000FF038CEF93E00E94C410209185033091BD
:1023C000860340918703509188036091FC037091CC
:1023D000FD038091FE039091FF030E94F02D609316
:1023E000F8037093F9038093FA039093FB03DF9152
:1023F000CF910C948D144F925F926F927F92AF9217
:10240000BF92CF92DF92EF92FF920F931F93CF93E1
:10241000DF9300D000D0CDB7DEB76C0166E971E084
:102420000E94E705882349F066E971E0C6010E9431
:10243000031C0E94BA1A5B0102C0A12CB12C6AE9EC
:1024400071E0C6010E94E705882311F16AE971E095
:10245000C6010E94031C0E94AB1A2B013C0120E024
:1024600030E0A9010E94773087FD06C0EE24EA948F
:10247000FE2C0FEF1FE705C0EE24E394F12C00E0E3
:1024800010E89501B301A2018DE193E00E94760C62
:102490006DE971E0C6010E94E705882311F16DE93D
:1024A00071E0C6010E94031C0E94AB1A2B013C0183
:1024B00020E030E0A9010E94773087FD06C0EE24BD
:1024C000EA94FE2C0FEF1FE705C0EE24E394F12CF5
:1024D00000E010E89501B301A2018AEE92E00E94AB
:1024E000760C60EA71E0C6010E94E705882321F1BD
:1024F00060EA71E0C6010E94031C0E94AB1A25E34A
:102500003AEF4EE85CE30E94823069837A838B83E2
:102510009C83CE0101960E94C41089819A81AB816F
:10252000BC818093670390936803A0936903B09381
:102530006A0381E080936C030F900F900F900F90CF
:10254000DF91CF911F910F91FF90EF90DF90CF908F
:10255000BF90AF907F906F905F904F9008954F9293
:102560005F926F927F928F929F92AF92BF92CF9223
:10257000DF92EF92FF921F93CF93DF93CDB7DEB739
:102580002C970FB6F894DEBF0FBECDBFE0912003AD
:1025900080912103F0E08823B1F0EE0FFF1FEE0FD2
:1025A000FF1FE359FC4F80819181A281B3812227D3
:1025B0003327A901281B390B4A0B5B0B2D833E8364
:1025C0004F83588711C09F01220F331F220F331FE3
:1025D00023593C4FD9018D919D910D90BC91A02D17
:1025E0008D839E83AF83B887E091ED028091EE02E8
:1025F000F0E08823B1F0EE0FFF1FEE0FFF1FE3594D
:10260000FC4F80819181A281B38122273327A901C8
:10261000281B390B4A0B5B0B29873A874B875C8752
:1026200011C09F01220F331F220F331F23593C4F2C
:10263000D9018D919D910D90BC91A02D89879A878C
:10264000AB87BC87C0906303D0906403EE24D7FCB3
:10265000E094FE2C8091260390912703A0912803FB
:10266000B09129032D813E814F815885281B390B5C
:102670004A0B5B0BA8EEB3E00E949A31A7019601CA
:102680000E947B31CA01B9010E94582F4B015C01A5
:102690008091F3029091F402A091F502B091F602BC
:1026A00029853A854B855C85281B390B4A0B5B0BCA
:1026B000A8EEB3E00E949A31A70196010E947B31F7
:1026C000CA01B9010E94582F2B013C012091F80347
:1026D0003091F9034091FA035091FB036091850317
:1026E0007091860380918703909188030E94EF2D5B
:1026F00069837A838B839C8321EE3EE245E652E434
:102700000E9482306B017C0120E030E0A9010E9430
:10271000773018166CF411E02DEC3CEC4CEC5DE3DA
:10272000C701B6010E947730181674F010E00CC093
:102730002DEC3CEC4CEC5DEBC701B6010E94B62ED3
:10274000182F111F1127111FA3019201C501B401F8
:102750000E94F02D20E030E040E05FE30E948230F4
:102760006B017C0120E030E0A9010E94773018164F
:102770005CF420E030E040E85FE3C701B6010E946E
:102780007730181654F00AC020E030E040E85FEBE4
:10279000C701B6010E94B62E87FD11E08090FC03B0
:1027A0009090FD03A090FE03B090FF0320E030E086
:1027B00040E05FE369817A818B819C810E94823055
:1027C0009B01AC01C501B4010E94F02D2B013C011D
:1027D0000E94E5309B01AC01C701B6010E94823026
:1027E0009B01AC0160910404709105048091060482
:1027F000909107040E94F02D6093040470930504E7
:102800008093060490930704C301B2010E94BA2E7C
:102810009B01AC01C701B6010E9482309B01AC0153
:10282000609100047091010480910204909103046E
:102830000E94F02D609300047093010480930204C1
:102840009093030429813A814B815C81C501B401D5
:102850000E94F02D6093FC037093FD038093FE03B0
:102860009093FF038CEF93E00E94C4104091850386
:102870005091860360918703709188034093F80319
:102880005093F9036093FA037093FB032D813E810B
:102890004F815885209326033093270340932803C4
:1028A0005093290389859A85AB85BC858093F30273
:1028B0009093F402A093F502B093F602812F2C9628
:1028C0000FB6F894DEBF0FBECDBFDF91CF911F9141
:1028D000FF90EF90DF90CF90BF90AF909F908F9040
:1028E0007F906F905F904F900895CF93DF9300D0CB
:1028F00000D0CDB7DEB77A8369831C821B82BE010C
:102900006F5F7F4F0E949E1B8B819C810F900F9069
:102910000F900F90DF91CF910895CF92DF92EF92B9
:10292000FF920F931F93CF93DF93CDB7DEB7C454BD
:10293000D1090FB6F894DEBF0FBECDBF8DE092E097
:102940009A83898325961FAE1EAE2597CE010196E8
:102950000E94631A8C0166EA71E00E94031C68EA17
:1029600071E00E94D41A20E030E04AE754E460911C
:1029700004047091050480910604909107040E945C
:10298000BD2E6B017C0160E971E0C8010E94031C4F
:1029900024E0B701A6010E94E01A20E030E04AE7F7
:1029A00054E46091000470910104809102049091BC
:1029B00003040E94BD2E6B017C0162E971E0C80135
:1029C0000E94031C24E0B701A6010E94E01A21EE38
:1029D0003EE245E652E46091FC037091FD03809174
:1029E000FE039091FF030E9482306B017C0164E939
:1029F00071E0C8010E94031C21E0B701A6010E94FA
:102A0000E01A63EE74E0C8010E94751483EE94E04E
:102A10000E94DD2BCC5BDF4F0FB6F894DEBF0FBEFC
:102A2000CDBFDF91CF911F910F91FF90EF90DF907D
:102A3000CF900895CF92DF92EF92FF920F931F9362
:102A4000CF93DF93CDB7DEB7C458D1090FB6F89452
:102A5000DEBF0FBECDBF83E192E09A838983CD575D
:102A6000DF4F19821882C358D040CE0101960E94D0
:102A7000631A8C0166EA71E00E94031C6DEA71E042
:102A80000E94D41AC0904803D0904903E0904A03B2
:102A9000F0904B0367EB71E0C8010E94031C22E039
:102AA000B701A6010E94E01AC0904C03D0904D03DC
:102AB000E0904E03F0904F036AEB71E0C8010E9472
:102AC000031C22E0B701A6010E94E01AC090400357
:102AD000D0904103E0904203F09043036DEB71E02E
:102AE000C8010E94031C22E0B701A6010E94E01A5F
:102AF000C0904403D0904503E0904603F090470314
:102B000060EC71E0C8010E94031C22E0B701A6013D
:102B10000E94E01AC0902203D0902303E090240387
:102B2000F090250363EC71E0C8010E94031C22E0D1
:102B3000B701A6010E94E01A80911F030E945F283E
:102B40007C0167EC71E0C8010E94031CA7016627A5
:102B500057FD6095762F0E94EF1A63EE74E0C8016E
:102B60000E94751483EE94E00E94DD2BCC57DF4F5A
:102B70000FB6F894DEBF0FBECDBFDF91CF911F918E
:102B80000F91FF90EF90DF90CF900895FF920F93F9
:102B90001F93CF93DF93CDB7DEB7C454D1090FB6DF
:102BA000F894DEBF0FBECDBFF82E2DE032E03A83A1
:102BB000298325961FAE1EAE2597CE0101960E9451
:102BC000631A8C0166EA71E00E94031C6AEC71E0F2
:102BD0000E94D41A6091430170914401C8010E947F
:102BE000031C4F2D50E060E070E00E94EF1A63EE8E
:102BF00074E0C8010E94751483EE94E00E94DD2BFE
:102C0000CC5BDF4F0FB6F894DEBF0FBECDBFDF91B8
:102C1000CF911F910F91FF900895FF920F931F93F3
:102C2000CF93DF93CDB7DEB7C454D1090FB6F89474
:102C3000DEBF0FBECDBFF82E2DE032E03A832983F0
:102C400025961FAE1EAE2597CE0101960E94631AEF
:102C50008C0110926B0310926C0366EA71E00E9483
:102C6000031C61ED71E00E94D41A609143017091E0
:102C70004401C8010E94031C4F2D50E060E070E049
:102C80000E94EF1A63EE74E0C8010E94751483EE8F
:102C900094E00E94DD2BCC5BDF4F0FB6F894DEBFD3
:102CA0000FBECDBFDF91CF911F910F91FF9008957F
:102CB0008F929F92AF92BF92EF92FF920F931F93CA
:102CC000CF93DF930E94CD274B015C01809181035C
:102CD00090918203E401C81BD90B80916C03882377
:102CE00081F060916703709168038091690390910E
:102CF0006A0322EC38EB42EB5DE30E940C11811178
:102D000083C0E091200380912103F0E0EE0FFF1FCC
:102D1000EE0FFF1FE359FC4F882361F08081918102
:102D2000A281B381B095A095909581959F4FAF4FAB
:102D3000BF4F04C080819181A281B38180932A0317
:102D400090932B03A0932C03B0932D03E091ED02FD
:102D50008091EE02F0E0EE0FFF1FEE0FFF1FE35930
:102D6000FC4F882361F080819181A281B381B0956D
:102D7000A095909581959F4FAF4FBF4F04C0808124
:102D80009181A281B3818093F7029093F802A0937E
:102D9000F902B093FA02BE018DE193E00E94160E93
:102DA000BE018AEE92E00E94160E60913803709187
:102DB000390380913A0390913B030E94252F8DE1C6
:102DC00093E00E940F0C60910503709106038091BF
:102DD0000703909108030E94252F8AEE92E00E943B
:102DE0000F0C8092810390928203A0928303B09291
:102DF0008403DF91CF911F910F91FF90EF90BF90CF
:102E0000AF909F908F900895E12CF12C870120E0E6
:102E100030E040E050E0BA018DE193E00E94760C92
:102E200020E030E040E050E0BA018AEE92E00E94FB
:102E3000760C10926C0381E00E940D1662CFEF9227
:102E40000F931F9380E090E0A0E8BFE380939D0381
:102E500090939E03A0939F03B093A0031092A103AD
:102E60001092A2031092A3031092A4031092A50340
:102E70001092A6031092A7031092A8031092A90320
:102E80001092AA031092AB031092AC03109291031C
:102E90001092920310929303109294031092950350
:102EA0001092960310929703109298031092990330
:102EB00010929A0310929B0310929C0382EC91E073
:102EC000909366038093650380E593E00E94F5226A
:102ED000EE24E39400E010E020E130E04BE050E02D
:102EE00065E070E08DE193E00E94350DE12C01E09A
:102EF00010E02FE030E041E150E066E070E08AEE63
:102F000092E00E94350D1F910F91EF9008950F935D
:102F10001F93CF93DF93CDB7DEB7C458D1090FB657
:102F2000F894DEBF0FBECDBF83EE94E00E949C29D3
:102F3000892B09F44EC083EE94E00E94B5292091BC
:102F4000E8023091E9028A3089F5C901019690932F
:102F5000E9028093E802F901E859FD4F108283E10C
:102F600092E09A838983CD57DF4F19821882C35824
:102F7000D0404AE068E672E0CE0101960E94BD1D95
:102F80008C016CED71E00E94E705882321F0C801F7
:102F90000E94BB0F06C067ED71E083EE94E00E94D3
:102FA000F12B1092E9021092E80213C0A9014F5FC1
:102FB0005F4F5093E9024093E802F901E859FD4F51
:102FC00080834038510508F4AFCF84E090E00E9440
:102FD000F20FCC57DF4F0FB6F894DEBF0FBECDBF58
:102FE000DF91CF911F910F9108950F931F93CF936E
:102FF000DF930E9487178091620281112AC020917D
:1030000028013091290140E050E06091F203709175
:10301000F3038091F4039091F5030E945931672BDB
:10302000682B692BB1F40E94CD27009163021091A7
:10303000640220916502309166020617170728077F
:10304000390738F481E0809362028093F6030E948E
:103050000D16809132018823E9F101E010E020E0B3
:1030600030E080912A0190912B01892B19F000E02A
:1030700010E098014091F2035091F3036091F40342
:103080007091F5034023512362237323452B462B74
:10309000472B01F180916702811119C089B1829596
:1030A0008170C82F20E0D22F80910A0190910B01EE
:1030B000C817D90779F0D0930B01C0930A0183E0B8
:1030C000809367028C2F81700E94C61503C08150C7
:1030D00080936702809133018823B1F020912E0103
:1030E00030912F0140E050E06091F2037091F303C2
:1030F0008091F4039091F5030E945931672B682B5E
:10310000692B11F40E945816209130013091310141
:1031100040E050E06091F2037091F3038091F4037A
:103120009091F5030E945931672B682B692B49F464
:103130000E94AF12882329F08091F60381110E942A
:103140008D1420912C0130912D0140E050E06091D0
:10315000F2037091F3038091F4039091F5030E94C0
:103160005931672B682B692B81F48DE00E947329FC
:1031700061E0892B09F060E08DE00E943D2980919B
:10318000F703882311F01D995FC0809134018823D3
:1031900009F442C04F9B40C080E593E00E94552354
:1031A0008093F10380E593E00E94B0239093EE03B7
:1031B0008093ED032091F10324FD49C081159440D3
:1031C00009F445C08091F10381FF22C04091F003D2
:1031D0006DEA73E080E593E00E94CC234DEA53E072
:1031E0006DE973E080E593E00E94E2094DE953E068
:1031F00061E973E080E593E00E94510A21E933E040
:103200004DE953E065E873E080E593E00E941D0B13
:1032100080E593E00E9475238091F2039091F3037F
:10322000A091F403B091F5030196A11DB11D809307
:10323000F2039093F303A093F403B093F503DF91AB
:10324000CF911F910F9108950E941A159ECF60EEA5
:1032500071E083EE94E00E94F12BB4CFCF93DF9323
:10326000EC0188819981DC01ED91FC910190F08164
:10327000E02D09952A813B81280F391F3B832A8342
:10328000DF91CF910895DB01ED91FC9111970190B1
:10329000F081E02DBC01CD0109940F931F93CF93D2
:1032A000DF938C01F801C281D3818881992787FD42
:1032B00090950E944236892B29F02196F801D383FC
:1032C000C283F0CFDF91CF911F910F9108950F939B
:1032D0001F93CF93DF931F92CDB7DEB78C01698325
:1032E0000E944D19D8011296ED91FC91139780819F
:1032F000698186130AC031961396FC93EE93129758
:10330000C8010E944D1981E001C080E00F90DF915B
:10331000CF911F910F910895FB012191BF012223AD
:1033200079F0DC011296ED91FC9113973081321304
:1033300007C03196DC011396FC93EE931297ECCF05
:1033400081E0211180E00895BF92CF92DF92EF9249
:10335000FF920F931F93CF93DF937C01EB010097B4
:1033600071F465E172E0CE01DF91CF911F910F9171
:10337000FF90EF90DF90CF90BF900C94D42BE8811A
:10338000F9810190F081E02D62E2CE0109958C0176
:10339000F70161917F01662351F0E5E2F2E0B08030
:1033A000BB2079F191819617B1F03296F8CFE88180
:1033B000F9810190F081E02D62E2CE010995800F44
:1033C000911FDF91CF911F910F91FF90EF90DF90B0
:1033D000CF90BF900895E881F9810190F081E02DB0
:1033E0006CE5CE0109956C01E881F9810190F081CD
:1033F000E02D6B2DCE0109958C0D9D1D080F191F19
:10340000C7CFE881F9810190F081E02DCE010995C7
:10341000F5CFCF93FC015081523229F0573219F089
:1034200080E090E023C09C012F5F3F4FD901F9015C
:10343000CF0101964081442399F3451791F04C3513
:1034400069F401964181E9E2F2E0C081CC2331F0D8
:10345000C41302C0418102C03296F7CF4D93FC01E4
:10346000E7CF1C92FB0191838083C901CF9108951E
:10347000DC011296ED91FC911397309731F06115B4
:10348000710531F4CF010296089588E094E0089523
:10349000615071090190F081E02DEFCFCF93DF9360
:1034A000EC01BC0184E090E00E944319FC0100970C
:1034B00029F0D183C0831382128202C082E194E09A
:1034C000DF91CF910895CF93DF93EC01BC0184E0AD
:1034D00090E00E944319FC01009729F0D183C0833A
:1034E0001382128202C08EE094E0DF91CF910895A2
:1034F0000F931F93CF93DF938B01FC01C281D38184
:10350000209759F0B8018A819B810E947836892BD7
:1035100039F00990D881C02DF3CF80E090E001C050
:10352000CE01DF91CF911F910F9108950E94781ADB
:10353000009711F00496089588E094E00895FC0146
:10354000208131812530310519F4828193810895DC
:1035500080E090E00895FC01208131812730310521
:103560002CF06281738184819581089560E070E020
:10357000CB010895FC01208131812630310529F4E9
:103580006281738184819581089560E070E0CB0150
:103590000895FC0180819181892B29F084E090E0DD
:1035A0009183808362830895FC0180819181892BBE
:1035B00031F085E090E09183808373836283089586
:1035C000FC0180819181892B49F030E0295F3F4FD8
:1035D0003183208342835383648375830895FC0180
:1035E00080819181892B41F086E090E091838083F6
:1035F00042835383648375830895FC0180819181A4
:10360000892B31F082E090E0918380837383628321
:103610000895FC0180819181892B31F083E090E055
:1036200091838083738362830895FC0120813181BB
:103630002230310521F4828193810C94381A88E07C
:1036400094E00895CF93DF93FC01EB012081318159
:103650002230310531F482819381DF91CF910C9436
:10366000781B2330310531F482819381DF91CF9132
:103670000C949E1B2530310539F468817981828153
:1036800093810E94A4192BC02630310559F4428140
:103690005381648175812AE030E0888199810E949C
:1036A0005C2C1DC02430310569F48281882319F017
:1036B0006AE172E002C06FE172E0888199810E9444
:1036C000D42B0DC02730310584F0275030E04281E3
:1036D000538164817581888199810E94A52D2A81F9
:1036E0003B81280F391F3B832A83DF91CF910895B7
:1036F0000F931F93CF93DF93EC018B016BE5C80110
:103700000E942E190A80DB81C02D209779F0B80124
:10371000CE0102960E94221B0990D881C02D2097CD
:1037200029F06CE2C8010E942E19F1CF6DE5C801A5
:10373000DF91CF911F910F910C942E190F931F932E
:10374000CF93DF938C01EB016BE7CE010E942E1922
:10375000F801028113810115110509F16881798150
:10376000F801828193810E94A4192A813B81280F4C
:10377000391F3B832A836AE3CE010E942E19BE01C2
:10378000C80104960E94221BF801008111810115D5
:10379000110529F06CE2CE010E942E19DFCF6DE7F2
:1037A000CE01DF91CF911F910F910C942E19FC0146
:1037B000608171816115710579F08AE090E00E9465
:1037C0004319FC01009741F01182108281E090E0E2
:1037D00095838483CF01089580E090E00895DC0113
:1037E0001296ED91FC911397309749F08081918169
:1037F000009711F0FC01FACF718360830895FC01FA
:10380000738362830895EF92FF920F931F93CF9378
:10381000DF938C017B010E94781AEC01009761F420
:10382000C8010E94D71BEC01009749F0FB82EA8295
:10383000BC01C8010E94EF1BCE01049602C088E0C3
:1038400094E0DF91CF911F910F91FF90EF90089539
:10385000FC01608171816115710579F088E090E06B
:103860000E944319FC01009741F01182108281E00F
:1038700090E093838283CF01089580E090E00895E3
:10388000DC011296ED91FC911397309749F08081FD
:103890009181009711F0FC01FACF71836083089544
:1038A000FC017383628308950F931F93CF93DF937B
:1038B0008C010E94281CEC01009739F0BC01C80162
:1038C0000E94401CCE01029602C088E094E0DF9185
:1038D000CF911F910F910895EF92FF920F931F9335
:1038E000CF93DF93EC01888199810E944E1A7C016D
:1038F0006BE5CE010E946719811103C082E194E05B
:1039000022C06DE5CE010E94671981111BC0C7015D
:103910000E94541C8C01BC01CE010E94AA1CF8011B
:10392000208131812230310548F36DE5CE010E94BE
:103930006719811107C06CE2CE010E9467198111DD
:10394000E6CFDCCFC701DF91CF911F910F91FF90A0
:10395000EF900895EF92FF920F931F93CF93DF9311
:1039600000D0CDB7DEB78C017B01DC0114968C91C1
:103970001497882309F4A3C0815014968C93C8012E
:103980000E944D19F80182819381DC012C912A3328
:103990007CF420330CF03FC0273209F461C024F4DA
:1039A000223209F45DC065C02D522230A0F161C001
:1039B0002E3609F442C02CF42B3581F02636B1F0B6
:1039C00058C0243799F02B3709F053C0C8010E9422
:1039D000681DBC01C7010E94091B4BC0C8010E94A1
:1039E0006C1CBC01C7010E94FD1A43C06AE172E071
:1039F000C8010E948C19882311F061E008C06FE1B2
:103A000072E0C8010E948C19882309F160E0C701A7
:103A10000E94C91A2EC04AE050E0BE016F5F7F4F7E
:103A20000E940E35AB01BC01E981FA8180818E32A2
:103A300029F18F7D8534D1F521C065E172E0C8019F
:103A40000E948C19882319F060E070E00FC086E0B6
:103A5000E8E0F4E0D70101900D928A95E1F709C002
:103A6000B8016E5F7F4F0E94091ABC01C7010E9416
:103A7000D41AF80184818F5F848321C0B8016E5FFE
:103A80007F4FD80112968D919C9113970E94AB3372
:103A9000AB01BC01F8012281338189819A81281B05
:103AA000390B2150C7010E94E01AE3CFD8011396C9
:103AB000FC93EE931297C7010E94EF1ADACF0F9092
:103AC0000F90DF91CF911F910F91FF90EF9008958C
:103AD000CF92DF92EF92FF920F931F93CF93DF93DA
:103AE000EC01888199810E94631A6C016BE7CE0119
:103AF0000E946719811103C08EE094E035C06DE724
:103B0000CE010E94671981112EC07E0182E0E80E6D
:103B1000F11CB7018A819B810E94091A8C010097D0
:103B200059F36AE3CE010E946719882329F3B8018B
:103B3000C6010E94031C8C01BC01CE010E94AA1C7C
:103B4000F8012081318122303105B0F26DE7CE01DC
:103B50000E946719811107C06CE2CE010E946719AB
:103B60008111D7CFC9CFC601DF91CF911F910F919E
:103B7000FF90EF90DF90CF900895CF93DF9300D028
:103B800000D01F92CDB7DEB79A8389837C836B8385
:103B90004D83CE0101960E94681D0F900F900F90EB
:103BA0000F900F90DF91CF9108951092130410920F
:103BB0001204109215041092140410920F04109223
:103BC0000E04109211041092100410920904109225
:103BD000080408958091460490E020914704821BD8
:103BE000910908952091470480914604281750F4C4
:103BF000E22FF0E0E85BFB4F808190E02F5F2093A5
:103C0000470408958FEF9FEF0895E0914704809156
:103C10004604E81730F4F0E0E85BFB4F808190E069
:103C200008958FEF9FEF08950895CF92DF92EF925E
:103C3000FF920F931F93CF93DF937C01CB018A01F7
:103C400020912204222389F0EB016B01C40ED51EC2
:103C5000CC15DD0569F06991D701ED91FC910190DA
:103C6000F081E02DC7010995F3CF642F0E94741FE6
:103C7000C801DF91CF911F910F91FF90EF90DF90DE
:103C8000CF900895CF93DF931F92CDB7DEB76983AE
:103C9000209122042223D1F020912304203240F0ED
:103CA00021E030E0FC013383228380E090E015C006
:103CB00080912404E82FF0E0EB5DFB4F9981908325
:103CC0008F5F809324048093230405C061E0CE01BC
:103CD00001960E94741F81E090E00F90DF91CF91D8
:103CE0000895FC011382128248EE53E060E070E018
:103CF000448355836683778388E392E0918380834E
:103D000008951092470410924604109224041092D1
:103D100023040C94BF1E862F413208F040E268E471
:103D200074E00E94DD1E10924704809346040895BB
:103D300021E00C948B1E81E0809322046093450463
:103D4000109224041092230408950F93062F21E06B
:103D50004091230465E274E0809145040E94211F94
:103D60001092240410922304109222040F910895BB
:103D700061E00C94A51E86E194E00C94711E1092F3
:103D8000D50481E08093D3041092D20461E082E1F3
:103D90000E943D2961E083E10E943D29E9EBF0E0CA
:103DA00080818E7F808380818D7F808388E4809373
:103DB000B80085E48093BC000895413208F03FC00C
:103DC0009091D5049111FCCF91E09093D50420936C
:103DD000D3042FEF209368041092AD04240F209396
:103DE000AC049093D4049091D404880F892B8093D1
:103DF000D4048091D204813041F41092D204809195
:103E0000D4048093BB0085EC01C085EE8093BC0098
:103E10008091D5048130E1F38091AD04841710F4D2
:103E20004091AD042EEA34E0FB01D9018A2F821BB8
:103E3000841718F48D918193F9CF842F089580E031
:103E400008950F93413208F046C09091D504911126
:103E5000FCCF92E09093D5040093D3049FEF90930E
:103E600068041092AD044093AC04FB016EEA74E068
:103E7000DB019A2F961B941718F491919D93F9CF1B
:103E80001092D4049091D404880F892B8093D40489
:103E90008091D204813041F41092D2048091D404F4
:103EA0008093BB0085EC01C085EE8093BC0022238B
:103EB00021F08091D5048230E1F3809168048F3F36
:103EC00061F080916804803251F080916804803301
:103ED00041F483E007C081E005C080E003C082E0D8
:103EE00001C084E00F910895613298F42091D504C7
:103EF000243089F460938A04FC018CE894E0DC01AE
:103F00002A2F281B261718F421912D93F9CF80E032
:103F1000089581E0089582E0089585ED8093BC00C6
:103F20008091BC0084FDFCCF1092D504089585ECEF
:103F30008093BC001092D50408951F920F920FB683
:103F40000F9211242F933F934F935F936F937F931F
:103F50008F939F93AF93BF93EF93FF938091B9009B
:103F6000887F803609F49CC068F5883209F45BC00C
:103F700090F4803109F454C038F4882309F4F5C072
:103F8000883009F44DC0F5C0883109F44CC0803246
:103F900009F45DC0EEC0803409F468C048F4803391
:103FA00009F455C0883309F0E4C080936804A8C0C0
:103FB000803509F44FC0883509F45DC0883409F0B4
:103FC000D8C0D5C0883909F4C6C0A8F4883709F428
:103FD00067C038F4883609F463C0803709F460C0DC
:103FE000C8C0883809F4B7C0803909F45FC0803888
:103FF00009F0BFC05BC0803B09F485C038F4803A4B
:1040000009F466C0883A09F47EC0B3C0803C09F464
:10401000A6C0883C09F4A3C0883B09F489C0A9C0A4
:104020008091D40410C09091AD048091AC04981795
:1040300070F5E091AD0481E08E0F8093AD04F0E067
:10404000E255FB4F80818093BB0085EC85C0809357
:1040500068048DC0E091AD0481E08E0F8093AD04C3
:104060008091BB00F0E0E255FB4F80839091AD045E
:104070008091AC046DC0E091AD0481E08E0F80931F
:10408000AD048091BB00F0E0E255FB4F808380914E
:10409000D30481116CC081E08093D20484EA60C0B3
:1040A00083E08093D50410926904CFCF8091690496
:1040B000803208F050C0E091690481E08E0F809357
:1040C00069048091BB00F0E0E659FB4F8083BDCFCF
:1040D00080916904803230F4E0916904F0E0E6599F
:1040E000FB4F10820E948D1F6091690470E0E09187
:1040F000CE04F091CF048AE694E009951092690409
:104100000E94971F36C084E08093D50410928B04E0
:1041100010928A04E091D004F091D1040995809125
:104120008A04811105C081E080938A0410928C0476
:10413000E0918B0481E08E0F80938B04F0E0E457D4
:10414000FB4F80818093BB0090918B0480918A0407
:10415000981708F47ACF85E88093BC000AC085ECF4
:104160008093BC001092D50404C0109268040E9491
:104170008D1FFF91EF91BF91AF919F918F917F9193
:104180006F915F914F913F912F910F900FBE0F90C4
:104190001F901895EF92FF920F931F93CF93DF9389
:1041A00000D0CDB7DEB7062F142F682F86E194E03C
:1041B00029833A830E949B1E602F86E194E00E942F
:1041C000421E2981022FE22E3A81F32E8E2D801B72
:1041D000811740F4F70161917F0186E194E00E942C
:1041E000421EF4CF86E194E00E94B81E91E0811156
:1041F00090E0892F0F900F90DF91CF911F910F9139
:10420000FF90EF900895CF93DF931F92CDB7DEB765
:1042100049839E012F5F3F4F41E00E94CA200F90CB
:10422000DF91CF910895DF92EF92FF920F931F934A
:10423000CF93DF93C62F042F7901682F86E194E096
:104240000E949B1E6C2F86E194E00E94421E10E0AB
:10425000000F111FD12CCD2DD0E0C017D1078CF449
:10426000CC0FDD1FCE0DDF1D698186E194E00E9439
:10427000421E688186E194E00E94421ED394D3944A
:10428000EACF86E194E00E94B81E91E0811190E0AF
:10429000892FDF91CF911F910F91FF90EF90DF90C9
:1042A0000895CF93DF9300D0CDB7DEB75A8349830B
:1042B0009E012F5F3F4F41E00E9413210F900F900E
:1042C000DF91CF9108953F924F925F926F927F92CC
:1042D0008F929F92AF92BF92CF92DF92EF92FF9216
:1042E0000F931F93CF93DF9300D000D000D0CDB7B2
:1042F000DEB7682E562E742E3A8329830E94CD276E
:104300006B017C01312C412C872D90E09C838B83A9
:104310004801A12CB12C3714B0F5662D86E194E04C
:104320000E949B1E652D86E194E00E94421E86E15C
:1043300094E00E94B81E662D86E194E00E949B1EC8
:104340004B815C81431951094132510514F040E21F
:1043500050E0662D86E194E00E94981E86E194E08C
:104360000E94EA1D892B59F10115110579F10E946E
:10437000CD276C197D098E099F09681579058A0575
:104380009B0520F11CC00115110589F10E94CD2764
:104390006C197D098E099F0920E030E060177107D4
:1043A0008207930720F1872D90E0242D332727FDE6
:1043B000309528173907DCF444244A9418C0872D17
:1043C00090E2971508F480E2380EA5CFE981FA81D2
:1043D000E40DF11D47FCFA95FE83ED8386E194E040
:1043E0000E94F21DED81FE8180834394B7CF842D1E
:1043F00026960FB6F894DEBF0FBECDBFDF91CF91EA
:104400001F910F91FF90EF90DF90CF90BF90AF90F2
:104410009F908F907F906F905F904F903F90089506
:104420000F931F9389019A0141E00E9463211F911C
:104430000F910895DF92EF92FF920F931F93CF9306
:10444000DF931F92CDB7DEB7D42E79019801AE016C
:104450004F5F5F4F0E94102261E070E001C0660F65
:10446000DA94EAF799819623F70190830F90DF9110
:10447000CF911F910F91FF90EF90DF900895CF9211
:10448000DF92EF92FF920F931F93CF93DF931F92D0
:10449000CDB7DEB7C42ED22E9701AE014F5F5F4F6E
:1044A0000E9410228823F1F04C2D50E04D19510943
:1044B0004F5F5F4F61E070E002C0660F771FDA94D4
:1044C000E2F761507109042E01C0660F0A94EAF701
:1044D0002981262330E002C0359527954A95E2F7D9
:1044E000F80120830F90DF91CF911F910F91FF90E2
:1044F000EF90DF90CF900895EF92FF920F931F936C
:10450000CF93DF931F92CDB7DEB7182F062FF42E6F
:10451000E22E2091450130914601AE014F5F5F4F81
:104520000E941022898121E030E00F2C01C0220F6F
:104530000A94EAF7EE2019F0482F422B03C0422FCD
:10454000409548234983602F812F0E9403210F90BB
:10455000DF91CF911F910F91FF90EF900895DF921F
:10456000EF92FF920F931F93CF93DF931F92CDB7DC
:10457000DEB7F82EE62ED42E122F20914501309171
:104580004601AE014F5F5F4F0E941022882319F150
:104590004D2D50E0411B51094F5F5F4FE1E0F0E0CE
:1045A00002C0EE0FFF1F1A95E2F73197042E01C0EB
:1045B000EE0F0A94EAF701C0000F4A95EAF74E2F72
:1045C000409589814823E0234E2B49836E2D8F2D02
:1045D0000E94032101C080E00F90DF91CF911F91D5
:1045E0000F91FF90EF90DF90089528E6FC01208363
:1045F0000895462F69E1FC0180810C9403210F93FB
:10460000062F23E045E06AE1FC0180810E94AF2291
:104610000F9108950F93062F23E042E06AE1FC0119
:1046200080810E94AF220F9108950F93062F22E000
:1046300044E06BE1FC0180810E94AF220F9108955C
:104640000F93062F22E044E06CE1FC0180810E9480
:10465000AF220F910895462F6FE1FC0180810C94E9
:104660000321462F60E2FC0180810C940321462F38
:1046700061E2FC0180810C940321462F62E2FC017F
:1046800080810C940321643048F4262F220F260FDA
:104690002B5D622FFC0180810C9403210895462F2D
:1046A00068E3FC0180810C940321CF93DF93EC013C
:1046B0002091450130914601AC014F5F5F4F6AE3A5
:1046C00088810E9410228981DF91CF910895262F41
:1046D00046E06AE6FC0180810C947C22262F45E0AE
:1046E0006AE6FC0180810C947C2221E042E06AE6CB
:1046F000FC0180810C947C2221E041E06AE6FC010F
:1047000080810C947C2221E047E06BE6FC018081F3
:104710000C947C22262F46E06BE6FC0180810C94F1
:104720007C220F93062F23E042E06BE6FC018081A0
:104730000E94AF220F910895CF93DF93EC0161E0C7
:104740000E94912360E0CE010E94152360E0CE011B
:104750000E94202360E0CE01DF91CF910C948A2348
:104760000F931F93CF93DF93EC01009145011091BC
:1047700046019C012F5F3F4F42E062E788810E9423
:104780006321898190E0982F88272A81822BDF91ED
:10479000CF911F910F9108950F931F939B0100914B
:1047A00045011091460164E7FC0180810E9463216C
:1047B0001F910F910895EF92FF920F931F93CF9344
:1047C000DF93EC01E0904501F09046018C010F5F12
:1047D0001F4F26E046E065E788810E943F228981DD
:1047E000DF91CF911F910F91FF90EF9008950E945C
:1047F000DB2391E0843309F090E0892F08950F9333
:104800001F93CF93DF93EC01009145011091460176
:104810009C012F5F3F4F40E060E088810E941A2298
:104820008981DF91CF911F910F910895262F40E04C
:1048300060E0FC0180810C947C22EF92FF920F9348
:104840001F93CF93DF93EC01E0904501F090460178
:104850008C010F5F1F4F26E046E060E088810E94D8
:104860003F228981DF91CF911F910F91FF90EF90AF
:1048700008950F93062F26E046E060E0FC0180815A
:104880000E94AF220F910895EF92FF920F931F9312
:10489000CF93DF93EC01E0904501F09046018C014D
:1048A0000F5F1F4F26E046E061E088810E943F22B3
:1048B0008981DF91CF911F910F91FF90EF90089523
:1048C0000F93062F26E046E061E0FC0180810E9404
:1048D000AF220F910895EF92FF920F931F93CF9302
:1048E000DF93EC01E0904501F09046018C010F5FF1
:1048F0001F4F26E046E062E088810E943F228981C6
:10490000DF91CF911F910F91FF90EF9008950F933A
:10491000062F26E046E062E0FC0180810E94AF2283
:104920000F910895AB0166E0FC0180810C94512148
:10493000AB0168E0FC0180810C945121AB016AE07D
:10494000FC0180810C945121AB0163E1FC01808169
:104950000C945121AB0165E1FC0180810C94512143
:10496000AB0167E1FC0180810C945121262F47E0C7
:104970006AE6FC0180810C947C2221E043E06AE637
:10498000FC0180810C947C226F71211160624111C5
:104990006064462F6DE6FC0180810C940321462F54
:1049A0006EE6FC0180810C940321CF93DF93EC0130
:1049B0002091450130914601AC014F5F5F4F6FE69A
:1049C00088810E9410228981DF91CF9108955F92A2
:1049D0006F927F928F929F92AF92BF92CF92DF920F
:1049E000EF92FF920F931F93CF93DF937C015B01B4
:1049F0006A01622E702E20E040E0662D0E94C424E1
:104A0000602FC7010E94CF24C0E0D0E0812C992400
:104A10009394CC15DD05A8F5CE014096C816D906AD
:104A200018F45C2C5C1A02C0A0E15A2E252D30E04F
:104A3000C401871991098217930714F4572C5194D4
:104A4000009145011091460195012C0F3D1F452D08
:104A50006FE6F70180810E946321C50DD11D750CA1
:104A6000CC15DD05B0F6711001C0639420E040E084
:104A7000662DC7010E94C424672DC7010E94CF2460
:104A8000C8CFDF91CF911F910F91FF90EF90DF90F2
:104A9000CF90BF90AF909F908F907F906F905F90DE
:104AA00008952F923F924F925F926F927F928F92D2
:104AB0009F92AF92BF92CF92DF92EF92FF920F93AD
:104AC0001F93CF93DF9300D000D01F92CDB7DEB7F6
:104AD0009D838C837B836A834A01322ED02EE982A8
:104AE00020E040E0632D0E94C424602F8C819D81D2
:104AF0000E94CF24E980EE2029F080E190E00E941E
:104B0000BA315C01CC2031F080E190E00E94BA31F2
:104B1000582E492EE12CF12CE814F90408F07AC043
:104B2000C70140968816990618F4282C2E1802C042
:104B300010E1212E222D30E080E091E08D199109C5
:104B40008217930714F42D2C2194EA81FB81EE0D3A
:104B5000FF1DCC2059F0852DA52DB42D9A2F981B23
:104B6000921530F494919D933196F8CF5E2E4F2E8E
:104B7000252D342D422D6FE6AC81BD818C910E9494
:104B8000CA20622C712CB981BB2369F1A114B10434
:104B900051F120E040E0632D8C819D810E94C4246E
:104BA0006D2D8C819D810E94CF2400914501109133
:104BB00046019501422D6FE6EC81FD8180810E94C6
:104BC0006321A301B501852D942D0E946236892BA6
:104BD00051F0C5010E945232CC2049F1852D942D0F
:104BE0000E94523224C0E60CF71CD20CE814F904DF
:104BF00008F092CFD11001C0339420E040E0632D43
:104C00008C819D810E94C4246D2D8C819D810E9488
:104C1000CF2482CFF981FF2319F0C5010E945232BF
:104C2000CC2039F0852D942D0E94523202C080E0B4
:104C300001C081E00F900F900F900F900F90DF91C7
:104C4000CF911F910F91FF90EF90DF90CF90BF9089
:104C5000AF909F908F907F906F905F904F903F901C
:104C60002F900895CF92EF920F93CC24C3940E947B
:104C700051250F91EF90CF9008952F923F924F9230
:104C80005F926F927F928F929F92AF92BF92CF92DC
:104C9000DF92EF92FF920F931F93CF93DF9300D099
:104CA0001F92CDB7DEB74C017B836A833A01D22EC7
:104CB000222331F088E090E00E94BA31182FF92EBB
:104CC000212C312C2614370408F051C0EA81FB81D5
:104CD000E20DF31DC10103965C01DD20C1F044919A
:104CE000F10131968A819B81E80FF91F0491F1014E
:104CF0003296E80FF91F5490511044C0F4E02F0E83
:104D0000311CEA81FB81EA0DFB1D84910DC04081BD
:104D100001815280EA81FB81E80FF91F51100DC01B
:104D200084E0280E311C80818130D1F442E368E3B5
:104D3000F40180810E940321C5CF1E2FFF2E452C38
:104D4000512CC12CEE24E394242FA201612F7F2D3E
:104D5000C4010E94512512012A0C3B1C8111B2CFC3
:104D6000DD2061F0812F9F2D0E94523207C0DD208F
:104D700039F0812F9F2D0E94523202C080E024C062
:104D800081E022C0252C312CF2E0F51548F4B10168
:104D9000812F9F2D49830E94E132182FF92E4981DE
:104DA000812F9F2DA0E0B0E02A813B812A0D3B1D81
:104DB000A215B30520F6F901EA0FFB1F5491FC017F
:104DC0005193CF011196F4CF0F900F900F90DF9178
:104DD000CF911F910F91FF90EF90DF90CF90BF90F8
:104DE000AF909F908F907F906F905F904F903F908B
:104DF0002F90089521E00C943D26462F60E7FC019A
:104E000080810C940321462F61E7FC0180810C9482
:104E100003218230E8F4E82FF0E0EE0FFF1FEA52A2
:104E2000FB4F71836083813041F0809169008C7FFA
:104E3000842B80936900E89A089580916900440F5B
:104E4000551F440F551F837F842B80936900E99A77
:104E500008951F920F920FB60F9211242F933F9334
:104E60004F935F936F937F938F939F93AF93BF9372
:104E7000EF93FF938091D6049091D704892B29F06A
:104E8000E091D604F091D7040995FF91EF91BF917D
:104E9000AF919F918F917F916F915F914F913F91D2
:104EA0002F910F900FBE0F901F9018951F920F9289
:104EB0000FB60F9211242F933F934F935F936F93ED
:104EC0007F938F939F93AF93BF93EF93FF938091C3
:104ED000D8049091D904892B29F0E091D804F0915D
:104EE000D9040995FF91EF91BF91AF919F918F9157
:104EF0007F916F915F914F913F912F910F900FBED6
:104F00000F901F9018951F920F920FB60F921124B9
:104F10002F933F938F939F93AF93BF938091DB0425
:104F20009091DC04A091DD04B091DE043091DA04AC
:104F300023E0230F2D3720F40196A11DB11D05C0DC
:104F400026E8230F0296A11DB11D2093DA04809359
:104F5000DB049093DC04A093DD04B093DE04809125
:104F6000DF049091E004A091E104B091E204019685
:104F7000A11DB11D8093DF049093E004A093E10490
:104F8000B093E204BF91AF919F918F913F912F9188
:104F90000F900FBE0F901F9018952FB7F894609147
:104FA000DB047091DC048091DD049091DE042FBF5E
:104FB00008953FB7F8948091DF049091E004A091A8
:104FC000E104B091E20426B5A89B05C02F3F19F07B
:104FD0000196A11DB11D3FBF6627782F892F9A2FFB
:104FE000620F711D811D911D42E0660F771F881FA2
:104FF000991F4A95D1F70895CF92DF92EF92FF92D1
:10500000CF93DF936B017C010E94D927EB01C11480
:10501000D104E104F10489F00E94EE2D0E94D92709
:105020006C1B7D0B683E734090F381E0C81AD10879
:10503000E108F108C851DC4FEACFDF91CF91FF9032
:10504000EF90DF90CF900895789484B5826084BD0E
:1050500084B5816084BD85B5826085BD85B581607C
:1050600085BDEEE6F0E0808181608083E1E8F0E0DC
:105070001082808182608083808181608083E0E80B
:10508000F0E0808181608083E1EBF0E080818460EA
:105090008083E0EBF0E0808181608083EAE7F0E0EC
:1050A0008081846080838081826080838081816050
:1050B00080838081806880831092C10008958E3043
:1050C00008F08E5087702091470190E4299F90014D
:1050D0001124822B80937C0080917A0080648093DD
:1050E0007A0080917A0086FDFCCF80917800209133
:1050F000790090E0922B08951F93CF93DF93182FA0
:10510000EB0161E00E940429209711F460E004C0E3
:10511000CF3FD10539F461E0812FDF91CF911F910D
:105120000C943D29E12FF0E0E45DF64FE491E3308B
:10513000F9F048F4E130B9F0E230A1F584B58062CD
:1051400084BDC8BD34C0E730E9F0E83019F1E4307F
:1051500049F580918000806280938000D0938B001D
:10516000C0938A0024C084B5806884BDC7BD1FC0B9
:1051700080918000806880938000D0938900C093E4
:10518000880015C08091B00080688093B000C09303
:10519000B3000DC08091B00080628093B000C093D6
:1051A000B40005C0C038D1050CF0B5CFAFCFDF914A
:1051B000CF911F910895833081F028F4813099F0C8
:1051C0008230A1F008958730A9F08830B9F084309A
:1051D000D1F4809180008F7D03C0809180008F7713
:1051E00080938000089584B58F7702C084B58F7D49
:1051F00084BD08958091B0008F7703C08091B00086
:105200008F7D8093B0000895CF93DF9390E0FC01F1
:10521000E05CF64F2491FC01EC5AF64F8491882310
:1052200049F190E0880F991FFC01E458F64FA591D1
:10523000B4918E58964FFC01C591D4919FB76111DE
:1052400008C0F8948C91209582238C9388818223C6
:105250000AC0623051F4F8948C91322F3095832338
:105260008C938881822B888304C0F8948C91822B44
:105270008C939FBFDF91CF9108950F931F93CF938E
:10528000DF931F92CDB7DEB7282F30E0F901E45D40
:10529000F64F8491F901E05CF64F1491F901EC5A54
:1052A000F64F04910023C9F0882321F069830E94FE
:1052B000DB286981E02FF0E0EE0FFF1FEE58F64F7C
:1052C000A591B4919FB7F8948C91611103C010958A
:1052D000812301C0812B8C939FBF0F90DF91CF91D1
:1052E0001F910F910895CF93DF93282F30E0F9019C
:1052F000E45DF64F8491F901E05CF64FD491F90139
:10530000EC5AF64FC491CC2391F081110E94DB2816
:10531000EC2FF0E0EE0FFF1FE859F64FA591B49186
:105320002C912D2381E090E021F480E002C080E008
:1053300090E0DF91CF910895FC01818D228D90E066
:10534000805C9F4F821B91098F7399270895FC0100
:10535000918D828D981731F0828DE80FF11D858D2A
:1053600090E008958FEF9FEF0895FC01918D828D5D
:10537000981761F0828DDF01A80FB11D5D968C91A9
:10538000928D9F5F9F73928F90E008958FEF9FEFB4
:10539000089589E39BE2892B49F080E090E0892B16
:1053A00029F00E94392B81110C9400000895FC0112
:1053B000848DDF01A80FB11DA35ABF4F2C91848D9E
:1053C00090E001968F739927848FA689B7892C93D3
:1053D000A089B1898C9180648C93938D848D98136E
:1053E00006C00288F389E02D80818F7D8083089537
:1053F000CF93DF93EC01888D8823C9F0EA89FB897C
:10540000808185FD05C0A889B9898C9186FD0FC072
:105410000FB607FCF5CF808185FFF2CFA889B98947
:105420008C9185FFEDCFCE010E94D729E7CFDF9188
:10543000CF910895CF92DF92FF920F931F93CF9356
:10544000DF931F92CDB7DEB76C01DC015B969C91B8
:105450005B975C968C915C97981307C05096ED9182
:10546000FC915197808185FD32C0F601038D10E0DB
:105470000F5F1F4F0F731127F02EF601848DF81266
:1054800011C00FB607FCF9CFD6015096ED91FC91F3
:105490005197808185FFF1CFC60169830E94D7298A
:1054A0006981EBCF838DE80FF11DE35AFF4F6083D5
:1054B000D6015B960C935B975296ED91FC915397B6
:1054C00080818062808381E058968C930DC0D601E4
:1054D0005696ED91FC91579760835096ED91FC9113
:1054E000519780818064808381E090E00F90DF910C
:1054F000CF911F910F91FF90DF90CF900895BF92B1
:10550000CF92DF92EF92FF92CF93DF93EC016A018B
:105510007B01B22EE889F98982E08083411581EE12
:10552000580761057105A1F060E079E08DE390E036
:10553000A70196010E9459312150310941095109B1
:105540005695479537952795211580E1380798F0AE
:10555000E889F989108260E874E88EE190E0A7019B
:1055600096010E945931215031094109510956953E
:10557000479537952795EC85FD853083EE85FF852A
:105580002083188EEC89FD89B082EA89FB898081AD
:1055900080618083EA89FB89808188608083EA89D1
:1055A000FB89808180688083EA89FB8980818F7D87
:1055B0008083DF91CF91FF90EF90DF90CF90BF90ED
:1055C00008951F920F920FB60F9211242F938F936D
:1055D0009F93EF93FF93E091F304F091F4048081A3
:1055E000E091F904F091FA0482FD12C0908180915B
:1055F000FC048F5F8F732091FD04821751F0E091BE
:10560000FC04F0E0ED51FB4F958F8093FC0401C04A
:105610008081FF91EF919F918F912F910F900FBEFD
:105620000F901F9018951F920F920FB60F92112492
:105630002F933F934F935F936F937F938F939F939A
:10564000AF93BF93EF93FF9383EE94E00E94D7292B
:10565000FF91EF91BF91AF919F918F917F916F914A
:105660005F914F913F912F910F900FBE0F901F9020
:10567000189583EE94E00E949C2921E0892B09F47F
:1056800020E0822F08951092E6041092E50488EE3F
:1056900093E0A0E0B0E08093E7049093E804A09347
:1056A000E904B093EA0488E492E09093E4048093E0
:1056B000E30485EC90E09093F0048093EF0484EC95
:1056C00090E09093F2048093F10480EC90E090934A
:1056D000F4048093F30481EC90E09093F6048093BB
:1056E000F50482EC90E09093F8048093F70486EC44
:1056F00090E09093FA048093F9041092FC041092C5
:10570000FD041092FE041092FF04089508950E9473
:1057100024280E94862B0E941510C9ECD9E20E9411
:10572000F5172097E1F30E94C929F9CFCF92DF92B4
:10573000EF92FF920F931F93CF93DF936C017A0147
:10574000EB01E60EF71E00E010E0CE15DF0561F07C
:105750006991D601ED91FC910190F081E02DC60197
:105760000995080F191FF1CFC801DF91CF911F9143
:105770000F91FF90EF90DF90CF9008956115710524
:1057800081F0DB010D900020E9F7AD014150510996
:10579000461B570BDC01ED91FC910280F381E02D5B
:1057A000099480E090E008950C94BE2BDC01ED910B
:1057B000FC910190F081E02D09940F931F93CF93FA
:1057C000DF93EC016DE00E94D62B8C016AE0CE01E4
:1057D0000E94D62B800F911FDF91CF911F910F91C7
:1057E00008950F931F93CF93DF93EC010E94BE2B7C
:1057F0008C01CE010E94DD2B800F911FDF91CF9194
:105800001F910F9108958F929F92AF92BF92CF9266
:10581000DF92EF92FF920F931F93CF93DF93CDB759
:10582000DEB7A1970FB6F894DEBF0FBECDBF7C01E7
:10583000C42EE52FCB01D22E19A221E02D1510F098
:105840002AE0D22E8E010F5D1F4F8D2C912CA12CA2
:10585000B12C6C2D7E2FA50194010E9459318C2D05
:10586000D29E80191124015011098A3014F4805DF0
:1058700001C0895CF801808321153105410551057E
:1058800021F0C22EE32FCA01E4CFB801C7010E9464
:10589000BE2BA1960FB6F894DEBF0FBECDBFDF9131
:1058A000CF911F910F91FF90EF90DF90CF90BF901D
:1058B000AF909F908F900895CF92DF92EF92FF92DA
:1058C0000F931F93CF93DF93EC016A017B012115A6
:1058D000310579F4E881F9810190F081E02D642FA0
:1058E000DF91CF911F910F91FF90EF90DF90CF90BC
:1058F00009942A303105E9F477FF1AC06DE20E945D
:10590000D62B8C0144275527BA014C195D096E0925
:105910007F092AE0CE010E94032C800F911FDF91A6
:10592000CF911F910F91FF90EF90DF90CF9008954E
:105930002AE0B701A601CE01DF91CF911F910F910F
:10594000FF90EF90DF90CF900C94032C2115310540
:1059500041F4DC01ED91FC910190F081E02D642F88
:1059600009940C94032C9A01462F50E060E070E0FB
:105970000C94A62C4F925F926F927F928F929F927F
:10598000AF92BF92CF92DF92EF92FF920F931F934D
:10599000CF93DF93EC016A017B01B22E9A01AB0138
:1059A000C701B6010E943031882319F064E572E026
:1059B00027C026013701E89477F82FEF3FEF4FE734
:1059C0005FE7C301B2010E94303181110DC02FEF9A
:1059D0003FEF4FE75FE7C301B2010E94B62E1816F2
:1059E0001CF468E572E00CC02FEF3FEF4FE75FE477
:1059F000C701B6010E9477301816ACF46CE572E06E
:105A0000CE01DF91CF911F910F91FF90EF90DF902A
:105A1000CF90BF90AF909F908F907F906F905F904E
:105A20004F900C94BE2B2FEF3FEF4FE75FECC70179
:105A3000B6010E94B62E87FDE1CF20E030E0A9013B
:105A4000C701B6010E94B62E87FF0AC06DE2CE01E3
:105A50000E94D62B8C01F7FAF094F7F8F09402C06C
:105A600000E010E0A12C60E070E080E09FE3AB1468
:105A700041F020E030E040E251E40E94BD2EA394CA
:105A8000F6CF9B01AC01C701B6010E94F02D6B015E
:105A90007C010E942A2F2B013C010E94562F9B0162
:105AA000AC01C701B6010E94EF2D6B017C012AE019
:105AB000B301A201CE010E94032C080F191FBB20C5
:105AC00039F060E672E0CE010E94BE2B080F191F6C
:105AD0007B2C772041F120E030E040E251E4C70127
