:100000000C94E5040C94842B0C94B12B0C940D05EA
:100010000C940D050C940D050C940D050C940D0518
:100020000C940D050C940D050C940D050C940D0508
:100030000C940D050C940D050C940D050C940D05F8
:100040000C94DE2B0C940D050C941F2F0C94512F47
:100050000C940D050C940D050C940D050C940D05D8
:100060000C94F8230C940D05084AD73B3BCE016E47
:1000700084BCBFFDC12F3D6C74319ABD56833DDAFF
:100080003D00C77F11BED9E4BB4C3E916BAAAABE0E
:10009000000000803F05A84CCDB2D44EB93836A937
:1000A000020C50B9918688083CA6AAAA2ABE000074
:1000B00000803F0001B202FFFF0190040923A13537
:1000C000016A020600016008000000000000000054
:1000D00000600440000000016202000000600400B3
:1000E000400000037B034CCD6C03AB033656760017
:1000F000680402CB47A202180400058BC1010C045E
:1001000000000000037F060CC92C97979703890312
:10011000264666006C022000024004000000000237
:1001200044040000000002480400000000024C04E7
:10013000000000000250040000000002540400000F
:10014000000002580400000000025C0400000000EF
:1001500002BC040000000001EC0400004000037F2A
:10016000060CC92C9797970402030D355D0409040A
:10017000872D353D00A3010000000001078601FE28
:10018000074105F120283038077E01300746019AE3
:10019000074704F1283038076C04F128303802167C
:1001A000020001FB00003E000B00360001000200CF
:1001B00003000000650054FFEF0000FA80000B12FE
:1001C00082000100020000000000000000000000AA
:1001D00000000000280000FFFF4581FFFFFA7200C9
:1001E000000000000003E80000000100017FFFFFA5
:1001F000FE8001001B000000000000000000000065
:10020000000000003E03304000000002CAE3093E47
:10021000800000200000000000000040000000609E
:1002200000000041FF000000000B2A0000165500EE
:10023000002182FD872650FD800000001F00000085
:100240000580000000000000010000000200000026
:10025000030000400000000000046F00026532004F
:10026000005EC04000000000000000000000000030
:10027000000000FB8C6F5DFD5D08D9007C733B00C6
:100280006C12CC3200139D3200D0D63200080040F0
:100290000001F4FFE68079020000000000D0D600E3
:1002A000002710FB000000400000000000000000DC
:1002B000000000000000010000000000000100013B
:1002C0000000000000FA36FFBC308E0005FBF0FF96
:1002D000D95BC8FFD09ABE000010A9FFF41EB2007F
:1002E000CEBBF70000000100000004000200020283
:1002F00000000CFFC280000001800000CF800040A1
:1003000000000000000001000000000000060000E6
:1003100000001400000000000000000000000000C9
:1003200000000000000000000000000000000000CD
:1003300000000000000000000000000000000000BD
:1003400000000000000000033F68B6793528BCC6F5
:100350007ED16C80000000400000000000B26A0006
:10036000000000000000000000000000003FF0005E
:10037000000030000000000000000000000000004D
:10038000000000000000000000000000000000006D
:100390000000000000254D002F706D000005AE002C
:1003A0000C02D00000000000650054FFEF000000C8
:1003B000000000000001000044000000000C0000EC
:1003C000000100000000000065000000540000FF74
:1003D000EF0000000000000000000000000000002E
:1003E00000000040000000000000000000000000CD
:1003F00000000040000000000000000000000000BD
:1004000000000000000001000000020000000000E9
:1004100000000000000000000000000000000000DC
:1004200000000000000000000000000000000000CC
:10043000000000001B0000000000000000000000A1
:1004400000000000000000000000000000000000AC
:10045000000000000000000000000000000000405C
:10046000000000001B000000000000000000000071
:10047000000000000000000000000000000000007C
:10048000000000000000000000000000000000006C
:10049000000000000000000000000000000000005C
:1004A000000000D8DCBAA2F1DEB2B8B4A88191F79E
:1004B0004A907F916AF3F9DBA8F9B0BAA080F2CE36
:1004C00081F3C2F1C1F2C3F3CCA2B280F1C6D880ED
:1004D000BAA7DFDFDFF2A7C3CBC5B6F087A29424AB
:1004E00048703C95406834589B78A2F183922D5512
:1004F0007DD8B1B4B8A1D09180F270F370F27C8055
:10050000A8F101B09887D943D886C988BAA1F20E5C
:10051000B89780F1A9DFDFDFAADFDFDFF2AAC5CD60
:10052000C7A90CC92C97979797F1A989264666B059
:10053000B4BA80ACDEF2CAF1B28C02A9B6980089D6
:100540000E161EB8A9B4992C547CB08AA8963656BB
:1005500076F1B9AFB4B083C0B8A89711B18F98B98C
:10056000AFF0240844106418F1A329557DAF83B57A
:1005700093AFF0002850F1A3869F61A6DADEDFD9A1
:10058000FAA38696DB31A6D9F8DFBAA68FC2C5C713
:10059000B28CC1B8A2DFDFDFA3DFDFDFD8D8F1B8CC
:1005A000A8B286B4980D355DB8AA98B0872D353DB0
:1005B000B2B6BAAF8C96198F9FA70E161EB49AB812
:1005C000AA872C547CB9A3DEDFDFA3B180F2C4CDAF
:1005D000C9F1B8A9B499830D355D89B9A32D557DAD
:1005E000B593A30E161EA92C547CB8B4B0F1978312
:1005F000A81184A50998A383F0DA2408441064188C
:10060000D8F1A529557DA58595021A2E3A565A404E
:1006100048F9F3A3D9F8F098832408441064189794
:1006200082A8F111F098A2240844106418DAF3DECD
:10063000D883A59401D9A302F1A2C3C5C7D8F18478
:1006400092A24DDA2AD84869D92AD86855DA32D820
:100650005071D932D8705DDA3AD85879D93AD87809
:1006600093A34DDA2AD84869D92AD86855DA32D8FE
:100670005071D932D8705DDA3AD85879D93AD878E9
:10068000A88A9AF02850789EF38818F19F1D98A8A0
:10069000D908D8C89F129EF315A8DA1210D8F1AF66
:1006A000C8978734B5B994A421F3D922D8F22DF391
:1006B000D92AD8F235F3D932D881A4606061D961E2
:1006C000D86C6869D969D8747071D971D8B1A384AC
:1006D000193D5DA3831A3E5E931030811011B8B0AE
:1006E000AF8F94F2DA3ED8B49AA88729DAF8D8877F
:1006F0009A35DAF8D8879A3DDAF8D8B1B9A498854E
:10070000022E56A581000C14A397B08AF12DD9288A
:10071000D84DD948D86DD968D8B1840DDA0ED8A390
:100720002983DA2C0ED8A3844983DA2C4C0ED8B84E
:10073000B0A88A9AF520AADADFD8A840AAD0DADED3
:10074000D8A860AADAD0DFD8F19786A8319B06999D
:1007500007AB9728889BF00C201440B8B0B4A88C45
:100760009CF0042851791D301438B282ABD0982CFB
:10077000505078789BF11AB0F08A9CA82951798B57
:100780002951798A2470598B2058718A4469388B91
:100790003940688A6448318B304960A588200971E6
:1007A000584468113964493019F1AC002C547CF07C
:1007B0008CA804285078F1889726A85998AC8C0208
:1007C000264666F0899CA8295179247059446938D5
:1007D000644831A98809205970AB11384069A819BB
:1007E0003148608CA83C415C207C00F187981986D8
:1007F000A86E767EA999882D557D9EB9A38A228AF6
:100800006E8A568A5E9FB183062646660E2E4E6E0F
:100810009DB8AD002C547CF2B18CB499B9A32D5580
:100820007D8191AC38AD3AB58391AC2DD928D84DA6
:10083000D948D86DD968D88C9DAE29D904AED85185
:10084000D904AED879D904D881F39DAD008DAE1905
:1008500081ADD901D8F2AEDA26D88E912983A7D9F5
:10086000ADADADADF32AD8D8F1B0AC89913E5E768E
:10087000F3AC2E2EF1B18C5A9CAC2C2828289CACC1
:100880003018A8988128343C9724A728343C9C240D
:10089000F2B089AC912C4C6C8A9B2DD9D8D851D907
:1008A000D8D879D9D8D8F19E88A331DAD8D8912D63
:1008B000D928D84DD948D86DD968D8B18393353D5A
:1008C0008025DAD8D88569DAD8D8B49381A32834BA
:1008D0003CF3AB8BF8A391B609B4D9ABDEFAB08781
:1008E0009CB9A3DDF1A3A3A3A395F1A3A3A39DF1B9
:1008F000A3A3A3A3F2A3B49080F2A3A3A3A3A3A34F
:10090000A3A3A3A3B2A3A3A3A3A3A3B087B599F161
:10091000A3A3A398F1A3A3A3A397A3A3A3A3F39B28
:10092000A3A3DCB9A7F1262626D8D8FF000000082B
:1009300000020100000304070000000000000000A6
:100940000102040810204080010204081020010266
:100950000408102004040404040404040202020233
:100960000202030303030303000000002300260028
:10097000290000000000250028002B0000000000D6
:10098000240027002A004E414E494E495459494EF1
:1009900046CDCCCC3D0AD7233C17B7D13877CC2BEA
:1009A000329595E6241FB14F0A000020410000C88F
:1009B0004200401C4620BCBE4CCA1B0E5AAEC59D10
:1009C00074004B1B30221623812F11241FBECFEF42
:1009D000D8E0DEBFCDBF12E0A0E0B1E0EEE2F6E786
:1009E00002C005900D92A03DB107D9F726E0A0ED19
:1009F000B2E001C01D92AD30B207E1F719E0CAECD8
:100A0000D9E004C02297FE010E940136C23CD10702
:100A1000C9F70E94C52F0C94153B0C9400001F923F
:100A20000F920FB60F9211242F938F939F93AF9332
:100A3000BF9323B1822F817090E04A9B03C0892B22
:100A400019F00EC0892B61F08091E2039091E303CD
:100A5000A091E403B091E5030196A11DB11D0BC067
:100A60008091E2039091E303A091E403B091E50348
:100A70000197A109B1098093E2039093E303A09346
:100A8000E403B093E503BF91AF919F918F912F91B4
:100A90000F900FBE0F901F9018951F920F920FB6D8
:100AA0000F9211242F938F939F93AF93BF9323B1F2
:100AB00021FB882780F990E04B9B03C0892B19F01C
:100AC0000EC0892B61F08091E6039091E703A0911D
:100AD000E803B091E9030196A11DB11D0BC08091FF
:100AE000E6039091E703A091E803B091E903019731
:100AF000A109B1098093E6039093E703A093E8036B
:100B0000B093E903BF91AF919F918F912F910F9077
:100B10000FBE0F901F90189508959C01FC01EE5791
:100B2000FF4F80819181680F791F6138710530F422
:100B3000718360830296820F931F089580E090E096
:100B400008959C01FC01EE5BFF4F80819181680F4D
:100B5000791F6134710530F4718360830296820FCE
:100B6000931F089580E090E00895CF93DF93EC0108
:100B700067E671E00E945E2060E070E00E94701FF6
:100B80000E94151F8FEB93E00E94ED2867E671E04D
:100B9000CE010E945E2061E070E00E94701F0E9402
:100BA000151F8FEB93E00E94F32867E671E0CE01FA
:100BB0000E945E2062E070E00E94701F0E94151F7C
:100BC0008FEB93E00E94F92867E671E0CE010E9466
:100BD0005E2063E070E00E94701F0E94151F8FEB83
:100BE00093E00E94FF2867E671E0CE010E945E203C
:100BF00064E070E00E94701F0E94151F8FEB93E06D
:100C00000E94052967E671E0CE010E945E2065E042
:100C100070E00E94701F0E94151F8FEB93E0DF9120
:100C2000CF910C940B2960916301709164010E9433
:100C30005E200E94151F21E06130710509F020E05F
:100C400020934601089560916301709164010E94B0
:100C50005E200E94151F21E06130710509F020E03F
:100C600020934701622F8CE00C947B2D0E94F11E93
:100C7000FC0181E0208131812230310508F480E0DF
:100C80000895CF92DF92EF92FF920F931F93CF932D
:100C9000DF938C016CE671E00E943606882309F42C
:100CA00092C06CE671E0C8010E945E200E94151F90
:100CB0006B017C0182E0C816D10408F084C0E60113
:100CC00060E771E0C8010E943606882399F060E76A
:100CD00071E0C8010E945E200E94061F2CE02C9D3E
:100CE000F0012D9DF00D1124E75BFE4F60837183B1
:100CF000828393836BE672E0C8010E9436068823E4
:100D000099F06BE672E0C8010E945E200E94061F07
:100D10002CE02C9DF0012D9DF00D1124E75BFE4F82
:100D2000648375838683978361E672E0C8010E94BD
:100D30003606882399F061E672E0C8010E945E20C1
:100D40000E94061F2CE02C9DF0012D9DF00D11241A
:100D5000E75BFE4F6087718782879387209709F54D
:100D600010927F03109280031092810310928203ED
:100D70001092B2031092B3031092B4031092B50311
:100D800010927B0310927C0310927D0310927E03DD
:100D90001092AE031092AF031092B0031092B10301
:100DA00012C0219781F41092EC031092ED0310927F
:100DB000EE031092EF031092F0031092F1031092E1
:100DC000F2031092F303DF91CF911F910F91FF90E7
:100DD000EF90DF90CF900895CF92DF92EF92FF9245
:100DE0007C0162E771E00E943606882359F062E7D1
:100DF00071E0C7010E945E200E94151F7093D3030B
:100E00006093D20366E771E0C7010E94360688232B
:100E100079F066E771E0C7010E945E200E94061F1C
:100E20006093D4037093D5038093D6039093D70334
:100E30006BE771E0C7010E943606882379F06BE703
:100E400071E0C7010E945E200E94061F6093D803D4
:100E50007093D9038093DA039093DB0360E871E029
:100E6000C7010E943606882359F060E871E0C70187
:100E70000E945E200E94151F7093DD036093DC03C7
:100E80002BED3FE049E450E46091D4037091D50329
:100E90008091D6039091D7030E94C8346B017C01E6
:100EA0006091D2037091D303882777FD8095982FA6
:100EB0000E949E339B01AC01C701B6010E9403331F
:100EC0006093DE037093DF038093E0039093E1036C
:100ED00081E08093BE03FF90EF90DF90CF90089564
:100EE000CF93DF93EC0160916301709164010E94E4
:100EF0005E200E94151F21E06130710509F020E09D
:100F000020937E046091610170916201CE010E9484
:100F10003606882369F06091610170916201CE010B
:100F20000E945E200E94151F709341016093400152
:100F3000DF91CF910895CF93DF93EC01609163012E
:100F4000709164010E945E200E94151F21E06130B3
:100F5000710509F020E020937D046091610170919A
:100F60006201CE010E943606882369F0609161011A
:100F700070916201CE010E945E200E94151F709345
:100F8000450160934401DF91CF9108958F929F9224
:100F9000AF92BF92CF92EF920F931F93CF93DF93B5
:100FA000CDB7DEB7C059D1090FB6F894DEBF0FBE7A
:100FB000CDBF5C010E94DE276EE170E080E090E032
:100FC0000E94572C60E0C5010E94E52721E041E026
:100FD00060E1C5010E941F2966E0C5010E942A291F
:100FE000C5010E94302920E040E060E0C5010E9478
:100FF0001F29C5010E945A28C5010E947828182F70
:10100000C5010E949F28882EC5010E94C628982EDF
:101010004FE760E0C5010E949E2760E0C5010E9485
:10102000C92748E660E0C5010E949E27C5010E94CD
:10103000D72764E170E080E090E00E94572CEE2416
:10104000E39400E020E049E857E063EA71E0C5017D
:101050000E948D2A882309F40EC240EC50E063EE12
:1010600070E0C5010E94552B882309F406C263E095
:10107000C5010E94EC2762E1C5010E94AA2764E035
:10108000C5010E94542761E0C5010E945A2763E010
:10109000C5010E94652763E0C5010E94702763E0D7
:1010A000C5010E94582B60E0C5010E945E2B60E0E4
:1010B000C5010E947128612FC5010E949428682DE6
:1010C000C5010E94BB28692DC5010E94E228812C20
:1010D000912CF401EC54FF4FE491A1E8B0E0AC0F87
:1010E000BD1FA80DB11DEC9381E0880D9FEF891AFB
:1010F000990AE3E0E81568F7CD57DF4F4881C358F8
:10110000D04050E09A012E5F3F4F90E028173907FA
:1011100004F7C12CEE24E394CE57DF4F0881C25868
:10112000D040CF57DF4F2881C158D04061E870E0F0
:101130006C0F7D1F6D5F7F4FC5010E94AC2960E081
:10114000F401EC54FF4FE491A1E8B0E0AC0FBD1FF7
:10115000A60FB11DEC936F5FFFEF8F1A9F0A6430EB
:1011600078F3CD57DF4F4881C358D04050E09A0103
:101170002E5F3F4F862F90E0281739070CF7C12CC0
:10118000EE24E394CE57DF4F0881C258D040CF57AA
:10119000DF4F2881C158D04061E870E06C0F7D1F9F
:1011A0006D5F7F4FC5010E94AC29C5010E94D02709
:1011B000C5010E940B28482FBE016F5F7F4FC501FC
:1011C0000E94272862E0C5010E9486276CE9C501BC
:1011D0000E94922760E5C5010E948C2760E0C5014E
:1011E0000E949827C5010E94D02761E0C5010E9496
:1011F000C22761E0C5010E941129C5010E9418297A
:1012000060E0F401EC54FF4FE491A1E8B0E0AC0FD2
:10121000BD1FA60FB11DEC936F5F8FEF881A980A60
:10122000643078F3CD57DF4F4881C358D04050E049
:101230009A012E5F3F4F862F90E0281739070CF751
:10124000C12CEE24E394CE57DF4F0881C258D04022
:10125000CF57DF4F2881C158D04061E870E06C0F54
:101260007D1F6D5F7F4FC5010E94AC2960E0F401D6
:10127000EC54FF4FE491A1E8B0E0AC0FBD1FA60F06
:10128000B11DEC936F5F9FEF891A990A643078F370
:10129000CD57DF4F4881C358D04050E09A012E5FB0
:1012A0003F4F862F90E0281739070CF7C12CEE240A
:1012B000E394CE57DF4F0881C258D040CF57DF4F5D
:1012C0002881C158D04061E870E06C0F7D1F6D5FD0
:1012D0007F4FC5010E94AC2960E0F401EC54FF4F40
:1012E000E491A1E8B0E0AC0FBD1FA60FB11DEC93D7
:1012F0006F5FEFEF8E1A9E0A643078F3CD57DF4FA1
:101300004881C358D04050E09A012E5F3F4F862F4E
:1013100090E0281739070CF7C12CEE24E394CE5740
:10132000DF4F0881C258D040CF57DF4F2881C158C6
:10133000D04061E870E06C0F7D1F6D5F7F4FC5018D
:101340000E94AC29C5010E940B2883309105D0F37F
:10135000482FBE016F5F7F4FC5010E942728C5013E
:101360000E94B02760E0F401EC54FF4FE491A1E843
:10137000B0E0AC0FBD1FA60FB11DEC936F5FFFEF88
:101380008F1A9F0A643078F3CD57DF4F4881C358D6
:10139000D04050E09A012E5F3F4F862F90E02817F3
:1013A00039070CF7CE57DF4F0881C258D040CF57CE
:1013B000DF4F2881C158D04061E870E06C0F7D1F7D
:1013C0006D5F7F4FC5010E944229C5010E940B2815
:1013D00083309105D0F3482FBE016F5F7F4FC50169
:1013E0000E942728C5010E94B027F401EC54FF4F4A
:1013F00060E08491A1E8B0E0AC0FBD1FA60FB11D65
:101400008C936F5F643010F43196F3CFCD57DF4F7C
:101410004881C358D04050E09A012E5F3F4F862F3D
:1014200090E02817390784F761E870E06C0F7D1FA2
:101430006D5F7F4FC12CEE24E394CE57DF4F0881C0
:10144000C258D040CF57DF4F2881C158D040C50186
:101450000E94AC2960E0C5010E9411298AE290E057
:10146000F50193838283C5010E94D027C5010E94A4
:10147000B02780E003C081E001C082E0C057DF4FA9
:101480000FB6F894DEBF0FBECDBFDF91CF911F9195
:101490000F91EF90CF90BF90AF909F908F90089555
:1014A000CF93DF93DB01FA01309719F4EC01E88167
:1014B000F981808190E0982F88272181820F911DEA
:1014C00011969C938E93848190E0982F8827258194
:1014D000820F911D13969C938E931297808590E0B6
:1014E000982F88272185820F911D15969C938E93A6
:1014F0001497848590E0982F88272585820F911D69
:1015000017969C938E93169780E0DF91CF91089564
:10151000FF920F931F93CF93DF93CDB7DEB728973A
:101520000FB6F894DEBF0FBECDBF8B01BE016F5F5B
:101530007F4F0E94500AF82E81114CC069817A8138
:10154000882777FD8095982F0E949E3320E030E019
:1015500040E858E30E94C834F801608371838283B5
:1015600093836B817C81882777FD8095982F0E94DB
:101570009E3320E030E040E858E30E94C834F80190
:1015800064837583868397836D817E81882777FD49
:101590008095982F0E949E3320E030E040E858E389
:1015A0000E94C834F80160877187828793876F81B2
:1015B0007885882777FD8095982F0E949E3320E0BC
:1015C00030E040E858E30E94C834F801648775872A
:1015D000868797878F2D28960FB6F894DEBF0FBEAB
:1015E000CDBFDF91CF911F910F91FF9008954F9242
:1015F0005F926F927F928F929F92AF92BF92CF92A3
:10160000DF92EF92FF920F931F93CF93DF93CDB7AB
:10161000DEB728970FB6F894DEBF0FBECDBF8B01A3
:10162000DA011496CD90DD90ED90FC9017971C9602
:101630004D905D906D907C901F978D909D90AD909A
:10164000BC90139718968D919D910D90BC91A02DF3
:1016500089839A83AB83BC83A3019201C701B6013E
:101660000E94C8346D837E838F83988729813A8155
:101670004B815C81C501B4010E94C8349B01AC015F
:101680006D817E818F8198850E9435329B01AC01EE
:101690000E943632F8016083718382839383A701AD
:1016A0009601C501B4010E94C8346D837E838F8387
:1016B0009887A301920169817A818B819C810E9424
:1016C000C8349B01AC016D817E818F8198850E9419
:1016D00036329B01AC010E943632D80114966D93CC
:1016E0007D938D939C931797A5019401C501B40137
:1016F0000E94C8344B015C01A7019601C701B601E5
:101700000E94C8349B01AC01C501B4010E9435326E
:101710006B017C0129813A814B815C81CA01B9014D
:101720000E94C8349B01AC01C701B6010E9435324A
:101730006B017C01A3019201C301B2010E94C83474
:101740009B01AC01C701B6010E943632F8016087E7
:1017500071878287938780E028960FB6F894DEBF62
:101760000FBECDBFDF91CF911F910F91FF90EF90F2
:10177000DF90CF90BF90AF909F908F907F906F90B1
:101780005F904F9008952F923F924F925F926F9289
:101790007F928F929F92AF92BF92CF92DF92EF9201
:1017A000FF920F931F93CF93DF9300D000D000D010
:1017B000CDB7DEB71B018A013E832D83FA01C080BD
:1017C000D180E280F380A7019601C701B6010E9493
:1017D000363269837A838B839C83F8018480958079
:1017E000A680B780A5019401C501B4010E943632DC
:1017F0002B013C01A701960169817A818B819C8133
:101800000E94C8346B017C01A5019401C301B2019F
:101810000E94C8349B01AC01C701B6010E94363258
:1018200020E030E040E85FE30E9435326B017C014C
:10183000F8012085318542855385C301B2010E949C
:10184000C8342B013C01F801248535854685578530
:1018500069817A818B819C810E94C8349B01AC0193
:10186000C301B2010E943532A70196010E94A9323C
:10187000F1016083718382839383ED81FE816481B2
:10188000758186819781C084D184E284F3849B0131
:10189000AC010E94C8344B015C01A7019601C7014D
:1018A000B6010E94C8349B01AC01C501B4010E947D
:1018B00036320E9435359B01AC01ED81FE8160819D
:1018C0007181828193810E9403330E94D432F1019D
:1018D0006483758386839783ED81FE816081718146
:1018E00082819381C084D184E284F3849B01AC0122
:1018F0000E94C8344B015C01A7019601C701B601E3
:101900000E94C8349B01AC01C501B4010E9436326B
:101910000E9435359B01AC01ED81FE8164817581AA
:10192000868197810E9403330E94D432F10160873F
:1019300071878287938780E026960FB6F894DEBF82
:101940000FBECDBFDF91CF911F910F91FF90EF9010
:10195000DF90CF90BF90AF909F908F907F906F90CF
:101960005F904F903F902F9008954F925F926F92AB
:101970007F928F929F92AF92BF92CF92DF92EF921F
:10198000FF920F931F93CF93DF93EC017B01882786
:1019900077FD8095982F0E949E332B013C012D816D
:1019A0003E814F8158850E94FC32882309F44BC048
:1019B00065E871E08AE695E00E9412306FE871E018
:1019C0008AE695E00E9412304AE050E0B7018AE6CC
:1019D00095E00E94E4308AE695E00E941B308C80FE
:1019E000F7FE03C081E08825882EB701F7FE03C00B
:1019F000719561957109882777FD8095982F1F92C1
:101A00001F921F922FEF2F93A12CB12C650114E68A
:101A1000E12EF12C00E010E020E030E0A9010E946E
:101A2000ED316B017C01682D89810E947B2DB6010F
:101A300088810E94BA2C4D825E826F8278860F90D8
:101A40000F900F900F90DF91CF911F910F91FF900A
:101A5000EF90DF90CF90BF90AF909F908F907F904E
:101A60006F905F904F9008956F927F928F929F92A8
:101A7000AF92BF92CF92DF92EF92FF920F931F939C
:101A8000CF93DF93EC014A015B016091DC0370911D
:101A9000DD03882777FD8095982F0E949E339B0158
:101AA000AC01C501B4010E94C83420E030E048EC2C
:101AB00052E40E9403336BA77CA78DA79EA7EF8AF1
:101AC000F88E098F1A8FCE2CDF2C7801F7FE08C014
:101AD000F094E094D094C094C11CD11CE11CF11C82
:101AE00021E03FEFC316D306E3063FE7F30609F410
:101AF00020E02E8B11E020E030E0A9010E94FC32B2
:101B0000811101C010E01D8B1BA21CA21DA21EA2F0
:101B10001FA218A619A61AA61F8E18A219A21AA2E9
:101B200020E030E0A901C501B4010E94FC32882305
:101B300051F120E030E0A9016FA578A989A99AA9FF
:101B40000E94FC3281111FC020E030E0A901C501D4
:101B5000B4010E94BD3487FD03C068E270E002C09A
:101B600068ED7FEFCE01DF91CF911F910F91FF9034
:101B7000EF90DF90CF90BF90AF909F908F907F902D
:101B80006F900C94B50CDF91CF911F910F91FF9046
:101B9000EF90DF90CF90BF90AF909F908F907F900D
:101BA0006F900895EF92FF920F931F93CF93DF935F
:101BB000EC01EE24EA94FE2C0FEF1FE720E030E06A
:101BC00040E050E0BA010E94340DEB8119861A867C
:101BD0001B861C86198A1A8A1B8A1C8A84E0E89F45
:101BE000F0011124EE51FC4F1082118212821382F7
:101BF0001BA21CA21DA21EA21FA218A619A61AA6ED
:101C00001F8E18A219A21AA20E94282C6093F80312
:101C10007093F9038093FA039093FB03DF91CF91C4
:101C20001F910F91FF90EF900895CF92DF92EF9266
:101C30000F93CF93DF931F92CDB7DEB76C01862F42
:101C4000F6016083418322830383E48290914701FC
:101C5000992399F061E049830E94422D61E0498116
:101C6000842F0E94422DC6010F90DF91CF910F91DA
:101C7000EF90DF90CF900C94D20D0F90DF91CF9129
:101C80000F91EF90DF90CF9008958F929F92AF9237
:101C9000BF92CF92DF92EF92FF920F931F93CF9359
:101CA000DF936C0163E971E00E943606882349F0F6
:101CB00063E971E0C6010E945E200E94151FEB01DE
:101CC00002C0C0E0D0E067E971E0C6010E943606BC
:101CD000882311F167E971E0C6010E945E200E942D
:101CE000061F4B015C0120E030E0A9010E94BD34D9
:101CF00087FD06C0EE24EA94FE2C0FEF1FE705C017
:101D0000EE24E394F12C00E010E89E01B501A4015B
:101D10008BE893E00E94340D6AE971E0C6010E94ED
:101D20003606882311F16AE971E0C6010E945E203F
:101D30000E94061F4B015C0120E030E0A9010E94D7
:101D4000BD3487FD06C0EE24EA94FE2C0FEF1FE79A
:101D500005C0EE24E394F12C00E010E89E01B501EB
:101D6000A40188E593E00E94340DDF91CF911F918B
:101D70000F91FF90EF90DF90CF90BF90AF909F902A
:101D80008F9008954F925F926F927F928F929F9261
:101D9000AF92BF92CF92DF92EF92FF920F931F9379
:101DA000CF93DF93CDB7DEB72C970FB6F894DEBF95
:101DB0000FBECDBFE986FA860B871C870E9435329D
:101DC0002B013C01ADA1BEA12D913D914D915C91A6
:101DD0000E94363229A53AA54BA55CA50E94C834BD
:101DE0006D837E838F83988720E030E040EA50EC5B
:101DF0000E94FC3287FD11C020E030E040EA50E450
:101E00006D817E818F8198850E94BD3418166CF497
:101E1000E12CF12C00EA10E404C0E12CF12C00EAE2
:101E200010ECED82FE820F831887A3019201AFA10F
:101E3000B8A56D917D918D919C910E94353229A517
:101E40003AA54BA55CA50E94C83469837A838B832D
:101E50009C8320E030E040EA50EC0E94FC3287FD99
:101E600011C020E030E040EA50E469817A818B8142
:101E70009C810E94BD3418166CF4E12CF12C00EA10
:101E800010E404C0E12CF12C00EA10ECE982FA82A3
:101E90000B831C83ED80FE800F811885ADA1BEA150
:101EA000ED92FD920D931C931397E980FA800B81BC
:101EB0001C81AFA1B8A5ED92FD920D931C931397D1
:101EC000EBA1FCA14082518262827382A301920144
:101ED00069857A858B859C850E94C8342B013C01DD
:101EE0002D813E814F815885C601B5010E94C834BD
:101EF0009B01AC01C301B2010E9436324B015C016F
:101F0000A80197016F8D78A189A19AA10E94C83478
:101F10009B01AC01C501B4010E9436322C960FB66C
:101F2000F894DEBF0FBECDBFDF91CF911F910F910F
:101F3000FF90EF90DF90CF90BF90AF909F908F90E9
:101F40007F906F905F904F9008954F925F926F9245
:101F50007F928F929F92AF92BF92CF92DF92EF9239
:101F6000FF920F931F93CF93DF93CDB7DEB72897E0
:101F70000FB6F894DEBF0FBECDBF4C018B01DC0164
:101F80001D962D913D914D915C91509751968D915B
:101F90009D910D90BC91A02D281B390B4A0B5B0B1A
:101FA000A8EEB3E00E94F435980140E050E00E94B2
:101FB000D535CA01B9010E949E332B013C01F401C1
:101FC00067A770AB81AB92AB8589882309F453C0B6
:101FD000A0904D01B0904E01C0904F01D0905001A3
:101FE0008091490190914A01A0914B01B0914C011F
:101FF00089839A83AB83BC8383A594A5A5A5B6A545
:102000008D839E83AF83B887C80168EE73E00E941A
:102010009F3580E090E00E949C339F938F937F9345
:102020006F93C40187969F938F9304979F938F9389
:1020300004979F938F93809154018F9380915301C4
:102040008F93809152018F93809151018F93E980FA
:10205000FA800B811C81A30192016D817E818F81A9
:1020600098850E94C20E2B013C010FB6F894DEBF8A
:102070000FBECDBF03C0412C512C320120E030E017
:10208000A901D4019B966D917D918D919C919E9714
:102090000E94FC32F401882379F1238D348D458D23
:1020A000568DC301B2010E9436326B018C0120E0D3
:1020B00030E048EC52EC0E94FC3287FD0FC020E07B
:1020C00030E048EC52E4B601C8010E94BD34181655
:1020D0004CF4C12CD12C08EC12E404C0C12CD12C3E
:1020E00008EC12ECA601B801D4015B964D935D9308
:1020F0006D937C935E9704C0138E148E158E168E8E
:10210000F40185859685A785B089818B928BA38BF9
:10211000B48B28960FB6F894DEBF0FBECDBFDF910B
:10212000CF911F910F91FF90EF90DF90CF90BF90D4
:10213000AF909F908F907F906F905F904F90089599
:102140001092E6031092E7031092E8031092E9035D
:102150001092E2031092E3031092E4031092E5035D
:1021600062E082E00E94422D62E083E00E94422D04
:1021700062E088E00E94422D62E089E00E94422DE8
:1021800041E050E06FE075E080E00E94642B41E0A8
:1021900050E06DE475E081E00E94642B809147017E
:1021A000882341F161E085E00E94422D60E085E0F6
:1021B0000E947B2D61E086E00E94422D60E086E077
:1021C0000E947B2D61E08BE00E94422D60E08BE05D
:1021D0000E947B2D61E081E10E94422D60E081E15F
:1021E0000E947B2D8BE893E00E94D20D88E593E05E
:1021F0000E94D20D1092FC031092FD031092FE0378
:102200001092FF0310920004109201041092020435
:102210001092030410920404109205041092060414
:1022200010920704109208041092090410920A04F4
:1022300010920B041092EC031092ED031092EE0337
:102240001092EF031092F0031092F1031092F20338
:102250001092F3031092F4031092F5031092F60318
:102260001092F7031092470108954F925F926F9278
:102270007F92AF92BF92CF92DF92EF92FF920F9335
:102280001F93CF93DF93CDB7DEB728970FB6F8949F
:10229000DEBF0FBECDBF29013A019B01AC01C801D1
:1022A000B7010E9435329B01AC010E94C83469839A
:1022B0007A838B839C83A3019201C601B5010E949E
:1022C00035326D837E838F839887A3019201C60187
:1022D000B5010E94C8349B01AC016D817E818F8164
:1022E00098850E94C8349B01AC0169817A818B81F9
:1022F0009C810E94363228960FB6F894DEBF0FBE3E
:10230000CDBFDF91CF911F910F91FF90EF90DF90A4
:10231000CF90BF90AF907F906F905F904F900C9454
:1023200035358F929F92AF92BF92EF92FF920F93AB
:102330001F936093000470930104809302049093B0
:1023400003042093FC033093FD034093FE0350935A
:10235000FF031092EC031092ED031092EE03109223
:10236000EF031092F0031092F1031092F203109217
:10237000F3031092F4031092F5031092F6031092F7
:10238000F70381E08093EB03B801882777FD809500
:10239000982F0E949E334B015C01EE24EA94FE2CA0
:1023A0000FEF1FE720E030E0AB01BC018BE893E0CA
:1023B0000E94340D20E030E0B501A40188E593E0EF
:1023C0000E94340D1F910F91FF90EF90BF90AF903E
:1023D0009F908F9008954F925F926F927F928F920D
:1023E0009F92AF92BF92CF92DF92EF92FF920F93A4
:1023F0001F93CF93DF9300D000D0CDB7DEB76B0132
:102400007C018A018090870490908804A0908904C0
:10241000B0908A04C501B4010E942B359B01AC0128
:102420006091830470918404809185049091860466
:1024300029833A834B835C830E9400332B013C0148
:1024400029813A814B815C81C701B6010E94C83461
:102450009B01AC01C501B4010E9435324B015C0106
:10246000A3019201C701B6010E94C83420918B04D8
:1024700030918C0440918D0450918E040E9436322C
:10248000A50194010E9491110F900F900F900F9051
:10249000DF91CF911F910F91FF90EF90DF90CF9040
:1024A000BF90AF909F908F907F906F905F904F9074
:1024B0000895CF92DF92EF92FF920F931F93CF93E5
:1024C000DF9300D000D0CDB7DEB78C016DE971E0AD
:1024D0000E943606882339F062EA71E0C8010E9442
:1024E000360681113DC068EA71E0C8010E943606D7
:1024F000882309F454C066EA71E0C8010E943606D8
:10250000882309F44CC062EA71E0C8010E943606D3
:10251000882309F444C062EA71E0C8010E945E2089
:102520000E94151F6B017C0166EA71E0C8010E94E0
:102530005E200E94061F9B01AC0168EA71E0C801A1
:1025400029833A834B835C830E945E200E94061F8E
:10255000860129813A814B815C810E9491111FC0C3
:1025600062EA71E0C8010E945E200E94151F6B01A3
:102570007C016DE971E0C8010E945E200E94061F87
:10258000A6010F900F900F900F90DF91CF911F91A8
:102590000F91FF90EF90DF90CF900C94EB110F9084
:1025A0000F900F900F90DF91CF911F910F91FF909F
:1025B000EF90DF90CF900895EF92FF920F931F93CB
:1025C000CF93DF937C010CE011E0C0E0D0E063E347
:1025D00072E0C7010E945E200E94FA1EBC01F80151
:1025E000808191810E94D23A0C5F1F4F892B81F428
:1025F000CC0FDD1FCC0FDD1FC45FDE4FEA81FB81F6
:10260000C701DF91CF911F910F91FF90EF90099437
:102610002196CC30D105D9F6DF91CF911F910F9142
:10262000FF90EF9008958C01C0E0D0E0C017D10773
:10263000B4F461E08DE00E947B2D68EC70E080E0F6
:1026400090E00E94572C60E08DE00E947B2D68ECAA
:1026500070E080E090E00E94572C2196E7CF68E57B
:1026600072E080E090E00E94572CDECF26E040E050
:1026700052EC61E070E08AE695E00E94BD2E64E1D4
:1026800070E080E090E00E94572C61E08DE00E94B5
:10269000422D61E08CE00E94422D62E084E00E94C5
:1026A000422D60E08DE00E947B2D60E08CE00E9476
:1026B0007B2D0E94A01080914801882309F47FC0DF
:1026C0008DE994E00E94DC2288E18093B80062E00A
:1026D00087E00E94422D8FEB93E00E94F7276AE08B
:1026E00070E080E090E00E94572C8FEB93E00E9416
:1026F00052288FEB93E00E94C607809376046AE02D
:1027000070E080E090E00E94572C80917604811167
:102710003CC061E08FEB93E00E9411296AE070E019
:1027200080E090E00E94572C8FEB93E00E94B0274E
:10273000809378048091C103809377046CED70E0FE
:102740008FEB93E00E94FF286CE470E08FEB93E046
:102750000E9405296BEA7FEF8FEB93E00E940B2923
:102760006CEF76E08FEB93E00E94F9280E94282C12
:10277000605D7A488F4F9F4F6093D1027093D20271
:102780008093D3029093D4021AC06AEA71E08AE679
:1027900095E00E9412304AE050E0609176048AE6AB
:1027A00095E00E94F9306BEB71E08AE695E00E94BB
:1027B0002F308091760490E001960E9413136DEB08
:1027C00071E08AE695E00C942F30CF92DF92EF9281
:1027D000FF92CF93DF93EC01C880D980EA80FB8021
:1027E0002BED3FE049E450E4C701B6010E94BD343F
:1027F00018166CF42BED3FE049EC50E4C701B6012C
:102800000E943532688379838A839B83E5CF2BEDE1
:102810003FE049E450EC609183047091840480911E
:102820008504909186040E94FC3287FF0FC02BED37
:102830003FE049EC50E4688179818A819B810E9464
:102840003632688379838A839B83E1CFDF91CF918E
:10285000FF90EF90DF90CF9008954F925F926F922C
:102860007F92AF92BF92CF92DF92EF92FF920F933F
:102870001F93CF93DF93CDB7DEB760970FB6F89471
:10288000DEBF0FBECDBF0E94282C6D837E838F8359
:1028900098878091F8039091F9030D811E81081BA0
:1028A000190BE0918E0380918F03F0E0EE0FFF1F74
:1028B000EE0FFF1FEE51FC4F882361F08081918164
:1028C000A281B381B095A095909581959F4FAF4F10
:1028D000BF4F04C080819181A281B381809398030E
:1028E00090939903A0939A03B0939B03E0915B03A9
:1028F00080915C03F0E0EE0FFF1FEE0FFF1FEE5123
:10290000FC4F882361F080819181A281B381B095D1
:10291000A095909581959F4FAF4FBF4F04C0808188
:102920009181A281B3818093650390936603A09304
:102930006703B0936803B8018BE893E00E94A50F8A
:10294000B80188E593E00E94A50F8091EB038823EE
:1029500009F4CAC020918B0430918C0440918D04FD
:1029600050918E04609100047091010480910204E2
:10297000909103040E9435326B017C012091870401
:10298000309188044091890450918A046091FC033D
:102990007091FD038091FE039091FF030E943532F8
:1029A000A70196010E94A93269837A838B839C8355
:1029B000CE0101960E94E513A0905901B0905A01F2
:1029C000C0905B01D0905C018091550190915601BF
:1029D000A0915701B091580189879A87AB87BC872E
:1029E00020918304309184044091850450918604A1
:1029F00049805A806B807C80B80180E090E02D8710
:102A00003E874F87588B0E949C339F938F937F9371
:102A10006F938CEE93E09F938F9380EF93E09F935F
:102A20008F9384EF93E09F938F93809160018F93B6
:102A300080915F018F9380915E018F9380915D0102
:102A40008F93E984FA840B851C852D853E854F85FF
:102A50005889C301B2010E94C20E2B013C01A09013
:102A60008704B0908804C0908904D0908A04E090D4
:102A7000FC03F090FD030091FE031091FF032091F1
:102A80008B0430918C0440918D0450918E046091A0
:102A900000047091010480910204909103040E944B
:102AA00035110FB6F894DEBF0FBECDBF20E030E089
:102AB00040E251E40E94FC3287FFB5C01092EB0364
:102AC00010927303109274031092750310927603A0
:102AD0001092A6031092A7031092A8031092A903C4
:102AE000412C512C32019FC08091EA03882309F4C4
:102AF000A4C064EE71E08AE695E00E94123060EFB7
:102B000071E08AE695E00E941230409104045091F1
:102B10000504609106047091070422E030E08AE623
:102B200095E00E94EB3166EF71E08AE695E00E9445
:102B30001230409183045091840460918504709117
:102B4000860422E030E08AE695E00E94EB318AE6D6
:102B500095E00E941B3020918304309184044091C1
:102B6000850450918604609104047091050480915D
:102B70000604909107040E9435326B017C0120E02D
:102B800030E0A9010E94BD3418165CF425E33AEF49
:102B90004EE05DE3C701B6010E94FC3287FF11C021
:102BA0000AC025E33AEF4EE05DEBC701B6010E9493
:102BB000BD34181634F41092EA03412C512C320122
:102BC00022C02BED3FE049E450E4C701B6010E946A
:102BD000363220E030E04CE853E40E94C8342BED5C
:102BE0003FE049EC50E40E94033320E030E04CE049
:102BF00053E40E94353220E030E040E252E40E948B
:102C000036322B013C011092730310927403109220
:102C10007503109276031092A6031092A7031092E8
:102C2000A8031092A90320E030E0A901C301B2017A
:102C30000E94BD3487FD3DC003C0412C512C3201A0
:102C4000C090A603D090A703E090A803F090A9033A
:102C500020E030E0A901C301B2010E94BD34A3010C
:102C6000920118160CF05058C701B6010E94363276
:102C70006093A6037093A7038093A8039093A9037E
:102C8000C0907303D0907403E0907503F0907603C6
:102C900020E030E0A901C301B2010E94BD34A301CC
:102CA000920118160CF05058C701B6010E94353237
:102CB00038C0C090A603D090A703E090A803F0907E
:102CC000A90320E030E0A901C301B2010E94BD3494
:102CD000A301920118160CF05058C701B6010E94CA
:102CE00035326093A6037093A7038093A803909353
:102CF000A903C0907303D0907403E0907503F09023
:102D0000760320E030E0A901C301B2010E94BD3486
:102D1000A301920118160CF05058C701B6010E9489
:102D200036326093730370937403809375039093AA
:102D300076036091A6037091A7038091A8039091F8
:102D4000A9030E946B338BE893E00E94B50C60915D
:102D500073037091740380917503909176030E94C0
:102D60006B3388E593E00E94B50C8D819E81AF8125
:102D7000B8858093F8039093F903A093FA03B09376
:102D8000FB0360960FB6F894DEBF0FBECDBFDF9198
:102D9000CF911F910F91FF90EF90DF90CF90BF9058
:102DA000AF907F906F905F904F900895CF93DF9397
:102DB000EC018BE893E00E94D20D88E593E00E943D
:102DC000D20D109283041092840410928504109204
:102DD000860410928704109288041092890410923D
:102DE0008A0410928B0410928C0410928D0410921D
:102DF0008E0468EA71E0CE010E943606882379F0DD
:102E000068EA71E0CE010E945E200E94061F609376
:102E10008B0470938C0480938D0490938E0466EAE7
:102E200071E0CE010E943606882379F066EA71E0EF
:102E3000CE010E945E200E94061F6093870470935B
:102E400088048093890490938A046AEF71E0CE012C
:102E50000E9436068823A9F06AEF71E0CE010E9435
:102E60005E200E94061F25E33AEF4EE85CE30E94D5
:102E7000C834609383047093840480938504909392
:102E8000860483E894E00E94E51320910C043091BD
:102E90000D0440910E0450910F04609183047091D1
:102EA000840480918504909186040E943632609358
:102EB0007F04709380048093810490938204DF9157
:102EC000CF910895CF92DF92EF92FF92CF93DF934D
:102ED000EC016CEF71E00E9436068823A1F06CEFE4
:102EE00071E0CE010E945E200E94151F882777FDA9
:102EF0008095982F0E949E3325E33AEF4EE85CE3DD
:102F00000E94C83428C060E072E0CE010E943606FC
:102F1000882349F1C0908304D0908404E090850414
:102F2000F090860460E072E0CE010E945E200E9474
:102F3000151F882777FD8095982F0E949E3325E3E3
:102F40003AEF4EE85CE30E94C8349B01AC01C70134
:102F5000B6010E9436326093040470930504809396
:102F600006049093070484E094E00E94E51381E056
:102F70008093EA03DF91CF91FF90EF90DF90CF90A5
:102F800008954F925F926F927F928F929F92AF922D
:102F9000BF92CF92DF92EF92FF921F93CF93DF9376
:102FA000CDB7DEB72C970FB6F894DEBF0FBECDBFFE
:102FB000E0918E0380918F03F0E08823B1F0EE0F53
:102FC000FF1FEE0FFF1FEE51FC4F80819181A28108
:102FD000B38122273327A901281B390B4A0B5B0B2E
:102FE0002D833E834F83588711C09F01220F331FCB
:102FF000220F331F2E513C4FD9018D919D910D9081
:10300000BC91A02D8D839E83AF83B887E0915B0335
:1030100080915C03F0E08823B1F0EE0FFF1FEE0F0C
:10302000FF1FEE51FC4F80819181A281B381222745
:103030003327A901281B390B4A0B5B0B29873A87D9
:103040004B875C8711C09F01220F331F220F331F54
:103050002E513C4FD9018D919D910D90BC91A02D89
:1030600089879A87AB87BC87809194039091950359
:10307000A0919603B09197038D809E80AF80B88415
:10308000881A990AAA0ABB0A809161039091620387
:10309000A0916303B091640349845A846B847C8457
:1030A000481A590A6A0A7B0A20917F0430918004E9
:1030B000409181045091820460910C0470910D0440
:1030C00080910E0490910F040E94353269837A83B7
:1030D0008B839C8321EE3EE245E652E40E94C83495
:1030E0006B017C0120E030E0A9010E94BD3418167C
:1030F0006CF411E02DEC3CEC4CEC5DE3C701B60147
:103100000E94BD34181674F010E00CC02DEC3CEC9D
:103110004CEC5DEBC701B6010E94FC32182F111F69
:103120001127111FC501B401640D751D861D971D62
:103130000E949E332091DE033091DF034091E00333
:103140005091E1030E94C83420E030E040E05FE3AA
:103150000E94C8346B017C0120E030E0A9010E948C
:10316000BD3418165CF420E030E040E85FE3C701AE
:10317000B6010E94BD34181654F00AC020E030E0B9
:1031800040E85FEBC701B6010E94FC3287FD11E009
:103190008090830490908404A0908504B09086046D
:1031A00020E030E040E05FE369817A818B819C819F
:1031B0000E94C8349B01AC01C501B4010E943632A3
:1031C0002B013C010E942B359B01AC01C701B601CC
:1031D0000E94C8349B01AC0160918B0470918C04F7
:1031E00080918D0490918E040E94363260938B04FE
:1031F00070938C0480938D0490938E04C301B2016C
:103200000E9400339B01AC01C701B6010E94C83483
:103210009B01AC01609187047091880480918904BE
:1032200090918A040E9436326093870470938804D8
:103230008093890490938A0429813A814B815C812F
:10324000C501B4010E9436326093830470938404F4
:10325000809385049093860483E894E00E94E513AC
:1032600040910C0450910D0460910E0470910F0474
:1032700040937F0450938004609381047093820490
:103280002D813E814F81588520939403309395037F
:10329000409396035093970389859A85AB85BC85A7
:1032A0008093610390936203A0936303B0936403DC
:1032B000812F2C960FB6F894DEBF0FBECDBFDF91E5
:1032C000CF911F91FF90EF90DF90CF90BF90AF9084
:1032D0009F908F907F906F905F904F900895CF93C5
:1032E000DF9300D000D0CDB7DEB77A8369831C822C
:1032F0001B82BE016F5F7F4F0E94F91F8B819C81F3
:103300000F900F900F900F90DF91CF910895CF9273
:10331000DF92EF92FF920F931F93CF93DF93CDB77E
:10332000DEB7C454D1090FB6F894DEBF0FBECDBFCF
:103330008BE792E09A83898325961FAE1EAE259770
:10334000CE0101960E94BE1E8C0164E072E00E94D4
:103350005E2066E072E00E942F1F20E030E04AE726
:1033600054E460918B0470918C0480918D04909151
:103370008E040E9403336B017C0168EA71E0C8018E
:103380000E945E2024E0B701A6010E943B1F20E0BE
:1033900030E04AE754E4609187047091880480919A
:1033A000890490918A040E9403336B017C0166EAD0
:1033B00071E0C8010E945E2024E0B701A6010E94CE
:1033C0003B1F21EE3EE245E652E46091830470919A
:1033D000840480918504909186040E94C8346B0116
:1033E0007C016AEF71E0C8010E945E2021E0B70114
:1033F000A6010E943B1F6AE675E0C8010E946F1992
:103400008AE695E00E941B30CC5BDF4F0FB6F89444
:10341000DEBF0FBECDBFDF91CF911F910F91FF9007
:10342000EF90DF90CF900895CF92DF92EF92FF92CE
:103430000F931F93CF93DF93CDB7DEB7C458D10955
:103440000FB6F894DEBF0FBECDBF81E892E09A833D
:103450008983CD57DF4F19821882C358D040CE01DF
:1034600001960E94BE1E8C0164E072E00E945E2004
:103470006BE072E00E942F1FC090BA03D090BB0394
:10348000E090BC03F090BD0365E172E0C8010E94CA
:103490005E2022E0B701A6010E943B1FC090870377
:1034A000D0908803E0908903F0908A0368E172E08D
:1034B000C8010E945E2022E0B701A6010E943B1FC6
:1034C000E0918E0380918F03F0E0EE0FFF1FEE0F6F
:1034D000FF1FEE51FC4FC080D180E280F380882333
:1034E00041F0F094E094D094C094C11CD11CE11C34
:1034F000F11C6BE172E0C8010E945E20B701A601D9
:103500000E944A1FE0915B0380915C03F0E0EE0FA4
:10351000FF1FEE0FFF1FEE51FC4FC080D180E280F5
:10352000F380882341F0F094E094D094C094C11CBF
:10353000D11CE11CF11C6EE172E0C8010E945E200A
:10354000B701A6010E944A1F6AE675E0C8010E9401
:103550006F198AE695E00E941B30CC57DF4F0FB6FB
:10356000F894DEBF0FBECDBFDF91CF911F910F91B9
:10357000FF90EF90DF90CF900895FF920F931F93ED
:10358000CF93DF93CDB7DEB7C454D1090FB6F8940B
:10359000DEBF0FBECDBFF82E2BE732E03A83298382
:1035A00025961FAE1EAE2597CE0101960E94BE1E27
:1035B0008C0164E072E00E945E2061E272E00E9491
:1035C0002F1F6091630170916401C8010E945E2009
:1035D0004F2D50E060E070E00E944A1F6AE675E0FF
:1035E000C8010E946F198AE695E00E941B30CC5BEF
:1035F000DF4F0FB6F894DEBF0FBECDBFDF91CF9186
:103600001F910F91FF900895FF920F931F93CF93F7
:10361000DF93CDB7DEB7C454D1090FB6F894DEBF3F
:103620000FBECDBFF82E2BE732E03A8329832596D3
:103630001FAE1EAE2597CE0101960E94BE1E8C01C4
:1036400064E072E00E945E2068E272E00E942F1F38
:103650006091630170916401C8010E945E204F2D4A
:1036600050E060E070E00E944A1F6AE675E0C80121
:103670000E946F198AE695E00E941B30CC5BDF4FF9
:103680000FB6F894DEBF0FBECDBFDF91CF911F9173
:103690000F91FF900895EF920F931F9380E090E0B9
:1036A000A0E8BFE38093240490932504A09326040C
:1036B000B0932704109228041092290410922A042F
:1036C00010922B0410922C0410922D0410922E04B0
:1036D00010922F0410923004109231041092320490
:1036E00010923304109218041092190410921A04C4
:1036F00010921B0410921C0410921D0410921E04C0
:1037000010921F041092200410922104109222049F
:103710001092230482EC91E09093DD038093DC030C
:103720008FEB93E00E945027EE24E39400E010E03A
:1037300020E130E04BE050E065E070E08BE893E0A2
:103740000E94150EE12C01E010E02FE030E041E195
:1037500050E066E070E088E593E00E94150E1F914E
:103760000F91EF9008950F931F93CF93DF93CDB7F1
:10377000DEB7C458D1090FB6F894DEBF0FBECDBF77
:103780008AE695E00E94DA2D892B09F44DC08AE67D
:1037900095E00E94F32D20915603309157038A3013
:1037A00089F5C90101969093570380935603F90157
:1037B000EA52FD4F108281E892E09A838983CD57C7
:1037C000DF4F19821882C358D0404AE066ED72E09C
:1037D000CE0101960E9418228C0163E372E00E94E0
:1037E0003606882321F0C8010E94DC1206C06EE272
:1037F00072E08AE695E00E942F30109257031092F3
:10380000560312C0A9014F5F5F4F50935703409377
:103810005603F901EA52FD4F80834038510520F0EC
:1038200084E090E00E941313CC57DF4F0FB6F8945A
:10383000DEBF0FBECDBFDF91CF911F910F910895D5
:103840000F931F93CF93DF9320913C0130913D0163
:1038500040E050E06091790470917A0480917B049B
:1038600090917C040E94B335672B682B692BA1F4DF
:103870000E94282C0091D1021091D2022091D302F3
:103880003091D402061717072807390728F48091CA
:10389000D002882309F4DCC00E94B31B809146014A
:1038A0008823E9F101E010E020E030E080913E0162
:1038B00090913F01892B19F000E010E098014091B0
:1038C000790450917A0460917B0470917C044023C8
:1038D000512362237323452B462B472B01F1809103
:1038E000D502811119C089B182958170C82F30E04D
:1038F000D32F80910A0190910B01C817D90779F055
:10390000D0930B01C0930A0183E08093D5028C2FE2
:1039100081700E94BD1A03C081508093D5028091AE
:1039200047018823B1F0209142013091430140E0EA
:1039300050E06091790470917A0480917B049091B9
:103940007C040E94B335672B682B692B11F40E940D
:103950002D14209144013091450140E050E06091E8
:10396000790470917A0480917B0490917C040E9488
:10397000B335672B682B692B49F40E94C117882344
:1039800029F080917D0481110E94871920914001C6
:103990003091410140E050E06091790470917A04E7
:1039A00080917B0490917C040E94B335672B682B37
:1039B000692B81F48DE00E94B12D61E0892B09F023
:1039C00060E08DE00E947B2D80917E04882311F0C1
:1039D0001D9977C080914801882311F14F9B20C029
:1039E0008FEB93E00E94B027809378048FEB93E0F5
:1039F0000E940B289093750480937404209178049E
:103A000024FD04C08115944009F05EC067E372E0B4
:103A10008AE695E00E942F308FEB93E00E94D0273A
:103A20008091790490917A04A0917B04B0917C04F8
:103A30000196A11DB11D8093790490937A04A093FF
:103A40007B04B0937C04DF91CF911F910F91089577
:103A500011E01093D0028BE893E00E94D20D88E52C
:103A600093E00E94D20D109283041092840410926D
:103A70008504109286041092870410928804109294
:103A8000890410928A0410928B0410928C04109274
:103A90008D0410928E0440910C0450910D0460919D
:103AA0000E0470910F0440937F0450938004609340
:103AB00081047093820410937D0481E00E94041BB2
:103AC000EBCE0E94141A86CF21FFA6CF4091770437
:103AD00064E374E08FEB93E00E94272844E354E012
:103AE00064E274E08FEB93E00E94880A44E254E0C1
:103AF00068E174E08FEB93E00E94F70A28E134E07C
:103B000044E254E06CE074E08FEB93E00E94C30B5E
:103B100083CFCF93DF93EC0188819981DC01ED9114
:103B2000FC910190F081E02D09952A813B81280FBD
:103B3000391F3B832A83DF91CF910895DB01ED91FB
:103B4000FC9111970190F081E02DBC01CD01099409
:103B50000F931F93CF93DF938C01F801C281D38120
:103B60008881992787FD90950E949C3A892B29F09E
:103B70002196F801D383C283F0CFDF91CF911F91BB
:103B80000F9108950F931F93CF93DF931F92CDB79B
:103B9000DEB78C0169830E94A81DD8011296ED91B1
:103BA000FC9113978081698186130AC03196139620
:103BB000FC93EE931297C8010E94A81D81E001C0FA
:103BC00080E00F90DF91CF911F910F910895FB013D
:103BD0002191BF01222379F0DC011296ED91FC9135
:103BE00013973081321307C03196DC011396FC9392
:103BF000EE931297ECCF81E0211180E00895BF92FF
:103C0000CF92DF92EF92FF920F931F93CF93DF93A8
:103C10007C01EB01009771F463E872E0CE01DF9163
:103C2000CF911F910F91FF90EF90DF90CF90BF90B9
:103C30000C941230E881F9810190F081E02D62E26C
:103C4000CE0109958C01F70161917F01662351F046
:103C5000E3E9F2E0B080BB2079F191819617B1F0F1
:103C60003296F8CFE881F9810190F081E02D62E28F
:103C7000CE010995800F911FDF91CF911F910F9178
:103C8000FF90EF90DF90CF90BF900895E881F98189
:103C90000190F081E02D6CE5CE0109956C01E88181
:103CA000F9810190F081E02D6B2DCE0109958C0DED
:103CB0009D1D080F191FC7CFE881F9810190F08180
:103CC000E02DCE010995F5CFCF93FC015081523202
:103CD00029F0573219F080E090E023C09C012F5F5B
:103CE0003F4FD901F901CF0101964081442399F357
:103CF000451791F04C3569F401964181E7E9F2E00E
:103D0000C081CC2331F0C41302C0418102C032967D
:103D1000F7CF4D93FC01E7CF1C92FB019183808389
:103D2000C901CF910895DC011296ED91FC91139792
:103D3000309731F06115710531F4CF010296089585
:103D40008FE894E00895615071090190F081E02DB1
:103D5000EFCFCF93DF93EC01BC0184E090E00E94B1
:103D60009E1DFC01009729F0D183C083138212822B
:103D700002C089E994E0DF91CF910895CF93DF935A
:103D8000EC01BC0184E090E00E949E1DFC010097C4
:103D900029F0D183C0831382128202C085E994E0A6
:103DA000DF91CF9108950F931F93CF93DF938B01F2
:103DB000FC01C281D381209759F0B8018A819B818F
:103DC0000E94D23A892B39F00990D881C02DF3CFC7
:103DD00080E090E001C0CE01DF91CF911F910F9163
:103DE00008950E94D31E009711F0049608958FE85D
:103DF00094E00895FC01208131812530310519F4CA
:103E000082819381089580E090E00895FC012081F3
:103E10003181273031052CF0628173818481958155
:103E2000089560E070E0CB010895FC0120813181AC
:103E30002630310529F4628173818481958108954A
:103E400060E070E0CB010895FC0180819181892BB5
:103E500029F084E090E09183808362830895FC01DF
:103E600080819181892B31F085E090E0918380837E
:103E7000738362830895FC0180819181892B49F0CD
:103E800030E0295F3F4F3183208342835383648333
:103E900075830895FC0180819181892B41F086E032
:103EA00090E0918380834283538364837583089574
:103EB000FC0180819181892B31F082E090E0918337
:103EC0008083738362830895FC0180819181892BB3
:103ED00031F083E090E0918380837383628308955F
:103EE000FC01208131812230310521F482819381CE
:103EF0000C94931E8FE894E00895CF93DF93FC0118
:103F0000EB01208131812230310531F482819381AE
:103F1000DF91CF910C94D31F2330310531F482818E
:103F20009381DF91CF910C94F91F2530310539F43D
:103F300068817981828193810E94FF1D2BC0263088
:103F4000310559F442815381648175812AE030E062
:103F5000888199810E949A301DC02430310569F40E
:103F60008281882319F068E872E002C06DE872E08F
:103F7000888199810E9412300DC02730310584F06C
:103F8000275030E042815381648175818881998115
:103F90000E94EB312A813B81280F391F3B832A8302
:103FA000DF91CF9108950F931F93CF93DF93EC018F
:103FB0008B016BE5C8010E94891D0A80DB81C02D41
:103FC000209779F0B801CE0102960E947D1F0990DA
:103FD000D881C02D209729F06CE2C8010E94891D6C
:103FE000F1CF6DE5C801DF91CF911F910F910C9436
:103FF000891D0F931F93CF93DF938C01EB016BE728
:10400000CE010E94891DF80102811381011511055D
:1040100009F168817981F801828193810E94FF1DF5
:104020002A813B81280F391F3B832A836AE3CE0113
:104030000E94891DBE01C80104960E947D1FF801DF
:10404000008111810115110529F06CE2CE010E9459
:10405000891DDFCF6DE7CE01DF91CF911F910F91C9
:104060000C94891DFC01608171816115710579F0E5
:104070008AE090E00E949E1DFC01009741F01182B1
:10408000108281E090E095838483CF01089580E0E1
:1040900090E00895DC011296ED91FC911397309712
:1040A00049F080819181009711F0FC01FACF718372
:1040B00060830895FC01738362830895EF92FF92F9
:1040C0000F931F93CF93DF938C017B010E94D31E2C
:1040D000EC01009761F4C8010E943220EC010097C6
:1040E00049F0FB82EA82BC01C8010E944A20CE014D
:1040F000049602C08FE894E0DF91CF911F910F9159
:10410000FF90EF900895FC01608171816115710548
:1041100079F088E090E00E949E1DFC01009741F03C
:104120001182108281E090E093838283CF01089511
:1041300080E090E00895DC011296ED91FC911397D8
:10414000309749F080819181009711F0FC01FACFFE
:10415000718360830895FC017383628308950F93D4
:104160001F93CF93DF938C010E948320EC01009773
:1041700039F0BC01C8010E949B20CE01029602C00A
:104180008FE894E0DF91CF911F910F910895EF9206
:10419000FF920F931F93CF93DF93EC018881998156
:1041A0000E94A91E7C016BE5CE010E94C21D8111F7
:1041B00003C089E994E022C06DE5CE010E94C21DD2
:1041C00081111BC0C7010E94AF208C01BC01CE0130
:1041D0000E940521F801208131812230310548F308
:1041E0006DE5CE010E94C21D811107C06CE2CE01B7
:1041F0000E94C21D8111E6CFDCCFC701DF91CF91B4
:104200001F910F91FF90EF900895EF92FF920F93FF
:104210001F93CF93DF9300D0CDB7DEB78C017B0126
:10422000DC0114968C911497882309F4A3C0815063
:1042300014968C93C8010E94A81DF8018281938175
:10424000DC012C912A337CF420330CF03FC0273260
:1042500009F461C024F4223209F45DC065C02D5216
:104260002230A0F161C02E3609F442C02CF42B3567
:1042700081F02636B1F058C0243799F02B3709F079
:1042800053C0C8010E94C321BC01C7010E94641F22
:104290004BC0C8010E94C720BC01C7010E94581F23
:1042A00043C068E872E0C8010E94E71D882311F04E
:1042B00061E008C06DE872E0C8010E94E71D882334
:1042C00009F160E0C7010E94241F2EC04AE050E0BF
:1042D000BE016F5F7F4F0E946839AB01BC01E9816D
:1042E000FA8180818E3229F18F7D8534D1F521C00C
:1042F00063E872E0C8010E94E71D882319F060E0BE
:1043000070E00FC086E0EFE8F4E0D70101900D9275
:104310008A95E1F709C0B8016E5F7F4F0E94641E65
:10432000BC01C7010E942F1FF80184818F5F848325
:1043300021C0B8016E5F7F4FD80112968D919C917C
:1043400013970E940538AB01BC01F801228133812B
:1043500089819A81281B390B2150C7010E943B1F7C
:10436000E3CFD8011396FC93EE931297C7010E94F6
:104370004A1FDACF0F900F90DF91CF911F910F91CD
:10438000FF90EF900895CF92DF92EF92FF920F93FC
:104390001F93CF93DF93EC01888199810E94BE1E09
:1043A0006C016BE7CE010E94C21D811103C085E93B
:1043B00094E035C06DE7CE010E94C21D81112EC070
:1043C0007E0182E0E80EF11CB7018A819B810E9488
:1043D000641E8C01009759F36AE3CE010E94C21D4E
:1043E000882329F3B801C6010E945E208C01BC011C
:1043F000CE010E940521F801208131812230310552
:10440000B0F26DE7CE010E94C21D811107C06CE2BF
:10441000CE010E94C21D8111D7CFC9CFC601DF9145
:10442000CF911F910F91FF90EF90DF90CF90089563
:10443000CF93DF9300D000D01F92CDB7DEB79A8321
:1044400089837C836B834D83CE0101960E94C321B7
:104450000F900F900F900F900F90DF91CF910895D4
:1044600010929A041092990410929C0410929B044A
:10447000109296041092950410929804109297044A
:104480001092900410928F0408958091CD0490E0D2
:104490002091CE04821B910908952091CE04809131
:1044A000CD04281750F4E22FF0E0E153FB4F808158
:1044B00090E02F5F2093CE0408958FEF9FEF089533
:1044C000E091CE048091CD04E81730F4F0E0E153A0
:1044D000FB4F808190E008958FEF9FEF089508953E
:1044E000CF92DF92EF92FF920F931F93CF93DF93C0
:1044F0007C01CB018A012091A904222389F0EB01E0
:104500006B01C40ED51ECC15DD0569F06991D7018C
:10451000ED91FC910190F081E02DC7010995F3CF59
:10452000642F0E94CF23C801DF91CF911F910F917B
:10453000FF90EF90DF90CF900895CF93DF931F927D
:10454000CDB7DEB769832091A9042223D1F0209151
:10455000AA04203240F021E030E0FC0133832283C2
:1045600080E090E015C08091AB04E82FF0E0E455C6
:10457000FB4F998190838F5F8093AB048093AA0453
:1045800005C061E0CE0101960E94CF2381E090E05A
:104590000F90DF91CF910895FC011382128248EEB3
:1045A00053E060E070E0448355836683778386EA56
:1045B00092E09183808308951092CE041092CD04EE
:1045C0001092AB041092AA040C941A23862F413245
:1045D00008F040E26FEC74E00E9438231092CE04A1
:1045E0008093CD04089521E00C94E62281E080932D
:1045F000A9046093CC041092AB041092AA0408950D
:104600000F93062F21E04091AA046CEA74E0809198
:10461000CC040E947C231092AB041092AA04109246
:10462000A9040F91089561E00C9400238DE994E0B2
:104630000C94CC2210925C0581E080935A05109274
:10464000590561E082E10E947B2D61E083E10E94D7
:104650007B2DE9EBF0E080818E7F808380818D7FF0
:10466000808388E48093B80085E48093BC0008953B
:10467000413208F03FC090915C059111FCCF91E070
:1046800090935C0520935A052FEF2093EF0410922E
:104690003405240F2093330590935B0590915B05BF
:1046A000880F892B80935B0580915905813041F4F7
:1046B0001092590580915B058093BB0085EC01C089
:1046C00085EE8093BC0080915C058130E1F38091A0
:1046D0003405841710F44091340525E335E0FB01DF
:1046E000D9018A2F821B841718F48D918193F9CFF9
:1046F000842F089580E008950F93413208F046C05A
:1047000090915C059111FCCF92E090935C05009331
:104710005A059FEF9093EF041092340540933305B0
:10472000FB0165E375E0DB019A2F961B941718F4E3
:1047300091919D93F9CF10925B0590915B05880F45
:10474000892B80935B0580915905813041F410924B
:10475000590580915B058093BB0085EC01C085EE17
:104760008093BC00222321F080915C058230E1F32C
:104770008091EF048F3F61F08091EF04803251F01F
:104780008091EF04803341F483E007C081E005C0ED
:1047900080E003C082E001C084E00F91089561329F
:1047A00098F420915C05243089F460931105FC0194
:1047B00083E195E0DC012A2F281B261718F42191AC
:1047C0002D93F9CF80E0089581E0089582E0089567
:1047D00085ED8093BC008091BC0084FDFCCF1092DD
:1047E0005C05089585EC8093BC0010925C050895EB
:1047F0001F920F920FB60F9211242F933F934F9356
:104800005F936F937F938F939F93AF93BF93EF9338
:10481000FF938091B900887F803609F49CC068F5C9
:10482000883209F45BC090F4803109F454C038F444
:10483000882309F4F5C0883009F44DC0F5C08831EB
:1048400009F44CC0803209F45DC0EEC0803409F434
:1048500068C048F4803309F455C0883309F0E4C0D7
:104860008093EF04A8C0803509F44FC0883509F45F
:104870005DC0883409F0D8C0D5C0883909F4C6C0F5
:10488000A8F4883709F467C038F4883609F463C09F
:10489000803709F460C0C8C0883809F4B7C08039CF
:1048A00009F45FC0803809F0BFC05BC0803B09F4E9
:1048B00085C038F4803A09F466C0883A09F47EC0AD
:1048C000B3C0803C09F4A6C0883C09F4A3C0883B6F
:1048D00009F489C0A9C080915B0510C0909134058E
:1048E00080913305981770F5E091340581E08E0FC3
:1048F00080933405F0E0EB5CFA4F80818093BB003D
:1049000085EC85C08093EF048DC0E091340581E093
:104910008E0F809334058091BB00F0E0EB5CFA4F82
:10492000808390913405809133056DC0E09134050A
:1049300081E08E0F809334058091BB00F0E0EB5C4A
:10494000FA4F808380915A0581116CC081E0809379
:10495000590584EA60C083E080935C051092F004FE
:10496000CFCF8091F004803208F050C0E091F00485
:1049700081E08E0F8093F0048091BB00F0E0EF5057
:10498000FB4F8083BDCF8091F004803230F4E09102
:10499000F004F0E0EF50FB4F10820E94E82360919A
:1049A000F00470E0E0915505F091560581EF94E038
:1049B00009951092F0040E94F22336C084E080939F
:1049C0005C051092120510921105E0915705F091C7
:1049D0005805099580911105811105C081E08093EA
:1049E000110510921305E091120581E08E0F80935E
:1049F0001205F0E0ED5EFA4F80818093BB0090914C
:104A0000120580911105981708F47ACF85E88093F4
:104A1000BC000AC085EC8093BC0010925C0504C009
:104A20001092EF040E94E823FF91EF91BF91AF91A4
:104A30009F918F917F916F915F914F913F912F91B6
:104A40000F900FBE0F901F901895EF92FF920F934B
:104A50001F93CF93DF9300D0CDB7DEB7062F142F6F
:104A6000682F8DE994E029833A830E94F622602F13
:104A70008DE994E00E949D222981022FE22E3A8145
:104A8000F32E8E2D801B811740F4F70161917F0179
:104A90008DE994E00E949D22F4CF8DE994E00E947C
:104AA000132391E0811190E0892F0F900F90DF91F7
:104AB000CF911F910F91FF90EF900895CF93DF93C7
:104AC0001F92CDB7DEB749839E012F5F3F4F41E074
:104AD0000E9425250F90DF91CF910895DF92EF92EC
:104AE000FF920F931F93CF93DF93C62F042F79016B
:104AF000682F8DE994E00E94F6226C2F8DE994E0F6
:104B00000E949D2210E0000F111FD12CCD2DD0E06E
:104B1000C017D1078CF4CC0FDD1FCE0DDF1D6981CE
:104B20008DE994E00E949D2268818DE994E00E94C5
:104B30009D22D394D394EACF8DE994E00E9413236D
:104B400091E0811190E0892FDF91CF911F910F911A
:104B5000FF90EF90DF900895CF93DF9300D0CDB713
:104B6000DEB75A8349839E012F5F3F4F41E00E9489
:104B70006E250F900F90DF91CF9108953F924F9245
:104B80005F926F927F928F929F92AF92BF92CF92DD
:104B9000DF92EF92FF920F931F93CF93DF9300D09A
:104BA00000D000D0CDB7DEB7682E562E742E3A83D3
:104BB00029830E94282C6B017C01312C412C872DEC
:104BC00090E09C838B834801A12CB12C3714B0F565
:104BD000662D8DE994E00E94F622652D8DE994E022
:104BE0000E949D228DE994E00E941323662D8DE999
:104BF00094E00E94F6224B815C81431951094132B5
:104C0000510514F040E250E0662D8DE994E00E94D9
:104C1000F3228DE994E00E944522892B59F1011578
:104C2000110579F10E94282C6C197D098E099F09C4
:104C3000681579058A059B0520F11CC00115110531
:104C400089F10E94282C6C197D098E099F0920E0AA
:104C500030E0601771078207930720F1872D90E0FD
:104C6000242D332727FD309528173907DCF44424F9
:104C70004A9418C0872D90E2971508F480E2380E08
:104C8000A5CFE981FA81E40DF11D47FCFA95FE8379
:104C9000ED838DE994E00E944D22ED81FE818083B9
:104CA0004394B7CF842D26960FB6F894DEBF0FBE7F
:104CB000CDBFDF91CF911F910F91FF90EF90DF90CB
:104CC000CF90BF90AF909F908F907F906F905F90AC
:104CD0004F903F9008950F931F9389019A0141E0EF
:104CE0000E94BE251F910F910895DF92EF92FF92CF
:104CF0000F931F93CF93DF931F92CDB7DEB7D42EC0
:104D000079019801AE014F5F5F4F0E946B2661E011
:104D100070E001C0660FDA94EAF799819623F701F3
:104D200090830F90DF91CF911F910F91FF90EF90A3
:104D3000DF900895CF92DF92EF92FF920F931F932F
:104D4000CF93DF931F92CDB7DEB7C42ED22E97013B
:104D5000AE014F5F5F4F0E946B268823F1F04C2D10
:104D600050E04D1951094F5F5F4F61E070E002C0A4
:104D7000660F771FDA94E2F761507109042E01C0C3
:104D8000660F0A94EAF72981262330E002C03595A0
:104D900027954A95E2F7F80120830F90DF91CF9194
:104DA0001F910F91FF90EF90DF90CF900895EF92B9
:104DB000FF920F931F93CF93DF931F92CDB7DEB770
:104DC000182F062FF42EE22E2091650130916601F6
:104DD000AE014F5F5F4F0E946B26898121E030E07A
:104DE0000F2C01C0220F0A94EAF7EE2019F0482F89
:104DF000422B03C0422F409548234983602F812FC7
:104E00000E945E250F90DF91CF911F910F91FF902F
:104E1000EF900895DF92EF92FF920F931F93CF933D
:104E2000DF931F92CDB7DEB7F82EE62ED42E122FC9
:104E30002091650130916601AE014F5F5F4F0E9486
:104E40006B26882319F14D2D50E0411B51094F5F0E
:104E50005F4FE1E0F0E002C0EE0FFF1F1A95E2F7AE
:104E60003197042E01C0EE0F0A94EAF701C0000F3B
:104E70004A95EAF74E2F409589814823E0234E2B2F
:104E800049836E2D8F2D0E945E2501C080E00F901A
:104E9000DF91CF911F910F91FF90EF90DF900895D8
:104EA00028E6FC0120830895462F69E1FC018081FA
:104EB0000C945E250F93062F23E045E06AE1FC0188
:104EC00080810E940A270F9108950F93062F23E0F7
:104ED00042E06AE1FC0180810E940A270F91089557
:104EE0000F93062F22E044E06BE1FC0180810E94D9
:104EF0000A270F9108950F93062F22E044E06CE1FA
:104F0000FC0180810E940A270F910895462F6FE1CE
:104F1000FC0180810C945E25462F60E2FC018081BB
:104F20000C945E25462F61E2FC0180810C945E2585
:104F3000462F62E2FC0180810C945E25643048F4C7
:104F4000262F220F260F2B5D622FFC0180810C94EF
:104F50005E250895462F68E3FC0180810C945E2550
:104F6000CF93DF93EC012091650130916601AC0194
:104F70004F5F5F4F6AE388810E946B268981DF91D2
:104F8000CF910895262F46E06AE6FC0180810C94BB
:104F9000D726262F45E06AE6FC0180810C94D726AF
:104FA00021E042E06AE6FC0180810C94D72621E0F2
:104FB00041E06AE6FC0180810C94D72621E047E0BD
:104FC0006BE6FC0180810C94D726262F46E06BE629
:104FD000FC0180810C94D7260F93062F23E042E03A
:104FE0006BE6FC0180810E940A270F910895CF9300
:104FF000DF93EC0161E00E94EC2760E0CE010E94AB
:10500000702760E0CE010E947B2760E0CE01DF9137
:10501000CF910C94E5270F931F93CF93DF93EC016F
:1050200000916501109166019C012F5F3F4F42E0A6
:1050300062E788810E94BE25898190E0982F8827A9
:105040002A81822BDF91CF911F910F9108950F93A9
:105050001F939B01009165011091660164E7FC01BB
:1050600080810E94BE251F910F910895EF92FF92BB
:105070000F931F93CF93DF93EC01E0906501F090C5
:1050800066018C010F5F1F4F26E046E065E78881CF
:105090000E949A268981DF91CF911F910F91FF90F5
:1050A000EF9008950E94362891E0843309F090E053
:1050B000892F08950F931F93CF93DF93EC010091F5
:1050C0006501109166019C012F5F3F4F40E060E059
:1050D00088810E9475268981DF91CF911F910F9160
:1050E0000895262F40E060E0FC0180810C94D726D3
:1050F000EF92FF920F931F93CF93DF93EC01E09019
:105100006501F09066018C010F5F1F4F26E046E0BD
:1051100060E088810E949A268981DF91CF911F915A
:105120000F91FF90EF9008950F93062F26E046E031
:1051300060E0FC0180810E940A270F910895EF92A0
:10514000FF920F931F93CF93DF93EC01E0906501E3
:10515000F09066018C010F5F1F4F26E046E061E092
:1051600088810E949A268981DF91CF911F910F91AA
:10517000FF90EF9008950F93062F26E046E061E040
:10518000FC0180810E940A270F910895EF92FF92FF
:105190000F931F93CF93DF93EC01E0906501F090A4
:1051A00066018C010F5F1F4F26E046E062E08881B8
:1051B0000E949A268981DF91CF911F910F91FF90D4
:1051C000EF9008950F93062F26E046E062E0FC0181
:1051D00080810E940A270F910895AB0166E0FC01CF
:1051E00080810C94AC25AB0168E0FC0180810C94BB
:1051F000AC25AB016AE0FC0180810C94AC25AB01CD
:1052000063E1FC0180810C94AC25AB0165E1FC01FC
:1052100080810C94AC25AB0167E1FC0180810C948A
:10522000AC25262F47E06AE6FC0180810C94D72646
:1052300021E043E06AE6FC0180810C94D7266F717F
:105240002111606241116064462F6DE6FC0180818E
:105250000C945E25462F6EE6FC0180810C945E2541
:10526000CF93DF93EC012091650130916601AC0191
:105270004F5F5F4F6FE688810E946B268981DF91C7
:10528000CF9108955F926F927F928F929F92AF928B
:10529000BF92CF92DF92EF92FF920F931F93CF9323
:1052A000DF937C015B016A01622E702E20E040E0FA
:1052B000662D0E941F29602FC7010E942A29C0E085
:1052C000D0E0812C99249394CC15DD05A8F5CE016E
:1052D0004096C816D90618F45C2C5C1A02C0A0E1EE
:1052E0005A2E252D30E0C4018719910982179307A2
:1052F00014F4572C519400916501109166019501A9
:105300002C0F3D1F452D6FE6F70180810E94BE25C1
:10531000C50DD11D750CCC15DD05B0F6711001C0A1
:10532000639420E040E0662DC7010E941F29672D8D
:10533000C7010E942A29C8CFDF91CF911F910F91F9
:10534000FF90EF90DF90CF90BF90AF909F908F90A5
:105350007F906F905F9008952F923F924F925F924F
:105360006F927F928F929F92AF92BF92CF92DF9275
:10537000EF92FF920F931F93CF93DF9300D000D053
:105380001F92CDB7DEB79D838C837B836A834A01EE
:10539000322ED02EE98220E040E0632D0E941F29AA
:1053A000602F8C819D810E942A29E980EE2029F0BE
:1053B00080E190E00E9414365C01CC2031F080E165
:1053C00090E00E941436582E492EE12CF12CE8145E
:1053D000F90408F07AC0C70140968816990618F4B7
:1053E000282C2E1802C010E1212E222D30E080E062
:1053F00091E08D1991098217930714F42D2C2194B3
:10540000EA81FB81EE0DFF1DCC2059F0852DA52DE5
:10541000B42D9A2F981B921530F494919D93319648
:10542000F8CF5E2E4F2E252D342D422D6FE6AC8108
:10543000BD818C910E942525622C712CB981BB23E2
:1054400069F1A114B10451F120E040E0632D8C8199
:105450009D810E941F296D2D8C819D810E942A298A
:1054600000916501109166019501422D6FE6EC8176
:10547000FD8180810E94BE25A301B501852D942D5B
:105480000E94BC3A892B51F0C5010E94AC36CC2059
:1054900049F1852D942D0E94AC3624C0E60CF71CF2
:1054A000D20CE814F90408F092CFD11001C0339463
:1054B00020E040E0632D8C819D810E941F296D2D8D
:1054C0008C819D810E942A2982CFF981FF2319F0C6
:1054D000C5010E94AC36CC2039F0852D942D0E9458
:1054E000AC3602C080E001C081E00F900F900F90B9
:1054F0000F900F90DF91CF911F910F91FF90EF9040
:10550000DF90CF90BF90AF909F908F907F906F90E3
:105510005F904F903F902F900895CF92EF920F930E
:10552000CC24C3940E94AC290F91EF90CF900895A2
:105530002F923F924F925F926F927F928F929F92A3
:10554000AF92BF92CF92DF92EF92FF920F931F9391
:10555000CF93DF9300D01F92CDB7DEB74C017B8392
:105560006A833A01D22E222331F088E090E00E9433
:105570001436182FF92E212C312C2614370408F05C
:1055800051C0EA81FB81E20DF31DC10103965C016C
:10559000DD20C1F04491F10131968A819B81E80FB1
:1055A000F91F0491F1013296E80FF91F5490511040
:1055B00044C0F4E02F0E311CEA81FB81EA0DFB1D93
:1055C00084910DC0408101815280EA81FB81E80F06
:1055D000F91F51100DC084E0280E311C80818130EC
:1055E000D1F442E368E3F40180810E945E25C5CFD7
:1055F0001E2FFF2E452C512CC12CEE24E394242F7A
:10560000A201612F7F2DC4010E94AC2912012A0C36
:105610003B1C8111B2CFDD2061F0812F9F2D0E94B4
:10562000AC3607C0DD2039F0812F9F2D0E94AC36AB
:1056300002C080E024C081E022C0252C312CF2E0A1
:10564000F51548F4B101812F9F2D49830E943B3706
:10565000182FF92E4981812F9F2DA0E0B0E02A81DB
:105660003B812A0D3B1DA215B30520F6F901EA0F77
:10567000FB1F5491FC015193CF011196F4CF0F9071
:105680000F900F90DF91CF911F910F91FF90EF90AE
:10569000DF90CF90BF90AF909F908F907F906F9052
:1056A0005F904F903F902F90089521E00C94982A9E
:1056B000462F60E7FC0180810C945E25462F61E750
:1056C000FC0180810C945E258230E8F4E82FF0E044
:1056D000EE0FFF1FE35AFA4F71836083813041F070
:1056E000809169008C7F842B80936900E89A0895EB
:1056F00080916900440F551F440F551F837F842BF1
:1057000080936900E99A08951F920F920FB60F9245
:1057100011242F933F934F935F936F937F938F93B6
:105720009F93AF93BF93EF93FF9380915D0590910B
:105730005E05892B29F0E0915D05F0915E050995E4
:10574000FF91EF91BF91AF919F918F917F916F9159
:105750005F914F913F912F910F900FBE0F901F902F
:1057600018951F920F920FB60F9211242F933F930B
:105770004F935F936F937F938F939F93AF93BF9359
:10578000EF93FF9380915F0590916005892B29F03D
:10579000E0915F05F09160050995FF91EF91BF9150
:1057A000AF919F918F917F916F915F914F913F91B9
:1057B0002F910F900FBE0F901F9018951F920F9270
:1057C0000FB60F9211242F933F938F939F93AF9314
:1057D000BF938091620590916305A0916405B0919B
:1057E00065053091610523E0230F2D3720F40196E4
:1057F000A11DB11D05C026E8230F0296A11DB11DF4
:10580000209361058093620590936305A0936405DE
:10581000B09365058091660590916705A091680534
:10582000B09169050196A11DB11D80936605909305
:105830006705A0936805B0936905BF91AF919F91EB
:105840008F913F912F910F900FBE0F901F90189541
:105850002FB7F8946091620570916305809164059B
:10586000909165052FBF08953FB7F8948091660524
:1058700090916705A0916805B091690526B5A89B30
:1058800005C02F3F19F00196A11DB11D3FBF66272E
:10589000782F892F9A2F620F711D811D911D42E073
:1058A000660F771F881F991F4A95D1F70895CF92E9
:1058B000DF92EF92FF92CF93DF936B017C010E9406
:1058C000342CEB01C114D104E104F10489F00E94ED
:1058D00034320E94342C6C1B7D0B683E734090F375
:1058E00081E0C81AD108E108F108C851DC4FEACFBD
:1058F000DF91CF91FF90EF90DF90CF900895789453
:1059000084B5826084BD84B5816084BD85B58260C4
:1059100085BD85B5816085BDEEE6F0E08081816062
:105920008083E1E8F0E01082808182608083808162
:1059300081608083E0E8F0E0808181608083E1EB3A
:10594000F0E0808184608083E0EBF0E08081816022
:105950008083EAE7F0E080818460808380818260D8
:1059600080838081816080838081806880831092C1
:10597000C10008951F93CF93DF93182FEB0161E0CF
:105980000E94422D209711F460E004C0CF3FD10562
:1059900039F461E0812FDF91CF911F910C947B2D21
:1059A000E12FF0E0E45DF64FE491E330F9F048F4E4
:1059B000E130B9F0E230A1F584B5806284BDC8BDA4
:1059C00034C0E730E9F0E83019F1E43049F580916E
:1059D0008000806280938000D0938B00C0938A0007
:1059E00024C084B5806884BDC7BD1FC0809180007D
:1059F000806880938000D0938900C093880015C090
:105A00008091B00080688093B000C093B3000DC057
:105A10008091B00080628093B000C093B40005C054
:105A2000C038D1050CF0B5CFAFCFDF91CF911F912A
:105A30000895833081F028F4813099F08230A1F00C
:105A400008958730A9F08830B9F08430D1F480917E
:105A500080008F7D03C0809180008F7780938000CD
:105A6000089584B58F7702C084B58F7D84BD089575
:105A70008091B0008F7703C08091B0008F7D8093BC
:105A8000B0000895CF93DF9390E0FC01E05CF64F07
:105A90002491FC01EC5AF64F8491882349F190E05F
:105AA000880F991FFC01E458F64FA591B4918E58C8
:105AB000964FFC01C591D4919FB7611108C0F8942D
:105AC0008C91209582238C93888182230AC0623036
:105AD00051F4F8948C91322F309583238C938881E4
