:100000000C9425050C940D260C943A260C944D0561
:100010000C944D050C944D050C944D050C944D0518
:100020000C944D050C944D050C944D050C944D0508
:100030000C944D050C944D050C944D050C944D05F8
:100040000C9467260C944D050C94A8290C94DA297D
:100050000C944D050C944D050C944D050C944D05D8
:100060000C94C0240C944D05084AD73B3BCE016E3E
:1000700084BCBFFDC12F3D6C74319ABD56833DDAFF
:100080003D00C77F11BED9E4BB4C3E916BAAAABE0E
:10009000000000803F05A84CCDB2D44EB93836A937
:1000A000020C50B9918688083CA6AAAA2ABE000074
:1000B00000803F005355423A436D642F002F2F219B
:1000C0002036303530206661696C65642028002F49
:1000D0002F2036303530207264790A002F2F2049C6
:1000E0006E69744932432F363035300A002F2F2085
:1000F0004D6F746F72496E69740A002F2F2050691A
:100100006C6F7420563252312E3036202867797247
:100110006F312E31290A002F2F2120636D6447652E
:100120006F6D002F2F20636D6454657374310A0066
:1001300001B202FFFF0190040923A135016A020602
:1001400000016008000000000000000000600440A2
:100150000000000162020000006004004000000393
:100160007B034CCD6C03AB0336567600680402CBA0
:1001700047A202180400058BC1010C040000000016
:10018000037F060CC92C97979703890326466600C0
:100190006C02200002400400000000024404000041
:1001A000000002480400000000024C0400000000AF
:1001B0000250040000000002540400000000025835
:1001C0000400000000025C040000000002BC040007
:1001D00000000001EC0400004000037F060CC92C65
:1001E0009797970402030D355D040904872D353D6B
:1001F00000A3010000000001078601FE074105F190
:1002000020283038077E01300746019A074704F15D
:10021000283038076C04F12830380216020001FB40
:1002200000003E000B003600010002000300000049
:10023000650054FFEF0000FA80000B1282000100FD
:1002400002000000000000000000000000000000AC
:10025000280000FFFF4581FFFFFA72000000000048
:100260000003E80000000100017FFFFFFE800100A5
:100270001B00000000000000000000000000000063
:100280003E03304000000002CAE3093E8000002027
:10029000000000000000004000000060000000417D
:1002A000FF000000000B2A0000165500002182FD0F
:1002B000872650FD800000001F0000000580000020
:1002C00000000000010000000200000003000040E8
:1002D0000000000000046F0002653200005EC040B4
:1002E000000000000000000000000000000000FB13
:1002F0008C6F5DFD5D08D9007C733B006C12CC32C5
:1003000000139D3200D0D632000800400001F4FFF7
:10031000E68079020000000000D0D600002710FB24
:10032000000000400000000000000000000000008D
:1003300000000100000000000001000100000000BA
:1003400000FA36FFBC308E0005FBF0FFD95BC8FF1A
:10035000D09ABE000010A9FFF41EB200CEBBF70079
:1003600000000100000004000200020200000CFF77
:10037000C280000001800000CF800040000000002B
:100380000000010000000000000600000000140052
:10039000000000000000000000000000000000005D
:1003A000000000000000000000000000000000004D
:1003B000000000000000000000000000000000003D
:1003C000000000033F68B6793528BCC67ED16C803A
:1003D000000000400000000000B26A0000000000C1
:1003E0000000000000000000003FF00000003000AE
:1003F00000000000000000000000000000000000FD
:1004000000000000000000000000000000000000EC
:1004100000254D002F706D000005AE000C02D000CD
:1004200000000000650054FFEF0000000000000025
:100430000001000044000000000C0000000100006A
:100440000000000065000000540000FFEF00000005
:10045000000000000000000000000000000000405C
:10046000000000000000000000000000000000404C
:10047000000000000000000000000000000000007C
:100480000000010000000200000000000000000069
:10049000000000000000000000000000000000005C
:1004A000000000000000000000000000000000004C
:1004B0001B00000000000000000000000000000021
:1004C000000000000000000000000000000000002C
:1004D00000000000000000000000004000000000DC
:1004E0001B000000000000000000000000000000F1
:1004F00000000000000000000000000000000000FC
:1005000000000000000000000000000000000000EB
:10051000000000000000000000000000000000D803
:10052000DCBAA2F1DEB2B8B4A88191F74A907F910B
:100530006AF3F9DBA8F9B0BAA080F2CE81F3C2F178
:10054000C1F2C3F3CCA2B280F1C6D880BAA7DFDF74
:10055000DFF2A7C3CBC5B6F087A2942448703C95C0
:10056000406834589B78A2F183922D557DD8B1B460
:10057000B8A1D09180F270F370F27C80A8F101B044
:100580009887D943D886C988BAA1F20EB89780F166
:10059000A9DFDFDFAADFDFDFF2AAC5CDC7A90CC95B
:1005A0002C97979797F1A989264666B0B4BA80AC84
:1005B000DEF2CAF1B28C02A9B69800890E161EB8F6
:1005C000A9B4992C547CB08AA896365676F1B9AF66
:1005D000B4B083C0B8A89711B18F98B9AFF0240810
:1005E00044106418F1A329557DAF83B593AFF00093
:1005F0002850F1A3869F61A6DADEDFD9FAA386969A
:10060000DB31A6D9F8DFBAA68FC2C5C7B28CC1B894
:10061000A2DFDFDFA3DFDFDFD8D8F1B8A8B286B46E
:10062000980D355DB8AA98B0872D353DB2B6BAAFF2
:100630008C96198F9FA70E161EB49AB8AA872C54B1
:100640007CB9A3DEDFDFA3B180F2C4CDC9F1B8A9C4
:10065000B499830D355D89B9A32D557DB593A30E4E
:10066000161EA92C547CB8B4B0F19783A81184A5A8
:100670000998A383F0DA240844106418D8F1A52956
:10068000557DA58595021A2E3A565A4048F9F3A38E
:10069000D9F8F098832408441064189782A8F111BF
:1006A000F098A2240844106418DAF3DED883A594E5
:1006B00001D9A302F1A2C3C5C7D8F18492A24DDA31
:1006C0002AD84869D92AD86855DA32D85071D9322F
:1006D000D8705DDA3AD85879D93AD87893A34DDAF8
:1006E0002AD84869D92AD86855DA32D85071D9320F
:1006F000D8705DDA3AD85879D93AD878A88A9AF079
:100700002850789EF38818F19F1D98A8D908D8C85A
:100710009F129EF315A8DA1210D8F1AFC89787344C
:10072000B5B994A421F3D922D8F22DF3D92AD8F25D
:1007300035F3D932D881A4606061D961D86C686919
:10074000D969D8747071D971D8B1A384193D5DA3EA
:10075000831A3E5E931030811011B8B0AF8F94F2BF
:10076000DA3ED8B49AA88729DAF8D8879A35DAF821
:10077000D8879A3DDAF8D8B1B9A49885022E56A543
:1007800081000C14A397B08AF12DD928D84DD948EF
:10079000D86DD968D8B1840DDA0ED8A32983DA2CA4
:1007A0000ED8A3844983DA2C4C0ED8B8B0A88A9A04
:1007B000F520AADADFD8A840AAD0DADED8A860AA45
:1007C000DAD0DFD8F19786A8319B069907AB972836
:1007D000889BF00C201440B8B0B4A88C9CF004287E
:1007E00051791D301438B282ABD0982C50507878A3
:1007F0009BF11AB0F08A9CA82951798B2951798AEA
:100800002470598B2058718A4469388B3940688A22
:100810006448318B304960A58820097158446811BB
:100820003964493019F1AC002C547CF08CA80428B0
:100830005078F1889726A85998AC8C02264666F025
:10084000899CA8295179247059446938644831A990
:100850008809205970AB11384069A8193148608C5B
:10086000A83C415C207C00F187981986A86E767EB2
:10087000A999882D557D9EB9A38A228A6E8A568AA7
:100880005E9FB183062646660E2E4E6E9DB8AD0065
:100890002C547CF2B18CB499B9A32D557D8191ACC7
:1008A00038AD3AB58391AC2DD928D84DD948D86DFB
:1008B000D968D88C9DAE29D904AED851D904AED808
:1008C00079D904D881F39DAD008DAE1981ADD901E0
:1008D000D8F2AEDA26D88E912983A7D9ADADADADC9
:1008E000F32AD8D8F1B0AC89913E5E76F3AC2E2EC7
:1008F000F1B18C5A9CAC2C2828289CAC3018A898B4
:100900008128343C9724A728343C9C24F2B089AC3D
:10091000912C4C6C8A9B2DD9D8D851D9D8D879D95B
:10092000D8D8F19E88A331DAD8D8912DD928D84DBE
:10093000D948D86DD968D8B18393353D8025DAD8A8
:10094000D88569DAD8D8B49381A328343CF3AB8B2B
:10095000F8A391B609B4D9ABDEFAB0879CB9A3DD90
:10096000F1A3A3A3A395F1A3A3A39DF1A3A3A3A381
:10097000F2A3B49080F2A3A3A3A3A3A3A3A3A3A3CE
:10098000B2A3A3A3A3A3A3B087B599F1A3A3A398EC
:10099000F1A3A3A3A397A3A3A3A3F39BA3A3DCB94E
:1009A000A7F1262626D8D8FF000000080002010083
:1009B000000304070000000000000000010204081A
:1009C00010204080010204081020010204081020B9
:1009D00004040404040404040202020202020303E5
:1009E0000303030300000000230026002900000089
:1009F0000000250028002B00000000002400270034
:100A00002A004E414E494E495459494E46CDCCCC10
:100A10003D0AD7233C17B7D13877CC2B329595E6D2
:100A2000241FB14F0A000020410000C84200401CB2
:100A30004620BCBE4CCA1B0E5AAEC59D7400BA15EA
:100A4000D618C419991ADE230A2A11241FBECFEF23
:100A5000D8E0DEBFCDBF12E0A0E0B1E0E4EBF1E70B
:100A600002C005900D92AA3EB107D9F726E0AAEE82
:100A7000B2E001C01D92AF38B207E1F71AE0CAE454
:100A8000DAE004C02297FE010E941431CE33D10770
:100A9000C9F70E944E2A0C94D8380C9400001F927B
:100AA0000F920FB60F9211242F938F939F93AF93B2
:100AB000BF9323B1822F817090E04A9B03C0892BA2
:100AC00019F00EC0892B61F0809175049091760425
:100AD000A0917704B09178040197A109B1090BC0E6
:100AE0008091750490917604A0917704B091780478
:100AF0000196A11DB11D8093750490937604A09377
:100B00007704B0937804BF91AF919F918F912F910B
:100B10000F900FBE0F901F9018951F920F920FB657
:100B20000F9211242F938F939F93AF93BF9323B171
:100B300021FB882780F990E04B9B03C0892B19F09B
:100B40000EC0892B61F08091790490917A04A09174
:100B50007B04B0917C040197A109B1090BC080917D
:100B6000790490917A04A0917B04B0917C04019661
:100B7000A11DB11D8093790490937A04A0937B0406
:100B8000B0937C04BF91AF919F918F912F910F9063
:100B90000FBE0F901F90189581E0089580E0089592
:100BA00080E008959C01FC01EE5FFE4F8081918101
:100BB000680F791F613041E0740730F471836083FE
:100BC0000296820F931F089580E090E008959C01A3
:100BD000FC01EE57FF4F80819181680F791F6138CA
:100BE000710530F4718360830296820F931F08951C
:100BF00080E090E008959C01FC01EE5BFF4F808156
:100C00009181680F791F6134710530F471836083BD
:100C10000296820F931F089580E090E0089563E2AA
:100C200071E08CEE95E00E949B2A81E0089567E1D7
:100C300071E08CEE95E00E949B2A80E0089560911F
:100C40005A0170915B010E944E190E94E81960934D
:100C50004C0181E0089564E671E00E944E190E9403
:100C6000E81981E0089560915A0170915B010E943A
:100C70004E190E94E81921E06130710509F020E069
:100C80002093550181E00895CF93DF93EC0169E64D
:100C900071E00E944E190E94D919609385047093E7
:100CA000860480938704909388046BE671E0CE01FC
:100CB0000E944E190E94D919609381047093820496
:100CC00080938304909384046DE671E0CE010E94CA
:100CD0004E190E94D91960937D0470937E0480930D
:100CE0007F049093800481E0DF91CF910895CF93AA
:100CF000DF93EC016FE671E00E944E190E94D91952
:100D000061E771E0CE010E944E190E94D91981E07D
:100D1000DF91CF91089560915A0170915B010E941B
:100D20004E190E94E81921E06130710509F020E0B8
:100D300020935601622F8CE00E94042881E00895E0
:100D40000E944519FC0181E020813181223031056A
:100D500008F480E00895CF93DF93EC0163E771E03E
:100D60000E94A006882319F063E771E009C067E7D5
:100D700071E0CE010E94A006882339F067E771E098
:100D8000CE010E944E190E94D919DF91CF9108958A
:100D9000CF93DF93EC0180915601882309F498C02A
:100DA00060915A0170915B01CE010E94A0068823D8
:100DB00009F442C060915A0170915B01CE010E941A
:100DC0004E190E94E8196C397F4FACF060915A01BE
:100DD00070915B01CE010E944E190E94E8196536A0
:100DE00071054CF460915A0170915B01CE010E9433
:100DF0004E190E94E81940E050E46CE975E4409314
:100E000038045093390460933A0470933B0480E0B3
:100E100090E0A0E2B2E48093400490934104A09358
:100E20004204B09343044093070450930804609332
:100E3000090470930A0444C06BE771E0CE010E947C
:100E4000A0068823F9F06BE771E0CE010E944E19ED
:100E50000E94E81980E090E4ACE9B5E4809338049E
:100E600090933904A0933A04B0933B0440E050E0DF
:100E700060E272E440934004509341046093420462
:100E8000709343046EE771E0CE010E94A0068823B0
:100E9000F9F06EE771E0CE010E944E190E94E81948
:100EA00080E090E4ACE9B5E48093070490930804F3
:100EB000A0930904B0930A0480E090E0A0E2B2E4B9
:100EC00080930F0490931004A0931104B093120424
:100ED00081E0DF91CF910895CF93DF93EC01609192
:100EE0005A0170915B010E944E190E94E81921E09D
:100EF0006130710509F020E02093000560915801F0
:100F000070915901CE010E94A006882369F060917A
:100F1000580170915901CE010E944E190E94E819A2
:100F20007093500160934F0181E0DF91CF9108955C
:100F3000CF93DF93EC0160915A0170915B010E94A5
:100F40004E190E94E81921E06130710509F020E096
:100F50002093FF046091580170915901CE010E94C5
:100F6000A006882369F06091580170915901CE0163
:100F70000E944E190E94E819709354016093530126
:100F800081E0DF91CF9108958F929F92AF92BF92AF
:100F9000CF92EF920F931F93CF93DF93CDB7DEB72E
:100FA000C059D1090FB6F894DEBF0FBECDBF5C01AA
:100FB0000E94931F6EE170E080E090E00E94E026C6
:100FC00060E0C5010E949A1F21E041E060E1C50197
:100FD0000E94C82066E0C5010E94D320C5010E947E
:100FE000D92020E040E060E0C5010E94C820C50192
:100FF0000E940F20C5010E942D20182FC5010E94BC
:101000005420882EC5010E947B20982E4FE760E077
:10101000C5010E94531F60E0C5010E947E1F48E683
:1010200060E0C5010E94531FC5010E948C1F64E14E
:1010300070E080E090E00E94E026EE24E39400E07F
:1010400020E049E857E06FE172E0C5010E943622D6
:10105000882309F40EC240EC50E06FE571E0C50151
:101060000E94FE22882309F406C263E0C5010E94A3
:10107000A11F62E1C5010E945F1F64E0C5010E94DB
:10108000091F61E0C5010E940F1F63E0C5010E94B6
:101090001A1F63E0C5010E94251F63E0C5010E947D
:1010A000012360E0C5010E94072360E0C5010E94A2
:1010B0002620612FC5010E944920682DC5010E948C
:1010C0007020692DC5010E949720812C912CF4017C
:1010D000E05DFE4FE491A1E8B0E0AC0FBD1FA80DAC
:1010E000B11DEC9381E0880D9FEF891A990AE3E026
:1010F000E81568F7CD57DF4F4881C358D04050E01E
:101100009A012E5F3F4F90E02817390704F7C12C52
:10111000EE24E394CE57DF4F0881C258D040CF571A
:10112000DF4F2881C158D04061E870E06C0F7D1F0F
:101130006D5F7F4FC5010E94552160E0F401E05DC5
:10114000FE4FE491A1E8B0E0AC0FBD1FA60FB11DAA
:10115000EC936F5FFFEF8F1A9F0A643078F3CD57DF
:10116000DF4F4881C358D04050E09A012E5F3F4F77
:10117000862F90E0281739070CF7C12CEE24E39452
:10118000CE57DF4F0881C258D040CF57DF4F28815C
:10119000C158D04061E870E06C0F7D1F6D5F7F4FDC
:1011A000C5010E945521C5010E94851FC5010E94ED
:1011B000C01F482FBE016F5F7F4FC5010E94DC1F1B
:1011C00062E0C5010E943B1F6CE9C5010E94471FF8
:1011D00060E5C5010E94411F60E0C5010E944D1FEE
:1011E000C5010E94851F61E0C5010E94771F61E073
:1011F000C5010E94BA20C5010E94C12060E0F4012F
:10120000E05DFE4FE491A1E8B0E0AC0FBD1FA60F7A
:10121000B11DEC936F5F8FEF881A980A643078F3F2
:10122000CD57DF4F4881C358D04050E09A012E5F20
:101230003F4F862F90E0281739070CF7C12CEE247A
:10124000E394CE57DF4F0881C258D040CF57DF4FCD
:101250002881C158D04061E870E06C0F7D1F6D5F40
:101260007F4FC5010E94552160E0F401E05DFE4F13
:10127000E491A1E8B0E0AC0FBD1FA60FB11DEC9347
:101280006F5F9FEF891A990A643078F3CD57DF4F6B
:101290004881C358D04050E09A012E5F3F4F862FBF
:1012A00090E0281739070CF7C12CEE24E394CE57B1
:1012B000DF4F0881C258D040CF57DF4F2881C15837
:1012C000D04061E870E06C0F7D1F6D5F7F4FC501FE
:1012D0000E94552160E0F401E05DFE4FE491A1E839
:1012E000B0E0AC0FBD1FA60FB11DEC936F5FEFEF29
:1012F0008E1A9E0A643078F3CD57DF4F4881C35869
:10130000D04050E09A012E5F3F4F862F90E0281783
:1013100039070CF7C12CEE24E394CE57DF4F088138
:10132000C258D040CF57DF4F2881C158D04061E824
:1013300070E06C0F7D1F6D5F7F4FC5010E945521CE
:10134000C5010E94C01F83309105D0F3482FBE0114
:101350006F5F7F4FC5010E94DC1FC5010E94651FA2
:1013600060E0F401E05DFE4FE491A1E8B0E0AC0F75
:10137000BD1FA60FB11DEC936F5FFFEF8F1A9F0A81
:10138000643078F3CD57DF4F4881C358D04050E0E8
:101390009A012E5F3F4F862F90E0281739070CF7F0
:1013A000CE57DF4F0881C258D040CF57DF4F28813A
:1013B000C158D04061E870E06C0F7D1F6D5F7F4FBA
:1013C000C5010E94EB20C5010E94C01F833091051A
:1013D000D0F3482FBE016F5F7F4FC5010E94DC1F15
:1013E000C5010E94651FF401E05DFE4F60E084913D
:1013F000A1E8B0E0AC0FBD1FA60FB11D8C936F5FCD
:10140000643010F43196F3CFCD57DF4F4881C35885
:10141000D04050E09A012E5F3F4F862F90E0281772
:10142000390784F761E870E06C0F7D1F6D5F7F4FB7
:10143000C12CEE24E394CE57DF4F0881C258D04030
:10144000CF57DF4F2881C158D040C5010E94552198
:1014500060E0C5010E94BA208AE290E0F501938322
:101460008283C5010E94851FC5010E94651F80E01F
:1014700003C081E001C082E0C057DF4F0FB6F8948F
:10148000DEBF0FBECDBFDF91CF911F910F91EF90C7
:10149000CF90BF90AF909F908F900895CF93DF93A0
:1014A000DB01FA01309719F4EC01E881F9818081C0
:1014B00090E0982F88272181820F911D11969C938F
:1014C0008E93848190E0982F88272581820F911D2B
:1014D00013969C938E931297808590E0982F88277F
:1014E0002185820F911D15969C938E931497848568
:1014F00090E0982F88272585820F911D17969C9341
:101500008E93169780E0DF91CF910895FF920F930D
:101510001F93CF93DF93CDB7DEB728970FB6F8941C
:10152000DEBF0FBECDBF8B01BE016F5F7F4F0E943C
:101530004E0AF82E81114CC069817A81882777FD87
:101540008095982F0E94262E20E030E040E858E356
:101550000E94502FF80160837183828393836B8193
:101560007C81882777FD8095982F0E94262E20E089
:1015700030E040E858E30E94502FF80164837583FF
:10158000868397836D817E81882777FD8095982F4C
:101590000E94262E20E030E040E858E30E94502FC1
:1015A000F80160877187828793876F8178858827A4
:1015B00077FD8095982F0E94262E20E030E040E8AD
:1015C00058E30E94502FF8016487758786879787B4
:1015D0008F2D28960FB6F894DEBF0FBECDBFDF91DA
:1015E000CF911F910F91FF9008954F925F926F924C
:1015F0007F928F929F92AF92BF92CF92DF92EF92A3
:10160000FF920F931F93CF93DF93CDB7DEB7289749
:101610000FB6F894DEBF0FBECDBF8B01DA01149672
:10162000CD90DD90ED90FC9017971C964D905D90BD
:101630006D907C901F978D909D90AD90BC9013976E
:1016400018968D919D910D90BC91A02D89839A83C0
:10165000AB83BC83A3019201C701B6010E94502F46
:101660006D837E838F83988729813A814B815C814A
:10167000C501B4010E94502F9B01AC016D817E8198
:101680008F8198850E94BD2C9B01AC010E94BE2CCD
:10169000F8016083718382839383A7019601C5015A
:1016A000B4010E94502F6D837E838F839887A3019E
:1016B000920169817A818B819C810E94502F9B01CC
:1016C000AC016D817E818F8198850E94BE2C9B012B
:1016D000AC010E94BE2CD80114966D937D938D931E
:1016E0009C931797A5019401C501B4010E94502F46
:1016F0004B015C01A7019601C701B6010E94502F62
:101700009B01AC01C501B4010E94BD2C6B017C01A1
:1017100029813A814B815C81CA01B9010E94502F15
:101720009B01AC01C701B6010E94BD2C6B017C017D
:10173000A3019201C301B2010E94502F9B01AC0191
:10174000C701B6010E94BE2CF801608771878287AD
:10175000938780E028960FB6F894DEBF0FBECDBF0A
:10176000DF91CF911F910F91FF90EF90DF90CF907D
:10177000BF90AF909F908F907F906F905F904F90B1
:1017800008952F923F924F925F926F927F928F9225
:101790009F92AF92BF92CF92DF92EF92FF920F9300
:1017A0001F93CF93DF9300D000D000D0CDB7DEB72A
:1017B0001B018A013E832D83FA01C080D180E28023
:1017C000F380A7019601C701B6010E94BE2C698370
:1017D0007A838B839C83F80184809580A680B78070
:1017E000A5019401C501B4010E94BE2C2B013C014E
:1017F000A701960169817A818B819C810E94502F7B
:101800006B017C01A5019401C301B2010E94502F1C
:101810009B01AC01C701B6010E94BE2C20E030E064
:1018200040E85FE30E94BD2C6B017C01F80120853C
:10183000318542855385C301B2010E94502F2B018F
:101840003C01F801248535854685578569817A8173
:101850008B819C810E94502F9B01AC01C301B2017E
:101860000E94BD2CA70196010E94312DF1016083D9
:10187000718382839383ED81FE816481758186818A
:101880009781C084D184E284F3849B01AC010E94DF
:10189000502F4B015C01A7019601C701B6010E94C0
:1018A000502F9B01AC01C501B4010E94BE2C0E94C7
:1018B000BD2F9B01AC01ED81FE8160817181828130
:1018C00093810E948B2D0E945C2DF10164837583AE
:1018D00086839783ED81FE8160817181828193810E
:1018E000C084D184E284F3849B01AC010E94502F18
:1018F0004B015C01A7019601C701B6010E94502F60
:101900009B01AC01C501B4010E94BE2C0E94BD2FF9
:101910009B01AC01ED81FE81648175818681978197
:101920000E948B2D0E945C2DF10160877187828758
:10193000938780E026960FB6F894DEBF0FBECDBF2A
:10194000DF91CF911F910F91FF90EF90DF90CF909B
:10195000BF90AF909F908F907F906F905F904F90CF
:101960003F902F900895DC0118962C9118971796A8
:10197000EC912223A1F0B4E0EB9FF0011124EB588D
:10198000FB4F80819181A281B3819C01AD016627CB
:101990007727CB01621B730B840B950B089534E002
:1019A000E39FF0011124EB58FB4F6081718182812C
:1019B000938108953F924F925F926F927F928F92A0
:1019C0009F92AF92BF92CF92DF92EF92FF920F93CE
:1019D0001F93CF93DF9300D000D000D0CDB7DEB7F8
:1019E0004C017E836D8361E871E08CEE95E00E948E
:1019F000C02A4AE050E06D817E818CEE95E00E9425
:101A00006C2B6DE871E08CEE95E00E94C02AF40129
:101A1000458D568D678D70A122E030E08CEE95E00B
:101A20000E94732C69E971E08CEE95E00E94C02A57
:101A30002D813E81B901882777FD8095982F0E94DE
:101A4000262E2B013C019B01AC01F401658D768DA6
:101A5000878D90A10E94842D882309F4D9C0F401B8
:101A600080852D813E8137FD02C0382E03C033248E
:101A70003394382680914C012D813E8137FF03C07D
:101A8000319521953109A901662757FD6095762F7B
:101A900049835A836B837C835FEF859FC001112448
:101AA00064E670E00E942730CB01AA2797FDA0953D
:101AB000BA2FBF93AF939F938F93A12CB12C650145
:101AC00014E6E12EF12C00E010E020E030E0A90166
:101AD00069817A818B819C810E94752C6B017C01CC
:101AE000632DF40185810E940428B601F4018481EC
:101AF0000E9443276CE971E08CEE95E00E94C02AB9
:101B000066EA71E08CEE95E00E94C02A4AE050E05F
:101B10006D817E818CEE95E00E946C2B6CEA71E009
:101B20008CEE95E00E94C02A6EEA71E08CEE95E0A2
:101B30000E94C02AF401458956896789708D22E088
:101B400030E08CEE95E00E94732C6CEA71E08CEE34
:101B500095E00E94C02A63EB71E08CEE95E00E9454
:101B6000C02AF401418D528D638D748D22E030E0E6
:101B70008CEE95E00E94732C6CEA71E08CEE95E09F
:101B80000E94C02A68EB71E08CEE95E00E94C02AAA
:101B9000F40141A152A163A174A122E030E08CEED6
:101BA00095E00E94732C6DEB71E08CEE95E00E9445
:101BB000C02A60EC71E08CEE95E00E94C02A4AE0F9
:101BC00050E0632D8CEE95E00E94812B6CEA71E071
:101BD0008CEE95E00E94C02A66EC71E08CEE95E0F8
:101BE0000E94C02A4AE050E0B6018CEE95E00E94C7
:101BF0006C2B69E971E08CEE95E00E94C02AF4013B
:101C0000458E568E678E70A20F900F900F900F909A
:101C100026960FB6F894DEBF0FBECDBFDF91CF91F1
:101C20001F910F91FF90EF90DF90CF90BF90AF90FA
:101C30009F908F907F906F905F904F903F9008950E
:101C4000CF93DF93EC0160E070E00E94DA0C198E14
:101C50001A8E1B8E1C8E1D8E1E8E1F8E18A21DA20C
:101C60001EA21FA218A619A21AA21BA21CA2EF81D3
:101C7000198A1A8A1B8A1C8A84E0E89FF0011124C1
:101C8000EB58FB4F1082118212821382DF91CF91A9
:101C90000895AF92BF92CF92EF92FF920F931F934E
:101CA000CF93DF93EC015B01F42E122F1B820E9475
:101CB000B12669877A878B879C8743E050E0B5011E
:101CC000CE010E94F535FC821D830E83EF82C8860B
:101CD00080915601882341F061E08F2D0E94CB272F
:101CE00061E0812F0E94CB27CE01DF91CF911F9120
:101CF0000F91FF90EF90CF90BF90AF900C94200E7B
:101D0000CF93DF93EC0183E294E00E94200E82EFF8
:101D100093E00E94200E109201051092020510928D
:101D20000305109204051092050510920605109205
:101D30000705109208051092090510920A051092E5
:101D40000B0510920C0510920D0510920E051092C5
:101D50000F051092100561E771E0CE010E94A00608
:101D6000882379F061E771E0CE010E944E190E944C
:101D7000D91960930D0570930E0580930F0590930C
:101D800010056FE671E0CE010E94A006882379F06D
:101D90006FE671E0CE010E944E190E94D91960933E
:101DA000090570930A0580930B0590930C056CEC64
:101DB00071E0CE010E94A0068823A9F06CEC71E0CE
:101DC000CE010E944E190E94D91925E33AEF4EE840
:101DD0005CE30E94502F6093050570930605809385
:101DE0000705909308058091890490918A04A09139
:101DF0008B04B0918C048093010590930205A0930D
:101E00000305B093040581E0DF91CF9108952F92EF
:101E10003F924F925F926F927F928F929F92AF927A
:101E2000BF92CF92DF92EF92FF920F931F93CF93C7
:101E3000DF9300D000D0CDB7DEB71C012A013B01F3
:101E40004801590120E030E0A901C701B6010E9414
:101E5000452F18160CF08CC0A5019401C301B201E6
:101E60000E94BD2C4B015C01A70196010E94502FDE
:101E7000F10125A136A147A150A50E94BE2C2B013E
:101E80003C01F10165A376A387A390A721A532A504
:101E900043A554A5C501B4010E94BD2CA70196011C
:101EA0000E948B2D6B017C01F10161A772A783A7B2
:101EB00094A7209185043091860440918704509125
:101EC0008804C501B4010E94502F69837A838B83F3
:101ED0009C8320918104309182044091830450912D
:101EE0008404C301B2010E94502F9B01AC0169819F
:101EF0007A818B819C810E94BE2C2B013C01209118
:101F00007D0430917E0440917F0450918004C7018C
:101F1000B6010E94502F9B01AC01C301B2010E9487
:101F2000BE2C6B017C0120E030E040EA51EC0E94C5
:101F3000842D87FD11C020E030E040EA51E4C70164
:101F4000B6010E94452F18166CF4C12CD12C60EA02
:101F5000E62E61E4F62E06C0C12CD12C50EAE52E07
:101F600051ECF52EF10181A292A2A3A2B4A203C06A
:101F7000C12CD12C7601C701B6010F900F900F90A4
:101F80000F90DF91CF911F910F91FF90EF90DF9015
:101F9000CF90BF90AF909F908F907F906F905F9009
:101FA0004F903F902F9008952F923F924F925F92C3
:101FB0006F927F928F929F92AF92BF92CF92DF9259
:101FC000EF92FF920F931F93CF93DF9300D000D037
:101FD000CDB7DEB71C010E94B1264B015C01F101B7
:101FE00081859285A385B48575016401C81AD90AD3
:101FF000EA0AFB0AC1010E94B30CD10151964D902F
:102000005D906D907C9054976419750986099709C5
:102010000E94242E20917104309172044091730427
:10202000509174040E94502F2B013C01A8EEB3E0A4
:10203000A70196010E947C300E94242E9B01AC01D6
:10204000C301B2010E948B2D2B013C01F101618F74
:10205000728F838F948F858D968DA78DB0A1898384
:102060009A83AB83BC83C701B6010E94242E6B0107
:102070007C01F101458956896789708D9301820140
:10208000C1010E94070F9B01AC0169817A818B819C
:102090009C810E94BE2C0E94F32DC1010E94DA0C8B
:1020A000D10119968D929D92AD92BC921C970F9082
:1020B0000F900F900F90DF91CF911F910F91FF9094
:1020C000EF90DF90CF90BF90AF909F908F907F90D8
:1020D0006F905F904F903F902F90089510927904E9
:1020E00010927A0410927B0410927C041092750472
:1020F00010927604109277041092780462E082E0E5
:102100000E94CB2762E083E00E94CB2762E088E058
:102110000E94CB2762E089E00E94CB2741E050E09B
:102120006FE475E080E00E94ED2541E050E06DE84D
:1021300075E081E00E94ED2580915601882341F1F0
:1021400061E085E00E94CB2760E085E00E940428E2
:1021500061E086E00E94CB2760E086E00E940428D0
:1021600061E08BE00E94CB2760E08BE00E940428B6
:1021700061E081E10E94CB2760E081E10E940428B8
:1021800083E294E00E94200E82EF93E00E94200EF2
:10219000109256010895EF92FF920F931F93CF93E1
:1021A000DF937C010CE011E0C0E0D0E06EEC71E068
:1021B000C7010E944E190E94CD19BC01F80180810F
:1021C00091810E94EC350C5F1F4F892B81F4CC0F5D
:1021D000DD1FCC0FDD1FC45FDE4FEA81FB81C7012D
:1021E000DF91CF911F910F91FF90EF90099421966D
:1021F000C031D105D9F680E0DF91CF911F910F91C9
:10220000FF90EF9008958C01C0E0D0E0C017D10797
:10221000B4F461E08DE00E94042868EC70E080E096
:1022200090E00E94E02660E08DE00E94042868ECC7
:1022300070E080E090E00E94E0262196E7CF60E227
:1022400073E080E090E00E94E026DECF26E040E0F0
:1022500052EC61E070E08CEE95E00E9446296BEF55
:1022600070E08CEE95E00E949B2A61E08DE00E9478
:10227000CB2761E08CE00E94CB2762E084E00E94E3
:10228000CB2760E08DE00E94042860E08CE00E9493
:1022900004286DEE70E08CEE95E00E949B2A0E946F
:1022A0006E1080915701882309F48FC06CED70E0A7
:1022B0008CEE95E00E949B2A8FE195E00E94A4237A
:1022C00088E18093B80062E087E00E94CB2784E534
:1022D00094E00E94AC1F64E170E080E090E00E9416
:1022E000E02684E594E00E94072084E594E00E94C3
:1022F000C4078093F50464E170E080E090E00E9400
:10230000E0268091F504811146C061E084E594E007
:102310000E94BA2064E170E080E090E00E94E02634
:1023200084E594E00E94651F8093F6046FEC70E0F2
:102330008CEE95E00E949B2A809156049091570460
:102340009093F4048093F3046CED70E084E594E0E2
:102350000E94A8206CE470E084E594E00E94AE2026
:102360006BEA7FEF84E594E00E94B4206CEF76E0A6
:1023700084E594E00E94A2200E94B126605D7A4824
:102380008F4F9F4F6093EB027093EC028093ED02AE
:102390009093EE021AC06DEB70E08CEE95E00E9417
:1023A0009B2A4AE050E06091F5048CEE95E00E9493
:1023B000812B69E971E08CEE95E00E94C02A809142
:1023C000F50490E001960E9403118CE390E0909355
:1023D00068048093670480E090E0AFE2B3E4809308
:1023E000690490936A04A0936B04B0936C0480E03A
:1023F00090E0ACE5B3E480936D0490936E04A093F9
:102400006F04B093700482E192E8AFEDBDE3809376
:10241000710490937204A0937304B093740464EBFA
:1024200070E08CEE95E00E949B2A60915E017091B5
:102430005F018CEE95E00E94C02A60915C01709172
:102440005D018CEE95E00C94C02A4F925F926F92E2
:102450007F928F929F92AF92BF92CF92DF92EF9234
:10246000FF921F93CF93DF93CDB7DEB760970FB680
:10247000F894DEBF0FBECDBF83E294E00E94B30CA0
:102480006D837E838F83988782EF93E00E94B30CE5
:1024900069877A878B879C87809134049091350473
:1024A000A0913604B09137048D809E80AF80B884AF
:1024B000881A990AAA0ABB0A80910304909104041D
:1024C000A0910504B091060449845A846B847C84ED
:1024D000481A590A6A0A7B0A8091890490918A04F1
:1024E000A0918B04B0918C048D879E87AF87B88BA9
:1024F000209101053091020540910305509104059A
:10250000BC01CD010E94BD2C69837A838B839C839F
:1025100021EE3EE245E652E40E94502F6B017C0121
:1025200020E030E0A9010E94452F18166CF411E05C
:102530002DEC3CEC4CEC5DE3C701B6010E94452F4D
:10254000181674F010E00CC02DEC3CEC4CEC5DEB7C
:10255000C701B6010E94842D182F111F1127111FCA
:10256000C501B401640D751D861D971D0E94262EA0
:10257000209171043091720440917304509174045D
:102580000E94502F20E030E040E05FE30E94502F97
:102590006B017C0120E030E0A9010E94452F181654
:1025A0005CF42AE037ED43E25CE3C701B6010E9428
:1025B000452F181654F00AC02AE037ED43E25CEBD1
:1025C000C701B6010E94842D87FD11E080900505AA
:1025D00090900605A0900705B090080520E030E037
:1025E00040E05FE369817A818B819C810E94502F5A
:1025F0009B01AC01C501B4010E94BE2C2B013C0122
:102600000E94B32F9B01AC01C701B6010E94502F5D
:102610009B01AC0160910D0570910E0580910F0535
:10262000909110050E94BE2C60930D0570930E05CD
:1026300080930F0590931005C301B2010E94882D6D
:102640009B01AC01C701B6010E94502F9B01AC0158
:102650006091090570910A0580910B0590910C0518
:102660000E94BE2C6093090570930A0580930B05A8
:1026700090930C0529813A814B815C81C501B4019D
:102680000E94BE2C6B017C0120E030E0A9010E9479
:10269000842D87FD09C0C0920505D0920605E09201
:1026A0000705F092080510C02BED3FE049EC50E41F
:1026B000C701B6010E94BE2C609305057093060504
:1026C0008093070590930805C0900505D0900605F6
:1026D000E0900705F09008052BED3FE049EC50E451
:1026E000C701B6010E94452F87FD10C02BED3FE0CA
:1026F00049EC50E4C701B6010E94BD2C609305056A
:102700007093060580930705909308058D859E8537
:10271000AF85B8898093010590930205A0930305C6
:10272000B09304058D819E81AF81B8858093340478
:1027300090933504A0933604B093370489859A8525
:10274000AB85BC858093030490930404A093050497
:10275000B0930604812F60960FB6F894DEBF0FBECB
:10276000CDBFDF91CF911F91FF90EF90DF90CF9081
:10277000BF90AF909F908F907F906F905F904F90A1
:102780000895CF93DF9300D000D0CDB7DEB77A8322
:1027900069831C821B82BE016F5F7F4F0E948B1971
:1027A0008B819C810F900F900F900F90DF91CF91B4
:1027B0000895CF92DF92EF92FF920F931F93CF93E2
:1027C000DF93CDB7DEB7C454D1090FB6F894DEBF9E
:1027D0000FBECDBF8EE892E09A83898325961FAE07
:1027E0001EAE2597CE0101960E94F7188C01E0904D
:1027F0005E01F0905F0160916001709161010E9443
:102800004E19B7010E94021A62ED71E0C8010E94E0
:102810004E1964ED71E00E94021A20E030E04AE7B0
:1028200054E460910D0570910E0580910F05909113
:1028300010050E948B2D6B017C0161E771E0C801DE
:102840000E944E1924E0B701A6010E940E1A20E052
:1028500030E04AE754E46091090570910A058091DF
:102860000B0590910C050E948B2D6B017C016FE68E
:1028700071E0C8010E944E1924E0B701A6010E9430
:102880000E1A21EE3EE245E652E460910505709194
:10289000060580910705909108050E94502F6B0155
:1028A0007C016CEC71E0C8010E944E1922E0B70176
:1028B000A6010E940E1A6CEE75E0C8010E94C113B9
:1028C00060915C0170915D018CEE95E00E94C02AE0
:1028D000CC5BDF4F0FB6F894DEBF0FBECDBFDF91EC
:1028E000CF911F910F91FF90EF90DF90CF900895BF
:1028F000CF92DF92EF92FF920F931F93CF93DF93CC
:10290000CDB7DEB7C458D1090FB6F894DEBF0FBEFD
:10291000CDBF84E992E09A838983CD57DF4F198236
:102920001882C358D040CE0101960E94F7188C013E
:10293000E0905E01F0905F01609160017091610133
:102940000E944E19B7010E94021A62ED71E0C8019F
:102950000E944E1969ED71E00E94021AC09038047D
:10296000D0903904E0903A04F0903B0463EE71E0BB
:10297000C8010E944E1922E0B701A6010E940E1A5A
:10298000C0903C04D0903D04E0903E04F0903F04A1
:1029900066EE71E0C8010E944E1922E0B701A6015F
:1029A0000E940E1AC0904404D0904504E090460462
:1029B000F090470469EE71E0C8010E944E1922E0D0
:1029C000B701A6010E940E1A6CEE75E0C8010E94C4
:1029D000C11360915C0170915D018CEE95E00E94E5
:1029E000C02ACC57DF4F0FB6F894DEBF0FBECDBF65
:1029F000DF91CF911F910F91FF90EF90DF90CF90DB
:102A00000895DF92EF92FF920F931F93CF93DF937E
:102A1000CDB7DEB7C454D1090FB6F894DEBF0FBEF0
:102A2000CDBFD82E2EE832E03A83298325961FAEFB
:102A30001EAE2597CE0101960E94F7188C01E090FA
:102A40005E01F0905F0160916001709161010E94F0
:102A50004E19B7010E94021A62ED71E0C8010E948E
:102A60004E196CEE71E00E94021A60915A01709149
:102A70005B01C8010E944E194D2D50E060E070E0EE
:102A80000E941D1A6CEE75E0C8010E94C11360918E
:102A90005C0170915D018CEE95E00E94C02ACC5BD8
:102AA000DF4F0FB6F894DEBF0FBECDBFDF91CF91E1
:102AB0001F910F91FF90EF90DF900895CF92DF92DA
:102AC000EF92FF920F931F93CF93DF93CDB7DEB7B3
:102AD000C458D1090FB6F894DEBF0FBECDBF7C013C
:102AE00084E992E09A838983CD57DF4F1982188257
:102AF000C358D040CE0101960E94F7188C01C090B7
:102B00005E01D0905F0160916001709161010E944F
:102B10004E19B6010E94021A62ED71E0C8010E94CE
:102B20004E196CEF71E00E94021A60E072E0C80179
:102B30000E944E19B7010E94021A6CEE75E0C8019E
:102B40000E94C11360915C0170915D018CEE95E073
:102B50000E94C02ACC57DF4F0FB6F894DEBF0FBEDD
:102B6000CDBFDF91CF911F910F91FF90EF90DF903C
:102B7000CF900895CF92EF920F9380E090E0A0E87D
:102B8000BFE38093A1049093A204A093A304B09305
:102B9000A4041092A5041092A6041092A704109207
:102BA000A8041092A9041092AA041092AB041092E7
:102BB000AC041092AD041092AE041092AF041092C7
:102BC000B0041092950410929604109297041092FB
:102BD00098041092990410929A0410929B041092F7
:102BE0009C0410929D0410929E0410929F041092D7
:102BF000A00484E594E00E94051FC12CE12C00E1B3
:102C00002BE045E06BE771E083E294E00E94490E1F
:102C1000CC24C394EE24E3940FE021E146E06EE778
:102C200071E082EF93E00E94490E0F91EF90CF90F8
:102C300008950F931F93CF93DF93CDB7DEB7C4549E
:102C4000D1400FB6F894DEBF0FBECDBF8CEE95E03D
:102C50000E946328892B09F47FC08CEE95E00E94C6
:102C60007C288D3009F478C02091F0033091F10375
:102C70008A3009F05FC0C90101969093F1038093F7
:102C8000F003F901E051FD4F10828AE992E09A8346
:102C90008983CD5FDE4F19821882C350D1404AE04C
:102CA00060EF72E0CE0101960E940F198C0162ED77
:102CB00071E00E94A00662ED71E0882379F0C801FE
:102CC0000E944E190E94CD196EEC71E00E94EC3505
:102CD000892B09F5C8010E94CB101DC0C8010E94B4
:102CE0004E190E94CD199F938F9384E092E09F9399
:102CF0008F938E010B5F1E4F1F930F930E9404361C
:102D0000B8018CEE95E00E94C02A0F900F900F90B2
:102D10000F900F900F904091F0035091F10360E0FD
:102D200070E080EF92E00E94E5351092F10310927E
:102D3000F00312C0A9014F5F5F4F5093F10340931E
:102D4000F003F901E051FD4F80834115514020F01F
:102D500084E090E00E940311CC5BDE4F0FB6F89444
:102D6000DEBF0FBECDBFDF91CF911F910F910895B0
:102D7000AF92BF92CF92DF92EF92FF920F931F9389
:102D8000CF93DF9300914D0110914E01B091F70464
:102D9000A091F804F091F904E091FA049091FB04F9
:102DA0008091FC045801C12CD12CE12CF12C00E0C5
:102DB00010E02B2F3A2F4F2F5E2F692F782F809105
:102DC000FD049091FE040E948730A0E00E94F23042
:102DD000A1F40E94B1260091EB021091EC02209127
:102DE000ED023091EE02061717072807390728F47D
:102DF0008091EA02882309F407C10E941916809184
:102E00005501882329F18091EF0281111BC089B1FE
:102E100082958170C82F30E0D32F80910A01909164
:102E20000B01C817D907A1F0D0930B01C0930A0179
:102E300084E18093EF0281E0CD2B09F080E00E94D5
:102E4000011506C081508093EF0287FD1092EF02BA
:102E500080915601882349F180915101909152014E
:102E60002091F7043091F8044091F9045091FA044C
:102E70006091FB047091FC045C01C12CD12CE12C0D
:102E8000F12C00E010E08091FD049091FE040E947E
:102E90008730A0E00E94F23041F483E294E00E9487
:102EA000D40F82EF93E00E94D40F80915301909150
:102EB00054012091F7043091F8044091F9045091A5
:102EC000FA046091FB047091FC045C01C12CD12CCC
:102ED000E12CF12C00E010E08091FD049091FE04C3
:102EE0000E948730A0E00E94F23049F40E9425122F
:102EF000882329F08091FF0481110E94D9138091C9
:102F00004F01909150012091F7043091F8044091C5
:102F1000F9045091FA046091FB047091FC045C0187
:102F2000C12CD12CE12CF12C00E010E08091FD04AB
:102F30009091FE040E948730A0E00E94F23081F45C
:102F40008DE00E943A2861E0892B09F060E08DE075
:102F50000E94042880910005882311F01D998EC0DD
:102F600080915701882311F14F9B20C084E594E0A4
:102F70000E94651F8093F60484E594E00E94C01FC0
:102F80009093F2048093F1042091F60424FD04C090
:102F90008115944009F075C084E594E00E94851F76
:102FA00067E172E08CEE95E00E94C02A2091F70460
:102FB0003091F8044091F9045091FA046091FB04B7
:102FC0007091FC048091FD049091FE04A1E00E94A8
:102FD000E6302093F7043093F8044093F9045093BB
:102FE000FA046093FB047093FC048093FD049093B7
:102FF000FE04DF91CF911F910F91FF90EF90DF9032
:10300000CF90BF90AF90089511E01093EA0283E251
:1030100094E00E94200E82EF93E00E94200E109216
:1030200005051092060510920705109208051092EA
:10303000090510920A0510920B0510920C051092CA
:103040000D0510920E0510920F051092100580913B
:10305000890490918A04A0918B04B0918C04809390
:10306000010590930205A0930305B0930405109306
:10307000FF0484E292E00E945E15BFCE0E947814A5
:103080006FCF21FF93CF4091F30461EB74E084E5AF
:1030900094E00E94DC1F41EB54E061EA74E084E5B7
:1030A00094E00E94860A41EA54E065E974E084E510
:1030B00094E00E94F50A25E934E041EA54E069E829
:1030C00074E084E594E00E94C10B84E594E00E94E2
:1030D000851F6CCFCF93DF93EC0188819981DC0150
:1030E000ED91FC910190F081E02D09952A813B81C1
:1030F000280F391F3B832A83DF91CF910895CF9307
:10310000DF93EC0188819981009729F1DC01ED9131
:10311000FC910190F081E02D68E070E00995FC01E0
:103120000097C9F01182108281E090E0938382833E
:10313000AA81BB81109751F08D919C9111970097B6
:1031400011F0DC01F9CFED93FC9302C0FB83EA831D
:10315000CF01029602C089E195E0DF91CF910895F9
:103160000F931F93CF93DF93EC018B016BE5C801A5
:103170000E946A180A80DB81C02D209779F0B8017F
:10318000CE0102960E94431A0990D881C02D209743
:1031900029F06CE2C8010E946A18F1CF6DE5C80100
:1031A000DF91CF911F910F910C946A181092120524
:1031B0001092110510921405109213050895CF93E3
:1031C000DF93EC01E881F9810190F081E02D64E06A
:1031D00070E00995FC01009729F0D183C083138228
:1031E000128202C081E195E0DF91CF910895CF93E3
:1031F000DF93EC01E881F9810190F081E02D64E03A
:1032000070E00995FC01009729F0D183C0831382F7
:10321000128202C085E195E0DF91CF910895CF93AE
:10322000DF9300D000D01F92CDB7DEB79A83898399
:103230007C836B834D83CE0101960E94F51A0F901B
:103240000F900F900F900F90DF91CF9108950F93F3
:103250001F93CF93DF938B01FC01C281D381209711
:1032600059F0B8018A819B810E94EC35892B39F095
:103270000990D881C02DF3CF80E090E001C0CE014D
:10328000DF91CF911F910F9108950E942719009708
:1032900011F00496089589E195E008950F931F9326
:1032A000CF93DF93EC018B010E942719FC0100975B
:1032B00041F588819981009739F1DC01ED91FC910C
:1032C0000190F081E02D6AE070E00995FC01009723
:1032D000D9F01182108281E090E09583848313837A
:1032E0000283AA81BB81109751F08D919C91119717
:1032F000009711F0DC01F9CFED93FC9302C0FB8342
:10330000EA83CF01049602C089E195E0DF91CF9175
:103310001F910F9108950F931F93CF93DF938C010B
:10332000EB016BE7CE010E946A18F801028113815C
:103330000115110509F168817981F8018281938174
:103340000E94461C2A813B81280F391F3B832A8318
:103350006AE3CE010E946A18BE01C80104960E9469
:10336000431AF801008111810115110529F06CE261
:10337000CE010E946A18DFCF6DE7CE01DF91CF91B9
:103380001F910F910C946A18109216051092150552
:1033900010921805109217050895FC0120813181C3
:1033A0002530310519F482819381089580E090E001
:1033B0000895FC0120813181273031052CF0628194
:1033C000738184819581089560E070E0CB01089558
:1033D000FC01208131812630310529F4628173811D
:1033E00084819581089560E070E0CB010895FC012F
:1033F00080819181892B29F084E090E09183808302
:1034000062830895FC0180819181892B31F085E0F0
:1034100090E091838083738362830895FC018081AF
:103420009181892B49F030E0295F3F4F3183208320
:1034300042835383648375830895FC018081918165
:10344000892B41F086E090E091838083428353830F
:10345000648375830895FC0180819181892B31F00B
:1034600082E090E091838083738362830895FC01FE
:1034700080819181892B31F083E090E0918380837A
:10348000738362830895CF93DF93FC01EB01208166
:1034900031812230310531F482819381DF91CF91E6
:1034A0000C94B0182330310531F482819381DF917F
:1034B000CF910C948B192530310539F468817981CD
:1034C000828193810E94461C2BC02630310559F41D
:1034D00042815381648175812AE030E0888199813D
:1034E0000E94222B1DC02430310569F4828188237B
:1034F00019F06CE972E002C061EA72E0888199819A
:103500000E94C02A0DC02730310584F0275030E0DA
:103510004281538164817581888199810E94732CD5
:103520002A813B81280F391F3B832A83DF91CF916A
:10353000089510921A051092190508950F931F937C
:10354000CF93DF938C01F801C281D38188819927C1
:1035500087FD90950E94AF35892B29F02196F801BF
:10356000D383C283F0CFDF91CF911F910F91089544
:103570000F931F93CF93DF931F92CDB7DEB78C01CC
:1035800069830E949E1AD8011296ED91FC911397BF
:103590008081698186130AC031961396FC93EE935D
:1035A0001297C8010E949E1A81E001C080E00F902E
:1035B000DF91CF911F910F910895FB012191BF01E0
:1035C000222379F0DC011296ED91FC911397308162
:1035D000321307C03196DC011396FC93EE931297D9
:1035E000ECCF81E0211180E00895CF92DF92EF923D
:1035F000FF920F931F93CF93DF93EC018881998102
:103600000E94F7186C016BE7CE010E94B81A811175
:1036100003C085E195E035C06DE7CE010E94B81A80
:1036200081112EC07E0182E0E80EF11CB7018A8173
:103630009B810E94AB1C8C01009759F36AE3CE0179
:103640000E94B81A882329F3B801C6010E944E19B6
:103650008C01BC01CE010E944A1BF80120813181FE
:1036600022303105B0F26DE7CE010E94B81A811107
:1036700007C06CE2CE010E94B81A8111D7CFC9CF22
:10368000C601DF91CF911F910F91FF90EF90DF90D6
:10369000CF900895EF92FF920F931F93CF93DF93F4
:1036A00000D0CDB7DEB78C017B01DC0114968C9184
:1036B0001497882309F4A3C0815014968C93C801F1
:1036C0000E949E1AF80182819381DC012C912A3399
:1036D0007CF420330CF03FC0273209F461C024F49D
:1036E000223209F45DC065C02D522230A0F161C0C4
:1036F0002E3609F442C02CF42B3581F02636B1F079
:1037000058C0243799F02B3709F053C0C8010E94E4
:10371000F51ABC01C7010E94371A4BC0C8010E94AC
:10372000081CBC01C7010E942B1A43C06CE972E05F
:10373000C8010E94DD1A882311F061E008C061EA27
:1037400072E0C8010E94DD1A882309F160E0C70118
:103750000E94F7192EC04AE050E0BE016F5F7F4F14
:103760000E947B34AB01BC01E981FA8180818E32F9
:1037700029F18F7D8534D1F521C067EA72E0C80157
:103780000E94DD1A882319F060E070E00FC086E027
:10379000E9E1F5E0D70101900D928A95E1F709C0C2
:1037A000B8016E5F7F4F0E94AB1CBC01C7010E9435
:1037B000021AF80184818F5F848321C0B8016E5F93
:1037C0007F4FD80112968D919C9113970E941833C8
:1037D000AB01BC01F8012281338189819A81281BC8
:1037E000390B2150C7010E940E1AE3CFD80113965E
:1037F000FC93EE931297C7010E941D1ADACF0F9027
:103800000F90DF91CF911F910F91FF90EF9008954E
:10381000EF92FF920F931F93CF93DF93EC01888178
:1038200099810E94DF187C016BE5CE010E94B81AD5
:10383000811103C081E195E022C06DE5CE010E94B7
:10384000B81A81111BC0C7010E947F188C01BC01EE
:10385000CE010E944A1BF8012081318122303105BE
:1038600048F36DE5CE010E94B81A811107C06CE2E1
:10387000CE010E94B81A8111E6CFDCCFC701DF91DB
:10388000CF911F910F91FF90EF900895BF92CF922B
:10389000DF92EF92FF920F931F93CF93DF937C0100
:1038A000EB01009771F467EA72E0CE01DF91CF91EE
:1038B0001F910F91FF90EF90DF90CF90BF900C94ED
:1038C000C02AE881F9810190F081E02D62E2CE0109
:1038D00009958C01F70161917F01662351F0ECEAB3
:1038E000F2E0B080BB2079F191819617B1F0329669
:1038F000F8CFE881F9810190F081E02D62E2CE01FC
:103900000995800F911FDF91CF911F910F91FF902B
:10391000EF90DF90CF90BF900895E881F9810190FA
:10392000F081E02D6CE5CE0109956C01E881F9810B
:103930000190F081E02D6B2DCE0109958C0D9D1D20
:10394000080F191FC7CFE881F9810190F081E02DA0
:10395000CE010995F5CFCF93FC015081523229F069
:10396000573219F080E090E023C09C012F5F3F4F59
:10397000D901F901CF0101964081442399F34517FC
:1039800091F04C3569F401964181E0EBF2E0C081A1
:10399000CC2331F0C41302C0418102C03296F7CF6C
:1039A0004D93FC01E7CF1C92FB0191838083C901F9
:1039B000CF910895EF92FF920F931F93CF93DF93D0
:1039C00000D0CDB7DEB7062F142F682F8FE195E01A
:1039D00029833A830E94BE23602F8FE195E00E94E5
:1039E00065232981022FE22E3A81F32E8E2D801B32
:1039F000811740F4F70161917F018FE195E00E940A
:103A00006523F4CF8FE195E00E94DB2391E08111E3
:103A100090E0892F0F900F90DF91CF911F910F9120
:103A2000FF90EF900895CF93DF931F92CDB7DEB74D
:103A300049839E012F5F3F4F41E00E94DA1C0F90A7
:103A4000DF91CF910895DF92EF92FF920F931F9332
:103A5000CF93DF93C62F042F7901682F8FE195E074
:103A60000E94BE236C2F8FE195E00E94652310E039
:103A7000000F111FD12CCD2DD0E0C017D1078CF431
:103A8000CC0FDD1FCE0DDF1D69818FE195E00E9417
:103A9000652368818FE195E00E946523D394D394D8
:103AA000EACF8FE195E00E94DB2391E0811190E065
:103AB000892FDF91CF911F910F91FF90EF90DF90B1
:103AC0000895CF93DF9300D0CDB7DEB75A834983F3
:103AD0009E012F5F3F4F41E00E94231D0F900F90EA
:103AE000DF91CF9108953F924F925F926F927F92B4
:103AF0008F929F92AF92BF92CF92DF92EF92FF92FE
:103B00000F931F93CF93DF9300D000D000D0CDB799
:103B1000DEB7682E562E742E3A8329830E94B12672
:103B20006B017C01312C412C872D90E09C838B8391
:103B30004801A12CB12C3714B0F5662D8FE195E02A
:103B40000E94BE23652D8FE195E00E9465238FE1E1
:103B500095E00E94DB23662D8FE195E00E94BE2355
:103B60004B815C81431951094132510514F040E207
:103B700050E0662D8FE195E00E94BB238FE195E038
:103B80000E940D23892B59F10115110579F10E942D
:103B9000B1266C197D098E099F09681579058A057A
:103BA0009B0520F11CC00115110589F10E94B12669
:103BB0006C197D098E099F0920E030E060177107BC
:103BC0008207930720F1872D90E0242D332727FDCE
:103BD000309528173907DCF444244A9418C0872DFF
:103BE00090E2971508F480E2380EA5CFE981FA81BA
:103BF000E40DF11D47FCFA95FE83ED838FE195E01E
:103C00000E941523ED81FE8180834394B7CF842DDC
:103C100026960FB6F894DEBF0FBECDBFDF91CF91D1
:103C20001F910F91FF90EF90DF90CF90BF90AF90DA
:103C30009F908F907F906F905F904F903F900895EE
:103C40000F931F9389019A0141E00E94731D1F91F8
:103C50000F910895DF92EF92FF920F931F93CF93EE
:103C6000DF931F92CDB7DEB7D42E79019801AE0154
:103C70004F5F5F4F0E94201E61E070E001C0660F41
:103C8000DA94EAF799819623F70190830F90DF91F8
:103C9000CF911F910F91FF90EF90DF900895CF92F9
:103CA000DF92EF92FF920F931F93CF93DF931F92B8
:103CB000CDB7DEB7C42ED22E9701AE014F5F5F4F56
:103CC0000E94201E8823F1F04C2D50E04D1951091F
:103CD0004F5F5F4F61E070E002C0660F771FDA94BC
:103CE000E2F761507109042E01C0660F0A94EAF7E9
:103CF0002981262330E002C0359527954A95E2F7C1
:103D0000F80120830F90DF91CF911F910F91FF90C9
:103D1000EF90DF90CF900895EF92FF920F931F9353
:103D2000CF93DF931F92CDB7DEB7182F062FF42E57
:103D3000E22E2091620130916301AE014F5F5F4F2F
:103D40000E94201E898121E030E00F2C01C0220F4B
:103D50000A94EAF7EE2019F0482F422B03C0422FB5
:103D6000409548234983602F812F0E94131D0F9097
:103D7000DF91CF911F910F91FF90EF900895DF9207
:103D8000EF92FF920F931F93CF93DF931F92CDB7C4
:103D9000DEB7F82EE62ED42E122F2091620130913C
:103DA0006301AE014F5F5F4F0E94201E882319F10F
:103DB0004D2D50E0411B51094F5F5F4FE1E0F0E0B6
:103DC00002C0EE0FFF1F1A95E2F73197042E01C0D3
:103DD000EE0F0A94EAF701C0000F4A95EAF74E2F5A
:103DE000409589814823E0234E2B49836E2D8F2DEA
:103DF0000E94131D01C080E00F90DF91CF911F91B1
:103E00000F91FF90EF90DF90089528E6FC0120834A
:103E10000895462F69E1FC0180810C94131D0F93D6
:103E2000062F23E045E06AE1FC0180810E94BF1E6D
:103E30000F9108950F93062F23E042E06AE1FC0101
:103E400080810E94BF1E0F9108950F93062F22E0DC
:103E500044E06BE1FC0180810E94BF1E0F91089538
:103E60000F93062F22E044E06CE1FC0180810E9468
:103E7000BF1E0F910895462F6FE1FC0180810C94C5
:103E8000131D462F60E2FC0180810C94131D462F08
:103E900061E2FC0180810C94131D462F62E2FC015B
:103EA00080810C94131D643048F4262F220F260FB6
:103EB0002B5D622FFC0180810C94131D0895462F09
:103EC00068E3FC0180810C94131DCF93DF93EC0118
:103ED0002091620130916301AC014F5F5F4F6AE353
:103EE00088810E94201E8981DF91CF910895262F1D
:103EF00046E06AE6FC0180810C948C1E262F45E08A
:103F00006AE6FC0180810C948C1E21E042E06AE6A6
:103F1000FC0180810C948C1E21E041E06AE6FC01EA
:103F200080810C948C1E21E047E06BE6FC018081CF
:103F30000C948C1E262F46E06BE6FC0180810C94CD
:103F40008C1E0F93062F23E042E06BE6FC0180817C
:103F50000E94BF1E0F910895CF93DF93EC0161E0A3
:103F60000E94A11F60E0CE010E94251F60E0CE01EB
:103F70000E94301F60E0CE01DF91CF910C949A1F18
:103F80000F931F93CF93DF93EC0100916201109187
:103F900063019C012F5F3F4F42E062E788810E94EE
:103FA000731D898190E0982F88272A81822BDF91C9
:103FB000CF911F910F9108950F931F939B01009133
:103FC00062011091630164E7FC0180810E94731D0E
:103FD0001F910F910895EF92FF920F931F93CF932C
:103FE000DF93EC01E0906201F09063018C010F5FC0
:103FF0001F4F26E046E065E788810E944F1E8981B9
:10400000DF91CF911F910F91FF90EF9008950E9443
:10401000EB1F91E0843309F090E0892F08950F930E
:104020001F93CF93DF93EC01009162011091630124
:104030009C012F5F3F4F40E060E088810E942A1E74
:104040008981DF91CF911F910F910895262F40E034
:1040500060E0FC0180810C948C1EEF92FF920F9324
:104060001F93CF93DF93EC01E0906201F090630126
:104070008C010F5F1F4F26E046E060E088810E94C0
:104080004F1E8981DF91CF911F910F91FF90EF908B
:1040900008950F93062F26E046E060E0FC01808142
:1040A0000E94BF1E0F910895EF92FF920F931F93EE
:1040B000CF93DF93EC01E0906201F09063018C01FB
:1040C0000F5F1F4F26E046E061E088810E944F1E8F
:1040D0008981DF91CF911F910F91FF90EF9008950B
:1040E0000F93062F26E046E061E0FC0180810E94EC
:1040F000BF1E0F910895EF92FF920F931F93CF93DE
:10410000DF93EC01E0906201F09063018C010F5F9E
:104110001F4F26E046E062E088810E944F1E8981A1
:10412000DF91CF911F910F91FF90EF9008950F9322
:10413000062F26E046E062E0FC0180810E94BF1E5F
:104140000F910895AB016AE0FC0180810C94611D20
:10415000AB0163E1FC0180810C94611DAB0165E161
:10416000FC0180810C94611DAB0167E1FC01808141
:104170000C94611D262F47E06AE6FC0180810C94B7
:104180008C1E21E043E06AE6FC0180810C948C1EC9
:104190006F712111606241116064462F6DE6FC0170
:1041A00080810C94131D462F6EE6FC0180810C94D7
:1041B000131DCF93DF93EC012091620130916301D5
:1041C000AC014F5F5F4F6FE688810E94201E89819E
:1041D000DF91CF9108955F926F927F928F929F921D
:1041E000AF92BF92CF92DF92EF92FF920F931F9305
:1041F000CF93DF937C015B016A01622E702E20E079
:1042000040E0662D0E94C820602FC7010E94D32085
:10421000C0E0D0E0812C99249394CC15DD05A8F55D
:10422000CE014096C816D90618F45C2C5C1A02C060
:10423000A0E15A2E252D30E0C4018719910982177B
:10424000930714F4572C519400916201109163016B
:1042500095012C0F3D1F452D6FE6F70180810E94CF
:10426000731DC50DD11D750CCC15DD05B0F6711093
:1042700001C0639420E040E0662DC7010E94C82081
:10428000672DC7010E94D320C8CFDF91CF911F9126
:104290000F91FF90EF90DF90CF90BF90AF909F90E5
:1042A0008F907F906F905F9008952F923F924F92E2
:1042B0005F926F927F928F929F92AF92BF92CF92B6
:1042C000DF92EF92FF920F931F93CF93DF9300D073
:1042D00000D01F92CDB7DEB79D838C837B836A832A
:1042E0004A01322ED02EE98220E040E0632D0E9468
:1042F000C820602F8C819D810E94D320E980EE2010
:1043000029F080E190E00E9427315C01CC2031F05F
:1043100080E190E00E942731582E492EE12CF12CAB
:10432000E814F90408F07AC0C70140968816990687
:1043300018F4282C2E1802C010E1212E222D30E076
:1043400080E091E08D1991098217930714F42D2CC8
:104350002194EA81FB81EE0DFF1DCC2059F0852DC3
:10436000A52DB42D9A2F981B921530F494919D93FE
:104370003196F8CF5E2E4F2E252D342D422D6FE62F
:10438000AC81BD818C910E94DA1C622C712CB981A8
:10439000BB2369F1A114B10451F120E040E0632D89
:1043A0008C819D810E94C8206D2D8C819D810E94F1
:1043B000D32000916201109163019501422D6FE6B7
:1043C000EC81FD8180810E94731DA301B501852DC3
:1043D000942D0E94CF35892B51F0C5010E94BF3129
:1043E000CC2049F1852D942D0E94BF3124C0E60CCC
:1043F000F71CD20CE814F90408F092CFD11001C0D8
:10440000339420E040E0632D8C819D810E94C82080
:104410006D2D8C819D810E94D32082CFF981FF2355
:1044200019F0C5010E94BF31CC2039F0852D942DA3
:104430000E94BF3102C080E001C081E00F900F9068
:104440000F900F900F90DF91CF911F910F91FF90E0
:10445000EF90DF90CF90BF90AF909F908F907F9024
:104460006F905F904F903F902F900895CF92EF9272
:104470000F93CC24C3940E9455210F91EF90CF90BD
:1044800008952F923F924F925F926F927F928F92F8
:104490009F92AF92BF92CF92DF92EF92FF920F93D3
:1044A0001F93CF93DF9300D01F92CDB7DEB74C019F
:1044B0007B836A833A01D22E222331F088E090E098
:1044C0000E942731182FF92E212C312C2614370465
:1044D00008F051C0EA81FB81E20DF31DC101039692
:1044E0005C01DD20C1F04491F10131968A819B810C
:1044F000E80FF91F0491F1013296E80FF91F54906B
:10450000511044C0F4E02F0E311CEA81FB81EA0D0A
:10451000FB1D84910DC0408101815280EA81FB81A5
:10452000E80FF91F51100DC084E0280E311C808166
:104530008130D1F442E368E3F40180810E94131DCD
:10454000C5CF1E2FFF2E452C512CC12CEE24E394F9
:10455000242FA201612F7F2DC4010E945521120139
:104560002A0C3B1C8111B2CFDD2061F0812F9F2DE1
:104570000E94BF3107C0DD2039F0812F9F2D0E949E
:10458000BF3102C080E024C081E022C0252C312C44
:10459000F2E0F51548F4B101812F9F2D49830E9467
:1045A0004E32182FF92E4981812F9F2DA0E0B0E0C7
:1045B0002A813B812A0D3B1DA215B30520F6F90186
:1045C000EA0FFB1F5491FC015193CF011196F4CFD8
:1045D0000F900F900F90DF91CF911F910F91FF904F
:1045E000EF90DF90CF90BF90AF909F908F907F9093
:1045F0006F905F904F903F902F90089521E00C9422
:104600004122462F60E7FC0180810C94131D462F48
:1046100061E7FC0180810C94131D80914F0590E0AF
:1046200020915005821B9109089520915005809199
:104630004F05281750F4E22FF0E0EF5AFA4F80812F
:1046400090E02F5F2093500508958FEF9FEF08951E
:10465000E091500580914F05E81730F4F0E0EF5AF3
:10466000FA4F808190E008958FEF9FEF08950895AD
:10467000CF92DF92EF92FF920F931F93CF93DF932E
:104680007C01CB018A0120912B05222389F0EB01CB
:104690006B01C40ED51ECC15DD0569F06991D701FB
:1046A000ED91FC910190F081E02DC7010995F3CFC8
:1046B000642F0E949724C801DF91CF911F910F9121
:1046C000FF90EF90DF90CF900895CF93DF931F92EC
:1046D000CDB7DEB7698320912B052223D1F020913D
:1046E0002C05203240F021E030E0FC0133832283AE
:1046F00080E090E015C080912D05E82FF0E0E25DAC
:10470000FA4F998190838F5F80932D0580932C05BC
:1047100005C061E0CE0101960E94972481E090E0FF
:104720000F90DF91CF910895FC011382128248EE21
:1047300053E060E070E044835583668377838FEBBA
:1047400092E09183808308951092500510924F0556
:1047500010922D0510922C050C94E223862F4132E5
:1047600008F040E261E575E00E94002410925005D7
:1047700080934F05089521E00C94AE2381E080934F
:104780002B0560934E0510922D0510922C0508956F
:104790000F93062F21E040912C056EE275E0809189
:1047A0004E050E94442410922D0510922C05109263
:1047B0002B050F91089561E00C94C8238FE195E0DB
:1047C0000C9494231092DE0581E08093DC05109216
:1047D000DB0561E082E10E94042861E083E10E9440
:1047E0000428E9EBF0E080818E7F808380818D7FDB
:1047F000808388E48093B80085E48093BC000895AA
:10480000413208F03FC09091DE059111FCCF91E05C
:104810009093DE052093DC052FEF20937105109215
:10482000B605240F2093B5059093DD059091DD0525
:10483000880F892B8093DD058091DB05813041F461
:104840001092DB058091DD058093BB0085EC01C0F3
:1048500085EE8093BC008091DE058130E1F380918C
:10486000B605841710F44091B60527EB35E0FB013F
:10487000D9018A2F821B841718F48D918193F9CF67
:10488000842F089580E008950F93413208F046C0C8
:104890009091DE059111FCCF92E09093DE0500939C
:1048A000DC059FEF909371051092B6054093B50516
:1048B000FB0167EB75E0DB019A2F961B941718F448
:1048C00091919D93F9CF1092DD059091DD05880FB0
:1048D000892B8093DD058091DB05813041F41092B6
:1048E000DB058091DD058093BB0085EC01C085EE82
:1048F0008093BC00222321F08091DE058230E1F319
:10490000809171058F3F61F080917105803251F087
:1049100080917105803341F483E007C081E005C0D8
:1049200080E003C082E001C084E00F91089561320D
:1049300098F42091DE05243089F460939305FC01FE
:1049400085E995E0DC012A2F281B261718F4219110
:104950002D93F9CF80E0089581E0089582E00895D5
:1049600085ED8093BC008091BC0084FDFCCF10924B
:10497000DE05089585EC8093BC001092DE05089555
:104980001F920F920FB60F9211242F933F934F93C4
:104990005F936F937F938F939F93AF93BF93EF93A7
:1049A000FF938091B900887F803609F49CC068F538
:1049B000883209F45BC090F4803109F454C038F4B3
:1049C000882309F4F5C0883009F44DC0F5C088315A
:1049D00009F44CC0803209F45DC0EEC0803409F4A3
:1049E00068C048F4803309F455C0883309F0E4C046
:1049F00080937105A8C0803509F44FC0883509F44B
:104A00005DC0883409F0D8C0D5C0883909F4C6C063
:104A1000A8F4883709F467C038F4883609F463C00D
:104A2000803709F460C0C8C0883809F4B7C080393D
:104A300009F45FC0803809F0BFC05BC0803B09F457
:104A400085C038F4803A09F466C0883A09F47EC01B
:104A5000B3C0803C09F4A6C0883C09F4A3C0883BDD
:104A600009F489C0A9C08091DD0510C09091B605F8
:104A70008091B505981770F5E091B60581E08E0F2D
:104A80008093B605F0E0E954FA4F80818093BB0033
:104A900085EC85C0809371058DC0E091B60581E0FD
:104AA0008E0F8093B6058091BB00F0E0E954FA4F79
:104AB00080839091B6058091B5056DC0E091B605F3
:104AC00081E08E0F8093B6058091BB00F0E0E95441
:104AD000FA4F80838091DC0581116CC081E0809366
:104AE000DB0584EA60C083E08093DE0510927205E6
:104AF000CFCF80917205803208F050C0E0917205EE
:104B000081E08E0F809372058091BB00F0E0ED583C
:104B1000FA4F8083BDCF80917205803230F4E091EE
:104B20007205F0E0ED58FA4F10820E94B0246091B7
:104B3000720570E0E091D705F091D80583E795E024
:104B40000995109272050E94BA2436C084E08093C1
:104B5000DE051092940510929305E091D905F0912D
:104B6000DA05099580919305811105C081E0809354
:104B7000930510929505E091940581E08E0F809346
:104B80009405F0E0EB56FA4F80818093BB00909142
:104B9000940580919305981708F47ACF85E880935F
:104BA000BC000AC085EC8093BC001092DE0504C0F6
:104BB000109271050E94B024FF91EF91BF91AF91C7
:104BC0009F918F917F916F915F914F913F912F9125
:104BD0000F900FBE0F901F9018958230E8F4E82FC9
:104BE000F0E0EE0FFF1FE152FA4F718360838130D6
:104BF00041F0809169008C7F842B80936900E89A52
:104C0000089580916900440F551F440F551F837FFD
:104C1000842B80936900E99A08951F920F920FB632
:104C20000F9211242F933F934F935F936F937F9332
:104C30008F939F93AF93BF93EF93FF938091DF0583
:104C40009091E005892B29F0E091DF05F091E005D6
:104C50000995FF91EF91BF91AF919F918F917F91B6
:104C60006F915F914F913F912F910F900FBE0F90D9
:104C70001F9018951F920F920FB60F9211242F9329
:104C80003F934F935F936F937F938F939F93AF93D4
:104C9000BF93EF93FF938091E1059091E205892BFB
:104CA00029F0E091E105F091E2050995FF91EF917E
:104CB000BF91AF919F918F917F916F915F914F9134
:104CC0003F912F910F900FBE0F901F9018951F923C
:104CD0000F920FB60F9211242F933F938F939F93B0
:104CE000AF93BF938091E4059091E505A091E6050F
:104CF000B091E7053091E30523E0230F2D3720F431
:104D00000196A11DB11D05C026E8230F0296A11D25
:104D1000B11D2093E3058093E4059093E505A093EE
:104D2000E605B093E7058091E8059091E905A0912B
:104D3000EA05B091EB050196A11DB11D8093E80530
:104D40009093E905A093EA05B093EB05BF91AF916D
:104D50009F918F913F912F910F900FBE0F901F90B9
:104D600018952FB7F8946091E4057091E50580914E
:104D7000E6059091E7052FBF08953FB7F89480911D
:104D8000E8059091E905A091EA05B091EB0526B5FB
:104D9000A89B05C02F3F19F00196A11DB11D3FBF73
:104DA0006627782F892F9A2F620F711D811D911D03
:104DB00042E0660F771F881F991F4A95D1F7089523
:104DC000CF92DF92EF92FF92CF93DF936B017C0142
:104DD0000E94BD26EB01C114D104E104F10489F065
:104DE0000E94BC2C0E94BD266C1B7D0B683E73404C
:104DF00090F381E0C81AD108E108F108C851DC4FEE
:104E0000EACFDF91CF91FF90EF90DF90CF900895A0
:104E1000789484B5826084BD84B5816084BD85B595
:104E2000826085BD85B5816085BDEEE6F0E080815C
:104E300081608083E1E8F0E010828081826080837D
:104E4000808181608083E0E8F0E080818160808300
:104E5000E1EBF0E0808184608083E0EBF0E0808132
:104E600081608083EAE7F0E08081846080838081D4
:104E7000826080838081816080838081806880837C
:104E80001092C10008951F93CF93DF93182FEB0169
:104E900061E00E94CB27209711F460E004C0CF3F6F
:104EA000D10539F461E0812FDF91CF911F910C94EE
:104EB0000428E12FF0E0E855F64FE491E330F9F0F3
:104EC00048F4E130B9F0E230A1F584B5806284BDE8
:104ED000C8BD34C0E730E9F0E83019F1E43049F5F5
:104EE00080918000806280938000D0938B00C0937B
:104EF0008A0024C084B5806884BDC7BD1FC080916E
:104F00008000806880938000D0938900C0938800DF
:104F100015C08091B00080688093B000C093B3004A
:104F20000DC08091B00080628093B000C093B40047
:104F300005C0C038D1050CF0B5CFAFCFDF91CF9110
:104F40001F910895833081F028F4813099F08230E8
:104F5000A1F008958730A9F08830B9F08430D1F4F9
:104F6000809180008F7D03C0809180008F77809337
:104F70008000089584B58F7702C084B58F7D84BD8D
:104F800008958091B0008F7703C08091B0008F7D2D
:104F90008093B0000895CF93DF9390E0FC01E45438
:104FA000F64F2491FC01E053F64F8491882349F198
:104FB00090E0880F991FFC01E850F64FA591B4913D
:104FC0008251964FFC01C591D4919FB7611108C0E1
:104FD000F8948C91209582238C93888182230AC037
:104FE000623051F4F8948C91322F309583238C9356
:104FF0008881822B888304C0F8948C91822B8C93B7
:105000009FBFDF91CF9108950F931F93CF93DF93AD
:105010001F92CDB7DEB7282F30E0F901E855F64FE3
:105020008491F901E454F64F1491F901E053F64FDD
:1050300004910023C9F0882321F069830E94A227EC
:105040006981E02FF0E0EE0FFF1FE251F64FA591CE
:10505000B4919FB7F8948C91611103C0109581238E
:1050600001C0812B8C939FBF0F90DF91CF911F9137
:105070000F910895CF93DF93282F30E0F901E85581
:10508000F64F8491F901E454F64FD491F901E053BD
:10509000F64FC491CC2391F081110E94A227EC2FEE
:1050A000F0E0EE0FFF1FEC51F64FA591B4912C915B
:1050B0002D2381E090E021F480E002C080E090E0C8
:1050C000DF91CF910895FC01818D228D90E0805C6D
:1050D0009F4F821B91098F7399270895FC01918D31
:1050E000828D981731F0828DE80FF11D858D90E04B
:1050F00008958FEF9FEF0895FC01918D828D981791
:1051000061F0828DDF01A80FB11D5D968C91928DAB
:105110009F5F9F73928F90E008958FEF9FEF0895A8
:1051200080E09AE2892B49F080E090E0892B29F019
:105130000E94002A81110C9400000895FC01848DC6
:10514000DF01A80FB11DA35ABF4F2C91848D90E0B1
:1051500001968F739927848FA689B7892C93A0898C
:10516000B1898C9180648C93938D848D981306C043
:105170000288F389E02D80818F7D80830895CF930D
:10518000DF93EC01888D8823C9F0EA89FB8980814F
:1051900085FD05C0A889B9898C9186FD0FC00FB621
:1051A00007FCF5CF808185FFF2CFA889B9898C9162
:1051B00085FFEDCFCE010E949E28E7CFDF91CF91F2
:1051C0000895CF92DF92FF920F931F93CF93DF93B7
:1051D0001F92CDB7DEB76C01DC015B969C915B97AB
:1051E0005C968C915C97981307C05096ED91FC915A
:1051F0005197808185FD32C0F601038D10E00F5F6D
:105200001F4F0F731127F02EF601848DF81211C075
:105210000FB607FCF9CFD6015096ED91FC9151974E
:10522000808185FFF1CFC60169830E949E28698134
:10523000EBCF838DE80FF11DE35AFF4F6083D6015A
:105240005B960C935B975296ED91FC9153978081FE
:105250008062808381E058968C930DC0D60156966B
:10526000ED91FC91579760835096ED91FC91519789
:1052700080818064808381E090E00F90DF91CF9106
:105280001F910F91FF90DF90CF900895BF92CF9222
:10529000DF92EF92FF92CF93DF93EC016A017B01E3
:1052A000B22EE889F98982E08083411581EE5807A2
:1052B00061057105A1F060E079E08DE390E0A70160
:1052C00096010E943B302150310941095109569500
:1052D000479537952795211580E1380798F0E8899B
:1052E000F989108260E874E88EE190E0A7019601E8
:1052F0000E943B302150310941095109569547958B
:1053000037952795EC85FD853083EE85FF852083D5
:10531000188EEC89FD89B082EA89FB8980818061E1
:105320008083EA89FB89808188608083EA89FB89A0
:10533000808180688083EA89FB8980818F7D80837A
:10534000DF91CF91FF90EF90DF90CF90BF900895C5
:105350001F920F920FB60F9211242F938F939F934A
:10536000EF93FF93E091FC05F091FD058081E091C2
:105370000206F091030682FD12C09081809105061D
:105380008F5F8F7320910606821751F0E09105061A
:10539000F0E0E451FA4F958F8093050601C08081BB
:1053A000FF91EF919F918F912F910F900FBE0F90D2
:1053B0001F9018951F920F920FB60F9211242F93E2
:1053C0003F934F935F936F937F938F939F93AF938D
:1053D000BF93EF93FF938CEE95E00E949E28FF9180
:1053E000EF91BF91AF919F918F917F916F915F915D
:1053F0004F913F912F910F900FBE0F901F901895D6
:105400008CEE95E00E94632821E0892B09F420E0CE
:10541000822F08951092EF051092EE0588EE93E02A
:10542000A0E0B0E08093F0059093F105A093F20521
:10543000B093F3058FEC92E09093ED058093EC052B
:1054400085EC90E09093F9058093F80584EC90E06A
:105450009093FB058093FA0580EC90E09093FD0516
:105460008093FC0581EC90E09093FF058093FE050E
:1054700082EC90E0909301068093000686EC90E029
:10548000909303068093020610920506109206067A
:105490001092070610920806089508950E940827A2
:1054A0000E944D2A0E942611C0E9D8E20E94B81637
:1054B0002097E1F30E949028F9CFCF92DF92EF92EC
:1054C000FF920F931F93CF93DF936C017A01EB014F
:1054D000E60EF71E00E010E0CE15DF0561F06991E1
:1054E000D601ED91FC910190F081E02DC601099566
:1054F000080F191FF1CFC801DF91CF911F910F91B4
:10550000FF90EF90DF90CF9008956115710581F0C5
:10551000DB010D900020E9F7AD0141505109461B18
:10552000570BDC01ED91FC910280F381E02D099491
:1055300080E090E00895EF92FF920F931F93CF9336
:10554000DF938C01FB01C0E0D0E064917F018FEF1D
:10555000E81AF80A662361F0D801ED91FC910190F8
:10556000F081E02DC8010995C80FD91FF701EDCFD3
:10557000CE01DF91CF911F910F91FF90EF90089591
:105580000C94852ADC01ED91FC910190F081E02DD5
:1055900009948F929F92AF92BF92CF92DF92EF9237
:1055A000FF920F931F93CF93DF93CDB7DEB7A197F1
:1055B0000FB6F894DEBF0FBECDBF7C01C42EE52F21
:1055C000CB01D22E19A221E02D1510F02AE0D22E07
:1055D0008E010F5D1F4F8D2C912CA12CB12C6C2DA9
:1055E0007E2FA50194010E943B308C2DD29E801904
:1055F0001124015011098A3014F4805D01C0895CC6
:10560000F8018083211531054105510521F0C22E95
:10561000E32FCA01E4CFB801C7010E94852AA196F1
:105620000FB6F894DEBF0FBECDBFDF91CF911F91B3
:105630000F91FF90EF90DF90CF90BF90AF909F9031
:105640008F900895CF92DF92EF92FF920F931F9366
:10565000CF93DF93EC016A017B012115310579F4C9
:10566000E881F9810190F081E02D642FDF91CF91E5
:105670001F910F91FF90EF90DF90CF9009942A3007
:105680003105E9F477FF1AC06DE20E94C22A8C014D
:1056900044275527BA014C195D096E097F092AE094
:1056A000CE010E94C92A800F911FDF91CF911F91D7
:1056B0000F91FF90EF90DF90CF9008952AE0B7010F
:1056C000A601CE01DF91CF911F910F91FF90EF9036
:1056D000DF90CF900C94C92A9A01AB01662757FD41
:1056E0006095762F0C94222B2115310541F4DC01B5
:1056F000ED91FC910190F081E02D642F09940C94C0
:10570000C92A9A01462F50E060E070E00C94742B97
:105710004F925F926F927F928F929F92AF92BF92C1
:10572000CF92DF92EF92FF920F931F93CF93DF936D
:10573000EC016A017B01B22E9A01AB01C701B601EF
:105740000E94FE2F882319F06BED72E027C026011E
:105750003701E89477F82FEF3FEF4FE75FE7C3019A
:10576000B2010E94FE2F81110DC02FEF3FEF4FE7D6
:105770005FE7C301B2010E94842D18161CF46FED7F
:1057800072E00CC02FEF3FEF4FE75FE4C701B601B7
:105790000E94452F1816ACF463EE72E0CE01DF9143
:1057A000CF911F910F91FF90EF90DF90CF90BF901E
:1057B000AF909F908F907F906F905F904F900C94E0
:1057C000852A2FEF3FEF4FE75FECC701B6010E943C
:1057D000842D87FDE1CF20E030E0A901C701B601AB
:1057E0000E94842D87FF0AC06DE2CE010E94C22A6A
:1057F0008C01F7FAF094F7F8F09402C000E010E0A2
:10580000A12C60E070E080E09FE3AB1441F020E069
:1058100030E040E251E40E948B2DA394F6CF9B012F
:10582000AC01C701B6010E94BE2C6B017C010E9435
:10583000F82D2B013C010E94242E9B01AC01C701D5
:10584000B6010E94BD2C6B017C012AE0B301A201CC
:10585000CE010E94C92A080F191FBB2039F067EE3C
:1058600072E0CE010E94852A080F191F7B2C772039
:1058700041F120E030E040E251E4C701B6010E946E
:10588000502F6B017C010E94F32D4B01AA2497FC41
:10589000A094BA2C2AE030E0B501A401CE010E9408
:1058A000222B080F191FC501B4010E94262E9B014F
:1058B000AC01C701B6010E94BD2C6B017C017A943A
:1058C000D6CFC801DF91CF911F910F91FF90EF903C
:1058D000DF90CF90BF90AF909F908F907F906F9010
:1058E0005F904F9008950C94882B4F925F926F9227
:1058F0007F92AF92BF92CF92DF92EF92FF920F937F
:105900001F93CF93DF93CDB7DEB729013A01621B16
:10591000730B840B950B29893A894B895C892A1969
:105920003B094C095D09298B3A8B4B8B5C8B9B01A6
:10593000AC0169897A898B899C890E941730E418A7
:10594000F50806091709A80197010E945D302A0D84
:105950003B1D4C1D5D1DCA01B901DF91CF911F9107
:105960000F91FF90EF90DF90CF90BF90AF907F901E
:105970006F905F904F90089508955058BB27AA27C5
:105980000ED038C201D230F006D220F031F49F3F61
:1059900011F41EF4C0C10EF4E095E7FBB6C1E92F87
:1059A0004BD280F3BA17620773078407950718F084
:1059B00071F49EF563C20EF4E0950B2EBA2FA02D64
:1059C0000B01B90190010C01CA01A0011124FF27AC
:1059D000591B99F0593F50F4503E68F11A16F040A7
:1059E000A22F232F342F4427585FF3CF46953795A6
:1059F0002795A795F0405395C9F77EF41F16BA0B6B
:105A0000620B730B840BBAF09150A1F0FF0FBB1F18
:105A1000661F771F881FC2F70EC0BA0F621F731F61
:105A2000841F48F4879577956795B795F7959E3FBE
:105A300008F0B3CF9395880F08F09927EE0F97954C
:105A400087950895A1D158F080E891E009F49EEF80
:105A5000A2D128F040E851E059F45EEF09C05BC1E3
:105A60000DC2E92FE078E8D168F3092E052AC1F3C9
:105A7000261737074807590738F00E2E07F8E02594
:105A800069F0E025E0640AC0EF6307F8009407FAC4
:105A9000DB01B9019D01DC01CA01AD01EF934AD0E0
:105AA000A9D10AD05F91552331F02BED3FE049E4B5
:105AB00050FD49EC63CF0895DF93DD27B92FBF7701
:105AC00040E85FE31616170648075B0710F4D92F66
:105AD000E0D19F938F937F936F938DD2E8E6F0E0B0
