:100000000C94E5040C94B5280C94E2280C940D058E
:100010000C940D050C940D050C940D050C940D0518
:100020000C940D050C940D050C940D050C940D0508
:100030000C940D050C940D050C940D050C940D05F8
:100040000C940F290C940D050C94502C0C94822CBC
:100050000C940D050C940D050C940D050C940D05D8
:100060000C9429210C940D05084AD73B3BCE016E18
:1000700084BCBFFDC12F3D6C74319ABD56833DDAFF
:100080003D00C77F11BED9E4BB4C3E916BAAAABE0E
:10009000000000803F05A84CCDB2D44EB93836A937
:1000A000020C50B9918688083CA6AAAA2ABE000074
:1000B00000803F0001B202FFFF0190040923A13537
:1000C000016A020600016008000000000000000054
:1000D00000600440000000016202000000600400B3
:1000E000400000037B034CCD6C03AB033656760017
:1000F000680402CB47A202180400058BC1010C045E
:1001000000000000037F060CC92C97979703890312
:10011000264666006C022000024004000000000237
:1001200044040000000002480400000000024C04E7
:10013000000000000250040000000002540400000F
:10014000000002580400000000025C0400000000EF
:1001500002BC040000000001EC0400004000037F2A
:10016000060CC92C9797970402030D355D0409040A
:10017000872D353D00A3010000000001078601FE28
:10018000074105F120283038077E01300746019AE3
:10019000074704F1283038076C04F128303802167C
:1001A000020001FB00003E000B00360001000200CF
:1001B00003000000650054FFEF0000FA80000B12FE
:1001C00082000100020000000000000000000000AA
:1001D00000000000280000FFFF4581FFFFFA7200C9
:1001E000000000000003E80000000100017FFFFFA5
:1001F000FE8001001B000000000000000000000065
:10020000000000003E03304000000002CAE3093E47
:10021000800000200000000000000040000000609E
:1002200000000041FF000000000B2A0000165500EE
:10023000002182FD872650FD800000001F00000085
:100240000580000000000000010000000200000026
:10025000030000400000000000046F00026532004F
:10026000005EC04000000000000000000000000030
:10027000000000FB8C6F5DFD5D08D9007C733B00C6
:100280006C12CC3200139D3200D0D63200080040F0
:100290000001F4FFE68079020000000000D0D600E3
:1002A000002710FB000000400000000000000000DC
:1002B000000000000000010000000000000100013B
:1002C0000000000000FA36FFBC308E0005FBF0FF96
:1002D000D95BC8FFD09ABE000010A9FFF41EB2007F
:1002E000CEBBF70000000100000004000200020283
:1002F00000000CFFC280000001800000CF800040A1
:1003000000000000000001000000000000060000E6
:1003100000001400000000000000000000000000C9
:1003200000000000000000000000000000000000CD
:1003300000000000000000000000000000000000BD
:1003400000000000000000033F68B6793528BCC6F5
:100350007ED16C80000000400000000000B26A0006
:10036000000000000000000000000000003FF0005E
:10037000000030000000000000000000000000004D
:10038000000000000000000000000000000000006D
:100390000000000000254D002F706D000005AE002C
:1003A0000C02D00000000000650054FFEF000000C8
:1003B000000000000001000044000000000C0000EC
:1003C000000100000000000065000000540000FF74
:1003D000EF0000000000000000000000000000002E
:1003E00000000040000000000000000000000000CD
:1003F00000000040000000000000000000000000BD
:1004000000000000000001000000020000000000E9
:1004100000000000000000000000000000000000DC
:1004200000000000000000000000000000000000CC
:10043000000000001B0000000000000000000000A1
:1004400000000000000000000000000000000000AC
:10045000000000000000000000000000000000405C
:10046000000000001B000000000000000000000071
:10047000000000000000000000000000000000007C
:10048000000000000000000000000000000000006C
:10049000000000000000000000000000000000005C
:1004A000000000D8DCBAA2F1DEB2B8B4A88191F79E
:1004B0004A907F916AF3F9DBA8F9B0BAA080F2CE36
:1004C00081F3C2F1C1F2C3F3CCA2B280F1C6D880ED
:1004D000BAA7DFDFDFF2A7C3CBC5B6F087A29424AB
:1004E00048703C95406834589B78A2F183922D5512
:1004F0007DD8B1B4B8A1D09180F270F370F27C8055
:10050000A8F101B09887D943D886C988BAA1F20E5C
:10051000B89780F1A9DFDFDFAADFDFDFF2AAC5CD60
:10052000C7A90CC92C97979797F1A989264666B059
:10053000B4BA80ACDEF2CAF1B28C02A9B6980089D6
:100540000E161EB8A9B4992C547CB08AA8963656BB
:1005500076F1B9AFB4B083C0B8A89711B18F98B98C
:10056000AFF0240844106418F1A329557DAF83B57A
:1005700093AFF0002850F1A3869F61A6DADEDFD9A1
:10058000FAA38696DB31A6D9F8DFBAA68FC2C5C713
:10059000B28CC1B8A2DFDFDFA3DFDFDFD8D8F1B8CC
:1005A000A8B286B4980D355DB8AA98B0872D353DB0
:1005B000B2B6BAAF8C96198F9FA70E161EB49AB812
:1005C000AA872C547CB9A3DEDFDFA3B180F2C4CDAF
:1005D000C9F1B8A9B499830D355D89B9A32D557DAD
:1005E000B593A30E161EA92C547CB8B4B0F1978312
:1005F000A81184A50998A383F0DA2408441064188C
:10060000D8F1A529557DA58595021A2E3A565A404E
:1006100048F9F3A3D9F8F098832408441064189794
:1006200082A8F111F098A2240844106418DAF3DECD
:10063000D883A59401D9A302F1A2C3C5C7D8F18478
:1006400092A24DDA2AD84869D92AD86855DA32D820
:100650005071D932D8705DDA3AD85879D93AD87809
:1006600093A34DDA2AD84869D92AD86855DA32D8FE
:100670005071D932D8705DDA3AD85879D93AD878E9
:10068000A88A9AF02850789EF38818F19F1D98A8A0
:10069000D908D8C89F129EF315A8DA1210D8F1AF66
:1006A000C8978734B5B994A421F3D922D8F22DF391
:1006B000D92AD8F235F3D932D881A4606061D961E2
:1006C000D86C6869D969D8747071D971D8B1A384AC
:1006D000193D5DA3831A3E5E931030811011B8B0AE
:1006E000AF8F94F2DA3ED8B49AA88729DAF8D8877F
:1006F0009A35DAF8D8879A3DDAF8D8B1B9A498854E
:10070000022E56A581000C14A397B08AF12DD9288A
:10071000D84DD948D86DD968D8B1840DDA0ED8A390
:100720002983DA2C0ED8A3844983DA2C4C0ED8B84E
:10073000B0A88A9AF520AADADFD8A840AAD0DADED3
:10074000D8A860AADAD0DFD8F19786A8319B06999D
:1007500007AB9728889BF00C201440B8B0B4A88C45
:100760009CF0042851791D301438B282ABD0982CFB
:10077000505078789BF11AB0F08A9CA82951798B57
:100780002951798A2470598B2058718A4469388B91
:100790003940688A6448318B304960A588200971E6
:1007A000584468113964493019F1AC002C547CF07C
:1007B0008CA804285078F1889726A85998AC8C0208
:1007C000264666F0899CA8295179247059446938D5
:1007D000644831A98809205970AB11384069A819BB
:1007E0003148608CA83C415C207C00F187981986D8
:1007F000A86E767EA999882D557D9EB9A38A228AF6
:100800006E8A568A5E9FB183062646660E2E4E6E0F
:100810009DB8AD002C547CF2B18CB499B9A32D5580
:100820007D8191AC38AD3AB58391AC2DD928D84DA6
:10083000D948D86DD968D88C9DAE29D904AED85185
:10084000D904AED879D904D881F39DAD008DAE1905
:1008500081ADD901D8F2AEDA26D88E912983A7D9F5
:10086000ADADADADF32AD8D8F1B0AC89913E5E768E
:10087000F3AC2E2EF1B18C5A9CAC2C2828289CACC1
:100880003018A8988128343C9724A728343C9C240D
:10089000F2B089AC912C4C6C8A9B2DD9D8D851D907
:1008A000D8D879D9D8D8F19E88A331DAD8D8912D63
:1008B000D928D84DD948D86DD968D8B18393353D5A
:1008C0008025DAD8D88569DAD8D8B49381A32834BA
:1008D0003CF3AB8BF8A391B609B4D9ABDEFAB08781
:1008E0009CB9A3DDF1A3A3A3A395F1A3A3A39DF1B9
:1008F000A3A3A3A3F2A3B49080F2A3A3A3A3A3A34F
:10090000A3A3A3A3B2A3A3A3A3A3A3B087B599F161
:10091000A3A3A398F1A3A3A3A397A3A3A3A3F39B28
:10092000A3A3DCB9A7F1262626D8D8FF000000082B
:1009300000020100000304070000000000000000A6
:100940000102040810204080010204081020010266
:100950000408102004040404040404040202020233
:100960000202030303030303000000002300260028
:10097000290000000000250028002B0000000000D6
:10098000240027002A004E414E494E495459494EF1
:1009900046CDCCCC3D0AD7233C17B7D13877CC2BEA
:1009A000329595E6241FB14F0A000020410000C88F
:1009B0004200401C4620BCBE4CCA1B0E5AAEC59D10
:1009C00074007C18611F4720B22C11241FBECFEF8A
:1009D000D8E0DEBFCDBF12E0A0E0B1E0E8E5F0E78F
:1009E00002C005900D92AC3AB107D9F725E0ACEA08
:1009F000B2E001C01D92A53EB207E1F719E0CAECD2
:100A0000D9E004C02297FE010E941633C23CD107F0
:100A1000C9F70E94F62C0C942A380C9400001F92FF
:100A20000F920FB60F9211242F938F939F93AF9332
:100A3000BF9323B1822F817090E04A9B03C0892B22
:100A400019F00EC0892B61F08091BE039091BF0315
:100A5000A091C003B091C1030196A11DB11D0BC0AF
:100A60008091BE039091BF03A091C003B091C103D8
:100A70000197A109B1098093BE039093BF03A0938E
:100A8000C003B093C103BF91AF919F918F912F91FC
:100A90000F900FBE0F901F9018951F920F920FB6D8
:100AA0000F9211242F938F939F93AF93BF9323B1F2
:100AB00021FB882780F990E04B9B03C0892B19F01C
:100AC0000EC0892B61F08091C2039091C303A09165
:100AD000C403B091C5030196A11DB11D0BC0809147
:100AE000C2039091C303A091C403B091C5030197C1
:100AF000A109B1098093C2039093C303A093C403D7
:100B0000B093C503BF91AF919F918F912F910F909B
:100B10000FBE0F901F90189508959C01FC01EE5791
:100B2000FF4F80819181680F791F6138710530F422
:100B3000718360830296820F931F089580E090E096
:100B400008959C01FC01EE5BFF4F80819181680F4D
:100B5000791F6134710530F4718360830296820FCE
:100B6000931F089580E090E00895CF93DF93EC0108
:100B700067E671E00E948F1D60E070E00E94A11C9A
:100B80000E94461C8BE993E00E941E2667E671E0F6
:100B9000CE010E948F1D61E070E00E94A11C0E94A6
:100BA000461C8BE993E00E94242667E671E0CE01A3
:100BB0000E948F1D62E070E00E94A11C0E94461CF2
:100BC0008BE993E00E942A2667E671E0CE010E943D
:100BD0008F1D63E070E00E94A11C0E94461C8BE9FF
:100BE00093E00E94302667E671E0CE010E948F1DDF
:100BF00064E070E00E94A11C0E94461C8BE993E017
:100C00000E94362667E671E0CE010E948F1D65E0E6
:100C100070E00E94A11C0E94461C8BE993E0DF91CA
:100C2000CF910C943C2660916301709164010E9405
:100C30008F1D0E94461C21E06130710509F020E003
:100C400020934601089560916301709164010E94B0
:100C50008F1D0E94461C21E06130710509F020E0E3
:100C600020934701622F8CE00C94AC2A0E94221C36
:100C7000FC0181E0208131812230310508F480E0DF
:100C80000895CF92DF92EF92FF920F931F93CF932D
:100C9000DF938C016CE671E00E943606882309F42C
:100CA00092C06CE671E0C8010E948F1D0E94461C34
:100CB0006B017C0182E0C816D10408F084C0E60113
:100CC00060E771E0C8010E943606882399F060E76A
:100CD00071E0C8010E948F1D0E94371C2CE02C9DE2
:100CE000F0012D9DF00D1124E75BFE4F60837183B1
:100CF0008283938367E472E0C8010E9436068823EA
:100D000099F067E472E0C8010E948F1D0E94371CB1
:100D10002CE02C9DF0012D9DF00D1124E75BFE4F82
:100D200064837583868397836DE372E0C8010E94B4
:100D30003606882399F06DE372E0C8010E948F1D8A
:100D40000E94371C2CE02C9DF0012D9DF00D1124EC
:100D5000E75BFE4F6087718782879387209709F54D
:100D600010925B0310925C0310925D0310925E037D
:100D700010928E0310928F031092900310929103A1
:100D800010925703109258031092590310925A036D
:100D900010928A0310928B0310928C0310928D0391
:100DA00012C0219781F41092C8031092C9031092C7
:100DB000CA031092CB031092CC031092CD03109271
:100DC000CE031092CF03DF91CF911F910F91FF902F
:100DD000EF90DF90CF900895CF92DF92EF92FF9245
:100DE0007C0162E771E00E943606882359F062E7D1
:100DF00071E0C7010E948F1D0E94461C7093AF03D3
:100E00006093AE0366E771E0C7010E94360688234F
:100E100079F066E771E0C7010E948F1D0E94371CC0
:100E20006093B0037093B1038093B2039093B303C4
:100E30006BE771E0C7010E943606882379F06BE703
:100E400071E0C7010E948F1D0E94371C6093B4039C
:100E50007093B5038093B6039093B70360E871E095
:100E6000C7010E943606882359F060E871E0C70187
:100E70000E948F1D0E94461C7093B9036093B803B3
:100E80002BED3FE049E450E46091B0037091B10371
:100E90008091B2039091B3030E94F1316B017C0108
:100EA0006091AE037091AF03882777FD8095982FEE
:100EB0000E94C7309B01AC01C701B6010E942C30D3
:100EC0006093BA037093BB038093BC039093BD03FC
:100ED00081E080939A03FF90EF90DF90CF90089588
:100EE000CF93DF93EC0160916301709164010E94E4
:100EF0008F1D0E94461C21E06130710509F020E041
:100F0000209356046091610170916201CE010E94AC
:100F10003606882369F06091610170916201CE010B
:100F20000E948F1D0E94461C7093410160934001F6
:100F3000DF91CF910895CF93DF93EC01609163012E
:100F4000709164010E948F1D0E94461C21E0613057
:100F5000710509F020E020935504609161017091C2
:100F60006201CE010E943606882369F0609161011A
:100F700070916201CE010E948F1D0E94461C7093E9
:100F8000450160934401DF91CF9108958F929F9224
:100F9000AF92BF92CF92EF920F931F93CF93DF93B5
:100FA000CDB7DEB7C059D1090FB6F894DEBF0FBE7A
:100FB000CDBF5C010E940F256EE170E080E090E003
:100FC0000E94882960E0C5010E94162521E041E0C9
:100FD00060E1C5010E94502666E0C5010E945B26C3
:100FE000C5010E94612620E040E060E0C5010E944A
:100FF0005026C5010E948B25C5010E94A925182FE6
:10100000C5010E94D025882EC5010E94F725982E83
:101010004FE760E0C5010E94CF2460E0C5010E9457
:10102000FA2448E660E0C5010E94CF24C5010E9471
:10103000082564E170E080E090E00E948829EE24B9
:10104000E39400E020E049E857E063EA71E0C5017D
:101050000E94BE27882309F40EC240EC50E063EEE4
:1010600070E0C5010E948628882309F406C263E067
:10107000C5010E941D2562E1C5010E94DB2464E0D8
:10108000C5010E94852461E0C5010E948B2463E0B4
:10109000C5010E94962463E0C5010E94A12463E07B
:1010A000C5010E94892860E0C5010E948F2860E088
:1010B000C5010E94A225612FC5010E94C525682D8A
:1010C000C5010E94EC25692DC5010E941326812CC3
:1010D000912CF401EC54FF4FE491A1E8B0E0AC0F87
:1010E000BD1FA80DB11DEC9381E0880D9FEF891AFB
:1010F000990AE3E0E81568F7CD57DF4F4881C358F8
:10110000D04050E09A012E5F3F4F90E028173907FA
:1011100004F7C12CEE24E394CE57DF4F0881C25868
:10112000D040CF57DF4F2881C158D04061E870E0F0
:101130006C0F7D1F6D5F7F4FC5010E94DD2660E053
:10114000F401EC54FF4FE491A1E8B0E0AC0FBD1FF7
:10115000A60FB11DEC936F5FFFEF8F1A9F0A6430EB
:1011600078F3CD57DF4F4881C358D04050E09A0103
:101170002E5F3F4F862F90E0281739070CF7C12CC0
:10118000EE24E394CE57DF4F0881C258D040CF57AA
:10119000DF4F2881C158D04061E870E06C0F7D1F9F
:1011A0006D5F7F4FC5010E94DD26C5010E940125AC
:1011B000C5010E943C25482FBE016F5F7F4FC501CE
:1011C0000E94582562E0C5010E94B7246CE9C50160
:1011D0000E94C32460E5C5010E94BD2460E0C501F2
:1011E0000E94C924C5010E94012561E0C5010E9439
:1011F000F32461E0C5010E944226C5010E944926F0
:1012000060E0F401EC54FF4FE491A1E8B0E0AC0FD2
:10121000BD1FA60FB11DEC936F5F8FEF881A980A60
:10122000643078F3CD57DF4F4881C358D04050E049
:101230009A012E5F3F4F862F90E0281739070CF751
:10124000C12CEE24E394CE57DF4F0881C258D04022
:10125000CF57DF4F2881C158D04061E870E06C0F54
:101260007D1F6D5F7F4FC5010E94DD2660E0F401A8
:10127000EC54FF4FE491A1E8B0E0AC0FBD1FA60F06
:10128000B11DEC936F5F9FEF891A990A643078F370
:10129000CD57DF4F4881C358D04050E09A012E5FB0
:1012A0003F4F862F90E0281739070CF7C12CEE240A
:1012B000E394CE57DF4F0881C258D040CF57DF4F5D
:1012C0002881C158D04061E870E06C0F7D1F6D5FD0
:1012D0007F4FC5010E94DD2660E0F401EC54FF4F12
:1012E000E491A1E8B0E0AC0FBD1FA60FB11DEC93D7
:1012F0006F5FEFEF8E1A9E0A643078F3CD57DF4FA1
:101300004881C358D04050E09A012E5F3F4F862F4E
:1013100090E0281739070CF7C12CEE24E394CE5740
:10132000DF4F0881C258D040CF57DF4F2881C158C6
:10133000D04061E870E06C0F7D1F6D5F7F4FC5018D
:101340000E94DD26C5010E943C2583309105D0F323
:10135000482FBE016F5F7F4FC5010E945825C50110
:101360000E94E12460E0F401EC54FF4FE491A1E815
:10137000B0E0AC0FBD1FA60FB11DEC936F5FFFEF88
:101380008F1A9F0A643078F3CD57DF4F4881C358D6
:10139000D04050E09A012E5F3F4F862F90E02817F3
:1013A00039070CF7CE57DF4F0881C258D040CF57CE
:1013B000DF4F2881C158D04061E870E06C0F7D1F7D
:1013C0006D5F7F4FC5010E947326C5010E943C25B9
:1013D00083309105D0F3482FBE016F5F7F4FC50169
:1013E0000E945825C5010E94E124F401EC54FF4FEE
:1013F00060E08491A1E8B0E0AC0FBD1FA60FB11D65
:101400008C936F5F643010F43196F3CFCD57DF4F7C
:101410004881C358D04050E09A012E5F3F4F862F3D
:1014200090E02817390784F761E870E06C0F7D1FA2
:101430006D5F7F4FC12CEE24E394CE57DF4F0881C0
:10144000C258D040CF57DF4F2881C158D040C50186
:101450000E94DD2660E0C5010E9442268AE290E0FB
:10146000F50193838283C5010E940125C5010E9475
:10147000E12480E003C081E001C082E0C057DF4F7B
:101480000FB6F894DEBF0FBECDBFDF91CF911F9195
:101490000F91EF90CF90BF90AF909F908F90089555
:1014A000CF93DF93DB01FA01309719F4EC01E88167
:1014B000F981808190E0982F88272181820F911DEA
:1014C00011969C938E93848190E0982F8827258194
:1014D000820F911D13969C938E931297808590E0B6
:1014E000982F88272185820F911D15969C938E93A6
:1014F0001497848590E0982F88272585820F911D69
:1015000017969C938E93169780E0DF91CF91089564
:10151000FF920F931F93CF93DF93CDB7DEB728973A
:101520000FB6F894DEBF0FBECDBF8B01BE016F5F5B
:101530007F4F0E94500AF82E81114CC069817A8138
:10154000882777FD8095982F0E94C73020E030E0F3
:1015500040E858E30E94F131F8016083718382838F
:1015600093836B817C81882777FD8095982F0E94DB
:10157000C73020E030E040E858E30E94F131F80144
:1015800064837583868397836D817E81882777FD49
:101590008095982F0E94C73020E030E040E858E363
:1015A0000E94F131F80160877187828793876F818C
:1015B0007885882777FD8095982F0E94C73020E096
:1015C00030E040E858E30E94F131F8016487758704
:1015D000868797878F2D28960FB6F894DEBF0FBEAB
:1015E000CDBFDF91CF911F910F91FF9008954F9242
:1015F0005F926F927F928F929F92AF92BF92CF92A3
:10160000DF92EF92FF920F931F93CF93DF93CDB7AB
:10161000DEB728970FB6F894DEBF0FBECDBF8B01A3
:10162000DA011496CD90DD90ED90FC9017971C9602
:101630004D905D906D907C901F978D909D90AD909A
:10164000BC90139718968D919D910D90BC91A02DF3
:1016500089839A83AB83BC83A3019201C701B6013E
:101660000E94F1316D837E838F83988729813A812F
:101670004B815C81C501B4010E94F1319B01AC0139
:101680006D817E818F8198850E945E2F9B01AC01C8
:101690000E945F2FF8016083718382839383A70187
:1016A0009601C501B4010E94F1316D837E838F8361
:1016B0009887A301920169817A818B819C810E9424
:1016C000F1319B01AC016D817E818F8198850E94F3
:1016D0005F2F9B01AC010E945F2FD80114966D9380
:1016E0007D938D939C931797A5019401C501B40137
:1016F0000E94F1314B015C01A7019601C701B601BF
:101700000E94F1319B01AC01C501B4010E945E2F22
:101710006B017C0129813A814B815C81CA01B9014D
:101720000E94F1319B01AC01C701B6010E945E2FFE
:101730006B017C01A3019201C301B2010E94F1314E
:101740009B01AC01C701B6010E945F2FF8016087C1
:1017500071878287938780E028960FB6F894DEBF62
:101760000FBECDBFDF91CF911F910F91FF90EF90F2
:10177000DF90CF90BF90AF909F908F907F906F90B1
:101780005F904F9008952F923F924F925F926F9289
:101790007F928F929F92AF92BF92CF92DF92EF9201
:1017A000FF920F931F93CF93DF9300D000D000D010
:1017B000CDB7DEB71B018A013E832D83FA01C080BD
:1017C000D180E280F380A7019601C701B6010E9493
:1017D0005F2F69837A838B839C83F8018480958053
:1017E000A680B780A5019401C501B4010E945F2FB6
:1017F0002B013C01A701960169817A818B819C8133
:101800000E94F1316B017C01A5019401C301B20179
:101810000E94F1319B01AC01C701B6010E945F2F0C
:1018200020E030E040E85FE30E945E2F6B017C0126
:10183000F8012085318542855385C301B2010E949C
:10184000F1312B013C01F80124853585468557850A
:1018500069817A818B819C810E94F1319B01AC016D
:10186000C301B2010E945E2FA70196010E94D22FF0
:10187000F1016083718382839383ED81FE816481B2
:10188000758186819781C084D184E284F3849B0131
:10189000AC010E94F1314B015C01A7019601C70127
:1018A000B6010E94F1319B01AC01C501B4010E9457
:1018B0005F2F0E945E329B01AC01ED81FE81608151
:1018C0007181828193810E942C300E94FD2FF10151
:1018D0006483758386839783ED81FE816081718146
:1018E00082819381C084D184E284F3849B01AC0122
:1018F0000E94F1314B015C01A7019601C701B601BD
:101900000E94F1319B01AC01C501B4010E945F2F1F
:101910000E945E329B01AC01ED81FE816481758184
:10192000868197810E942C300E94FD2FF1016087F3
:1019300071878287938780E026960FB6F894DEBF82
:101940000FBECDBFDF91CF911F910F91FF90EF9010
:10195000DF90CF90BF90AF909F908F907F906F90CF
:101960005F904F903F902F9008954F925F926F92AB
:101970007F928F929F92AF92BF92CF92DF92EF921F
:10198000FF920F931F93CF93DF93EC017B01882786
:1019900077FD8095982F0E94C7302B013C012D8147
:1019A0003E814F8158850E9425308823A1F18C808B
:1019B000F7FE03C081E08825882EB701F7FE03C03B
:1019C000719561957109882777FD8095982F1F92F1
:1019D0001F921F922FEF2F93A12CB12C650114E6BB
:1019E000E12EF12C00E010E020E030E0A9010E949F
:1019F000162F6B017C01682D89810E94AC2AB601EB
:101A000088810E94EB294D825E826F8278860F90DA
:101A10000F900F900F90DF91CF911F910F91FF903A
:101A2000EF90DF90CF90BF90AF909F908F907F907E
:101A30006F905F904F9008956F927F928F929F92D8
:101A4000AF92BF92CF92DF92EF92FF920F931F93CC
:101A5000CF93DF93EC014A015B016091B803709171
:101A6000B903882777FD8095982F0E94C7309B0186
:101A7000AC01C501B4010E94F13120E030E048EC36
:101A800052E40E942C306BA77CA78DA79EA7EF8AFB
:101A9000F88E098F1A8FCE2CDF2C7801F7FE08C044
:101AA000F094E094D094C094C11CD11CE11CF11CB2
:101AB00021E03FEFC316D306E3063FE7F30609F440
:101AC00020E02E8B11E020E030E0A9010E942530BB
:101AD000811101C010E01D8B1BA21CA21DA21EA221
:101AE0001FA218A619A61AA61F8E18A219A21AA21A
:101AF000DF91CF911F910F91FF90EF90DF90CF90EA
:101B0000BF90AF909F908F907F906F900895EF92CD
:101B1000FF920F931F93CF93DF93EC01EE24EA948F
:101B2000FE2C0FEF1FE720E030E040E050E0BA016C
:101B30000E941C0DEB8119861A861B861C86198A49
:101B40001A8A1B8A1C8A84E0E89FF0011124E2545F
:101B5000FC4F10821182128213821BA21CA21DA2B2
:101B60001EA21FA218A619A61AA61F8E18A219A295
:101B70001AA20E9459296093D4037093D5038093CD
:101B8000D6039093D703DF91CF911F910F91FF90D0
:101B9000EF900895CF92DF92EF920F93CF93DF9360
:101BA0001F92CDB7DEB76C01862FF60160834183AB
:101BB00022830383E48290914701992399F061E0A5
:101BC00049830E94732A61E04981842F0E94732A0D
:101BD000C6010F90DF91CF910F91EF90DF90CF90E2
:101BE0000C94870D0F90DF91CF910F91EF90DF90C4
:101BF000CF9008958F929F92AF92BF92CF92DF9233
:101C0000EF92FF920F931F93CF93DF936C0165E8E0
:101C100071E00E943606882349F065E871E0C6014C
:101C20000E948F1D0E94461CEB0102C0C0E0D0E064
:101C300069E871E0C6010E943606882311F169E85F
:101C400071E0C6010E948F1D0E94371C4B015C0190
:101C500020E030E0A9010E94E63187FD06C0EE24B5
:101C6000EA94FE2C0FEF1FE705C0EE24E394F12C5D
:101C700000E010E89E01B501A40187E693E00E9410
:101C80001C0D6CE871E0C6010E943606882311F134
:101C90006CE871E0C6010E948F1D0E94371C4B0149
:101CA0005C0120E030E0A9010E94E63187FD06C01A
:101CB000EE24EA94FE2C0FEF1FE705C0EE24E39418
:101CC000F12C00E010E89E01B501A40184E393E04B
:101CD0000E941C0DDF91CF911F910F91FF90EF900B
:101CE000DF90CF90BF90AF909F908F9008954F92CC
:101CF0005F926F927F92AF92BF92CF92DF92EF92FC
:101D0000FF920F931F93CF93DF93CDB7DEB72C973E
:101D10000FB6F894DEBF0FBECDBFE986FA860B87FB
:101D20001C870E945E2F2B013C01ABA1BCA12D9111
:101D30003D914D915C910E945F2F2FA138A549A53F
:101D40005AA50E94F1316D837E838F839887A3010A
:101D50009201EDA1FEA160817181828193810E9437
:101D60005E2F2FA138A549A55AA50E94F13169839C
:101D70007A838B839C83ED80FE800F811885ABA1D5
:101D8000BCA1ED92FD920D931C931397ADA1BEA142
:101D90006D937D938D939C931397E9A1FAA1408253
:101DA000518262827382A301920169857A858B8553
:101DB0009C850E94F1312B013C012D813E814F8198
:101DC0005885C601B5010E94F1319B01AC01C301E8
:101DD000B2010E945F2F6B017C0129813A814B8106
:101DE0005C816D8D7E8D8F8D98A10E94F1319B015C
:101DF000AC01C701B6010E945F2F2C960FB6F89474
:101E0000DEBF0FBECDBFDF91CF911F910F91FF902D
:101E1000EF90DF90CF90BF90AF907F906F905F90EA
:101E20004F9008952F923F924F925F926F927F92C0
:101E30008F929F92AF92BF92CF92DF92EF92FF92DA
:101E40000F931F93CF93DF93CDB7DEB72C970FB6C9
:101E5000F894DEBF0FBECDBF1C016B01DC011D96E7
:101E60002D913D914D915C91509751968D919D9101
:101E70000D90BC91A02D281B390B4A0B5B0BA8EED3
:101E8000B3E00E940933960140E050E029833A8391
:101E90004B835C830E94EA32CA01B9010E94C730B9
:101EA0002B013C01D1019F966D937D938D939C9363
:101EB000D297A0904D01B0904E01C0904F01D090AC
:101EC00050012091490130914A0140914B015091BC
:101ED0004C012D833E834F8358879B968D919D9116
:101EE0000D90BC91A02D89879A87AB87BC876981AB
:101EF0007A818B819C810E94C53020E030E04AE7E6
:101F000054E40E942C309F938F937F936F93C10171
:101F100087969F938F9304979F938F9304979F9394
:101F20008F93809154018F93809153018F9380916F
:101F300052018F93809151018F93ED80FE800F812C
:101F40001885A301920169857A858B859C850E94FD
:101F5000770E4B015C01F101C3A4D4A4E5A4F6A45F
:101F60000FB6F894DEBF0FBECDBF20E030E0A90170
:101F7000C701B6010E942530882309F45AC020E029
:101F800030E0A901D1019F966D917D918D919C9139
:101F9000D2970E9425308823A1F1F101238D348D41
:101FA000458D568DC501B4010E945F2F6B017C01E8
:101FB00020E030E048EC52EC0E94253087FD0FC055
:101FC00020E030E048EC52E4B601C7010E94E6315F
:101FD000181654F4C12CD12C98EC82E407C0C12C03
:101FE000D12C98EC82EC02C09E2D8F2DA601692F7A
:101FF000782FD1015B964D935D936D937C935E97A3
:102000001FC020E030E0A901C701B6010E94E631FF
:1020100087FD05C040E050E068E472E404C040E0A1
:1020200050E068E472ECF101438F548F658F768F36
:1020300007C0D1015B961D921D921D921C925E9766
:10204000F1014585568567857089418B528B638B7D
:10205000748B2C960FB6F894DEBF0FBECDBFDF9108
:10206000CF911F910F91FF90EF90DF90CF90BF9095
:10207000AF909F908F907F906F905F904F903F9028
:102080002F9008951092C2031092C3031092C403BC
:102090001092C5031092BE031092BF031092C003AA
:1020A0001092C10362E082E00E94732A62E083E042
:1020B0000E94732A62E088E00E94732A62E089E04D
:1020C0000E94732A41E050E06FE075E080E00E94DA
:1020D000952841E050E06DE475E081E00E9495288C
:1020E00080914701882341F161E085E00E94732AD5
:1020F00060E085E00E94AC2A61E086E00E94732ADD
:1021000060E086E00E94AC2A61E08BE00E94732AC6
:1021100060E08BE00E94AC2A61E081E10E94732ABA
:1021200060E081E10E94AC2A87E693E00E94870D7F
:1021300084E393E00E94870D1092C8031092C903B4
:102140001092CA031092CB031092CC031092CD03CD
:102150001092CE031092CF031092D0031092D103AD
:102160001092D2031092D3031092D8031092D90385
:102170001092DA031092DB031092DC031092DD035D
:102180001092DE031092DF031092E0031092E1033D
:102190001092E2031092E3031092470108958F9288
:1021A0009F92AF92BF92EF92FF920F931F93609313
:1021B000DC037093DD038093DE039093DF032093B1
:1021C000D8033093D9034093DA035093DB0381E0C3
:1021D0008093C703B801882777FD8095982F0E94C8
:1021E000C7304B015C01EE24EA94FE2C0FEF1FE791
:1021F00020E030E0AB01BC0187E693E00E941C0DBB
:1022000020E030E0B501A40184E393E00E941C0DBE
:102210001F910F91FF90EF90BF90AF909F908F9084
:1022200008954F925F926F927F928F929F92AF929A
:10223000BF92CF92DF92EF92FF920F931F93CF93B3
:10224000DF9300D000D0CDB7DEB76B017C018A01EF
:1022500080905F0490906004A0906104B09062044C
:10226000C501B4010E9429309B01AC0160915B045F
:1022700070915C0480915D0490915E0429833A839F
:102280004B835C830E9454322B013C0129813A81AB
:102290004B815C81C701B6010E94F1319B01AC0109
:1022A000C501B4010E945F2F4B015C01A3019201A3
:1022B000C701B6010E94F13120916304309164049A
:1022C00040916504509166040E945F2FA50194011E
:1022D0000E94CF100F900F900F900F90DF91CF9131
:1022E0001F910F91FF90EF90DF90CF90BF90AF9034
:1022F0009F908F907F906F905F904F9008954F9236
:102300005F926F927F928F929F92AF92BF92CF9285
:10231000DF92EF92FF920F931F93CF93DF9300D042
:1023200000D0CDB7DEB75C016FE871E00E943606E1
:10233000882339F064E971E0C5010E9436068111F5
:1023400055C06AE971E0C5010E943606882309F488
:1023500084C068E971E0C5010E943606882309F44B
:102360007CC064E971E0C5010E943606882309F447
:1023700074C064E971E0C5010E948F1D0E94371C82
:1023800069837A838B839C8368E971E0C5010E942D
:102390008F1D0E94371C6B017C016AE971E0C50149
:1023A0000E948F1D0E94371C2B013C0169817A819C
:1023B0008B819C810E9494304B015C0120E030E0D5
:1023C0004AE754E4C701B6010E94F1316B017C0178
:1023D00020E030E04AE754E4C301B2010E94F13149
:1023E0008401A70196010E94CF1037C064E971E013
:1023F000C5010E948F1D0E94371C6B017C016FE894
:1024000071E0C5010E948F1D0E94371C4B015C01C9
:10241000C701B6010E9494306B017C0120E030E0DE
:102420004AE754E4C501B4010E94F131A6010F90BE
:102430000F900F900F90DF91CF911F910F91FF9010
:10244000EF90DF90CF90BF90AF909F908F907F9054
:102450006F905F904F900C9411110F900F900F9010
:102460000F90DF91CF911F910F91FF90EF90DF9030
:10247000CF90BF90AF909F908F907F906F905F9024
:102480004F900895CF92DF92EF92FF92CF93DF9318
:102490000E9459296B017C018091D4039091D5034E
:1024A000E601C81BD90BE0916A0380916B03F0E051
:1024B000EE0FFF1FEE0FFF1FE254FC4F882361F069
:1024C00080819181A281B381B095A09590958195ED
:1024D0009F4FAF4FBF4F04C080819181A281B381D4
:1024E0008093740390937503A0937603B09377035E
:1024F000E091370380913803F0E0EE0FFF1FEE0FFD
:10250000FF1FE254FC4F882361F080819181A281FA
:10251000B381B095A095909581959F4FAF4FBF4FD8
:1025200004C080819181A281B38180934103909303
:102530004203A0934303B0934403BE0187E693E0B4
:102540000E94120FBE0184E393E00E94120F60917B
:1025500082037091830380918403909185030E948C
:10256000943087E693E00E94B50C60914F03709120
:10257000500380915103909152030E94943084E360
:1025800093E00E94B50CC092D403D092D503E092A0
:10259000D603F092D703DF91CF91FF90EF90DF90B9
:1025A000CF900895EF92FF920F931F93CF93DF93F5
:1025B0007C010CE011E0C0E0D0E06FE072E0C70108
:1025C0000E948F1D0E942B1CBC01F801808191810B
:1025D0000E94E7370C5F1F4F892B81F4CC0FDD1F62
:1025E000CC0FDD1FC45FDE4FEA81FB81C701DF91A5
:1025F000CF911F910F91FF90EF9009942196CC30CD
:10260000D105D9F6DF91CF911F910F91FF90EF90F7
:1026100008958C01C0E0D0E0C017D107B4F461E0A8
:102620008DE00E94AC2A68EC70E080E090E00E94AF
:10263000882960E08DE00E94AC2A68EC70E080E0C0
:1026400090E00E9488292196E7CF68E572E080E05B
:1026500090E00E948829DECF26E040E052EC61E065
:1026600070E082E495E00E94EE2B64E170E080E08F
:1026700090E00E94882961E08DE00E94732A61E069
:102680008CE00E94732A62E084E00E94732A60E07A
:102690008DE00E94AC2A60E08CE00E94AC2A0E948F
:1026A000421080914801882309F47FC085E794E0B7
:1026B0000E940D2088E18093B80062E087E00E94CC
:1026C000732A8BE993E00E9428256AE070E080E09D
:1026D00090E00E9488298BE993E00E9483258BE992
:1026E00093E00E94C60780934E046AE070E080E0A9
:1026F00090E00E94882980914E0481113CC061E0E5
:102700008BE993E00E9442266AE070E080E090E06E
:102710000E9488298BE993E00E94E1248093500471
:1027200080919D0380934F046CED70E08BE993E002
:102730000E9430266CE470E08BE993E00E9436261C
:102740006BEA7FEF8BE993E00E943C266CEF76E02A
:102750008BE993E00E942A260E945929605D7A48FD
:102760008F4F9F4F6093AD027093AE028093AF0284
:102770009093B0021AC06CE971E082E495E00E9487
:10278000432D4AE050E060914E0482E495E00E94BF
:10279000222E6DEA71E082E495E00E94602D809126
:1027A0004E0490E001960E9409136FEA71E082E402
:1027B00095E00C94602DCF92DF92EF92FF92CF9331
:1027C000DF93EC01C880D980EA80FB802BED3FE0ED
:1027D00049E450E4C701B6010E94E63118166CF4D2
:1027E0002BED3FE049EC50E4C701B6010E945E2F9B
:1027F000688379838A839B83E5CF2BED3FE049E4AF
:1028000050EC60915B0470915C0480915D04909148
:102810005E040E94253087FF0FC02BED3FE049EC9E
:1028200050E4688179818A819B810E945F2F68834F
:1028300079838A839B83E1CFDF91CF91FF90EF90E3
:10284000DF90CF900895CF93DF93EC0187E693E07C
:102850000E94870D84E393E00E94870D10925B0431
:1028600010925C0410925D0410925E0410925F045A
:10287000109260041092610410926204109263043A
:102880001092640410926504109266046AE971E083
:10289000CE010E943606882379F06AE971E0CE0104
:1028A0000E948F1D0E94371C609363047093640420
:1028B000809365049093660468E971E0CE010E94FC
:1028C0003606882379F068E971E0CE010E948F1DF9
:1028D0000E94371C60935F047093600480936104CE
:1028E0009093620466ED71E0CE010E943606882363
:1028F000A9F066ED71E0CE010E948F1D0E94371C89
:1029000025E33AEF4EE85CE30E94F13160935B040B
:1029100070935C0480935D0490935E048BE594E077
:102920000E94DB132091E4033091E5034091E6031C
:102930005091E70360915B0470915C0480915D04A9
:1029400090915E040E945F2F609357047093580427
:102950008093590490935A041092C6031092C703AF
:10296000DF91CF910895CF92DF92EF92FF92CF93B4
:10297000DF93EC0168ED71E00E9436068823A1F038
:1029800068ED71E0CE010E948F1D0E94461C8827D1
:1029900077FD8095982F0E94C73025E33AEF4EE8E7
:1029A0005CE30E94F13128C06CED71E0CE010E9421
:1029B0003606882349F1C0905B04D0905C04E09017
:1029C0005D04F0905E046CED71E0CE010E948F1DFD
:1029D0000E94461C882777FD8095982F0E94C7305B
:1029E00025E33AEF4EE85CE30E94F1319B01AC0134
:1029F000C701B6010E945F2F6093E0037093E1036B
:102A00008093E2039093E30380EE93E00E94DB1354
:102A100081E08093C603DF91CF91FF90EF90DF902C
:102A2000CF9008954F925F926F927F928F929F9274
:102A3000AF92BF92CF92DF92EF92FF921F93CF930C
:102A4000DF93CDB7DEB72C970FB6F894DEBF0FBE7D
:102A5000CDBFE0916A0380916B03F0E08823B1F071
:102A6000EE0FFF1FEE0FFF1FE254FC4F808191819C
:102A7000A281B38122273327A901281B390B4A0BD6
:102A80005B0B2D833E834F83588711C09F01220F1C
:102A9000331F220F331F22543C4FD9018D919D913A
:102AA0000D90BC91A02D8D839E83AF83B887E0915C
:102AB000370380913803F0E08823B1F0EE0FFF1F59
:102AC000EE0FFF1FE254FC4F80819181A281B38100
:102AD00022273327A901281B390B4A0B5B0B2987B7
:102AE0003A874B875C8711C09F01220F331F220F4B
:102AF000331F22543C4FD9018D919D910D90BC9173
:102B0000A02D89879A87AB87BC87809170039091AD
:102B10007103A0917203B09173038D809E80AF808A
:102B2000B884881A990AAA0ABB0A80913D03909139
:102B30003E03A0913F03B091400349845A846B84C3
:102B40007C84481A590A6A0A7B0A209157043091FA
:102B500058044091590450915A046091E4037091D3
:102B6000E5038091E6039091E7030E945E2F69835D
:102B70007A838B839C8321EE3EE245E652E40E94F9
:102B8000F1316B017C0120E030E0A9010E94E631C7
:102B900018166CF411E02DEC3CEC4CEC5DE3C70135
:102BA000B6010E94E631181674F010E00CC02DEC4E
:102BB0003CEC4CEC5DEBC701B6010E942530182FB0
:102BC000111F1127111FC501B401640D751D861D4C
:102BD000971D0E94C7302091BA033091BB034091EA
:102BE000BC035091BD030E94F13120E030E040E091
:102BF0005FE30E94F1316B017C0120E030E0A9012C
:102C00000E94E63118165CF420E030E040E85FE313
:102C1000C701B6010E94E631181654F00AC020E040
:102C200030E040E85FEBC701B6010E94253087FD28
:102C300011E080905B0490905C04A0905D04B090E3
:102C40005E0420E030E040E05FE369817A818B81BF
:102C50009C810E94F1319B01AC01C501B4010E942D
:102C60005F2F2B013C010E9454329B01AC01C70134
:102C7000B6010E94F1319B01AC0160916304709137
:102C8000640480916504909166040E945F2F6093B4
:102C90006304709364048093650490936604C30195
:102CA000B2010E9429309B01AC01C701B6010E940C
:102CB000F1319B01AC0160915F04709160048091DF
:102CC0006104909162040E945F2F60935F0470938F
:102CD0006004809361049093620429813A814B815E
:102CE0005C81C501B4010E945F2F60935B04709307
:102CF0005C0480935D0490935E048BE594E00E94F5
:102D0000DB134091E4035091E5036091E603709179
:102D1000E703409357045093580460935904709309
:102D20005A042D813E814F81588520937003309342
:102D30007103409372035093730389859A85AB8521
:102D4000BC8580933D0390933E03A0933F03B093D3
:102D50004003812F2C960FB6F894DEBF0FBECDBF77
:102D6000DF91CF911F91FF90EF90DF90CF90BF90B8
:102D7000AF909F908F907F906F905F904F9008954D
:102D8000CF93DF9300D000D0CDB7DEB77A836983CD
:102D90001C821B82BE016F5F7F4F0E942A1D8B81A8
:102DA0009C810F900F900F900F90DF91CF9108951D
:102DB000CF92DF92EF92FF920F931F93CF93DF9307
:102DC000CDB7DEB7C454D1090FB6F894DEBF0FBE3D
:102DD000CDBF87E592E09A83898325961FAE1EAE0C
:102DE0002597CE0101960E94EF1B8C0160EE71E0E9
:102DF0000E948F1D62EE71E00E94601C20E030E0B6
:102E00004AE754E46091630470916404809165041E
:102E1000909166040E942C306B017C016AE971E09C
:102E2000C8010E948F1D24E0B701A6010E946C1CFE
:102E300020E030E04AE754E460915F047091600460
:102E400080916104909162040E942C306B017C019E
:102E500068E971E0C8010E948F1D24E0B701A60156
:102E60000E946C1C21EE3EE245E652E460915B0458
:102E700070915C0480915D0490915E040E94F13138
:102E80006B017C0166ED71E0C8010E948F1D21E09D
:102E9000B701A6010E946C1C62E475E0C8010E94A3
:102EA000C01682E495E00E944C2DCC5BDF4F0FB63C
:102EB000F894DEBF0FBECDBFDF91CF911F910F9170
:102EC000FF90EF90DF90CF900895CF92DF92EF9236
:102ED000FF920F931F93CF93DF93CDB7DEB7C45804
:102EE000D1090FB6F894DEBF0FBECDBF8DE592E0DD
:102EF0009A838983CD57DF4F19821882C358D040F7
:102F0000CE0101960E94EF1B8C0160EE71E00E94E1
:102F10008F1D67EE71E00E94601CC0909203D090FC
:102F20009303E0909403F090950361EF71E0C80182
:102F30000E948F1D22E0B701A6010E946C1CC09068
:102F40005F03D0906003E0906103F090620364EF50
:102F500071E0C8010E948F1D22E0B701A6010E9406
:102F60006C1CC0909603D0909703E0909803F0906B
:102F7000990367EF71E0C8010E948F1D22E0B7013D
:102F8000A6010E946C1CC0906303D0906403E09083
:102F90006503F09066036AEF71E0C8010E948F1D1F
:102FA00022E0B701A6010E946C1C62E475E0C80132
:102FB0000E94C01682E495E00E944C2DCC57DF4F52
:102FC0000FB6F894DEBF0FBECDBFDF91CF911F913A
:102FD0000F91FF90EF90DF90CF900895FF920F93A5
:102FE0001F93CF93DF93CDB7DEB7C454D1090FB68B
:102FF000F894DEBF0FBECDBFF82E27E532E03A834E
:10300000298325961FAE1EAE2597CE0101960E94FC
:10301000EF1B8C0160EE71E00E948F1D6DEF71E07F
:103020000E94601C6091630170916401C8010E945C
:103030008F1D4F2D50E060E070E00E947B1C62E429
:1030400075E0C8010E94C01682E495E00E944C2DF4
:10305000CC5BDF4F0FB6F894DEBF0FBECDBFDF9164
:10306000CF911F910F91FF900895FF920F931F939F
:10307000CF93DF93CDB7DEB7C454D1090FB6F89420
:10308000DEBF0FBECDBFF82E27E532E03A8329839D
:1030900025961FAE1EAE2597CE0101960E94EF1B0E
:1030A0008C0160EE71E00E948F1D64E072E00E946E
:1030B000601C6091630170916401C8010E948F1DC2
:1030C0004F2D50E060E070E00E947B1C62E475E0F0
:1030D000C8010E94C01682E495E00E944C2DCC5B92
:1030E000DF4F0FB6F894DEBF0FBECDBFDF91CF919B
:1030F0001F910F91FF900895EF920F931F9380E01F
:1031000090E0A0E8BFE38093FC039093FD03A093BD
:10311000FE03B093FF03109200041092010410927A
:1031200002041092030410920404109205041092F9
:1031300006041092070410920804109209041092D9
:103140000A0410920B041092F0031092F1031092F3
:10315000F2031092F3031092F4031092F50310920D
:10316000F6031092F7031092F8031092F9031092ED
:10317000FA031092FB0382EC91E09093B9038093E1
:10318000B8038BE993E00E948124EE24E39400E0ED
:1031900010E020E130E04BE050E065E070E087E6D1
:1031A00093E00E94CA0DE12C01E010E02FE030E036
:1031B00041E150E066E070E084E393E00E94CA0DD4
:1031C0001F910F91EF9008950F931F93CF93DF936B
:1031D000CDB7DEB7C458D1090FB6F894DEBF0FBE25
:1031E000CDBF82E495E00E940B2B892B09F44DC0E2
:1031F00082E495E00E94242B209132033091330326
:103200008A3089F5C9010196909333038093320384
:10321000F901EE54FD4F10828DE592E09A83898387
:10322000CD57DF4F19821882C358D0404AE062EB75
:1032300072E0CE0101960E94491F8C016FE072E09E
:103240000E943606882321F0C8010E94D21206C0CF
:103250006AE072E082E495E00E94602D10923303F0
:103260001092320312C0A9014F5F5F4F5093330396
:1032700040933203F901EE54FD4F808340385105ED
:1032800020F084E090E00E940913CC57DF4F0FB686
:10329000F894DEBF0FBECDBFDF91CF911F910F918C
:1032A00008950F931F93CF93DF9320913C013091AA
:1032B0003D0140E050E060915104709152048091D2
:1032C0005304909154040E94C832672B682B692BD9
:1032D000A1F40E9459290091AD021091AE022091F3
:1032E000AF023091B002061717072807390728F4F4
:1032F0008091AC02882309F4DCC00E94E41880911C
:1033000046018823E9F101E010E020E030E08091FF
:103310003E0190913F01892B19F000E010E09801E7
:10332000409151045091520460915304709154049F
:103330004023512362237323452B462B472B01F156
:103340008091B102811119C089B182958170C82F15
:1033500030E0D32F80910A0190910B01C817D90753
:1033600079F0D0930B01C0930A0183E08093B102FE
:103370008C2F81700E94EE1703C081508093B102A0
:10338000809147018823B1F020914201309143019F
:1033900040E050E0609151047091520480915304D8
:1033A000909154040E94C832672B682B692B11F44A
:1033B0000E944212209144013091450140E050E0CA
:1033C000609151047091520480915304909154047F
:1033D0000E94C832672B682B692B49F40E94121592
:1033E000882329F08091550481110E94D8162091DC
:1033F00040013091410140E050E0609151047091F2
:10340000520480915304909154040E94C832672B57
:10341000682B692B81F48DE00E94E22A61E0892B00
:1034200009F060E08DE00E94AC2A80915604882368
:1034300011F01D9977C080914801882311F14F9BAD
:1034400020C08BE993E00E94E124809350048BE933
:1034500093E00E943C2590934D0480934C0420916E
:10346000500424FD04C08115944009F05EC063E15E
:1034700072E082E495E00E94602D8BE993E00E9467
:1034800001258091510490915204A0915304B09170
:1034900054040196A11DB11D8093510490935204D0
:1034A000A0935304B0935404DF91CF911F910F91D7
:1034B000089511E01093AC0287E693E00E94870D17
:1034C00084E393E00E94870D10925B0410925C04E9
:1034D00010925D0410925E0410925F0410926004DA
:1034E00010926104109262041092630410926404BA
:1034F00010926504109266044091E4035091E50334
:103500006091E6037091E703409357045093580489
:103510006093590470935A041093550481E00E94FB
:103520003518EBCE0E94651786CF21FFA6CF4091BC
:103530004F046CE074E08BE993E00E9458254CE066
:1035400054E06CEF73E08BE993E00E94880A4CEF43
:1035500053E060EF73E08BE993E00E94F70A20EFFD
:1035600033E04CEF53E064EE73E08BE993E00E94AC
:10357000C30B83CFCF93DF93EC0188819981DC016A
:10358000ED91FC910190F081E02D09952A813B811C
:10359000280F391F3B832A83DF91CF910895DB01E8
:1035A000ED91FC9111970190F081E02DBC01CD01CE
:1035B00009940F931F93CF93DF938C01F801C2817D
:1035C000D3818881992787FD90950E94B137892BF7
:1035D00029F02196F801D383C283F0CFDF91CF91F8
:1035E0001F910F9108950F931F93CF93DF931F9215
:1035F000CDB7DEB78C0169830E94D91AD801129623
:10360000ED91FC9113978081698186130AC03196F0
:103610001396FC93EE931297C8010E94D91A81E089
:1036200001C080E00F90DF91CF911F910F9108951D
:10363000FB012191BF01222379F0DC011296ED916B
:10364000FC9113973081321307C03196DC01139639
:10365000FC93EE931297ECCF81E0211180E0089566
:10366000BF92CF92DF92EF92FF920F931F93CF936F
:10367000DF937C01EB01009771F46FE572E0CE01FE
:10368000DF91CF911F910F91FF90EF90DF90CF903E
:10369000BF900C94432DE881F9810190F081E02DD9
:1036A00062E2CE0109958C01F70161917F016623E9
:1036B00051F0EFE6F2E0B080BB2079F191819617EE
:1036C000B1F03296F8CFE881F9810190F081E02DD8
:1036D00062E2CE010995800F911FDF91CF911F917A
:1036E0000F91FF90EF90DF90CF90BF900895E88109
:1036F000F9810190F081E02D6CE5CE0109956C0116
:10370000E881F9810190F081E02D6B2DCE010995C2
:103710008C0D9D1D080F191FC7CFE881F9810190FD
:10372000F081E02DCE010995F5CFCF93FC015081BA
:10373000523229F0573219F080E090E023C09C010A
:103740002F5F3F4FD901F901CF01019640814423FA
:1037500099F3451791F04C3569F401964181E3E7FF
:10376000F2E0C081CC2331F0C41302C0418102C019
:103770003296F7CF4D93FC01E7CF1C92FB0191836A
:103780008083C901CF910895DC011296ED91FC91DF
:103790001397309731F06115710531F4CF0102961E
:1037A000089587E694E00895615071090190F081D1
:1037B000E02DEFCFCF93DF93EC01BC0184E090E0EC
:1037C0000E94CF1AFC01009729F0D183C083138295
:1037D000128202C081E794E0DF91CF910895CF93E8
:1037E000DF93EC01BC0184E090E00E94CF1AFC0161
:1037F000009729F0D183C0831382128202C08DE624
:1038000094E0DF91CF9108950F931F93CF93DF93AF
:103810008B01FC01C281D381209759F0B8018A81C4
:103820009B810E94E737892B39F00990D881C02D00
:10383000F3CF80E090E001C0CE01DF91CF911F91E6
:103840000F9108950E94041C009711F004960895AA
:1038500087E694E00895FC0120813181253031050F
:1038600019F482819381089580E090E00895FC012D
:1038700020813181273031052CF062817381848170
:103880009581089560E070E0CB010895FC012081EE
:1038900031812630310529F46281738184819581DB
:1038A000089560E070E0CB010895FC018081918172
:1038B000892B29F084E090E09183808362830895CE
:1038C000FC0180819181892B31F085E090E091832A
:1038D0008083738362830895FC0180819181892BA9
:1038E00049F030E0295F3F4F318320834283538387
:1038F000648375830895FC0180819181892B41F057
:1039000086E090E091838083428353836483758350
:103910000895FC0180819181892B31F082E090E053
:1039200091838083738362830895FC0180819181F8
:10393000892B31F083E090E09183808373836283ED
:103940000895FC01208131812230310521F48281EA
:1039500093810C94C41B87E694E00895CF93DF9382
:10396000FC01EB01208131812230310531F482816B
:103970009381DF91CF910C94041D2330310531F4F4
:1039800082819381DF91CF910C942A1D25303105DE
:1039900039F468817981828193810E94301B2BC028
:1039A0002630310559F442815381648175812AE0C2
:1039B00030E0888199810E94CB2D1DC024303105D3
:1039C00069F48281882319F064E672E002C069E636
:1039D00072E0888199810E94432D0DC02730310506
:1039E00084F0275030E04281538164817581888161
:1039F00099810E94142F2A813B81280F391F3B8314
:103A00002A83DF91CF9108950F931F93CF93DF9374
:103A1000EC018B016BE5C8010E94BA1A0A80DB81B8
:103A2000C02D209779F0B801CE0102960E94AE1CFD
:103A30000990D881C02D209729F06CE2C8010E941E
:103A4000BA1AF1CF6DE5C801DF91CF911F910F91A7
:103A50000C94BA1A0F931F93CF93DF938C01EB0151
:103A60006BE7CE010E94BA1AF80102811381011599
:103A7000110509F168817981F801828193810E94A1
:103A8000301B2A813B81280F391F3B832A836AE33D
:103A9000CE010E94BA1ABE01C80104960E94AE1C53
:103AA000F801008111810115110529F06CE2CE01A8
:103AB0000E94BA1ADFCF6DE7CE01DF91CF911F913F
:103AC0000F910C94BA1AFC01608171816115710526
:103AD00079F08AE090E00E94CF1AFC01009741F053
:103AE0001182108281E090E095838483CF01089554
:103AF00080E090E00895DC011296ED91FC9113971F
:103B0000309749F080819181009711F0FC01FACF44
:103B1000718360830895FC01738362830895EF923B
:103B2000FF920F931F93CF93DF938C017B010E9431
:103B3000041CEC01009761F4C8010E94631DEC01B4
:103B4000009749F0FB82EA82BC01C8010E947B1DFC
:103B5000CE01049602C087E694E0DF91CF911F91D9
:103B60000F91FF90EF900895FC01608171816115C4
:103B7000710579F088E090E00E94CF1AFC0100976F
:103B800041F01182108281E090E093838283CF0123
:103B9000089580E090E00895DC011296ED91FC918B
:103BA0001397309749F080819181009711F0FC01C3
:103BB000FACF718360830895FC0173836283089553
:103BC0000F931F93CF93DF938C010E94B41DEC01E0
:103BD000009739F0BC01C8010E94CC1DCE010296AD
:103BE00002C087E694E0DF91CF911F910F91089575
:103BF000EF92FF920F931F93CF93DF93EC01888195
:103C000099810E94DA1B7C016BE5CE010E94F31AB8
:103C1000811103C081E794E022C06DE5CE010E94CE
:103C2000F31A81111BC0C7010E94E01D8C01BC0169
:103C3000CE010E94361EF8012081318122303105EB
:103C400048F36DE5CE010E94F31A811107C06CE2C2
:103C5000CE010E94F31A8111E6CFDCCFC701DF91BC
:103C6000CF911F910F91FF90EF900895EF92FF92E7
:103C70000F931F93CF93DF9300D0CDB7DEB78C01A6
:103C80007B01DC0114968C911497882309F4A3C05E
:103C9000815014968C93C8010E94D91AF801828130
:103CA0009381DC012C912A337CF420330CF03FC04B
:103CB000273209F461C024F4223209F45DC065C0E2
:103CC0002D522230A0F161C02E3609F442C02CF4EE
:103CD0002B3581F02636B1F058C0243799F02B37B8
:103CE00009F053C0C8010E94F41EBC01C7010E9424
:103CF000951C4BC0C8010E94F81DBC01C7010E9461
:103D0000891C43C064E672E0C8010E94181B882326
:103D100011F061E008C069E672E0C8010E94181B5A
:103D2000882309F160E0C7010E94551C2EC04AE0BB
:103D300050E0BE016F5F7F4F0E947D36AB01BC013A
:103D4000E981FA8180818E3229F18F7D8534D1F528
:103D500021C06FE572E0C8010E94181B882319F08A
:103D600060E070E00FC086E0E7E6F4E0D701019084
:103D70000D928A95E1F709C0B8016E5F7F4F0E94EE
:103D8000951BBC01C7010E94601CF80184818F5FF4
:103D9000848321C0B8016E5F7F4FD80112968D9148
:103DA0009C9113970E941A35AB01BC01F801228146
:103DB000338189819A81281B390B2150C7010E94C8
:103DC0006C1CE3CFD8011396FC93EE931297C701B6
:103DD0000E947B1CDACF0F900F90DF91CF911F9143
:103DE0000F91FF90EF900895CF92DF92EF92FF92A4
:103DF0000F931F93CF93DF93EC01888199810E94E9
:103E0000EF1B6C016BE7CE010E94F31A811103C016
:103E10008DE694E035C06DE7CE010E94F31A811162
:103E20002EC07E0182E0E80EF11CB7018A819B81E1
:103E30000E94951B8C01009759F36AE3CE010E9402
:103E4000F31A882329F3B801C6010E948F1D8C0143
:103E5000BC01CE010E94361EF80120813181223042
:103E60003105B0F26DE7CE010E94F31A811107C04F
:103E70006CE2CE010E94F31A8111D7CFC9CFC601DF
:103E8000DF91CF911F910F91FF90EF90DF90CF9036
:103E90000895CF93DF9300D000D01F92CDB7DEB747
:103EA0009A8389837C836B834D83CE0101960E9424
:103EB000F41E0F900F900F900F900F90DF91CF9105
:103EC000089510927204109271041092740410926A
:103ED000730410926E0410926D041092700410928C
:103EE0006F04109268041092670408958091A504ED
:103EF00090E02091A604821B910908952091A604C8
:103F00008091A504281750F4E22FF0E0E955FB4F0B
:103F1000808190E02F5F2093A60408958FEF9FEF9C
:103F20000895E091A6048091A504E81730F4F0E02C
:103F3000E955FB4F808190E008958FEF9FEF089542
:103F40000895CF92DF92EF92FF920F931F93CF933A
:103F5000DF937C01CB018A0120918104222389F027
:103F6000EB016B01C40ED51ECC15DD0569F069911E
:103F7000D701ED91FC910190F081E02DC7010995E9
:103F8000F3CF642F0E940021C801DF91CF911F91D0
:103F90000F91FF90EF90DF90CF900895CF93DF9334
:103FA0001F92CDB7DEB76983209181042223D1F01F
:103FB00020918204203240F021E030E0FC01338384
:103FC000228380E090E015C080918304E82FF0E028
:103FD000EC57FB4F998190838F5F8093830480938C
:103FE000820405C061E0CE0101960E94002181E0BB
:103FF00090E00F90DF91CF910895FC01138212821F
:1040000048EE53E060E070E0448355836683778335
:1040100082E892E09183808308951092A604109222
:10402000A50410928304109282040C944B20862FD6
:10403000413208F040E267EA74E00E946920109281
:10404000A6048093A504089521E00C94172081E034
:10405000809381046093A4041092830410928204DC
:1040600008950F93062F21E04091820464E874E0E4
:104070008091A4040E94AD201092830410928204C7
:10408000109281040F91089561E00C94312085E72E
:1040900094E00C94FD1F1092340581E0809332056A
:1040A0001092310561E082E10E94AC2A61E083E177
:1040B0000E94AC2AE9EBF0E080818E7F80838081D2
:1040C0008D7F808388E48093B80085E48093BC0072
:1040D0000895413208F03FC0909134059111FCCF12
:1040E00091E090933405209332052FEF2093C7047D
:1040F00010920C05240F20930B059093330590919B
:104100003305880F892B80933305809131058130E9
:1041100041F410923105809133058093BB0085EC0A
:1041200001C085EE8093BC00809134058130E1F3BD
:1041300080910C05841710F440910C052DE035E0BA
:10414000FB01D9018A2F821B841718F48D9181936A
:10415000F9CF842F089580E008950F93413208F03D
:1041600046C0909134059111FCCF92E090933405B4
:10417000009332059FEF9093C70410920C05409373
:104180000B05FB016DE075E0DB019A2F961B941780
:1041900018F491919D93F9CF1092330590913305C6
:1041A000880F892B8093330580913105813041F44C
:1041B00010923105809133058093BB0085EC01C0DE
:1041C00085EE8093BC00222321F08091340582305B
:1041D000E1F38091C7048F3F61F08091C704803282
:1041E00051F08091C704803341F483E007C081E03F
:1041F00005C080E003C082E001C084E00F91089513
:10420000613298F420913405243089F46093E904F4
:10421000FC018BEE94E0DC012A2F281B261718F4F2
:1042200021912D93F9CF80E0089581E0089582E0F7
:10423000089585ED8093BC008091BC0084FDFCCF87
:1042400010923405089585EC8093BC0010923405DB
:1042500008951F920F920FB60F9211242F933F9340
:104260004F935F936F937F938F939F93AF93BF937E
:10427000EF93FF938091B900887F803609F49CC04A
:1042800068F5883209F45BC090F4803109F454C0B9
:1042900038F4882309F4F5C0883009F44DC0F5C01E
:1042A000883109F44CC0803209F45DC0EEC080341E
:1042B00009F468C048F4803309F455C0883309F024
:1042C000E4C08093C704A8C0803509F44FC0883586
:1042D00009F45DC0883409F0D8C0D5C0883909F424
:1042E000C6C0A8F4883709F467C038F4883609F4E2
:1042F00063C0803709F460C0C8C0883809F4B7C00B
:10430000803909F45FC0803809F0BFC05BC0803BD2
:1043100009F485C038F4803A09F466C0883A09F493
:104320007EC0B3C0803C09F4A6C0883C09F4A3C099
:10433000883B09F489C0A9C08091330510C09091D1
:104340000C0580910B05981770F5E0910C0581E044
:104350008E0F80930C05F0E0E35FFA4F808180932D
:10436000BB0085EC85C08093C7048DC0E0910C052F
:1043700081E08E0F80930C058091BB00F0E0E35F3D
:10438000FA4F808390910C0580910B056DC0E091F0
:104390000C0581E08E0F80930C058091BB00F0E04E
:1043A000E35FFA4F80838091320581116CC081E018
:1043B0008093310584EA60C083E0809334051092D5
:1043C000C804CFCF8091C804803208F050C0E0917B
:1043D000C80481E08E0F8093C8048091BB00F0E098
:1043E000E753FB4F8083BDCF8091C804803230F407
:1043F000E091C804F0E0E753FB4F10820E941921BE
:104400006091C80470E0E0912D05F0912E0589ECD3
:1044100094E009951092C8040E94232136C084E0DC
:10442000809334051092EA041092E904E0912F057C
:10443000F091300509958091E904811105C081E072
:104440008093E9041092EB04E091EA0481E08E0F7E
:104450008093EA04F0E0E551FB4F80818093BB003C
:104460009091EA048091E904981708F47ACF85E8DE
:104470008093BC000AC085EC8093BC001092340588
:1044800004C01092C7040E941921FF91EF91BF91BF
:10449000AF919F918F917F916F915F914F913F91DC
:1044A0002F910F900FBE0F901F901895EF92FF92D3
:1044B0000F931F93CF93DF9300D0CDB7DEB7062FB6
:1044C000142F682F85E794E029833A830E942720E0
:1044D000602F85E794E00E94CE1F2981022FE22EF3
:1044E0003A81F32E8E2D801B811740F4F7016191E4
:1044F0007F0185E794E00E94CE1FF4CF85E794E02A
:104500000E94442091E0811190E0892F0F900F903C
:10451000DF91CF911F910F91FF90EF900895CF936E
:10452000DF931F92CDB7DEB749839E012F5F3F4FC8
:1045300041E00E9456220F90DF91CF910895DF92C3
:10454000EF92FF920F931F93CF93DF93C62F042F09
:104550007901682F85E794E00E9427206C2F85E77A
:1045600094E00E94CE1F10E0000F111FD12CCD2D22
:10457000D0E0C017D1078CF4CC0FDD1FCE0DDF1DAE
:10458000698185E794E00E94CE1F688185E794E009
:104590000E94CE1FD394D394EACF85E794E00E9483
:1045A000442091E0811190E0892FDF91CF911F91FC
:1045B0000F91FF90EF90DF900895CF93DF9300D09D
:1045C000CDB7DEB75A8349839E012F5F3F4F41E04D
:1045D0000E949F220F900F90DF91CF9108953F92FC
:1045E0004F925F926F927F928F929F92AF92BF9203
:1045F000CF92DF92EF92FF920F931F93CF93DF93AF
:1046000000D000D000D0CDB7DEB7682E562E742E65
:104610003A8329830E9459296B017C01312C412C5A
:10462000872D90E09C838B834801A12CB12C3714FB
:10463000B0F5662D85E794E00E942720652D85E77B
:1046400094E00E94CE1F85E794E00E944420662DEE
:1046500085E794E00E9427204B815C814319510932
:104660004132510514F040E250E0662D85E794E0B8
:104670000E94242085E794E00E94761F892B59F13F
:104680000115110579F10E9459296C197D098E09CE
:104690009F09681579058A059B0520F11CC0011545
:1046A000110589F10E9459296C197D098E099F090C
:1046B00020E030E0601771078207930720F1872D13
:1046C00090E0242D332727FD309528173907DCF497
:1046D00044244A9418C0872D90E2971508F480E28C
:1046E000380EA5CFE981FA81E40DF11D47FCFA955A
:1046F000FE83ED8385E794E00E947E1FED81FE81BD
:1047000080834394B7CF842D26960FB6F894DEBFEE
:104710000FBECDBFDF91CF911F910F91FF90EF9012
:10472000DF90CF90BF90AF909F908F907F906F90D1
:104730005F904F903F9008950F931F9389019A01C6
:1047400041E00E94EF221F910F910895DF92EF92B6
:10475000FF920F931F93CF93DF931F92CDB7DEB7D6
:10476000D42E79019801AE014F5F5F4F0E949C23C8
:1047700061E070E001C0660FDA94EAF79981962350
:10478000F70190830F90DF91CF911F910F91FF90D0
:10479000EF90DF900895CF92DF92EF92FF920F9308
:1047A0001F93CF93DF931F92CDB7DEB7C42ED22EC7
:1047B0009701AE014F5F5F4F0E949C238823F1F069
:1047C0004C2D50E04D1951094F5F5F4F61E070E093
:1047D00002C0660F771FDA94E2F761507109042E68
:1047E00001C0660F0A94EAF72981262330E002C04F
:1047F000359527954A95E2F7F80120830F90DF91D0
:10480000CF911F910F91FF90EF90DF90CF9008957F
:10481000EF92FF920F931F93CF93DF931F92CDB729
:10482000DEB7182F062FF42EE22E2091650130916D
:104830006601AE014F5F5F4F0E949C23898121E09A
:1048400030E00F2C01C0220F0A94EAF7EE2019F095
:10485000482F422B03C0422F409548234983602FA5
:10486000812F0E948F220F90DF91CF911F910F9186
:10487000FF90EF900895DF92EF92FF920F931F93B6
:10488000CF93DF931F92CDB7DEB7F82EE62ED42E4E
:10489000122F2091650130916601AE014F5F5F4F8D
:1048A0000E949C23882319F14D2D50E0411B510992
:1048B0004F5F5F4FE1E0F0E002C0EE0FFF1F1A957F
:1048C000E2F73197042E01C0EE0F0A94EAF701C017
:1048D000000F4A95EAF74E2F409589814823E0233F
:1048E0004E2B49836E2D8F2D0E948F2201C080E0B8
:1048F0000F90DF91CF911F910F91FF90EF90DF907C
:10490000089528E6FC0120830895462F69E1FC0103
:1049100080810C948F220F93062F23E045E06AE1FB
:10492000FC0180810E943B240F9108950F93062F74
:1049300023E042E06AE1FC0180810E943B240F9168
:1049400008950F93062F22E044E06BE1FC01808183
:104950000E943B240F9108950F93062F22E044E01C
:104960006CE1FC0180810E943B240F910895462F49
:104970006FE1FC0180810C948F22462F60E2FC01E4
:1049800080810C948F22462F61E2FC0180810C947F
:104990008F22462F62E2FC0180810C948F226430CA
:1049A00048F4262F220F260F2B5D622FFC018081F9
:1049B0000C948F220895462F68E3FC0180810C94AB
:1049C0008F22CF93DF93EC01209165013091660136
:1049D000AC014F5F5F4F6AE388810E949C2389810D
:1049E000DF91CF910895262F46E06AE6FC01808191
:1049F0000C940824262F45E06AE6FC0180810C9483
:104A0000082421E042E06AE6FC0180810C9408243D
:104A100021E041E06AE6FC0180810C94082421E059
:104A200047E06BE6FC0180810C940824262F46E0C9
:104A30006BE6FC0180810C9408240F93062F23E081
:104A400042E06BE6FC0180810E943B240F910895B7
:104A5000CF93DF93EC0161E00E941D2560E0CE0161
:104A60000E94A12460E0CE010E94AC2460E0CE014F
:104A7000DF91CF910C9416250F931F93CF93DF9363
:104A8000EC0100916501109166019C012F5F3F4F81
:104A900042E062E788810E94EF22898190E0982FAE
:104AA00088272A81822BDF91CF911F910F91089542
:104AB0000F931F939B01009165011091660164E7BC
:104AC000FC0180810E94EF221F910F910895EF92C7
:104AD000FF920F931F93CF93DF93EC01E09065015A
:104AE000F09066018C010F5F1F4F26E046E065E7FE
:104AF00088810E94CB238981DF91CF911F910F91F3
:104B0000FF90EF9008950E94672591E0843309F0AB
:104B100090E0892F08950F931F93CF93DF93EC01BB
:104B200000916501109166019C012F5F3F4F40E0AD
:104B300060E088810E94A6238981DF91CF911F9137
:104B40000F910895262F40E060E0FC0180810C94D5
:104B50000824EF92FF920F931F93CF93DF93EC0102
:104B6000E0906501F09066018C010F5F1F4F26E019
:104B700046E060E088810E94CB238981DF91CF915C
:104B80001F910F91FF90EF9008950F93062F26E04D
:104B900046E060E0FC0180810E943B240F91089573
:104BA000EF92FF920F931F93CF93DF93EC01E0906E
:104BB0006501F09066018C010F5F1F4F26E046E013
:104BC00061E088810E94CB238981DF91CF911F9181
:104BD0000F91FF90EF9008950F93062F26E046E087
:104BE00061E0FC0180810E943B240F910895EF92C7
:104BF000FF920F931F93CF93DF93EC01E090650139
:104C0000F09066018C010F5F1F4F26E046E062E0E6
:104C100088810E94CB238981DF91CF911F910F91D1
:104C2000FF90EF9008950F93062F26E046E062E094
:104C3000FC0180810E943B240F910895AB0166E046
:104C4000FC0180810C94DD22AB0168E0FC018081D5
:104C50000C94DD22AB016AE0FC0180810C94DD2222
:104C6000AB0163E1FC0180810C94DD22AB0165E1C5
:104C7000FC0180810C94DD22AB0167E1FC018081A5
:104C80000C94DD22262F47E06AE6FC0180810C941B
:104C9000082421E043E06AE6FC0180810C940824AA
:104CA0006F712111606241116064462F6DE6FC0155
:104CB00080810C948F22462F6EE6FC0180810C943B
:104CC0008F22CF93DF93EC01209165013091660133
:104CD000AC014F5F5F4F6FE688810E949C23898102
:104CE000DF91CF9108955F926F927F928F929F9202
:104CF000AF92BF92CF92DF92EF92FF920F931F93EA
:104D0000CF93DF937C015B016A01622E702E20E05D
:104D100040E0662D0E945026602FC7010E945B264E
:104D2000C0E0D0E0812C99249394CC15DD05A8F542
:104D3000CE014096C816D90618F45C2C5C1A02C045
:104D4000A0E15A2E252D30E0C40187199109821760
:104D5000930714F4572C519400916501109166014A
:104D600095012C0F3D1F452D6FE6F70180810E94B4
:104D7000EF22C50DD11D750CCC15DD05B0F67110F7
:104D800001C0639420E040E0662DC7010E945026D8
:104D9000672DC7010E945B26C8CFDF91CF911F917D
:104DA0000F91FF90EF90DF90CF90BF90AF909F90CA
:104DB0008F907F906F905F9008952F923F924F92C7
:104DC0005F926F927F928F929F92AF92BF92CF929B
:104DD000DF92EF92FF920F931F93CF93DF9300D058
:104DE00000D01F92CDB7DEB79D838C837B836A830F
:104DF0004A01322ED02EE98220E040E0632D0E944D
:104E00005026602F8C819D810E945B26E980EE20D8
:104E100029F080E190E00E9429335C01CC2031F040
:104E200080E190E00E942933582E492EE12CF12C8C
:104E3000E814F90408F07AC0C7014096881699066C
:104E400018F4282C2E1802C010E1212E222D30E05B
:104E500080E091E08D1991098217930714F42D2CAD
:104E60002194EA81FB81EE0DFF1DCC2059F0852DA8
:104E7000A52DB42D9A2F981B921530F494919D93E3
:104E80003196F8CF5E2E4F2E252D342D422D6FE614
:104E9000AC81BD818C910E945622622C712CB9810B
:104EA000BB2369F1A114B10451F120E040E0632D6E
:104EB0008C819D810E9450266D2D8C819D810E9448
:104EC0005B2600916501109166019501422D6FE608
:104ED000EC81FD8180810E94EF22A301B501852D27
:104EE000942D0E94D137892B51F0C5010E94C13306
:104EF000CC2049F1852D942D0E94C13324C0E60CAD
:104F0000F71CD20CE814F90408F092CFD11001C0BC
:104F1000339420E040E0632D8C819D810E945026D7
:104F20006D2D8C819D810E945B2682CFF981FF23AC
:104F300019F0C5010E94C133CC2039F0852D942D84
:104F40000E94C13302C080E001C081E00F900F9049
:104F50000F900F900F90DF91CF911F910F91FF90C5
:104F6000EF90DF90CF90BF90AF909F908F907F9009
:104F70006F905F904F903F902F900895CF92EF9257
:104F80000F93CC24C3940E94DD260F91EF90CF9015
:104F900008952F923F924F925F926F927F928F92DD
:104FA0009F92AF92BF92CF92DF92EF92FF920F93B8
:104FB0001F93CF93DF9300D01F92CDB7DEB74C0184
:104FC0007B836A833A01D22E222331F088E090E07D
:104FD0000E942933182FF92E212C312C2614370446
:104FE00008F051C0EA81FB81E20DF31DC101039677
:104FF0005C01DD20C1F04491F10131968A819B81F1
:10500000E80FF91F0491F1013296E80FF91F54904F
:10501000511044C0F4E02F0E311CEA81FB81EA0DEF
:10502000FB1D84910DC0408101815280EA81FB818A
:10503000E80FF91F51100DC084E0280E311C80814B
:105040008130D1F442E368E3F40180810E948F2231
:10505000C5CF1E2FFF2E452C512CC12CEE24E394DE
:10506000242FA201612F7F2DC4010E94DD26120191
:105070002A0C3B1C8111B2CFDD2061F0812F9F2DC6
:105080000E94C13307C0DD2039F0812F9F2D0E947F
:10509000C13302C080E024C081E022C0252C312C25
:1050A000F2E0F51548F4B101812F9F2D49830E944C
:1050B0005034182FF92E4981812F9F2DA0E0B0E0A8
:1050C0002A813B812A0D3B1DA215B30520F6F9016B
:1050D000EA0FFB1F5491FC015193CF011196F4CFBD
:1050E0000F900F900F90DF91CF911F910F91FF9034
:1050F000EF90DF90CF90BF90AF909F908F907F9078
:105100006F905F904F903F902F90089521E00C9406
:10511000C927462F60E7FC0180810C948F22462F1F
:1051200061E7FC0180810C948F228230E8F4E82F43
:10513000F0E0EE0FFF1FEB5CFA4F7183608381306C
:1051400041F0809169008C7F842B80936900E89AFC
:10515000089580916900440F551F440F551F837FA8
:10516000842B80936900E99A08951F920F920FB6DD
:105170000F9211242F933F934F935F936F937F93DD
:105180008F939F93AF93BF93EF93FF9380913505D8
:1051900090913605892B29F0E0913505F09136057F
:1051A0000995FF91EF91BF91AF919F918F917F9161
:1051B0006F915F914F913F912F910F900FBE0F9084
:1051C0001F9018951F920F920FB60F9211242F93D4
:1051D0003F934F935F936F937F938F939F93AF937F
:1051E000BF93EF93FF938091370590913805892BFA
:1051F00029F0E0913705F09138050995FF91EF917D
:10520000BF91AF919F918F917F916F915F914F91DE
:105210003F912F910F900FBE0F901F9018951F92E6
:105220000F920FB60F9211242F933F938F939F935A
:10523000AF93BF9380913A0590913B05A0913C05B7
:10524000B0913D053091390523E0230F2D3720F42F
:105250000196A11DB11D05C026E8230F0296A11DD0
:10526000B11D2093390580933A0590933B05A09397
:105270003C05B0933D0580913E0590913F05A0917E
:105280004005B09141050196A11DB11D80933E05D9
:1052900090933F05A0934005B0934105BF91AF9116
:1052A0009F918F913F912F910F900FBE0F901F9064
:1052B00018952FB7F89460913A0570913B0580914D
:1052C0003C0590913D052FBF08953FB7F89480911C
:1052D0003E0590913F05A0914005B091410526B54E
:1052E000A89B05C02F3F19F00196A11DB11D3FBF1E
:1052F0006627782F892F9A2F620F711D811D911DAE
:1053000042E0660F771F881F991F4A95D1F70895CD
:10531000CF92DF92EF92FF92CF93DF936B017C01EC
:105320000E946529EB01C114D104E104F10489F064
:105330000E945D2F0E9465296C1B7D0B683E7340A7
:1053400090F381E0C81AD108E108F108C851DC4F98
:10535000EACFDF91CF91FF90EF90DF90CF9008954B
:10536000789484B5826084BD84B5816084BD85B540
:10537000826085BD85B5816085BDEEE6F0E0808107
:1053800081608083E1E8F0E0108280818260808328
:10539000808181608083E0E8F0E0808181608083AB
:1053A000E1EBF0E0808184608083E0EBF0E08081DD
:1053B00081608083EAE7F0E080818460808380817F
:1053C0008260808380818160808380818068808327
:1053D0001092C10008951F93CF93DF93182FEB0114
:1053E00061E00E94732A209711F460E004C0CF3F6F
:1053F000D10539F461E0812FDF91CF911F910C9499
:10540000AC2AE12FF0E0E45DF64FE491E330F9F0EF
:1054100048F4E130B9F0E230A1F584B5806284BD92
:10542000C8BD34C0E730E9F0E83019F1E43049F59F
:1054300080918000806280938000D0938B00C09325
:105440008A0024C084B5806884BDC7BD1FC0809118
:105450008000806880938000D0938900C09388008A
:1054600015C08091B00080688093B000C093B300F5
:105470000DC08091B00080628093B000C093B400F2
:1054800005C0C038D1050CF0B5CFAFCFDF91CF91BB
:105490001F910895833081F028F4813099F0823093
:1054A000A1F008958730A9F08830B9F08430D1F4A4
:1054B000809180008F7D03C0809180008F778093E2
:1054C0008000089584B58F7702C084B58F7D84BD38
:1054D00008958091B0008F7703C08091B0008F7DD8
:1054E0008093B0000895CF93DF9390E0FC01E05CDF
:1054F000F64F2491FC01EC5AF64F8491882349F130
:1055000090E0880F991FFC01E458F64FA591B491E3
:105510008E58964FFC01C591D4919FB7611108C078
:10552000F8948C91209582238C93888182230AC0E1
:10553000623051F4F8948C91322F309583238C9300
:105540008881822B888304C0F8948C91822B8C9361
:105550009FBFDF91CF9108950F931F93CF93DF9358
:105560001F92CDB7DEB7282F30E0F901E45DF64F8A
:105570008491F901E05CF64F1491F901EC5AF64F71
:1055800004910023C9F0882321F069830E944A2AEC
:105590006981E02FF0E0EE0FFF1FEE58F64FA59166
:1055A000B4919FB7F8948C91611103C01095812339
:1055B00001C0812B8C939FBF0F90DF91CF911F91E2
:1055C0000F910895CF93DF93282F30E0F901E45D28
:1055D000F64F8491F901E05CF64FD491F901EC5A51
:1055E000F64FC491CC2391F081110E944A2AEC2FEE
:1055F000F0E0EE0FFF1FE859F64FA591B4912C9102
:105600002D2381E090E021F480E002C080E090E072
:10561000DF91CF910895FC01818D228D90E0805C17
:105620009F4F821B91098F7399270895FC01918DDB
:10563000828D981731F0828DE80FF11D858D90E0F5
:1056400008958FEF9FEF0895FC01918D828D98173B
:1056500061F0828DDF01A80FB11D5D968C91928D56
:105660009F5F9F73928F90E008958FEF9FEF089553
:1056700088EA9CE2892B49F080E090E0892B29F0B0
:105680000E94A82C81110C9400000895FC01848DC7
:10569000DF01A80FB11DA35ABF4F2C91848D90E05C
:1056A00001968F739927848FA689B7892C93A08937
:1056B000B1898C9180648C93938D848D981306C0EE
:1056C0000288F389E02D80818F7D80830895CF93B8
:1056D000DF93EC01888D8823C9F0EA89FB898081FA
:1056E00085FD05C0A889B9898C9186FD0FC00FB6CC
:1056F00007FCF5CF808185FFF2CFA889B9898C910D
:1057000085FFEDCFCE010E94462BE7CFDF91CF91F1
:105710000895CF92DF92FF920F931F93CF93DF9361
:105720001F92CDB7DEB76C01DC015B969C915B9755
:105730005C968C915C97981307C05096ED91FC9104
:105740005197808185FD32C0F601038D10E00F5F17
:105750001F4F0F731127F02EF601848DF81211C020
:105760000FB607FCF9CFD6015096ED91FC915197F9
:10577000808185FFF1CFC60169830E94462B698134
:10578000EBCF838DE80FF11DE35AFF4F6083D60105
:105790005B960C935B975296ED91FC9153978081A9
:1057A0008062808381E058968C930DC0D601569616
:1057B000ED91FC91579760835096ED91FC91519734
:1057C00080818064808381E090E00F90DF91CF91B1
:1057D0001F910F91FF90DF90CF900895BF92CF92CD
:1057E000DF92EF92FF92CF93DF93EC016A017B018E
:1057F000B22EE889F98982E08083411581EE58074D
:1058000061057105A1F060E079E08DE390E0A7010A
:1058100096010E94C832215031094109510956951B
:10582000479537952795211580E1380798F0E88945
:10583000F989108260E874E88EE190E0A701960192
:105840000E94C832215031094109510956954795A6
:1058500037952795EC85FD853083EE85FF85208380
:10586000188EEC89FD89B082EA89FB89808180618C
:105870008083EA89FB89808188608083EA89FB894B
:10588000808180688083EA89FB8980818F7D808325
:10589000DF91CF91FF90EF90DF90CF90BF90089570
:1058A0001F920F920FB60F9211242F938F939F93F5
:1058B000EF93FF93E0915205F09153058081E091C1
:1058C0005805F091590582FD12C0908180915B05C9
:1058D0008F5F8F7320915C05821751F0E0915B051B
:1058E000F0E0EE5BFA4F958F80935B0501C08081FD
:1058F000FF91EF919F918F912F910F900FBE0F907D
:105900001F9018951F920F920FB60F9211242F938C
:105910003F934F935F936F937F938F939F93AF9337
:10592000BF93EF93FF9382E495E00E94462BFF9193
:10593000EF91BF91AF919F918F917F916F915F9107
:105940004F913F912F910F900FBE0F901F90189580
:1059500082E495E00E940B2B21E0892B09F420E0E2
:10596000822F0895109245051092440588EE93E029
:10597000A0E0B0E08093460590934705A0934805CA
:10598000B093490582E992E09093430580934205E4
:1059900085EC90E090934F0580934E0584EC90E069
:1059A000909351058093500580EC90E090935305BF
:1059B0008093520581EC90E09093550580935405B7
:1059C00082EC90E0909357058093560586EC90E02A
:1059D000909359058093580510925B0510925C05D1
:1059E00010925D0510925E05089508950E94B029F9
:1059F0000E94F52C0E942C13C8E3DBE20E9451198F
:105A00002097E1F30E94382BF9CFCF92DF92EF92EB
:105A1000FF920F931F93CF93DF936C017A01EB01F9
:105A2000E60EF71E00E010E0CE15DF0561F069918B
:105A3000D601ED91FC910190F081E02DC601099510
:105A4000080F191FF1CFC801DF91CF911F910F915E
:105A5000FF90EF90DF90CF9008956115710581F070
:105A6000DB010D900020E9F7AD0141505109461BC3
:105A7000570BDC01ED91FC910280F381E02D09943C
:105A800080E090E008950C942D2DDC01ED91FC91C7
:105A90000190F081E02D09940F931F93CF93DF9332
:105AA000EC016DE00E94452D8C016AE0CE010E9460
:105AB000452D800F911FDF91CF911F910F91089578
:105AC0000F931F93CF93DF93EC010E942D2D8C0138
:105AD000CE010E944C2D800F911FDF91CF911F911D
