:100000000C9423050C94CB240C94F8240C944B05ED
:100010000C944B050C944B050C944B050C944B0520
:100020000C944B050C944B050C944B050C944B0510
:100030000C944B050C944B050C944B050C944B0500
:100040000C9425250C944B050C9466280C94982848
:100050000C944B050C944B050C944B050C944B05E0
:100060000C94E51E0C944B05084AD73B3BCE016E21
:1000700084BCBFFDC12F3D6C74319ABD56833DDAFF
:100080003D00C77F11BED9E4BB4C3E916BAAAABE0E
:10009000000000803F05A84CCDB2D44EB93836A937
:1000A000020C50B9918688083CA6AAAA2ABE000074
:1000B00000803F005355423A436D642F002F2F219B
:1000C0002036303530206661696C65642028002F49
:1000D0002F2036303530207264790A002F2F2049C6
:1000E0006E69744932432F363035300A002F2F2085
:1000F0004D6F746F72496E69740A002F2F2050691A
:100100006C6F7420563252312E3035202867797248
:100110006F312E31290A002F2F2120636D6447652E
:100120006F6D002F2F20636D6454657374310A0066
:1001300001B202FFFF0190040923A135016A020602
:1001400000016008000000000000000000600440A2
:100150000000000162020000006004004000000393
:100160007B034CCD6C03AB0336567600680402CBA0
:1001700047A202180400058BC1010C040000000016
:10018000037F060CC92C97979703890326466600C0
:100190006C02200002400400000000024404000041
:1001A000000002480400000000024C0400000000AF
:1001B0000250040000000002540400000000025835
:1001C0000400000000025C040000000002BC040007
:1001D00000000001EC0400004000037F060CC92C65
:1001E0009797970402030D355D040904872D353D6B
:1001F00000A3010000000001078601FE074105F190
:1002000020283038077E01300746019A074704F15D
:10021000283038076C04F12830380216020001FB40
:1002200000003E000B003600010002000300000049
:10023000650054FFEF0000FA80000B1282000100FD
:1002400002000000000000000000000000000000AC
:10025000280000FFFF4581FFFFFA72000000000048
:100260000003E80000000100017FFFFFFE800100A5
:100270001B00000000000000000000000000000063
:100280003E03304000000002CAE3093E8000002027
:10029000000000000000004000000060000000417D
:1002A000FF000000000B2A0000165500002182FD0F
:1002B000872650FD800000001F0000000580000020
:1002C00000000000010000000200000003000040E8
:1002D0000000000000046F0002653200005EC040B4
:1002E000000000000000000000000000000000FB13
:1002F0008C6F5DFD5D08D9007C733B006C12CC32C5
:1003000000139D3200D0D632000800400001F4FFF7
:10031000E68079020000000000D0D600002710FB24
:10032000000000400000000000000000000000008D
:1003300000000100000000000001000100000000BA
:1003400000FA36FFBC308E0005FBF0FFD95BC8FF1A
:10035000D09ABE000010A9FFF41EB200CEBBF70079
:1003600000000100000004000200020200000CFF77
:10037000C280000001800000CF800040000000002B
:100380000000010000000000000600000000140052
:10039000000000000000000000000000000000005D
:1003A000000000000000000000000000000000004D
:1003B000000000000000000000000000000000003D
:1003C000000000033F68B6793528BCC67ED16C803A
:1003D000000000400000000000B26A0000000000C1
:1003E0000000000000000000003FF00000003000AE
:1003F00000000000000000000000000000000000FD
:1004000000000000000000000000000000000000EC
:1004100000254D002F706D000005AE000C02D000CD
:1004200000000000650054FFEF0000000000000025
:100430000001000044000000000C0000000100006A
:100440000000000065000000540000FFEF00000005
:10045000000000000000000000000000000000405C
:10046000000000000000000000000000000000404C
:10047000000000000000000000000000000000007C
:100480000000010000000200000000000000000069
:10049000000000000000000000000000000000005C
:1004A000000000000000000000000000000000004C
:1004B0001B00000000000000000000000000000021
:1004C000000000000000000000000000000000002C
:1004D00000000000000000000000004000000000DC
:1004E0001B000000000000000000000000000000F1
:1004F00000000000000000000000000000000000FC
:1005000000000000000000000000000000000000EB
:10051000000000000000000000000000000000D803
:10052000DCBAA2F1DEB2B8B4A88191F74A907F910B
:100530006AF3F9DBA8F9B0BAA080F2CE81F3C2F178
:10054000C1F2C3F3CCA2B280F1C6D880BAA7DFDF74
:10055000DFF2A7C3CBC5B6F087A2942448703C95C0
:10056000406834589B78A2F183922D557DD8B1B460
:10057000B8A1D09180F270F370F27C80A8F101B044
:100580009887D943D886C988BAA1F20EB89780F166
:10059000A9DFDFDFAADFDFDFF2AAC5CDC7A90CC95B
:1005A0002C97979797F1A989264666B0B4BA80AC84
:1005B000DEF2CAF1B28C02A9B69800890E161EB8F6
:1005C000A9B4992C547CB08AA896365676F1B9AF66
:1005D000B4B083C0B8A89711B18F98B9AFF0240810
:1005E00044106418F1A329557DAF83B593AFF00093
:1005F0002850F1A3869F61A6DADEDFD9FAA386969A
:10060000DB31A6D9F8DFBAA68FC2C5C7B28CC1B894
:10061000A2DFDFDFA3DFDFDFD8D8F1B8A8B286B46E
:10062000980D355DB8AA98B0872D353DB2B6BAAFF2
:100630008C96198F9FA70E161EB49AB8AA872C54B1
:100640007CB9A3DEDFDFA3B180F2C4CDC9F1B8A9C4
:10065000B499830D355D89B9A32D557DB593A30E4E
:10066000161EA92C547CB8B4B0F19783A81184A5A8
:100670000998A383F0DA240844106418D8F1A52956
:10068000557DA58595021A2E3A565A4048F9F3A38E
:10069000D9F8F098832408441064189782A8F111BF
:1006A000F098A2240844106418DAF3DED883A594E5
:1006B00001D9A302F1A2C3C5C7D8F18492A24DDA31
:1006C0002AD84869D92AD86855DA32D85071D9322F
:1006D000D8705DDA3AD85879D93AD87893A34DDAF8
:1006E0002AD84869D92AD86855DA32D85071D9320F
:1006F000D8705DDA3AD85879D93AD878A88A9AF079
:100700002850789EF38818F19F1D98A8D908D8C85A
:100710009F129EF315A8DA1210D8F1AFC89787344C
:10072000B5B994A421F3D922D8F22DF3D92AD8F25D
:1007300035F3D932D881A4606061D961D86C686919
:10074000D969D8747071D971D8B1A384193D5DA3EA
:10075000831A3E5E931030811011B8B0AF8F94F2BF
:10076000DA3ED8B49AA88729DAF8D8879A35DAF821
:10077000D8879A3DDAF8D8B1B9A49885022E56A543
:1007800081000C14A397B08AF12DD928D84DD948EF
:10079000D86DD968D8B1840DDA0ED8A32983DA2CA4
:1007A0000ED8A3844983DA2C4C0ED8B8B0A88A9A04
:1007B000F520AADADFD8A840AAD0DADED8A860AA45
:1007C000DAD0DFD8F19786A8319B069907AB972836
:1007D000889BF00C201440B8B0B4A88C9CF004287E
:1007E00051791D301438B282ABD0982C50507878A3
:1007F0009BF11AB0F08A9CA82951798B2951798AEA
:100800002470598B2058718A4469388B3940688A22
:100810006448318B304960A58820097158446811BB
:100820003964493019F1AC002C547CF08CA80428B0
:100830005078F1889726A85998AC8C02264666F025
:10084000899CA8295179247059446938644831A990
:100850008809205970AB11384069A8193148608C5B
:10086000A83C415C207C00F187981986A86E767EB2
:10087000A999882D557D9EB9A38A228A6E8A568AA7
:100880005E9FB183062646660E2E4E6E9DB8AD0065
:100890002C547CF2B18CB499B9A32D557D8191ACC7
:1008A00038AD3AB58391AC2DD928D84DD948D86DFB
:1008B000D968D88C9DAE29D904AED851D904AED808
:1008C00079D904D881F39DAD008DAE1981ADD901E0
:1008D000D8F2AEDA26D88E912983A7D9ADADADADC9
:1008E000F32AD8D8F1B0AC89913E5E76F3AC2E2EC7
:1008F000F1B18C5A9CAC2C2828289CAC3018A898B4
:100900008128343C9724A728343C9C24F2B089AC3D
:10091000912C4C6C8A9B2DD9D8D851D9D8D879D95B
:10092000D8D8F19E88A331DAD8D8912DD928D84DBE
:10093000D948D86DD968D8B18393353D8025DAD8A8
:10094000D88569DAD8D8B49381A328343CF3AB8B2B
:10095000F8A391B609B4D9ABDEFAB0879CB9A3DD90
:10096000F1A3A3A3A395F1A3A3A39DF1A3A3A3A381
:10097000F2A3B49080F2A3A3A3A3A3A3A3A3A3A3CE
:10098000B2A3A3A3A3A3A3B087B599F1A3A3A398EC
:10099000F1A3A3A3A397A3A3A3A3F39BA3A3DCB94E
:1009A000A7F1262626D8D8FF000000080002010083
:1009B000000304070000000000000000010204081A
:1009C00010204080010204081020010204081020B9
:1009D00004040404040404040202020202020303E5
:1009E0000303030300000000230026002900000089
:1009F0000000250028002B00000000002400270034
:100A00002A004E414E494E495459494E46CDCCCC10
:100A10003D0AD7233C17B7D13877CC2B329595E6D2
:100A2000241FB14F0A000020410000C84200401CB2
:100A30004620BCBE4CCA1B0E5AAEC59D7400821A1D
:100A4000031E9624C82811241FBECFEFD8E0DEBFB6
:100A5000CDBF12E0A0E0B1E0E0E2FFE602C0059009
:100A60000D92A23AB107D9F726E0A2EAB2E001C09E
:100A70001D92AB34B207E1F71AE0C6E4DAE004C035
:100A80002297FE010E94CA2FCE33D107C9F70E94D8
:100A90000C290C948E370C940000EF92FF920F9368
:100AA0001F93CF93DF9300D0CDB7DEB7062F142F5F
:100AB000682F8DEC94E029833A830E94E31D602F18
:100AC0008DEC94E00E948A1D2981022FE22E3A814A
:100AD000F32E8E2D801B811740F4F70161917F0169
:100AE0008DEC94E00E948A1DF4CF8DEC94E00E947E
:100AF000001E91E0811190E0892F0F900F90DF91FF
:100B0000CF911F910F91FF90EF900895CF93DF93B6
:100B10001F92CDB7DEB749839E012F5F3F4F41E063
:100B20000E944D050F90DF91CF910895DF92EF92D3
:100B3000FF920F931F93CF93DF93C62F042F79015A
:100B4000682F8DEC94E00E94E31D6C2F8DEC94E0F7
:100B50000E948A1D10E0000F111FD12CCD2DD0E076
:100B6000C017D1078CF4CC0FDD1FCE0DDF1D6981BE
:100B70008DEC94E00E948A1D68818DEC94E00E94C7
:100B80008A1DD394D394EACF8DEC94E00E94001E8A
:100B900091E0811190E0892FDF91CF911F910F910A
:100BA000FF90EF90DF900895CF93DF9300D0CDB703
:100BB000DEB75A8349839E012F5F3F4F41E00E9479
:100BC00096050F900F90DF91CF9108953F924F922D
:100BD0005F926F927F928F929F92AF92BF92CF92CD
:100BE000DF92EF92FF920F931F93CF93DF9300D08A
:100BF00000D000D0CDB7DEB7682E562E742E3A83C3
:100C000029830E946F256B017C01312C412C872D9B
:100C100090E09C838B834801A12CB12C3714B0F554
:100C2000662D8DEC94E00E94E31D652D8DEC94E023
:100C30000E948A1D8DEC94E00E94001E662D8DECB2
:100C400094E00E94E31D4B815C81431951094132BC
:100C5000510514F040E250E0662D8DEC94E00E94C6
:100C6000E01D8DEC94E00E94321D892B59F1011595
:100C7000110579F10E946F256C197D098E099F0974
:100C8000681579058A059B0520F11CC00115110521
:100C900089F10E946F256C197D098E099F0920E05A
:100CA00030E0601771078207930720F1872D90E0ED
:100CB000242D332727FD309528173907DCF44424E9
:100CC0004A9418C0872D90E2971508F480E2380EF8
:100CD000A5CFE981FA81E40DF11D47FCFA95FE8369
:100CE000ED838DEC94E00E943A1DED81FE818083BE
:100CF0004394B7CF842D26960FB6F894DEBF0FBE6F
:100D0000CDBFDF91CF911F910F91FF90EF90DF90BA
:100D1000CF90BF90AF909F908F907F906F905F909B
:100D20004F903F9008950F931F9389019A0141E0DE
:100D30000E94E6051F910F910895DF92EF92FF92B6
:100D40000F931F93CF93DF931F92CDB7DEB7D42EAF
:100D500079019801AE014F5F5F4F0E94930661E0F9
:100D600070E001C0660FDA94EAF799819623F701E3
:100D700090830F90DF91CF911F910F91FF90EF9093
:100D8000DF900895CF92DF92EF92FF920F931F931F
:100D9000CF93DF931F92CDB7DEB7C42ED22E97012B
:100DA000AE014F5F5F4F0E9493068823F1F04C2DF8
:100DB00050E04D1951094F5F5F4F61E070E002C094
:100DC000660F771FDA94E2F761507109042E01C0B3
:100DD000660F0A94EAF72981262330E002C0359590
:100DE00027954A95E2F7F80120830F90DF91CF9184
:100DF0001F910F91FF90EF90DF90CF900895EF92A9
:100E0000FF920F931F93CF93DF931F92CDB7DEB75F
:100E1000182F062FF42EE22E20910A0130910B019B
:100E2000AE014F5F5F4F0E949306898121E030E061
:100E30000F2C01C0220F0A94EAF7EE2019F0482F78
:100E4000422B03C0422F409548234983602F812FB6
:100E50000E9486050F90DF91CF911F910F91FF9017
:100E6000EF900895DF92EF92FF920F931F93CF932D
:100E7000DF931F92CDB7DEB7F82EE62ED42E122FB9
:100E800020910A0130910B01AE014F5F5F4F0E942C
:100E90009306882319F14D2D50E0411B51094F5FF6
:100EA0005F4FE1E0F0E002C0EE0FFF1F1A95E2F79E
:100EB0003197042E01C0EE0F0A94EAF701C0000F2B
:100EC0004A95EAF74E2F409589814823E0234E2B1F
:100ED00049836E2D8F2D0E94860501C080E00F9002
:100EE000DF91CF911F910F91FF90EF90DF900895C8
:100EF00028E6FC0120830895462F69E1FC018081EA
:100F00000C9486050F93062F23E045E06AE1FC016F
:100F100080810E9432070F9108950F93062F23E0DE
:100F200042E06AE1FC0180810E9432070F9108953E
:100F30000F93062F22E044E06BE1FC0180810E94C8
:100F400032070F9108950F93062F22E044E06CE1E1
:100F5000FC0180810E9432070F910895462F6FE1B6
:100F6000FC0180810C948605462F60E2FC018081A3
:100F70000C948605462F61E2FC0180810C94860565
:100F8000462F62E2FC0180810C948605643048F4AF
:100F9000262F220F260F2B5D622FFC0180810C94DF
:100FA00086050895462F68E3FC0180810C94860530
:100FB000CF93DF93EC0120910A0130910B01AC013A
:100FC0004F5F5F4F6AE388810E9493068981DF91BA
:100FD000CF910895262F46E06AE6FC0180810C94AB
:100FE000FF06262F45E06AE6FC0180810C94FF068F
:100FF00021E042E06AE6FC0180810C94FF0621E0DA
:1010000041E06AE6FC0180810C94FF0621E047E0A4
:101010006BE6FC0180810C94FF06262F46E06BE610
:10102000FC0180810C94FF060F93062F23E042E021
:101030006BE6FC0180810E9432070F910895CF93E7
:10104000DF93EC0161E00E94140860E0CE010E9491
:10105000980760E0CE010E94A30760E0CE01DF9117
:10106000CF910C940D080F931F93CF93DF93EC0156
:1010700000910A0110910B019C012F5F3F4F42E04C
:1010800062E788810E94E605898190E0982F882791
:101090002A81822BDF91CF911F910F9108950F9399
:1010A0001F939B0100910A0110910B0164E7FC0161
:1010B00080810E94E6051F910F910895EF92FF92A3
:1010C0000F931F93CF93DF93EC01E0900A01F09010
:1010D0000B018C010F5F1F4F26E046E065E788811A
:1010E0000E94C2068981DF91CF911F910F91FF90DD
:1010F000EF9008950E945E0891E0843309F090E03B
:10110000892F08950F931F93CF93DF93EC010091E4
:101110000A0110910B019C012F5F3F4F40E060E0FE
:1011200088810E949D068981DF91CF911F910F9147
:101130000895262F40E060E0FC0180810C94FF06BA
:10114000EF92FF920F931F93CF93DF93EC01E09008
:101150000A01F0900B018C010F5F1F4F26E046E063
:1011600060E088810E94C2068981DF91CF911F9142
:101170000F91FF90EF9008950F93062F26E046E021
:1011800060E0FC0180810E9432070F910895EF9288
:10119000FF920F931F93CF93DF93EC01E0900A012E
:1011A000F0900B018C010F5F1F4F26E046E061E0DD
:1011B00088810E94C2068981DF91CF911F910F9192
:1011C000FF90EF9008950F93062F26E046E061E030
:1011D000FC0180810E9432070F910895EF92FF92E7
:1011E0000F931F93CF93DF93EC01E0900A01F090EF
:1011F0000B018C010F5F1F4F26E046E062E0888103
:101200000E94C2068981DF91CF911F910F91FF90BB
:10121000EF9008950F93062F26E046E062E0FC0170
:1012200080810E9432070F910895AB016AE0FC01B2
:1012300080810C94D405AB0163E1FC0180810C94A6
:10124000D405AB0165E1FC0180810C94D405AB01B0
:1012500067E1FC0180810C94D405262F47E06AE603
:10126000FC0180810C94FF0621E043E06AE6FC016A
:1012700080810C94FF066F712111606241116064DE
:10128000462F6DE6FC0180810C948605462F6EE6A4
:10129000FC0180810C948605CF93DF93EC012091B3
:1012A0000A0130910B01AC014F5F5F4F6FE68881FF
:1012B0000E9493068981DF91CF9108955F926F928A
:1012C0007F928F929F92AF92BF92CF92DF92EF92D6
:1012D000FF920F931F93CF93DF937C015B016A0111
:1012E000622E702E20E040E0662D0E943B09602FA8
:1012F000C7010E944609C0E0D0E0812C9924939454
:10130000CC15DD05A8F5CE014096C816D90618F40F
:101310005C2C5C1A02C0A0E15A2E252D30E0C401DD
:10132000871991098217930714F4572C519400914F
:101330000A0110910B0195012C0F3D1F452D6FE601
:10134000F70180810E94E605C50DD11D750CCC15F5
:10135000DD05B0F6711001C0639420E040E0662D19
:10136000C7010E943B09672DC7010E944609C8CFEB
:10137000DF91CF911F910F91FF90EF90DF90CF9071
:10138000BF90AF909F908F907F906F905F900895E7
:101390002F923F924F925F926F927F928F929F9285
:1013A000AF92BF92CF92DF92EF92FF920F931F9373
:1013B000CF93DF9300D000D01F92CDB7DEB79D83CF
:1013C0008C837B836A834A01322ED02EE98220E00F
:1013D00040E0632D0E943B09602F8C819D810E941B
:1013E0004609E980EE2029F080E190E00E94DD2F9F
:1013F0005C01CC2031F080E190E00E94DD2F582E7E
:10140000492EE12CF12CE814F90408F07AC0C70148
:1014100040968816990618F4282C2E1802C010E160
:10142000212E222D30E080E091E08D199109821764
:10143000930714F42D2C2194EA81FB81EE0DFF1DFE
:10144000CC2059F0852DA52DB42D9A2F981B9215DF
:1014500030F494919D933196F8CF5E2E4F2E252D2A
:10146000342D422D6FE6AC81BD818C910E944D05DB
:10147000622C712CB981BB2369F1A114B10451F123
:1014800020E040E0632D8C819D810E943B096D2D01
:101490008C819D810E94460900910A0110910B01E7
:1014A0009501422D6FE6EC81FD8180810E94E60569
:1014B000A301B501852D942D0E948534892B51F00F
:1014C000C5010E947530CC2049F1852D942D0E94D4
:1014D000753024C0E60CF71CD20CE814F90408F0AF
:1014E00092CFD11001C0339420E040E0632D8C8175
:1014F0009D810E943B096D2D8C819D810E94460932
:1015000082CFF981FF2319F0C5010E947530CC20EC
:1015100039F0852D942D0E94753002C080E001C005
:1015200081E00F900F900F900F900F90DF91CF916F
:101530001F910F91FF90EF90DF90CF90BF90AF90F1
:101540009F908F907F906F905F904F903F902F90E3
:101550000895CF92EF920F93CC24C3940E94C809B0
:101560000F91EF90CF9008952F923F924F925F92FC
:101570006F927F928F929F92AF92BF92CF92DF92A3
:10158000EF92FF920F931F93CF93DF9300D01F92A0
:10159000CDB7DEB74C017B836A833A01D22E22237A
:1015A00031F088E090E00E94DD2F182FF92E212CD9
:1015B000312C2614370408F051C0EA81FB81E20D7A
:1015C000F31DC10103965C01DD20C1F04491F101DE
:1015D00031968A819B81E80FF91F0491F1013296BF
:1015E000E80FF91F5490511044C0F4E02F0E311C45
:1015F000EA81FB81EA0DFB1D84910DC040810181D0
:101600005280EA81FB81E80FF91F51100DC084E080
:10161000280E311C80818130D1F442E368E3F4016B
:1016200080810E948605C5CF1E2FFF2E452C512C90
:10163000C12CEE24E394242FA201612F7F2DC4013D
:101640000E94C80912012A0C3B1C8111B2CFDD2077
:1016500061F0812F9F2D0E94753007C0DD2039F089
:10166000812F9F2D0E94753002C080E024C081E050
:1016700022C0252C312CF2E0F51548F4B101812F60
:101680009F2D49830E940431182FF92E4981812F03
:101690009F2DA0E0B0E02A813B812A0D3B1DA215C1
:1016A000B30520F6F901EA0FFB1F5491FC01519399
:1016B000CF011196F4CF0F900F900F90DF91CF9143
:1016C0001F910F91FF90EF90DF90CF90BF90AF9060
:1016D0009F908F907F906F905F904F903F902F9052
:1016E000089521E00C94B40A462F60E7FC01808144
:1016F0000C948605462F61E7FC0180810C948605D9
:101700001F920F920FB60F9211242F938F939F93D6
:10171000AF93BF9323B1822F817090E04A9B03C0A7
:10172000892B19F00EC0892B61F0809131049091C2
:101730003204A0913304B09134040197A109B10996
:101740000BC08091310490913204A0913304B09188
:1017500034040196A11DB11D80933104909332048D
:10176000A0933304B0933404BF91AF919F918F91B4
:101770002F910F900FBE0F901F9018951F920F92F0
:101780000FB60F9211242F938F939F93AF93BF9314
:1017900023B121FB882780F990E04B9B03C0892B64
:1017A00019F00EC0892B61F08091350490913604B8
:1017B000A0913704B09138040197A109B1090BC079
:1017C0008091350490913604A0913704B09138048B
:1017D0000196A11DB11D8093350490933604A0930A
:1017E0003704B0933804BF91AF919F918F912F919F
:1017F0000F900FBE0F901F90189581E0089580E024
:10180000089580E008959C01FC01EE5FFE4F808109
:101810009181680F791F613041E0740730F4718362
:1018200060830296820F931F089580E090E00895F0
:101830009C01FC01EE57FF4F80819181680F791F59
:101840006138710530F4718360830296820F931FB3
:10185000089580E090E008959C01FC01EE5BFF4F4D
:1018600080819181680F791F6134710530F4718333
:1018700060830296820F931F089580E090E00895A0
:1018800063E271E088EA95E00E94592981E00895B9
:1018900067E171E088EA95E00E94592980E00895A7
:1018A00060915C0170915D010E94C4220E948821B8
:1018B00060934E0181E0089564E671E00E94C422C5
:1018C0000E94882181E0089560915C0170915D0122
:1018D0000E94C4220E94882121E06130710509F034
:1018E00020E02093570181E00895CF93DF93EC012E
:1018F00069E671E00E94C4220E947921609341044C
:101900007093420480934304909344046BE671E027
:10191000CE010E94C4220E94792160933D047093FD
:101920003E0480933F04909340046DE671E0CE0145
:101930000E94C4220E9479216093390470933A0472
:1019400080933B0490933C0481E0DF91CF91089514
:10195000CF93DF93EC016FE671E00E94C4220E94F6
:10196000792161E771E0CE010E94C4220E947921B1
:1019700081E0DF91CF91089560915C0170915D01EC
:101980000E94C4220E94882121E06130710509F083
:1019900020E020935801622F8CE00E94C22681E053
:1019A00008950E946421FC0181E020813181223070
:1019B000310508F480E00895CF93DF93EC0163E7ED
:1019C00071E00E94D10C882319F063E771E009C02F
:1019D00067E771E0CE010E94D10C882339F067E7F8
:1019E00071E0CE010E94C4220E947921DF91CF9143
:1019F0000895CF93DF93EC0160915C0170915D01DC
:101A00000E94C4220E94882121E06130710509F002
:101A100020E02093BC0460915A0170915B01CE01DB
:101A20000E94D10C882369F060915A0170915B018A
:101A3000CE010E94C4220E948821709352016093BB
:101A4000510181E0DF91CF910895CF93DF93EC01B5
:101A500060915C0170915D010E94C4220E94882106
:101A600021E06130710509F020E02093BB04609112
:101A70005A0170915B01CE010E94D10C882369F05C
:101A800060915A0170915B01CE010E94C4220E94B4
:101A90008821709356016093550181E0DF91CF91C9
:101AA00008958F929F92AF92BF92CF92EF920F9331
:101AB0001F93CF93DF93CDB7DEB7C059D1090FB6CF
:101AC000F894DEBF0FBECDBF5C010E9406086EE138
:101AD00070E080E090E00E949E2560E0C5010E94D9
:101AE0000D0821E041E060E1C5010E943B0966E08C
:101AF000C5010E944609C5010E944C0920E040E052
:101B000060E0C5010E943B09C5010E948208C50131
:101B10000E94A008182FC5010E94C708882EC50181
:101B20000E94EE08982E4FE760E0C5010E94C607AC
:101B300060E0C5010E94F10748E660E0C5010E942F
:101B4000C607C5010E94FF0764E170E080E090E0F5
:101B50000E949E25EE24E39400E020E049E857E04F
:101B60006FE172E0C5010E94A90A882309F40EC240
:101B700040EC50E06FE571E0C5010E94710B8823D5
:101B800009F406C263E0C5010E94140862E1C501C0
:101B90000E94D20764E0C5010E947C0761E0C50194
:101BA0000E94820763E0C5010E948D0763E0C501C2
:101BB0000E94980763E0C5010E94740B60E0C501B4
:101BC0000E947A0B60E0C5010E949908612FC5014F
:101BD0000E94BC08682DC5010E94E308692DC5015B
:101BE0000E940A09812C912CF401E05DFE4FE491E2
:101BF000A1E8B0E0AC0FBD1FA80DB11DEC9381E0D2
:101C0000880D9FEF891A990AE3E0E81568F7CD5728
:101C1000DF4F4881C358D04050E09A012E5F3F4FBC
:101C200090E02817390704F7C12CEE24E394CE572F
:101C3000DF4F0881C258D040CF57DF4F2881C158AD
:101C4000D04061E870E06C0F7D1F6D5F7F4FC50174
:101C50000E94C80960E0F401E05DFE4FE491A1E854
:101C6000B0E0AC0FBD1FA60FB11DEC936F5FFFEF8F
:101C70008F1A9F0A643078F3CD57DF4F4881C358DD
:101C8000D04050E09A012E5F3F4F862F90E02817FA
:101C900039070CF7C12CEE24E394CE57DF4F0881AF
:101CA000C258D040CF57DF4F2881C158D04061E89B
:101CB00070E06C0F7D1F6D5F7F4FC5010E94C809EA
:101CC000C5010E94F807C5010E943308482FBE01D4
:101CD0006F5F7F4FC5010E944F0862E0C5010E94FF
:101CE000AE076CE9C5010E94BA0760E5C5010E9414
:101CF000B40760E0C5010E94C007C5010E94F80753
:101D000061E0C5010E94EA0761E0C5010E942D095A
:101D1000C5010E94340960E0F401E05DFE4FE491EA
:101D2000A1E8B0E0AC0FBD1FA60FB11DEC936F5F33
:101D30008FEF881A980A643078F3CD57DF4F4881C7
:101D4000C358D04050E09A012E5F3F4F862F90E05D
:101D5000281739070CF7C12CEE24E394CE57DF4F38
:101D60000881C258D040CF57DF4F2881C158D0409A
:101D700061E870E06C0F7D1F6D5F7F4FC5010E94B1
:101D8000C80960E0F401E05DFE4FE491A1E8B0E035
:101D9000AC0FBD1FA60FB11DEC936F5F9FEF891AAB
:101DA000990A643078F3CD57DF4F4881C358D0404B
:101DB00050E09A012E5F3F4F862F90E02817390799
:101DC0000CF7C12CEE24E394CE57DF4F0881C258A4
:101DD000D040CF57DF4F2881C158D04061E870E034
:101DE0006C0F7D1F6D5F7F4FC5010E94C80960E0C9
:101DF000F401E05DFE4FE491A1E8B0E0AC0FBD1F3F
:101E0000A60FB11DEC936F5FEFEF8E1A9E0A643040
:101E100078F3CD57DF4F4881C358D04050E09A0146
:101E20002E5F3F4F862F90E0281739070CF7C12C03
:101E3000EE24E394CE57DF4F0881C258D040CF57ED
:101E4000DF4F2881C158D04061E870E06C0F7D1FE2
:101E50006D5F7F4FC5010E94C809C5010E9433080C
:101E600083309105D0F3482FBE016F5F7F4FC501CE
:101E70000E944F08C5010E94D80760E0F401E05DB0
:101E8000FE4FE491A1E8B0E0AC0FBD1FA60FB11D5D
:101E9000EC936F5FFFEF8F1A9F0A643078F3CD5792
:101EA000DF4F4881C358D04050E09A012E5F3F4F2A
:101EB000862F90E0281739070CF7CE57DF4F08819F
:101EC000C258D040CF57DF4F2881C158D04061E879
:101ED00070E06C0F7D1F6D5F7F4FC5010E945E0932
:101EE000C5010E94330883309105D0F3482FBE010D
:101EF0006F5F7F4FC5010E944F08C5010E94D80740
:101F0000F401E05DFE4F60E08491A1E8B0E0AC0F29
:101F1000BD1FA60FB11D8C936F5F643010F4319616
:101F2000F3CFCD57DF4F4881C358D04050E09A01DE
:101F30002E5F3F4F862F90E02817390784F761E81E
:101F400070E06C0F7D1F6D5F7F4FC12CEE24E3941A
:101F5000CE57DF4F0881C258D040CF57DF4F28817E
:101F6000C158D040C5010E94C80960E0C5010E9467
:101F70002D098AE290E0F50193838283C5010E94D6
:101F8000F807C5010E94D80780E003C081E001C0C6
:101F900082E0C057DF4F0FB6F894DEBF0FBECDBF53
:101FA000DF91CF911F910F91EF90CF90BF90AF90A5
:101FB0009F908F900895CF93DF93DB01FA013097C4
:101FC00019F4EC01E881F981808190E0982F88274D
:101FD0002181820F911D11969C938E93848190E0B4
:101FE000982F88272581820F911D13969C938E939D
:101FF0001297808590E0982F88272185820F911D68
:1020000015969C938E931497848590E0982F88273B
:102010002585820F911D17969C938E93169780E0CD
:10202000DF91CF910895FF920F931F93CF93DF938A
:10203000CDB7DEB728970FB6F894DEBF0FBECDBF81
:102040008B01BE016F5F7F4F0E94DB0FF82E811165
:102050004CC069817A81882777FD8095982F0E94EE
:10206000DC2C20E030E040E858E30E94062EF80126
:1020700060837183828393836B817C81882777FD62
:102080008095982F0E94DC2C20E030E040E858E357
:102090000E94062EF80164837583868397836D8181
:1020A0007E81882777FD8095982F0E94DC2C20E088
:1020B00030E040E858E30E94062EF80160877187FF
:1020C000828793876F817885882777FD8095982F01
:1020D0000E94DC2C20E030E040E858E30E94062E0D
:1020E000F80164877587868797878F2D28960FB6A6
:1020F000F894DEBF0FBECDBFDF91CF911F910F913E
:10210000FF9008954F925F926F927F928F929F926D
:10211000AF92BF92CF92DF92EF92FF920F931F93F5
:10212000CF93DF93CDB7DEB728970FB6F894DEBF15
:102130000FBECDBF8B01DA011496CD90DD90ED90EE
:10214000FC9017971C964D905D906D907C901F971A
:102150008D909D90AD90BC90139718968D919D9108
:102160000D90BC91A02D89839A83AB83BC83A3017E
:102170009201C701B6010E94062E6D837E838F8374
:10218000988729813A814B815C81C501B4010E9405
:10219000062E9B01AC016D817E818F8198850E9406
:1021A000732B9B01AC010E94742BF8016083718337
:1021B00082839383A7019601C501B4010E94062E74
:1021C0006D837E838F839887A301920169817A81D1
:1021D0008B819C810E94062E9B01AC016D817E81CA
:1021E0008F8198850E94742B9B01AC010E94742BF7
:1021F000D80114966D937D938D939C931797A501A9
:102200009401C501B4010E94062E4B015C01A70197
:102210009601C701B6010E94062E9B01AC01C501C3
:10222000B4010E94732B6B017C0129813A814B819F
:102230005C81CA01B9010E94062E9B01AC01C70155
:10224000B6010E94732B6B017C01A3019201C301B3
:10225000B2010E94062E9B01AC01C701B6010E948B
:10226000742BF801608771878287938780E02896B6
:102270000FB6F894DEBF0FBECDBFDF91CF911F9197
:102280000F91FF90EF90DF90CF90BF90AF909F9015
:102290008F907F906F905F904F9008952F923F9214
:1022A0004F925F926F927F928F929F92AF92BF9266
:1022B000CF92DF92EF92FF920F931F93CF93DF9312
:1022C00000D000D000D0CDB7DEB71B018A013E831D
:1022D0002D83FA01C080D180E280F380A7019601AE
:1022E000C701B6010E94742B69837A838B839C8318
:1022F000F80184809580A680B780A5019401C5016E
:10230000B4010E94742B2B013C01A7019601698145
:102310007A818B819C810E94062E6B017C01A50134
:102320009401C301B2010E94062E9B01AC01C701BA
:10233000B6010E94742B20E030E040E85FE30E9489
:10234000732B6B017C01F801208531854285538513
:10235000C301B2010E94062E2B013C01F801248525
:1023600035854685578569817A818B819C810E945C
:10237000062E9B01AC01C301B2010E94732BA70181
:1023800096010E94E72BF10160837183828393831E
:10239000ED81FE816481758186819781C084D184BD
:1023A000E284F3849B01AC010E94062E4B015C0188
:1023B000A7019601C701B6010E94062E9B01AC0140
:1023C000C501B4010E94742B0E94732E9B01AC01C5
:1023D000ED81FE8160817181828193810E94412C17
:1023E0000E94122CF1016483758386839783ED81AB
:1023F000FE816081718182819381C084D184E28475
:10240000F3849B01AC010E94062E4B015C01A701E5
:102410009601C701B6010E94062E9B01AC01C501C1
:10242000B4010E94742B0E94732E9B01AC01ED81BC
:10243000FE8164817581868197810E94412C0E9472
:10244000122CF101608771878287938780E026963E
:102450000FB6F894DEBF0FBECDBFDF91CF911F91B5
:102460000F91FF90EF90DF90CF90BF90AF909F9033
:102470008F907F906F905F904F903F902F90089536
:10248000DC0118962C9118971796EC912223A1F055
:10249000B4E0EB9FF0011124EF5CFB4F8081918150
:1024A000A281B3819C01AD0166277727CB01621B16
:1024B000730B840B950B089534E0E39FF001112416
:1024C000EF5CFB4F608171818281938108953F921F
:1024D0004F925F926F927F928F929F92AF92BF9234
:1024E000CF92DF92EF92FF920F931F93CF93DF93E0
:1024F0004C01EB01FC01808577FD02C0382E03C042
:1025000033243394382680914E012E01D7FF04C026
:10251000442455244C1A5D0A662457FC6094762C9A
:10252000FFEF8F9FC001112464E670E00E94DD2E52
:10253000CB01AA2797FDA095BA2FBF93AF939F9386
:102540008F93A12CB12C650114E6E12EF12C00E053
:1025500010E020E030E0A901C301B2010E942B2B62
:102560002B013C01632DF40185810E94C226B2013A
:10257000F40184810E940126BE01882777FD8095A1
:10258000982F0E94DC2CF401658F768F878F90A3A3
:102590000F900F900F900F90DF91CF911F910F919F
:1025A000FF90EF90DF90CF90BF90AF909F908F9073
:1025B0007F906F905F904F903F900895CF93DF93FF
:1025C000EC0160E070E00E946712198E1A8E1B8E7B
:1025D0001C8E198A1A8A1B8A1C8A1D8E1E8E1F8EBB
:1025E00018A21DA21EA21FA218A619A21AA21BA2FF
:1025F0001CA2EF811D861E861F86188A84E0E89F34
:10260000F0011124EF5CFB4F1082118212821382C1
:10261000DF91CF910895CF92EF92FF920F931F9386
:10262000CF93DF93EC01F42E122F1B8243E050E096
:102630000E94AB34FC821D830E83EF82C88680919A
:102640005801882341F061E08F2D0E94892661E0C6
:10265000812F0E948926CE01DF91CF911F910F918A
:10266000FF90EF90CF900C94DE12CF93DF93EC01AC
:102670008BED93E00E94DE128AEA93E00E94DE1264
:102680001092BD041092BE041092BF041092C004B8
:102690001092C1041092C2041092C3041092C40498
:1026A0001092C5041092C6041092C7041092C80478
:1026B0001092C9041092CA041092CB041092CC0458
:1026C00061E771E0CE010E94D10C882379F061E7C7
:1026D00071E0CE010E94C4220E9479216093C90456
:1026E0007093CA048093CB049093CC046FE671E09E
:1026F000CE010E94D10C882379F06FE671E0CE0103
:102700000E94C4220E9479216093C5047093C6047C
:102710008093C7049093C8046BE771E0CE010E94D8
:10272000D10C8823A9F06BE771E0CE010E94C4228E
:102730000E94792125E33AEF4EE85CE30E94062EE1
:102740006093C1047093C2048093C3049093C40443
:102750008091450490914604A0914704B0914804AB
:102760008093BD049093BE04A093BF04B093C004B3
:1027700081E0DF91CF910895CF93DF93EC018091B9
:102780005801882391F160915C0170915D01CE0147
:102790000E94C4220E9488216C397F4FBCF0609156
:1027A0005C0170915D01CE010E94C4220E948821CB
:1027B0006536710574F460915C0170915D01CE0124
:1027C0000E94C4220E948821EB0105C0CCE9DFEF02
:1027D00002C0C4E6D0E0BE018BED93E00E94671218
:1027E000BE018AEA93E00E94671281E0DF91CF91F7
:1027F00008952F923F924F925F926F927F928F92A5
:102800009F92AF92BF92CF92DF92EF92FF920F937F
:102810001F93CF93DF9300D000D0CDB7DEB71C015C
:102820002A013B014801590120E030E0A901C7011C
:10283000B6010E94FB2D18160CF08CC0A501940166
:10284000C301B2010E94732B4B015C01A7019601E9
:102850000E94062EF10125A136A147A150A50E9494
:10286000742B2B013C01F10165A376A387A390A7EC
:1028700021A532A543A554A5C501B4010E94732B1F
:10288000A70196010E94412C6B017C01F10161A717
:1028900072A783A794A720914104309142044091EC
:1028A000430450914404C501B4010E94062E69837B
:1028B0007A838B839C8320913D0430913E04409128
:1028C0003F0450914004C301B2010E94062E9B01B7
:1028D000AC0169817A818B819C810E94742B2B01D0
:1028E0003C012091390430913A0440913B045091CD
:1028F0003C04C701B6010E94062E9B01AC01C30136
:10290000B2010E94742B6B017C0120E030E048ECA6
:1029100052E40E94FB2D18168CF020E030E048ECC9
:1029200052ECC701B6010E943A2C87FF0DC0C12CA2
:10293000D12C68ECE62E62ECF62E06C0C12CD12C10
:1029400058ECE52E52E4F52EF10181A292A2A3A249
:10295000B4A203C0C12CD12C7601C701B6010F90DF
:102960000F900F900F90DF91CF911F910F91FF90DB
:10297000EF90DF90CF90BF90AF909F908F907F901F
:102980006F905F904F903F902F9008958F929F92FD
:10299000AF92BF92CF92DF92EF92FF920F931F936D
:1029A000CF93DF93EC010E946F250E94DA2C4B013C
:1029B0005C0160912D0470912E0480912F04909100
:1029C00030040E94DC2C9B01AC01C501B4010E94C3
:1029D000732B20E030E04AE754E40E94412C6B0165
:1029E0007C01C501B4010E94A92C60932D04709351
:1029F0002E0480932F0490933004CE010E94401245
:102A00008D849E84AF84B888681979098A099B09E6
:102A10000E94DA2C2091290430912A0440912B0441
:102A200050912C040E94062E698F7A8F8B8F9C8F79
:102A30008D8C9E8CAF8CB8A095018401B501A4014A
:102A4000CE010E94F9139B01AC01C501B4010E94A3
:102A5000742B0E94A92CCE01DF91CF911F910F9171
:102A6000FF90EF90DF90CF90BF90AF909F908F90AE
:102A70000C946712109235041092360410923704A9
:102A800010923804109231041092320410923304E0
:102A90001092340462E082E00E94892662E083E0C2
:102AA0000E94892662E088E00E94892662E089E02F
:102AB0000E94892641E050E060E87BE080E00E94CF
:102AC000AB2441E050E06EEB7BE081E00E94AB2460
:102AD00080915801882341F161E085E00E948926B8
:102AE00060E085E00E94C22661E086E00E948926BF
:102AF00060E086E00E94C22661E08BE00E948926A9
:102B000060E08BE00E94C22661E081E10E9489269C
:102B100060E081E10E94C2268BED93E00E94DE120C
:102B20008AEA93E00C94DE120895EF92FF920F93DD
:102B30001F93CF93DF937C010EE011E0C0E0D0E063
:102B40006DE771E0C7010E94C4220E946D21BC01A3
:102B5000F801808191810E94A2340C5F1F4F892B64
:102B600081F4CC0FDD1FCC0FDD1FC25FDE4FEA8189
:102B7000FB81C701DF91CF911F910F91FF90EF90E3
:102B800009942196C031D105D9F680E0DF91CF912B
:102B90001F910F91FF90EF9008958C01C0E0D0E05D
:102BA000C017D107B4F461E08DE00E94C22668EC42
:102BB00070E080E090E00E949E2560E08DE00E9441
:102BC000C22668EC70E080E090E00E949E2521968D
:102BD000E7CF60E273E080E090E00E949E25DECFC8
:102BE00026E040E052EC61E070E088EA95E00E9467
:102BF00004286BEF70E088EA95E00E94592961E0B3
:102C00008DE00E94892661E08CE00E94892662E0C6
:102C100084E00E94892660E08DE00E94C22660E088
:102C20008CE00E94C2266DEE70E088EA95E00E947A
:102C300059290E943A1580915901882309F48DC0C1
:102C40006CED70E088EA95E00E9459298DEC94E0E3
:102C50000E94C91D88E18093B80062E087E00E946D
:102C600089268CE094E00E941F0864E170E080E017
:102C700090E00E949E258CE094E00E947A088CE00F
:102C800094E00E94510D8093B10464E170E080E013
:102C900090E00E949E258091B104811146C061E0C0
:102CA0008CE094E00E942D0964E170E080E090E007
:102CB0000E949E258CE094E00E94D8078093B20485
:102CC0006FEC70E088EA95E00E94592980910E042B
:102CD00090910F049093B0048093AF046CED70E07A
:102CE0008CE094E00E941B096CE470E08CE094E0BE
:102CF0000E9421096BEA7FEF8CE094E00E94270993
:102D00006CEF76E08CE094E00E9415090E946F253C
:102D1000605D7A488F4F9F4F6093A3027093A40227
:102D20008093A5029093A60218C06DEB70E088EA2C
:102D300095E00E9459294AE050E06091B10488EA88
:102D400095E00E94372A61E871E088EA95E00E94E8
:102D50007E2983E090E00E94CD158CE390E0909373
:102D6000200480931F0480E090E0AFE2B3E48093FE
:102D7000210490932204A0932304B093240480E0C0
:102D800090E0ACE5B3E48093250490932604A093EF
:102D90002704B093280482E192E8AFEDBDE380936D
:102DA000290490932A04A0932B04B0932C0464EB81
:102DB00070E088EA95E00E94592960916001709165
:102DC000610188EA95E00E947E2960915E01709120
:102DD0005F0188EA95E00C947E294F925F926F9292
:102DE0007F928F929F92AF92BF92CF92DF92EF929B
:102DF000FF921F93CF93DF93CDB7DEB760970FB6E7
:102E0000F894DEBF0FBECDBF8BED93E00E94401261
:102E10006D837E838F8398878AEA93E00E944012B5
:102E200069877A878B879C878091E8039091E90373
:102E3000A091EA03B091EB038D809E80AF80B884AF
:102E4000881A990AAA0ABB0A8091B7039091B8031D
:102E5000A091B903B091BA0349845A846B847C84ED
:102E6000481A590A6A0A7B0A8091450490914604DF
:102E7000A0914704B09148048D879E87AF87B88B97
:102E80002091BD043091BE044091BF045091C00414
:102E9000BC01CD010E94732B69837A838B839C8351
:102EA00021EE3EE245E652E40E94062E6B017C01D3
:102EB00020E030E0A9010E94FB2D18166CF411E00F
:102EC0002DEC3CEC4CEC5DE3C701B6010E94FB2D00
:102ED000181674F010E00CC02DEC3CEC4CEC5DEBE3
:102EE000C701B6010E943A2C182F111F1127111F7C
:102EF000C501B401640D751D861D971D0E94DC2C53
:102F00002091290430912A0440912B0450912C04E3
:102F10000E94062E20E030E040E05FE30E94062E93
:102F20006B017C0120E030E0A9010E94FB2D181606
:102F30005CF42AE037ED43E25CE3C701B6010E948E
:102F4000FB2D181654F00AC02AE037ED43E25CEB83
:102F5000C701B6010E943A2C87FD11E08090C104A0
:102F60009090C204A090C304B090C40420E030E06C
:102F700040E05FE369817A818B819C810E94062E0B
:102F80009B01AC01C501B4010E94742B2B013C01D3
:102F90000E94692E9B01AC01C701B6010E94062E5A
:102FA0009B01AC016091C9047091CA048091CB046B
:102FB0009091CC040E94742B6093C9047093CA044E
:102FC0008093CB049093CC04C301B2010E943E2CA9
:102FD0009B01AC01C701B6010E94062E9B01AC010A
:102FE0006091C5047091C6048091C7049091C80493
:102FF0000E94742B6093C5047093C6048093C70429
:103000009093C80429813A814B815C81C501B40148
:103010000E94742B6B017C0120E030E0A9010E942A
:103020003A2C87FD09C0C092C104D092C204E0923C
:10303000C304F092C40410C02BED3FE049EC50E40F
:10304000C701B6010E94742B6093C1047093C2043F
:103050008093C3049093C404C090C104D090C20470
:10306000E090C304F090C4042BED3FE049EC50E441
:10307000C701B6010E94FB2D87FD10C02BED3FE07C
:1030800049EC50E4C701B6010E94732B6093C10460
:103090007093C2048093C3049093C4048D859E856D
:1030A000AF85B8898093BD049093BE04A093BF04FC
:1030B000B093C0048D819E81AF81B8858093E80371
:1030C0009093E903A093EA03B093EB0389859A8573
:1030D000AB85BC858093B7039093B803A093B903E5
:1030E000B093BA03812F60960FB6F894DEBF0FBE7F
:1030F000CDBFDF91CF911F91FF90EF90DF90CF90E8
:10310000BF90AF909F908F907F906F905F904F9007
:103110000895CF93DF9300D000D0CDB7DEB77A8388
:1031200069831C821B82BE016F5F7F4F0E945F22FA
:103130008B819C810F900F900F900F90DF91CF911A
:103140000895CF92DF92EF92FF920F931F93CF9348
:10315000DF93CDB7DEB7C454D1090FB6F894DEBF04
:103160000FBECDBF86E492E09A83898325961FAE79
:103170001EAE2597CE0101960E9431218C01E09070
:103180006001F090610160916201709163010E94A1
:10319000C422B7010E94A22164E871E0C8010E9424
:1031A000C42266E871E00E94A22120E030E04AE7F4
:1031B00054E46091C9047091CA048091CB04909149
:1031C000CC040E94412C6B017C0161E771E0C801D5
:1031D0000E94C42224E0B701A6010E94AE2120E093
:1031E00030E04AE754E46091C5047091C6048091D0
:1031F000C7049091C8040E94412C6B017C016FE6CA
:1032000071E0C8010E94C42224E0B701A6010E9417
:10321000AE2121EE3EE245E652E46091C104709198
:10322000C2048091C3049091C4040E94062E6B01D5
:103230007C016BE771E0C8010E94C42222E0B70163
:10324000A6010E94AE2168EA75E0C8010E948918B3
:1032500060915E0170915F0188EA95E00E947E298D
:10326000CC5BDF4F0FB6F894DEBF0FBECDBFDF9152
:10327000CF911F910F91FF90EF90DF90CF90089525
:10328000CF92DF92EF92FF920F931F93CF93DF9332
:10329000CDB7DEB7C458D1090FB6F894DEBF0FBE64
:1032A000CDBF8CE492E09A838983CD57DF4F19829A
:1032B0001882C358D040CE0101960E9431218C0162
:1032C000E0906001F0906101609162017091630192
:1032D0000E94C422B7010E94A22164E871E0C801E3
:1032E0000E94C4226BE871E00E94A221C090F0030A
:1032F000D090F103E090F203F090F30365E971E000
:10330000C8010E94C42222E0B701A6010E94AE219A
:10331000C090F403D090F503E090F603F090F7032B
:1033200068E971E0C8010E94C42222E0B701A60149
:103330000E94AE21C090FC03D090FD03E090FE03FC
:10334000F090FF036BE971E0C8010E94C42222E003
:10335000B701A6010E94AE2168EA75E0C8010E948B
:10336000891860915E0170915F0188EA95E00E9482
:103370007E29CC57DF4F0FB6F894DEBF0FBECDBF0E
:10338000DF91CF911F910F91FF90EF90DF90CF9041
:103390000895DF92EF92FF920F931F93CF93DF93E5
:1033A000CDB7DEB7C454D1090FB6F894DEBF0FBE57
:1033B000CDBFD82E26E432E03A83298325961FAE6E
:1033C0001EAE2597CE0101960E9431218C01E0901E
:1033D0006001F090610160916201709163010E944F
:1033E000C422B7010E94A22164E871E0C8010E94D2
:1033F000C4226EE971E00E94A22160915C0170918B
:103400005D01C8010E94C4224D2D50E060E070E0D3
:103410000E94BD2168EA75E0C8010E948918609188
:103420005E0170915F0188EA95E00E947E29CC5B85
:10343000DF4F0FB6F894DEBF0FBECDBFDF91CF9147
:103440001F910F91FF90EF90DF900895CF92DF9240
:10345000EF92FF920F931F93CF93DF93CDB7DEB719
:10346000C458D1090FB6F894DEBF0FBECDBF7C01A2
:103470008CE492E09A838983CD57DF4F19821882BA
:10348000C358D040CE0101960E9431218C01C090DA
:103490006001D090610160916201709163010E94AE
:1034A000C422B6010E94A22164E871E0C8010E9412
:1034B000C4226EEA71E00E94A22162EB71E0C801B1
:1034C0000E94C422B7010E94A22168EA75E0C801E7
:1034D0000E94891860915E0170915F0188EA95E011
:1034E0000E947E29CC57DF4F0FB6F894DEBF0FBE87
:1034F000CDBFDF91CF911F910F91FF90EF90DF90A3
:10350000CF900895CF92EF920F9380E090E0A0E8E3
:10351000BFE380935D0490935E04A0935F04B09337
:10352000600410926104109262041092630410927D
:10353000640410926504109266041092670410925D
:1035400068041092690410926A0410926B0410923D
:103550006C04109251041092520410925304109271
:10356000540410925504109256041092570410926D
:1035700058041092590410925A0410925B0410924D
:103580005C048CE094E00E947807C12CE12C00E1FF
:103590002BE045E066EB71E08BED93E00E940B13AE
:1035A000CC24C394EE24E3940FE021E146E069EBE0
:1035B00071E08AEA93E00E940B130F91EF90CF9095
:1035C00008950F931F93CF93DF93CDB7DEB7C45405
:1035D000D1400FB6F894DEBF0FBECDBF88EA95E0AC
:1035E0000E942127892B09F47FC088EA95E00E9478
:1035F0003A278D3009F478C02091A8033091A903AF
:103600008A3009F05FC0C90101969093A9038093A5
:10361000A803F901E855FD4F108282E592E09A83F4
:103620008983CD5FDE4F19821882C350D1404AE0B2
:1036300068EA72E0CE0101960E947E248C0164E863
:1036400071E00E94D10C64E871E0882379F0C80130
:103650000E94C4220E946D216DE771E00E94A23495
:10366000892B09F5C8010E9495151DC0C8010E944B
:10367000C4220E946D219F938F938CEB91E09F93C6
:103680008F938E010B5F1E4F1F930F930E94BA34CE
:10369000B80188EA95E00E947E290F900F900F9064
:1036A0000F900F900F904091A8035091A90360E0F4
:1036B00070E088EA92E00E949B341092A903109275
:1036C000A80312C0A9014F5F5F4F5093A903409315
:1036D000A803F901E855FD4F80834115514020F0C2
:1036E00084E090E00E94CD15CC5BDE4F0FB6F894DD
:1036F000DEBF0FBECDBFDF91CF911F910F91089517
:10370000AF92BF92CF92DF92EF92FF920F931F93EF
:10371000CF93DF9300914F0110915001B091B3040A
:10372000A091B404F091B504E091B6049091B7046F
:103730008091B8045801C12CD12CE12CF12C00E06F
:1037400010E02B2F3A2F4F2F5E2F692F782F80916B
:10375000B9049091BA040E943D2FA0E00E94A82FC6
:10376000A1F40E946F250091A3021091A402209160
:10377000A5023091A602061717072807390728F473
:103780008091A202882309F407C10E94E11A809166
:103790005701882329F18091A70281111BC089B1AB
:1037A00082958170C82F30E0D32F80910C019091C9
:1037B0000D01C817D907A1F0D0930D01C0930C01DA
:1037C00084E18093A70281E0CD2B09F080E00E9484
:1037D000C91906C081508093A70287FD1092A702E5
:1037E00080915801882349F18091530190915401AF
:1037F0002091B3043091B4044091B5045091B604C3
:103800006091B7047091B8045C01C12CD12CE12CFB
:10381000F12C00E010E08091B9049091BA040E946C
:103820003D2FA0E00E94A82F41F48BED93E00E9471
:10383000C6148AEA93E00E94C614809155019091C3
:1038400056012091B3043091B4044091B5045091D5
:10385000B6046091B7047091B8045C01C12CD12CFE
:10386000E12CF12C00E010E08091B9049091BA04B1
:103870000E943D2FA0E00E94A82F49F40E94ED165F
:10388000882329F08091BB0481110E94A1188091A6
:103890005101909152012091B3043091B4044091B0
:1038A000B5045091B6046091B7047091B8045C01FE
:1038B000C12CD12CE12CF12C00E010E08091B90456
:1038C0009091BA040E943D2FA0E00E94A82F81F49D
:1038D0008DE00E94F82661E0892B09F060E08DE020
:1038E0000E94C2268091BC04882311F01D998EC0CD
:1038F00080915901882311F14F9B20C08CE094E006
:103900000E94D8078093B2048CE094E00E943308B0
:103910009093AE048093AD042091B20424FD04C0C2
:103920008115944009F075C08CE094E00E94F8077E
:103930006FEC71E088EA95E00E947E292091B30443
:103940003091B4044091B5045091B6046091B7042D
:103950007091B8048091B9049091BA04A1E00E94DA
:103960009C2F2093B3043093B4044093B504509338
:10397000B6046093B7047093B8048093B90490932D
:10398000BA04DF91CF911F910F91FF90EF90DF90DC
:10399000CF90BF90AF90089511E01093A2028BEDED
:1039A00093E00E94DE128AEA93E00E94DE121092F7
:1039B000C1041092C2041092C3041092C404109265
:1039C000C5041092C6041092C7041092C804109245
:1039D000C9041092CA041092CB041092CC048091B6
:1039E000450490914604A0914704B0914804809307
:1039F000BD049093BE04A093BF04B093C004109381
:103A0000BB048CED91E00E94261ABFCE0E944019A3
:103A10006FCF21FF93CF4091AF046DE674E08CE04F
:103A200094E00E944F084DE654E06DE574E08CE0B0
:103A300094E00E9413104DE554E061E574E08CE0E1
:103A400094E00E94821021E534E04DE554E065E405
:103A500074E08CE094E00E944E118CE094E00E94AF
:103A6000F8076CCF8091FD0490E02091FE04821B4A
:103A7000910908952091FE048091FD04281750F4C7
:103A8000E22FF0E0E150FB4F808190E02F5F209328
:103A9000FE0408958FEF9FEF0895E091FE0480915A
:103AA000FD04E81730F4F0E0E150FB4F808190E036
:103AB00008958FEF9FEF08950895CF92DF92EF92D0
:103AC000FF920F931F93CF93DF937C01CB018A0169
:103AD0002091D904222389F0EB016B01C40ED51E7D
:103AE000CC15DD0569F06991D701ED91FC9101904C
:103AF000F081E02DC7010995F3CF642F0E94BC1E11
:103B0000C801DF91CF911F910F91FF90EF90DF904F
:103B1000CF900895CF93DF931F92CDB7DEB769831F
:103B20002091D9042223D1F02091DA04203240F0F0
:103B300021E030E0FC013383228380E090E015C077
:103B40008091DB04E82FF0E0E452FB4F99819083F1
:103B50008F5F8093DB048093DA0405C061E0CE01BF
:103B600001960E94BC1E81E090E00F90DF91CF9102
:103B70000895FC011382128248EE53E060E070E089
:103B8000448355836683778388E592E091838083BD
:103B900008951092FE041092FD041092DB0410921E
:103BA000DA040C94071E862F413208F040E26FEFD2
:103BB00074E00E94251E1092FE048093FD04089577
:103BC00021E00C94D31D81E08093D9046093FC0420
:103BD0001092DB041092DA0408950F93062F21E06F
:103BE0004091DA046CED74E08091FC040E94691E3F
:103BF0001092DB041092DA041092D9040F91089508
:103C000061E00C94ED1D8DEC94E00C94B91D1092C4
:103C10008C0581E080938A051092890561E082E13C
:103C20000E94C22661E083E10E94C226E9EBF0E037
:103C300080818E7F808380818D7F808388E48093E4
:103C4000B80085E48093BC000895413208F03FC07D
:103C500090918C059111FCCF91E090938C0520936D
:103C60008A052FEF20931F0510926405240F2093DF
:103C7000630590938B0590918B05880F892B80931A
:103C80008B0580918905813041F4109289058091DE
:103C90008B058093BB0085EC01C085EE8093BC0052
:103CA00080918C058130E1F380916405841710F4D4
:103CB0004091640525E635E0FB01D9018A2F821B7E
:103CC000841718F48D918193F9CF842F089580E0A3
:103CD00008950F93413208F046C090918C059111E0
:103CE000FCCF92E090938C0500938A059FEF909310
:103CF0001F051092640540936305FB0165E675E0BE
:103D0000DB019A2F961B941718F491919D93F9CF8C
:103D100010928B0590918B05880F892B80938B05D2
:103D200080918905813041F41092890580918B053D
:103D30008093BB0085EC01C085EE8093BC002223FC
:103D400021F080918C058230E1F380911F058F3F37
:103D500061F080911F05803251F080911F05803302
:103D600041F483E007C081E005C080E003C082E049
:103D700001C084E00F910895613298F420918C0580
:103D8000243089F460934105FC0183E495E0DC0173
:103D90002A2F281B261718F421912D93F9CF80E0A4
:103DA000089581E0089582E0089585ED8093BC0038
:103DB0008091BC0084FDFCCF10928C05089585ECA9
:103DC0008093BC0010928C0508951F920F920FB63D
:103DD0000F9211242F933F934F935F936F937F9391
:103DE0008F939F93AF93BF93EF93FF938091B9000D
:103DF000887F803609F49CC068F5883209F45BC07E
:103E000090F4803109F454C038F4882309F4F5C0E3
:103E1000883009F44DC0F5C0883109F44CC08032B7
:103E200009F45DC0EEC0803409F468C048F4803302
:103E300009F455C0883309F0E4C080931F05A8C079
:103E4000803509F44FC0883509F45DC0883409F025
:103E5000D8C0D5C0883909F4C6C0A8F4883709F499
:103E600067C038F4883609F463C0803709F460C04D
:103E7000C8C0883809F4B7C0803909F45FC08038F9
:103E800009F0BFC05BC0803B09F485C038F4803ABC
:103E900009F466C0883A09F47EC0B3C0803C09F4D6
:103EA000A6C0883C09F4A3C0883B09F489C0A9C016
:103EB00080918B0510C090916405809163059817DF
:103EC00070F5E091640581E08E0F80936405F0E069
:103ED000EB59FA4F80818093BB0085EC85C08093BD
:103EE0001F058DC0E091640581E08E0F809364050D
:103EF0008091BB00F0E0EB59FA4F8083909164050C
:103F0000809163056DC0E091640581E08E0F809320
:103F100064058091BB00F0E0EB59FA4F80838091FB
:103F20008A0581116CC081E08093890584EA60C0B4
:103F300083E080938C0510922005CFCF80912005DF
:103F4000803208F050C0E091200581E08E0F809310
:103F500020058091BB00F0E0EF5DFA4F8083BDCF7C
:103F600080912005803230F4E0912005F0E0EF5D93
:103F7000FA4F10820E94D51E6091200570E0E091FA
:103F80008505F091860581E295E00995109220055E
:103F90000E94DF1E36C084E080938C05109242059B
:103FA00010924105E0918705F0918805099580916F
:103FB0004105811105C081E08093410510924305C0
:103FC000E091420581E08E0F80934205F0E0ED5BC9
:103FD000FA4F80818093BB0090914205809141050A
:103FE000981708F47ACF85E88093BC000AC085EC66
:103FF0008093BC0010928C0504C010921F050E9493
:10400000D51EFF91EF91BF91AF919F918F917F91BD
:104010006F915F914F913F912F910F900FBE0F9035
:104020001F901895CF93DF93EC0188819981DC0173
:10403000ED91FC910190F081E02D09952A813B8161
:10404000280F391F3B832A83DF91CF910895DB012D
:10405000ED91FC9111970190F081E02DBC01CD0113
:1040600009940F931F93CF93DF938C01F801C281C2
:10407000D3818881992787FD90950E946534892B8B
:1040800029F02196F801D383C283F0CFDF91CF913D
:104090001F910F9108950F931F93CF93DF931F925A
:1040A000CDB7DEB78C0169830E943120D80112960A
:1040B000ED91FC9113978081698186130AC0319636
:1040C0001396FC93EE931297C8010E94312081E071
:1040D00001C080E00F90DF91CF911F910F91089563
:1040E000FB012191BF01222379F0DC011296ED91B1
:1040F000FC9113973081321307C03196DC0113967F
:10410000FC93EE931297ECCF81E0211180E00895AB
:10411000BF92CF92DF92EF92FF920F931F93CF93B4
:10412000DF937C01EB01009771F464E672E0CE014D
:10413000DF91CF911F910F91FF90EF90DF90CF9083
:10414000BF900C947E29E881F9810190F081E02DE7
:1041500062E2CE0109958C01F70161917F0166232E
:1041600051F0E4E7F2E0B080BB2079F1918196173D
:10417000B1F03296F8CFE881F9810190F081E02D1D
:1041800062E2CE010995800F911FDF91CF911F91BF
:104190000F91FF90EF90DF90CF90BF900895E8814E
:1041A000F9810190F081E02D6CE5CE0109956C015B
:1041B000E881F9810190F081E02D6B2DCE01099508
:1041C0008C0D9D1D080F191FC7CFE881F981019043
:1041D000F081E02DCE010995F5CFCF93FC01508100
:1041E000523229F0573219F080E090E023C09C0150
:1041F0002F5F3F4FD901F901CF0101964081442340
:1042000099F3451791F04C3569F401964181E8E73F
:10421000F2E0C081CC2331F0C41302C0418102C05E
:104220003296F7CF4D93FC01E7CF1C92FB019183AF
:104230008083C901CF910895CF93DF93EC01BC0136
:1042400084E090E00E942720FC01009729F0D183B0
:10425000C0831382128202C087E995E0DF91CF917B
:104260000895CF93DF93EC01BC0184E090E00E94BD
:104270002720FC01009729F0D183C083138212828A
:1042800002C083E995E0DF91CF9108950F931F93CA
:10429000CF93DF938B01FC01C281D381209759F02A
:1042A000B8018A819B810E94A234892B39F0099040
:1042B000D881C02DF3CF80E090E001C0CE01DF9126
:1042C000CF911F910F9108950E944621009711F000
:1042D000049608958DE895E00895FC0120813181D0
:1042E0002530310519F482819381089580E090E0B2
:1042F0000895FC0120813181273031052CF0628145
:10430000738184819581089560E070E0CB01089508
:10431000FC01208131812630310529F462817381CD
:1043200084819581089560E070E0CB010895FC01DF
:1043300080819181892B29F084E090E091838083B2
:1043400062830895FC0180819181892B31F085E0A1
:1043500090E091838083738362830895FC01808160
:104360009181892B49F030E0295F3F4F31832083D1
:1043700042835383648375830895FC018081918116
:10438000892B41F086E090E09183808342835383C0
:10439000648375830895FC0180819181892B31F0BC
:1043A00082E090E091838083738362830895FC01AF
:1043B00080819181892B31F083E090E0918380832B
:1043C000738362830895CF93DF93FC01EB01208117
:1043D00031812230310531F482819381DF91CF9197
:1043E0000C9439222330310531F482819381DF919D
:1043F000CF910C945F222530310539F468817981A1
:10440000828193810E9488202BC02630310559F487
:1044100042815381648175812AE030E088819981ED
:104420000E94E0291DC02430310569F4828188236F
:1044300019F069E672E002C06EE672E08881998147
:104440000E947E290DC02730310584F0275030E0CE
:104450004281538164817581888199810E94292BD1
:104460002A813B81280F391F3B832A83DF91CF911B
:1044700008950F931F93CF93DF93EC018B016BE5AE
:10448000C8010E9412200A80DB81C02D209779F09C
:10449000B801CE0102960E94E3210990D881C02D77
:1044A000209729F06CE2C8010E941220F1CF6DE53F
:1044B000C801DF91CF911F910F910C9412200F939F
:1044C0001F93CF93DF938C01EB016BE7CE010E942A
:1044D0001220F801028113810115110509F168818B
:1044E0007981F801828193810E9488202A813B8111
:1044F000280F391F3B832A836AE3CE010E941220D2
:10450000BE01C80104960E94E321F80100811181D7
:104510000115110529F06CE2CE010E941220DFCFB7
:104520006DE7CE01DF91CF911F910F910C94122076
:10453000FC01608171816115710579F08AE090E07C
:104540000E942720FC01009741F01182108281E037
:1045500090E095838483CF01089580E090E00895F2
:10456000DC011296ED91FC911397309749F0808110
:104570009181009711F0FC01FACF71836083089557
:10458000FC01738362830895EF92FF920F931F9350
:10459000CF93DF938C017B010E944621EC010097B1
:1045A00061F4C8010E949822EC01009749F0FB8257
:1045B000EA82BC01C8010E94B022CE01049602C06A
:1045C0008DE895E0DF91CF911F910F91FF90EF90D3
:1045D0000895FC01608171816115710579F088E0B1
:1045E00090E00E942720FC01009741F01182108288
:1045F00081E090E093838283CF01089580E090E092
:104600000895DC011296ED91FC911397309749F0D3
:1046100080819181009711F0FC01FACF7183608352
:104620000895FC017383628308950F931F93CF93C2
:10463000DF938C010E94E922EC01009739F0BC0164
:10464000C8010E940123CE01029602C08DE895E0C8
:10465000DF91CF911F910F910895EF92FF920F93E9
:104660001F93CF93DF93EC01888199810E941C21D5
:104670007C016BE5CE010E944B20811103C087E9CC
:1046800095E022C06DE5CE010E944B2081111BC038
:10469000C7010E9415238C01BC01CE010E946B232F
:1046A000F801208131812230310548F36DE5CE01DA
:1046B0000E944B20811107C06CE2CE010E944B206A
:1046C0008111E6CFDCCFC701DF91CF911F910F9110
:1046D000FF90EF900895EF92FF920F931F93CF9367
:1046E000DF9300D0CDB7DEB78C017B01DC011496DF
:1046F0008C911497882309F4A3C0815014968C934D
:10470000C8010E943120F80182819381DC012C9143
:104710002A337CF420330CF03FC0273209F461C007
:1047200024F4223209F45DC065C02D522230A0F17C
:1047300061C02E3609F442C02CF42B3581F02636A8
:10474000B1F058C0243799F02B3709F053C0C80195
:104750000E942924BC01C7010E94D7214BC0C80177
:104760000E942D23BC01C7010E94CB2143C069E6F2
:1047700072E0C8010E947020882311F061E008C037
:104780006EE672E0C8010E947020882309F160E0A3
:10479000C7010E9497212EC04AE050E0BE016F5F22
:1047A0007F4F0E943133AB01BC01E981FA818081E6
:1047B0008E3229F18F7D8534D1F521C064E672E017
:1047C000C8010E947020882319F060E070E00FC0DB
:1047D00086E0EDE8F5E0D70101900D928A95E1F7CA
:1047E00009C0B8016E5F7F4F0E94ED20BC01C70178
:1047F0000E94A221F80184818F5F848321C0B801C7
:104800006E5F7F4FD80112968D919C9113970E94F5
:10481000CE31AB01BC01F8012281338189819A81BB
:10482000281B390B2150C7010E94AE21E3CFD801CC
:104830001396FC93EE931297C7010E94BD21DACF25
:104840000F900F90DF91CF911F910F91FF90EF90FC
:104850000895CF92DF92EF92FF920F931F93CF9321
:10486000DF93EC01888199810E9431216C016BE713
:10487000CE010E944B20811103C083E995E035C031
:104880006DE7CE010E944B2081112EC07E0182E097
:10489000E80EF11CB7018A819B810E94ED208C01FA
:1048A000009759F36AE3CE010E944B20882329F335
:1048B000B801C6010E94C4228C01BC01CE010E9435
:1048C0006B23F8012081318122303105B0F26DE790
:1048D000CE010E944B20811107C06CE2CE010E94E4
:1048E0004B208111D7CFC9CFC601DF91CF911F9146
:1048F0000F91FF90EF90DF90CF900895CF93DF93CB
:1049000000D000D01F92CDB7DEB79A8389837C8315
:104910006B834D83CE0101960E9429240F900F9046
:104920000F900F900F90DF91CF91089510929805FE
:104930001092970510929A0510929905109294057D
:1049400010929305109296051092950510928E057F
:1049500010928D0508958230E8F4E82FF0E0EE0F14
:10496000FF1FE556FA4F71836083813041F08091DB
:1049700069008C7F842B80936900E89A0895809168
:104980006900440F551F440F551F837F842B80936C
:104990006900E99A08951F920F920FB60F921124A1
:1049A0002F933F934F935F936F937F938F939F9337
:1049B000AF93BF93EF93FF9380919B0590919C05DC
:1049C000892B29F0E0919B05F0919C050995FF91B9
:1049D000EF91BF91AF919F918F917F916F915F9177
:1049E0004F913F912F910F900FBE0F901F901895F0
:1049F0001F920F920FB60F9211242F933F934F9354
:104A00005F936F937F938F939F93AF93BF93EF9336
:104A1000FF9380919D0590919E05892B29F0E0914F
:104A20009D05F0919E050995FF91EF91BF91AF9182
:104A30009F918F917F916F915F914F913F912F91B6
:104A40000F900FBE0F901F9018951F920F920FB6E8
:104A50000F9211242F933F938F939F93AF93BF9304
:104A60008091A0059091A105A091A205B091A30508
:104A700030919F0523E0230F2D3720F40196A11DCF
:104A8000B11D05C026E8230F0296A11DB11D20937C
:104A90009F058093A0059093A105A093A205B093D4
:104AA000A3058091A4059091A505A091A605B091BC
:104AB000A7050196A11DB11D8093A4059093A5059E
:104AC000A093A605B093A705BF91AF919F918F9139
:104AD0003F912F910F900FBE0F901F9018952FB7F9
:104AE000F8946091A0057091A1058091A205909124
:104AF000A3052FBF08953FB7F8948091A405909126
:104B0000A505A091A605B091A70526B5A89B05C04F
:104B10002F3F19F00196A11DB11D3FBF6627782FC9
:104B2000892F9A2F620F711D811D911D42E0660F22
:104B3000771F881F991F4A95D1F70895CF92DF926A
:104B4000EF92FF92CF93DF936B017C010E947B2554
:104B5000EB01C114D104E104F10489F00E94722B2D
:104B60000E947B256C1B7D0B683E734090F381E0B7
:104B7000C81AD108E108F108C851DC4FEACFDF912B
:104B8000CF91FF90EF90DF90CF900895789484B507
:104B9000826084BD84B5816084BD85B5826085BD39
:104BA00085B5816085BDEEE6F0E08081816080831F
:104BB000E1E8F0E010828081826080838081816002
:104BC0008083E0E8F0E0808181608083E1EBF0E0C9
:104BD000808184608083E0EBF0E08081816080836D
:104BE000EAE7F0E080818460808380818260808356
:104BF0008081816080838081806880831092C10081
:104C000008951F93CF93DF93182FEB0161E00E946B
:104C10008926209711F460E004C0CF3FD10539F414
:104C200061E0812FDF91CF911F910C94C226E12F7B
:104C3000F0E0E855F64FE491E330F9F048F4E13064
:104C4000B9F0E230A1F584B5806284BDC8BD34C03E
:104C5000E730E9F0E83019F1E43049F5809180005F
:104C6000806280938000D0938B00C0938A0024C020
:104C700084B5806884BDC7BD1FC0809180008068F6
:104C800080938000D0938900C093880015C08091E4
:104C9000B00080688093B000C093B3000DC08091D5
:104CA000B00080628093B000C093B40005C0C038EB
:104CB000D1050CF0B5CFAFCFDF91CF911F91089503
:104CC000833081F028F4813099F08230A1F008958A
:104CD0008730A9F08830B9F08430D1F48091800019
:104CE0008F7D03C0809180008F778093800008952E
:104CF00084B58F7702C084B58F7D84BD089580917F
:104D0000B0008F7703C08091B0008F7D8093B0009A
:104D10000895CF93DF9390E0FC01E454F64F249183
:104D2000FC01E053F64F8491882349F190E0880F0D
:104D3000991FFC01E850F64FA591B4918251964F0E
:104D4000FC01C591D4919FB7611108C0F8948C9172
:104D5000209582238C93888182230AC0623051F48B
:104D6000F8948C91322F309583238C938881822BF9
:104D7000888304C0F8948C91822B8C939FBFDF9121
:104D8000CF9108950F931F93CF93DF931F92CDB7C9
:104D9000DEB7282F30E0F901E855F64F8491F9018C
:104DA000E454F64F1491F901E053F64F04910023B7
:104DB000C9F0882321F069830E9460266981E02F71
:104DC000F0E0EE0FFF1FE251F64FA591B4919FB7AF
:104DD000F8948C91611103C01095812301C0812B3F
:104DE0008C939FBF0F90DF91CF911F910F910895EA
:104DF000CF93DF93282F30E0F901E855F64F8491E7
:104E0000F901E454F64FD491F901E053F64FC491FF
:104E1000CC2391F081110E946026EC2FF0E0EE0F80
:104E2000FF1FEC51F64FA591B4912C912D2381E0F9
:104E300090E021F480E002C080E090E0DF91CF912B
:104E40000895FC01818D228D90E0805C9F4F821B34
:104E500091098F7399270895FC01918D828D981780
:104E600031F0828DE80FF11D858D90E008958FEF70
:104E70009FEF0895FC01918D828D981761F0828DCE
:104E8000DF01A80FB11D5D968C91928D9F5F9F737E
:104E9000928F90E008958FEF9FEF08958EEB98E248
:104EA000892B49F080E090E0892B29F00E94BE28F0
:104EB00081110C9400000895FC01848DDF01A80F7E
:104EC000B11DA35ABF4F2C91848D90E001968F7332
:104ED0009927848FA689B7892C93A089B1898C9151
:104EE00080648C93938D848D981306C00288F38917
:104EF000E02D80818F7D80830895CF93DF93EC0137
:104F0000888D8823C9F0EA89FB89808185FD05C0E9
:104F1000A889B9898C9186FD0FC00FB607FCF5CF23
:104F2000808185FFF2CFA889B9898C9185FFEDCF6B
:104F3000CE010E945C27E7CFDF91CF910895CF92F9
:104F4000DF92FF920F931F93CF93DF931F92CDB702
:104F5000DEB76C01DC015B969C915B975C968C9153
:104F60005C97981307C05096ED91FC915197808102
:104F700085FD32C0F601038D10E00F5F1F4F0F73E8
:104F80001127F02EF601848DF81211C00FB607FC20
:104F9000F9CFD6015096ED91FC915197808185FF14
:104FA000F1CFC60169830E945C276981EBCF838DB5
:104FB000E80FF11DE35AFF4F6083D6015B960C9317
:104FC0005B975296ED91FC9153978081806280832C
:104FD00081E058968C930DC0D6015696ED91FC91C8
:104FE000579760835096ED91FC9151978081806432
:104FF000808381E090E00F90DF91CF911F910F911E
:10500000FF90DF90CF900895BF92CF92DF92EF9202
:10501000FF92CF93DF93EC016A017B01B22EE88906
:10502000F98982E08083411581EE58076105710599
:10503000A1F060E079E08DE390E0A70196010E9485
:10504000F12E21503109410951095695479537955F
:105050002795211580E1380798F0E889F9891082B1
:1050600060E874E88EE190E0A70196010E94F12EBD
:105070002150310941095109569547953795279592
:10508000EC85FD853083EE85FF852083188EEC89C5
:10509000FD89B082EA89FB89808180618083EA8909
:1050A000FB89808188608083EA89FB8980818068B0
:1050B0008083EA89FB8980818F7D8083DF91CF9116
:1050C000FF90EF90DF90CF90BF9008951F920F92C6
:1050D0000FB60F9211242F938F939F93EF93FF930B
:1050E000E091B805F091B9058081E091BE05F0919D
:1050F000BF0582FD12C090818091C1058F5F8F73C3
:105100002091C205821751F0E091C105F0E0E85509
:10511000FA4F958F8093C10501C08081FF91EF9177
:105120009F918F912F910F900FBE0F901F90189508
:105130001F920F920FB60F9211242F933F934F930C
:105140005F936F937F938F939F93AF93BF93EF93EF
:10515000FF9388EA95E00E945C27FF91EF91BF9151
:10516000AF919F918F917F916F915F914F913F91FF
:105170002F910F900FBE0F901F90189588EA95E021
:105180000E94212721E0892B09F420E0822F089535
:105190001092AB051092AA0588EE93E0A0E0B0E073
:1051A0008093AC059093AD05A093AE05B093AF0589
:1051B00087E892E09093A9058093A80585EC90E09C
:1051C0009093B5058093B40584EC90E09093B70577
:1051D0008093B60580EC90E09093B9058093B80574
:1051E00081EC90E09093BB058093BA0582EC90E04F
:1051F0009093BD058093BC0586EC90E09093BF052D
:105200008093BE051092C1051092C2051092C3058D
:105210001092C405089508950E94C6250E940B2986
:105220000E94F015CEE4D7E20E94801B2097E1F3A4
:105230000E944E27F9CFCF92DF92EF92FF920F9309
:105240001F93CF93DF936C017A01EB01E60EF71EFB
:1052500000E010E0CE15DF0561F06991D601ED9117
:10526000FC910190F081E02DC6010995080F191FEE
:10527000F1CFC801DF91CF911F910F91FF90EF9077
:10528000DF90CF9008956115710581F0DB010D90DD
:105290000020E9F7AD0141505109461B570BDC01D5
:1052A000ED91FC910280F381E02D099480E090E083
:1052B0000895EF92FF920F931F93CF93DF938C018A
:1052C000FB01C0E0D0E064917F018FEFE81AF80A9B
:1052D000662361F0D801ED91FC910190F081E02D01
:1052E000C8010995C80FD91FF701EDCFCE01DF9195
:1052F000CF911F910F91FF90EF9008950C94432947
:10530000DC01ED91FC910190F081E02D09948F92E8
:105310009F92AF92BF92CF92DF92EF92FF920F9344
:105320001F93CF93DF93CDB7DEB7A1970FB6F89455
:10533000DEBF0FBECDBF7C01C42EE52FCB01D22E28
:1053400019A221E02D1510F02AE0D22E8E010F5D5A
:105350001F4F8D2C912CA12CB12C6C2D7E2FA501D3
:1053600094010E94F12E8C2DD29E8019112401509F
:1053700011098A3014F4805D01C0895CF8018083D2
:10538000211531054105510521F0C22EE32FCA0137
:10539000E4CFB801C7010E944329A1960FB6F89443
:1053A000DEBF0FBECDBFDF91CF911F910F91FF9058
:1053B000EF90DF90CF90BF90AF909F908F90089527
:1053C000CF92DF92EF92FF920F931F93CF93DF93D1
:1053D000EC016A017B012115310579F4E881F9813D
:1053E0000190F081E02D642FDF91CF911F910F91FB
:1053F000FF90EF90DF90CF9009942A303105E9F4C7
:1054000077FF1AC06DE20E9480298C01442755273E
:10541000BA014C195D096E097F092AE0CE010E948C
:105420008729800F911FDF91CF911F910F91FF90DE
:10543000EF90DF90CF9008952AE0B701A601CE014A
:10544000DF91CF911F910F91FF90EF90DF90CF9060
:105450000C9487292115310541F4DC01ED91FC9173
:105460000190F081E02D642F09940C9487299A0112
:10547000462F50E060E070E00C942A2A4F925F9231
:105480006F927F928F929F92AF92BF92CF92DF9254
:10549000EF92FF920F931F93CF93DF93EC016A017A
:1054A0007B01B22E9A01AB01C701B6010E94B42E56
:1054B000882319F063E972E027C026013701E894D8
:1054C00077F82FEF3FEF4FE75FE7C301B2010E948C
:1054D000B42E81110DC02FEF3FEF4FE75FE7C301FF
:1054E000B2010E943A2C18161CF467E972E00CC055
:1054F0002FEF3FEF4FE75FE4C701B6010E94FB2D9E
:105500001816ACF46BE972E0CE01DF91CF911F91D8
:105510000F91FF90EF90DF90CF90BF90AF909F9052
:105520008F907F906F905F904F900C9443292FEF56
:105530003FEF4FE75FECC701B6010E943A2C87FDB1
:10554000E1CF20E030E0A901C701B6010E943A2C6A
:1055500087FF0AC06DE2CE010E9480298C01F7FA14
:10556000F094F7F8F09402C000E010E0A12C60E0A5
:1055700070E080E09FE3AB1441F020E030E040E2D7
:1055800051E40E94412CA394F6CF9B01AC01C701CA
:10559000B6010E94742B6B017C010E94AE2C2B0182
:1055A0003C010E94DA2C9B01AC01C701B6010E94AC
:1055B000732B6B017C012AE0B301A201CE010E9492
:1055C0008729080F191FBB2039F06FE972E0CE015F
:1055D0000E944329080F191F7B2C772041F120E0FE
:1055E00030E040E251E4C701B6010E94062E6B0193
:1055F0007C010E94A92C4B01AA2497FCA094BA2CF0
:105600002AE030E0B501A401CE010E94E029080F94
:10561000191FC501B4010E94DC2C9B01AC01C7011C
:10562000B6010E94732B6B017C017A94D6CFC8011E
:10563000DF91CF911F910F91FF90EF90DF90CF906E
:10564000BF90AF909F908F907F906F905F904F90A2
:1056500008950C943E2A4F925F926F927F92AF9280
:10566000BF92CF92DF92EF92FF920F931F93CF934F
:10567000DF93CDB7DEB729013A01621B730B840BB0
:10568000950B29893A894B895C892A193B094C0970
:105690005D09298B3A8B4B8B5C8B9B01AC01698933
:1056A0007A898B899C890E94CD2EE418F508060919
:1056B0001709A80197010E94132F2A0D3B1D4C1DAD
:1056C0005D1DCA01B901DF91CF911F910F91FF902C
:1056D000EF90DF90CF90BF90AF907F906F905F90F2
:1056E0004F90089508955058BB27AA270ED038C26E
:1056F00001D230F006D220F031F49F3F11F41EF4B5
:10570000C0C10EF4E095E7FBB6C1E92F4BD280F3A0
:10571000BA17620773078407950718F071F49EF5AE
:1057200063C20EF4E0950B2EBA2FA02D0B01B90128
:1057300090010C01CA01A0011124FF27591B99F007
:10574000593F50F4503E68F11A16F040A22F232F13
:10575000342F4427585FF3CF469537952795A79563
:10576000F0405395C9F77EF41F16BA0B620B730B0A
:10577000840BBAF09150A1F0FF0FBB1F661F771F7B
:10578000881FC2F70EC0BA0F621F731F841F48F430
:10579000879577956795B795F7959E3F08F0B3CFB6
:1057A0009395880F08F09927EE0F979587950895A0
:1057B000A1D158F080E891E009F49EEFA2D128F041
:1057C00040E851E059F45EEF09C05BC10DC2E92F1A
:1057D000E078E8D168F3092E052AC1F326173707C8
:1057E0004807590738F00E2E07F8E02569F0E02544
:1057F000E0640AC0EF6307F8009407FADB01B9011F
:105800009D01DC01CA01AD01EF934AD0A9D10AD0B4
:105810005F91552331F02BED3FE049E450FD49EC19
:1058200063CF0895DF93DD27B92FBF7740E85FE3AB
:105830001616170648075B0710F4D92FE0D19F937F
:105840008F937F936F938DD2E8E6F0E01DD188D1DE
:105850002F913F914F915F91E5D1DD2349F0905811
:10586000A2EA2AED3FE049EC5FE3D0785D274DDF07
:10587000DF9176C1DCD008F481E008954AD1E39548
:1058800080C10CD06DC13DD140F034D130F021F455
:105890005F3F19F0F0C05111A8C1F3C083D198F354
:1058A0009923C9F35523B1F3951B550BBB27AA27A1
:1058B00062177307840738F09F5F5F4F220F331F13
:1058C000441FAA1FA9F333D00E2E3AF0E0E830D0DF
:1058D00091505040E695001CCAF729D0FE2F27D0E2
:1058E000660F771F881FBB1F261737074807AB07B0
:1058F000B0E809F0BB0B802DBF01FF2793585F4F25
:105900002AF09E3F510568F0B6C06FC15F3FECF3CF
:10591000983EDCF3869577956795B795F7959F5FE9
:10592000C9F7880F911D9695879597F90895E1E03D
:10593000660F771F881FBB1F621773078407BA079C
:1059400020F0621B730B840BBA0BEE1F88F7E095F7
:10595000089504D06894B11148C108952BD188F0FE
:105960009F5790F0B92F9927B751A0F0D1F0660F4B
:10597000771F881F991F1AF0BA95C9F712C0B13066
:1059800081F032D1B1E008952FC1672F782F882799
:10599000B85F39F0B93FCCF3869577956795B395A5
:1059A000D9F73EF490958095709561957F4F8F4F14
:1059B0009F4F0895E89409C097FB3EF49095809519
:1059C000709561957F4F8F4F9F4F9923A9F0F92FC5
:1059D00096E9BB279395F695879577956795B79543
:1059E000F111F8CFFAF4BB0F11F460FF1BC06F5F29
:1059F0007F4F8F4F9F4F16C0882311F096E911C03B
:105A0000772321F09EE8872F762F05C0662371F05B
:105A100096E8862F70E060E02AF09A95660F771F6F
:105A2000881FDAF7880F9695879597F90895990F4B
:105A30000008550FAA0BE0E8FEEF16161706E80758
:105A4000F907C0F012161306E407F50798F0621B79
:105A5000730B840B950B39F40A2661F0232B242B4E
:105A6000252B21F408950A2609F4A140A6958FEF6D
:105A7000811D811D089597F99F6780E870E060E0BF
:105A800008959FEF80EC0895DF93CF931F930F93BA
:105A9000FF92EF92DF927B018C01689405C0DA2EB1
:105AA000EF01C0D0FE01E894A59125913591459173
:105AB0005591AEF3EF0129DEFE019701A801DA94BA
:105AC00079F7DF90EF90FF900F911F91CF91DF91C9
:105AD00008959F938F937F936F93FF93EF939B0111
