:100000000C94E5040C9439270C9466270C940D0588
:100010000C940D050C940D050C940D050C940D0518
:100020000C940D050C940D050C940D050C940D0508
:100030000C940D050C940D050C940D050C940D05F8
:100040000C9493270C940D050C94F12A0C94232BFB
:100050000C940D050C940D050C940D050C940D05D8
:100060000C94AD1F0C940D05084AD73B3BCE016E96
:1000700084BCBFFDC12F3D6C74319ABD56833DDAFF
:100080003D00C77F11BED9E4BB4C3E916BAAAABE0E
:10009000000000803F05A84CCDB2D44EB93836A937
:1000A000020C50B9918688083CA6AAAA2ABE000074
:1000B00000803F0001B202FFFF0190040923A13537
:1000C000016A020600016008000000000000000054
:1000D00000600440000000016202000000600400B3
:1000E000400000037B034CCD6C03AB033656760017
:1000F000680402CB47A202180400058BC1010C045E
:1001000000000000037F060CC92C97979703890312
:10011000264666006C022000024004000000000237
:1001200044040000000002480400000000024C04E7
:10013000000000000250040000000002540400000F
:10014000000002580400000000025C0400000000EF
:1001500002BC040000000001EC0400004000037F2A
:10016000060CC92C9797970402030D355D0409040A
:10017000872D353D00A3010000000001078601FE28
:10018000074105F120283038077E01300746019AE3
:10019000074704F1283038076C04F128303802167C
:1001A000020001FB00003E000B00360001000200CF
:1001B00003000000650054FFEF0000FA80000B12FE
:1001C00082000100020000000000000000000000AA
:1001D00000000000280000FFFF4581FFFFFA7200C9
:1001E000000000000003E80000000100017FFFFFA5
:1001F000FE8001001B000000000000000000000065
:10020000000000003E03304000000002CAE3093E47
:10021000800000200000000000000040000000609E
:1002200000000041FF000000000B2A0000165500EE
:10023000002182FD872650FD800000001F00000085
:100240000580000000000000010000000200000026
:10025000030000400000000000046F00026532004F
:10026000005EC04000000000000000000000000030
:10027000000000FB8C6F5DFD5D08D9007C733B00C6
:100280006C12CC3200139D3200D0D63200080040F0
:100290000001F4FFE68079020000000000D0D600E3
:1002A000002710FB000000400000000000000000DC
:1002B000000000000000010000000000000100013B
:1002C0000000000000FA36FFBC308E0005FBF0FF96
:1002D000D95BC8FFD09ABE000010A9FFF41EB2007F
:1002E000CEBBF70000000100000004000200020283
:1002F00000000CFFC280000001800000CF800040A1
:1003000000000000000001000000000000060000E6
:1003100000001400000000000000000000000000C9
:1003200000000000000000000000000000000000CD
:1003300000000000000000000000000000000000BD
:1003400000000000000000033F68B6793528BCC6F5
:100350007ED16C80000000400000000000B26A0006
:10036000000000000000000000000000003FF0005E
:10037000000030000000000000000000000000004D
:10038000000000000000000000000000000000006D
:100390000000000000254D002F706D000005AE002C
:1003A0000C02D00000000000650054FFEF000000C8
:1003B000000000000001000044000000000C0000EC
:1003C000000100000000000065000000540000FF74
:1003D000EF0000000000000000000000000000002E
:1003E00000000040000000000000000000000000CD
:1003F00000000040000000000000000000000000BD
:1004000000000000000001000000020000000000E9
:1004100000000000000000000000000000000000DC
:1004200000000000000000000000000000000000CC
:10043000000000001B0000000000000000000000A1
:1004400000000000000000000000000000000000AC
:10045000000000000000000000000000000000405C
:10046000000000001B000000000000000000000071
:10047000000000000000000000000000000000007C
:10048000000000000000000000000000000000006C
:10049000000000000000000000000000000000005C
:1004A000000000D8DCBAA2F1DEB2B8B4A88191F79E
:1004B0004A907F916AF3F9DBA8F9B0BAA080F2CE36
:1004C00081F3C2F1C1F2C3F3CCA2B280F1C6D880ED
:1004D000BAA7DFDFDFF2A7C3CBC5B6F087A29424AB
:1004E00048703C95406834589B78A2F183922D5512
:1004F0007DD8B1B4B8A1D09180F270F370F27C8055
:10050000A8F101B09887D943D886C988BAA1F20E5C
:10051000B89780F1A9DFDFDFAADFDFDFF2AAC5CD60
:10052000C7A90CC92C97979797F1A989264666B059
:10053000B4BA80ACDEF2CAF1B28C02A9B6980089D6
:100540000E161EB8A9B4992C547CB08AA8963656BB
:1005500076F1B9AFB4B083C0B8A89711B18F98B98C
:10056000AFF0240844106418F1A329557DAF83B57A
:1005700093AFF0002850F1A3869F61A6DADEDFD9A1
:10058000FAA38696DB31A6D9F8DFBAA68FC2C5C713
:10059000B28CC1B8A2DFDFDFA3DFDFDFD8D8F1B8CC
:1005A000A8B286B4980D355DB8AA98B0872D353DB0
:1005B000B2B6BAAF8C96198F9FA70E161EB49AB812
:1005C000AA872C547CB9A3DEDFDFA3B180F2C4CDAF
:1005D000C9F1B8A9B499830D355D89B9A32D557DAD
:1005E000B593A30E161EA92C547CB8B4B0F1978312
:1005F000A81184A50998A383F0DA2408441064188C
:10060000D8F1A529557DA58595021A2E3A565A404E
:1006100048F9F3A3D9F8F098832408441064189794
:1006200082A8F111F098A2240844106418DAF3DECD
:10063000D883A59401D9A302F1A2C3C5C7D8F18478
:1006400092A24DDA2AD84869D92AD86855DA32D820
:100650005071D932D8705DDA3AD85879D93AD87809
:1006600093A34DDA2AD84869D92AD86855DA32D8FE
:100670005071D932D8705DDA3AD85879D93AD878E9
:10068000A88A9AF02850789EF38818F19F1D98A8A0
:10069000D908D8C89F129EF315A8DA1210D8F1AF66
:1006A000C8978734B5B994A421F3D922D8F22DF391
:1006B000D92AD8F235F3D932D881A4606061D961E2
:1006C000D86C6869D969D8747071D971D8B1A384AC
:1006D000193D5DA3831A3E5E931030811011B8B0AE
:1006E000AF8F94F2DA3ED8B49AA88729DAF8D8877F
:1006F0009A35DAF8D8879A3DDAF8D8B1B9A498854E
:10070000022E56A581000C14A397B08AF12DD9288A
:10071000D84DD948D86DD968D8B1840DDA0ED8A390
:100720002983DA2C0ED8A3844983DA2C4C0ED8B84E
:10073000B0A88A9AF520AADADFD8A840AAD0DADED3
:10074000D8A860AADAD0DFD8F19786A8319B06999D
:1007500007AB9728889BF00C201440B8B0B4A88C45
:100760009CF0042851791D301438B282ABD0982CFB
:10077000505078789BF11AB0F08A9CA82951798B57
:100780002951798A2470598B2058718A4469388B91
:100790003940688A6448318B304960A588200971E6
:1007A000584468113964493019F1AC002C547CF07C
:1007B0008CA804285078F1889726A85998AC8C0208
:1007C000264666F0899CA8295179247059446938D5
:1007D000644831A98809205970AB11384069A819BB
:1007E0003148608CA83C415C207C00F187981986D8
:1007F000A86E767EA999882D557D9EB9A38A228AF6
:100800006E8A568A5E9FB183062646660E2E4E6E0F
:100810009DB8AD002C547CF2B18CB499B9A32D5580
:100820007D8191AC38AD3AB58391AC2DD928D84DA6
:10083000D948D86DD968D88C9DAE29D904AED85185
:10084000D904AED879D904D881F39DAD008DAE1905
:1008500081ADD901D8F2AEDA26D88E912983A7D9F5
:10086000ADADADADF32AD8D8F1B0AC89913E5E768E
:10087000F3AC2E2EF1B18C5A9CAC2C2828289CACC1
:100880003018A8988128343C9724A728343C9C240D
:10089000F2B089AC912C4C6C8A9B2DD9D8D851D907
:1008A000D8D879D9D8D8F19E88A331DAD8D8912D63
:1008B000D928D84DD948D86DD968D8B18393353D5A
:1008C0008025DAD8D88569DAD8D8B49381A32834BA
:1008D0003CF3AB8BF8A391B609B4D9ABDEFAB08781
:1008E0009CB9A3DDF1A3A3A3A395F1A3A3A39DF1B9
:1008F000A3A3A3A3F2A3B49080F2A3A3A3A3A3A34F
:10090000A3A3A3A3B2A3A3A3A3A3A3B087B599F161
:10091000A3A3A398F1A3A3A3A397A3A3A3A3F39B28
:10092000A3A3DCB9A7F1262626D8D8FF000000082B
:1009300000020100000304070000000000000000A6
:100940000102040810204080010204081020010266
:100950000408102004040404040404040202020233
:100960000202030303030303000000002300260028
:10097000290000000000250028002B0000000000D6
:10098000240027002A004E414E494E495459494EF1
:1009900046CDCCCC3D0AD7233C17B7D13877CC2BEA
:1009A000329595E6241FB14F0A000020410000C88F
:1009B0004200401C4620BCBE4CCA1B0E5AAEC59D10
:1009C00074003E17E51DCB1E532B11241FBECFEF25
:1009D000D8E0DEBFCDBF12E0A0E0B1E0EAE9FDE67D
:1009E00002C005900D92A636B107D9F725E0A6E61C
:1009F000B2E001C01D92AE37B207E1F719E0CAECD0
:100A0000D9E004C02297FE010E94B731C23CD10751
:100A1000C9F70E94972B0C94CB360C9400001F92C0
:100A20000F920FB60F9211242F938F939F93AF9332
:100A3000BF9323B1822F817090E04A9B03C0892B22
:100A400019F00EC0892B61F08091710390917203AF
:100A5000A0917303B09174030196A11DB11D0BC049
:100A60008091710390917203A0917303B09174030C
:100A70000197A109B1098093710390937203A09328
:100A80007303B0937403BF91AF919F918F912F9196
:100A90000F900FBE0F901F9018951F920F920FB6D8
:100AA0000F9211242F938F939F93AF93BF9323B1F2
:100AB00021FB882780F990E04B9B03C0892B19F01C
:100AC0000EC0892B61F08091750390917603A091FF
:100AD0007703B09178030196A11DB11D0BC08091E1
:100AE000750390917603A0917703B09178030197F5
:100AF000A109B1098093750390937603A0937703BE
:100B0000B0937803BF91AF919F918F912F910F90E8
:100B10000FBE0F901F9018959C01FC01EE57FF4FE0
:100B200080819181680F791F6138710530F471837C
:100B300060830296820F931F089580E090E00895ED
:100B40009C01FC01EE5BFF4F80819181680F791F52
:100B50006134710530F4718360830296820F931FB4
:100B6000089580E090E00895609143017091440100
:100B70000E94131C0E94CA1A21E06130710509F01D
:100B800020E020933E01089560914301709144015B
:100B90000E94131C0E94CA1A21E06130710509F0FD
:100BA00020E02093EE030895609143017091440189
:100BB0000E94131C0E94CA1A21E06130710509F0DD
:100BC00020E020933F01622F8CE00C944D290E947D
:100BD000A61AFC0181E0208131812230310508F420
:100BE00080E00895CF93DF93EC0168E471E00E9408
:100BF000E705882311F168E471E0CE010E94131C1F
:100C000060E070E00E94251B0E94BB1A0E94352FF5
:100C1000709368036093670368E471E0CE010E94FB
:100C2000131C61E070E00E94251B0E94BB1A0E9409
:100C3000352F70936A03609369036DE471E0CE0110
:100C40000E94E705882309F469C06DE471E0CE01D4
:100C50000E94131C60E070E00E94251B0E94BB1ADA
:100C6000609328017093290180932A0190932B01AE
:100C70006DE471E0CE010E94131C61E070E00E94FF
:100C8000251B0E94BB1A60932C0170932D01809349
:100C90002E0190932F016DE471E0CE010E94131C90
:100CA00062E070E00E94251B0E94BB1A6093300135
:100CB00070933101809332019093330110920F03AE
:100CC000109210031092110310921203109242031B
:100CD00010924303109244031092450310920B03A9
:100CE00010920C0310920D0310920E0310923E030B
:100CF00010923F0310924003109241031092070399
:100D0000109208031092090310920A0310923A03FA
:100D100010923B0310923C0310923D0361E571E099
:100D2000CE010E94E705882309F45CC061E571E00B
:100D3000CE010E94131C60E070E00E94251B0E94FF
:100D4000CA1A84E593E00E94A22461E571E0CE0115
:100D50000E94131C61E070E00E94251B0E94CA1AC9
:100D600084E593E00E94A82461E571E0CE010E9431
:100D7000131C62E070E00E94251B0E94CA1A84E5E1
:100D800093E00E94AE2461E571E0CE010E94131C45
:100D900063E070E00E94251B0E94CA1A84E593E07C
:100DA0000E94B42461E571E0CE010E94131C64E04E
:100DB00070E00E94251B0E94CA1A84E593E00E94FD
:100DC000BA2461E571E0CE010E94131C65E070E079
:100DD0000E94251B0E94CA1A84E593E0DF91CF91FF
:100DE0000C94C024DF91CF910895CF93DF93EC0151
:100DF00060914301709144010E94131C0E94CA1A21
:100E000021E06130710509F020E02093EF0360914B
:100E1000410170914201CE010E94E705882369F0EB
:100E20006091410170914201CE010E94131C0E9409
:100E3000CA1A7093390160933801DF91CF910895F8
:100E40008F929F92AF92BF92CF92EF920F931F9388
:100E5000CF93DF93CDB7DEB7C059D1090FB6F89461
:100E6000DEBF0FBECDBF5C010E9493236EE170E038
:100E700080E090E00E940C2860E0C5010E949A2367
:100E800021E041E060E1C5010E94D42466E0C50193
:100E90000E94DF24C5010E94E52420E040E060E0DC
:100EA000C5010E94D424C5010E940F24C5010E94DF
:100EB0002D24182FC5010E945424882EC5010E949C
:100EC0007B24982E4FE760E0C5010E94532360E029
:100ED000C5010E947E2348E660E0C5010E945323BD
:100EE000C5010E948C2364E170E080E090E00E94E4
:100EF0000C28EE24E39400E020E049E857E063EAA0
:100F000071E0C5010E944226882309F40EC240EC1C
:100F100050E063EE70E0C5010E940A27882309F4BF
:100F200006C263E0C5010E94A12362E1C5010E94DF
:100F30005F2364E0C5010E94092361E0C5010E94AE
:100F40000F2363E0C5010E941A2363E0C5010E94DC
:100F5000252363E0C5010E940D2760E0C5010E94C2
:100F6000132760E0C5010E942624612FC5010E945D
:100F70004924682DC5010E947024692DC5010E9475
:100F80009724812C912CF401EC54FF4FE491A1E8BB
:100F9000B0E0AC0FBD1FA80DB11DEC9381E0880D32
:100FA0009FEF891A990AE3E0E81568F7CD57DF4FFC
:100FB0004881C358D04050E09A012E5F3F4F90E0E7
:100FC0002817390704F7C12CEE24E394CE57DF4FDE
:100FD0000881C258D040CF57DF4F2881C158D04038
:100FE00061E870E06C0F7D1F6D5F7F4FC5010E944F
:100FF000612560E0F401EC54FF4FE491A1E8B0E01A
:10100000AC0FBD1FA60FB11DEC936F5FFFEF8F1AE2
:101010009F0A643078F3CD57DF4F4881C358D040E2
:1010200050E09A012E5F3F4F862F90E02817390736
:101030000CF7C12CEE24E394CE57DF4F0881C25841
:10104000D040CF57DF4F2881C158D04061E870E0D1
:101050006C0F7D1F6D5F7F4FC5010E946125C5012B
:101060000E948523C5010E94C023482FBE016F5FE7
:101070007F4FC5010E94DC2362E0C5010E943B2333
:101080006CE9C5010E94472360E5C5010E94412328
:1010900060E0C5010E944D23C5010E94852361E0E7
:1010A000C5010E94772361E0C5010E94C624C501E5
:1010B0000E94CD2460E0F401EC54FF4FE491A1E8DC
:1010C000B0E0AC0FBD1FA60FB11DEC936F5F8FEFAB
:1010D000881A980A643078F3CD57DF4F4881C35897
:1010E000D04050E09A012E5F3F4F862F90E02817A6
:1010F00039070CF7C12CEE24E394CE57DF4F08815B
:10110000C258D040CF57DF4F2881C158D04061E846
:1011100070E06C0F7D1F6D5F7F4FC5010E946125E0
:1011200060E0F401EC54FF4FE491A1E8B0E0AC0FB3
:10113000BD1FA60FB11DEC936F5F9FEF891A990A2F
:10114000643078F3CD57DF4F4881C358D04050E02A
:101150009A012E5F3F4F862F90E0281739070CF732
:10116000C12CEE24E394CE57DF4F0881C258D04003
:10117000CF57DF4F2881C158D04061E870E06C0F35
:101180007D1F6D5F7F4FC5010E94612560E0F40106
:10119000EC54FF4FE491A1E8B0E0AC0FBD1FA60FE7
:1011A000B11DEC936F5FEFEF8E1A9E0A643078F3F7
:1011B000CD57DF4F4881C358D04050E09A012E5F91
:1011C0003F4F862F90E0281739070CF7C12CEE24EB
:1011D000E394CE57DF4F0881C258D040CF57DF4F3E
:1011E0002881C158D04061E870E06C0F7D1F6D5FB1
:1011F0007F4FC5010E946125C5010E94C023833035
:101200009105D0F3482FBE016F5F7F4FC5010E944B
:10121000DC23C5010E94652360E0F401EC54FF4F1C
:10122000E491A1E8B0E0AC0FBD1FA60FB11DEC9397
:101230006F5FFFEF8F1A9F0A643078F3CD57DF4F4F
:101240004881C358D04050E09A012E5F3F4F862F0F
:1012500090E0281739070CF7CE57DF4F0881C258A6
:10126000D040CF57DF4F2881C158D04061E870E0AF
:101270006C0F7D1F6D5F7F4FC5010E94F724C50174
:101280000E94C02383309105D0F3482FBE016F5FC9
:101290007F4FC5010E94DC23C5010E946523F40134
:1012A000EC54FF4F60E08491A1E8B0E0AC0FBD1FAB
:1012B000A60FB11D8C936F5F643010F43196F3CF9D
:1012C000CD57DF4F4881C358D04050E09A012E5F80
:1012D0003F4F862F90E02817390784F761E870E0C8
:1012E0006C0F7D1F6D5F7F4FC12CEE24E394CE57B2
:1012F000DF4F0881C258D040CF57DF4F2881C158F7
:10130000D040C5010E94612560E0C5010E94C6244D
:101310008AE290E0F50193838283C5010E948523D0
:10132000C5010E94652380E003C081E001C082E026
:10133000C057DF4F0FB6F894DEBF0FBECDBFDF91B1
:10134000CF911F910F91EF90CF90BF90AF909F9052
:101350008F900895CF93DF93DB01FA01309719F452
:10136000EC01E881F981808190E0982F8827218124
:10137000820F911D11969C938E93848190E0982FFB
:1013800088272581820F911D13969C938E93129727
:10139000808590E0982F88272185820F911D1596D2
:1013A0009C938E931497848590E0982F88272585A9
:1013B000820F911D17969C938E93169780E0DF9174
:1013C000CF910895FF920F931F93CF93DF93CDB7E3
:1013D000DEB728970FB6F894DEBF0FBECDBF8B01E6
:1013E000BE016F5F7F4F0E94AA09F82E81114CC089
:1013F00069817A81882777FD8095982F0E94682FD0
:1014000020E030E040E858E30E949230F801608329
:101410007183828393836B817C81882777FD80959C
:10142000982F0E94682F20E030E040E858E30E94A7
:101430009230F80164837583868397836D817E8102
:10144000882777FD8095982F0E94682F20E030E054
:1014500040E858E30E949230F801608771878287E4
:1014600093876F817885882777FD8095982F0E94D4
:10147000682F20E030E040E858E30E949230F80105
:1014800064877587868797878F2D28960FB6F8947F
:10149000DEBF0FBECDBFDF91CF911F910F91FF90A7
:1014A00008954F925F926F927F928F929F92AF9228
:1014B000BF92CF92DF92EF92FF920F931F93CF9341
:1014C000DF93CDB7DEB728970FB6F894DEBF0FBE17
:1014D000CDBF8B01DA011496CD90DD90ED90FC909C
:1014E00017971C964D905D906D907C901F978D90F6
:1014F0009D90AD90BC90139718968D919D910D90F5
:10150000BC91A02D89839A83AB83BC83A3019201F4
:10151000C701B6010E9492306D837E838F839887C6
:1015200029813A814B815C81C501B4010E949230CE
:101530009B01AC016D817E818F8198850E94FF2D7A
:101540009B01AC010E94002EF801608371838283AD
:101550009383A7019601C501B4010E9492306D8367
:101560007E838F839887A301920169817A818B8121
:101570009C810E9492309B01AC016D817E818F81A4
:1015800098850E94002E9B01AC010E94002ED8017C
:1015900014966D937D938D939C931797A501940159
:1015A000C501B4010E9492304B015C01A701960174
:1015B000C701B6010E9492309B01AC01C501B40184
:1015C0000E94FF2D6B017C0129813A814B815C8156
:1015D000CA01B9010E9492309B01AC01C701B6015A
:1015E0000E94FF2D6B017C01A3019201C301B20196
:1015F0000E9492309B01AC01C701B6010E94002EEF
:10160000F801608771878287938780E028960FB6FC
:10161000F894DEBF0FBECDBFDF91CF911F910F9128
:10162000FF90EF90DF90CF90BF90AF909F908F9002
:101630007F906F905F904F9008952F923F924F92BE
:101640005F926F927F928F929F92AF92BF92CF9252
:10165000DF92EF92FF920F931F93CF93DF9300D00F
:1016600000D000D0CDB7DEB71B018A013E832D83A9
:10167000FA01C080D180E280F380A7019601C70102
:10168000B6010E94002E69837A838B839C83F801C4
:1016900084809580A680B780A5019401C501B4011E
:1016A0000E94002E2B013C01A701960169817A81DD
:1016B0008B819C810E9492306B017C01A501940179
:1016C000C301B2010E9492309B01AC01C701B60177
:1016D0000E94002E20E030E040E85FE30E94FF2DF2
:1016E0006B017C01F8012085318542855385C3015A
:1016F000B2010E9492302B013C01F801248535850E
:101700004685578569817A818B819C810E949230C0
:101710009B01AC01C301B2010E94FF2DA7019601FC
:101720000E94732EF1016083718382839383ED8124
:10173000FE816481758186819781C084D184E28431
:10174000F3849B01AC010E9492304B015C01A70124
:101750009601C701B6010E9492309B01AC01C50100
:10176000B4010E94002E0E94FF309B01AC01ED816C
:10177000FE8160817181828193810E94CD2E0E94C1
:101780009E2EF1016483758386839783ED81FE81AC
:101790006081718182819381C084D184E284F384E9
:1017A0009B01AC010E9492304B015C01A7019601A4
:1017B000C701B6010E9492309B01AC01C501B40182
:1017C0000E94002E0E94FF309B01AC01ED81FE8142
:1017D00064817581868197810E94CD2E0E949E2E04
:1017E000F101608771878287938780E026960FB624
:1017F000F894DEBF0FBECDBFDF91CF911F910F9147
:10180000FF90EF90DF90CF90BF90AF909F908F9020
:101810007F906F905F904F903F902F9008954F92E0
:101820005F926F927F928F929F92AF92BF92CF9270
:10183000DF92EF92FF920F931F93CF93DF93EC0110
:101840007B01882777FD8095982F0E94682F2B01B8
:101850003C012D813E814F8158850E94C62E8823F0
:10186000A1F18C80F7FE03C081E08825882EB701A6
:10187000F7FE03C0719561957109882777FD809502
:10188000982F1F921F921F922FEF2F93A12CB12CF4
:10189000650114E6E12EF12C00E010E020E030E0DC
:1018A000A9010E94B72D6B017C01682D89810E94DE
:1018B0004D29B60188810E948C284D825E826F82FC
:1018C00078860F900F900F900F90DF91CF911F911E
:1018D0000F91FF90EF90DF90CF90BF90AF909F90CF
:1018E0008F907F906F905F904F900895CF92DF928E
:1018F000EF92FF92CF93DF93EC016A017B0160913D
:10190000690370916A03882777FD8095982F0E945C
:10191000682F9B01AC01C701B6010E94923020E004
:1019200030E048EC52E40E94CD2E6BA77CA78DA737
:101930009EA720E030E0A901C701B6010E94C62E93
:1019400081110CC01D8E1E8E1F8E18A219A21AA204
:101950001BA21CA2198E1A8E1B8E1C8EDF91CF919A
:10196000FF90EF90DF90CF900895CF93DF93EC013D
:1019700020E030E040E050E0BA010E94760CEB81BC
:1019800019861A861B861C86198A1A8A1B8A1C8A43
:1019900084E0E89FF0011124EF58FC4F108211827F
:1019A00012821382DF91CF910895CF92DF92EF924E
:1019B0000F93CF93DF931F92CDB7DEB76C01862FC5
:1019C000F60115A216A217A210A612A611A66083F0
:1019D000418322830383E48290913F01992399F00C
:1019E00061E049830E94142961E04981842F0E94AB
:1019F0001429C6010F90DF91CF910F91EF90DF90E6
:101A0000CF900C94B50C0F90DF91CF910F91EF9088
:101A1000DF90CF9008952F923F924F925F926F92F6
:101A20007F928F929F92AF92BF92CF92DF92EF926E
:101A3000FF920F931F93CF93DF93CDB7DEB72C9711
:101A40000FB6F894DEBF0FBECDBF8DA09EA02FA015
:101A500038A40E94FF2D6D837E838F8398872BA5EA
:101A60003CA54DA55EA50E9492309B01AC01D10121
:101A70006D917D918D919C910E94002EF10160836A
:101A8000718382839383D4012D913D914D915C911B
:101A90006D817E818F8198850E94FF2D69877A876D
:101AA0008B879C8720E030E040EA51E46BA57CA561
:101AB0008DA59EA50E9492309B01AC0169857A8517
:101AC0008B859C850E94CD2E20E030E040E85EE3CF
:101AD0000E94923069837A838B839C8320E030E07C
:101AE00040E45FE3E9A5FAA5608171818281938179
:101AF0000E9492309B01AC0169817A818B819C812B
:101B00000E94002E69837A838B839C83A9A5BAA542
:101B10006D937D938D939C9313972D813E814F817F
:101B20005885C801B7010E9492302B013C01F10198
:101B30002081318142815381C601B5010E949230DA
:101B40009B01AC01C301B2010E94002E2B013C019C
:101B500029813A814B815C8169A17AA18BA19CA1E9
:101B60000E9492309B01AC01C301B2010E94002E81
:101B7000ED80FE800F811885D401ED92FD920D93CA
:101B80001C9313972C960FB6F894DEBF0FBECDBFF3
:101B9000DF91CF911F910F91FF90EF90DF90CF9049
:101BA000BF90AF909F908F907F906F905F904F907D
:101BB0003F902F9008952F923F924F925F926F9295
:101BC0007F928F929F92AF92BF92CF92DF92EF92CD
:101BD000FF920F931F93CF93DF93CDB7DEB72C9770
:101BE0000FB6F894DEBF0FBECDBF1C0180E090E0C1
:101BF0000E94662F69837A838B839C83D10195969B
:101C00002D913D914D915C9198970E94002E2B0152
:101C10003C01F10165A376A387A390A781A592A5B6
:101C20009C012F5F3F4F32A721A70A9709F042C0BE
:101C300085849684A784B08881899289A389B48990
:101C4000A5019401281B390B4A0B5B0BA8EEB3E0EE
:101C50000E94AA310E94682FA30192010E94CD2EFA
:101C600020E030E040E85EE30E9492302B013C012E
:101C700020E030E040E45FE3D1019F966D917D91DB
:101C80008D919C91D2970E9492309B01AC01C3012F
:101C9000B2010E94002EF10167A770AB81AB92AB3D
:101CA00015A216A217A210A612A611A6818A928AC0
:101CB000A38AB48AD1019B964D905D906D907C90E3
:101CC0009E9720E030E0A901C301B2010E94C62E18
:101CD000882309F4D3C0A0902C01B0902D01C090AE
:101CE0002E01D0902F018091280190912901A0917F
:101CF0002A01B0912B018D839E83AF83B887D101D8
:101D00009F968D919D910D90BC91A02D89879A876A
:101D1000AB87BC8720E030E04AE754E469817A81F0
:101D20008B819C810E94CD2E9F938F937F936F9385
:101D3000C10181969F938F9304979F938F930497EC
:101D40009F938F93809133018F93809132018F9372
:101D5000809131018F93809130018F93ED80FE80CF
:101D60000F81188529853A854B855C85C301B201B1
:101D70000E940B0D6B017C010FB6F894DEBF0FBE05
:101D8000CDBF20E030E0A901D1019F966D917D91FA
:101D90008D919C91D2970E94C62E81113BC020E06C
:101DA00030E0A901F10163A574A585A596A50E945F
:101DB0008730D1015596CD90DD90ED90FC905897ED
:101DC00020E030E040E752E487FD0DC0C701B601D6
:101DD0000E94C62E87FF18C0C12CD12C60E7E62ECA
:101DE00062E4F62E11C0C701B6010E94C62E87FD1F
:101DF00005C0F7FAF094F7F8F09406C0C12CD12C86
:101E000050E7E52E52ECF52EF101C58AD68AE78A15
:101E1000F08E3BC0D10155962D913D914D915C9135
:101E20005897C701B6010E94002E6B017C0120E08B
:101E300030E048EC52EC0E94C62E87FD0FC020E037
:101E400030E048EC52E4B601C7010E948730181612
:101E500054F4C12CD12C98EC82E407C0C12CD12CB5
:101E600098EC82EC02C09E2D8F2DA601692F782F51
:101E7000F101458B568B678B708F07C0D10155964A
:101E80001D921D921D921C9258972C960FB6F89495
:101E9000DEBF0FBECDBFDF91CF911F910F91FF909D
:101EA000EF90DF90CF90BF90AF909F908F907F90FA
:101EB0006F905F904F903F902F9008951092750310
:101EC00010927603109277031092780310927103A8
:101ED00010927203109273031092740362E082E016
:101EE0000E94142962E083E00E94142962E088E0E5
:101EF0000E94142962E089E00E94142941E050E028
:101F00006FE075E080E00E94192741E050E06DE449
:101F100075E081E00E94192780913F01882341F1FB
:101F200061E085E00E94142960E085E00E944D296F
:101F300061E086E00E94142960E086E00E944D295D
:101F400061E08BE00E94142960E08BE00E944D2943
:101F500061E081E10E94142960E081E10E944D2945
:101F600081E293E00E94B50C8EEE92E00E94B50CE7
:101F700010923F0108958F929F92AF92BF92CF929D
:101F8000DF92EF92FF9249015A012091F4033091C0
:101F9000F5034091F6035091F7030E94FF2D6B016A
:101FA0007C012BED3FE049E450E40E9487302BEDAB
:101FB0003FE049EC50EC181674F0C701B6010E94DE
:101FC000C62E87FF05C02BED3FE049EC50E403C06F
:101FD00020E030E0A901C701B6010E94002E6B018C
:101FE0007C0120E030E0A9010E948730181624F01F
:101FF000C701B601905802C0C701B601A5019401FE
:102000000E94C62E881F8827881FFF90EF90DF90C0
:10201000CF90BF90AF909F908F900895EF92FF92D6
:102020000F931F93CF93DF937C010CE011E0C0E08E
:10203000D0E06FED71E0C7010E94131C0E94AF1A3F
:10204000BC01F801808191810E9488360C5F1F4F8E
:10205000892B81F4CC0FDD1FCC0FDD1FC45FDE4F59
:10206000EA81FB81C701DF91CF911F910F91FF9012
:10207000EF9009942196C730D105D9F6DF91CF9121
:102080001F910F91FF90EF9008958C01C0E0D0E078
:10209000C017D107B4F461E08DE00E944D2968ECCF
:1020A00070E080E090E00E940C2860E08DE00E94EB
:1020B0004D2968EC70E080E090E00E940C282196A9
:1020C000E7CF68E572E080E090E00E940C28DECF68
:1020D00026E040E052EC61E070E08BED94E00E947D
:1020E0008F2A64E170E080E090E00E940C2861E0BB
:1020F0008DE00E94142961E08CE00E94142962E0C6
:1021000084E00E94142960E08DE00E944D2960E087
:102110008CE00E944D290E945E0F8091400188232F
:1021200009F47FC08EE094E00E94911E88E18093C4
:10213000B80062E087E00E94142984E593E00E94E1
:10214000AC236AE070E080E090E00E940C2884E517
:1021500093E00E94072484E593E00E942007809387
:10216000E7036AE070E080E090E00E940C28809134
:10217000E70381113CC061E084E593E00E94C6243E
:102180006AE070E080E090E00E940C2884E593E033
:102190000E9465238093E903809156038093E803AE
:1021A0006CED70E084E593E00E94B4246CE470E090
:1021B00084E593E00E94BA246BEA7FEF84E593E024
:1021C0000E94C0246CEF76E084E593E00E94AE2488
:1021D0000E94DD27605D7A488F4F9F4F60936702B2
:1021E000709368028093690290936A021AC065E551
:1021F00071E08BED94E00E94E42B4AE050E06091A6
:10220000E7038BED94E00E94C32C66E671E08BED52
:1022100094E00E94012C8091E70390E001960E94D7
:10222000451068E671E08BED94E00C94012C4F9220
:102230005F926F927F928F929F92AF92BF92CF9256
:10224000DF92EF92FF920F931F93CF93DF93EC01F6
:102250004A015B0128013901C880D980EA80FB80EE
:10226000A3019201C701B6010E94873018166CF4D1
:102270002BED3FE049EC50E4C701B6010E94FF2D71
:10228000688379838A839B83E7CFA501940160915A
:10229000F4037091F5038091F6039091F7030E9487
:1022A000C62E87FF0FC02BED3FE049EC50E468815C
:1022B00079818A819B810E94002E688379838A8339
:1022C0009B83E3CF688179818A819B81DF91CF9164
:1022D0001F910F91FF90EF90DF90CF90BF90AF9044
:1022E0009F908F907F906F905F904F9008950F9385
:1022F0001F93CF93DF93EC0181E293E00E94B50C32
:102300008EEE92E00E94B50C1092F4031092F50349
:102310001092F6031092F7031092F8031092F9034B
:102320001092FA031092FB031092FC031092FD032B
:102330001092FE031092FF0361E971E0CE010E944A
:10234000E705882379F061E971E0CE010E94131C52
:102350000E94BB1A6093FC037093FD038093FE03FD
:102360009093FF0363E971E0CE010E94E7058823A3
:1023700079F063E971E0CE010E94131C0E94BB1A40
:102380006093F8037093F9038093FA039093FB032F
:1023900065E971E0CE010E94E7058823A9F065E9AF
:1023A00071E0CE010E94131C0E94BB1A25E33AEF94
:1023B0004EE85CE30E9492306093F4037093F5035F
:1023C0008093F6039093F7030BED1FE029E430E4CC
:1023D0004BED5FE069E470EC84EF93E00E9417112D
:1023E00020917D0330917E0340917F0350918003C3
:1023F0006091F4037091F5038091F6039091F703D7
:102400000E94002E6093F0037093F1038093F20317
:102410009093F303DF91CF911F910F910C94761459
:10242000EF92FF920F931F93CF93DF9300D000D0D2
:10243000CDB7DEB77C0167E971E00E94E70588232C
:1024400079F067E971E0C7010E94131C0E94BB1A72
:10245000AB01BC0120E030E081E293E00E94760C09
:102460006AE971E0C7010E94E705882379F06AE90B
:1024700071E0C7010E94131C0E94BB1AAB01BC0192
:1024800020E030E08EEE92E00E94760C6DE971E083
:10249000C7010E94E705882361F16DE971E0C7017A
:1024A0000E94131C0E94BB1A25E33AEF4EE85CE33E
:1024B0000E94923069837A838B839C830BED1FE0AB
:1024C00029E430E44BED5FE069E470ECCE01019665
:1024D0000E94171189819A81AB81BC8180936B0323
:1024E00090936C03A0936D03B0936E0381E080938F
:1024F000700363EA71E0C7010E94E7050F900F9037
:102500000F900F90DF91CF911F910F91FF90EF905F
:1025100008953F924F925F926F927F928F929F9217
:10252000AF92BF92CF92DF92EF92FF920F931F93E1
:10253000CF93DF93CDB7DEB72C970FB6F894DEBFFD
:102540000FBECDBFE091240380912503F0E08823E6
:10255000B1F0EE0FFF1FEE0FFF1FEF58FC4F808111
:102560009181A281B38122273327A901281B390B2E
:102570004A0B5B0B2D833E834F83588711C09F010D
:10258000220F331F220F331F2F583C4FD9018D913B
:102590009D910D90BC91A02D8D839E83AF83B887B4
:1025A000E091F1028091F202F0E08823B1F0EE0FA9
:1025B000FF1FEE0FFF1FEF58FC4F80819181A2811A
:1025C000B38122273327A901281B390B4A0B5B0B48
:1025D00029873A874B875C8711C09F01220F331FE1
:1025E000220F331F2F583C4FD9018D919D910D9093
:1025F000BC91A02D89879A87AB87BC87C090670361
:10260000D0906803EE24D7FCE094FE2C80912A033E
:1026100090912B03A0912C03B0912D032D813E812D
:102620004F815885281B390B4A0B5B0BA8EEB3E092
:102630000E94AA31A70196010E948B31CA01B901FB
:102640000E94682F4B015C018091F7029091F80283
:10265000A091F902B091FA0229853A854B855C85F3
:10266000281B390B4A0B5B0BA8EEB3E00E94AA3182
:10267000A70196010E948B31CA01B9010E94682FFF
:102680002B013C012091F0033091F1034091F203C2
:102690005091F30360917D0370917E0380917F03DD
:1026A000909180030E94FF2D69837A838B839C83A2
:1026B00021EE3EE245E652E40E9492306B017C013D
:1026C00020E030E0A9010E948730181674F433240A
:1026D00033942DEC3CEC4CEC5DE3C701B6010E9459
:1026E0008730181674F0312C0CC02DEC3CEC4CECFF
:1026F0005DEBC701B6010E94C62E382E331C332471
:10270000331CA3019201C501B4010E94002E20E0F8
:1027100030E040E05FE30E9492306B017C0120E0FA
:1027200030E0A9010E94873018165CF420E030E008
:1027300040E85FE3C701B6010E94873018165CF0DD
:102740000CC020E030E040E85FEBC701B6010E941A
:10275000C62E87FF02C0332433948090F4039090F8
:10276000F503A090F603B090F70320E030E040E0DE
:102770005FE369817A818B819C810E9492309B0109
:10278000AC01C501B4010E94002E2B013C010E9446
:10279000F5309B01AC01C701B6010E9492309B014C
:1027A000AC016091FC037091FD038091FE03909158
:1027B000FF030E94002E6093FC037093FD0380933F
:1027C000FE039093FF03C301B2010E94CA2E9B0136
:1027D000AC01C701B6010E9492309B01AC0160912F
:1027E000F8037091F9038091FA039091FB030E9422
:1027F000002E6093F8037093F9038093FA0390938B
:10280000FB0329813A814B815C81C501B4010E949F
:10281000002E6093F4037093F5038093F603909376
:10282000F7030BED1FE029E430E44BED5FE069E4D2
:1028300070EC84EF93E00E94171140917D0350915A
:102840007E0360917F03709180034093F003509367
:10285000F1036093F2037093F3032D813E814F8166
:10286000588520932A0330932B0340932C035093D5
:102870002D0389859A85AB85BC858093F70290935B
:10288000F802A093F902B093FA02832D2C960FB6AA
:10289000F894DEBF0FBECDBFDF91CF911F910F9196
:1028A000FF90EF90DF90CF90BF90AF909F908F9070
:1028B0007F906F905F904F903F900895CF93DF93FC
:1028C00000D000D0CDB7DEB77A8369831C821B822B
:1028D000BE016F5F7F4F0E94AE1B8B819C810F906A
:1028E0000F900F900F90DF91CF910895CF92DF92CC
:1028F000EF92FF920F931F93CF93DF93CDB7DEB785
:10290000C454D1090FB6F894DEBF0FBECDBF80E12D
:1029100092E09A83898325961FAE1EAE2597CE013D
:1029200001960E94731A8C0169EA71E00E94131CDF
:102930006BEA71E00E94E41A20E030E04AE754E4D8
:102940006091FC037091FD038091FE039091FF0361
:102950000E94CD2E6B017C0161E971E0C8010E94EB
:10296000131C24E0B701A6010E94F01A20E030E019
:102970004AE754E46091F8037091F9038091FA03F7
:102980009091FB030E94CD2E6B017C0163E971E005
:10299000C8010E94131C24E0B701A6010E94F01A8E
:1029A00021EE3EE245E652E46091F4037091F503B6
:1029B0008091F6039091F7030E9492306B017C01A5
:1029C00065E971E0C8010E94131C21E0B701A6016E
:1029D0000E94F01A6BED74E0C8010E945E148BED4A
:1029E00094E00E94ED2BCC5BDF4F0FB6F894DEBF76
:1029F0000FBECDBFDF91CF911F910F91FF90EF9050
:102A0000DF90CF900895CF92DF92EF92FF920F93D5
:102A10001F93CF93DF93CDB7DEB7C458D1090FB65C
:102A2000F894DEBF0FBECDBF86E192E09A83898322
:102A3000CD57DF4F19821882C358D040CE0101967E
:102A40000E94731A8C0169EA71E00E94131C60EB0A
:102A500071E00E94E41AC0904C03D0904D03E090C6
:102A60004E03F0904F036AEB71E0C8010E94131C03
:102A700022E0B701A6010E94F01AC0905003D09046
:102A80005103E0905203F09053036DEB71E0C801E5
:102A90000E94131C22E0B701A6010E94F01AC09008
:102AA0003E03D0903F03E0904003F090410360EC80
:102AB00071E0C8010E94131C22E0B701A6010E9428
:102AC000F01AC0904203D0904303E0904403F0908A
:102AD000450363EC71E0C8010E94131C22E0B701BA
:102AE000A6010E94F01AC0902603D0902703E09020
:102AF0002803F090290366EC71E0C8010E94131CC2
:102B000022E0B701A6010E94F01A809123030E94DF
:102B10006F287C016AEC71E0C8010E94131CA701B8
:102B2000662757FD6095762F0E94FF1A6BED74E0C3
:102B3000C8010E945E148BED94E00E94ED2BCC57EF
:102B4000DF4F0FB6F894DEBF0FBECDBFDF91CF9140
:102B50001F910F91FF90EF90DF90CF900895FF921B
:102B60000F931F93CF93DF93CDB7DEB7C454D10932
:102B70000FB6F894DEBF0FBECDBFF82E20E132E0D5
:102B80003A83298325961FAE1EAE2597CE01019666
:102B90000E94731A8C0169EA71E00E94131C6DECAB
:102BA00071E00E94E41A6091430170914401C801F0
:102BB0000E94131C4F2D50E060E070E00E94FF1A4D
:102BC0006BED74E0C8010E945E148BED94E00E94EE
:102BD000ED2BCC5BDF4F0FB6F894DEBF0FBECDBF41
:102BE000DF91CF911F910F91FF900895FF920F9366
:102BF0001F93CF93DF93CDB7DEB7C454D1090FB67F
:102C0000F894DEBF0FBECDBFF82E20E132E03A834C
:102C1000298325961FAE1EAE2597CE0101960E94F0
:102C2000731A8C0110926F031092700369EA71E0BD
:102C30000E94131C64ED71E00E94E41A609143014C
:102C400070914401C8010E94131C4F2D50E060E0B8
:102C500070E00E94FF1A6BED74E0C8010E945E14E0
:102C60008BED94E00E94ED2BCC5BDF4F0FB6F89418
:102C7000DEBF0FBECDBFDF91CF911F910F91FF90AF
:102C800008958F929F92AF92BF92CF92DF92EF9270
:102C9000FF92CF93DF930E94DD276B017C0180912F
:102CA000790390917A03E601C81BD90B80917003D8
:102CB0008823E1F080906B0390906C03A0906D03EB
:102CC000B0906E0322EC38EB42EB5EE3C501B40139
:102CD0000E94BB0F81118DC022EC38EB42EB5DE30B
:102CE000C501B4010E94BB0F8111B0C0E091240363
:102CF00080912503F0E0EE0FFF1FEE0FFF1FEF584E
:102D0000FC4F882361F080819181A281B381B095CD
:102D1000A095909581959F4FAF4FBF4F04C0808184
:102D20009181A281B38180932E0390932F03A0936E
:102D30003003B0933103E091F1028091F202F0E0B0
:102D4000EE0FFF1FEE0FFF1FEF58FC4F882361F0BF
:102D500080819181A281B381B095A0959095819554
:102D60009F4FAF4FBF4F04C080819181A281B3813B
:102D70008093FB029093FC02A093FD02B093FE02AD
:102D8000BE0181E293E00E94DB0DBE018EEE92E077
:102D90000E94DB0D609136037091370380913803F8
:102DA000909139030E94352F81E293E00E940F0C2D
:102DB00060910303709104038091050390910603D1
:102DC0000E94352F8EEE92E00E940F0CC092790384
:102DD000D0927A03E0927B03F0927C03DF91CF9153
:102DE000FF90EF90DF90CF90BF90AF909F908F902B
:102DF000089520E030E040E05FE360913603709199
:102E0000370380913803909139030E949230609388
:102E1000360370933703809338039093390320E08F
:102E200030E040E05FE36091030370910403809120
:102E30000503909106030E94923060930303709300
:102E40000403809305039093060350CF20E030E005
:102E500040E050E0BA0181E293E00E94760C20E06D
:102E600030E040E050E0BA018EEE92E00E94760C35
:102E70001092700381E00E94F61538CFEF920F9305
:102E80001F9380E090E0A0E8BFE3809395039093C8
:102E90009603A0939703B09398031092990310920E
:102EA0009A0310929B0310929C0310929D03109220
:102EB0009E0310929F031092A0031092A103109200
:102EC000A2031092A3031092A403109289031092FC
:102ED0008A0310928B0310928C0310928D03109230
:102EE0008E0310928F031092900310929103109210
:102EF0009203109293031092940384E593E00E944E
:102F00000523EE24E39400E010E020E130E04BE004
:102F100050E065E070E081E293E00E94D50CE12C86
:102F200001E010E02FE030E041E150E066E070E0C9
:102F30008EEE92E00E94D50C1F910F91EF900895B4
:102F40000F931F93CF93DF93CDB7DEB7C458D1094A
:102F50000FB6F894DEBF0FBECDBF8BED94E00E949C
:102F6000AC29892B09F44EC08BED94E00E94C52951
:102F70002091EC023091ED028A3089F5C901019669
:102F80009093ED028093EC02F901E459FD4F108219
:102F900086E192E09A838983CD57DF4F19821882A8
:102FA000C358D0404AE06CE672E0CE0101960E9420
:102FB000CD1D8C016FED71E00E94E705882321F0A3
:102FC000C8010E940E1006C06AED71E08BED94E01E
:102FD0000E94012C1092ED021092EC0213C0A90184
:102FE0004F5F5F4F5093ED024093EC02F901E459BB
:102FF000FD4F80834038510508F4AFCF84E090E066
:103000000E944510CC57DF4F0FB6F894DEBF0FBEBD
:10301000CDBFDF91CF911F910F9108950F931F9313
:10302000CF93DF930E94A0178091660281112AC07E
:10303000209134013091350140E050E06091EA0385
:103040007091EB038091EC039091ED030E94693144
:10305000672B682B692BB1F40E94DD270091670272
:10306000109168022091690230916A0206171707D1
:103070002807390738F481E0809366028093EE03D5
:103080000E94F61580913E018823A1F1209136011E
:103090003091370140E050E06091EA037091EB031A
:1030A0008091EC039091ED030E946931672B682BAE
:1030B000692B01F580916B02811119C089B182954C
:1030C0008170C82F20E0D22F80910A0190910B01CE
:1030D000C817D90779F0D0930B01C0930A0183E098
:1030E00080936B028C2F81700E94AF1503C08150BA
:1030F00080936B0280913F018823B1F020913A01C7
:1031000030913B0140E050E06091EA037091EB03A5
:103110008091EC039091ED030E946931672B682B3D
:10312000692B11F40E94411620913C0130913D0120
:1031300040E050E06091EA037091EB038091EC0372
:103140009091ED030E946931672B682B692B49F43C
:103150000E948912882329F08091EE0381110E9438
:103160007614209138013091390140E050E06091AF
:10317000EA037091EB038091EC039091ED030E94C0
:103180006931672B682B692B81F48DE00E948329BC
:1031900061E0892B09F060E08DE00E944D2980916B
:1031A000EF03882311F01D995FC0809140018823AF
:1031B00009F442C04F9B40C084E593E00E94652320
:1031C0008093E90384E593E00E94C0239093E60393
:1031D0008093E5032091E90324FD49C081159440C3
:1031E00009F445C08091E90381FF22C04091E803C2
:1031F00065EA73E084E593E00E94DC2345EA53E04E
:1032000065E973E084E593E00E94E20945E953E053
:1032100069E873E084E593E00E94510A29E833E00D
:1032200045E953E06DE773E084E593E00E941D0BF0
:1032300084E593E00E9485238091EA039091EB035B
:10324000A091EC03B091ED030196A11DB11D8093F7
:10325000EA039093EB03A093EC03B093ED03DF91AB
:10326000CF911F910F9108950E9403159ECF63EE99
:1032700071E08BED94E00E94012CB4CFCF93DF93EB
:10328000EC0188819981DC01ED91FC910190F08144
:10329000E02D09952A813B81280F391F3B832A8322
:1032A000DF91CF910895DB01ED91FC911197019091
:1032B000F081E02DBC01CD0109940F931F93CF93B2
:1032C000DF938C01F801C281D3818881992787FD22
:1032D00090950E945236892B29F02196F801D383CC
:1032E000C283F0CFDF91CF911F910F9108950F937B
:1032F0001F93CF93DF931F92CDB7DEB78C01698305
:103300000E945D19D8011296ED91FC91139780816E
:10331000698186130AC031961396FC93EE93129737
:10332000C8010E945D1981E001C080E00F90DF912B
:10333000CF911F910F910895FB012191BF0122238D
:1033400079F0DC011296ED91FC91139730813213E4
:1033500007C03196DC011396FC93EE931297ECCFE5
:1033600081E0211180E00895BF92CF92DF92EF9229
:10337000FF920F931F93CF93DF937C01EB01009794
:1033800071F468E172E0CE01DF91CF911F910F914E
:10339000FF90EF90DF90CF90BF900C94E42BE881EA
:1033A000F9810190F081E02D62E2CE0109958C0156
:1033B000F70161917F01662351F0E8E2F2E0B0800D
:1033C000BB2079F191819617B1F03296F8CFE88160
:1033D000F9810190F081E02D62E2CE010995800F24
:1033E000911FDF91CF911F910F91FF90EF90DF9090
:1033F000CF90BF900895E881F9810190F081E02D90
:103400006CE5CE0109956C01E881F9810190F081AC
:10341000E02D6B2DCE0109958C0D9D1D080F191FF8
:10342000C7CFE881F9810190F081E02DCE010995A7
:10343000F5CFCF93FC015081523229F0573219F069
:1034400080E090E023C09C012F5F3F4FD901F9013C
:10345000CF0101964081442399F3451791F04C35F3
:1034600069F401964181ECE2F2E0C081CC2331F0B5
:10347000C41302C0418102C03296F7CF4D93FC01C4
:10348000E7CF1C92FB0191838083C901CF910895FE
:10349000DC011296ED91FC911397309731F0611594
:1034A000710531F4CF010296089580E094E008950B
:1034B000615071090190F081E02DEFCFCF93DF9340
:1034C000EC01BC0184E090E00E945319FC010097DC
:1034D00029F0D183C0831382128202C08AE094E073
:1034E000DF91CF910895CF93DF93EC01BC0184E08D
:1034F00090E00E945319FC01009729F0D183C0830A
:103500001382128202C086E094E0DF91CF91089589
:103510000F931F93CF93DF938B01FC01C281D38163
:10352000209759F0B8018A819B810E948836892BA7
:1035300039F00990D881C02DF3CF80E090E001C030
:10354000CE01DF91CF911F910F9108950E94881AAB
:10355000009711F00496089580E094E00895FC012E
:10356000208131812530310519F4828193810895BC
:1035700080E090E00895FC01208131812730310501
:103580002CF06281738184819581089560E070E000
:10359000CB010895FC01208131812630310529F4C9
:1035A0006281738184819581089560E070E0CB0130
:1035B0000895FC0180819181892B29F084E090E0BD
:1035C0009183808362830895FC0180819181892B9E
:1035D00031F085E090E09183808373836283089566
:1035E000FC0180819181892B49F030E0295F3F4FB8
:1035F0003183208342835383648375830895FC0160
:1036000080819181892B41F086E090E091838083D5
:1036100042835383648375830895FC018081918183
:10362000892B31F082E090E0918380837383628301
:103630000895FC0180819181892B31F083E090E035
:1036400091838083738362830895FC01208131819B
:103650002230310521F4828193810C94481A80E054
:1036600094E00895CF93DF93FC01EB012081318139
:103670002230310531F482819381DF91CF910C9416
:10368000881B2330310531F482819381DF91CF9102
:103690000C94AE1B2530310539F468817981828123
:1036A00093810E94B4192BC02630310559F4428110
:1036B0005381648175812AE030E0888199810E947C
:1036C0006C2C1DC02430310569F48281882319F0E7
:1036D0006DE172E002C062E272E0888199810E942D
:1036E000E42B0DC02730310584F0275030E04281B3
:1036F000538164817581888199810E94B52D2A81C9
:103700003B81280F391F3B832A83DF91CF91089596
:103710000F931F93CF93DF93EC018B016BE5C801EF
:103720000E943E190A80DB81C02D209779F0B801F4
:10373000CE0102960E94321B0990D881C02D20979D
:1037400029F06CE2C8010E943E19F1CF6DE5C80175
:10375000DF91CF911F910F910C943E190F931F93FE
:10376000CF93DF938C01EB016BE7CE010E943E19F2
:10377000F801028113810115110509F16881798130
:10378000F801828193810E94B4192A813B81280F1C
:10379000391F3B832A836AE3CE010E943E19BE0192
:1037A000C80104960E94321BF801008111810115A5
:1037B000110529F06CE2CE010E943E19DFCF6DE7C2
:1037C000CE01DF91CF911F910F910C943E19FC0116
:1037D000608171816115710579F08AE090E00E9445
:1037E0005319FC01009741F01182108281E090E0B2
:1037F00095838483CF01089580E090E00895DC01F3
:103800001296ED91FC911397309749F08081918148
:10381000009711F0FC01FACF718360830895FC01D9
:10382000738362830895EF92FF920F931F93CF9358
:10383000DF938C017B010E94881AEC01009761F4F0
:10384000C8010E94E71BEC01009749F0FB82EA8265
:10385000BC01C8010E94FF1BCE01049602C080E09B
:1038600094E0DF91CF911F910F91FF90EF90089519
:10387000FC01608171816115710579F088E090E04B
:103880000E945319FC01009741F01182108281E0DF
:1038900090E093838283CF01089580E090E00895C3
:1038A000DC011296ED91FC911397309749F08081DD
:1038B0009181009711F0FC01FACF71836083089524
:1038C000FC017383628308950F931F93CF93DF935B
:1038D0008C010E94381CEC01009739F0BC01C80132
:1038E0000E94501CCE01029602C080E094E0DF915D
:1038F000CF911F910F910895EF92FF920F931F9315
:10390000CF93DF93EC01888199810E945E1A7C013C
:103910006BE5CE010E947719811103C08AE094E023
:1039200022C06DE5CE010E94771981111BC0C7012D
:103930000E94641C8C01BC01CE010E94BA1CF801DB
:10394000208131812230310548F36DE5CE010E949E
:103950007719811107C06CE2CE010E94771981119D
:10396000E6CFDCCFC701DF91CF911F910F91FF9080
:10397000EF900895EF92FF920F931F93CF93DF93F1
:1039800000D0CDB7DEB78C017B01DC0114968C91A1
:103990001497882309F4A3C0815014968C93C8010E
:1039A0000E945D19F80182819381DC012C912A33F8
:1039B0007CF420330CF03FC0273209F461C024F4BA
:1039C000223209F45DC065C02D522230A0F161C0E1
:1039D0002E3609F442C02CF42B3581F02636B1F096
:1039E00058C0243799F02B3709F053C0C8010E9402
:1039F000781DBC01C7010E94191B4BC0C8010E9461
:103A00007C1CBC01C7010E940D1B43C06DE172E02C
:103A1000C8010E949C19882311F061E008C062E28D
:103A200072E0C8010E949C19882309F160E0C70177
:103A30000E94D91A2EC04AE050E0BE016F5F7F4F4E
:103A40000E941E35AB01BC01E981FA8180818E3272
:103A500029F18F7D8534D1F521C068E172E0C8017C
:103A60000E949C19882319F060E070E00FC086E086
:103A7000E0E0F4E0D70101900D928A95E1F709C0EA
:103A8000B8016E5F7F4F0E94191ABC01C7010E94E6
:103A9000E41AF80184818F5F848321C0B8016E5FCE
:103AA0007F4FD80112968D919C9113970E94BB3342
:103AB000AB01BC01F8012281338189819A81281BE5
:103AC000390B2150C7010E94F01AE3CFD801139699
:103AD000FC93EE931297C7010E94FF1ADACF0F9062
:103AE0000F90DF91CF911F910F91FF90EF9008956C
:103AF000CF92DF92EF92FF920F931F93CF93DF93BA
:103B0000EC01888199810E94731A6C016BE7CE01E8
:103B10000E947719811103C086E094E035C06DE7FB
:103B2000CE010E94771981112EC07E0182E0E80E3D
:103B3000F11CB7018A819B810E94191A8C010097A0
:103B400059F36AE3CE010E947719882329F3B8015B
:103B5000C6010E94131C8C01BC01CE010E94BA1C3C
:103B6000F8012081318122303105B0F26DE7CE01BC
:103B70000E947719811107C06CE2CE010E9477196B
:103B80008111D7CFC9CFC601DF91CF911F910F917E
:103B9000FF90EF90DF90CF900895CF93DF9300D008
:103BA00000D01F92CDB7DEB79A8389837C836B8365
:103BB0004D83CE0101960E94781D0F900F900F90BB
:103BC0000F900F90DF91CF91089510920B041092F7
:103BD0000A0410920D0410920C0410920704109223
:103BE0000604109209041092080410920104109225
:103BF0000004089580913E0490E020913F04821BD0
:103C00009109089520913F0480913E04281750F4B3
:103C1000E22FF0E0E05CFB4F808190E02F5F20938B
:103C20003F0408958FEF9FEF0895E0913F04809146
:103C30003E04E81730F4F0E0E05CFB4F808190E058
:103C400008958FEF9FEF08950895CF92DF92EF923E
:103C5000FF920F931F93CF93DF937C01CB018A01D7
:103C600020911A04222389F0EB016B01C40ED51EAA
:103C7000CC15DD0569F06991D701ED91FC910190BA
:103C8000F081E02DC7010995F3CF642F0E94841FB6
:103C9000C801DF91CF911F910F91FF90EF90DF90BE
:103CA000CF900895CF93DF931F92CDB7DEB769838E
:103CB00020911A042223D1F020911B04203240F0DD
:103CC00021E030E0FC013383228380E090E015C0E6
:103CD00080911C04E82FF0E0E35EFB4F9981908314
:103CE0008F5F80931C0480931B0405C061E0CE01AC
:103CF00001960E94841F81E090E00F90DF91CF91A8
:103D00000895FC011382128248EE53E060E070E0F7
:103D100044835583668377838BE392E0918380832A
:103D2000089510923F0410923E0410921C041092C9
:103D30001B040C94CF1E862F413208F040E260E451
:103D400074E00E94ED1E10923F0480933E0408959B
:103D500021E00C949B1E81E080931A0460933D0443
:103D600010921C0410921B0408950F93062F21E05B
:103D700040911B046DE174E080913D040E94311F6D
:103D800010921C0410921B0410921A040F910895B3
:103D900061E00C94B51E8EE094E00C94811E1092AC
:103DA000CD0481E08093CB041092CA0461E082E1EB
:103DB0000E944D2961E083E10E944D29E9EBF0E08A
:103DC00080818E7F808380818D7F808388E4809353
:103DD000B80085E48093BC000895413208F03FC0EC
:103DE0009091CD049111FCCF91E09093CD0420935C
:103DF000CB042FEF209360041092A504240F20938E
:103E0000A4049093CC049091CC04880F892B8093C8
:103E1000CC048091CA04813041F41092CA0480918C
:103E2000CC048093BB0085EC01C085EE8093BC0080
:103E30008091CD048130E1F38091A504841710F4C2
:103E40004091A50426EA34E0FB01D9018A2F821BA8
:103E5000841718F48D918193F9CF842F089580E011
:103E600008950F93413208F046C09091CD0491110E
:103E7000FCCF92E09093CD040093CB049FEF9093FE
:103E800060041092A5044093A404FB0166EA74E068
:103E9000DB019A2F961B941718F491919D93F9CFFB
:103EA0001092CC049091CC04880F892B8093CC0481
:103EB0008091CA04813041F41092CA048091CC04EC
:103EC0008093BB0085EC01C085EE8093BC0022236B
:103ED00021F08091CD048230E1F3809160048F3F26
:103EE00061F080916004803251F0809160048033F1
:103EF00041F483E007C081E005C080E003C082E0B8
:103F000001C084E00F910895613298F42091CD04AE
:103F1000243089F460938204FC0184E894E0DC019D
:103F20002A2F281B261718F421912D93F9CF80E012
:103F3000089581E0089582E0089585ED8093BC00A6
:103F40008091BC0084FDFCCF1092CD04089585ECD7
:103F50008093BC001092CD0408951F920F920FB66B
:103F60000F9211242F933F934F935F936F937F93FF
:103F70008F939F93AF93BF93EF93FF938091B9007B
:103F8000887F803609F49CC068F5883209F45BC0EC
:103F900090F4803109F454C038F4882309F4F5C052
:103FA000883009F44DC0F5C0883109F44CC0803226
:103FB00009F45DC0EEC0803409F468C048F4803371
:103FC00009F455C0883309F0E4C080936004A8C0A8
:103FD000803509F44FC0883509F45DC0883409F094
:103FE000D8C0D5C0883909F4C6C0A8F4883709F408
:103FF00067C038F4883609F463C0803709F460C0BC
:10400000C8C0883809F4B7C0803909F45FC0803867
:1040100009F0BFC05BC0803B09F485C038F4803A2A
:1040200009F466C0883A09F47EC0B3C0803C09F444
:10403000A6C0883C09F4A3C0883B09F489C0A9C084
:104040008091CC0410C09091A5048091A40498178D
:1040500070F5E091A50481E08E0F8093A504F0E057
:10406000EA55FB4F80818093BB0085EC85C080932F
:1040700060048DC0E091A50481E08E0F8093A504BB
:104080008091BB00F0E0EA55FB4F80839091A5043E
:104090008091A4046DC0E091A50481E08E0F80930F
:1040A000A5048091BB00F0E0EA55FB4F808380912E
:1040B000CB0481116CC081E08093CA0484EA60C0A3
:1040C00083E08093CD0410926104CFCF809161048E
:1040D000803208F050C0E091610481E08E0F80933F
:1040E00061048091BB00F0E0EE59FB4F8083BDCFAF
:1040F00080916104803230F4E0916104F0E0EE5987
:10410000FB4F10820E949D1F6091610470E0E0915E
:10411000C604F091C70482E694E009951092610408
:104120000E94A71F36C084E08093CD0410928304C0
:1041300010928204E091C804F091C904099580911D
:104140008204811105C081E080938204109284046E
:10415000E091830481E08E0F80938304F0E0EC57BC
:10416000FB4F80818093BB009091830480918204F7
:10417000981708F47ACF85E88093BC000AC085ECD4
:104180008093BC001092CD0404C0109260040E9481
:104190009D1FFF91EF91BF91AF919F918F917F9163
:1041A0006F915F914F913F912F910F900FBE0F90A4
:1041B0001F901895EF92FF920F931F93CF93DF9369
:1041C00000D0CDB7DEB7062F142F682F8EE094E015
:1041D00029833A830E94AB1E602F8EE094E00E94F8
:1041E000521E2981022FE22E3A81F32E8E2D801B42
:1041F000811740F4F70161917F018EE094E00E9405
:10420000521EF4CF8EE094E00E94C81E91E081110E
:1042100090E0892F0F900F90DF91CF911F910F9118
:10422000FF90EF900895CF93DF931F92CDB7DEB745
:1042300049839E012F5F3F4F41E00E94DA200F909B
:10424000DF91CF910895DF92EF92FF920F931F932A
:10425000CF93DF93C62F042F7901682F8EE094E06F
:104260000E94AB1E6C2F8EE094E00E94521E10E064
:10427000000F111FD12CCD2DD0E0C017D1078CF429
:10428000CC0FDD1FCE0DDF1D69818EE094E00E9412
:10429000521E68818EE094E00E94521ED394D39403
:1042A000EACF8EE094E00E94C81E91E0811190E078
:1042B000892FDF91CF911F910F91FF90EF90DF90A9
:1042C0000895CF93DF9300D0CDB7DEB75A834983EB
:1042D0009E012F5F3F4F41E00E9423210F900F90DE
:1042E000DF91CF9108953F924F925F926F927F92AC
:1042F0008F929F92AF92BF92CF92DF92EF92FF92F6
:104300000F931F93CF93DF9300D000D000D0CDB791
:10431000DEB7682E562E742E3A8329830E94DD273D
:104320006B017C01312C412C872D90E09C838B8389
:104330004801A12CB12C3714B0F5662D8EE094E025
:104340000E94AB1E652D8EE094E00E94521E8EE00E
:1043500094E00E94C81E662D8EE094E00E94AB1E81
:104360004B815C81431951094132510514F040E2FF
:1043700050E0662D8EE094E00E94A81E8EE094E04E
:104380000E94FA1D892B59F10115110579F10E943E
:10439000DD276C197D098E099F09681579058A0545
:1043A0009B0520F11CC00115110589F10E94DD2734
:1043B0006C197D098E099F0920E030E060177107B4
:1043C0008207930720F1872D90E0242D332727FDC6
:1043D000309528173907DCF444244A9418C0872DF7
:1043E00090E2971508F480E2380EA5CFE981FA81B2
:1043F000E40DF11D47FCFA95FE83ED838EE094E019
:104400000E94021EED81FE8180834394B7CF842DEC
:1044100026960FB6F894DEBF0FBECDBFDF91CF91C9
:104420001F910F91FF90EF90DF90CF90BF90AF90D2
:104430009F908F907F906F905F904F903F900895E6
:104440000F931F9389019A0141E00E9473211F91EC
:104450000F910895DF92EF92FF920F931F93CF93E6
:10446000DF931F92CDB7DEB7D42E79019801AE014C
:104470004F5F5F4F0E94202261E070E001C0660F35
:10448000DA94EAF799819623F70190830F90DF91F0
:10449000CF911F910F91FF90EF90DF900895CF92F1
:1044A000DF92EF92FF920F931F93CF93DF931F92B0
:1044B000CDB7DEB7C42ED22E9701AE014F5F5F4F4E
:1044C0000E9420228823F1F04C2D50E04D19510913
:1044D0004F5F5F4F61E070E002C0660F771FDA94B4
:1044E000E2F761507109042E01C0660F0A94EAF7E1
:1044F0002981262330E002C0359527954A95E2F7B9
:10450000F80120830F90DF91CF911F910F91FF90C1
:10451000EF90DF90CF900895EF92FF920F931F934B
:10452000CF93DF931F92CDB7DEB7182F062FF42E4F
:10453000E22E2091450130914601AE014F5F5F4F61
:104540000E942022898121E030E00F2C01C0220F3F
:104550000A94EAF7EE2019F0482F422B03C0422FAD
:10456000409548234983602F812F0E9413210F908B
:10457000DF91CF911F910F91FF90EF900895DF92FF
:10458000EF92FF920F931F93CF93DF931F92CDB7BC
:10459000DEB7F82EE62ED42E122F20914501309151
:1045A0004601AE014F5F5F4F0E942022882319F120
:1045B0004D2D50E0411B51094F5F5F4FE1E0F0E0AE
:1045C00002C0EE0FFF1F1A95E2F73197042E01C0CB
:1045D000EE0F0A94EAF701C0000F4A95EAF74E2F52
:1045E000409589814823E0234E2B49836E2D8F2DE2
:1045F0000E94132101C080E00F90DF91CF911F91A5
:104600000F91FF90EF90DF90089528E6FC01208342
:104610000895462F69E1FC0180810C9413210F93CA
:10462000062F23E045E06AE1FC0180810E94BF2261
:104630000F9108950F93062F23E042E06AE1FC01F9
:1046400080810E94BF220F9108950F93062F22E0D0
:1046500044E06BE1FC0180810E94BF220F9108952C
:104660000F93062F22E044E06CE1FC0180810E9460
:10467000BF220F910895462F6FE1FC0180810C94B9
:104680001321462F60E2FC0180810C941321462FF8
:1046900061E2FC0180810C941321462F62E2FC014F
:1046A00080810C941321643048F4262F220F260FAA
:1046B0002B5D622FFC0180810C9413210895462FFD
:1046C00068E3FC0180810C941321CF93DF93EC010C
:1046D0002091450130914601AC014F5F5F4F6AE385
:1046E00088810E9420228981DF91CF910895262F11
:1046F00046E06AE6FC0180810C948C22262F45E07E
:104700006AE6FC0180810C948C2221E042E06AE69A
:10471000FC0180810C948C2221E041E06AE6FC01DE
:1047200080810C948C2221E047E06BE6FC018081C3
:104730000C948C22262F46E06BE6FC0180810C94C1
:104740008C220F93062F23E042E06BE6FC01808170
:104750000E94BF220F910895CF93DF93EC0161E097
:104760000E94A12360E0CE010E94252360E0CE01DB
:104770000E94302360E0CE01DF91CF910C949A2308
:104780000F931F93CF93DF93EC010091450110919C
:1047900046019C012F5F3F4F42E062E788810E9403
:1047A0007321898190E0982F88272A81822BDF91BD
:1047B000CF911F910F9108950F931F939B0100912B
:1047C00045011091460164E7FC0180810E9473213C
:1047D0001F910F910895EF92FF920F931F93CF9324
:1047E000DF93EC01E0904501F09046018C010F5FF2
:1047F0001F4F26E046E065E788810E944F228981AD
:10480000DF91CF911F910F91FF90EF9008950E943B
:10481000EB2391E0843309F090E0892F08950F9302
:104820001F93CF93DF93EC01009145011091460156
:104830009C012F5F3F4F40E060E088810E942A2268
:104840008981DF91CF911F910F910895262F40E02C
:1048500060E0FC0180810C948C22EF92FF920F9318
:104860001F93CF93DF93EC01E0904501F090460158
:104870008C010F5F1F4F26E046E060E088810E94B8
:104880004F228981DF91CF911F910F91FF90EF907F
:1048900008950F93062F26E046E060E0FC0180813A
:1048A0000E94BF220F910895EF92FF920F931F93E2
:1048B000CF93DF93EC01E0904501F09046018C012D
:1048C0000F5F1F4F26E046E061E088810E944F2283
:1048D0008981DF91CF911F910F91FF90EF90089503
:1048E0000F93062F26E046E061E0FC0180810E94E4
:1048F000BF220F910895EF92FF920F931F93CF93D2
:10490000DF93EC01E0904501F09046018C010F5FD0
:104910001F4F26E046E062E088810E944F22898195
:10492000DF91CF911F910F91FF90EF9008950F931A
:10493000062F26E046E062E0FC0180810E94BF2253
:104940000F910895AB0166E0FC0180810C94612118
:10495000AB0168E0FC0180810C946121AB016AE04D
:10496000FC0180810C946121AB0163E1FC01808139
:104970000C946121AB0165E1FC0180810C94612103
:10498000AB0167E1FC0180810C946121262F47E097
:104990006AE6FC0180810C948C2221E043E06AE607
:1049A000FC0180810C948C226F7121116062411195
:1049B0006064462F6DE6FC0180810C941321462F24
:1049C0006EE6FC0180810C941321CF93DF93EC0100
:1049D0002091450130914601AC014F5F5F4F6FE67A
:1049E00088810E9420228981DF91CF9108955F9272
:1049F0006F927F928F929F92AF92BF92CF92DF92EF
:104A0000EF92FF920F931F93CF93DF937C015B0193
:104A10006A01622E702E20E040E0662D0E94D424B0
:104A2000602FC7010E94DF24C0E0D0E0812C9924D0
:104A30009394CC15DD05A8F5CE014096C816D9068D
:104A400018F45C2C5C1A02C0A0E15A2E252D30E02F
:104A5000C401871991098217930714F4572C5194B4
:104A6000009145011091460195012C0F3D1F452DE8
:104A70006FE6F70180810E947321C50DD11D750C71
:104A8000CC15DD05B0F6711001C0639420E040E064
:104A9000662DC7010E94D424672DC7010E94DF2420
:104AA000C8CFDF91CF911F910F91FF90EF90DF90D2
:104AB000CF90BF90AF909F908F907F906F905F90BE
:104AC00008952F923F924F925F926F927F928F92B2
:104AD0009F92AF92BF92CF92DF92EF92FF920F938D
:104AE0001F93CF93DF9300D000D01F92CDB7DEB7D6
:104AF0009D838C837B836A834A01322ED02EE98288
:104B000020E040E0632D0E94D424602F8C819D81A1
:104B10000E94DF24E980EE2029F080E190E00E94ED
:104B2000CA315C01CC2031F080E190E00E94CA31B2
:104B3000582E492EE12CF12CE814F90408F07AC023
:104B4000C70140968816990618F4282C2E1802C022
:104B500010E1212E222D30E080E091E08D199109A5
:104B60008217930714F42D2C2194EA81FB81EE0D1A
:104B7000FF1DCC2059F0852DA52DB42D9A2F981B03
:104B8000921530F494919D933196F8CF5E2E4F2E6E
:104B9000252D342D422D6FE6AC81BD818C910E9474
:104BA000DA20622C712CB981BB2369F1A114B10404
:104BB00051F120E040E0632D8C819D810E94D4243E
:104BC0006D2D8C819D810E94DF2400914501109103
:104BD00046019501422D6FE6EC81FD8180810E94A6
:104BE0007321A301B501852D942D0E947236892B66
:104BF00051F0C5010E946232CC2049F1852D942DDF
:104C00000E94623224C0E60CF71CD20CE814F904AE
:104C100008F092CFD11001C0339420E040E0632D22
:104C20008C819D810E94D4246D2D8C819D810E9458
:104C3000DF2482CFF981FF2319F0C5010E9462327F
:104C4000CC2039F0852D942D0E94623202C080E084
:104C500001C081E00F900F900F900F900F90DF91A7
:104C6000CF911F910F91FF90EF90DF90CF90BF9069
:104C7000AF909F908F907F906F905F904F903F90FC
:104C80002F900895CF92EF920F93CC24C3940E945B
:104C900061250F91EF90CF9008952F923F924F9200
:104CA0005F926F927F928F929F92AF92BF92CF92BC
:104CB000DF92EF92FF920F931F93CF93DF9300D079
:104CC0001F92CDB7DEB74C017B836A833A01D22EA7
:104CD000222331F088E090E00E94CA31182FF92E8B
:104CE000212C312C2614370408F051C0EA81FB81B5
:104CF000E20DF31DC10103965C01DD20C1F044917A
:104D0000F10131968A819B81E80FF91F0491F1012D
:104D10003296E80FF91F5490511044C0F4E02F0E62
:104D2000311CEA81FB81EA0DFB1D84910DC040819D
:104D300001815280EA81FB81E80FF91F51100DC0FB
:104D400084E0280E311C80818130D1F442E368E395
:104D5000F40180810E941321C5CF1E2FFF2E452C08
:104D6000512CC12CEE24E394242FA201612F7F2D1E
:104D7000C4010E94612512012A0C3B1C8111B2CF93
:104D8000DD2061F0812F9F2D0E94623207C0DD205F
:104D900039F0812F9F2D0E94623202C080E024C032
:104DA00081E022C0252C312CF2E0F51548F4B10148
:104DB000812F9F2D49830E94F132182FF92E4981AE
:104DC000812F9F2DA0E0B0E02A813B812A0D3B1D61
:104DD000A215B30520F6F901EA0FFB1F5491FC015F
:104DE0005193CF011196F4CF0F900F900F90DF9158
:104DF000CF911F910F91FF90EF90DF90CF90BF90D8
:104E0000AF909F908F907F906F905F904F903F906A
:104E10002F90089521E00C944D26462F60E7FC0169
:104E200080810C941321462F61E7FC0180810C9452
:104E300013218230E8F4E82FF0E0EE0FFF1FE25379
:104E4000FB4F71836083813041F0809169008C7FDA
:104E5000842B80936900E89A089580916900440F3B
:104E6000551F440F551F837F842B80936900E99A57
:104E700008951F920F920FB60F9211242F933F9314
:104E80004F935F936F937F938F939F93AF93BF9352
:104E9000EF93FF938091CE049091CF04892B29F05A
:104EA000E091CE04F091CF040995FF91EF91BF916D
:104EB000AF919F918F917F916F915F914F913F91B2
:104EC0002F910F900FBE0F901F9018951F920F9269
:104ED0000FB60F9211242F933F934F935F936F93CD
:104EE0007F938F939F93AF93BF93EF93FF938091A3
:104EF000D0049091D104892B29F0E091D004F09155
:104F0000D1040995FF91EF91BF91AF919F918F913E
:104F10007F916F915F914F913F912F910F900FBEB5
:104F20000F901F9018951F920F920FB60F92112499
:104F30002F933F938F939F93AF93BF938091D3040D
:104F40009091D404A091D504B091D6043091D204AC
:104F500023E0230F2D3720F40196A11DB11D05C0BC
:104F600026E8230F0296A11DB11D2093D204809341
:104F7000D3049093D404A093D504B093D604809125
:104F8000D7049091D804A091D904B091DA04019685
:104F9000A11DB11D8093D7049093D804A093D90488
:104FA000B093DA04BF91AF919F918F913F912F9170
:104FB0000F900FBE0F901F9018952FB7F894609127
:104FC000D3047091D4048091D5049091D6042FBF5E
:104FD00008953FB7F8948091D7049091D804A09198
:104FE000D904B091DA0426B5A89B05C02F3F19F06B
:104FF0000196A11DB11D3FBF6627782F892F9A2FDB
:10500000620F711D811D911D42E0660F771F881F81
:10501000991F4A95D1F70895CF92DF92EF92FF92B0
:10502000CF93DF936B017C010E94E927EB01C11450
:10503000D104E104F10489F00E94FE2D0E94E927C9
:105040006C1B7D0B683E734090F381E0C81AD10859
:10505000E108F108C851DC4FEACFDF91CF91FF9012
:10506000EF90DF90CF900895789484B5826084BDEE
:1050700084B5816084BD85B5826085BD85B581605C
:1050800085BDEEE6F0E0808181608083E1E8F0E0BC
:105090001082808182608083808181608083E0E8EB
:1050A000F0E0808181608083E1EBF0E080818460CA
:1050B0008083E0EBF0E0808181608083EAE7F0E0CC
:1050C0008081846080838081826080838081816030
:1050D00080838081806880831092C10008958E3023
:1050E00008F08E5087702091470190E4299F90012D
:1050F0001124822B80937C0080917A0080648093BD
:105100007A0080917A0086FDFCCF80917800209112
:10511000790090E0922B08951F93CF93DF93182F7F
:10512000EB0161E00E941429209711F460E004C0B3
:10513000CF3FD10539F461E0812FDF91CF911F91ED
:105140000C944D29E12FF0E0E45DF64FE491E3305B
:10515000F9F048F4E130B9F0E230A1F584B58062AD
:1051600084BDC8BD34C0E730E9F0E83019F1E4305F
:1051700049F580918000806280938000D0938B00FD
:10518000C0938A0024C084B5806884BDC7BD1FC099
:1051900080918000806880938000D0938900C093C4
:1051A000880015C08091B00080688093B000C093E3
:1051B000B3000DC08091B00080628093B000C093B6
:1051C000B40005C0C038D1050CF0B5CFAFCFDF912A
:1051D000CF911F910895833081F028F4813099F0A8
:1051E0008230A1F008958730A9F08830B9F084307A
:1051F000D1F4809180008F7D03C0809180008F77F3
:1052000080938000089584B58F7702C084B58F7D28
:1052100084BD08958091B0008F7703C08091B00065
:105220008F7D8093B0000895CF93DF9390E0FC01D1
:10523000E05CF64F2491FC01EC5AF64F84918823F0
:1052400049F190E0880F991FFC01E458F64FA591B1
:10525000B4918E58964FFC01C591D4919FB76111BE
:1052600008C0F8948C91209582238C9388818223A6
:105270000AC0623051F4F8948C91322F3095832318
:105280008C938881822B888304C0F8948C91822B24
:105290008C939FBFDF91CF9108950F931F93CF936E
:1052A000DF931F92CDB7DEB7282F30E0F901E45D20
:1052B000F64F8491F901E05CF64F1491F901EC5A34
:1052C000F64F04910023C9F0882321F069830E94DE
:1052D000EB286981E02FF0E0EE0FFF1FEE58F64F4C
:1052E000A591B4919FB7F8948C91611103C010956A
:1052F000812301C0812B8C939FBF0F90DF91CF91B1
:105300001F910F910895CF93DF93282F30E0F9017B
:10531000E45DF64F8491F901E05CF64FD491F90118
:10532000EC5AF64FC491CC2391F081110E94EB28E6
:10533000EC2FF0E0EE0FFF1FE859F64FA591B49166
:105340002C912D2381E090E021F480E002C080E0E8
:1053500090E0DF91CF910895FC01818D228D90E046
:10536000805C9F4F821B91098F7399270895FC01E0
:10537000918D828D981731F0828DE80FF11D858D0A
:1053800090E008958FEF9FEF0895FC01918D828D3D
:10539000981761F0828DDF01A80FB11D5D968C9189
:1053A000928D9F5F9F73928F90E008958FEF9FEF94
:1053B000089589E49BE2892B49F080E090E0892BF5
:1053C00029F00E94492B81110C9400000895FC01E2
:1053D000848DDF01A80FB11DA35ABF4F2C91848D7E
:1053E00090E001968F739927848FA689B7892C93B3
:1053F000A089B1898C9180648C93938D848D98134E
:1054000006C00288F389E02D80818F7D8083089516
:10541000CF93DF93EC01888D8823C9F0EA89FB895B
:10542000808185FD05C0A889B9898C9186FD0FC052
:105430000FB607FCF5CF808185FFF2CFA889B98927
:105440008C9185FFEDCFCE010E94E729E7CFDF9158
:10545000CF910895CF92DF92FF920F931F93CF9336
:10546000DF931F92CDB7DEB76C01DC015B969C9198
:105470005B975C968C915C97981307C05096ED9162
:10548000FC915197808185FD32C0F601038D10E0BB
:105490000F5F1F4F0F731127F02EF601848DF81246
:1054A00011C00FB607FCF9CFD6015096ED91FC91D3
:1054B0005197808185FFF1CFC60169830E94E7295A
:1054C0006981EBCF838DE80FF11DE35AFF4F6083B5
:1054D000D6015B960C935B975296ED91FC91539796
:1054E00080818062808381E058968C930DC0D601C4
:1054F0005696ED91FC91579760835096ED91FC91F3
:10550000519780818064808381E090E00F90DF91EB
:10551000CF911F910F91FF90DF90CF900895BF9290
:10552000CF92DF92EF92FF92CF93DF93EC016A016B
:105530007B01B22EE889F98982E08083411581EEF2
:10554000580761057105A1F060E079E08DE390E016
:10555000A70196010E946931215031094109510981
:105560005695479537952795211580E1380798F08E
:10557000E889F989108260E874E88EE190E0A7017B
:1055800096010E946931215031094109510956950E
:10559000479537952795EC85FD853083EE85FF850A
:1055A0002083188EEC89FD89B082EA89FB8980818D
:1055B00080618083EA89FB89808188608083EA89B1
:1055C000FB89808180688083EA89FB8980818F7D67
:1055D0008083DF91CF91FF90EF90DF90CF90BF90CD
:1055E00008951F920F920FB60F9211242F938F934D
:1055F0009F93EF93FF93E091EB04F091EC04808193
:10560000E091F104F091F20482FD12C0908180914A
:10561000F4048F5F8F732091F504821751F0E091AD
:10562000F404F0E0E552FB4F958F8093F40401C041
:105630008081FF91EF919F918F912F910F900FBEDD
:105640000F901F9018951F920F920FB60F92112472
:105650002F933F934F935F936F937F938F939F937A
:10566000AF93BF93EF93FF938BED94E00E94E729F4
:10567000FF91EF91BF91AF919F918F917F916F912A
:105680005F914F913F912F910F900FBE0F901F9000
:1056900018958BED94E00E94AC2921E0892B09F448
:1056A00020E0822F08951092DE041092DD0488EE2F
:1056B00093E0A0E0B0E08093DF049093E004A09337
:1056C000E104B093E2048BE492E09093DC048093D5
:1056D000DB0485EC90E09093E8048093E70484EC8D
:1056E00090E09093EA048093E90480EC90E090933A
:1056F000EC048093EB0481EC90E09093EE048093B3
:10570000ED0482EC90E09093F0048093EF0486EC3B
:1057100090E09093F2048093F1041092F4041092BC
:10572000F5041092F6041092F704089508950E946B
:1057300034280E94962B0E946810C9EDD9E20E947D
:105740000E182097E1F30E94D929F9CFCF92DF926A
:10575000EF92FF920F931F93CF93DF936C017A0127
:10576000EB01E60EF71E00E010E0CE15DF0561F05C
:105770006991D601ED91FC910190F081E02DC60177
:105780000995080F191FF1CFC801DF91CF911F9123
:105790000F91FF90EF90DF90CF9008956115710504
:1057A00081F0DB010D900020E9F7AD014150510976
:1057B000461B570BDC01ED91FC910280F381E02D3B
:1057C000099480E090E008950C94CE2BDC01ED91DB
:1057D000FC910190F081E02D09940F931F93CF93DA
:1057E000DF93EC016DE00E94E62B8C016AE0CE01B4
:1057F0000E94E62B800F911FDF91CF911F910F9197
:1058000008950F931F93CF93DF93EC010E94CE2B4B
:105810008C01CE010E94ED2B800F911FDF91CF9163
:105820001F910F9108958F929F92AF92BF92CF9246
:10583000DF92EF92FF920F931F93CF93DF93CDB739
:10584000DEB7A1970FB6F894DEBF0FBECDBF7C01C7
:10585000C42EE52FCB01D22E19A221E02D1510F078
:105860002AE0D22E8E010F5D1F4F8D2C912CA12C82
:10587000B12C6C2D7E2FA50194010E9469318C2DD5
:10588000D29E80191124015011098A3014F4805DD0
:1058900001C0895CF801808321153105410551055E
:1058A00021F0C22EE32FCA01E4CFB801C7010E9444
:1058B000CE2BA1960FB6F894DEBF0FBECDBFDF9101
:1058C000CF911F910F91FF90EF90DF90CF90BF90FD
:1058D000AF909F908F900895CF92DF92EF92FF92BA
:1058E0000F931F93CF93DF93EC016A017B01211586
:1058F000310579F4E881F9810190F081E02D642F80
:10590000DF91CF911F910F91FF90EF90DF90CF909B
:1059100009942A303105E9F477FF1AC06DE20E943C
:10592000E62B8C0144275527BA014C195D096E09F5
:105930007F092AE0CE010E94132C800F911FDF9176
:10594000CF911F910F91FF90EF90DF90CF9008952E
:105950002AE0B701A601CE01DF91CF911F910F91EF
:10596000FF90EF90DF90CF900C94132C2115310510
:1059700041F4DC01ED91FC910190F081E02D642F68
:1059800009940C94132C9A01462F50E060E070E0CB
:105990000C94B62C4F925F926F927F928F929F924F
:1059A000AF92BF92CF92DF92EF92FF920F931F932D
:1059B000CF93DF93EC016A017B01B22E9A01AB0118
:1059C000C701B6010E944031882319F067E572E0F3
:1059D00027C026013701E89477F82FEF3FEF4FE714
:1059E0005FE7C301B2010E94403181110DC02FEF6A
:1059F0003FEF4FE75FE7C301B2010E94C62E1816C2
:105A00001CF46BE572E00CC02FEF3FEF4FE75FE453
:105A1000C701B6010E9487301816ACF46FE572E03A
:105A2000CE01DF91CF911F910F91FF90EF90DF900A
:105A3000CF90BF90AF909F908F907F906F905F902E
:105A40004F900C94CE2B2FEF3FEF4FE75FECC70149
:105A5000B6010E94C62E87FDE1CF20E030E0A9010B
:105A6000C701B6010E94C62E87FF0AC06DE2CE01B3
:105A70000E94E62B8C01F7FAF094F7F8F09402C03C
:105A800000E010E0A12C60E070E080E09FE3AB1448
:105A900041F020E030E040E251E40E94CD2EA3949A
:105AA000F6CF9B01AC01C701B6010E94002E6B012D
:105AB0007C010E943A2F2B013C010E94662F9B0122
:105AC000AC01C701B6010E94FF2D6B017C012AE0E9
:105AD000B301A201CE010E94132C080F191FBB2095
