:100000000C94E5040C940F270C943C270C940D05DC
:100010000C940D050C940D050C940D050C940D0518
:100020000C940D050C940D050C940D050C940D0508
:100030000C940D050C940D050C940D050C940D05F8
:100040000C9469270C940D050C94AA2A0C94DC2AB4
:100050000C940D050C940D050C940D050C940D05D8
:100060000C94831F0C940D05084AD73B3BCE016EC0
:1000700084BCBFFDC12F3D6C74319ABD56833DDAFF
:100080003D00C77F11BED9E4BB4C3E916BAAAABE0E
:10009000000000803F05A84CCDB2D44EB93836A937
:1000A000020C50B9918688083CA6AAAA2ABE000074
:1000B00000803F0001B202FFFF0190040923A13537
:1000C000016A020600016008000000000000000054
:1000D00000600440000000016202000000600400B3
:1000E000400000037B034CCD6C03AB033656760017
:1000F000680402CB47A202180400058BC1010C045E
:1001000000000000037F060CC92C97979703890312
:10011000264666006C022000024004000000000237
:1001200044040000000002480400000000024C04E7
:10013000000000000250040000000002540400000F
:10014000000002580400000000025C0400000000EF
:1001500002BC040000000001EC0400004000037F2A
:10016000060CC92C9797970402030D355D0409040A
:10017000872D353D00A3010000000001078601FE28
:10018000074105F120283038077E01300746019AE3
:10019000074704F1283038076C04F128303802167C
:1001A000020001FB00003E000B00360001000200CF
:1001B00003000000650054FFEF0000FA80000B12FE
:1001C00082000100020000000000000000000000AA
:1001D00000000000280000FFFF4581FFFFFA7200C9
:1001E000000000000003E80000000100017FFFFFA5
:1001F000FE8001001B000000000000000000000065
:10020000000000003E03304000000002CAE3093E47
:10021000800000200000000000000040000000609E
:1002200000000041FF000000000B2A0000165500EE
:10023000002182FD872650FD800000001F00000085
:100240000580000000000000010000000200000026
:10025000030000400000000000046F00026532004F
:10026000005EC04000000000000000000000000030
:10027000000000FB8C6F5DFD5D08D9007C733B00C6
:100280006C12CC3200139D3200D0D63200080040F0
:100290000001F4FFE68079020000000000D0D600E3
:1002A000002710FB000000400000000000000000DC
:1002B000000000000000010000000000000100013B
:1002C0000000000000FA36FFBC308E0005FBF0FF96
:1002D000D95BC8FFD09ABE000010A9FFF41EB2007F
:1002E000CEBBF70000000100000004000200020283
:1002F00000000CFFC280000001800000CF800040A1
:1003000000000000000001000000000000060000E6
:1003100000001400000000000000000000000000C9
:1003200000000000000000000000000000000000CD
:1003300000000000000000000000000000000000BD
:1003400000000000000000033F68B6793528BCC6F5
:100350007ED16C80000000400000000000B26A0006
:10036000000000000000000000000000003FF0005E
:10037000000030000000000000000000000000004D
:10038000000000000000000000000000000000006D
:100390000000000000254D002F706D000005AE002C
:1003A0000C02D00000000000650054FFEF000000C8
:1003B000000000000001000044000000000C0000EC
:1003C000000100000000000065000000540000FF74
:1003D000EF0000000000000000000000000000002E
:1003E00000000040000000000000000000000000CD
:1003F00000000040000000000000000000000000BD
:1004000000000000000001000000020000000000E9
:1004100000000000000000000000000000000000DC
:1004200000000000000000000000000000000000CC
:10043000000000001B0000000000000000000000A1
:1004400000000000000000000000000000000000AC
:10045000000000000000000000000000000000405C
:10046000000000001B000000000000000000000071
:10047000000000000000000000000000000000007C
:10048000000000000000000000000000000000006C
:10049000000000000000000000000000000000005C
:1004A000000000D8DCBAA2F1DEB2B8B4A88191F79E
:1004B0004A907F916AF3F9DBA8F9B0BAA080F2CE36
:1004C00081F3C2F1C1F2C3F3CCA2B280F1C6D880ED
:1004D000BAA7DFDFDFF2A7C3CBC5B6F087A29424AB
:1004E00048703C95406834589B78A2F183922D5512
:1004F0007DD8B1B4B8A1D09180F270F370F27C8055
:10050000A8F101B09887D943D886C988BAA1F20E5C
:10051000B89780F1A9DFDFDFAADFDFDFF2AAC5CD60
:10052000C7A90CC92C97979797F1A989264666B059
:10053000B4BA80ACDEF2CAF1B28C02A9B6980089D6
:100540000E161EB8A9B4992C547CB08AA8963656BB
:1005500076F1B9AFB4B083C0B8A89711B18F98B98C
:10056000AFF0240844106418F1A329557DAF83B57A
:1005700093AFF0002850F1A3869F61A6DADEDFD9A1
:10058000FAA38696DB31A6D9F8DFBAA68FC2C5C713
:10059000B28CC1B8A2DFDFDFA3DFDFDFD8D8F1B8CC
:1005A000A8B286B4980D355DB8AA98B0872D353DB0
:1005B000B2B6BAAF8C96198F9FA70E161EB49AB812
:1005C000AA872C547CB9A3DEDFDFA3B180F2C4CDAF
:1005D000C9F1B8A9B499830D355D89B9A32D557DAD
:1005E000B593A30E161EA92C547CB8B4B0F1978312
:1005F000A81184A50998A383F0DA2408441064188C
:10060000D8F1A529557DA58595021A2E3A565A404E
:1006100048F9F3A3D9F8F098832408441064189794
:1006200082A8F111F098A2240844106418DAF3DECD
:10063000D883A59401D9A302F1A2C3C5C7D8F18478
:1006400092A24DDA2AD84869D92AD86855DA32D820
:100650005071D932D8705DDA3AD85879D93AD87809
:1006600093A34DDA2AD84869D92AD86855DA32D8FE
:100670005071D932D8705DDA3AD85879D93AD878E9
:10068000A88A9AF02850789EF38818F19F1D98A8A0
:10069000D908D8C89F129EF315A8DA1210D8F1AF66
:1006A000C8978734B5B994A421F3D922D8F22DF391
:1006B000D92AD8F235F3D932D881A4606061D961E2
:1006C000D86C6869D969D8747071D971D8B1A384AC
:1006D000193D5DA3831A3E5E931030811011B8B0AE
:1006E000AF8F94F2DA3ED8B49AA88729DAF8D8877F
:1006F0009A35DAF8D8879A3DDAF8D8B1B9A498854E
:10070000022E56A581000C14A397B08AF12DD9288A
:10071000D84DD948D86DD968D8B1840DDA0ED8A390
:100720002983DA2C0ED8A3844983DA2C4C0ED8B84E
:10073000B0A88A9AF520AADADFD8A840AAD0DADED3
:10074000D8A860AADAD0DFD8F19786A8319B06999D
:1007500007AB9728889BF00C201440B8B0B4A88C45
:100760009CF0042851791D301438B282ABD0982CFB
:10077000505078789BF11AB0F08A9CA82951798B57
:100780002951798A2470598B2058718A4469388B91
:100790003940688A6448318B304960A588200971E6
:1007A000584468113964493019F1AC002C547CF07C
:1007B0008CA804285078F1889726A85998AC8C0208
:1007C000264666F0899CA8295179247059446938D5
:1007D000644831A98809205970AB11384069A819BB
:1007E0003148608CA83C415C207C00F187981986D8
:1007F000A86E767EA999882D557D9EB9A38A228AF6
:100800006E8A568A5E9FB183062646660E2E4E6E0F
:100810009DB8AD002C547CF2B18CB499B9A32D5580
:100820007D8191AC38AD3AB58391AC2DD928D84DA6
:10083000D948D86DD968D88C9DAE29D904AED85185
:10084000D904AED879D904D881F39DAD008DAE1905
:1008500081ADD901D8F2AEDA26D88E912983A7D9F5
:10086000ADADADADF32AD8D8F1B0AC89913E5E768E
:10087000F3AC2E2EF1B18C5A9CAC2C2828289CACC1
:100880003018A8988128343C9724A728343C9C240D
:10089000F2B089AC912C4C6C8A9B2DD9D8D851D907
:1008A000D8D879D9D8D8F19E88A331DAD8D8912D63
:1008B000D928D84DD948D86DD968D8B18393353D5A
:1008C0008025DAD8D88569DAD8D8B49381A32834BA
:1008D0003CF3AB8BF8A391B609B4D9ABDEFAB08781
:1008E0009CB9A3DDF1A3A3A3A395F1A3A3A39DF1B9
:1008F000A3A3A3A3F2A3B49080F2A3A3A3A3A3A34F
:10090000A3A3A3A3B2A3A3A3A3A3A3B087B599F161
:10091000A3A3A398F1A3A3A3A397A3A3A3A3F39B28
:10092000A3A3DCB9A7F1262626D8D8FF000000082B
:1009300000020100000304070000000000000000A6
:100940000102040810204080010204081020010266
:100950000408102004040404040404040202020233
:100960000202030303030303000000002300260028
:10097000290000000000250028002B0000000000D6
:10098000240027002A004E414E494E495459494EF1
:1009900046CDCCCC3D0AD7233C17B7D13877CC2BEA
:1009A000329595E6241FB14F0A000020410000C88F
:1009B0004200401C4620BCBE4CCA1B0E5AAEC59D10
:1009C00074000E17BB1DA11E0C2B11241FBECFEFF0
:1009D000D8E0DEBFCDBF12E0A0E0B1E0ECE0FDE684
:1009E00002C005900D92AE35B107D9F725E0AEE50E
:1009F000B2E001C01D92A238B207E1F719E0CAECDB
:100A0000D9E004C02297FE010E947031C23CD10798
:100A1000C9F70E94502B0C9484360C9400001F924E
:100A20000F920FB60F9211242F938F939F93AF9332
:100A3000BF9323B1822F817090E04A9B03C0892B22
:100A400019F00EC0892B61F08091690390916A03BF
:100A5000A0916B03B0916C030196A11DB11D0BC059
:100A60008091690390916A03A0916B03B0916C032C
:100A70000197A109B1098093690390936A03A09338
:100A80006B03B0936C03BF91AF919F918F912F91A6
:100A90000F900FBE0F901F9018951F920F920FB6D8
:100AA0000F9211242F938F939F93AF93BF9323B1F2
:100AB00021FB882780F990E04B9B03C0892B19F01C
:100AC0000EC0892B61F080916D0390916E03A0910F
:100AD0006F03B09170030196A11DB11D0BC08091F1
:100AE0006D0390916E03A0916F03B0917003019715
:100AF000A109B10980936D0390936E03A0936F03D6
:100B0000B0937003BF91AF919F918F912F910F90F0
:100B10000FBE0F901F9018959C01FC01EE57FF4FE0
:100B200080819181680F791F6138710530F471837C
:100B300060830296820F931F089580E090E00895ED
:100B40009C01FC01EE5BFF4F80819181680F791F52
:100B50006134710530F4718360830296820F931FB4
:100B6000089580E090E00895609143017091440100
:100B70000E94E91B0E94A01A21E06130710509F072
:100B800020E0209332010895609143017091440167
:100B90000E94E91B0E94A01A21E06130710509F052
:100BA00020E02093F2030895609143017091440185
:100BB0000E94E91B0E94A01A21E06130710509F032
:100BC00020E020933301622F8CE00C9406290E94D0
:100BD0007C1AFC0181E0208131812230310508F44A
:100BE00080E00895CF93DF93EC0167E471E00E9409
:100BF000E705882311F167E471E0CE010E94E91B4B
:100C000060E070E00E94FB1A0E94911A0E94EE2E92
:100C10007093600360935F0367E471E0CE010E940C
:100C2000E91B61E070E00E94FB1A0E94911A0E9489
:100C3000EE2E70936203609361036CE471E0CE0169
:100C40000E94E705882309F469C06CE471E0CE01D5
:100C50000E94E91B60E070E00E94FB1A0E94911A5A
:100C6000609335017093360180933701909338017A
:100C70006CE471E0CE010E94E91B61E070E00E942B
:100C8000FB1A0E94911A6093390170933A01809384
:100C90003B0190933C016CE471E0CE010E94E91BA2
:100CA00062E070E00E94FB1A0E94911A60933D017D
:100CB00070933E0180933F019093400110920D0389
:100CC00010920E0310920F03109210031092400323
:100CD00010924103109242031092430310920903B1
:100CE00010920A0310920B0310920C0310923C0313
:100CF00010923D0310923E0310923F0310920503A1
:100D00001092060310920703109208031092380302
:100D10001092390310923A0310923B0360E571E0A0
:100D2000CE010E94E705882309F45CC060E571E00C
:100D3000CE010E94E91B60E070E00E94FB1A0E9455
:100D4000A01A8CE493E00E94782460E571E0CE0163
:100D50000E94E91B61E070E00E94FB1A0E94A01A49
:100D60008CE493E00E947E2460E571E0CE010E9455
:100D7000E91B62E070E00E94FB1A0E94A01A8CE45A
:100D800093E00E94842460E571E0CE010E94E91B9B
:100D900063E070E00E94FB1A0E94A01A8CE493E0CA
:100DA0000E948A2460E571E0CE010E94E91B64E0A4
:100DB00070E00E94FB1A0E94A01A8CE493E00E944B
:100DC000902460E571E0CE010E94E91B65E070E0CF
:100DD0000E94FB1A0E94A01A8CE493E0DF91CF914D
:100DE0000C949624DF91CF910895CF93DF93EC017B
:100DF00060914301709144010E94E91B0E94A01A76
:100E000021E06130710509F020E02093F303609147
:100E1000410170914201CE010E94E705882369F0EB
:100E20006091410170914201CE010E94E91B0E9434
:100E3000A01A70932D0160932C01DF91CF9108953A
:100E40008F929F92AF92BF92CF92EF920F931F9388
:100E5000CF93DF93CDB7DEB7C059D1090FB6F89461
:100E6000DEBF0FBECDBF5C010E9469236EE170E062
:100E700080E090E00E94E22760E0C5010E947023BC
:100E800021E041E060E1C5010E94AA2466E0C501BD
:100E90000E94B524C5010E94BB2420E040E060E030
:100EA000C5010E94AA24C5010E94E523C5010E9434
:100EB0000324182FC5010E942A24882EC5010E94F0
:100EC0005124982E4FE760E0C5010E94292360E07D
:100ED000C5010E94542348E660E0C5010E94292311
:100EE000C5010E94622364E170E080E090E00E940E
:100EF000E227EE24E39400E020E049E857E063EACB
:100F000071E0C5010E941826882309F40EC240EC46
:100F100050E063EE70E0C5010E94E026882309F4EA
:100F200006C263E0C5010E94772362E1C5010E9409
:100F3000352364E0C5010E94DF2261E0C5010E9403
:100F4000E52263E0C5010E94F02263E0C5010E9432
:100F5000FB2263E0C5010E94E32660E0C5010E9418
:100F6000E92660E0C5010E94FC23612FC5010E94B3
:100F70001F24682DC5010E944624692DC5010E94C9
:100F80006D24812C912CF401EC54FF4FE491A1E8E5
:100F9000B0E0AC0FBD1FA80DB11DEC9381E0880D32
:100FA0009FEF891A990AE3E0E81568F7CD57DF4FFC
:100FB0004881C358D04050E09A012E5F3F4F90E0E7
:100FC0002817390704F7C12CEE24E394CE57DF4FDE
:100FD0000881C258D040CF57DF4F2881C158D04038
:100FE00061E870E06C0F7D1F6D5F7F4FC5010E944F
:100FF000372560E0F401EC54FF4FE491A1E8B0E044
:10100000AC0FBD1FA60FB11DEC936F5FFFEF8F1AE2
:101010009F0A643078F3CD57DF4F4881C358D040E2
:1010200050E09A012E5F3F4F862F90E02817390736
:101030000CF7C12CEE24E394CE57DF4F0881C25841
:10104000D040CF57DF4F2881C158D04061E870E0D1
:101050006C0F7D1F6D5F7F4FC5010E943725C50155
:101060000E945B23C5010E949623482FBE016F5F3B
:101070007F4FC5010E94B22362E0C5010E94112387
:101080006CE9C5010E941D2360E5C5010E9417237C
:1010900060E0C5010E942323C5010E945B2361E03B
:1010A000C5010E944D2361E0C5010E949C24C50139
:1010B0000E94A32460E0F401EC54FF4FE491A1E806
:1010C000B0E0AC0FBD1FA60FB11DEC936F5F8FEFAB
:1010D000881A980A643078F3CD57DF4F4881C35897
:1010E000D04050E09A012E5F3F4F862F90E02817A6
:1010F00039070CF7C12CEE24E394CE57DF4F08815B
:10110000C258D040CF57DF4F2881C158D04061E846
:1011100070E06C0F7D1F6D5F7F4FC5010E9437250A
:1011200060E0F401EC54FF4FE491A1E8B0E0AC0FB3
:10113000BD1FA60FB11DEC936F5F9FEF891A990A2F
:10114000643078F3CD57DF4F4881C358D04050E02A
:101150009A012E5F3F4F862F90E0281739070CF732
:10116000C12CEE24E394CE57DF4F0881C258D04003
:10117000CF57DF4F2881C158D04061E870E06C0F35
:101180007D1F6D5F7F4FC5010E94372560E0F40130
:10119000EC54FF4FE491A1E8B0E0AC0FBD1FA60FE7
:1011A000B11DEC936F5FEFEF8E1A9E0A643078F3F7
:1011B000CD57DF4F4881C358D04050E09A012E5F91
:1011C0003F4F862F90E0281739070CF7C12CEE24EB
:1011D000E394CE57DF4F0881C258D040CF57DF4F3E
:1011E0002881C158D04061E870E06C0F7D1F6D5FB1
:1011F0007F4FC5010E943725C5010E949623833089
:101200009105D0F3482FBE016F5F7F4FC5010E944B
:10121000B223C5010E943B2360E0F401EC54FF4F70
:10122000E491A1E8B0E0AC0FBD1FA60FB11DEC9397
:101230006F5FFFEF8F1A9F0A643078F3CD57DF4F4F
:101240004881C358D04050E09A012E5F3F4F862F0F
:1012500090E0281739070CF7CE57DF4F0881C258A6
:10126000D040CF57DF4F2881C158D04061E870E0AF
:101270006C0F7D1F6D5F7F4FC5010E94CD24C5019E
:101280000E94962383309105D0F3482FBE016F5FF3
:101290007F4FC5010E94B223C5010E943B23F40188
:1012A000EC54FF4F60E08491A1E8B0E0AC0FBD1FAB
:1012B000A60FB11D8C936F5F643010F43196F3CF9D
:1012C000CD57DF4F4881C358D04050E09A012E5F80
:1012D0003F4F862F90E02817390784F761E870E0C8
:1012E0006C0F7D1F6D5F7F4FC12CEE24E394CE57B2
:1012F000DF4F0881C258D040CF57DF4F2881C158F7
:10130000D040C5010E94372560E0C5010E949C24A1
:101310008AE290E0F50193838283C5010E945B23FA
:10132000C5010E943B2380E003C081E001C082E050
:10133000C057DF4F0FB6F894DEBF0FBECDBFDF91B1
:10134000CF911F910F91EF90CF90BF90AF909F9052
:101350008F900895CF93DF93DB01FA01309719F452
:10136000EC01E881F981808190E0982F8827218124
:10137000820F911D11969C938E93848190E0982FFB
:1013800088272581820F911D13969C938E93129727
:10139000808590E0982F88272185820F911D1596D2
:1013A0009C938E931497848590E0982F88272585A9
:1013B000820F911D17969C938E93169780E0DF9174
:1013C000CF910895FF920F931F93CF93DF93CDB7E3
:1013D000DEB728970FB6F894DEBF0FBECDBF8B01E6
:1013E000BE016F5F7F4F0E94AA09F82E81114CC089
:1013F00069817A81882777FD8095982F0E94212F17
:1014000020E030E040E858E30E944B30F801608370
:101410007183828393836B817C81882777FD80959C
:10142000982F0E94212F20E030E040E858E30E94EE
:101430004B30F80164837583868397836D817E8149
:10144000882777FD8095982F0E94212F20E030E09B
:1014500040E858E30E944B30F8016087718782872B
:1014600093876F817885882777FD8095982F0E94D4
:10147000212F20E030E040E858E30E944B30F80193
:1014800064877587868797878F2D28960FB6F8947F
:10149000DEBF0FBECDBFDF91CF911F910F91FF90A7
:1014A00008954F925F926F927F928F929F92AF9228
:1014B000BF92CF92DF92EF92FF920F931F93CF9341
:1014C000DF93CDB7DEB728970FB6F894DEBF0FBE17
:1014D000CDBF8B01DA011496CD90DD90ED90FC909C
:1014E00017971C964D905D906D907C901F978D90F6
:1014F0009D90AD90BC90139718968D919D910D90F5
:10150000BC91A02D89839A83AB83BC83A3019201F4
:10151000C701B6010E944B306D837E838F8398870D
:1015200029813A814B815C81C501B4010E944B3015
:101530009B01AC016D817E818F8198850E94B82DC1
:101540009B01AC010E94B92DF801608371838283F5
:101550009383A7019601C501B4010E944B306D83AE
:101560007E838F839887A301920169817A818B8121
:101570009C810E944B309B01AC016D817E818F81EB
:1015800098850E94B92D9B01AC010E94B92DD8010C
:1015900014966D937D938D939C931797A501940159
:1015A000C501B4010E944B304B015C01A7019601BB
:1015B000C701B6010E944B309B01AC01C501B401CB
:1015C0000E94B82D6B017C0129813A814B815C819D
:1015D000CA01B9010E944B309B01AC01C701B601A1
:1015E0000E94B82D6B017C01A3019201C301B201DD
:1015F0000E944B309B01AC01C701B6010E94B92D7E
:10160000F801608771878287938780E028960FB6FC
:10161000F894DEBF0FBECDBFDF91CF911F910F9128
:10162000FF90EF90DF90CF90BF90AF909F908F9002
:101630007F906F905F904F9008952F923F924F92BE
:101640005F926F927F928F929F92AF92BF92CF9252
:10165000DF92EF92FF920F931F93CF93DF9300D00F
:1016600000D000D0CDB7DEB71B018A013E832D83A9
:10167000FA01C080D180E280F380A7019601C70102
:10168000B6010E94B92D69837A838B839C83F8010C
:1016900084809580A680B780A5019401C501B4011E
:1016A0000E94B92D2B013C01A701960169817A8125
:1016B0008B819C810E944B306B017C01A5019401C0
:1016C000C301B2010E944B309B01AC01C701B601BE
:1016D0000E94B92D20E030E040E85FE30E94B82D81
:1016E0006B017C01F8012085318542855385C3015A
:1016F000B2010E944B302B013C01F8012485358555
:101700004685578569817A818B819C810E944B3007
:101710009B01AC01C301B2010E94B82DA701960143
:101720000E942C2EF1016083718382839383ED816B
:10173000FE816481758186819781C084D184E28431
:10174000F3849B01AC010E944B304B015C01A7016B
:101750009601C701B6010E944B309B01AC01C50147
:10176000B4010E94B92D0E94B8309B01AC01ED81FB
:10177000FE8160817181828193810E94862E0E9408
:10178000572EF1016483758386839783ED81FE81F3
:101790006081718182819381C084D184E284F384E9
:1017A0009B01AC010E944B304B015C01A7019601EB
:1017B000C701B6010E944B309B01AC01C501B401C9
:1017C0000E94B92D0E94B8309B01AC01ED81FE81D1
:1017D00064817581868197810E94862E0E94572E92
:1017E000F101608771878287938780E026960FB624
:1017F000F894DEBF0FBECDBFDF91CF911F910F9147
:10180000FF90EF90DF90CF90BF90AF909F908F9020
:101810007F906F905F904F903F902F9008954F92E0
:101820005F926F927F928F929F92AF92BF92CF9270
:10183000DF92EF92FF920F931F93CF93DF93EC0110
:101840007B01882777FD8095982F0E94212F2B01FF
:101850003C012D813E814F8158850E947F2E882337
:10186000A1F18C80F7FE03C081E08825882EB701A6
:10187000F7FE03C0719561957109882777FD809502
:10188000982F1F921F921F922FEF2F93A12CB12CF4
:10189000650114E6E12EF12C00E010E020E030E0DC
:1018A000A9010E94702D6B017C01682D89810E9425
:1018B0000629B60188810E9445284D825E826F828A
:1018C00078860F900F900F900F90DF91CF911F911E
:1018D0000F91FF90EF90DF90CF90BF90AF909F90CF
:1018E0008F907F906F905F904F9008956F927F924E
:1018F0008F929F92AF92BF92CF92DF92EF92FF9220
:101900000F931F93CF93DF93EC014A015B0160912A
:10191000610370916203882777FD8095982F0E945C
:10192000212F9B01AC01C501B4010E944B3020E086
:1019300030E048EC52E40E94862E6BA77CA78DA76E
:101940009EA7EF8AF88E098F1A8FCE2CDF2C780194
:10195000F7FE08C0F094E094D094C094C11CD11C50
:10196000E11CF11C21E03FEFC316D306E3063FE77D
:10197000F30609F420E02E8B11E020E030E0A9010D
:101980000E947F2E811101C010E01D8B20E030E00D
:10199000A901C501B4010E947F2E811114C01092CB
:1019A00075031092760310927703109278031092C9
:1019B00071031092720310927303109274031F8EBE
:1019C00018A219A21AA2DF91CF911F910F91FF9037
:1019D000EF90DF90CF90BF90AF909F908F907F90CF
:1019E0006F900895EF92FF920F931F93CF93DF9321
:1019F000EC01EE24EA94FE2C0FEF1FE720E030E02C
:101A000040E050E0BA010E94760CEB8119861A86FC
:101A10001B861C86198A1A8A1B8A1C8A84E0E89F06
:101A2000F0011124E759FC4F1082118212821382B7
:101A30001BA21CA21DA21EA21FA218A619A61AA6AE
:101A40001F8E18A219A21AA20E94B32760937D03C9
:101A500070937E0380937F0390938003DF91CF91F7
:101A60001F910F91FF90EF900895CF92DF92EF9228
:101A70000F93CF93DF931F92CDB7DEB76C01862F04
:101A8000F6016083418322830383E48290913301D2
:101A9000992399F061E049830E94CD2861E0498152
:101AA000842F0E94CD28C6010F90DF91CF910F9116
:101AB000EF90DF90CF900C94F20C0F90DF91CF91CC
:101AC0000F91EF90DF90CF9008952F923F924F9219
:101AD0005F926F927F928F929F92AF92BF92CF92BE
:101AE000DF92EF92FF920F931F93CF93DF93CDB7C7
:101AF000DEB72C970FB6F894DEBF0FBECDBF8DA01A
:101B00009EA02FA038A40E94B82D6D837E838F8362
:101B100098872BA53CA54DA55EA50E944B309B0147
:101B2000AC01D1016D917D918D919C910E94B92D57
:101B3000F1016083718382839383D4012D913D9160
:101B40004D915C916D817E818F8198850E94B82D29
:101B500069877A878B879C8720E030E040EA51E4F0
:101B60006BA57CA58DA59EA50E944B309B01AC0169
:101B700069857A858B859C850E94862E69837A8308
:101B80008B839C83E9A5FAA5608371838283938309
:101B90002D813E814F815885C801B7010E944B308D
:101BA0002B013C01F1012081318142815381C60129
:101BB000B5010E944B309B01AC01C301B2010E94F0
:101BC000B92D2B013C0129813A814B815C8169A1AE
:101BD0007AA18BA19CA10E944B309B01AC01C30157
:101BE000B2010E94B92DED80FE800F811885D401CD
:101BF000ED92FD920D931C9313972C960FB6F894CB
:101C0000DEBF0FBECDBFDF91CF911F910F91FF902F
:101C1000EF90DF90CF90BF90AF909F908F907F908C
:101C20006F905F904F903F902F9008952F923F922A
:101C30004F925F926F927F928F929F92AF92BF92DC
:101C4000CF92DF92EF92FF920F931F93CF93DF9388
:101C5000CDB7DEB72C970FB6F894DEBF0FBECDBF61
:101C60001C016B01DC011D962D913D914D915C9104
:101C7000509751968D919D910D90BC91A02D281B50
:101C8000390B4A0B5B0BA8EEB3E00E94633196015F
:101C900040E050E029833A834B835C830E944431C7
:101CA000CA01B9010E94212F2B013C01D1019F964D
:101CB0006D937D938D939C93D297A0903901B090B2
:101CC0003A01C0903B01D0903C0120913501309108
:101CD000360140913701509138012D833E834F8367
:101CE00058879B968D919D910D90BC91A02D8987D1
:101CF0009A87AB87BC8769817A818B819C810E949E
:101D00001F2F20E030E04AE754E40E94862E9F9384
:101D10008F937F936F93C10187969F938F930497BF
:101D20009F938F9304979F938F93809140018F93FC
:101D300080913F018F9380913E018F9380913D016F
:101D40008F93ED80FE800F811885A3019201698534
:101D50007A858B859C850E94650D4B015C01F101A4
:101D6000C3A4D4A4E5A4F6A40FB6F894DEBF0FBEB6
:101D7000CDBF20E030E0A901C701B6010E947F2E4F
:101D8000882309F45AC020E030E0A901D1019F96D0
:101D90006D917D918D919C91D2970E947F2E882389
:101DA000A1F1F101238D348D458D568DC501B4010E
:101DB0000E94B92D6B017C0120E030E048EC52EC30
:101DC0000E947F2E87FD0FC020E030E048EC52E4F7
:101DD000B601C7010E944030181654F4C12CD12C12
:101DE00098EC82E407C0C12CD12C98EC82EC02C0A4
:101DF0009E2D8F2DA601692F782FD1015B964D93D3
:101E00005D936D937C935E971FC020E030E0A90145
:101E1000C701B6010E94403087FD05C040E050E098
:101E200068E472E404C040E050E068E472ECF10160
:101E3000438F548F658F768F07C0D1015B961D92BB
:101E40001D921D921C925E97F1014585568567850E
:101E50007089418B528B638B748B2C960FB6F894E0
:101E6000DEBF0FBECDBFDF91CF911F910F91FF90CD
:101E7000EF90DF90CF90BF90AF909F908F907F902A
:101E80006F905F904F903F902F90089510926D0348
:101E900010926E0310926F031092700310926903F8
:101EA00010926A0310926B0310926C0362E082E05E
:101EB0000E94CD2862E083E00E94CD2862E088E0A5
:101EC0000E94CD2862E089E00E94CD2841E050E0E8
:101ED0006FE075E080E00E94EF2641E050E06DE4A5
:101EE00075E081E00E94EF2680913301882341F163
:101EF00061E085E00E94CD2860E085E00E9406292F
:101F000061E086E00E94CD2860E086E00E9406291C
:101F100061E08BE00E94CD2860E08BE00E94062902
:101F200061E081E10E94CD2860E081E10E94062904
:101F300089E193E00E94F20C86EE92E00E94F20C9E
:101F40001092710310927203109273031092740333
:101F50001092750310927603109277031092780313
:101F60001092790310927A0310927B0310927C03F3
:101F7000109233010895EF92FF920F931F93CF9326
:101F8000DF937C010CE011E0C0E0D0E068ED71E08F
:101F9000C7010E94E91B0E94851ABC01F8018081DB
:101FA00091810E9441360C5F1F4F892B81F4CC0F29
:101FB000DD1FCC0FDD1FC45FDE4FEA81FB81C7014F
:101FC000DF91CF911F910F91FF90EF90099421968F
:101FD000C730D105D9F6DF91CF911F910F91FF90B6
:101FE000EF9008958C01C0E0D0E0C017D107B4F4A1
:101FF00061E08DE00E94062968EC70E080E090E0EE
:102000000E94E22760E08DE00E94062968EC70E003
:1020100080E090E00E94E2272196E7CF68E572E039
:1020200080E090E00E94E227DECF26E040E052EC24
:1020300061E070E08FED94E00E94482A64E170E076
:1020400080E090E00E94E22761E08DE00E94CD28D0
:1020500061E08CE00E94CD2862E084E00E94CD28FF
:1020600060E08DE00E94062960E08CE00E94062975
:102070000E94460F80913401882309F47FC082E1D9
:1020800094E00E94671E88E18093B80062E087E0D8
:102090000E94CD288CE493E00E9482236AE070E0E5
:1020A00080E090E00E94E2278CE493E00E94DD2330
:1020B0008CE493E00E9420078093EB036AE070E0D9
:1020C00080E090E00E94E2278091EB0381113CC008
:1020D00061E08CE493E00E949C246AE070E080E080
:1020E00090E00E94E2278CE493E00E943B238093DF
:1020F000ED0380914E038093EC036CED70E08CE473
:1021000093E00E948A246CE470E08CE493E00E94E7
:1021100090246BEA7FEF8CE493E00E9496246CEFAE
:1021200076E08CE493E00E9484240E94B327605DF3
:102130007A488F4F9F4F60935F0270936002809345
:102140006102909362021AC064E571E08FED94E041
:102150000E949D2B4AE050E06091EB038FED94E0EC
:102160000E947C2C65E671E08FED94E00E94BA2B12
:102170008091EB0390E001960E94F20F67E671E018
:102180008FED94E00C94BA2BCF92DF92EF92FF92F6
:10219000CF93DF93EC01C880D980EA80FB802BEDE0
:1021A0003FE049E450E4C701B6010E9440301816F0
:1021B0006CF42BED3FE049EC50E4C701B6010E94FE
:1021C000B82D688379838A839B83E5CF2BED3FE02D
:1021D00049E450EC6091F8037091F9038091FA039F
:1021E0009091FB030E947F2E87FF0FC02BED3FE0F5
:1021F00049EC50E4688179818A819B810E94B92DE4
:10220000688379838A839B83E1CFDF91CF91FF90AD
:10221000EF90DF90CF9008958F929F92AF92BF92F0
:10222000CF92DF92EF92FF921F93CF93DF93CDB7C0
:10223000DEB728970FB6F894DEBF0FBECDBF6B0197
:102240007C0149015A010E94B82D6D837E838F83E2
:102250009887A5019401C701B6010E94B92D698331
:102260007A838B839C83CE0105960E94C410CE0195
:1022700001960E94C410C090F803D090F903E0903A
:10228000FA03F090FB032D813E814F815885C701F1
:10229000B6010E94403087FD0EC011E029813A81CD
:1022A0004B815C81C701B6010E947F2E18160CF489
:1022B00010E0812F01C080E028960FB6F894DEBFB1
:1022C0000FBECDBFDF91CF911F91FF90EF90DF90B8
:1022D000CF90BF90AF909F908F900895CF93DF9352
:1022E000EC0189E193E00E94F20C86EE92E00E94FC
:1022F000F20C1092F8031092F9031092FA03109264
:10230000FB031092FC031092FD031092FE03109247
:10231000FF03109200041092010410920204109224
:1023200003046FE871E0CE010E94E705882379F08D
:102330006FE871E0CE010E94E91B0E94911A609340
:10234000000470930104809302049093030461E9F4
:1023500071E0CE010E94E705882379F061E971E020
:10236000CE010E94E91B0E94911A6093FC037093B6
:10237000FD038093FE039093FF0363E971E0CE01B8
:102380000E94E7058823A9F063E971E0CE010E946D
:10239000E91B0E94911A25E33AEF4EE85CE30E94A4
:1023A0004B306093F8037093F9038093FA03909392
:1023B000FB0388EF93E00E94C410209181033091C9
:1023C000820340918303509184036091F8037091DC
:1023D000F9038091FA039091FB030E94B92D609359
:1023E000F4037093F5038093F6039093F703DF9162
:1023F000CF910C948D144F925F926F927F92AF9217
:10240000BF92CF92DF92EF92FF920F931F93CF93E1
:10241000DF9300D000D0CDB7DEB76C0165E971E085
:102420000E94E705882349F065E971E0C6010E9432
:10243000E91B0E94A01A5B0102C0A12CB12C69E922
:1024400071E0C6010E94E705882311F169E971E096
:10245000C6010E94E91B0E94911A2B013C0120E059
:1024600030E0A9010E94403087FD06C0EE24EA94C6
:10247000FE2C0FEF1FE705C0EE24E394F12C00E0E3
:1024800010E89501B301A20189E193E00E94760C66
:102490006CE971E0C6010E94E705882311F16CE93F
:1024A00071E0C6010E94E91B0E94911A2B013C01B8
:1024B00020E030E0A9010E94403087FD06C0EE24F4
:1024C000EA94FE2C0FEF1FE705C0EE24E394F12CF5
:1024D00000E010E89501B301A20186EE92E00E94AF
:1024E000760C6FE971E0C6010E94E705882321F1AF
:1024F0006FE971E0C6010E94E91B0E94911A25E371
:102500003AEF4EE85CE30E944B3069837A838B8319
:102510009C83CE0101960E94C41089819A81AB816F
:10252000BC818093630390936403A0936503B0938D
:10253000660381E0809368030F900F900F900F90D7
:10254000DF91CF911F910F91FF90EF90DF90CF908F
:10255000BF90AF907F906F905F904F9008954F9293
:102560005F926F927F928F929F92AF92BF92CF9223
:10257000DF92EF92FF921F93CF93DF93CDB7DEB739
:102580002C970FB6F894DEBF0FBECDBFE0911C03B1
:1025900080911D03F0E08823B1F0EE0FFF1FEE0FD6
:1025A000FF1FE759FC4F80819181A281B3812227CF
:1025B0003327A901281B390B4A0B5B0B2D833E8364
:1025C0004F83588711C09F01220F331F220F331FE3
:1025D00027593C4FD9018D919D910D90BC91A02D13
:1025E0008D839E83AF83B887E091E9028091EA02F0
:1025F000F0E08823B1F0EE0FFF1FEE0FFF1FE75949
:10260000FC4F80819181A281B38122273327A901C8
:10261000281B390B4A0B5B0B29873A874B875C8752
:1026200011C09F01220F331F220F331F27593C4F28
:10263000D9018D919D910D90BC91A02D89879A878C
:10264000AB87BC87C0905F03D0906003EE24D7FCBB
:10265000E094FE2C8091220390912303A091240307
:10266000B09125032D813E814F815885281B390B60
:102670004A0B5B0BA8EEB3E00E946331A701960101
:102680000E944431CA01B9010E94212F4B015C0113
:102690008091EF029091F002A091F102B091F202CC
:1026A00029853A854B855C85281B390B4A0B5B0BCA
:1026B000A8EEB3E00E946331A70196010E94443165
:1026C000CA01B9010E94212F2B013C012091F40382
:1026D0003091F5034091F6035091F7036091810327
:1026E0007091820380918303909184030E94B82D9E
:1026F00069837A838B839C8321EE3EE245E652E434
:102700000E944B306B017C0120E030E0A9010E9467
:10271000403018166CF411E02DEC3CEC4CEC5DE311
:10272000C701B6010E944030181674F010E00CC0CA
:102730002DEC3CEC4CEC5DEBC701B6010E947F2E0A
:10274000182F111F1127111FA3019201C501B401F8
:102750000E94B92D20E030E040E05FE30E944B3062
:102760006B017C0120E030E0A9010E944030181686
:102770005CF420E030E040E85FE3C701B6010E946E
:102780004030181654F00AC020E030E040E85FEB1B
:10279000C701B6010E947F2E87FD11E08090F803EB
:1027A0009090F903A090FA03B090FB0320E030E092
:1027B00040E05FE369817A818B819C810E944B308C
:1027C0009B01AC01C501B4010E94B92D2B013C0154
:1027D0000E94AE309B01AC01C701B6010E944B3094
:1027E0009B01AC016091000470910104809102048E
:1027F000909103040E94B92D60930004709301042A
:102800008093020490930304C301B2010E94832EBB
:102810009B01AC01C701B6010E944B309B01AC018A
:102820006091FC037091FD038091FE039091FF0382
:102830000E94B92D6093FC037093FD038093FE0307
:102840009093FF0329813A814B815C81C501B401DA
:102850000E94B92D6093F8037093F9038093FA03F3
:102860009093FB0388EF93E00E94C4104091810392
:102870005091820360918303709184034093F40329
:102880005093F5036093F6037093F7032D813E8117
:102890004F815885209322033093230340932403D0
:1028A0005093250389859A85AB85BC858093EF027B
:1028B0009093F002A093F102B093F202812F2C9634
:1028C0000FB6F894DEBF0FBECDBFDF91CF911F9141
:1028D000FF90EF90DF90CF90BF90AF909F908F9040
:1028E0007F906F905F904F900895CF93DF9300D0CB
:1028F00000D0CDB7DEB77A8369831C821B82BE010C
:102900006F5F7F4F0E94841B8B819C810F900F9083
:102910000F900F90DF91CF910895CF92DF92EF92B9
:10292000FF920F931F93CF93DF93CDB7DEB7C454BD
:10293000D1090FB6F894DEBF0FBECDBF89E092E09B
:102940009A83898325961FAE1EAE2597CE010196E8
:102950000E94491A8C0165EA71E00E94E91B67EA4E
:1029600071E00E94BA1A20E030E04AE754E4609136
:1029700000047091010480910204909103040E946C
:10298000862E6B017C016FE871E0C8010E94E91B93
:1029900024E0B701A6010E94C61A20E030E04AE711
:1029A00054E46091FC037091FD038091FE039091CB
:1029B000FF030E94862E6B017C0161E971E0C80172
:1029C0000E94E91B24E0B701A6010E94C61A21EE6D
:1029D0003EE245E652E46091F8037091F90380917C
:1029E000FA039091FB030E944B306B017C0163E979
:1029F00071E0C8010E94E91B21E0B701A6010E9415
:102A0000C61A6FED74E0C8010E9475148FED94E052
:102A10000E94A62BCC5BDF4F0FB6F894DEBF0FBE33
:102A2000CDBFDF91CF911F910F91FF90EF90DF907D
:102A3000CF900895CF92DF92EF92FF920F931F9362
:102A4000CF93DF93CDB7DEB7C458D1090FB6F89452
:102A5000DEBF0FBECDBF8FE092E09A838983CD5752
:102A6000DF4F19821882C358D040CE0101960E94D0
:102A7000491A8C0165EA71E00E94E91B6CEA71E079
:102A80000E94BA1AC0904403D0904503E0904603D8
:102A9000F090470366EB71E0C8010E94E91B22E059
:102AA000B701A6010E94C61AC0904803D0904903FE
:102AB000E0904A03F0904B0369EB71E0C8010E947B
:102AC000E91B22E0B701A6010E94C61AC0903C0390
:102AD000D0903D03E0903E03F0903F036CEB71E03B
:102AE000C8010E94E91B22E0B701A6010E94C61A94
:102AF000C0904003D0904103E0904203F090430324
:102B00006FEB71E0C8010E94E91B22E0B701A6014A
:102B10000E94C61AC0901E03D0901F03E0902003AD
:102B2000F090210362EC71E0C8010E94E91B22E0F1
:102B3000B701A6010E94C61A6FED74E0C8010E9499
:102B400075148FED94E00E94A62BCC57DF4F0FB683
:102B5000F894DEBF0FBECDBFDF91CF911F910F91D3
:102B6000FF90EF90DF90CF900895FF920F931F9307
:102B7000CF93DF93CDB7DEB7C454D1090FB6F89425
:102B8000DEBF0FBECDBFF82E29E032E03A832983A5
:102B900025961FAE1EAE2597CE0101960E94491ABA
:102BA0008C0165EA71E00E94E91B66EC71E00E940D
:102BB000BA1A6091430170914401C8010E94E91B57
:102BC0004F2D50E060E070E00E94D51A6FED74E088
:102BD000C8010E9475148FED94E00E94A62BCC5B77
:102BE000DF4F0FB6F894DEBF0FBECDBFDF91CF91A0
:102BF0001F910F91FF900895FF920F931F93CF9312
:102C0000DF93CDB7DEB7C454D1090FB6F894DEBF59
:102C10000FBECDBFF82E29E032E03A8329832596F6
:102C20001FAE1EAE2597CE0101960E94491A8C0157
:102C3000109267031092680365EA71E00E94E91B35
:102C40006DEC71E00E94BA1A6091430170914401E9
:102C5000C8010E94E91B4F2D50E060E070E00E9427
:102C6000D51A6FED74E0C8010E9475148FED94E0E1
:102C70000E94A62BCC5BDF4F0FB6F894DEBF0FBED1
:102C8000CDBFDF91CF911F910F91FF9008958F924B
:102C90009F92AF92BF92EF92FF920F931F93CF93A9
:102CA000DF930E94B3274B015C0180917D039091DB
:102CB0007E03E401C81BD90B80916803882381F04F
:102CC0006091630370916403809165039091660342
:102CD00022EC38EB42EB5DE30E940C11811183C0C2
:102CE000E0911C0380911D03F0E0EE0FFF1FEE0F3B
:102CF000FF1FE759FC4F882361F080819181A281F9
:102D0000B381B095A095909581959F4FAF4FBF4FE0
:102D100004C080819181A281B38180932603909326
:102D20002703A0932803B0932903E091E90280913F
:102D3000EA02F0E0EE0FFF1FEE0FFF1FE759FC4F16
:102D4000882361F080819181A281B381B095A095A3
:102D5000909581959F4FAF4FBF4F04C08081918167
:102D6000A281B3818093F3029093F402A093F502C1
:102D7000B093F602BE0189E193E00E94160EBE01F7
:102D800086EE92E00E94160E609134037091350336
:102D900080913603909137030E94EE2E89E193E0F3
:102DA0000E940F0C60910103709102038091030354
:102DB000909104030E94EE2E86EE92E00E940F0C8A
:102DC00080927D0390927E03A0927F03B092800355
:102DD000DF91CF911F910F91FF90EF90BF90AF9037
:102DE0009F908F900895E12CF12C870120E030E036
:102DF00040E050E0BA0189E193E00E94760C20E0C7
:102E000030E040E050E0BA0186EE92E00E94760C9D
:102E10001092680381E00E94FC1562CFEF920F933D
:102E20001F9380E090E0A0E8BFE380939903909324
:102E30009A03A0939B03B0939C0310929D0310925E
:102E40009E0310929F031092A0031092A103109270
:102E5000A2031092A3031092A4031092A503109250
:102E6000A6031092A7031092A80310928D0310924C
:102E70008E0310928F031092900310929103109280
:102E80009203109293031092940310929503109260
:102E90009603109297031092980382EC91E090931E
:102EA0006203809361038CE493E00E94DB22EE24B2
:102EB000E39400E010E020E130E04BE050E065E01A
:102EC00070E089E193E00E94350DE12C01E010E013
:102ED0002FE030E041E150E066E070E086EE92E005
:102EE0000E94350D1F910F91EF9008950F931F933E
:102EF000CF93DF93CDB7DEB7C458D1090FB6F8949E
:102F0000DEBF0FBECDBF8FED94E00E946529892BF7
:102F100009F44EC08FED94E00E947E292091E402D6
:102F20003091E5028A3089F5C90101969093E50256
:102F30008093E402F901EC59FD4F10828FE092E09A
:102F40009A838983CD57DF4F19821882C358D040A6
:102F50004AE064E672E0CE0101960E94A31D8C0156
:102F600068ED71E00E94E705882321F0C8010E9406
:102F7000BB0F06C063ED71E08FED94E00E94BA2BA9
:102F80001092E5021092E40213C0A9014F5F5F4F57
:102F90005093E5024093E402F901EC59FD4F808320
:102FA0004038510508F4AFCF84E090E00E94F20F62
:102FB000CC57DF4F0FB6F894DEBF0FBECDBFDF9109
:102FC000CF911F910F9108950F931F93CF93DF938C
:102FD0000E94761780915E0281112AC020912801FB
:102FE0003091290140E050E06091EE037091EF03D1
:102FF0008091F0039091F1030E942231672B682B9E
:10300000692BB1F40E94B32700915F021091600216
:1030100020916102309162020617170728073907CD
:1030200038F481E080935E028093F2030E94FC15E5
:10303000809132018823A1F120912A0130912B0146
:1030400040E050E06091EE037091EF038091F00357
:103050009091F1030E942231672B682B692B01F5B7
:1030600080916302811119C089B182958170C82F46
:1030700020E0D22F80910A0190910B01C817D90747
:1030800079F0D0930B01C0930A0183E0809363022F
:103090008C2F81700E94B51503C08150809363020C
:1030A000809133018823B1F020912E0130912F01BE
:1030B00040E050E06091EE037091EF038091F003E7
:1030C0009091F1030E942231672B682B692B11F438
:1030D0000E944716209130013091310140E050E0CC
:1030E0006091EE037091EF038091F0039091F103F2
:1030F0000E942231672B682B692B49F40E94AF1282
:10310000882329F08091F20381110E948D1420916F
:103110002C0130912D0140E050E06091EE03709160
:10312000EF038091F0039091F1030E942231672B0D
:10313000682B692B81F48DE00E943C2961E0892B8A
:1031400009F060E08DE00E9406298091F303882356
:1031500011F01D995FC080913401882309F442C0A9
:103160004F9B40C08CE493E00E943B238093ED038F
:103170008CE493E00E9496239093EA038093E90302
:103180002091ED0324FD49C08115944009F445C008
:103190008091ED0381FF22C04091EC0369EA73E066
:1031A0008CE493E00E94B22349EA53E069E973E0BA
:1031B0008CE493E00E94E20949E953E06DE873E092
:1031C0008CE493E00E94510A2DE833E049E953E092
:1031D00061E873E08CE493E00E941D0B8CE493E0C3
:1031E0000E945B238091EE039091EF03A091F00386
:1031F000B091F1030196A11DB11D8093EE03909350
:10320000EF03A093F003B093F103DF91CF911F91EF
:103210000F9108950E941A159ECF6CED71E08FED0D
:1032200094E00E94BA2BB4CFCF93DF93EC01888156
:103230009981DC01ED91FC910190F081E02D0995DF
:103240002A813B81280F391F3B832A83DF91CF914D
:103250000895DB01ED91FC9111970190F081E02D33
:10326000BC01CD0109940F931F93CF93DF938C0181
:10327000F801C281D3818881992787FD90950E94AA
:103280000B36892B29F02196F801D383C283F0CF26
:10329000DF91CF911F910F9108950F931F93CF93BB
:1032A000DF931F92CDB7DEB78C0169830E9433197B
:1032B000D8011296ED91FC91139780816981861354
:1032C0000AC031961396FC93EE931297C8010E94A0
:1032D000331981E001C080E00F90DF91CF911F9101
:1032E0000F910895FB012191BF01222379F0DC01A8
:1032F0001296ED91FC9113973081321307C03196ED
:10330000DC011396FC93EE931297ECCF81E0211130
:1033100080E00895BF92CF92DF92EF92FF920F93D9
:103320001F93CF93DF937C01EB01009771F461E170
:1033300072E0CE01DF91CF911F910F91FF90EF903E
:10334000DF90CF90BF900C949D2BE881F981019084
:10335000F081E02D62E2CE0109958C01F7016191C7
:103360007F01662351F0E1E2F2E0B080BB2079F109
:1033700091819617B1F03296F8CFE881F9810190EA
:10338000F081E02D62E2CE010995800F911FDF915F
:10339000CF911F910F91FF90EF90DF90CF90BF9052
:1033A0000895E881F9810190F081E02D6CE5CE016E
:1033B00009956C01E881F9810190F081E02D6B2D78
:1033C000CE0109958C0D9D1D080F191FC7CFE881EF
:1033D000F9810190F081E02DCE010995F5CFCF93D1
:1033E000FC015081523229F0573219F080E090E010
:1033F00023C09C012F5F3F4FD901F901CF010196F6
:103400004081442399F3451791F04C3569F40196B6
:103410004181E5E2F2E0C081CC2331F0C41302C067
:10342000418102C03296F7CF4D93FC01E7CF1C9249
:10343000FB0191838083C901CF910895DC0112962D
:10344000ED91FC911397309731F06115710531F4CE
:10345000CF010296089584E094E0089561507109C7
:103460000190F081E02DEFCFCF93DF93EC01BC0111
:1034700084E090E00E942919FC01009729F0D18393
:10348000C0831382128202C08EE094E0DF91CF915C
:103490000895CF93DF93EC01BC0184E090E00E949B
:1034A0002919FC01009729F0D183C083138212826D
:1034B00002C08AE094E0DF91CF9108950F931F93AB
:1034C000CF93DF938B01FC01C281D381209759F008
:1034D000B8018A819B810E944136892B39F009907D
:1034E000D881C02DF3CF80E090E001C0CE01DF9104
:1034F000CF911F910F9108950E945E1A009711F0CD
:103500000496089584E094E00895FC0120813181BF
:103510002530310519F482819381089580E090E08F
:103520000895FC0120813181273031052CF0628122
:10353000738184819581089560E070E0CB010895E6
:10354000FC01208131812630310529F462817381AB
:1035500084819581089560E070E0CB010895FC01BD
:1035600080819181892B29F084E090E09183808390
:1035700062830895FC0180819181892B31F085E07F
:1035800090E091838083738362830895FC0180813E
:103590009181892B49F030E0295F3F4F31832083AF
:1035A00042835383648375830895FC0180819181F4
:1035B000892B41F086E090E091838083428353839E
:1035C000648375830895FC0180819181892B31F09A
:1035D00082E090E091838083738362830895FC018D
:1035E00080819181892B31F083E090E09183808309
:1035F000738362830895FC0120813181223031057B
:1036000021F4828193810C941E1A84E094E0089541
:10361000CF93DF93FC01EB01208131812230310512
:1036200031F482819381DF91CF910C945E1B233022
:10363000310531F482819381DF91CF910C94841B09
:103640002530310539F468817981828193810E9426
:103650008A192BC02630310559F442815381648187
:1036600075812AE030E0888199810E94252C1DC057
:103670002430310569F48281882319F066E172E013
:1036800002C06BE172E0888199810E949D2B0DC080
:103690002730310584F0275030E042815381648126
:1036A0007581888199810E946E2D2A813B81280F26
:1036B000391F3B832A83DF91CF9108950F931F9386
:1036C000CF93DF93EC018B016BE5C8010E941419C5
:1036D0000A80DB81C02D209779F0B801CE010296D7
:1036E0000E94081B0990D881C02D209729F06CE218
:1036F000C8010E941419F1CF6DE5C801DF91CF9187
:103700001F910F910C9414190F931F93CF93DF9374
:103710008C01EB016BE7CE010E941419F8010281C4
:1037200013810115110509F168817981F801828100
:1037300093810E948A192A813B81280F391F3B837C
:103740002A836AE3CE010E941419BE01C8010496BF
:103750000E94081BF801008111810115110529F053
:103760006CE2CE010E941419DFCF6DE7CE01DF912C
:10377000CF911F910F910C941419FC0160817181FC
:103780006115710579F08AE090E00E942919FC0129
:10379000009741F01182108281E090E0958384834C
:1037A000CF01089580E090E00895DC011296ED913C
:1037B000FC911397309749F080819181009711F027
:1037C000FC01FACF718360830895FC0173836283E7
:1037D0000895EF92FF920F931F93CF93DF938C0185
:1037E0007B010E945E1AEC01009761F4C8010E94FF
:1037F000BD1BEC01009749F0FB82EA82BC01C801C5
:103800000E94D51BCE01049602C084E094E0DF91B3
:10381000CF911F910F91FF90EF900895FC0160816F
:1038200071816115710579F088E090E00E94291995
:10383000FC01009741F01182108281E090E09383B7
:103840008283CF01089580E090E00895DC01129614
:10385000ED91FC911397309749F080819181009709
:1038600011F0FC01FACF718360830895FC0173832A
:10387000628308950F931F93CF93DF938C010E946F
:103880000E1CEC01009739F0BC01C8010E94261CF7
:10389000CE01029602C084E094E0DF91CF911F91A7
:1038A0000F910895EF92FF920F931F93CF93DF93A1
:1038B000EC01888199810E94341A7C016BE5CE016C
:1038C0000E944D19811103C08EE094E022C06DE585
:1038D000CE010E944D1981111BC0C7010E943A1CE4
:1038E0008C01BC01CE010E94901CF8012081318125
:1038F0002230310548F36DE5CE010E944D1981114A
:1039000007C06CE2CE010E944D198111E6CFDCCFD9
:10391000C701DF91CF911F910F91FF90EF90089514
:10392000EF92FF920F931F93CF93DF9300D0CDB709
:10393000DEB78C017B01DC0114968C9114978823EF
:1039400009F4A3C0815014968C93C8010E943319C6
:10395000F80182819381DC012C912A337CF420339D
:103960000CF03FC0273209F461C024F4223209F47C
:103970005DC065C02D522230A0F161C02E3609F421
:1039800042C02CF42B3581F02636B1F058C02437D4
:1039900099F02B3709F053C0C8010E944E1DBC019D
:1039A000C7010E94EF1A4BC0C8010E94521CBC0103
:1039B000C7010E94E31A43C066E172E0C8010E9499
:1039C0007219882311F061E008C06BE172E0C80150
:1039D0000E947219882309F160E0C7010E94AF1AA2
:1039E0002EC04AE050E0BE016F5F7F4F0E94D73487
:1039F000AB01BC01E981FA8180818E3229F18F7D92
:103A00008534D1F521C061E172E0C8010E947219CC
:103A1000882319F060E070E00FC086E0E4E0F4E095
:103A2000D70101900D928A95E1F709C0B8016E5F48
:103A30007F4F0E94EF19BC01C7010E94BA1AF8011A
:103A400084818F5F848321C0B8016E5F7F4FD8016E
:103A500012968D919C9113970E947433AB01BC0117
:103A6000F8012281338189819A81281B390B2150E9
:103A7000C7010E94C61AE3CFD8011396FC93EE93B8
:103A80001297C7010E94D51ADACF0F900F90DF91DD
:103A9000CF911F910F91FF90EF900895CF92DF92F9
:103AA000EF92FF920F931F93CF93DF93EC018881E6
:103AB00099810E94491A6C016BE7CE010E944D1951
:103AC000811103C08AE094E035C06DE7CE010E9409
:103AD0004D1981112EC07E0182E0E80EF11CB70164
:103AE0008A819B810E94EF198C01009759F36AE348
:103AF000CE010E944D19882329F3B801C6010E9406
:103B0000E91B8C01BC01CE010E94901CF8012081B0
:103B1000318122303105B0F26DE7CE010E944D199E
:103B2000811107C06CE2CE010E944D198111D7CFDF
:103B3000C9CFC601DF91CF911F910F91FF90EF90F8
:103B4000DF90CF900895CF93DF9300D000D01F92E5
:103B5000CDB7DEB79A8389837C836B834D83CE0197
:103B600001960E944E1D0F900F900F900F900F9096
:103B7000DF91CF91089510920F0410920E041092CD
:103B800011041092100410920B0410920A04109267
:103B90000D0410920C041092050410920404089570
:103BA0008091420490E020914304821B9109089582
:103BB0002091430480914204281750F4E22FF0E052
:103BC000EC5BFB4F808190E02F5F209343040895CE
:103BD0008FEF9FEF0895E091430480914204E8172E
:103BE00030F4F0E0EC5BFB4F808190E008958FEFC4
:103BF0009FEF08950895CF92DF92EF92FF920F9377
:103C00001F93CF93DF937C01CB018A0120911E0487
:103C1000222389F0EB016B01C40ED51ECC15DD0506
:103C200069F06991D701ED91FC910190F081E02D4F
:103C3000C7010995F3CF642F0E945A1FC801DF9175
:103C4000CF911F910F91FF90EF90DF90CF9008954B
:103C5000CF93DF931F92CDB7DEB7698320911E0407
:103C60002223D1F020911F04203240F021E030E0E7
:103C7000FC013383228380E090E015C08091200412
:103C8000E82FF0E0EF5DFB4F998190838F5F809389
:103C9000200480931F0405C061E0CE0101960E94BC
:103CA0005A1F81E090E00F90DF91CF910895FC01C1
:103CB0001382128248EE53E060E070E04483558343
:103CC0006683778384E392E09183808308951092E2
:103CD0004304109242041092200410921F040C948A
:103CE000A51E862F413208F040E264E474E00E9491
:103CF000C31E1092430480934204089521E00C9463
:103D0000711E81E080931E04609341041092200490
:103D100010921F0408950F93062F21E040911F0475
:103D200061E274E0809141040E94071F1092200418
:103D300010921F0410921E040F91089561E00C94DC
:103D40008B1E82E194E00C94571E1092D10481E006
:103D50008093CF041092CE0461E082E10E94062994
:103D600061E083E10E940629E9EBF0E080818E7F2B
:103D7000808380818D7F808388E48093B80085E490
:103D80008093BC000895413208F03FC09091D10467
:103D90009111FCCF91E09093D1042093CF042FEFA9
:103DA000209364041092A904240F2093A8049093F4
:103DB000D0049091D004880F892B8093D0048091F7
:103DC000CE04813041F41092CE048091D0048093CF
:103DD000BB0085EC01C085EE8093BC008091D104CE
:103DE0008130E1F38091A904841710F44091A90473
:103DF0002AEA34E0FB01D9018A2F821B841718F4C8
:103E00008D918193F9CF842F089580E008950F93C9
:103E1000413208F046C09091D1049111FCCF92E05C
:103E20009093D1040093CF049FEF90936404109279
:103E3000A9044093A804FB016AEA74E0DB019A2F0D
:103E4000961B941718F491919D93F9CF1092D0047A
:103E50009091D004880F892B8093D0048091CE0458
:103E6000813041F41092CE048091D0048093BB0045
:103E700085EC01C085EE8093BC00222321F0809167
:103E8000D1048230E1F3809164048F3F61F080912E
:103E90006404803251F080916404803341F483E003
:103EA00007C081E005C080E003C082E001C084E07B
:103EB0000F910895613298F42091D104243089F44F
:103EC00060938604FC0188E894E0DC012A2F281B1B
:103ED000261718F421912D93F9CF80E0089581E001
:103EE000089582E0089585ED8093BC008091BC0028
:103EF00084FDFCCF1092D104089585EC8093BC0022
:103F00001092D10408951F920F920FB60F921124B0
:103F10002F933F934F935F936F937F938F939F93D1
:103F2000AF93BF93EF93FF938091B900887F803662
:103F300009F49CC068F5883209F45BC090F48031C4
:103F400009F454C038F4882309F4F5C0883009F422
:103F50004DC0F5C0883109F44CC0803209F45DC011
:103F6000EEC0803409F468C048F4803309F455C0C9
:103F7000883309F0E4C080936404A8C0803509F454
:103F80004FC0883509F45DC0883409F0D8C0D5C069
:103F9000883909F4C6C0A8F4883709F467C038F432
:103FA000883609F463C0803709F460C0C8C0883817
:103FB00009F4B7C0803909F45FC0803809F0BFC088
:103FC0005BC0803B09F485C038F4803A09F466C0D0
:103FD000883A09F47EC0B3C0803C09F4A6C0883C8E
:103FE00009F4A3C0883B09F489C0A9C08091D0041A
:103FF00010C09091A9048091A804981770F5E091E1
:10400000A90481E08E0F8093A904F0E0E655FB4FF0
:1040100080818093BB0085EC85C0809364048DC053
:10402000E091A90481E08E0F8093A9048091BB00E8
:10403000F0E0E655FB4F80839091A9048091A8049D
:104040006DC0E091A90481E08E0F8093A904809156
:10405000BB00F0E0E655FB4F80838091CF048111D7
:104060006CC081E08093CE0484EA60C083E08093DA
:10407000D10410926504CFCF80916504803208F09E
:1040800050C0E091650481E08E0F809365048091BB
:10409000BB00F0E0EA59FB4F8083BDCF80916504FF
:1040A000803230F4E0916504F0E0EA59FB4F108271
:1040B0000E94731F6091650470E0E091CA04F09162
:1040C000CB0486E694E00995109265040E947D1F5A
:1040D00036C084E08093D104109287041092860445
:1040E000E091CC04F091CD04099580918604811172
:1040F00005C081E08093860410928804E0918704D3
:1041000081E08E0F80938704F0E0E857FB4F8081B9
:104110008093BB009091870480918604981708F4DF
:104120007ACF85E88093BC000AC085EC8093BC0000
:104130001092D10404C0109264040E94731FFF9176
:10414000EF91BF91AF919F918F917F916F915F910F
:104150004F913F912F910F900FBE0F901F90189588
:10416000EF92FF920F931F93CF93DF9300D0CDB7C1
:10417000DEB7062F142F682F82E194E029833A835B
:104180000E94811E602F82E194E00E94281E2981F6
:10419000022FE22E3A81F32E8E2D801B811740F4E0
:1041A000F70161917F0182E194E00E94281EF4CF23
:1041B00082E194E00E949E1E91E0811190E0892F9F
:1041C0000F900F90DF91CF911F910F91FF90EF9083
:1041D0000895CF93DF931F92CDB7DEB749839E0139
:1041E0002F5F3F4F41E00E94B0200F90DF91CF91B1
:1041F0000895DF92EF92FF920F931F93CF93DF9377
:10420000C62F042F7901682F82E194E00E94811E5D
:104210006C2F82E194E00E94281E10E0000F111F15
:10422000D12CCD2DD0E0C017D1078CF4CC0FDD1FE1
:10423000CE0DDF1D698182E194E00E94281E688115
:1042400082E194E00E94281ED394D394EACF82E1C5
:1042500094E00E949E1E91E0811190E0892FDF91F1
:10426000CF911F910F91FF90EF90DF900895CF9322
:10427000DF9300D0CDB7DEB75A8349839E012F5F0D
:104280003F4F41E00E94F9200F900F90DF91CF91B6
:1042900008953F924F925F926F927F928F929F927A
:1042A000AF92BF92CF92DF92EF92FF920F931F9344
:1042B000CF93DF9300D000D000D0CDB7DEB7682E0B
:1042C000562E742E3A8329830E94B3276B017C01FA
:1042D000312C412C872D90E09C838B834801A12CAD
:1042E000B12C3714B0F5662D82E194E00E94811E56
:1042F000652D82E194E00E94281E82E194E00E94F4
:104300009E1E662D82E194E00E94811E4B815C819D
:10431000431951094132510514F040E250E0662D35
:1043200082E194E00E947E1E82E194E00E94D01D12
:10433000892B59F10115110579F10E94B3276C19E8
:104340007D098E099F09681579058A059B0520F16D
:104350001CC00115110589F10E94B3276C197D0954
:104360008E099F0920E030E06017710782079307EC
:1043700020F1872D90E0242D332727FD3095281735
:104380003907DCF444244A9418C0872D90E297152D
:1043900008F480E2380EA5CFE981FA81E40DF11D21
:1043A00047FCFA95FE83ED8382E194E00E94D81DDC
:1043B000ED81FE8180834394B7CF842D26960FB67E
:1043C000F894DEBF0FBECDBFDF91CF911F910F914B
:1043D000FF90EF90DF90CF90BF90AF909F908F9025
:1043E0007F906F905F904F903F9008950F931F9331
:1043F00089019A0141E00E9449211F910F9108957E
:10440000DF92EF92FF920F931F93CF93DF931F9250
:10441000CDB7DEB7D42E79019801AE014F5F5F4F63
:104420000E94F62161E070E001C0660FDA94EAF7BD
:1044300099819623F70190830F90DF91CF911F917F
:104440000F91FF90EF90DF900895CF92DF92EF925F
:10445000FF920F931F93CF93DF931F92CDB7DEB7D9
:10446000C42ED22E9701AE014F5F5F4F0E94F621FE
:104470008823F1F04C2D50E04D1951094F5F5F4FEB
:1044800061E070E002C0660F771FDA94E2F76150D6
:104490007109042E01C0660F0A94EAF729812623C8
:1044A00030E002C0359527954A95E2F7F801208360
:1044B0000F90DF91CF911F910F91FF90EF90DF90C0
:1044C000CF900895EF92FF920F931F93CF93DF93B6
:1044D0001F92CDB7DEB7182F062FF42EE22E2091B3
:1044E000450130914601AE014F5F5F4F0E94F621BA
:1044F000898121E030E00F2C01C0220F0A94EAF7F5
:10450000EE2019F0482F422B03C0422F409548233C
:104510004983602F812F0E94E9200F90DF91CF9176
:104520001F910F91FF90EF900895DF92EF92FF920D
:104530000F931F93CF93DF931F92CDB7DEB7F82E63
:10454000E62ED42E122F2091450130914601AE0166
:104550004F5F5F4F0E94F621882319F14D2D50E0E7
:10456000411B51094F5F5F4FE1E0F0E002C0EE0FE9
:10457000FF1F1A95E2F73197042E01C0EE0F0A943F
:10458000EAF701C0000F4A95EAF74E2F409589815E
:104590004823E0234E2B49836E2D8F2D0E94E92066
:1045A00001C080E00F90DF91CF911F910F91FF909C
:1045B000EF90DF90089528E6FC0120830895462FB0
:1045C00069E1FC0180810C94E9200F93062F23E020
:1045D00045E06AE1FC0180810E9495220F910895D7
:1045E0000F93062F23E042E06AE1FC0180810E94E4
:1045F00095220F9108950F93062F22E044E06BE17E
:10460000FC0180810E9495220F9108950F93062F3F
:1046100022E044E06CE1FC0180810E9495220F9130
:104620000895462F6FE1FC0180810C94E920462F0C
:1046300060E2FC0180810C94E920462F61E2FC01DC
:1046400080810C94E920462F62E2FC0180810C9469
:10465000E920643048F4262F220F260F2B5D622FAD
:10466000FC0180810C94E9200895462F68E3FC0149
:1046700080810C94E920CF93DF93EC0120914501D8
:1046800030914601AC014F5F5F4F6AE388810E9421
:10469000F6218981DF91CF910895262F46E06AE6C1
:1046A000FC0180810C946222262F45E06AE6FC0121
:1046B00080810C94622221E042E06AE6FC01808164
:1046C0000C94622221E041E06AE6FC0180810C94B6
:1046D000622221E047E06BE6FC0180810C946222BB
:1046E000262F46E06BE6FC0180810C9462220F933A
:1046F000062F23E042E06BE6FC0180810E949522B8
:104700000F910895CF93DF93EC0161E00E9477232E
:1047100060E0CE010E94FB2260E0CE010E940623F1
:1047200060E0CE01DF91CF910C9470230F931F9323
:10473000CF93DF93EC0100914501109146019C015C
:104740002F5F3F4F42E062E788810E9449218981C3
:1047500090E0982F88272A81822BDF91CF911F919B
:104760000F9108950F931F939B01009145011091A4
:10477000460164E7FC0180810E9449211F910F914D
:104780000895EF92FF920F931F93CF93DF93EC0165
:10479000E0904501F09046018C010F5F1F4F26E02D
:1047A00046E065E788810E9425228981DF91CF91CB
:1047B0001F910F91FF90EF9008950E94C12391E007
:1047C000843309F090E0892F08950F931F93CF93BE
:1047D000DF93EC0100914501109146019C012F5F90
:1047E0003F4F40E060E088810E9400228981DF9194
:1047F000CF911F910F910895262F40E060E0FC01BA
:1048000080810C946222EF92FF920F931F93CF93BB
:10481000DF93EC01E0904501F09046018C010F5FC1
:104820001F4F26E046E060E088810E9425228981B2
:10483000DF91CF911F910F91FF90EF9008950F930B
:10484000062F26E046E060E0FC0180810E94952270
:104850000F910895EF92FF920F931F93CF93DF93E1
:10486000EC01E0904501F09046018C010F5F1F4F75
:1048700026E046E061E088810E9425228981DF915F
:10488000CF911F910F91FF90EF9008950F93062FF6
:1048900026E046E061E0FC0180810E9495220F91B4
:1048A0000895EF92FF920F931F93CF93DF93EC0144
:1048B000E0904501F09046018C010F5F1F4F26E00C
:1048C00046E062E088810E9425228981DF91CF91B4
:1048D0001F910F91FF90EF9008950F93062F26E000
:1048E00046E062E0FC0180810E9495220F910895CC
:1048F000AB0166E0FC0180810C943721AB0168E0DC
:10490000FC0180810C943721AB016AE0FC018081BD
:104910000C943721AB0163E1FC0180810C943721B9
:10492000AB0165E1FC0180810C943721AB0167E1AB
:10493000FC0180810C943721262F47E06AE6FC01B8
:1049400080810C94622221E043E06AE6FC018081D0
:104950000C9462226F712111606241116064462FD4
:104960006DE6FC0180810C94E920462F6EE6FC0187
:1049700080810C94E920CF93DF93EC0120914501D5
:1049800030914601AC014F5F5F4F6FE688810E9416
:10499000F6218981DF91CF9108955F926F927F9286
:1049A0008F929F92AF92BF92CF92DF92EF92FF923F
:1049B0000F931F93CF93DF937C015B016A01622EFB
:1049C000702E20E040E0662D0E94AA24602FC701CF
:1049D0000E94B524C0E0D0E0812C99249394CC159A
:1049E000DD05A8F5CE014096C816D90618F45C2C52
:1049F0005C1A02C0A0E15A2E252D30E0C4018719AF
:104A000091098217930714F4572C51940091450192
:104A10001091460195012C0F3D1F452D6FE6F701C2
:104A200080810E944921C50DD11D750CCC15DD0575
:104A3000B0F6711001C0639420E040E0662DC7011C
:104A40000E94AA24672DC7010E94B524C8CFDF9118
:104A5000CF911F910F91FF90EF90DF90CF90BF907B
:104A6000AF909F908F907F906F905F9008952F925E
:104A70003F924F925F926F927F928F929F92AF92EE
:104A8000BF92CF92DF92EF92FF920F931F93CF933B
:104A9000DF9300D000D01F92CDB7DEB79D838C830B
:104AA0007B836A834A01322ED02EE98220E040E0E7
:104AB000632D0E94AA24602F8C819D810E94B524C1
:104AC000E980EE2029F080E190E00E9483315C01D2
:104AD000CC2031F080E190E00E948331582E492EA5
:104AE000E12CF12CE814F90408F07AC0C7014096D3
:104AF0008816990618F4282C2E1802C010E1212ED1
:104B0000222D30E080E091E08D1991098217930702
:104B100014F42D2C2194EA81FB81EE0DFF1DCC2095
:104B200059F0852DA52DB42D9A2F981B921530F490
:104B300094919D933196F8CF5E2E4F2E252D342DD6
:104B4000422D6FE6AC81BD818C910E94B020622C19
:104B5000712CB981BB2369F1A114B10451F120E09A
:104B600040E0632D8C819D810E94AA246D2D8C8153
:104B70009D810E94B5240091450110914601950147
:104B8000422D6FE6EC81FD8180810E944921A301C5
:104B9000B501852D942D0E942B36892B51F0C5012E
:104BA0000E941B32CC2049F1852D942D0E941B328E
:104BB00024C0E60CF71CD20CE814F90408F092CFDC
:104BC000D11001C0339420E040E0632D8C819D81A1
:104BD0000E94AA246D2D8C819D810E94B52482CFD4
:104BE000F981FF2319F0C5010E941B32CC2039F056
:104BF000852D942D0E941B3202C080E001C081E00F
:104C00000F900F900F900F900F90DF91CF911F9109
:104C10000F91FF90EF90DF90CF90BF90AF909F905B
:104C20008F907F906F905F904F903F902F9008955E
:104C3000CF92EF920F93CC24C3940E9437250F910B
:104C4000EF90CF9008952F923F924F925F926F9284
:104C50007F928F929F92AF92BF92CF92DF92EF920C
:104C6000FF920F931F93CF93DF9300D01F92CDB786
:104C7000DEB74C017B836A833A01D22E222331F0C6
:104C800088E090E00E948331182FF92E212C312CDE
:104C90002614370408F051C0EA81FB81E20DF31DB0
:104CA000C10103965C01DD20C1F04491F101319610
:104CB0008A819B81E80FF91F0491F1013296E80F78
:104CC000F91F5490511044C0F4E02F0E311CEA81BA
:104CD000FB81EA0DFB1D84910DC040810181528052
:104CE000EA81FB81E80FF91F51100DC084E0280E06
:104CF000311C80818130D1F442E368E3F40180818A
:104D00000E94E920C5CF1E2FFF2E452C512CC12C0F
:104D1000EE24E394242FA201612F7F2DC4010E9471
:104D2000372512012A0C3B1C8111B2CFDD2061F026
:104D3000812F9F2D0E941B3207C0DD2039F0812F6B
:104D40009F2D0E941B3202C080E024C081E022C05F
:104D5000252C312CF2E0F51548F4B101812F9F2D5F
:104D600049830E94AA32182FF92E4981812F9F2D45
:104D7000A0E0B0E02A813B812A0D3B1DA215B305BE
:104D800020F6F901EA0FFB1F5491FC015193CF016A
:104D90001196F4CF0F900F900F90DF91CF911F914C
:104DA0000F91FF90EF90DF90CF90BF90AF909F90CA
:104DB0008F907F906F905F904F903F902F900895CD
:104DC00021E00C942326462F60E7FC0180810C949F
:104DD000E920462F61E7FC0180810C94E9208230B4
:104DE000E8F4E82FF0E0EE0FFF1FEE52FB4F718367
:104DF0006083813041F0809169008C7F842B8093A7
:104E00006900E89A089580916900440F551F440F86
:104E1000551F837F842B80936900E99A08951F9220
:104E20000F920FB60F9211242F933F934F935F93DE
:104E30006F937F938F939F93AF93BF93EF93FF9362
:104E40008091D2049091D304892B29F0E091D2046F
:104E5000F091D3040995FF91EF91BF91AF919F918C
:104E60008F917F916F915F914F913F912F910F9013
:104E70000FBE0F901F9018951F920F920FB60F92B2
:104E800011242F933F934F935F936F937F938F934F
:104E90009F93AF93BF93EF93FF938091D40490912E
:104EA000D504892B29F0E091D404F091D50409951B
:104EB000FF91EF91BF91AF919F918F917F916F91F2
:104EC0005F914F913F912F910F900FBE0F901F90C8
:104ED00018951F920F920FB60F9211242F933F93A4
:104EE0008F939F93AF93BF938091D7049091D804F1
:104EF000A091D904B091DA043091D60423E0230FB5
:104F00002D3720F40196A11DB11D05C026E8230F01
:104F10000296A11DB11D2093D6048093D7049093CF
:104F2000D804A093D904B093DA048091DB04909163
:104F3000DC04A091DD04B091DE040196A11DB11D39
:104F40008093DB049093DC04A093DD04B093DE0433
:104F5000BF91AF919F918F913F912F910F900FBE75
:104F60000F901F9018952FB7F8946091D704709107
:104F7000D8048091D9049091DA042FBF08953FB7E7
:104F8000F8948091DB049091DC04A091DD04B09151
:104F9000DE0426B5A89B05C02F3F19F00196A11D80
:104FA000B11D3FBF6627782F892F9A2F620F711D81
:104FB000811D911D42E0660F771F881F991F4A953A
:104FC000D1F70895CF92DF92EF92FF92CF93DF93C4
:104FD0006B017C010E94BF27EB01C114D104E104E5
:104FE000F10489F00E94B72D0E94BF276C1B7D0B36
:104FF000683E734090F381E0C81AD108E108F108D7
:10500000C851DC4FEACFDF91CF91FF90EF90DF9056
:10501000CF900895789484B5826084BD84B5816012
:1050200084BD85B5826085BD85B5816085BDEEE6B0
:10503000F0E0808181608083E1E8F0E0108280818F
:1050400082608083808181608083E0E8F0E08081FD
:1050500081608083E1EBF0E0808184608083E0EB1D
:10506000F0E0808181608083EAE7F0E08081846005
:105070008083808182608083808181608083808161
:10508000806880831092C10008951F93CF93DF93AF
:10509000182FEB0161E00E94CD28209711F460E009
:1050A00004C0CF3FD10539F461E0812FDF91CF916A
:1050B0001F910C940629E12FF0E0E45DF64FE49196
:1050C000E330F9F048F4E130B9F0E230A1F584B50D
:1050D000806284BDC8BD34C0E730E9F0E83019F122
:1050E000E43049F580918000806280938000D09305
:1050F0008B00C0938A0024C084B5806884BDC7BD7E
:105100001FC080918000806880938000D0938900C8
:10511000C093880015C08091B00080688093B00073
:10512000C093B3000DC08091B00080628093B00046
:10513000C093B40005C0C038D1050CF0B5CFAFCFD7
:10514000DF91CF911F910895833081F028F4813051
:1051500099F08230A1F008958730A9F08830B9F035
:105160008430D1F4809180008F7D03C080918000D5
:105170008F7780938000089584B58F7702C084B5BF
:105180008F7D84BD08958091B0008F7703C080919A
:10519000B0008F7D8093B0000895CF93DF9390E0AF
:1051A000FC01E05CF64F2491FC01EC5AF64F84912F
:1051B000882349F190E0880F991FFC01E458F64FCD
:1051C000A591B4918E58964FFC01C591D4919FB78B
:1051D000611108C0F8948C91209582238C9388816A
:1051E00082230AC0623051F4F8948C91322F3095AA
:1051F00083238C938881822B888304C0F8948C91BC
:10520000822B8C939FBFDF91CF9108950F931F93B3
:10521000CF93DF931F92CDB7DEB7282F30E0F9018F
:10522000E45DF64F8491F901E05CF64F1491F901C9
:10523000EC5AF64F04910023C9F0882321F06983CA
:105240000E94A4286981E02FF0E0EE0FFF1FEE58C6
:10525000F64FA591B4919FB7F8948C91611103C05A
:105260001095812301C0812B8C939FBF0F90DF91FC
:10527000CF911F910F910895CF93DF93282F30E0A6
:10528000F901E45DF64F8491F901E05CF64FD491A9
:10529000F901EC5AF64FC491CC2391F081110E9490
:1052A000A428EC2FF0E0EE0FFF1FE859F64FA59170
:1052B000B4912C912D2381E090E021F480E002C094
:1052C00080E090E0DF91CF910895FC01818D228DE7
:1052D00090E0805C9F4F821B91098F7399270895FE
:1052E000FC01918D828D981731F0828DE80FF11DB0
:1052F000858D90E008958FEF9FEF0895FC01918DCB
:10530000828D981761F0828DDF01A80FB11D5D9627
:105310008C91928D9F5F9F73928F90E008958FEF95
:105320009FEF089582E09BE2892B49F080E090E0B6
:10533000892B29F00E94022B81110C940000089502
:10534000FC01848DDF01A80FB11DA35ABF4F2C9122
:10535000848D90E001968F739927848FA689B789F1
:105360002C93A089B1898C9180648C93938D848DCA
:10537000981306C00288F389E02D80818F7D808399
:105380000895CF93DF93EC01888D8823C9F0EA89D3
:10539000FB89808185FD05C0A889B9898C9186FD2E
:1053A0000FC00FB607FCF5CF808185FFF2CFA8892B
:1053B000B9898C9185FFEDCFCE010E94A029E7CF5E
:1053C000DF91CF910895CF92DF92FF920F931F93B9
:1053D000CF93DF931F92CDB7DEB76C01DC015B96F4
:1053E0009C915B975C968C915C97981307C0509644
:1053F000ED91FC915197808185FD32C0F601038DBE
:1054000010E00F5F1F4F0F731127F02EF601848DF0
:10541000F81211C00FB607FCF9CFD6015096ED91E6
:10542000FC915197808185FFF1CFC60169830E946D
:10543000A0296981EBCF838DE80FF11DE35AFF4F5F
:105440006083D6015B960C935B975296ED91FC912D
:10545000539780818062808381E058968C930DC041
:10546000D6015696ED91FC91579760835096ED9139
:10547000FC91519780818064808381E090E00F905F
:10548000DF91CF911F910F91FF90DF90CF90089502
:10549000BF92CF92DF92EF92FF92CF93DF93EC0116
:1054A0006A017B01B22EE889F98982E08083411587
:1054B00081EE580761057105A1F060E079E08DE3A8
:1054C00090E0A70196010E94223121503109410943
:1054D00051095695479537952795211580E138074D
:1054E00098F0E889F989108260E874E88EE190E02C
:1054F000A70196010E942231215031094109510929
:105500005695479537952795EC85FD853083EE8533
:10551000FF852083188EEC89FD89B082EA89FB899A
:10552000808180618083EA89FB89808188608083B3
:10553000EA89FB89808180688083EA89FB89808190
:105540008F7D8083DF91CF91FF90EF90DF90CF90A0
:10555000BF9008951F920F920FB60F9211242F93B0
:105560008F939F93EF93FF93E091EF04F091F004FA
:105570008081E091F504F091F60482FD12C09081E3
:105580008091F8048F5F8F732091F904821751F096
:10559000E091F804F0E0E152FB4F958F8093F8041E
:1055A00001C08081FF91EF919F918F912F910F907A
:1055B0000FBE0F901F9018951F920F920FB60F926B
:1055C00011242F933F934F935F936F937F938F9308
:1055D0009F93AF93BF93EF93FF938FED94E00E945F
:1055E000A029FF91EF91BF91AF919F918F917F91F2
:1055F0006F915F914F913F912F910F900FBE0F9040
:105600001F9018958FED94E00E94652921E0892B69
:1056100009F420E0822F08951092E2041092E10430
:1056200088EE93E0A0E0B0E08093E3049093E4047C
:10563000A093E504B093E60484E492E09093E00440
:105640008093DF0485EC90E09093EC048093EB046E
:1056500084EC90E09093EE048093ED0480EC90E075
:105660009093F0048093EF0481EC90E09093F20427
:105670008093F10482EC90E09093F4048093F3041F
:1056800086EC90E09093F6048093F5041092F80471
:105690001092F9041092FA041092FB0408950895F0
:1056A0000E940A280E944F2B0E941510C2E9D9E2DD
:1056B0000E94E4172097E1F30E949229F9CFCF923C
:1056C000DF92EF92FF920F931F93CF93DF936C01C2
:1056D0007A01EB01E60EF71E00E010E0CE15DF05C3
:1056E00061F06991D601ED91FC910190F081E02D7E
:1056F000C6010995080F191FF1CFC801DF91CF919D
:105700001F910F91FF90EF90DF90CF90089561155A
:10571000710581F0DB010D900020E9F7AD014150EA
:105720005109461B570BDC01ED91FC910280F3817E
:10573000E02D099480E090E008950C94872BDC0123
:10574000ED91FC910190F081E02D09940F931F934E
:10575000CF93DF93EC016DE00E949F2B8C016AE0F8
:10576000CE010E949F2B800F911FDF91CF911F913F
:105770000F9108950F931F93CF93DF93EC010E9435
:10578000872B8C01CE010E94A62B800F911FDF91E9
:10579000CF911F910F9108958F929F92AF92BF92D8
:1057A000CF92DF92EF92FF920F931F93CF93DF93ED
:1057B000CDB7DEB7A1970FB6F894DEBF0FBECDBF51
:1057C0007C01C42EE52FCB01D22E19A221E02D158C
:1057D00010F02AE0D22E8E010F5D1F4F8D2C912CE0
:1057E000A12CB12C6C2D7E2FA50194010E94223199
:1057F0008C2DD29E80191124015011098A3014F485
:10580000805D01C0895CF801808321153105410567
:10581000510521F0C22EE32FCA01E4CFB801C70120
:105820000E94872BA1960FB6F894DEBF0FBECDBFA6
:10583000DF91CF911F910F91FF90EF90DF90CF906C
:10584000BF90AF909F908F900895CF92DF92EF928C
:10585000FF920F931F93CF93DF93EC016A017B01BB
:105860002115310579F4E881F9810190F081E02D6D
:10587000642FDF91CF911F910F91FF90EF90DF90F8
:10588000CF9009942A303105E9F477FF1AC06DE210
:105890000E949F2B8C0144275527BA014C195D09A2
:1058A0006E097F092AE0CE010E94CC2B800F911F48
:1058B000DF91CF911F910F91FF90EF90DF90CF90EC
:1058C00008952AE0B701A601CE01DF91CF911F9183
:1058D0000F91FF90EF90DF90CF900C94CC2B21157F
:1058E000310541F4DC01ED91FC910190F081E02D56
:1058F000642F09940C94CC2B9A01462F50E060E061
:1059000070E00C946F2C4F925F926F927F928F9207
:105910009F92AF92BF92CF92DF92EF92FF920F933E
:105920001F93CF93DF93EC016A017B01B22E9A01A2
:10593000AB01C701B6010E94F930882319F060E578
:1059400072E027C026013701E89477F82FEF3FEF88
:105950004FE75FE7C301B2010E94F93081110DC02A
:105960002FEF3FEF4FE75FE7C301B2010E947F2EA9
:1059700018161CF464E572E00CC02FEF3FEF4FE700
:105980005FE4C701B6010E9440301816ACF468E528
:1059900072E0CE01DF91CF911F910F91FF90EF90B8
:1059A000DF90CF90BF90AF909F908F907F906F903F
:1059B0005F904F900C94872B2FEF3FEF4FE75FECFA
:1059C000C701B6010E947F2E87FDE1CF20E030E0C5
:1059D000A901C701B6010E947F2E87FF0AC06DE2B0
:1059E000CE010E949F2B8C01F7FAF094F7F8F09407
:1059F00002C000E010E0A12C60E070E080E09FE3D6
:105A0000AB1441F020E030E040E251E40E94862EE9
:105A1000A394F6CF9B01AC01C701B6010E94B92D3A
:105A20006B017C010E94F32E2B013C010E941F2F71
:105A30009B01AC01C701B6010E94B82D6B017C012E
:105A40002AE0B301A201CE010E94CC2B080F191F3E
:105A5000BB2039F06CE572E0CE010E94872B080F65
:105A6000191F7B2C772041F120E030E040E251E427
:105A7000C701B6010E944B306B017C010E94EE2EE3
:105A80004B01AA2497FCA094BA2C2AE030E0B5017F
:105A9000A401CE010E94252C080F191FC501B401D5
:105AA0000E94212F9B01AC01C701B6010E94B82DB5
:105AB0006B017C017A94D6CFC801DF91CF911F9101
:105AC0000F91FF90EF90DF90CF90BF90AF909F909D
:105AD0008F907F906F905F904F9008950C94832CDF
