:100000000C94E5040C94E7260C9414270C940D052D
:100010000C940D050C940D050C940D050C940D0518
:100020000C940D050C940D050C940D050C940D0508
:100030000C940D050C940D050C940D050C940D05F8
:100040000C9441270C940D050C949F2A0C94D12AF2
:100050000C940D050C940D050C940D050C940D05D8
:100060000C945B1F0C940D05084AD73B3BCE016EE8
:1000700084BCBFFDC12F3D6C74319ABD56833DDAFF
:100080003D00C77F11BED9E4BB4C3E916BAAAABE0E
:10009000000000803F05A84CCDB2D44EB93836A937
:1000A000020C50B9918688083CA6AAAA2ABE000074
:1000B00000803F0001B202FFFF0190040923A13537
:1000C000016A020600016008000000000000000054
:1000D00000600440000000016202000000600400B3
:1000E000400000037B034CCD6C03AB033656760017
:1000F000680402CB47A202180400058BC1010C045E
:1001000000000000037F060CC92C97979703890312
:10011000264666006C022000024004000000000237
:1001200044040000000002480400000000024C04E7
:10013000000000000250040000000002540400000F
:10014000000002580400000000025C0400000000EF
:1001500002BC040000000001EC0400004000037F2A
:10016000060CC92C9797970402030D355D0409040A
:10017000872D353D00A3010000000001078601FE28
:10018000074105F120283038077E01300746019AE3
:10019000074704F1283038076C04F128303802167C
:1001A000020001FB00003E000B00360001000200CF
:1001B00003000000650054FFEF0000FA80000B12FE
:1001C00082000100020000000000000000000000AA
:1001D00000000000280000FFFF4581FFFFFA7200C9
:1001E000000000000003E80000000100017FFFFFA5
:1001F000FE8001001B000000000000000000000065
:10020000000000003E03304000000002CAE3093E47
:10021000800000200000000000000040000000609E
:1002200000000041FF000000000B2A0000165500EE
:10023000002182FD872650FD800000001F00000085
:100240000580000000000000010000000200000026
:10025000030000400000000000046F00026532004F
:10026000005EC04000000000000000000000000030
:10027000000000FB8C6F5DFD5D08D9007C733B00C6
:100280006C12CC3200139D3200D0D63200080040F0
:100290000001F4FFE68079020000000000D0D600E3
:1002A000002710FB000000400000000000000000DC
:1002B000000000000000010000000000000100013B
:1002C0000000000000FA36FFBC308E0005FBF0FF96
:1002D000D95BC8FFD09ABE000010A9FFF41EB2007F
:1002E000CEBBF70000000100000004000200020283
:1002F00000000CFFC280000001800000CF800040A1
:1003000000000000000001000000000000060000E6
:1003100000001400000000000000000000000000C9
:1003200000000000000000000000000000000000CD
:1003300000000000000000000000000000000000BD
:1003400000000000000000033F68B6793528BCC6F5
:100350007ED16C80000000400000000000B26A0006
:10036000000000000000000000000000003FF0005E
:10037000000030000000000000000000000000004D
:10038000000000000000000000000000000000006D
:100390000000000000254D002F706D000005AE002C
:1003A0000C02D00000000000650054FFEF000000C8
:1003B000000000000001000044000000000C0000EC
:1003C000000100000000000065000000540000FF74
:1003D000EF0000000000000000000000000000002E
:1003E00000000040000000000000000000000000CD
:1003F00000000040000000000000000000000000BD
:1004000000000000000001000000020000000000E9
:1004100000000000000000000000000000000000DC
:1004200000000000000000000000000000000000CC
:10043000000000001B0000000000000000000000A1
:1004400000000000000000000000000000000000AC
:10045000000000000000000000000000000000405C
:10046000000000001B000000000000000000000071
:10047000000000000000000000000000000000007C
:10048000000000000000000000000000000000006C
:10049000000000000000000000000000000000005C
:1004A000000000D8DCBAA2F1DEB2B8B4A88191F79E
:1004B0004A907F916AF3F9DBA8F9B0BAA080F2CE36
:1004C00081F3C2F1C1F2C3F3CCA2B280F1C6D880ED
:1004D000BAA7DFDFDFF2A7C3CBC5B6F087A29424AB
:1004E00048703C95406834589B78A2F183922D5512
:1004F0007DD8B1B4B8A1D09180F270F370F27C8055
:10050000A8F101B09887D943D886C988BAA1F20E5C
:10051000B89780F1A9DFDFDFAADFDFDFF2AAC5CD60
:10052000C7A90CC92C97979797F1A989264666B059
:10053000B4BA80ACDEF2CAF1B28C02A9B6980089D6
:100540000E161EB8A9B4992C547CB08AA8963656BB
:1005500076F1B9AFB4B083C0B8A89711B18F98B98C
:10056000AFF0240844106418F1A329557DAF83B57A
:1005700093AFF0002850F1A3869F61A6DADEDFD9A1
:10058000FAA38696DB31A6D9F8DFBAA68FC2C5C713
:10059000B28CC1B8A2DFDFDFA3DFDFDFD8D8F1B8CC
:1005A000A8B286B4980D355DB8AA98B0872D353DB0
:1005B000B2B6BAAF8C96198F9FA70E161EB49AB812
:1005C000AA872C547CB9A3DEDFDFA3B180F2C4CDAF
:1005D000C9F1B8A9B499830D355D89B9A32D557DAD
:1005E000B593A30E161EA92C547CB8B4B0F1978312
:1005F000A81184A50998A383F0DA2408441064188C
:10060000D8F1A529557DA58595021A2E3A565A404E
:1006100048F9F3A3D9F8F098832408441064189794
:1006200082A8F111F098A2240844106418DAF3DECD
:10063000D883A59401D9A302F1A2C3C5C7D8F18478
:1006400092A24DDA2AD84869D92AD86855DA32D820
:100650005071D932D8705DDA3AD85879D93AD87809
:1006600093A34DDA2AD84869D92AD86855DA32D8FE
:100670005071D932D8705DDA3AD85879D93AD878E9
:10068000A88A9AF02850789EF38818F19F1D98A8A0
:10069000D908D8C89F129EF315A8DA1210D8F1AF66
:1006A000C8978734B5B994A421F3D922D8F22DF391
:1006B000D92AD8F235F3D932D881A4606061D961E2
:1006C000D86C6869D969D8747071D971D8B1A384AC
:1006D000193D5DA3831A3E5E931030811011B8B0AE
:1006E000AF8F94F2DA3ED8B49AA88729DAF8D8877F
:1006F0009A35DAF8D8879A3DDAF8D8B1B9A498854E
:10070000022E56A581000C14A397B08AF12DD9288A
:10071000D84DD948D86DD968D8B1840DDA0ED8A390
:100720002983DA2C0ED8A3844983DA2C4C0ED8B84E
:10073000B0A88A9AF520AADADFD8A840AAD0DADED3
:10074000D8A860AADAD0DFD8F19786A8319B06999D
:1007500007AB9728889BF00C201440B8B0B4A88C45
:100760009CF0042851791D301438B282ABD0982CFB
:10077000505078789BF11AB0F08A9CA82951798B57
:100780002951798A2470598B2058718A4469388B91
:100790003940688A6448318B304960A588200971E6
:1007A000584468113964493019F1AC002C547CF07C
:1007B0008CA804285078F1889726A85998AC8C0208
:1007C000264666F0899CA8295179247059446938D5
:1007D000644831A98809205970AB11384069A819BB
:1007E0003148608CA83C415C207C00F187981986D8
:1007F000A86E767EA999882D557D9EB9A38A228AF6
:100800006E8A568A5E9FB183062646660E2E4E6E0F
:100810009DB8AD002C547CF2B18CB499B9A32D5580
:100820007D8191AC38AD3AB58391AC2DD928D84DA6
:10083000D948D86DD968D88C9DAE29D904AED85185
:10084000D904AED879D904D881F39DAD008DAE1905
:1008500081ADD901D8F2AEDA26D88E912983A7D9F5
:10086000ADADADADF32AD8D8F1B0AC89913E5E768E
:10087000F3AC2E2EF1B18C5A9CAC2C2828289CACC1
:100880003018A8988128343C9724A728343C9C240D
:10089000F2B089AC912C4C6C8A9B2DD9D8D851D907
:1008A000D8D879D9D8D8F19E88A331DAD8D8912D63
:1008B000D928D84DD948D86DD968D8B18393353D5A
:1008C0008025DAD8D88569DAD8D8B49381A32834BA
:1008D0003CF3AB8BF8A391B609B4D9ABDEFAB08781
:1008E0009CB9A3DDF1A3A3A3A395F1A3A3A39DF1B9
:1008F000A3A3A3A3F2A3B49080F2A3A3A3A3A3A34F
:10090000A3A3A3A3B2A3A3A3A3A3A3B087B599F161
:10091000A3A3A398F1A3A3A3A397A3A3A3A3F39B28
:10092000A3A3DCB9A7F1262626D8D8FF000000082B
:1009300000020100000304070000000000000000A6
:100940000102040810204080010204081020010266
:100950000408102004040404040404040202020233
:100960000202030303030303000000002300260028
:10097000290000000000250028002B0000000000D6
:10098000240027002A004E414E494E495459494EF1
:1009900046CDCCCC3D0AD7233C17B7D13877CC2BEA
:1009A000329595E6241FB14F0A000020410000C88F
:1009B0004200401C4620BCBE4CCA1B0E5AAEC59D10
:1009C0007400EC16931D791E012B11241FBECFEF6E
:1009D000D8E0DEBFCDBF12E0A0E0B1E0E6EFFCE67C
:1009E00002C005900D92A636B107D9F725E0A6E61C
:1009F000B2E001C01D92AE37B207E1F719E0CAECD0
:100A0000D9E004C02297FE010E946531C23CD107A3
:100A1000C9F70E94452B0C9479360C9400001F9264
:100A20000F920FB60F9211242F938F939F93AF9332
:100A3000BF9323B1822F817090E04A9B03C0892B22
:100A400019F00EC0892B61F08091710390917203AF
:100A5000A0917303B09174030196A11DB11D0BC049
:100A60008091710390917203A0917303B09174030C
:100A70000197A109B1098093710390937203A09328
:100A80007303B0937403BF91AF919F918F912F9196
:100A90000F900FBE0F901F9018951F920F920FB6D8
:100AA0000F9211242F938F939F93AF93BF9323B1F2
:100AB00021FB882780F990E04B9B03C0892B19F01C
:100AC0000EC0892B61F08091750390917603A091FF
:100AD0007703B09178030196A11DB11D0BC08091E1
:100AE000750390917603A0917703B09178030197F5
:100AF000A109B1098093750390937603A0937703BE
:100B0000B0937803BF91AF919F918F912F910F90E8
:100B10000FBE0F901F9018959C01FC01EE57FF4FE0
:100B200080819181680F791F6138710530F471837C
:100B300060830296820F931F089580E090E00895ED
:100B40009C01FC01EE5BFF4F80819181680F791F52
:100B50006134710530F4718360830296820F931FB4
:100B6000089580E090E00895609143017091440100
:100B70000E94C11B0E94781A21E06130710509F0C2
:100B800020E020933E01089560914301709144015B
:100B90000E94C11B0E94781A21E06130710509F0A2
:100BA00020E02093EE030895609143017091440189
:100BB0000E94C11B0E94781A21E06130710509F082
:100BC00020E020933F01622F8CE00C94FB280E94D0
:100BD000541AFC0181E0208131812230310508F472
:100BE00080E00895CF93DF93EC0168E471E00E9408
:100BF000E705882311F168E471E0CE010E94C11B72
:100C000060E070E00E94D31A0E94691A0E94E32EED
:100C1000709368036093670368E471E0CE010E94FB
:100C2000C11B61E070E00E94D31A0E94691A0E9401
:100C3000E32E70936A03609369036DE471E0CE0163
:100C40000E94E705882309F469C06DE471E0CE01D4
:100C50000E94C11B60E070E00E94D31A0E94691AD2
:100C6000609328017093290180932A0190932B01AE
:100C70006DE471E0CE010E94C11B61E070E00E9452
:100C8000D31A0E94691A60932C0170932D018093EE
:100C90002E0190932F016DE471E0CE010E94C11BE3
:100CA00062E070E00E94D31A0E94691A60933001DA
:100CB00070933101809332019093330110920F03AE
:100CC000109210031092110310921203109242031B
:100CD00010924303109244031092450310920B03A9
:100CE00010920C0310920D0310920E0310923E030B
:100CF00010923F0310924003109241031092070399
:100D0000109208031092090310920A0310923A03FA
:100D100010923B0310923C0310923D0361E571E099
:100D2000CE010E94E705882309F45CC061E571E00B
:100D3000CE010E94C11B60E070E00E94D31A0E94A5
:100D4000781A84E593E00E94502461E571E0CE01B9
:100D50000E94C11B61E070E00E94D31A0E94781AC1
:100D600084E593E00E94562461E571E0CE010E9483
:100D7000C11B62E070E00E94D31A0E94781A84E5D9
:100D800093E00E945C2461E571E0CE010E94C11BEA
:100D900063E070E00E94D31A0E94781A84E593E021
:100DA0000E94622461E571E0CE010E94C11B64E0F3
:100DB00070E00E94D31A0E94781A84E593E00E94A2
:100DC000682461E571E0CE010E94C11B65E070E01E
:100DD0000E94D31A0E94781A84E593E0DF91CF91A4
:100DE0000C946E24DF91CF910895CF93DF93EC01A3
:100DF00060914301709144010E94C11B0E94781AC6
:100E000021E06130710509F020E02093EF0360914B
:100E1000410170914201CE010E94E705882369F0EB
:100E20006091410170914201CE010E94C11B0E945C
:100E3000781A7093390160933801DF91CF9108954A
:100E40008F929F92AF92BF92CF92EF920F931F9388
:100E5000CF93DF93CDB7DEB7C059D1090FB6F89461
:100E6000DEBF0FBECDBF5C010E9441236EE170E08A
:100E700080E090E00E94BA2760E0C5010E9448230C
:100E800021E041E060E1C5010E94822466E0C501E5
:100E90000E948D24C5010E94932420E040E060E080
:100EA000C5010E948224C5010E94BD23C5010E9484
:100EB000DB23182FC5010E940224882EC5010E9441
:100EC0002924982E4FE760E0C5010E94012360E0CD
:100ED000C5010E942C2348E660E0C5010E94012361
:100EE000C5010E943A2364E170E080E090E00E9436
:100EF000BA27EE24E39400E020E049E857E063EAF3
:100F000071E0C5010E94F025882309F40EC240EC6F
:100F100050E063EE70E0C5010E94B826882309F412
:100F200006C263E0C5010E944F2362E1C5010E9431
:100F30000D2364E0C5010E94B72261E0C5010E9453
:100F4000BD2263E0C5010E94C82263E0C5010E9482
:100F5000D32263E0C5010E94BB2660E0C5010E9468
:100F6000C12660E0C5010E94D423612FC5010E9403
:100F7000F723682DC5010E941E24692DC5010E941A
:100F80004524812C912CF401EC54FF4FE491A1E80D
:100F9000B0E0AC0FBD1FA80DB11DEC9381E0880D32
:100FA0009FEF891A990AE3E0E81568F7CD57DF4FFC
:100FB0004881C358D04050E09A012E5F3F4F90E0E7
:100FC0002817390704F7C12CEE24E394CE57DF4FDE
:100FD0000881C258D040CF57DF4F2881C158D04038
:100FE00061E870E06C0F7D1F6D5F7F4FC5010E944F
:100FF0000F2560E0F401EC54FF4FE491A1E8B0E06C
:10100000AC0FBD1FA60FB11DEC936F5FFFEF8F1AE2
:101010009F0A643078F3CD57DF4F4881C358D040E2
:1010200050E09A012E5F3F4F862F90E02817390736
:101030000CF7C12CEE24E394CE57DF4F0881C25841
:10104000D040CF57DF4F2881C158D04061E870E0D1
:101050006C0F7D1F6D5F7F4FC5010E940F25C5017D
:101060000E943323C5010E946E23482FBE016F5F8B
:101070007F4FC5010E948A2362E0C5010E94E922D8
:101080006CE9C5010E94F52260E5C5010E94EF22CE
:1010900060E0C5010E94FB22C5010E94332361E08C
:1010A000C5010E94252361E0C5010E947424C50189
:1010B0000E947B2460E0F401EC54FF4FE491A1E82E
:1010C000B0E0AC0FBD1FA60FB11DEC936F5F8FEFAB
:1010D000881A980A643078F3CD57DF4F4881C35897
:1010E000D04050E09A012E5F3F4F862F90E02817A6
:1010F00039070CF7C12CEE24E394CE57DF4F08815B
:10110000C258D040CF57DF4F2881C158D04061E846
:1011100070E06C0F7D1F6D5F7F4FC5010E940F2532
:1011200060E0F401EC54FF4FE491A1E8B0E0AC0FB3
:10113000BD1FA60FB11DEC936F5F9FEF891A990A2F
:10114000643078F3CD57DF4F4881C358D04050E02A
:101150009A012E5F3F4F862F90E0281739070CF732
:10116000C12CEE24E394CE57DF4F0881C258D04003
:10117000CF57DF4F2881C158D04061E870E06C0F35
:101180007D1F6D5F7F4FC5010E940F2560E0F40158
:10119000EC54FF4FE491A1E8B0E0AC0FBD1FA60FE7
:1011A000B11DEC936F5FEFEF8E1A9E0A643078F3F7
:1011B000CD57DF4F4881C358D04050E09A012E5F91
:1011C0003F4F862F90E0281739070CF7C12CEE24EB
:1011D000E394CE57DF4F0881C258D040CF57DF4F3E
:1011E0002881C158D04061E870E06C0F7D1F6D5FB1
:1011F0007F4FC5010E940F25C5010E946E238330D9
:101200009105D0F3482FBE016F5F7F4FC5010E944B
:101210008A23C5010E94132360E0F401EC54FF4FC0
:10122000E491A1E8B0E0AC0FBD1FA60FB11DEC9397
:101230006F5FFFEF8F1A9F0A643078F3CD57DF4F4F
:101240004881C358D04050E09A012E5F3F4F862F0F
:1012500090E0281739070CF7CE57DF4F0881C258A6
:10126000D040CF57DF4F2881C158D04061E870E0AF
:101270006C0F7D1F6D5F7F4FC5010E94A524C501C6
:101280000E946E2383309105D0F3482FBE016F5F1B
:101290007F4FC5010E948A23C5010E941323F401D8
:1012A000EC54FF4F60E08491A1E8B0E0AC0FBD1FAB
:1012B000A60FB11D8C936F5F643010F43196F3CF9D
:1012C000CD57DF4F4881C358D04050E09A012E5F80
:1012D0003F4F862F90E02817390784F761E870E0C8
:1012E0006C0F7D1F6D5F7F4FC12CEE24E394CE57B2
:1012F000DF4F0881C258D040CF57DF4F2881C158F7
:10130000D040C5010E940F2560E0C5010E947424F1
:101310008AE290E0F50193838283C5010E94332322
:10132000C5010E94132380E003C081E001C082E078
:10133000C057DF4F0FB6F894DEBF0FBECDBFDF91B1
:10134000CF911F910F91EF90CF90BF90AF909F9052
:101350008F900895CF93DF93DB01FA01309719F452
:10136000EC01E881F981808190E0982F8827218124
:10137000820F911D11969C938E93848190E0982FFB
:1013800088272581820F911D13969C938E93129727
:10139000808590E0982F88272185820F911D1596D2
:1013A0009C938E931497848590E0982F88272585A9
:1013B000820F911D17969C938E93169780E0DF9174
:1013C000CF910895FF920F931F93CF93DF93CDB7E3
:1013D000DEB728970FB6F894DEBF0FBECDBF8B01E6
:1013E000BE016F5F7F4F0E94AA09F82E81114CC089
:1013F00069817A81882777FD8095982F0E94162F22
:1014000020E030E040E858E30E944030F80160837B
:101410007183828393836B817C81882777FD80959C
:10142000982F0E94162F20E030E040E858E30E94F9
:101430004030F80164837583868397836D817E8154
:10144000882777FD8095982F0E94162F20E030E0A6
:1014500040E858E30E944030F80160877187828736
:1014600093876F817885882777FD8095982F0E94D4
:10147000162F20E030E040E858E30E944030F801A9
:1014800064877587868797878F2D28960FB6F8947F
:10149000DEBF0FBECDBFDF91CF911F910F91FF90A7
:1014A00008954F925F926F927F928F929F92AF9228
:1014B000BF92CF92DF92EF92FF920F931F93CF9341
:1014C000DF93CDB7DEB728970FB6F894DEBF0FBE17
:1014D000CDBF8B01DA011496CD90DD90ED90FC909C
:1014E00017971C964D905D906D907C901F978D90F6
:1014F0009D90AD90BC90139718968D919D910D90F5
:10150000BC91A02D89839A83AB83BC83A3019201F4
:10151000C701B6010E9440306D837E838F83988718
:1015200029813A814B815C81C501B4010E94403020
:101530009B01AC016D817E818F8198850E94AD2DCC
:101540009B01AC010E94AE2DF80160837183828300
:101550009383A7019601C501B4010E9440306D83B9
:101560007E838F839887A301920169817A818B8121
:101570009C810E9440309B01AC016D817E818F81F6
:1015800098850E94AE2D9B01AC010E94AE2DD80122
:1015900014966D937D938D939C931797A501940159
:1015A000C501B4010E9440304B015C01A7019601C6
:1015B000C701B6010E9440309B01AC01C501B401D6
:1015C0000E94AD2D6B017C0129813A814B815C81A8
:1015D000CA01B9010E9440309B01AC01C701B601AC
:1015E0000E94AD2D6B017C01A3019201C301B201E8
:1015F0000E9440309B01AC01C701B6010E94AE2D94
:10160000F801608771878287938780E028960FB6FC
:10161000F894DEBF0FBECDBFDF91CF911F910F9128
:10162000FF90EF90DF90CF90BF90AF909F908F9002
:101630007F906F905F904F9008952F923F924F92BE
:101640005F926F927F928F929F92AF92BF92CF9252
:10165000DF92EF92FF920F931F93CF93DF9300D00F
:1016600000D000D0CDB7DEB71B018A013E832D83A9
:10167000FA01C080D180E280F380A7019601C70102
:10168000B6010E94AE2D69837A838B839C83F80117
:1016900084809580A680B780A5019401C501B4011E
:1016A0000E94AE2D2B013C01A701960169817A8130
:1016B0008B819C810E9440306B017C01A5019401CB
:1016C000C301B2010E9440309B01AC01C701B601C9
:1016D0000E94AE2D20E030E040E85FE30E94AD2D97
:1016E0006B017C01F8012085318542855385C3015A
:1016F000B2010E9440302B013C01F8012485358560
:101700004685578569817A818B819C810E94403012
:101710009B01AC01C301B2010E94AD2DA70196014E
:101720000E94212EF1016083718382839383ED8176
:10173000FE816481758186819781C084D184E28431
:10174000F3849B01AC010E9440304B015C01A70176
:101750009601C701B6010E9440309B01AC01C50152
:10176000B4010E94AE2D0E94AD309B01AC01ED8111
:10177000FE8160817181828193810E947B2E0E9413
:101780004C2EF1016483758386839783ED81FE81FE
:101790006081718182819381C084D184E284F384E9
:1017A0009B01AC010E9440304B015C01A7019601F6
:1017B000C701B6010E9440309B01AC01C501B401D4
:1017C0000E94AE2D0E94AD309B01AC01ED81FE81E7
:1017D00064817581868197810E947B2E0E944C2EA8
:1017E000F101608771878287938780E026960FB624
:1017F000F894DEBF0FBECDBFDF91CF911F910F9147
:10180000FF90EF90DF90CF90BF90AF909F908F9020
:101810007F906F905F904F903F902F9008954F92E0
:101820005F926F927F928F929F92AF92BF92CF9270
:10183000DF92EF92FF920F931F93CF93DF93EC0110
:101840007B01882777FD8095982F0E94162F2B010A
:101850003C012D813E814F8158850E94742E882342
:10186000A1F18C80F7FE03C081E08825882EB701A6
:10187000F7FE03C0719561957109882777FD809502
:10188000982F1F921F921F922FEF2F93A12CB12CF4
:10189000650114E6E12EF12C00E010E020E030E0DC
:1018A000A9010E94652D6B017C01682D89810E9430
:1018B000FB28B60188810E943A284D825E826F82A1
:1018C00078860F900F900F900F90DF91CF911F911E
:1018D0000F91FF90EF90DF90CF90BF90AF909F90CF
:1018E0008F907F906F905F904F900895CF92DF928E
:1018F000EF92FF92CF93DF93EC016A017B0160913D
:10190000690370916A03882777FD8095982F0E945C
:10191000162F9B01AC01C701B6010E94403020E0A8
:1019200030E048EC52E40E947B2E6BA77CA78DA789
:101930009EA720E030E0A901C701B6010E94742EE5
:1019400081110CC01D8E1E8E1F8E18A219A21AA204
:101950001BA21CA2198E1A8E1B8E1C8EDF91CF919A
:10196000FF90EF90DF90CF900895CF93DF93EC013D
:1019700020E030E040E050E0BA010E94760CEB81BC
:1019800019861A861B861C86198A1A8A1B8A1C8A43
:1019900084E0E89FF0011124EF58FC4F108211827F
:1019A00012821382DF91CF910895CF92DF92EF924E
:1019B0000F93CF93DF931F92CDB7DEB76C01862FC5
:1019C000F60115A216A217A210A612A611A66083F0
:1019D000418322830383E48290913F01992399F00C
:1019E00061E049830E94C22861E04981842F0E94FE
:1019F000C228C6010F90DF91CF910F91EF90DF9039
:101A0000CF900C94B50C0F90DF91CF910F91EF9088
:101A1000DF90CF9008952F923F924F925F926F92F6
:101A20007F928F929F92AF92BF92CF92DF92EF926E
:101A3000FF920F931F93CF93DF93CDB7DEB7289715
:101A40000FB6F894DEBF0FBECDBF89A09AA02BA021
:101A50003CA00E94AD2D6D837E838F8398872FA13C
:101A600038A549A55AA50E9440309B01AC01D1017F
:101A70006D917D918D919C910E94AE2DF1016083BD
:101A8000718382839383D4012D913D914D915C911B
:101A90006D817E818F8198850E94AD2D2FA138A503
:101AA00049A55AA50E947B2E20E030E040E85EE385
:101AB0000E94403069837A838B839C8320E030E0EE
:101AC00040E45FE3EDA1FEA1608171818281938199
:101AD0000E9440309B01AC0169817A818B819C819D
:101AE0000E94AE2D69837A838B839C83ADA1BEA1B6
:101AF0006D937D938D939C9313972D813E814F81A0
:101B00005885C801B7010E9440302B013C01F1010A
:101B10002081318142815381C601B5010E9440304C
:101B20009B01AC01C301B2010E94AE2D2B013C010F
:101B300029813A814B815C816D8D7E8D8F8D98A13D
:101B40000E9440309B01AC01C301B2010E94AE2D46
:101B5000ED80FE800F811885D401ED92FD920D93EA
:101B60001C93139728960FB6F894DEBF0FBECDBF17
:101B7000DF91CF911F910F91FF90EF90DF90CF9069
:101B8000BF90AF909F908F907F906F905F904F909D
:101B90003F902F9008952F923F924F925F926F92B5
:101BA0007F928F929F92AF92BF92CF92DF92EF92ED
:101BB000FF920F931F93CF93DF93CDB7DEB72C9790
:101BC0000FB6F894DEBF0FBECDBF1C0180E090E0E1
:101BD0000E94142F69837A838B839C83D10195960D
:101BE0002D913D914D915C9198970E94AE2D2B01C6
:101BF0003C01F10165A376A387A390A781A592A5D7
:101C00009C012F5F3F4F32A721A70A9709F044C0DC
:101C100085849684A784B0884189528963897489B0
:101C2000D501C401841B950BA60BB70B9C01AD011C
:101C3000A8EEB3E00E9458310E94162FA301920132
:101C40000E947B2E26E636E646E65FE30E944030A1
:101C50002B013C012DEC3CEC4CEC5DE3D1019F965B
:101C60006D917D918D919C91D2970E9440309B0106
:101C7000AC01C301B2010E94AE2DF10167A770ABA8
:101C800081AB92AB15A216A217A210A612A611A69E
:101C9000818A928AA38AB48AA0902C01B0902D01E7
:101CA000C0902E01D0902F01409028015090290122
:101CB00060902A0170902B01D1019F968D919D918A
:101CC0000D90BC91A02D8D839E83AF83B887D101E9
:101CD0009B968D919D910D90BC91A02D89879A879F
:101CE000AB87BC8720E030E04AE754E469817A8121
:101CF0008B819C810E947B2E9F938F937F936F9308
:101D0000C10181969F938F9304979F938F9304971C
:101D10009F938F93809133018F93809132018F93A2
:101D2000809131018F93809130018F9383017201F3
:101D30002D813E814F81588569857A858B859C856B
:101D40000E940B0D6B017C010FB6F894DEBF0FBE35
:101D5000CDBF20E030E048EC52EC0E94742E87FDAD
:101D60000FC020E030E048EC52E4B601C7010E9409
:101D70003530181654F4C12CD12C98EC82E407C0ED
:101D8000C12CD12C98EC82EC02C09E2D8F2DA60187
:101D9000692F782FD10155964D935D936D937C9368
:101DA000589720E030E0A9019B966D917D918D912F
:101DB0009C919E970E94742E811115C0F10111A271
:101DC00012A213A214A2158E168E178E10A2118EB7
:101DD000128E138E148E1582168217821086158A23
:101DE000168A178A108E2C960FB6F894DEBF0FBE97
:101DF000CDBFDF91CF911F910F91FF90EF90DF90BA
:101E0000CF90BF90AF909F908F907F906F905F909A
:101E10004F903F902F900895109275031092760383
:101E2000109277031092780310927103109272034C
:101E3000109273031092740362E082E00E94C22841
:101E400062E083E00E94C22862E088E00E94C2282B
:101E500062E089E00E94C22841E050E06FE075E056
:101E600080E00E94C72641E050E06DE475E081E02B
:101E70000E94C72680913F01882341F161E085E0FF
:101E80000E94C22860E085E00E94FB2861E086E0B5
:101E90000E94C22860E086E00E94FB2861E08BE09F
:101EA0000E94C22860E08BE00E94FB2861E081E193
:101EB0000E94C22860E081E10E94FB2881E293E059
:101EC0000E94B50C8EEE92E00E94B50C10923F017C
:101ED00008958F929F92AF92BF92CF92DF92EF922E
:101EE000FF9249015A012091F4033091F50340918A
:101EF000F6035091F7030E94AD2D6B017C012BED91
:101F00003FE049E450E40E9435302BED3FE049ECDE
:101F100050EC181674F0C701B6010E94742E87FFAA
:101F200005C02BED3FE049EC50E403C020E030E079
:101F3000A901C701B6010E94AE2D6B017C0120E012
:101F400030E0A9010E943530181624F0C701B6010F
:101F5000905802C0C701B601A50194010E94742ED9
:101F6000881F8827881FFF90EF90DF90CF90BF9049
:101F7000AF909F908F900895EF92FF920F931F93D1
:101F8000CF93DF937C010CE011E0C0E0D0E06FED77
:101F900071E0C7010E94C11B0E945D1ABC01F801DB
:101FA000808191810E9436360C5F1F4F892B81F40E
:101FB000CC0FDD1FCC0FDD1FC45FDE4FEA81FB813C
:101FC000C701DF91CF911F910F91FF90EF9009947E
:101FD0002196C730D105D9F6DF91CF911F910F918E
:101FE000FF90EF9008958C01C0E0D0E0C017D107BA
:101FF000B4F461E08DE00E94FB2868EC70E080E0C2
:1020000090E00E94BA2760E08DE00E94FB2868EC17
:1020100070E080E090E00E94BA272196E7CF68E563
:1020200072E080E090E00E94BA27DECF26E040E038
:1020300052EC61E070E08BED94E00E943D2A64E197
:1020400070E080E090E00E94BA2761E08DE00E949D
:10205000C22861E08CE00E94C22862E084E00E9415
:10206000C22860E08DE00E94FB2860E08CE00E94C6
:10207000FB280E940C0F80914001882309F47FC047
:102080008EE094E00E943F1E88E18093B80062E0F9
:1020900087E00E94C22884E593E00E945A236AE008
:1020A00070E080E090E00E94BA2784E593E00E940F
:1020B000B52384E593E00E9420078093E7036AE05C
:1020C00070E080E090E00E94BA278091E7038111E0
:1020D0003CC061E084E593E00E9474246AE070E013
:1020E00080E090E00E94BA2784E593E00E941323E9
:1020F0008093E903809156038093E8036CED70E0D0
:1021000084E593E00E9462246CE470E084E593E04F
:102110000E9468246BEA7FEF84E593E00E946E24BE
:102120006CEF76E084E593E00E945C240E948B27AC
:10213000605D7A488F4F9F4F60936702709368028B
:102140008093690290936A021AC065E571E08BED95
:1021500094E00E94922B4AE050E06091E7038BEDFF
:1021600094E00E94712C66E671E08BED94E00E9491
:10217000AF2B8091E70390E001960E94F30F68E691
:1021800071E08BED94E00C94AF2B4F925F926F92C5
:102190007F928F929F92AF92BF92CF92DF92EF92F7
:1021A000FF920F931F93CF93DF93EC014A015B01E2
:1021B00028013901C880D980EA80FB80A3019201FF
:1021C000C701B6010E94353018166CF42BED3FE0C4
:1021D00049EC50E4C701B6010E94AD2D68837983B4
:1021E0008A839B83E7CFA50194016091F4037091EA
:1021F000F5038091F6039091F7030E94742E87FFF8
:102200000FC02BED3FE049EC50E4688179818A8171
:102210009B810E94AE2D688379838A839B83E3CF61
:10222000688179818A819B81DF91CF911F910F9184
:10223000FF90EF90DF90CF90BF90AF909F908F90E6
:102240007F906F905F904F9008950F931F93CF935F
:10225000DF93EC0181E293E00E94B50C8EEE92E0F8
:102260000E94B50C1092F4031092F5031092F6033D
:102270001092F7031092F8031092F9031092FA03E8
:102280001092FB031092FC031092FD031092FE03C8
:102290001092FF0361E971E0CE010E94E7058823F7
:1022A00079F061E971E0CE010E94C11B0E94691AB8
:1022B0006093FC037093FD038093FE039093FF03F0
:1022C00063E971E0CE010E94E705882379F063E9B4
:1022D00071E0CE010E94C11B0E94691A6093F8034D
:1022E0007093F9038093FA039093FB0365E971E01F
:1022F000CE010E94E7058823A9F065E971E0CE01CF
:102300000E94C11B0E94691A25E33AEF4EE85CE384
:102310000E9440306093F4037093F5038093F603BA
:102320009093F7030BED1FE029E430E44BED5FE001
:1023300069E470EC84EF93E00E94C51020917D0366
:1023400030917E0340917F03509180036091F403AC
:102350007091F5038091F6039091F7030E94AE2DE2
:102360006093F0037093F1038093F2039093F3036F
:10237000DF91CF911F910F910C942414EF92FF9253
:102380000F931F93CF93DF9300D000D0CDB7DEB76C
:102390007C0167E971E00E94E705882379F067E92D
:1023A00071E0C7010E94C11B0E94691AAB01BC0108
:1023B00020E030E081E293E00E94760C6AE971E06F
:1023C000C7010E94E705882379F06AE971E0C70137
:1023D0000E94C11B0E94691AAB01BC0120E030E0E1
:1023E0008EEE92E00E94760C6DE971E0C7010E94CA
:1023F000E705882361F16DE971E0C7010E94C11B07
:102400000E94691A25E33AEF4EE85CE30E944030EF
:1024100069837A838B839C830BED1FE029E430E48E
:102420004BED5FE069E470ECCE0101960E94C510AF
:1024300089819A81AB81BC8180936B0390936C03FB
:10244000A0936D03B0936E0381E08093700363EA01
:1024500071E0C7010E94E7050F900F900F900F9059
:10246000DF91CF911F910F91FF90EF9008953F92D0
:102470004F925F926F927F928F929F92AF92BF9294
:10248000CF92DF92EF92FF920F931F93CF93DF9340
:10249000CDB7DEB72C970FB6F894DEBF0FBECDBF19
:1024A000E091240380912503F0E08823B1F0EE0F42
:1024B000FF1FEE0FFF1FEF58FC4F80819181A2811B
:1024C000B38122273327A901281B390B4A0B5B0B49
:1024D0002D833E834F83588711C09F01220F331FE6
:1024E000220F331F2F583C4FD9018D919D910D9094
:1024F000BC91A02D8D839E83AF83B887E091F102BC
:102500008091F202F0E08823B1F0EE0FFF1FEE0F92
:10251000FF1FEF58FC4F80819181A281B381222758
:102520003327A901281B390B4A0B5B0B29873A87F4
:102530004B875C8711C09F01220F331F220F331F6F
:102540002F583C4FD9018D919D910D90BC91A02D9C
:1025500089879A87AB87BC87C0906703D090680350
:10256000EE24D7FCE094FE2C80912A0390912B035B
:10257000A0912C03B0912D032D813E814F81588570
:10258000281B390B4A0B5B0BA8EEB3E00E945831B5
:10259000A70196010E943931CA01B9010E94162F84
:1025A0004B015C018091F7029091F802A091F90231
:1025B000B091FA0229853A854B855C85281B390B39
:1025C0004A0B5B0BA8EEB3E00E945831A7019601BD
:1025D0000E943931CA01B9010E94162F2B013C011A
:1025E0002091F0033091F1034091F2035091F303F5
:1025F00060917D0370917E0380917F0390918003B1
:102600000E94AD2D69837A838B839C8321EE3EE209
:1026100045E652E40E9440306B017C0120E030E04E
:10262000A9010E943530181674F4332433942DEC2C
:102630003CEC4CEC5DE3C701B6010E943530181646
:1026400074F0312C0CC02DEC3CEC4CEC5DEBC70174
:10265000B6010E94742E382E331C3324331CA30180
:102660009201C501B4010E94AE2D20E030E040E0AF
:102670005FE30E9440306B017C0120E030E0A90163
:102680000E94353018165CF420E030E040E85FE34B
:10269000C701B6010E94353018165CF00CC020E06E
:1026A00030E040E85FEBC701B6010E94742E87FF5F
:1026B00002C0332433948090F4039090F503A090EB
:1026C000F603B090F70320E030E040E05FE369817B
:1026D0007A818B819C810E9440309B01AC01C501B5
:1026E000B4010E94AE2D2B013C010E94A3309B013E
:1026F000AC01C701B6010E9440309B01AC01609162
:10270000FC037091FD038091FE039091FF030E94F2
:10271000AE2D6093FC037093FD038093FE039093B2
:10272000FF03C301B2010E94782E9B01AC01C701D7
:10273000B6010E9440309B01AC016091F80370919A
:10274000F9038091FA039091FB030E94AE2D6093F0
:10275000F8037093F9038093FA039093FB032981A4
:102760003A814B815C81C501B4010E94AE2D60931A
:10277000F4037093F5038093F6039093F7030BED46
:102780001FE029E430E44BED5FE069E470EC84EF96
:1027900093E00E94C51040917D0350917E036091AB
:1027A0007F03709180034093F0035093F103609393
:1027B000F2037093F3032D813E814F81588520935E
:1027C0002A0330932B0340932C0350932D038985C8
:1027D0009A85AB85BC858093F7029093F802A0930D
:1027E000F902B093FA02832D2C960FB6F894DEBF4F
:1027F0000FBECDBFDF91CF911F910F91FF90EF9052
:10280000DF90CF90BF90AF909F908F907F906F9010
:102810005F904F903F900895CF93DF9300D000D00A
:10282000CDB7DEB77A8369831C821B82BE016F5FDE
:102830007F4F0E945C1B8B819C810F900F900F90AB
:102840000F90DF91CF910895CF92DF92EF92FF9298
:102850000F931F93CF93DF93CDB7DEB7C454D10945
:102860000FB6F894DEBF0FBECDBF80E192E09A8331
:10287000898325961FAE1EAE2597CE0101960E9434
:10288000211A8C0169EA71E00E94C11B6BEA71E0B8
:102890000E94921A20E030E04AE754E46091FC0381
:1028A0007091FD038091FE039091FF030E947B2EA7
:1028B0006B017C0161E971E0C8010E94C11B24E049
:1028C000B701A6010E949E1A20E030E04AE754E4D6
:1028D0006091F8037091F9038091FA039091FB03E2
:1028E0000E947B2E6B017C0163E971E0C8010E94AC
:1028F000C11B24E0B701A6010E949E1A21EE3EE210
:1029000045E652E46091F4037091F5038091F6037B
:102910009091F7030E9440306B017C0165E971E002
:10292000C8010E94C11B21E0B701A6010E949E1AA6
:102930006BED74E0C8010E940C148BED94E00E94D2
:102940009B2BCC5BDF4F0FB6F894DEBF0FBECDBF25
:10295000DF91CF911F910F91FF90EF90DF90CF907B
:102960000895CF92DF92EF92FF920F931F93CF9330
:10297000DF93CDB7DEB7C458D1090FB6F894DEBFE8
:102980000FBECDBF86E192E09A838983CD57DF4F9A
:1029900019821882C358D040CE0101960E94211A94
:1029A0008C0169EA71E00E94C11B60EB71E00E943A
:1029B000921AC0904C03D0904D03E0904E03F090DB
:1029C0004F036AEB71E0C8010E94C11B22E0B7010E
:1029D000A6010E949E1AC0905003D0905103E0902F
:1029E0005203F09053036DEB71E0C8010E94C11BCC
:1029F00022E0B701A6010E949E1AC0903E03D0902B
:102A00003F03E0904003F090410360EC71E0C801A7
:102A10000E94C11B22E0B701A6010E949E1AC0902D
:102A20004203D0904303E0904403F090450363ECED
:102A300071E0C8010E94C11B22E0B701A6010E94FB
:102A40009E1AC0902603D0902703E0902803F090B0
:102A5000290366EC71E0C8010E94C11B22E0B701A6
:102A6000A6010E949E1A809123030E941D287C01CA
:102A70006AEC71E0C8010E94C11BA701662757FDDF
:102A80006095762F0E94AD1A6BED74E0C8010E942C
:102A90000C148BED94E00E949B2BCC57DF4F0FB6AC
:102AA000F894DEBF0FBECDBFDF91CF911F910F9184
:102AB000FF90EF90DF90CF900895FF920F931F93B8
:102AC000CF93DF93CDB7DEB7C454D1090FB6F894D6
:102AD000DEBF0FBECDBFF82E20E132E03A8329835E
:102AE00025961FAE1EAE2597CE0101960E94211A93
:102AF0008C0169EA71E00E94C11B6DEC71E00E94DB
:102B0000921A6091430170914401C8010E94C11B57
:102B10004F2D50E060E070E00E94AD1A6BED74E064
:102B2000C8010E940C148BED94E00E949B2BCC5B9F
:102B3000DF4F0FB6F894DEBF0FBECDBFDF91CF9150
:102B40001F910F91FF900895FF920F931F93CF93C2
:102B5000DF93CDB7DEB7C454D1090FB6F894DEBF0A
:102B60000FBECDBFF82E20E132E03A8329832596AF
:102B70001FAE1EAE2597CE0101960E94211A8C0130
:102B800010926F031092700369EA71E00E94C11BFA
:102B900064ED71E00E94921A6091430170914401CA
:102BA000C8010E94C11B4F2D50E060E070E00E9400
:102BB000AD1A6BED74E0C8010E940C148BED94E02B
:102BC0000E949B2BCC5BDF4F0FB6F894DEBF0FBE8D
:102BD000CDBFDF91CF911F910F91FF9008958F92FC
:102BE0009F92AF92BF92CF92DF92EF92FF92CF93DC
:102BF000DF930E948B276B017C0180917903909178
:102C00007A03E601C81BD90B809170038823E1F099
:102C100080906B0390906C03A0906D03B0906E0356
:102C200022EC38EB42EB5EE3C501B4010E94690F70
:102C300081118DC022EC38EB42EB5DE3C501B4019C
:102C40000E94690F8111B0C0E09124038091250397
:102C5000F0E0EE0FFF1FEE0FFF1FEF58FC4F882331
:102C600061F080819181A281B381B095A09590950A
:102C700081959F4FAF4FBF4F04C080819181A2814A
:102C8000B38180932E0390932F03A0933003B093CE
:102C90003103E091F1028091F202F0E0EE0FFF1FAC
:102CA000EE0FFF1FEF58FC4F882361F08081918168
:102CB000A281B381B095A095909581959F4FAF4F1C
:102CC000BF4F04C080819181A281B3818093FB02B8
:102CD0009093FC02A093FD02B093FE02BE0181E23C
:102CE00093E00E94CB0DBE018EEE92E00E94CB0DD0
:102CF00060913603709137038091380390913903C6
:102D00000E94E32E81E293E00E940F0C6091030386
:102D10007091040380910503909106030E94E32EB5
:102D20008EEE92E00E940F0CC0927903D0927A034B
:102D3000E0927B03F0927C03DF91CF91FF90EF90C4
:102D4000DF90CF90BF90AF909F908F90089520E03C
:102D500030E040E05FE3609136037091370380918B
:102D60003803909139030E9440306093360370938A
:102D70003703809338039093390320E030E040E03C
:102D80005FE36091030370910403809105039091C8
:102D900006030E9440306093030370930403809302
:102DA00005039093060350CF20E030E040E050E070
:102DB000BA0181E293E00E94760C20E030E040E02E
:102DC00050E0BA018EEE92E00E94760C10927003F1
:102DD00081E00E94A41538CFEF920F931F9380E0FB
:102DE00090E0A0E8BFE38093950390939603A093AF
:102DF0009703B09398031092990310929A0310923C
:102E00009B0310929C0310929D0310929E031092BC
:102E10009F031092A0031092A1031092A20310929C
:102E2000A3031092A4031092890310928A031092B4
:102E30008B0310928C0310928D0310928E031092CC
:102E40008F031092900310929103109292031092AC
:102E500093031092940384E593E00E94B322EE243E
:102E6000E39400E010E020E130E04BE050E065E06A
:102E700070E081E293E00E94D50CE12C01E010E0CB
:102E80002FE030E041E150E066E070E08EEE92E04D
:102E90000E94D50C1F910F91EF9008950F931F93EF
:102EA000CF93DF93CDB7DEB7C458D1090FB6F894EE
:102EB000DEBF0FBECDBF8BED94E00E945A29892B57
:102EC00009F44EC08BED94E00E9473292091EC022E
:102ED0003091ED028A3089F5C90101969093ED0297
:102EE0008093EC02F901E459FD4F108286E192E0F3
:102EF0009A838983CD57DF4F19821882C358D040F7
:102F00004AE06CE672E0CE0101960E947B1D8C01C6
:102F10006FED71E00E94E705882321F0C8010E944F
:102F2000BC0F06C06AED71E08BED94E00E94AF2B00
:102F30001092ED021092EC0213C0A9014F5F5F4F97
:102F40005093ED024093EC02F901E459FD4F808368
:102F50004038510508F4AFCF84E090E00E94F30FB1
:102F6000CC57DF4F0FB6F894DEBF0FBECDBFDF9159
:102F7000CF911F910F9108950F931F93CF93DF93DC
:102F80000E944E178091660281112AC0209134015F
:102F90003091350140E050E06091EA037091EB031D
:102FA0008091EC039091ED030E941731672B682B01
:102FB000692BB1F40E948B2700916702109168027F
:102FC0002091690230916A0206171707280739070E
:102FD00038F481E0809366028093EE030E94A4158A
:102FE00080913E018823A1F1209136013091370173
:102FF00040E050E06091EA037091EB038091EC03B4
:103000009091ED030E941731672B682B692B01F516
:1030100080916B02811119C089B182958170C82F8E
:1030200020E0D22F80910A0190910B01C817D90797
:1030300079F0D0930B01C0930A0183E080936B0277
:103040008C2F81700E945D1503C0815080936B02AC
:1030500080913F018823B1F020913A0130913B01EA
:1030600040E050E06091EA037091EB038091EC0343
:103070009091ED030E941731672B682B692B11F497
:103080000E94EF1520913C0130913D0140E050E05D
:103090006091EA037091EB038091EC039091ED0352
:1030A0000E941731672B682B692B49F40E94371255
:1030B000882329F08091EE0381110E94241420912D
:1030C00038013091390140E050E06091EA0370919D
:1030D000EB038091EC039091ED030E941731672B75
:1030E000682B692B81F48DE00E94312961E0892BE6
:1030F00009F060E08DE00E94FB288091EF038823B7
:1031000011F01D995FC080914001882309F442C0ED
:103110004F9B40C084E593E00E9413238093E90312
:1031200084E593E00E946E239093E6038093E50389
:103130002091E90324FD49C08115944009F445C05C
:103140008091E90381FF22C04091E80365EA73E0C2
:1031500084E593E00E948A2345EA53E065E973E041
:1031600084E593E00E94E20945E953E069E873E0F1
:1031700084E593E00E94510A29E833E045E953E0F1
:103180006DE773E084E593E00E941D0B84E593E016
:103190000E9433238091EA039091EB03A091EC030A
:1031A000B091ED030196A11DB11D8093EA039093A8
:1031B000EB03A093EC03B093ED03DF91CF911F914C
:1031C0000F9108950E94B1149ECF63EE71E08BEDD4
:1031D00094E00E94AF2BB4CFCF93DF93EC018881B2
:1031E0009981DC01ED91FC910190F081E02D099530
:1031F0002A813B81280F391F3B832A83DF91CF919E
:103200000895DB01ED91FC9111970190F081E02D83
:10321000BC01CD0109940F931F93CF93DF938C01D1
:10322000F801C281D3818881992787FD90950E94FA
:103230000036892B29F02196F801D383C283F0CF81
:10324000DF91CF911F910F9108950F931F93CF930B
:10325000DF931F92CDB7DEB78C0169830E940B19F3
:10326000D8011296ED91FC911397808169818613A4
:103270000AC031961396FC93EE931297C8010E94F0
:103280000B1981E001C080E00F90DF91CF911F9179
:103290000F910895FB012191BF01222379F0DC01F8
:1032A0001296ED91FC9113973081321307C031963D
:1032B000DC011396FC93EE931297ECCF81E0211181
:1032C00080E00895BF92CF92DF92EF92FF920F932A
:1032D0001F93CF93DF937C01EB01009771F468E1BA
:1032E00072E0CE01DF91CF911F910F91FF90EF908F
:1032F000DF90CF90BF900C94922BE881F9810190E0
:10330000F081E02D62E2CE0109958C01F701619117
:103310007F01662351F0E8E2F2E0B080BB2079F152
:1033200091819617B1F03296F8CFE881F98101903A
:10333000F081E02D62E2CE010995800F911FDF91AF
:10334000CF911F910F91FF90EF90DF90CF90BF90A2
:103350000895E881F9810190F081E02D6CE5CE01BE
:1033600009956C01E881F9810190F081E02D6B2DC8
:10337000CE0109958C0D9D1D080F191FC7CFE8813F
:10338000F9810190F081E02DCE010995F5CFCF9321
:10339000FC015081523229F0573219F080E090E060
:1033A00023C09C012F5F3F4FD901F901CF01019646
:1033B0004081442399F3451791F04C3569F4019607
:1033C0004181ECE2F2E0C081CC2331F0C41302C0B1
:1033D000418102C03296F7CF4D93FC01E7CF1C929A
:1033E000FB0191838083C901CF910895DC0112967E
:1033F000ED91FC911397309731F06115710531F41F
:10340000CF010296089580E094E00895615071091B
:103410000190F081E02DEFCFCF93DF93EC01BC0161
:1034200084E090E00E940119FC01009729F0D1830B
:10343000C0831382128202C08AE094E0DF91CF91B0
:103440000895CF93DF93EC01BC0184E090E00E94EB
:103450000119FC01009729F0D183C08313821282E5
:1034600002C086E094E0DF91CF9108950F931F93FF
:10347000CF93DF938B01FC01C281D381209759F058
:10348000B8018A819B810E943636892B39F00990D8
:10349000D881C02DF3CF80E090E001C0CE01DF9154
:1034A000CF911F910F9108950E94361A009711F045
:1034B0000496089580E094E00895FC012081318114
:1034C0002530310519F482819381089580E090E0E0
:1034D0000895FC0120813181273031052CF0628173
:1034E000738184819581089560E070E0CB01089537
:1034F000FC01208131812630310529F462817381FC
:1035000084819581089560E070E0CB010895FC010D
:1035100080819181892B29F084E090E091838083E0
:1035200062830895FC0180819181892B31F085E0CF
:1035300090E091838083738362830895FC0180818E
:103540009181892B49F030E0295F3F4F31832083FF
:1035500042835383648375830895FC018081918144
:10356000892B41F086E090E09183808342835383EE
:10357000648375830895FC0180819181892B31F0EA
:1035800082E090E091838083738362830895FC01DD
:1035900080819181892B31F083E090E09183808359
:1035A000738362830895FC012081318122303105CB
:1035B00021F4828193810C94F61980E094E00895BF
:1035C000CF93DF93FC01EB01208131812230310563
:1035D00031F482819381DF91CF910C94361B23309B
:1035E000310531F482819381DF91CF910C945C1B82
:1035F0002530310539F468817981828193810E9477
:1036000062192BC02630310559F4428153816481FF
:1036100075812AE030E0888199810E941A2C1DC0B2
:103620002430310569F48281882319F06DE172E05C
:1036300002C062E272E0888199810E94922B0DC0E3
:103640002730310584F0275030E042815381648176
:103650007581888199810E94632D2A813B81280F81
:10366000391F3B832A83DF91CF9108950F931F93D6
:10367000CF93DF93EC018B016BE5C8010E94EC183E
:103680000A80DB81C02D209779F0B801CE01029627
:103690000E94E01A0990D881C02D209729F06CE291
:1036A000C8010E94EC18F1CF6DE5C801DF91CF9100
:1036B0001F910F910C94EC180F931F93CF93DF93EE
:1036C0008C01EB016BE7CE010E94EC18F80102813E
:1036D00013810115110509F168817981F801828151
:1036E00093810E9462192A813B81280F391F3B83F5
:1036F0002A836AE3CE010E94EC18BE01C801049639
:103700000E94E01AF801008111810115110529F0CC
:103710006CE2CE010E94EC18DFCF6DE7CE01DF91A5
:10372000CF911F910F910C94EC18FC016081718175
:103730006115710579F08AE090E00E940119FC01A1
:10374000009741F01182108281E090E0958384839C
:10375000CF01089580E090E00895DC011296ED918C
:10376000FC911397309749F080819181009711F077
:10377000FC01FACF718360830895FC017383628337
:103780000895EF92FF920F931F93CF93DF938C01D5
:103790007B010E94361AEC01009761F4C8010E9477
:1037A000951BEC01009749F0FB82EA82BC01C8013D
:1037B0000E94AD1BCE01049602C080E094E0DF9130
:1037C000CF911F910F91FF90EF900895FC016081C0
:1037D00071816115710579F088E090E00E9401190E
:1037E000FC01009741F01182108281E090E0938308
:1037F0008283CF01089580E090E00895DC01129665
:10380000ED91FC911397309749F080819181009759
:1038100011F0FC01FACF718360830895FC0173837A
:10382000628308950F931F93CF93DF938C010E94BF
:10383000E61BEC01009739F0BC01C8010E94FE1B99
:10384000CE01029602C080E094E0DF91CF911F91FB
:103850000F910895EF92FF920F931F93CF93DF93F1
:10386000EC01888199810E940C1A7C016BE5CE01E4
:103870000E942519811103C08AE094E022C06DE501
:10388000CE010E94251981111BC0C7010E94121C84
:103890008C01BC01CE010E94681CF801208131819D
:1038A0002230310548F36DE5CE010E9425198111C2
:1038B00007C06CE2CE010E9425198111E6CFDCCF52
:1038C000C701DF91CF911F910F91FF90EF90089565
:1038D000EF92FF920F931F93CF93DF9300D0CDB75A
:1038E000DEB78C017B01DC0114968C911497882340
:1038F00009F4A3C0815014968C93C8010E940B193F
:10390000F80182819381DC012C912A337CF42033ED
:103910000CF03FC0273209F461C024F4223209F4CC
:103920005DC065C02D522230A0F161C02E3609F471
:1039300042C02CF42B3581F02636B1F058C0243724
:1039400099F02B3709F053C0C8010E94261DBC0115
:10395000C7010E94C71A4BC0C8010E942A1CBC01A3
:10396000C7010E94BB1A43C06DE172E0C8010E940A
:103970004A19882311F061E008C062E272E0C801D0
:103980000E944A19882309F160E0C7010E94871A42
:103990002EC04AE050E0BE016F5F7F4F0E94CC34E2
:1039A000AB01BC01E981FA8180818E3229F18F7DE2
:1039B0008534D1F521C068E172E0C8010E944A193E
:1039C000882319F060E070E00FC086E0E0E0F4E0EA
:1039D000D70101900D928A95E1F709C0B8016E5F99
:1039E0007F4F0E94C719BC01C7010E94921AF801BB
:1039F00084818F5F848321C0B8016E5F7F4FD801BF
:103A000012968D919C9113970E946933AB01BC0172
:103A1000F8012281338189819A81281B390B215039
:103A2000C7010E949E1AE3CFD8011396FC93EE9330
:103A30001297C7010E94AD1ADACF0F900F90DF9155
:103A4000CF911F910F91FF90EF900895CF92DF9249
:103A5000EF92FF920F931F93CF93DF93EC01888136
:103A600099810E94211A6C016BE7CE010E942519F1
:103A7000811103C086E094E035C06DE7CE010E945D
:103A8000251981112EC07E0182E0E80EF11CB701DC
:103A90008A819B810E94C7198C01009759F36AE3C0
:103AA000CE010E942519882329F3B801C6010E947E
:103AB000C11B8C01BC01CE010E94681CF801208151
:103AC000318122303105B0F26DE7CE010E94251917
:103AD000811107C06CE2CE010E9425198111D7CF58
:103AE000C9CFC601DF91CF911F910F91FF90EF9049
:103AF000DF90CF900895CF93DF9300D000D01F9236
:103B0000CDB7DEB79A8389837C836B834D83CE01E7
:103B100001960E94261D0F900F900F900F900F900E
:103B2000DF91CF91089510920B0410920A04109225
:103B30000D0410920C0410920704109206041092C7
:103B400009041092080410920104109200040895D0
:103B500080913E0490E020913F04821B91090895DA
:103B600020913F0480913E04281750F4E22FF0E0AA
:103B7000E05CFB4F808190E02F5F20933F0408952D
:103B80008FEF9FEF0895E0913F0480913E04E81786
:103B900030F4F0E0E05CFB4F808190E008958FEF1F
:103BA0009FEF08950895CF92DF92EF92FF920F93C7
:103BB0001F93CF93DF937C01CB018A0120911A04DC
:103BC000222389F0EB016B01C40ED51ECC15DD0557
:103BD00069F06991D701ED91FC910190F081E02DA0
:103BE000C7010995F3CF642F0E94321FC801DF91EE
:103BF000CF911F910F91FF90EF90DF90CF9008959C
:103C0000CF93DF931F92CDB7DEB7698320911A045B
:103C10002223D1F020911B04203240F021E030E03B
:103C2000FC013383228380E090E015C080911C0466
:103C3000E82FF0E0E35EFB4F998190838F5F8093E4
:103C40001C0480931B0405C061E0CE0101960E9414
:103C5000321F81E090E00F90DF91CF910895FC0139
:103C60001382128248EE53E060E070E04483558393
:103C7000668377838BE392E091838083089510922B
:103C80003F0410923E0410921C0410921B040C94EA
:103C90007D1E862F413208F040E260E474E00E940D
:103CA0009B1E10923F0480933E04089521E00C94E3
:103CB000491E81E080931A0460933D0410921C0415
:103CC00010921B0408950F93062F21E040911B04CE
:103CD0006DE174E080913D040E94DF1E10921C048F
:103CE00010921B0410921A040F91089561E00C9435
:103CF000631E8EE094E00C942F1E1092CD0481E0A0
:103D00008093CB041092CA0461E082E10E94FB28F8
:103D100061E083E10E94FB28E9EBF0E080818E7F87
:103D2000808380818D7F808388E48093B80085E4E0
:103D30008093BC000895413208F03FC09091CD04BB
:103D40009111FCCF91E09093CD042093CB042FEF01
:103D5000209360041092A504240F2093A404909350
:103D6000CC049091CC04880F892B8093CC04809153
:103D7000CA04813041F41092CA048091CC0480932B
:103D8000BB0085EC01C085EE8093BC008091CD0422
:103D90008130E1F38091A504841710F44091A504CB
:103DA00026EA34E0FB01D9018A2F821B841718F41C
:103DB0008D918193F9CF842F089580E008950F931A
:103DC000413208F046C09091CD049111FCCF92E0B1
:103DD0009093CD040093CB049FEF909360041092D6
:103DE000A5044093A404FB0166EA74E0DB019A2F6A
:103DF000961B941718F491919D93F9CF1092CC04CF
:103E00009091CC04880F892B8093CC048091CA04B4
:103E1000813041F41092CA048091CC048093BB009D
:103E200085EC01C085EE8093BC00222321F08091B7
:103E3000CD048230E1F3809160048F3F61F0809186
:103E40006004803251F080916004803341F483E05B
:103E500007C081E005C080E003C082E001C084E0CB
:103E60000F910895613298F42091CD04243089F4A3
:103E700060938204FC0184E894E0DC012A2F281B73
:103E8000261718F421912D93F9CF80E0089581E051
:103E9000089582E0089585ED8093BC008091BC0078
:103EA00084FDFCCF1092CD04089585EC8093BC0076
:103EB0001092CD0408951F920F920FB60F92112405
:103EC0002F933F934F935F936F937F938F939F9322
:103ED000AF93BF93EF93FF938091B900887F8036B3
:103EE00009F49CC068F5883209F45BC090F4803115
:103EF00009F454C038F4882309F4F5C0883009F473
:103F00004DC0F5C0883109F44CC0803209F45DC061
:103F1000EEC0803409F468C048F4803309F455C019
:103F2000883309F0E4C080936004A8C0803509F4A8
:103F30004FC0883509F45DC0883409F0D8C0D5C0B9
:103F4000883909F4C6C0A8F4883709F467C038F482
:103F5000883609F463C0803709F460C0C8C0883867
:103F600009F4B7C0803909F45FC0803809F0BFC0D8
:103F70005BC0803B09F485C038F4803A09F466C020
:103F8000883A09F47EC0B3C0803C09F4A6C0883CDE
:103F900009F4A3C0883B09F489C0A9C08091CC046E
:103FA00010C09091A5048091A404981770F5E09139
:103FB000A50481E08E0F8093A504F0E0EA55FB4F45
:103FC00080818093BB0085EC85C0809360048DC0A8
:103FD000E091A50481E08E0F8093A5048091BB0041
:103FE000F0E0EA55FB4F80839091A5048091A404F2
:103FF0006DC0E091A50481E08E0F8093A5048091AF
:10400000BB00F0E0EA55FB4F80838091CB04811127
:104010006CC081E08093CA0484EA60C083E080932E
:10402000CD0410926104CFCF80916104803208F0FA
:1040300050C0E091610481E08E0F80936104809113
:10404000BB00F0E0EE59FB4F8083BDCF809161044F
:10405000803230F4E0916104F0E0EE59FB4F1082C1
:104060000E944B1F6091610470E0E091C604F091E2
:10407000C70482E694E00995109261040E94551FDE
:1040800036C084E08093CD041092830410928204A1
:10409000E091C804F091C9040995809182048111CE
:1040A00005C081E08093820410928404E09183042F
:1040B00081E08E0F80938304F0E0EC57FB4F80810A
:1040C0008093BB009091830480918204981708F438
:1040D0007ACF85E88093BC000AC085EC8093BC0051
:1040E0001092CD0404C0109260040E944B1FFF91F7
:1040F000EF91BF91AF919F918F917F916F915F9160
:104100004F913F912F910F900FBE0F901F901895D8
:10411000EF92FF920F931F93CF93DF9300D0CDB711
:10412000DEB7062F142F682F8EE094E029833A83A0
:104130000E94591E602F8EE094E00E94001E29818B
:10414000022FE22E3A81F32E8E2D801B811740F430
:10415000F70161917F018EE094E00E94001EF4CF90
:104160008EE094E00E94761E91E0811190E0892F0C
:104170000F900F90DF91CF911F910F91FF90EF90D3
:104180000895CF93DF931F92CDB7DEB749839E0189
:104190002F5F3F4F41E00E9488200F90DF91CF9129
:1041A0000895DF92EF92FF920F931F93CF93DF93C7
:1041B000C62F042F7901682F8EE094E00E94591ECB
:1041C0006C2F8EE094E00E94001E10E0000F111F83
:1041D000D12CCD2DD0E0C017D1078CF4CC0FDD1F32
:1041E000CE0DDF1D69818EE094E00E94001E688183
:1041F0008EE094E00E94001ED394D394EACF8EE028
:1042000094E00E94761E91E0811190E0892FDF9169
:10421000CF911F910F91FF90EF90DF900895CF9372
:10422000DF9300D0CDB7DEB75A8349839E012F5F5D
:104230003F4F41E00E94D1200F900F90DF91CF912E
:1042400008953F924F925F926F927F928F929F92CA
:10425000AF92BF92CF92DF92EF92FF920F931F9394
:10426000CF93DF9300D000D000D0CDB7DEB7682E5B
:10427000562E742E3A8329830E948B276B017C0172
:10428000312C412C872D90E09C838B834801A12CFD
:10429000B12C3714B0F5662D8EE094E00E94591EC3
:1042A000652D8EE094E00E94001E8EE094E00E9456
:1042B000761E662D8EE094E00E94591E4B815C8133
:1042C000431951094132510514F040E250E0662D86
:1042D0008EE094E00E94561E8EE094E00E94A81D9D
:1042E000892B59F10115110579F10E948B276C1961
:1042F0007D098E099F09681579058A059B0520F1BE
:104300001CC00115110589F10E948B276C197D09CC
:104310008E099F0920E030E060177107820793073C
:1043200020F1872D90E0242D332727FD3095281785
:104330003907DCF444244A9418C0872D90E297157D
:1043400008F480E2380EA5CFE981FA81E40DF11D71
:1043500047FCFA95FE83ED838EE094E00E94B01D49
:10436000ED81FE8180834394B7CF842D26960FB6CE
:10437000F894DEBF0FBECDBFDF91CF911F910F919B
:10438000FF90EF90DF90CF90BF90AF909F908F9075
:104390007F906F905F904F903F9008950F931F9381
:1043A00089019A0141E00E9421211F910F910895F6
:1043B000DF92EF92FF920F931F93CF93DF931F92A1
:1043C000CDB7DEB7D42E79019801AE014F5F5F4FB4
:1043D0000E94CE2161E070E001C0660FDA94EAF736
:1043E00099819623F70190830F90DF91CF911F91D0
:1043F0000F91FF90EF90DF900895CF92DF92EF92B0
:10440000FF920F931F93CF93DF931F92CDB7DEB729
:10441000C42ED22E9701AE014F5F5F4F0E94CE2176
:104420008823F1F04C2D50E04D1951094F5F5F4F3B
:1044300061E070E002C0660F771FDA94E2F7615026
:104440007109042E01C0660F0A94EAF72981262318
:1044500030E002C0359527954A95E2F7F8012083B0
:104460000F90DF91CF911F910F91FF90EF90DF9010
:10447000CF900895EF92FF920F931F93CF93DF9306
:104480001F92CDB7DEB7182F062FF42EE22E209103
:10449000450130914601AE014F5F5F4F0E94CE2132
:1044A000898121E030E00F2C01C0220F0A94EAF745
:1044B000EE2019F0482F422B03C0422F409548238D
:1044C0004983602F812F0E94C1200F90DF91CF91EF
:1044D0001F910F91FF90EF900895DF92EF92FF925E
:1044E0000F931F93CF93DF931F92CDB7DEB7F82EB4
:1044F000E62ED42E122F2091450130914601AE01B7
:104500004F5F5F4F0E94CE21882319F14D2D50E05F
:10451000411B51094F5F5F4FE1E0F0E002C0EE0F39
:10452000FF1F1A95E2F73197042E01C0EE0F0A948F
:10453000EAF701C0000F4A95EAF74E2F40958981AE
:104540004823E0234E2B49836E2D8F2D0E94C120DE
:1045500001C080E00F90DF91CF911F910F91FF90EC
:10456000EF90DF90089528E6FC0120830895462F00
:1045700069E1FC0180810C94C1200F93062F23E098
:1045800045E06AE1FC0180810E946D220F9108954F
:104590000F93062F23E042E06AE1FC0180810E9434
:1045A0006D220F9108950F93062F22E044E06BE1F6
:1045B000FC0180810E946D220F9108950F93062FB8
:1045C00022E044E06CE1FC0180810E946D220F91A9
:1045D0000895462F6FE1FC0180810C94C120462F85
:1045E00060E2FC0180810C94C120462F61E2FC0155
:1045F00080810C94C120462F62E2FC0180810C94E2
:10460000C120643048F4262F220F260F2B5D622F25
:10461000FC0180810C94C1200895462F68E3FC01C1
:1046200080810C94C120CF93DF93EC012091450150
:1046300030914601AC014F5F5F4F6AE388810E9471
:10464000CE218981DF91CF910895262F46E06AE639
:10465000FC0180810C943A22262F45E06AE6FC0199
:1046600080810C943A2221E042E06AE6FC018081DC
:104670000C943A2221E041E06AE6FC0180810C942E
:104680003A2221E047E06BE6FC0180810C943A225B
:10469000262F46E06BE6FC0180810C943A220F93B2
:1046A000062F23E042E06BE6FC0180810E946D2230
:1046B0000F910895CF93DF93EC0161E00E944F23A7
:1046C00060E0CE010E94D32260E0CE010E94DE2293
:1046D00060E0CE01DF91CF910C9448230F931F939C
:1046E000CF93DF93EC0100914501109146019C01AD
:1046F0002F5F3F4F42E062E788810E94212189813C
:1047000090E0982F88272A81822BDF91CF911F91EB
:104710000F9108950F931F939B01009145011091F4
:10472000460164E7FC0180810E9421211F910F91C5
:104730000895EF92FF920F931F93CF93DF93EC01B5
:10474000E0904501F09046018C010F5F1F4F26E07D
:1047500046E065E788810E94FD218981DF91CF9144
:104760001F910F91FF90EF9008950E94992391E07F
:10477000843309F090E0892F08950F931F93CF930E
:10478000DF93EC0100914501109146019C012F5FE0
:104790003F4F40E060E088810E94D8218981DF910D
:1047A000CF911F910F910895262F40E060E0FC010A
:1047B00080810C943A22EF92FF920F931F93CF9334
:1047C000DF93EC01E0904501F09046018C010F5F12
:1047D0001F4F26E046E060E088810E94FD2189812C
:1047E000DF91CF911F910F91FF90EF9008950F935C
:1047F000062F26E046E060E0FC0180810E946D22E9
:104800000F910895EF92FF920F931F93CF93DF9331
:10481000EC01E0904501F09046018C010F5F1F4FC5
:1048200026E046E061E088810E94FD218981DF91D8
:10483000CF911F910F91FF90EF9008950F93062F46
:1048400026E046E061E0FC0180810E946D220F912C
:104850000895EF92FF920F931F93CF93DF93EC0194
:10486000E0904501F09046018C010F5F1F4F26E05C
:1048700046E062E088810E94FD218981DF91CF912D
:104880001F910F91FF90EF9008950F93062F26E050
:1048900046E062E0FC0180810E946D220F91089544
:1048A000AB0166E0FC0180810C940F21AB0168E054
:1048B000FC0180810C940F21AB016AE0FC01808136
:1048C0000C940F21AB0163E1FC0180810C940F215A
:1048D000AB0165E1FC0180810C940F21AB0167E124
:1048E000FC0180810C940F21262F47E06AE6FC0131
:1048F00080810C943A2221E043E06AE6FC01808149
:104900000C943A226F712111606241116064462F4C
:104910006DE6FC0180810C94C120462F6EE6FC01FF
:1049200080810C94C120CF93DF93EC01209145014D
:1049300030914601AC014F5F5F4F6FE688810E9466
:10494000CE218981DF91CF9108955F926F927F92FE
:104950008F929F92AF92BF92CF92DF92EF92FF928F
:104960000F931F93CF93DF937C015B016A01622E4B
:10497000702E20E040E0662D0E948224602FC70147
:104980000E948D24C0E0D0E0812C99249394CC1512
:10499000DD05A8F5CE014096C816D90618F45C2CA2
:1049A0005C1A02C0A0E15A2E252D30E0C4018719FF
:1049B00091098217930714F4572C519400914501E3
:1049C0001091460195012C0F3D1F452D6FE6F70113
:1049D00080810E942121C50DD11D750CCC15DD05EE
:1049E000B0F6711001C0639420E040E0662DC7016D
:1049F0000E948224672DC7010E948D24C8CFDF91B9
:104A0000CF911F910F91FF90EF90DF90CF90BF90CB
:104A1000AF909F908F907F906F905F9008952F92AE
:104A20003F924F925F926F927F928F929F92AF923E
:104A3000BF92CF92DF92EF92FF920F931F93CF938B
:104A4000DF9300D000D01F92CDB7DEB79D838C835B
:104A50007B836A834A01322ED02EE98220E040E037
:104A6000632D0E948224602F8C819D810E948D2461
:104A7000E980EE2029F080E190E00E9478315C012D
:104A8000CC2031F080E190E00E947831582E492E00
:104A9000E12CF12CE814F90408F07AC0C701409623
:104AA0008816990618F4282C2E1802C010E1212E21
:104AB000222D30E080E091E08D1991098217930753
:104AC00014F42D2C2194EA81FB81EE0DFF1DCC20E6
:104AD00059F0852DA52DB42D9A2F981B921530F4E1
:104AE00094919D933196F8CF5E2E4F2E252D342D27
:104AF000422D6FE6AC81BD818C910E948820622C92
:104B0000712CB981BB2369F1A114B10451F120E0EA
:104B100040E0632D8C819D810E9482246D2D8C81CB
:104B20009D810E948D2400914501109146019501BF
:104B3000422D6FE6EC81FD8180810E942121A3013D
:104B4000B501852D942D0E942036892B51F0C50189
:104B50000E941032CC2049F1852D942D0E941032F4
:104B600024C0E60CF71CD20CE814F90408F092CF2C
:104B7000D11001C0339420E040E0632D8C819D81F1
:104B80000E9482246D2D8C819D810E948D2482CF74
:104B9000F981FF2319F0C5010E941032CC2039F0B1
:104BA000852D942D0E94103202C080E001C081E06A
:104BB0000F900F900F900F900F90DF91CF911F915A
:104BC0000F91FF90EF90DF90CF90BF90AF909F90AC
:104BD0008F907F906F905F904F903F902F900895AF
:104BE000CF92EF920F93CC24C3940E940F250F9184
:104BF000EF90CF9008952F923F924F925F926F92D5
:104C00007F928F929F92AF92BF92CF92DF92EF925C
:104C1000FF920F931F93CF93DF9300D01F92CDB7D6
:104C2000DEB74C017B836A833A01D22E222331F016
:104C300088E090E00E947831182FF92E212C312C39
:104C40002614370408F051C0EA81FB81E20DF31D00
:104C5000C10103965C01DD20C1F04491F101319660
:104C60008A819B81E80FF91F0491F1013296E80FC8
:104C7000F91F5490511044C0F4E02F0E311CEA810A
:104C8000FB81EA0DFB1D84910DC0408101815280A2
:104C9000EA81FB81E80FF91F51100DC084E0280E56
:104CA000311C80818130D1F442E368E3F4018081DA
:104CB0000E94C120C5CF1E2FFF2E452C512CC12C88
:104CC000EE24E394242FA201612F7F2DC4010E94C2
:104CD0000F2512012A0C3B1C8111B2CFDD2061F09F
:104CE000812F9F2D0E94103207C0DD2039F0812FC7
:104CF0009F2D0E94103202C080E024C081E022C0BB
:104D0000252C312CF2E0F51548F4B101812F9F2DAF
:104D100049830E949F32182FF92E4981812F9F2DA0
:104D2000A0E0B0E02A813B812A0D3B1DA215B3050E
:104D300020F6F901EA0FFB1F5491FC015193CF01BA
:104D40001196F4CF0F900F900F90DF91CF911F919C
:104D50000F91FF90EF90DF90CF90BF90AF909F901A
:104D60008F907F906F905F904F903F902F9008951D
:104D700021E00C94FB25462F60E7FC0180810C9418
:104D8000C120462F61E7FC0180810C94C120823054
:104D9000E8F4E82FF0E0EE0FFF1FE253FB4F7183C2
:104DA0006083813041F0809169008C7F842B8093F7
:104DB0006900E89A089580916900440F551F440FD7
:104DC000551F837F842B80936900E99A08951F9271
:104DD0000F920FB60F9211242F933F934F935F932F
:104DE0006F937F938F939F93AF93BF93EF93FF93B3
:104DF0008091CE049091CF04892B29F0E091CE04CC
:104E0000F091CF040995FF91EF91BF91AF919F91E0
:104E10008F917F916F915F914F913F912F910F9063
:104E20000FBE0F901F9018951F920F920FB60F9202
:104E300011242F933F934F935F936F937F938F939F
:104E40009F93AF93BF93EF93FF938091D004909182
:104E5000D104892B29F0E091D004F091D104099577
:104E6000FF91EF91BF91AF919F918F917F916F9142
:104E70005F914F913F912F910F900FBE0F901F9018
:104E800018951F920F920FB60F9211242F933F93F4
:104E90008F939F93AF93BF938091D3049091D40449
:104EA000A091D504B091D6043091D20423E0230F11
:104EB0002D3720F40196A11DB11D05C026E8230F52
:104EC0000296A11DB11D2093D2048093D304909328
:104ED000D404A093D504B093D6048091D7049091C4
:104EE000D804A091D904B091DA040196A11DB11D96
:104EF0008093D7049093D804A093D904B093DA0494
:104F0000BF91AF919F918F913F912F910F900FBEC5
:104F10000F901F9018952FB7F8946091D30470915B
:104F2000D4048091D5049091D6042FBF08953FB743
:104F3000F8948091D7049091D804A091D904B091AD
:104F4000DA0426B5A89B05C02F3F19F00196A11DD4
:104F5000B11D3FBF6627782F892F9A2F620F711DD1
:104F6000811D911D42E0660F771F881F991F4A958A
:104F7000D1F70895CF92DF92EF92FF92CF93DF9314
:104F80006B017C010E949727EB01C114D104E1045D
:104F9000F10489F00E94AC2D0E9497276C1B7D0BB9
:104FA000683E734090F381E0C81AD108E108F10827
:104FB000C851DC4FEACFDF91CF91FF90EF90DF90A7
:104FC000CF900895789484B5826084BD84B5816063
:104FD00084BD85B5826085BD85B5816085BDEEE601
:104FE000F0E0808181608083E1E8F0E010828081E0
:104FF00082608083808181608083E0E8F0E080814E
:1050000081608083E1EBF0E0808184608083E0EB6D
:10501000F0E0808181608083EAE7F0E08081846055
:1050200080838081826080838081816080838081B1
:10503000806880831092C10008958E3008F08E50F1
:1050400087702091470190E4299F90011124822BC1
:1050500080937C0080917A00806480937A008091B4
:105060007A0086FDFCCF809178002091790090E055
:10507000922B08951F93CF93DF93182FEB0161E0DC
:105080000E94C228209711F460E004C0CF3FD105F0
:1050900039F461E0812FDF91CF911F910C94FB28AF
:1050A000E12FF0E0E45DF64FE491E330F9F048F4ED
:1050B000E130B9F0E230A1F584B5806284BDC8BDAD
:1050C00034C0E730E9F0E83019F1E43049F5809177
:1050D0008000806280938000D0938B00C0938A0010
:1050E00024C084B5806884BDC7BD1FC08091800086
:1050F000806880938000D0938900C093880015C099
:105100008091B00080688093B000C093B3000DC060
:105110008091B00080628093B000C093B40005C05D
:10512000C038D1050CF0B5CFAFCFDF91CF911F9133
:105130000895833081F028F4813099F08230A1F015
:1051400008958730A9F08830B9F08430D1F4809187
:1051500080008F7D03C0809180008F7780938000D6
:10516000089584B58F7702C084B58F7D84BD08957E
:105170008091B0008F7703C08091B0008F7D8093C5
:10518000B0000895CF93DF9390E0FC01E05CF64F10
:105190002491FC01EC5AF64F8491882349F190E068
:1051A000880F991FFC01E458F64FA591B4918E58D1
:1051B000964FFC01C591D4919FB7611108C0F89436
:1051C0008C91209582238C93888182230AC062303F
:1051D00051F4F8948C91322F309583238C938881ED
:1051E000822B888304C0F8948C91822B8C939FBF70
:1051F000DF91CF9108950F931F93CF93DF931F9269
:10520000CDB7DEB7282F30E0F901E45DF64F849189
:10521000F901E05CF64F1491F901EC5AF64F049154
:105220000023C9F0882321F069830E9499286981AD
:10523000E02FF0E0EE0FFF1FEE58F64FA591B4916E
:105240009FB7F8948C91611103C01095812301C020
:10525000812B8C939FBF0F90DF91CF911F910F9166
:105260000895CF93DF93282F30E0F901E45DF64FE6
:105270008491F901E05CF64FD491F901EC5AF64FB4
:10528000C491CC2391F081110E949928EC2FF0E079
:10529000EE0FFF1FE859F64FA591B4912C912D23E5
:1052A00081E090E021F480E002C080E090E0DF91B6
:1052B000CF910895FC01818D228D90E0805C9F4FFD
:1052C000821B91098F7399270895FC01918D828D1E
:1052D000981731F0828DE80FF11D858D90E00895CB
:1052E0008FEF9FEF0895FC01918D828D981761F0EB
:1052F000828DDF01A80FB11D5D968C91928D9F5F0D
:105300009F73928F90E008958FEF9FEF089587EF3E
:105310009AE2892B49F080E090E0892B29F00E94E5
:10532000F72A81110C9400000895FC01848DDF019F
:10533000A80FB11DA35ABF4F2C91848D90E0019608
:105340008F739927848FA689B7892C93A089B189F7
:105350008C9180648C93938D848D981306C0028801
:10536000F389E02D80818F7D80830895CF93DF9333
:10537000EC01888D8823C9F0EA89FB89808185FD4D
:1053800005C0A889B9898C9186FD0FC00FB607FCAE
:10539000F5CF808185FFF2CFA889B9898C9185FFEF
:1053A000EDCFCE010E949529E7CFDF91CF910895EF
:1053B000CF92DF92FF920F931F93CF93DF931F92B1
:1053C000CDB7DEB76C01DC015B969C915B975C9678
:1053D0008C915C97981307C05096ED91FC91519772
:1053E000808185FD32C0F601038D10E00F5F1F4FF5
:1053F0000F731127F02EF601848DF81211C00FB62D
:1054000007FCF9CFD6015096ED91FC915197808120
:1054100085FFF1CFC60169830E9495296981EBCF91
:10542000838DE80FF11DE35AFF4F6083D6015B9631
:105430000C935B975296ED91FC915397808180621B
:10544000808381E058968C930DC0D6015696ED91DD
:10545000FC91579760835096ED91FC915197808114
:105460008064808381E090E00F90DF91CF911F9165
:105470000F91FF90DF90CF900895BF92CF92DF926F
:10548000EF92FF92CF93DF93EC016A017B01B22E82
:10549000E889F98982E08083411581EE580761052A
:1054A0007105A1F060E079E08DE390E0A70196013D
:1054B0000E941731215031094109510956954795EC
:1054C00037952795211580E1380798F0E889F98903
:1054D000108260E874E88EE190E0A70196010E94D6
:1054E0001731215031094109510956954795379592
:1054F0002795EC85FD853083EE85FF852083188E0A
:10550000EC89FD89B082EA89FB8980818061808392
:10551000EA89FB89808188608083EA89FB898081B0
:1055200080688083EA89FB8980818F7D8083DF9119
:10553000CF91FF90EF90DF90CF90BF9008951F9292
:105540000F920FB60F9211242F938F939F93EF9387
:10555000FF93E091EB04F091EC048081E091F10481
:10556000F091F20482FD12C090818091F4048F5F6B
:105570008F732091F504821751F0E091F404F0E06C
:10558000E552FB4F958F8093F40401C08081FF9119
:10559000EF919F918F912F910F900FBE0F901F90C1
:1055A00018951F920F920FB60F9211242F933F93CD
:1055B0004F935F936F937F938F939F93AF93BF931B
:1055C000EF93FF938BED94E00E949529FF91EF916B
:1055D000BF91AF919F918F917F916F915F914F910B
:1055E0003F912F910F900FBE0F901F9018958BED4C
:1055F00094E00E945A2921E0892B09F420E0822FAF
:1056000008951092DE041092DD0488EE93E0A0E08D
:10561000B0E08093DF049093E004A093E104B093A2
:10562000E2048BE492E09093DC048093DB0485EC4D
:1056300090E09093E8048093E70484EC90E09093EA
:10564000EA048093E90480EC90E09093EC0480936A
:10565000EB0481EC90E09093EE048093ED0482ECF7
:1056600090E09093F0048093EF0486EC90E09093A8
:10567000F2048093F1041092F4041092F504109255
:10568000F6041092F704089508950E94E2270E94FC
:10569000442B0E941610C7E8D9E20E94BC1720973D
:1056A000E1F30E948729F9CFCF92DF92EF92FF9228
:1056B0000F931F93CF93DF936C017A01EB01E60EFA
:1056C000F71E00E010E0CE15DF0561F06991D6010C
:1056D000ED91FC910190F081E02DC6010995080F34
:1056E000191FF1CFC801DF91CF911F910F91FF904A
:1056F000EF90DF90CF9008956115710581F0DB0187
:105700000D900020E9F7AD0141505109461B570BA0
:10571000DC01ED91FC910280F381E02D099480E0A1
:1057200090E008950C947C2BDC01ED91FC910190AC
:10573000F081E02D09940F931F93CF93DF93EC0139
:105740006DE00E94942B8C016AE0CE010E94942BA4
:10575000800F911FDF91CF911F910F9108950F93AB
:105760001F93CF93DF93EC010E947C2B8C01CE0121
:105770000E949B2B800F911FDF91CF911F910F9162
:1057800008958F929F92AF92BF92CF92DF92EF9245
:10579000FF920F931F93CF93DF93CDB7DEB7A197FF
:1057A0000FB6F894DEBF0FBECDBF7C01C42EE52F2F
:1057B000CB01D22E19A221E02D1510F02AE0D22E15
:1057C0008E010F5D1F4F8D2C912CA12CB12C6C2DB7
:1057D0007E2FA50194010E9417318C2DD29E801935
:1057E0001124015011098A3014F4805D01C0895CD4
:1057F000F8018083211531054105510521F0C22EA4
:10580000E32FCA01E4CFB801C7010E947C2BA19607
:105810000FB6F894DEBF0FBECDBFDF91CF911F91C1
:105820000F91FF90EF90DF90CF90BF90AF909F903F
:105830008F900895CF92DF92EF92FF920F931F9374
:10584000CF93DF93EC016A017B012115310579F4D7
:10585000E881F9810190F081E02D642FDF91CF91F3
:105860001F910F91FF90EF90DF90CF9009942A3015
:105870003105E9F477FF1AC06DE20E94942B8C0188
:1058800044275527BA014C195D096E097F092AE0A2
:10589000CE010E94C12B800F911FDF91CF911F91EC
:1058A0000F91FF90EF90DF90CF9008952AE0B7011D
:1058B000A601CE01DF91CF911F910F91FF90EF9044
:1058C000DF90CF900C94C12B2115310541F4DC0100
:1058D000ED91FC910190F081E02D642F09940C94DE
:1058E000C12B9A01462F50E060E070E00C94642CCC
:1058F0004F925F926F927F928F929F92AF92BF92E0
:10590000CF92DF92EF92FF920F931F93CF93DF938B
:10591000EC016A017B01B22E9A01AB01C701B6010D
:105920000E94EE30882319F067E572E027C0260157
:105930003701E89477F82FEF3FEF4FE75FE7C301B8
:10594000B2010E94EE3081110DC02FEF3FEF4FE703
:105950005FE7C301B2010E94742E18161CF46BE5B8
:1059600072E00CC02FEF3FEF4FE75FE4C701B601D5
:105970000E9435301816ACF46FE572E0CE01DF916D
:10598000CF911F910F91FF90EF90DF90CF90BF903C
:10599000AF909F908F907F906F905F904F900C94FE
:1059A0007C2B2FEF3FEF4FE75FECC701B6010E9462
:1059B000742E87FDE1CF20E030E0A901C701B601D8
:1059C0000E94742E87FF0AC06DE2CE010E94942BC4
:1059D0008C01F7FAF094F7F8F09402C000E010E0C0
:1059E000A12C60E070E080E09FE3AB1441F020E088
:1059F00030E040E251E40E947B2EA394F6CF9B015D
:105A0000AC01C701B6010E94AE2D6B017C010E9462
:105A1000E82E2B013C010E94142F9B01AC01C70111
:105A2000B6010E94AD2D6B017C012AE0B301A201F9
:105A3000CE010E94C12B080F191FBB2039F063E66D
:105A400072E0CE010E947C2B080F191F7B2C77205F
:105A500041F120E030E040E251E4C701B6010E948C
:105A600040306B017C010E94E32E4B01AA2497FC7D
:105A7000A094BA2C2AE030E0B501A401CE010E9426
:105A80001A2C080F191FC501B4010E94162F9B0183
:105A9000AC01C701B6010E94AD2D6B017C017A9467
:105AA000D6CFC801DF91CF911F910F91FF90EF905A
:105AB000DF90CF90BF90AF909F908F907F906F902E
:105AC0005F904F9008950C94782C4F925F926F9254
:105AD0007F92AF92BF92CF92DF92EF92FF920F939D
