:100000000C94E5040C94A4260C94D1260C940D05B4
:100010000C940D050C940D050C940D050C940D0518
:100020000C940D050C940D050C940D050C940D0508
:100030000C940D050C940D050C940D050C940D05F8
:100040000C94FE260C940D050C943F2A0C94712AF6
:100050000C940D050C940D050C940D050C940D05D8
:100060000C94181F0C940D05084AD73B3BCE016E2B
:1000700084BCBFFDC12F3D6C74319ABD56833DDAFF
:100080003D00C77F11BED9E4BB4C3E916BAAAABE0E
:10009000000000803F05A84CCDB2D44EB93836A937
:1000A000020C50B9918688083CA6AAAA2ABE000074
:1000B00000803F0001B202FFFF0190040923A13537
:1000C000016A020600016008000000000000000054
:1000D00000600440000000016202000000600400B3
:1000E000400000037B034CCD6C03AB033656760017
:1000F000680402CB47A202180400058BC1010C045E
:1001000000000000037F060CC92C97979703890312
:10011000264666006C022000024004000000000237
:1001200044040000000002480400000000024C04E7
:10013000000000000250040000000002540400000F
:10014000000002580400000000025C0400000000EF
:1001500002BC040000000001EC0400004000037F2A
:10016000060CC92C9797970402030D355D0409040A
:10017000872D353D00A3010000000001078601FE28
:10018000074105F120283038077E01300746019AE3
:10019000074704F1283038076C04F128303802167C
:1001A000020001FB00003E000B00360001000200CF
:1001B00003000000650054FFEF0000FA80000B12FE
:1001C00082000100020000000000000000000000AA
:1001D00000000000280000FFFF4581FFFFFA7200C9
:1001E000000000000003E80000000100017FFFFFA5
:1001F000FE8001001B000000000000000000000065
:10020000000000003E03304000000002CAE3093E47
:10021000800000200000000000000040000000609E
:1002200000000041FF000000000B2A0000165500EE
:10023000002182FD872650FD800000001F00000085
:100240000580000000000000010000000200000026
:10025000030000400000000000046F00026532004F
:10026000005EC04000000000000000000000000030
:10027000000000FB8C6F5DFD5D08D9007C733B00C6
:100280006C12CC3200139D3200D0D63200080040F0
:100290000001F4FFE68079020000000000D0D600E3
:1002A000002710FB000000400000000000000000DC
:1002B000000000000000010000000000000100013B
:1002C0000000000000FA36FFBC308E0005FBF0FF96
:1002D000D95BC8FFD09ABE000010A9FFF41EB2007F
:1002E000CEBBF70000000100000004000200020283
:1002F00000000CFFC280000001800000CF800040A1
:1003000000000000000001000000000000060000E6
:1003100000001400000000000000000000000000C9
:1003200000000000000000000000000000000000CD
:1003300000000000000000000000000000000000BD
:1003400000000000000000033F68B6793528BCC6F5
:100350007ED16C80000000400000000000B26A0006
:10036000000000000000000000000000003FF0005E
:10037000000030000000000000000000000000004D
:10038000000000000000000000000000000000006D
:100390000000000000254D002F706D000005AE002C
:1003A0000C02D00000000000650054FFEF000000C8
:1003B000000000000001000044000000000C0000EC
:1003C000000100000000000065000000540000FF74
:1003D000EF0000000000000000000000000000002E
:1003E00000000040000000000000000000000000CD
:1003F00000000040000000000000000000000000BD
:1004000000000000000001000000020000000000E9
:1004100000000000000000000000000000000000DC
:1004200000000000000000000000000000000000CC
:10043000000000001B0000000000000000000000A1
:1004400000000000000000000000000000000000AC
:10045000000000000000000000000000000000405C
:10046000000000001B000000000000000000000071
:10047000000000000000000000000000000000007C
:10048000000000000000000000000000000000006C
:10049000000000000000000000000000000000005C
:1004A000000000D8DCBAA2F1DEB2B8B4A88191F79E
:1004B0004A907F916AF3F9DBA8F9B0BAA080F2CE36
:1004C00081F3C2F1C1F2C3F3CCA2B280F1C6D880ED
:1004D000BAA7DFDFDFF2A7C3CBC5B6F087A29424AB
:1004E00048703C95406834589B78A2F183922D5512
:1004F0007DD8B1B4B8A1D09180F270F370F27C8055
:10050000A8F101B09887D943D886C988BAA1F20E5C
:10051000B89780F1A9DFDFDFAADFDFDFF2AAC5CD60
:10052000C7A90CC92C97979797F1A989264666B059
:10053000B4BA80ACDEF2CAF1B28C02A9B6980089D6
:100540000E161EB8A9B4992C547CB08AA8963656BB
:1005500076F1B9AFB4B083C0B8A89711B18F98B98C
:10056000AFF0240844106418F1A329557DAF83B57A
:1005700093AFF0002850F1A3869F61A6DADEDFD9A1
:10058000FAA38696DB31A6D9F8DFBAA68FC2C5C713
:10059000B28CC1B8A2DFDFDFA3DFDFDFD8D8F1B8CC
:1005A000A8B286B4980D355DB8AA98B0872D353DB0
:1005B000B2B6BAAF8C96198F9FA70E161EB49AB812
:1005C000AA872C547CB9A3DEDFDFA3B180F2C4CDAF
:1005D000C9F1B8A9B499830D355D89B9A32D557DAD
:1005E000B593A30E161EA92C547CB8B4B0F1978312
:1005F000A81184A50998A383F0DA2408441064188C
:10060000D8F1A529557DA58595021A2E3A565A404E
:1006100048F9F3A3D9F8F098832408441064189794
:1006200082A8F111F098A2240844106418DAF3DECD
:10063000D883A59401D9A302F1A2C3C5C7D8F18478
:1006400092A24DDA2AD84869D92AD86855DA32D820
:100650005071D932D8705DDA3AD85879D93AD87809
:1006600093A34DDA2AD84869D92AD86855DA32D8FE
:100670005071D932D8705DDA3AD85879D93AD878E9
:10068000A88A9AF02850789EF38818F19F1D98A8A0
:10069000D908D8C89F129EF315A8DA1210D8F1AF66
:1006A000C8978734B5B994A421F3D922D8F22DF391
:1006B000D92AD8F235F3D932D881A4606061D961E2
:1006C000D86C6869D969D8747071D971D8B1A384AC
:1006D000193D5DA3831A3E5E931030811011B8B0AE
:1006E000AF8F94F2DA3ED8B49AA88729DAF8D8877F
:1006F0009A35DAF8D8879A3DDAF8D8B1B9A498854E
:10070000022E56A581000C14A397B08AF12DD9288A
:10071000D84DD948D86DD968D8B1840DDA0ED8A390
:100720002983DA2C0ED8A3844983DA2C4C0ED8B84E
:10073000B0A88A9AF520AADADFD8A840AAD0DADED3
:10074000D8A860AADAD0DFD8F19786A8319B06999D
:1007500007AB9728889BF00C201440B8B0B4A88C45
:100760009CF0042851791D301438B282ABD0982CFB
:10077000505078789BF11AB0F08A9CA82951798B57
:100780002951798A2470598B2058718A4469388B91
:100790003940688A6448318B304960A588200971E6
:1007A000584468113964493019F1AC002C547CF07C
:1007B0008CA804285078F1889726A85998AC8C0208
:1007C000264666F0899CA8295179247059446938D5
:1007D000644831A98809205970AB11384069A819BB
:1007E0003148608CA83C415C207C00F187981986D8
:1007F000A86E767EA999882D557D9EB9A38A228AF6
:100800006E8A568A5E9FB183062646660E2E4E6E0F
:100810009DB8AD002C547CF2B18CB499B9A32D5580
:100820007D8191AC38AD3AB58391AC2DD928D84DA6
:10083000D948D86DD968D88C9DAE29D904AED85185
:10084000D904AED879D904D881F39DAD008DAE1905
:1008500081ADD901D8F2AEDA26D88E912983A7D9F5
:10086000ADADADADF32AD8D8F1B0AC89913E5E768E
:10087000F3AC2E2EF1B18C5A9CAC2C2828289CACC1
:100880003018A8988128343C9724A728343C9C240D
:10089000F2B089AC912C4C6C8A9B2DD9D8D851D907
:1008A000D8D879D9D8D8F19E88A331DAD8D8912D63
:1008B000D928D84DD948D86DD968D8B18393353D5A
:1008C0008025DAD8D88569DAD8D8B49381A32834BA
:1008D0003CF3AB8BF8A391B609B4D9ABDEFAB08781
:1008E0009CB9A3DDF1A3A3A3A395F1A3A3A39DF1B9
:1008F000A3A3A3A3F2A3B49080F2A3A3A3A3A3A34F
:10090000A3A3A3A3B2A3A3A3A3A3A3B087B599F161
:10091000A3A3A398F1A3A3A3A397A3A3A3A3F39B28
:10092000A3A3DCB9A7F1262626D8D8FF000000082B
:1009300000020100000304070000000000000000A6
:100940000102040810204080010204081020010266
:100950000408102004040404040404040202020233
:100960000202030303030303000000002300260028
:10097000290000000000250028002B0000000000D6
:10098000240027002A004E414E494E495459494EF1
:1009900046CDCCCC3D0AD7233C17B7D13877CC2BEA
:1009A000329595E6241FB14F0A000020410000C88F
:1009B0004200401C4620BCBE4CCA1B0E5AAEC59D10
:1009C00074006B16501D361EA12A11241FBECFEFD6
:1009D000D8E0DEBFCDBF12E0A0E0B1E0E6E4FCE687
:1009E00002C005900D92AC38B107D9F725E0ACE80C
:1009F000B2E001C01D92AA3AB207E1F719E0CAECD1
:100A0000D9E004C02297FE010E940D31C23CD107FB
:100A1000C9F70E94E52A0C9421360C9400001F921D
:100A20000F920FB60F9211242F938F939F93AF9332
:100A3000BF9323B1822F817090E04A9B03C0892B22
:100A400019F00EC0892B61F080919103909192036F
:100A5000A0919303B09194030196A11DB11D0BC009
:100A60008091910390919203A0919303B09194038C
:100A70000197A109B1098093910390939203A093E8
:100A80009303B0939403BF91AF919F918F912F9156
:100A90000F900FBE0F901F9018951F920F920FB6D8
:100AA0000F9211242F938F939F93AF93BF9323B1F2
:100AB00021FB882780F990E04B9B03C0892B19F01C
:100AC0000EC0892B61F08091950390919603A091BF
:100AD0009703B09198030196A11DB11D0BC08091A1
:100AE000950390919603A0919703B0919803019775
:100AF000A109B1098093950390939603A09397035E
:100B0000B0939803BF91AF919F918F912F910F90C8
:100B10000FBE0F901F9018959C01FC01EE57FF4FE0
:100B200080819181680F791F6138710530F471837C
:100B300060830296820F931F089580E090E00895ED
:100B40009C01FC01EE5BFF4F80819181680F791F52
:100B50006134710530F4718360830296820F931FB4
:100B6000089580E090E00895609143017091440100
:100B70000E947E1B0E94351A21E06130710509F048
:100B800020E0209332010895609143017091440167
:100B90000E947E1B0E94351A21E06130710509F028
:100BA00020E020931A04089560914301709144015C
:100BB0000E947E1B0E94351A21E06130710509F008
:100BC00020E020933301622F8CE00C949B280E943C
:100BD000111AFC0181E0208131812230310508F4B5
:100BE00080E00895CF93DF93EC0167E471E00E9409
:100BF000E705882311F167E471E0CE010E947E1BB6
:100C000060E070E00E94901A0E94261A0E948B2ECB
:100C100070938E0360938D0367E471E0CE010E94B0
:100C20007E1B61E070E00E94901A0E94261A0E94CA
:100C30008B2E7093900360938F036CE471E0CE0170
:100C40000E94E705882309F459C06CE471E0CE01E5
:100C50000E947E1B60E070E00E94901A0E94261A9B
:100C6000609335017093360180933701909338017A
:100C70006CE471E0CE010E947E1B61E070E00E9496
:100C8000901A0E94261A6093390170933A0180935A
:100C90003B0190933C016CE471E0CE010E947E1B0D
:100CA00062E070E00E94901A0E94261A60933D0153
:100CB00070933E0180933F019093400110923B035B
:100CC00010923C0310923D0310923E0310926E036B
:100CD00010926F03109270031092710310923703F9
:100CE000109238031092390310923A0310926A035B
:100CF00010926B0310926C0310926D0360E571E02B
:100D0000CE010E94E705882309F45CC060E571E02C
:100D1000CE010E947E1B60E070E00E94901A0E944B
:100D2000351A8AE793E00E940D2460E571E0CE0158
:100D30000E947E1B61E070E00E94901A0E94351AAA
:100D40008AE793E00E94132460E571E0CE010E94DF
:100D50007E1B62E070E00E94901A0E94351A8AE7BA
:100D600093E00E94192460E571E0CE010E947E1B91
:100D700063E070E00E94901A0E94351A8AE793E0BF
:100D80000E941F2460E571E0CE010E947E1B64E09A
:100D900070E00E94901A0E94351A8AE793E00E9440
:100DA000252460E571E0CE010E947E1B65E070E0C5
:100DB0000E94901A0E94351A8AE793E0DF91CF9142
:100DC0000C942B24DF91CF910895CF93DF93EC0106
:100DD00060914301709144010E947E1B0E94351A6C
:100DE00021E06130710509F020E020931B0460913F
:100DF000410170914201CE010E94E705882369F00C
:100E00006091410170914201CE010E947E1B0E94BF
:100E1000351A70932D0160932C01DF91CF910895C5
:100E20008F929F92AF92BF92CF92EF920F931F93A8
:100E3000CF93DF93CDB7DEB7C059D1090FB6F89481
:100E4000DEBF0FBECDBF5C010E94FE226EE170E0EE
:100E500080E090E00E94772760E0C5010E940523B2
:100E600021E041E060E1C5010E943F2466E0C50148
:100E70000E944A24C5010E94502420E040E060E026
:100E8000C5010E943F24C5010E947A23C5010E942A
:100E90009823182FC5010E94BF23882EC5010E94E8
:100EA000E623982E4FE760E0C5010E94BE2260E075
:100EB000C5010E94E92248E660E0C5010E94BE2209
:100EC000C5010E94F72264E170E080E090E00E949A
:100ED0007727EE24E39400E020E049E857E063EA56
:100EE00071E0C5010E94AD25882309F40EC240ECD3
:100EF00050E063EE70E0C5010E947526882309F476
:100F000006C263E0C5010E940C2362E1C5010E9494
:100F1000CA2264E0C5010E94742261E0C5010E94FA
:100F20007A2263E0C5010E94852263E0C5010E9428
:100F3000902263E0C5010E94782660E0C5010E940E
:100F40007E2660E0C5010E949123612FC5010E94A9
:100F5000B423682DC5010E94DB23692DC5010E94C1
:100F60000224812C912CF401EC54FF4FE491A1E870
:100F7000B0E0AC0FBD1FA80DB11DEC9381E0880D52
:100F80009FEF891A990AE3E0E81568F7CD57DF4F1C
:100F90004881C358D04050E09A012E5F3F4F90E007
:100FA0002817390704F7C12CEE24E394CE57DF4FFE
:100FB0000881C258D040CF57DF4F2881C158D04058
:100FC00061E870E06C0F7D1F6D5F7F4FC5010E946F
:100FD000CC2460E0F401EC54FF4FE491A1E8B0E0D0
:100FE000AC0FBD1FA60FB11DEC936F5FFFEF8F1A03
:100FF0009F0A643078F3CD57DF4F4881C358D04003
:1010000050E09A012E5F3F4F862F90E02817390756
:101010000CF7C12CEE24E394CE57DF4F0881C25861
:10102000D040CF57DF4F2881C158D04061E870E0F1
:101030006C0F7D1F6D5F7F4FC5010E94CC24C501E1
:101040000E94F022C5010E942B23482FBE016F5F32
:101050007F4FC5010E94472362E0C5010E94A6227E
:101060006CE9C5010E94B22260E5C5010E94AC2274
:1010700060E0C5010E94B822C5010E94F02261E033
:10108000C5010E94E22261E0C5010E943124C50130
:101090000E94382460E0F401EC54FF4FE491A1E891
:1010A000B0E0AC0FBD1FA60FB11DEC936F5F8FEFCB
:1010B000881A980A643078F3CD57DF4F4881C358B7
:1010C000D04050E09A012E5F3F4F862F90E02817C6
:1010D00039070CF7C12CEE24E394CE57DF4F08817B
:1010E000C258D040CF57DF4F2881C158D04061E867
:1010F00070E06C0F7D1F6D5F7F4FC5010E94CC2497
:1011000060E0F401EC54FF4FE491A1E8B0E0AC0FD3
:10111000BD1FA60FB11DEC936F5F9FEF891A990A4F
:10112000643078F3CD57DF4F4881C358D04050E04A
:101130009A012E5F3F4F862F90E0281739070CF752
:10114000C12CEE24E394CE57DF4F0881C258D04023
:10115000CF57DF4F2881C158D04061E870E06C0F55
:101160007D1F6D5F7F4FC5010E94CC2460E0F401BC
:10117000EC54FF4FE491A1E8B0E0AC0FBD1FA60F07
:10118000B11DEC936F5FEFEF8E1A9E0A643078F317
:10119000CD57DF4F4881C358D04050E09A012E5FB1
:1011A0003F4F862F90E0281739070CF7C12CEE240B
:1011B000E394CE57DF4F0881C258D040CF57DF4F5E
:1011C0002881C158D04061E870E06C0F7D1F6D5FD1
:1011D0007F4FC5010E94CC24C5010E942B23833080
:1011E0009105D0F3482FBE016F5F7F4FC5010E946C
:1011F0004723C5010E94D02260E0F401EC54FF4F68
:10120000E491A1E8B0E0AC0FBD1FA60FB11DEC93B7
:101210006F5FFFEF8F1A9F0A643078F3CD57DF4F6F
:101220004881C358D04050E09A012E5F3F4F862F2F
:1012300090E0281739070CF7CE57DF4F0881C258C6
:10124000D040CF57DF4F2881C158D04061E870E0CF
:101250006C0F7D1F6D5F7F4FC5010E946224C50129
:101260000E942B2383309105D0F3482FBE016F5F7E
:101270007F4FC5010E944723C5010E94D022F4017F
:10128000EC54FF4F60E08491A1E8B0E0AC0FBD1FCB
:10129000A60FB11D8C936F5F643010F43196F3CFBD
:1012A000CD57DF4F4881C358D04050E09A012E5FA0
:1012B0003F4F862F90E02817390784F761E870E0E8
:1012C0006C0F7D1F6D5F7F4FC12CEE24E394CE57D2
:1012D000DF4F0881C258D040CF57DF4F2881C15817
:1012E000D040C5010E94CC2460E0C5010E94312499
:1012F0008AE290E0F50193838283C5010E94F02287
:10130000C5010E94D02280E003C081E001C082E0DC
:10131000C057DF4F0FB6F894DEBF0FBECDBFDF91D1
:10132000CF911F910F91EF90CF90BF90AF909F9072
:101330008F900895CF93DF93DB01FA01309719F472
:10134000EC01E881F981808190E0982F8827218144
:10135000820F911D11969C938E93848190E0982F1B
:1013600088272581820F911D13969C938E93129747
:10137000808590E0982F88272185820F911D1596F2
:101380009C938E931497848590E0982F88272585C9
:10139000820F911D17969C938E93169780E0DF9194
:1013A000CF910895FF920F931F93CF93DF93CDB703
:1013B000DEB728970FB6F894DEBF0FBECDBF8B0106
:1013C000BE016F5F7F4F0E949A09F82E81114CC0B9
:1013D00069817A81882777FD8095982F0E94BE2E9B
:1013E00020E030E040E858E30E94E82FF8016083F5
:1013F0007183828393836B817C81882777FD8095BD
:10140000982F0E94BE2E20E030E040E858E30E9472
:10141000E82FF80164837583868397836D817E81CD
:10142000882777FD8095982F0E94BE2E20E030E01F
:1014300040E858E30E94E82FF801608771878287AF
:1014400093876F817885882777FD8095982F0E94F4
:10145000BE2E20E030E040E858E30E94E82FF8017B
:1014600064877587868797878F2D28960FB6F8949F
:10147000DEBF0FBECDBFDF91CF911F910F91FF90C7
:1014800008954F925F926F927F928F929F92AF9248
:10149000BF92CF92DF92EF92FF920F931F93CF9361
:1014A000DF93CDB7DEB728970FB6F894DEBF0FBE37
:1014B000CDBF8B01DA011496CD90DD90ED90FC90BC
:1014C00017971C964D905D906D907C901F978D9016
:1014D0009D90AD90BC90139718968D919D910D9015
:1014E000BC91A02D89839A83AB83BC83A301920115
:1014F000C701B6010E94E82F6D837E838F83988792
:1015000029813A814B815C81C501B4010E94E82F99
:101510009B01AC016D817E818F8198850E94552D44
:101520009B01AC010E94562DF80160837183828378
:101530009383A7019601C501B4010E94E82F6D8332
:101540007E838F839887A301920169817A818B8141
:101550009C810E94E82F9B01AC016D817E818F816F
:1015600098850E94562D9B01AC010E94562DD801F2
:1015700014966D937D938D939C931797A501940179
:10158000C501B4010E94E82F4B015C01A70196013F
:10159000C701B6010E94E82F9B01AC01C501B4014F
:1015A0000E94552D6B017C0129813A814B815C8120
:1015B000CA01B9010E94E82F9B01AC01C701B60125
:1015C0000E94552D6B017C01A3019201C301B20160
:1015D0000E94E82F9B01AC01C701B6010E94562D65
:1015E000F801608771878287938780E028960FB61D
:1015F000F894DEBF0FBECDBFDF91CF911F910F9149
:10160000FF90EF90DF90CF90BF90AF909F908F9022
:101610007F906F905F904F9008952F923F924F92DE
:101620005F926F927F928F929F92AF92BF92CF9272
:10163000DF92EF92FF920F931F93CF93DF9300D02F
:1016400000D000D0CDB7DEB71B018A013E832D83C9
:10165000FA01C080D180E280F380A7019601C70122
:10166000B6010E94562D69837A838B839C83F8018F
:1016700084809580A680B780A5019401C501B4013E
:101680000E94562D2B013C01A701960169817A81A8
:101690008B819C810E94E82F6B017C01A501940144
:1016A000C301B2010E94E82F9B01AC01C701B60142
:1016B0000E94562D20E030E040E85FE30E94552D67
:1016C0006B017C01F8012085318542855385C3017A
:1016D000B2010E94E82F2B013C01F80124853585D9
:1016E0004685578569817A818B819C810E94E82F8C
:1016F0009B01AC01C301B2010E94552DA7019601C7
:101700000E94C92DF1016083718382839383ED81EF
:10171000FE816481758186819781C084D184E28451
:10172000F3849B01AC010E94E82F4B015C01A701EF
:101730009601C701B6010E94E82F9B01AC01C501CB
:10174000B4010E94562D0E9455309B01AC01ED81E1
:10175000FE8160817181828193810E94232E0E948B
:10176000F42DF1016483758386839783ED81FE8177
:101770006081718182819381C084D184E284F38409
:101780009B01AC010E94E82F4B015C01A70196016F
:10179000C701B6010E94E82F9B01AC01C501B4014D
:1017A0000E94562D0E9455309B01AC01ED81FE81B7
:1017B00064817581868197810E94232E0E94F42D79
:1017C000F101608771878287938780E026960FB644
:1017D000F894DEBF0FBECDBFDF91CF911F910F9167
:1017E000FF90EF90DF90CF90BF90AF909F908F9041
:1017F0007F906F905F904F903F902F9008954F9201
:101800005F926F927F928F929F92AF92BF92CF9290
:10181000DF92EF92FF920F931F93CF93DF93EC0130
:101820007B01882777FD8095982F0E94BE2E2B0183
:101830003C012D813E814F8158850E941C2E8823BA
:1018400009F458C064E571E087E095E00E94322B0E
:101850006EE571E087E095E00E94322B4AE050E0AF
:10186000688187E095E00E94192C67E671E087E0C7
:1018700095E00E94322B4AE050E0B70187E095E006
:101880000E94042C87E095E00E943B2B8C80F7FEA1
:1018900003C081E08825882EB701F7FE03C071954B
:1018A00061957109882777FD8095982F1F921F9267
:1018B0001F922FEF2F93A12CB12C650114E6E12E7E
:1018C000F12C00E010E020E030E0A9010E940D2D95
:1018D0006B017C01682D89810E949B28B60188815B
:1018E0000E94DA274D825E826F8278860F900F9079
:1018F0000F900F90DF91CF911F910F91FF90EF907C
:10190000DF90CF90BF90AF909F908F907F906F901F
:101910005F904F9008958F929F92AF92BF92EF92F7
:10192000FF920F931F93CF93DF93EC014A015B016A
:1019300060918F0370919003882777FD8095982F91
:101940000E94BE2E9B01AC01C501B4010E94E82F8C
:1019500020E030E048EC52E40E94232E6BA77CA7E5
:101960008DA79EA76BE671E087E095E00E94322B81
:1019700067E771E087E095E00E94322B4BA55CA5FC
:101980006DA57EA522E030E087E095E00E940B2D5A
:1019900087E095E00E943B2BEF8AF88E098F1A8F23
:1019A000A701B80177FF07C07095609550954195E4
:1019B0005F4F6F4F7F4F81E04F3F5F4F6F4F7F47CC
:1019C00009F480E08E8B11E020E030E0A9016BA5E6
:1019D0007CA58DA59EA50E941C2E811101C010E042
:1019E0001D8B1BA21CA21DA21EA21FA218A619A617
:1019F0001AA61F8E18A219A21AA2DF91CF911F91C9
:101A00000F91FF90EF90BF90AF909F908F900895AF
:101A1000EF92FF920F931F93CF93DF93EC01EE248D
:101A2000EA94FE2C0FEF1FE720E030E040E050E0AA
:101A3000BA010E948B0CEB8119861A861B861C86C4
:101A4000198A1A8A1B8A1C8A84E0E89FF0011124F3
:101A5000EF56FC4F10821182128213821BA21CA22D
:101A60001DA21EA21FA218A619A61AA61F8E18A292
:101A700019A21AA20E9448276093A5037093A60397
:101A80008093A7039093A803DF91CF911F910F91AB
:101A9000FF90EF900895CF92DF92EF920F93CF9344
:101AA000DF931F92CDB7DEB76C01862FF6016083FE
:101AB000418322830383E48290913301992399F037
:101AC00061E049830E94622861E04981842F0E947D
:101AD0006228C6010F90DF91CF910F91EF90DF90B8
:101AE000CF900C94080D0F90DF91CF910F91EF9054
:101AF000DF90CF9008958F929F92AF92BF92CF9236
:101B0000DF92EF92FF920F931F93CF93DF936C01BD
:101B100065E871E00E94E705882349F065E871E017
:101B2000C6010E947E1B0E94351AEB0102C0C0E074
:101B3000D0E069E871E0C6010E94E705882311F151
:101B400069E871E0C6010E947E1B0E94261A4B01C3
:101B50005C0120E030E0A9010E94DD2F87FD06C076
:101B6000EE24EA94FE2C0FEF1FE705C0EE24E39469
:101B7000F12C00E010E89E01B501A40187E493E098
:101B80000E948B0C6CE871E0C6010E94E705882377
:101B900011F16CE871E0C6010E947E1B0E94261ABA
:101BA0004B015C0120E030E0A9010E94DD2F87FDA0
:101BB00006C0EE24EA94FE2C0FEF1FE705C0EE24CA
:101BC000E394F12C00E010E89E01B501A40184E14A
:101BD00093E00E948B0CDF91CF911F910F91FF90AA
:101BE000EF90DF90CF90BF90AF909F908F9008952F
:101BF0004F925F926F927F92AF92BF92CF92DF929D
:101C0000EF92FF920F931F93CF93DF93CDB7DEB781
:101C10002C970FB6F894DEBF0FBECDBFE986FA86CB
:101C20000B871C870E94552D2B013C01ABA1BCA149
:101C30002D913D914D915C910E94562D2FA138A57B
:101C400049A55AA50E94E82F6D837E838F839887CC
:101C5000A3019201EDA1FEA1608171818281938136
:101C60000E94552D2FA138A549A55AA50E94E82FFD
:101C700069837A838B839C83ED80FE800F81188536
:101C8000ABA1BCA1ED92FD920D931C931397ADA156
:101C9000BEA16D937D938D939C931397E9A1FAA1B7
:101CA0004082518262827382A301920169857A85A2
:101CB0008B859C850E94E82F2B013C012D813E8164
:101CC0004F815885C601B5010E94E82F9B01AC01E8
:101CD000C301B2010E94562D6B017C0129813A811A
:101CE0004B815C816D8D7E8D8F8D98A10E94E82F38
:101CF0009B01AC01C701B6010E94562D2C960FB670
:101D0000F894DEBF0FBECDBFDF91CF911F910F9131
:101D1000FF90EF90DF90CF90BF90AF907F906F904B
:101D20005F904F9008952F923F924F925F926F92E3
:101D30007F928F929F92AF92BF92CF92DF92EF925B
:101D4000FF920F931F93CF93DF93CDB7DEB72C97FE
:101D50000FB6F894DEBF0FBECDBF1C016B01DC01D6
:101D60001D962D913D914D915C91509751968D917D
:101D70009D910D90BC91A02D281B390B4A0B5B0B3C
:101D8000A8EEB3E00E940031960140E050E02983C4
:101D90003A834B835C830E94E130CA01B9010E94FF
:101DA000BE2E2B013C01D1019F966D937D938D93A7
:101DB0009C93D297A0903901B0903A01C0903B011A
:101DC000D0903C012091350130913601409137018E
:101DD000509138012D833E834F8358879B968D9178
:101DE0009D910D90BC91A02D89879A87AB87BC8768
:101DF00069817A818B819C810E94BC2E20E030E039
:101E00004AE754E40E94232E9F938F937F936F930E
:101E1000C10187969F938F9304979F938F93049705
:101E20009F938F93809140018F9380913F018F9377
:101E300080913E018F9380913D018F93ED80FE80D4
:101E40000F811885A301920169857A858B859C8510
:101E50000E94F80D4B015C01F101C3A4D4A4E5A4D8
:101E6000F6A40FB6F894DEBF0FBECDBF20E030E081
:101E7000A901C701B6010E941C2E882309F45AC08B
:101E800020E030E0A901D1019F966D917D918D9167
:101E90009C91D2970E941C2E8823A1F1F101238DE1
:101EA000348D458D568DC501B4010E94562D6B01B0
:101EB0007C0120E030E048EC52EC0E941C2E87FDB3
:101EC0000FC020E030E048EC52E4B601C7010E94A8
:101ED000DD2F181654F4C12CD12C98EC82E407C0E5
:101EE000C12CD12C98EC82EC02C09E2D8F2DA60126
:101EF000692F782FD1015B964D935D936D937C9301
:101F00005E971FC020E030E0A901C701B6010E9422
:101F1000DD2F87FD05C040E050E068E472E404C0B6
:101F200040E050E068E472ECF101438F548F658F1C
:101F3000768F07C0D1015B961D921D921D921C9257
:101F40005E97F1014585568567857089418B528B77
:101F5000638B748B2C960FB6F894DEBF0FBECDBF8B
:101F6000DF91CF911F910F91FF90EF90DF90CF9075
:101F7000BF90AF909F908F907F906F905F904F90A9
:101F80003F902F900895109295031092960310920F
:101F9000970310929803109291031092920310925B
:101FA00093031092940362E082E00E94622862E050
:101FB00083E00E94622862E088E00E94622862E07A
:101FC00089E00E94622841E050E06FE075E080E027
:101FD0000E94842641E050E06DE475E081E00E94BB
:101FE000842680913301882341F161E085E00E94DD
:101FF000622860E085E00E949B2861E086E00E9404
:10200000622860E086E00E949B2861E08BE00E94ED
:10201000622860E08BE00E949B2861E081E10E94E1
:10202000622860E081E10E949B2887E493E00E949F
:10203000080D84E193E00E94080D1092990310921C
:102040009A0310929B0310929C0310929D0310928E
:102050009E0310929F031092A0031092A10310926E
:10206000A2031092A3031092A403109233010895C7
:10207000CF92DF92EF92FF92CF93DF930E94482797
:102080006B017C018091A5039091A603E601C81B1A
:10209000D90BE0914A0380914B03F0E0EE0FFF1F54
:1020A000EE0FFF1FEF56FC4F882361F08081918176
:1020B000A281B381B095A095909581959F4FAF4F28
:1020C000BF4F04C080819181A281B381809354036A
:1020D00090935503A0935603B0935703E0911703D1
:1020E00080911803F0E0EE0FFF1FEE0FFF1FEF5679
:1020F000FC4F882361F080819181A281B381B095EA
:10210000A095909581959F4FAF4FBF4F04C08081A0
:102110009181A281B3818093210390932203A093A4
:102120002303B0932403BE0187E493E00E94930E3F
:10213000BE0184E193E00E94930E6091620370916E
:10214000630380916403909165030E948B2E87E462
:1021500093E00E94FF0B60912F03709130038091F8
:102160003103909132030E948B2E84E193E00E9410
:10217000FF0BC092A503D092A603E092A703F092B2
:10218000A803DF91CF91FF90EF90DF90CF9008955B
:10219000EF92FF920F931F93CF93DF937C010CE09C
:1021A00011E0C0E0D0E066E072E0C7010E947E1B53
:1021B0000E941A1ABC01F801808191810E94DE35CB
:1021C0000C5F1F4F892B81F4CC0FDD1FCC0FDD1F5F
:1021D000C45FDE4FEA81FB81C701DF91CF911F9180
:1021E0000F91FF90EF9009942196C730D105D9F651
:1021F000DF91CF911F910F91FF90EF9008958C0187
:10220000C0E0D0E0C017D107B4F461E08DE00E94D7
:102210009B2868EC70E080E090E00E94772760E007
:102220008DE00E949B2868EC70E080E090E00E94C6
:1022300077272196E7CF68E572E080E090E00E9482
:102240007727DECF26E040E052EC61E070E087E0E7
:1022500095E00E94DD2964E170E080E090E00E945A
:10226000772761E08DE00E94622861E08CE00E94A7
:10227000622862E084E00E94622860E08DE00E94B3
:102280009B2860E08CE00E949B280E94C30F8091F5
:102290003401882309F47FC08AE394E00E94FC1D86
:1022A00088E18093B80062E087E00E9462288AE7B4
:1022B00093E00E9417236AE070E080E090E00E94C3
:1022C00077278AE793E00E9472238AE793E00E94CF
:1022D0001007809313046AE070E080E090E00E94B1
:1022E00077278091130481113CC061E08AE793E075
:1022F0000E9431246AE070E080E090E00E9477273D
:102300008AE793E00E94D0228093150480917C0399
:10231000809314046CED70E08AE793E00E941F2420
:102320006CE470E08AE793E00E9425246BEA7FEF7B
:102330008AE793E00E942B246CEF76E08AE793E033
:102340000E9419240E944827605D7A488F4F9F4F52
:1023500060938D0270938E0280938F02909390020F
:102360001AC06FE871E087E095E00E94322B4AE0E6
:1023700050E06091130487E095E00E94192C60EA18
:1023800071E087E095E00E944F2B8091130490E06C
:1023900001960E94FF1062EA71E087E095E00C94DC
:1023A0004F2BCF92DF92EF92FF92CF93DF93EC010E
:1023B000C880D980EA80FB802BED3FE049E450E4FF
:1023C000C701B6010E94DD2F18166CF42BED3FE01B
:1023D00049EC50E4C701B6010E94552D688379830A
:1023E0008A839B83E5CF2BED3FE049E450EC60917D
:1023F00020047091210480912204909123040E9472
:102400001C2E87FF0FC02BED3FE049EC50E46881A4
:1024100079818A819B810E94562D688379838A8382
:102420009B83E1CFDF91CF91FF90EF90DF90CF9032
:102430000895CF93DF93EC0187E493E00E94080DA9
:1024400084E193E00E94080D109220041092210470
:102450001092220410922304109224041092250456
:102460001092260410922704109228041092290436
:1024700010922A0410922B0469EC71E0CE010E94A4
:10248000E705882379F069EC71E0CE010E947E1B9C
:102490000E94261A609328047093290480932A04CA
:1024A00090932B046BEC71E0CE010E94E70588232A
:1024B00079F06BEC71E0CE010E947E1B0E94261A1F
:1024C000609324047093250480932604909327043A
:1024D0006DEC71E0CE010E94E7058823A9F06DEC58
:1024E00071E0CE010E947E1B0E94261A25E33AEF7E
:1024F0004EE85CE30E94E82F60932004709321046F
:10250000809322049093230480E294E00E94D111EE
:102510002091A9033091AA034091AB035091AC03E1
:1025200060912004709121048091220490912304F1
:102530000E94562D60931C0470931D0480931E040A
:1025400090931F04DF91CF9108954F925F926F9205
:102550007F928F929F92AF92BF92CF92DF92EF9233
:10256000FF921F93CF93DF93CDB7DEB72C970FB6B3
:10257000F894DEBF0FBECDBFE0914A0380914B03BC
:10258000F0E08823B1F0EE0FFF1FEE0FFF1FEF56B4
:10259000FC4F80819181A281B38122273327A90139
:1025A000281B390B4A0B5B0B2D833E834F835887C7
:1025B00011C09F01220F331F220F331F2F563C4F94
:1025C000D9018D919D910D90BC91A02D8D839E83FD
:1025D000AF83B887E091170380911803F0E0882358
:1025E000B1F0EE0FFF1FEE0FFF1FEF56FC4F808183
:1025F0009181A281B38122273327A901281B390B9E
:102600004A0B5B0B29873A874B875C8711C09F0178
:10261000220F331F220F331F2F563C4FD9018D91AC
:102620009D910D90BC91A02D89879A87AB87BC871F
:10263000C0908D03D0908E03EE24D7FCE094FE2C46
:102640008091500390915103A0915203B091530394
:102650002D813E814F815885281B390B4A0B5B0B1E
:10266000A8EEB3E00E940031A70196010E94E1307C
:10267000CA01B9010E94BE2E4B015C0180911D036D
:1026800090911E03A0911F03B091200329853A85E4
:102690004B855C85281B390B4A0B5B0BA8EEB3E01E
:1026A0000E940031A70196010E94E130CA01B901E0
:1026B0000E94BE2E2B013C0120911C0430911D0470
:1026C00040911E0450911F046091A9037091AA03C8
:1026D0008091AB039091AC030E94552D69837A835E
:1026E0008B839C8321EE3EE245E652E40E94E82F74
:1026F0006B017C0120E030E0A9010E94DD2F18165B
:102700006CF411E02DEC3CEC4CEC5DE3C701B60140
:102710000E94DD2F181674F010E00CC02DEC3CEC7C
:102720004CEC5DEBC701B6010E941C2E182F111F47
:102730001127111FA3019201C501B4010E94562D5A
:1027400020E030E040E05FE30E94E82F6B017C0175
:1027500020E030E0A9010E94DD2F18165CF420E093
:1027600030E040E85FE3C701B6010E94DD2F181694
:1027700054F00AC020E030E040E85FEBC701B6014A
:102780000E941C2E87FD11E080902004909021046F
:10279000A0902204B090230420E030E040E05FE30A
:1027A00069817A818B819C810E94E82F9B01AC0119
:1027B000C501B4010E94562D2B013C010E944B30F3
:1027C0009B01AC01C701B6010E94E82F9B01AC013F
:1027D000609128047091290480912A0490912B041F
:1027E0000E94562D609328047093290480932A0434
:1027F00090932B04C301B2010E94202E9B01AC01D7
:10280000C701B6010E94E82F9B01AC01609124042E
:102810007091250480912604909127040E94562DE2
:1028200060932404709325048093260490932704D6
:1028300029813A814B815C81C501B4010E94562DEA
:1028400060932004709321048093220490932304C6
:1028500080E294E00E94D1114091A9035091AA0313
:102860006091AB037091AC0340931C0450931D0422
:1028700060931E0470931F042D813E814F81588503
:1028800020935003309351034093520350935303CA
:1028900089859A85AB85BC8580931D0390931E0323
:1028A000A0931F03B0932003812F2C960FB6F894AA
:1028B000DEBF0FBECDBFDF91CF911F91FF90EF9094
:1028C000DF90CF90BF90AF909F908F907F906F9050
:1028D0005F904F900895CF93DF9300D000D0CDB795
:1028E000DEB77A8369831C821B82BE016F5F7F4FD4
:1028F0000E94191B8B819C810F900F900F900F905D
:10290000DF91CF910895CF92DF92EF92FF920F93D4
:102910001F93CF93DF93CDB7DEB7C454D1090FB661
:10292000F894DEBF0FBECDBF87E392E09A83898320
:1029300025961FAE1EAE2597CE0101960E94DE1988
:102940008C016FEC71E00E947E1B61ED71E00E94D2
:102950004F1A20E030E04AE754E460912804709177
:10296000290480912A0490912B040E94232E6B014C
:102970007C0169EC71E0C8010E947E1B24E0B70174
:10298000A6010E945B1A20E030E04AE754E460911F
:1029900024047091250480912604909127040E94BC
:1029A000232E6B017C016BEC71E0C8010E947E1B41
:1029B00024E0B701A6010E945B1A21EE3EE245E643
:1029C00052E460912004709121048091220490913E
:1029D00023040E94E82F6B017C016DEC71E0C801BB
:1029E0000E947E1B21E0B701A6010E945B1A67E0EE
:1029F00075E0C8010E946B1487E095E00E943B2BB4
:102A0000CC5BDF4F0FB6F894DEBF0FBECDBFDF91BA
:102A1000CF911F910F91FF90EF90DF90CF9008958D
:102A2000CF92DF92EF92FF920F931F93CF93DF939A
:102A3000CDB7DEB7C458D1090FB6F894DEBF0FBECC
:102A4000CDBF8DE392E09A838983CD57DF4F198202
:102A50001882C358D040CE0101960E94DE198C0125
:102A60006FEC71E00E947E1B66ED71E00E944F1AD0
:102A7000C0907203D0907303E0907403F0907503DC
:102A800060EE71E0C8010E947E1B22E0B701A60142
:102A90000E945B1AC0903F03D0904003E090410336
:102AA000F090420363EE71E0C8010E947E1B22E0B9
:102AB000B701A6010E945B1AC0907603D0907703FD
:102AC000E0907803F090790366EE71E0C8010E940F
:102AD0007E1B22E0B701A6010E945B1AC09043034F
:102AE000D0904403E0904503F090460369EE71E016
:102AF000C8010E947E1B22E0B701A6010E945B1A5A
:102B0000E0914A0380914B03F0E0EE0FFF1FEE0FC0
:102B1000FF1FEF56FC4FC080D180E280F3808823F6
:102B200041F0F094E094D094C094C11CD11CE11CFD
:102B3000F11C6CEE71E0C8010E947E1BB701A6017A
:102B40000E946A1AE091170380911803F0E0EE0FDB
:102B5000FF1FEE0FFF1FEF56FC4FC080D180E280B9
:102B6000F380882341F0F094E094D094C094C11C89
:102B7000D11CE11CF11C60EF71E0C8010E947E1BBA
:102B8000B701A6010E946A1A67E075E0C8010E94B9
:102B90006B1487E095E00E943B2BCC57DF4F0FB6BC
:102BA000F894DEBF0FBECDBFDF91CF911F910F9183
:102BB000FF90EF90DF90CF900895FF920F931F93B7
:102BC000CF93DF93CDB7DEB7C454D1090FB6F894D5
:102BD000DEBF0FBECDBFF82E27E332E03A83298354
:102BE00025961FAE1EAE2597CE0101960E94DE19D6
:102BF0008C016FEC71E00E947E1B64EF71E00E941B
:102C00004F1A6091430170914401C8010E947E1BDC
:102C10004F2D50E060E070E00E946A1A67E075E0B6
:102C2000C8010E946B1487E095E00E943B2BCC5BAF
:102C3000DF4F0FB6F894DEBF0FBECDBFDF91CF914F
:102C40001F910F91FF900895FF920F931F93CF93C1
:102C5000DF93CDB7DEB7C454D1090FB6F894DEBF09
:102C60000FBECDBFF82E27E332E03A8329832596A5
:102C70001FAE1EAE2597CE0101960E94DE198C0173
:102C80006FEC71E00E947E1B6BEF71E00E944F1AA7
:102C90006091430170914401C8010E947E1B4F2D39
:102CA00050E060E070E00E946A1A67E075E0C801D9
:102CB0000E946B1487E095E00E943B2BCC5BDF4FBA
:102CC0000FB6F894DEBF0FBECDBFDF91CF911F913D
:102CD0000F91FF900895EF920F931F9380E090E083
:102CE000A0E8BFE38093C1039093C203A093C30302
:102CF000B093C4031092C5031092C6031092C70389
:102D00001092C8031092C9031092CA031092CB0309
:102D10001092CC031092CD031092CE031092CF03E9
:102D20001092D0031092B5031092B6031092B7031D
:102D30001092B8031092B9031092BA031092BB0319
:102D40001092BC031092BD031092BE031092BF03F9
:102D50001092C00382EC91E09093900380938F03D4
:102D60008AE793E00E947022EE24E39400E010E0F2
:102D700020E130E04BE050E065E070E087E493E074
:102D80000E944B0DE12C01E010E02FE030E041E12A
:102D900050E066E070E084E193E00E944B0D1F91EB
:102DA0000F91EF9008950F931F93CF93DF93CDB7BB
:102DB000DEB7C458D1090FB6F894DEBF0FBECDBF41
:102DC00087E095E00E94FA28892B09F44DC087E03E
:102DD00095E00E94132920911203309113038A3049
:102DE00089F5C90101969093130380931203F901A9
:102DF000EE56FD4F10828DE392E09A838983CD5782
:102E0000DF4F19821882C358D0404AE062E972E06D
:102E1000CE0101960E94381D8C0166E072E00E948E
:102E2000E705882321F0C8010E94C81006C061E0B0
:102E300072E087E095E00E944F2B109213031092EE
:102E4000120312C0A9014F5F5F4F509313034093C9
:102E50001203F901EE56FD4F80834038510520F0F2
:102E600084E090E00E94FF10CC57DF4F0FB6F8943B
:102E7000DEBF0FBECDBFDF91CF911F910F9108959F
:102E80000F931F93CF93DF93209128013091290155
:102E900040E050E06091160470911704809118048E
:102EA000909119040E94BF30672B682B692BA1F405
:102EB0000E94482700918D0210918E0220918F026E
:102EC00030919002061717072807390728F48091D8
:102ED0008C02882309F4DCC00E94D3168091320151
:102EE0008823E9F101E010E020E030E080912A0140
:102EF00090912B01892B19F000E010E0980140918E
:102F0000160450911704609118047091190440231D
:102F1000512362237323452B462B472B01F18091CC
:102F20009102811119C089B182958170C82F30E05A
:102F3000D32F80910A0190910B01C817D90779F01E
:102F4000D0930B01C0930A0183E0809391028C2FF0
:102F500081700E94DD1503C08150809391028091A1
:102F600033018823B1F020912E0130912F0140E0F0
:102F700050E06091160470911704809118049091AC
:102F800019040E94BF30672B682B692B11F40E9433
:102F90003810209130013091310140E050E06091D3
:102FA00016047091170480911804909119040E94DE
:102FB000BF30672B682B692B49F40E94A512882328
:102FC00029F080911A0481110E94831420912C0110
:102FD00030912D0140E050E060911604709117048B
:102FE00080911804909119040E94BF30672B682BC0
:102FF000692B81F48DE00E94D12861E0892B09F0D2
:1030000060E08DE00E949B2880911B04882311F0D2
:103010001D9977C080913401882311F14F9B20C006
:103020008AE793E00E94D022809315048AE793E018
:103030000E942B2390931204809311042091150475
:1030400024FD04C08115944009F05EC06AE072E07E
:1030500087E095E00E944F2B8AE793E00E94F022E0
:103060008091160490911704A0911804B09119044E
:103070000196A11DB11D8093160490931704A0938F
:103080001804B0931904DF91CF911F910F91089507
:1030900011E010938C0287E493E00E94080D84E114
:1030A00093E00E94080D10922004109221041092C7
:1030B00022041092230410922404109225041092EA
:1030C00026041092270410922804109229041092CA
:1030D0002A0410922B044091A9035091AA036091F5
:1030E000AB037091AC0340931C0450931D04609398
:1030F0001E0470931F0410931A0481E00E9424168A
:10310000EBCE0E94101586CF21FFA6CF409114046C
:1031100061ED73E08AE793E00E94472341ED53E0BD
:1031200061EC73E08AE793E00E94D20941EC53E03E
:1031300065EB73E08AE793E00E94410A25EB33E0F8
:1031400041EC53E069EA73E08AE793E00E940D0BDB
:1031500083CFCF93DF93EC0188819981DC01ED91DE
:10316000FC910190F081E02D09952A813B81280F87
:10317000391F3B832A83DF91CF910895DB01ED91C5
:10318000FC9111970190F081E02DBC01CD010994D3
:103190000F931F93CF93DF938C01F801C281D381EA
:1031A0008881992787FD90950E94A835892B29F061
:1031B0002196F801D383C283F0CFDF91CF911F9185
:1031C0000F9108950F931F93CF93DF931F92CDB765
:1031D000DEB78C0169830E94C818D8011296ED9160
:1031E000FC9113978081698186130AC031961396EA
:1031F000FC93EE931297C8010E94C81881E001C0A9
:1032000080E00F90DF91CF911F910F910895FB0106
:103210002191BF01222379F0DC011296ED91FC91FE
:1032200013973081321307C03196DC011396FC935B
:10323000EE931297ECCF81E0211180E00895BF92C8
:10324000CF92DF92EF92FF920F931F93CF93DF9372
:103250007C01EB01009771F46FE372E0CE01DF9126
:10326000CF911F910F91FF90EF90DF90CF90BF9083
:103270000C94322BE881F9810190F081E02D62E21B
:10328000CE0109958C01F70161917F01662351F010
:10329000EFE4F2E0B080BB2079F191819617B1F0B4
:1032A0003296F8CFE881F9810190F081E02D62E259
:1032B000CE010995800F911FDF91CF911F910F9142
:1032C000FF90EF90DF90CF90BF900895E881F98153
:1032D0000190F081E02D6CE5CE0109956C01E8814B
:1032E000F9810190F081E02D6B2DCE0109958C0DB7
:1032F0009D1D080F191FC7CFE881F9810190F0814A
:10330000E02DCE010995F5CFCF93FC0150815232CB
:1033100029F0573219F080E090E023C09C012F5F24
:103320003F4FD901F901CF0101964081442399F320
:10333000451791F04C3569F401964181E3E5F2E0DF
:10334000C081CC2331F0C41302C0418102C0329647
:10335000F7CF4D93FC01E7CF1C92FB019183808353
:10336000C901CF910895DC011296ED91FC9113975C
:10337000309731F06115710531F4CF01029608954F
:103380008CE294E00895615071090190F081E02D84
:10339000EFCFCF93DF93EC01BC0184E090E00E947B
:1033A000BE18FC01009729F0D183C08313821282DA
:1033B00002C086E394E0DF91CF910895CF93DF932D
:1033C000EC01BC0184E090E00E94BE18FC01009773
:1033D00029F0D183C0831382128202C082E394E079
:1033E000DF91CF9108950F931F93CF93DF938B01BC
:1033F000FC01C281D381209759F0B8018A819B8159
:103400000E94DE35892B39F00990D881C02DF3CF89
:1034100080E090E001C0CE01DF91CF911F910F912C
:1034200008950E94F319009711F0049608958CE214
:1034300094E00895FC01208131812530310519F493
:1034400082819381089580E090E00895FC012081BD
:103450003181273031052CF062817381848195811F
:10346000089560E070E0CB010895FC012081318176
:103470002630310529F46281738184819581089514
:1034800060E070E0CB010895FC0180819181892B7F
:1034900029F084E090E09183808362830895FC01A9
:1034A00080819181892B31F085E090E09183808348
:1034B000738362830895FC0180819181892B49F097
:1034C00030E0295F3F4F31832083428353836483FD
:1034D00075830895FC0180819181892B41F086E0FC
:1034E00090E091838083428353836483758308953E
:1034F000FC0180819181892B31F082E090E0918301
:103500008083738362830895FC0180819181892B7C
:1035100031F083E090E09183808373836283089528
:10352000FC01208131812230310521F48281938197
:103530000C94B3198CE294E00895CF93DF93FC01CF
:10354000EB01208131812230310531F48281938178
:10355000DF91CF910C94F31A2330310531F482813D
:103560009381DF91CF910C94191B2530310539F4EB
:1035700068817981828193810E941F192BC0263036
:10358000310559F442815381648175812AE030E02C
:10359000888199810E94BA2B1DC02430310569F4BD
:1035A0008281882319F064E472E002C069E472E069
:1035B000888199810E94322B0DC02730310584F01B
:1035C000275030E0428153816481758188819981DF
:1035D0000E940B2D2A813B81280F391F3B832A83B0
:1035E000DF91CF9108950F931F93CF93DF93EC0159
:1035F0008B016BE5C8010E94A9180A80DB81C02DF0
:10360000209779F0B801CE0102960E949D1A099088
:10361000D881C02D209729F06CE2C8010E94A9181A
:10362000F1CF6DE5C801DF91CF911F910F910C94FF
:10363000A9180F931F93CF93DF938C01EB016BE7D6
:10364000CE010E94A918F80102811381011511050C
:1036500009F168817981F801828193810E941F19A3
:103660002A813B81280F391F3B832A836AE3CE01DD
:103670000E94A918BE01C80104960E949D1AF80173
:10368000008111810115110529F06CE2CE010E9423
:10369000A918DFCF6DE7CE01DF91CF911F910F9178
:1036A0000C94A918FC01608171816115710579F094
:1036B0008AE090E00E94BE18FC01009741F0118260
:1036C000108281E090E095838483CF01089580E0AB
:1036D00090E00895DC011296ED91FC9113973097DC
:1036E00049F080819181009711F0FC01FACF71833C
:1036F00060830895FC01738362830895EF92FF92C3
:103700000F931F93CF93DF938C017B010E94F319DA
:10371000EC01009761F4C8010E94521BEC01009774
:1037200049F0FB82EA82BC01C8010E946A1BCE01FB
:10373000049602C08CE294E0DF91CF911F910F912B
:10374000FF90EF900895FC01608171816115710512
:1037500079F088E090E00E94BE18FC01009741F0EB
:103760001182108281E090E093838283CF010895DB
:1037700080E090E00895DC011296ED91FC911397A2
:10378000309749F080819181009711F0FC01FACFC8
:10379000718360830895FC017383628308950F939E
:1037A0001F93CF93DF938C010E94A31BEC01009722
:1037B00039F0BC01C8010E94BB1BCE01029602C0B9
:1037C0008CE294E0DF91CF911F910F910895EF92D9
:1037D000FF920F931F93CF93DF93EC018881998120
:1037E0000E94C9197C016BE5CE010E94E21881118B
:1037F00003C086E394E022C06DE5CE010E94E2188A
:1038000081111BC0C7010E94CF1B8C01BC01CE01DE
:103810000E94251CF801208131812230310548F3B6
:103820006DE5CE010E94E218811107C06CE2CE0165
:103830000E94E2188111E6CFDCCFC701DF91CF9162
:103840001F910F91FF90EF900895EF92FF920F93C9
:103850001F93CF93DF9300D0CDB7DEB78C017B01F0
:10386000DC0114968C911497882309F4A3C081502D
:1038700014968C93C8010E94C818F8018281938124
:10388000DC012C912A337CF420330CF03FC027322A
:1038900009F461C024F4223209F45DC065C02D52E0
:1038A0002230A0F161C02E3609F442C02CF42B3531
:1038B00081F02636B1F058C0243799F02B3709F043
:1038C00053C0C8010E94E31CBC01C7010E94841AB6
:1038D0004BC0C8010E94E71BBC01C7010E94781AB7
:1038E00043C064E472E0C8010E940719882311F004
:1038F00061E008C069E472E0C8010E9407198823EA
:1039000009F160E0C7010E94441A2EC04AE050E06D
:10391000BE016F5F7F4F0E947434AB01BC01E9812F
:10392000FA8180818E3229F18F7D8534D1F521C0D5
:103930006FE372E0C8010E940719882319F060E064
:1039400070E00FC086E0ECE2F4E0D70101900D9248
:103950008A95E1F709C0B8016E5F7F4F0E94841914
:10396000BC01C7010E944F1AF80184818F5F8483D4
:1039700021C0B8016E5F7F4FD80112968D919C9146
:1039800013970E941133AB01BC01F80122813381EE
:1039900089819A81281B390B2150C7010E945B1A2B
:1039A000E3CFD8011396FC93EE931297C7010E94C0
:1039B0006A1ADACF0F900F90DF91CF911F910F917C
:1039C000FF90EF900895CF92DF92EF92FF920F93C6
:1039D0001F93CF93DF93EC01888199810E94DE19B8
:1039E0006C016BE7CE010E94E218811103C082E3F3
:1039F00094E035C06DE7CE010E94E21881112EC01F
:103A00007E0182E0E80EF11CB7018A819B810E9451
:103A100084198C01009759F36AE3CE010E94E218E1
:103A2000882329F3B801C6010E947E1B8C01BC01CA
:103A3000CE010E94251CF801208131812230310500
:103A4000B0F26DE7CE010E94E218811107C06CE26E
:103A5000CE010E94E2188111D7CFC9CFC601DF91F4
:103A6000CF911F910F91FF90EF90DF90CF9008952D
:103A7000CF93DF9300D000D01F92CDB7DEB79A83EB
:103A800089837C836B834D83CE0101960E94E31C66
:103A90000F900F900F900F900F90DF91CF9108959E
:103AA00010923704109236041092390410923804A0
:103AB00010923304109232041092350410923404A0
:103AC00010922D0410922C04089580916A0490E0C5
:103AD00020916B04821B9109089520916B048091C1
:103AE0006A04281750F4E22FF0E0E459FB4F80817C
:103AF00090E02F5F20936B0408958FEF9FEF089560
:103B0000E0916B0480916A04E81730F4F0E0E45926
:103B1000FB4F808190E008958FEF9FEF0895089507
:103B2000CF92DF92EF92FF920F931F93CF93DF9389
:103B30007C01CB018A0120914604222389F0EB010C
:103B40006B01C40ED51ECC15DD0569F06991D70156
:103B5000ED91FC910190F081E02DC7010995F3CF23
:103B6000642F0E94EF1EC801DF91CF911F910F912A
:103B7000FF90EF90DF90CF900895CF93DF931F9247
:103B8000CDB7DEB76983209146042223D1F020917E
:103B90004704203240F021E030E0FC0133832283EF
:103BA00080E090E015C080914804E82FF0E0E75BEA
:103BB000FB4F998190838F5F8093480480934704E3
:103BC00005C061E0CE0101960E94EF1E81E090E009
:103BD0000F90DF91CF910895FC011382128248EE7D
:103BE00053E060E070E0448355836683778382E628
:103BF00092E091838083089510926B0410926A047E
:103C000010924804109247040C943A1E862F4132B9
:103C100008F040E26CE674E00E94581E10926B04BB
:103C200080936A04089521E00C94061E81E080933D
:103C30004604609369041092480410924704089562
:103C40000F93062F21E04091470469E474E08091CE
:103C500069040E949C1E109248041092470410921E
:103C600046040F91089561E00C94201E8AE394E0CD
:103C70000C94EC1D1092F90481E08093F7041092EB
:103C8000F60461E082E10E949B2861E083E10E94EA
:103C90009B28E9EBF0E080818E7F808380818D7F9F
:103CA000808388E48093B80085E48093BC00089505
:103CB000413208F03FC09091F9049111FCCF91E09E
:103CC0009093F9042093F7042FEF20938C04109223
:103CD000D104240F2093D0049093F8049091F80419
:103CE000880F892B8093F8048091F604813041F489
:103CF0001092F6048091F8048093BB0085EC01C01B
:103D000085EE8093BC008091F9048130E1F38091CD
:103D1000D104841710F44091D10422ED34E0FB016A
:103D2000D9018A2F821B841718F48D918193F9CFC2
:103D3000842F089580E008950F93413208F046C023
:103D40009091F9049111FCCF92E09093F9040093C3
:103D5000F7049FEF90938C041092D1044093D00409
:103D6000FB0162ED74E0DB019A2F961B941718F4A7
:103D700091919D93F9CF1092F8049091F804880FD7
:103D8000892B8093F8048091F604813041F41092DD
:103D9000F6048091F8048093BB0085EC01C085EEA9
:103DA0008093BC00222321F08091F9048230E1F35A
:103DB00080918C048F3F61F080918C04803251F0AF
:103DC00080918C04803341F483E007C081E005C01A
:103DD00080E003C082E001C084E00F910895613269
:103DE00098F42091F904243089F46093AE04FC0126
:103DF00080EB94E0DC012A2F281B261718F4219170
:103E00002D93F9CF80E0089581E0089582E0089530
:103E100085ED8093BC008091BC0084FDFCCF1092A6
:103E2000F904089585EC8093BC001092F90408957C
:103E30001F920F920FB60F9211242F933F934F931F
:103E40005F936F937F938F939F93AF93BF93EF9302
:103E5000FF938091B900887F803609F49CC068F593
:103E6000883209F45BC090F4803109F454C038F40E
:103E7000882309F4F5C0883009F44DC0F5C08831B5
:103E800009F44CC0803209F45DC0EEC0803409F4FE
:103E900068C048F4803309F455C0883309F0E4C0A1
:103EA00080938C04A8C0803509F44FC0883509F48C
:103EB0005DC0883409F0D8C0D5C0883909F4C6C0BF
:103EC000A8F4883709F467C038F4883609F463C069
:103ED000803709F460C0C8C0883809F4B7C0803999
:103EE00009F45FC0803809F0BFC05BC0803B09F4B3
:103EF00085C038F4803A09F466C0883A09F47EC077
:103F0000B3C0803C09F4A6C0883C09F4A3C0883B38
:103F100009F489C0A9C08091F80410C09091D1041F
:103F20008091D004981770F5E091D10481E08E0F54
:103F30008093D104F0E0EE52FB4F80818093BB0070
:103F400085EC85C080938C048DC0E091D10481E024
:103F50008E0F8093D1048091BB00F0E0EE52FB4FB6
:103F600080839091D1048091D0046DC0E091D10400
:103F700081E08E0F8093D1048091BB00F0E0EE527F
:103F8000FB4F80838091F70481116CC081E08093A6
:103F9000F60484EA60C083E08093F90410928D04F3
:103FA000CFCF80918D04803208F050C0E0918D0415
:103FB00081E08E0F80938D048091BB00F0E0E2578A
:103FC000FB4F8083BDCF80918D04803230F4E0912F
:103FD0008D04F0E0E257FB4F10820E94081F6091B1
:103FE0008D0470E0E091F204F091F3048EE894E027
:103FF000099510928D040E94121F36C084E08093B0
:10400000F9041092AF041092AE04E091F404F09120
:10401000F50409958091AE04811105C081E080937B
:10402000AE041092B004E091AF0481E08E0F809353
:10403000AF04F0E0E055FB4F80818093BB0090918E
:10404000AF048091AE04981708F47ACF85E8809386
:10405000BC000AC085EC8093BC001092F90404C037
:1040600010928C040E94081FFF91EF91BF91AF91B5
:104070009F918F917F916F915F914F913F912F9180
:104080000F900FBE0F901F901895EF92FF920F9315
:104090001F93CF93DF9300D0CDB7DEB7062F142F39
:1040A000682F8AE394E029833A830E94161E602FCA
:1040B0008AE394E00E94BD1D2981022FE22E3A81FD
:1040C000F32E8E2D801B811740F4F70161917F0143
:1040D0008AE394E00E94BD1DF4CF8AE394E00E943D
:1040E000331E91E0811190E0892F0F900F90DF91A6
:1040F000CF911F910F91FF90EF900895CF93DF9391
:104100001F92CDB7DEB749839E012F5F3F4F41E03D
:104110000E9445200F90DF91CF910895DF92EF929A
:10412000FF920F931F93CF93DF93C62F042F790134
:10413000682F8AE394E00E94161E6C2F8AE394E0B5
:104140000E94BD1D10E0000F111FD12CCD2DD0E01D
:10415000C017D1078CF4CC0FDD1FCE0DDF1D698198
:104160008AE394E00E94BD1D68818AE394E00E9486
:10417000BD1DD394D394EACF8AE394E00E94331E0A
:1041800091E0811190E0892FDF91CF911F910F91E4
:10419000FF90EF90DF900895CF93DF9300D0CDB7DD
:1041A000DEB75A8349839E012F5F3F4F41E00E9453
:1041B0008E200F900F90DF91CF9108953F924F92F4
:1041C0005F926F927F928F929F92AF92BF92CF92A7
:1041D000DF92EF92FF920F931F93CF93DF9300D064
:1041E00000D000D0CDB7DEB7682E562E742E3A839D
:1041F00029830E9448276B017C01312C412C872D9B
:1042000090E09C838B834801A12CB12C3714B0F52E
:10421000662D8AE394E00E94161E652D8AE394E0E1
:104220000E94BD1D8AE394E00E94331E662D8AE33E
:1042300094E00E94161E4B815C8143195109413262
:10424000510514F040E250E0662D8AE394E00E94AC
:10425000131E8AE394E00E94651D892B59F1011514
:10426000110579F10E9448276C197D098E099F0973
:10427000681579058A059B0520F11CC001151105FB
:1042800089F10E9448276C197D098E099F0920E059
:1042900030E0601771078207930720F1872D90E0C7
:1042A000242D332727FD309528173907DCF44424C3
:1042B0004A9418C0872D90E2971508F480E2380ED2
:1042C000A5CFE981FA81E40DF11D47FCFA95FE8343
:1042D000ED838AE394E00E946D1DED81FE81808371
:1042E0004394B7CF842D26960FB6F894DEBF0FBE49
:1042F000CDBFDF91CF911F910F91FF90EF90DF9095
:10430000CF90BF90AF909F908F907F906F905F9075
:104310004F903F9008950F931F9389019A0141E0B8
:104320000E94DE201F910F910895DF92EF92FF927D
:104330000F931F93CF93DF931F92CDB7DEB7D42E89
:1043400079019801AE014F5F5F4F0E948B2161E0C0
:1043500070E001C0660FDA94EAF799819623F701BD
:1043600090830F90DF91CF911F910F91FF90EF906D
:10437000DF900895CF92DF92EF92FF920F931F93F9
:10438000CF93DF931F92CDB7DEB7C42ED22E970105
:10439000AE014F5F5F4F0E948B218823F1F04C2DBF
:1043A00050E04D1951094F5F5F4F61E070E002C06E
:1043B000660F771FDA94E2F761507109042E01C08D
:1043C000660F0A94EAF72981262330E002C035956A
:1043D00027954A95E2F7F80120830F90DF91CF915E
:1043E0001F910F91FF90EF90DF90CF900895EF9283
:1043F000FF920F931F93CF93DF931F92CDB7DEB73A
:10440000182F062FF42EE22E2091450130914601FF
:10441000AE014F5F5F4F0E948B21898121E030E028
:104420000F2C01C0220F0A94EAF7EE2019F0482F52
:10443000422B03C0422F409548234983602F812F90
:104440000E947E200F90DF91CF911F910F91FF90DE
:10445000EF900895DF92EF92FF920F931F93CF9307
:10446000DF931F92CDB7DEB7F82EE62ED42E122F93
:104470002091450130914601AE014F5F5F4F0E9490
:104480008B21882319F14D2D50E0411B51094F5FBD
:104490005F4FE1E0F0E002C0EE0FFF1F1A95E2F778
:1044A0003197042E01C0EE0F0A94EAF701C0000F05
:1044B0004A95EAF74E2F409589814823E0234E2BF9
:1044C00049836E2D8F2D0E947E2001C080E00F90C9
:1044D000DF91CF911F910F91FF90EF90DF900895A2
:1044E00028E6FC0120830895462F69E1FC018081C4
:1044F0000C947E200F93062F23E045E06AE1FC0137
:1045000080810E942A220F9108950F93062F23E0A5
:1045100042E06AE1FC0180810E942A220F91089505
:104520000F93062F22E044E06BE1FC0180810E94A2
:104530002A220F9108950F93062F22E044E06CE1A8
:10454000FC0180810E942A220F910895462F6FE17D
:10455000FC0180810C947E20462F60E2FC0180816A
:104560000C947E20462F61E2FC0180810C947E2019
:10457000462F62E2FC0180810C947E20643048F476
:10458000262F220F260F2B5D622FFC0180810C94B9
:104590007E200895462F68E3FC0180810C947E20E4
:1045A000CF93DF93EC012091450130914601AC019E
:1045B0004F5F5F4F6AE388810E948B218981DF9181
:1045C000CF910895262F46E06AE6FC0180810C9485
:1045D000F721262F45E06AE6FC0180810C94F72143
:1045E00021E042E06AE6FC0180810C94F72121E0A1
:1045F00041E06AE6FC0180810C94F72121E047E06C
:104600006BE6FC0180810C94F721262F46E06BE6D7
:10461000FC0180810C94F7210F93062F23E042E0E8
:104620006BE6FC0180810E942A220F910895CF93AE
:10463000DF93EC0161E00E940C2360E0CE010E9458
:10464000902260E0CE010E949B2260E0CE01DF91CB
:10465000CF910C9405230F931F93CF93DF93EC011D
:1046600000914501109146019C012F5F3F4F42E0B0
:1046700062E788810E94DE20898190E0982F882758
:104680002A81822BDF91CF911F910F9108950F9373
:104690001F939B01009145011091460164E7FC01C5
:1046A00080810E94DE201F910F910895EF92FF926A
:1046B0000F931F93CF93DF93EC01E0904501F090AF
:1046C00046018C010F5F1F4F26E046E065E78881B9
:1046D0000E94BA218981DF91CF911F910F91FF90A4
:1046E000EF9008950E94562391E0843309F090E002
:1046F000892F08950F931F93CF93DF93EC010091BF
:104700004501109146019C012F5F3F4F40E060E062
:1047100088810E9495218981DF91CF911F910F910E
:104720000895262F40E060E0FC0180810C94F72181
:10473000EF92FF920F931F93CF93DF93EC01E090E2
:104740004501F09046018C010F5F1F4F26E046E0C7
:1047500060E088810E94BA218981DF91CF911F9109
:104760000F91FF90EF9008950F93062F26E046E0FB
:1047700060E0FC0180810E942A220F910895EF924F
:10478000FF920F931F93CF93DF93EC01E0904501CD
:10479000F09046018C010F5F1F4F26E046E061E07C
:1047A00088810E94BA218981DF91CF911F910F9159
:1047B000FF90EF9008950F93062F26E046E061E00A
:1047C000FC0180810E942A220F910895EF92FF92AE
:1047D0000F931F93CF93DF93EC01E0904501F0908E
:1047E00046018C010F5F1F4F26E046E062E08881A2
:1047F0000E94BA218981DF91CF911F910F91FF9083
:10480000EF9008950F93062F26E046E062E0FC014A
:1048100080810E942A220F910895AB0166E0FC017D
:1048200080810C94CC20AB0168E0FC0180810C9469
:10483000CC20AB016AE0FC0180810C94CC20AB0160
:1048400063E1FC0180810C94CC20AB0165E1FC01AB
:1048500080810C94CC20AB0167E1FC0180810C9439
:10486000CC20262F47E06AE6FC0180810C94F721DA
:1048700021E043E06AE6FC0180810C94F7216F712E
:104880002111606241116064462F6DE6FC01808158
:104890000C947E20462F6EE6FC0180810C947E20D5
:1048A000CF93DF93EC012091450130914601AC019B
:1048B0004F5F5F4F6FE688810E948B218981DF9176
:1048C000CF9108955F926F927F928F929F92AF9255
:1048D000BF92CF92DF92EF92FF920F931F93CF93ED
:1048E000DF937C015B016A01622E702E20E040E0C4
:1048F000662D0E943F24602FC7010E944A24C0E019
:10490000D0E0812C99249394CC15DD05A8F5CE0137
:104910004096C816D90618F45C2C5C1A02C0A0E1B7
:104920005A2E252D30E0C40187199109821793076B
:1049300014F4572C519400914501109146019501B2
:104940002C0F3D1F452D6FE6F70180810E94DE2070
:10495000C50DD11D750CCC15DD05B0F6711001C06B
:10496000639420E040E0662DC7010E943F24672D3C
:10497000C7010E944A24C8CFDF91CF911F910F91A8
:10498000FF90EF90DF90CF90BF90AF909F908F906F
:104990007F906F905F9008952F923F924F925F9219
:1049A0006F927F928F929F92AF92BF92CF92DF923F
:1049B000EF92FF920F931F93CF93DF9300D000D01D
:1049C0001F92CDB7DEB79D838C837B836A834A01B8
:1049D000322ED02EE98220E040E0632D0E943F2459
:1049E000602F8C819D810E944A24E980EE2029F06D
:1049F00080E190E00E9420315C01CC2031F080E128
:104A000090E00E942031582E492EE12CF12CE81420
:104A1000F90408F07AC0C70140968816990618F480
:104A2000282C2E1802C010E1212E222D30E080E02B
:104A300091E08D1991098217930714F42D2C21947C
:104A4000EA81FB81EE0DFF1DCC2059F0852DA52DAF
:104A5000B42D9A2F981B921530F494919D93319612
:104A6000F8CF5E2E4F2E252D342D422D6FE6AC81D2
:104A7000BD818C910E944520622C712CB981BB2391
:104A800069F1A114B10451F120E040E0632D8C8163
:104A90009D810E943F246D2D8C819D810E944A241E
:104AA00000914501109146019501422D6FE6EC8180
:104AB000FD8180810E94DE20A301B501852D942D0A
:104AC0000E94C835892B51F0C5010E94B831CC2015
:104AD00049F1852D942D0E94B83124C0E60CF71CB5
:104AE000D20CE814F90408F092CFD11001C033942D
:104AF00020E040E0632D8C819D810E943F246D2D3C
:104B00008C819D810E944A2482CFF981FF2319F074
:104B1000C5010E94B831CC2039F0852D942D0E941A
:104B2000B83102C080E001C081E00F900F900F907B
:104B30000F900F90DF91CF911F910F91FF90EF9009
:104B4000DF90CF90BF90AF909F908F907F906F90AD
:104B50005F904F903F902F900895CF92EF920F93D8
:104B6000CC24C3940E94CC240F91EF90CF90089551
:104B70002F923F924F925F926F927F928F929F926D
:104B8000AF92BF92CF92DF92EF92FF920F931F935B
:104B9000CF93DF9300D01F92CDB7DEB74C017B835C
:104BA0006A833A01D22E222331F088E090E00E94FD
:104BB0002031182FF92E212C312C2614370408F01F
:104BC00051C0EA81FB81E20DF31DC10103965C0136
:104BD000DD20C1F04491F10131968A819B81E80F7B
:104BE000F91F0491F1013296E80FF91F549051100A
:104BF00044C0F4E02F0E311CEA81FB81EA0DFB1D5D
:104C000084910DC0408101815280EA81FB81E80FCF
:104C1000F91F51100DC084E0280E311C80818130B5
:104C2000D1F442E368E3F40180810E947E20C5CF85
:104C30001E2FFF2E452C512CC12CEE24E394242F43
:104C4000A201612F7F2DC4010E94CC2412012A0CE5
:104C50003B1C8111B2CFDD2061F0812F9F2D0E947E
:104C6000B83107C0DD2039F0812F9F2D0E94B83167
:104C700002C080E024C081E022C0252C312CF2E06B
:104C8000F51548F4B101812F9F2D49830E944732C9
:104C9000182FF92E4981812F9F2DA0E0B0E02A81A5
:104CA0003B812A0D3B1DA215B30520F6F901EA0F41
:104CB000FB1F5491FC015193CF011196F4CF0F903B
:104CC0000F900F90DF91CF911F910F91FF90EF9078
:104CD000DF90CF90BF90AF909F908F907F906F901C
:104CE0005F904F903F902F90089521E00C94B8254D
:104CF000462F60E7FC0180810C947E20462F61E7FF
:104D0000FC0180810C947E208230E8F4E82FF0E0F2
:104D1000EE0FFF1FE650FB4F71836083813041F03F
:104D2000809169008C7F842B80936900E89A0895B4
:104D300080916900440F551F440F551F837F842BBA
:104D400080936900E99A08951F920F920FB60F920F
:104D500011242F933F934F935F936F937F938F9380
:104D60009F93AF93BF93EF93FF938091FA04909139
:104D7000FB04892B29F0E091FA04F091FB040995DA
:104D8000FF91EF91BF91AF919F918F917F916F9123
:104D90005F914F913F912F910F900FBE0F901F90F9
:104DA00018951F920F920FB60F9211242F933F93D5
:104DB0004F935F936F937F938F939F93AF93BF9323
:104DC000EF93FF938091FC049091FD04892B29F0CF
:104DD000E091FC04F091FD040995FF91EF91BF91E2
:104DE000AF919F918F917F916F915F914F913F9183
:104DF0002F910F900FBE0F901F9018951F920F923A
:104E00000FB60F9211242F933F938F939F93AF93DD
:104E1000BF938091FF0490910005A0910105B0918E
:104E200002053091FE0423E0230F2D3720F4019674
:104E3000A11DB11D05C026E8230F0296A11DB11DBD
:104E40002093FE048093FF0490930005A093010536
:104E5000B09302058091030590910405A09105058A
:104E6000B09106050196A11DB11D80930305909395
:104E70000405A0930505B0930605BF91AF919F91DE
:104E80008F913F912F910F900FBE0F901F9018950B
:104E90002FB7F8946091FF0470910005809101058F
:104EA000909102052FBF08953FB7F89480910305B4
:104EB00090910405A0910505B091060526B5A89B23
:104EC00005C02F3F19F00196A11DB11D3FBF6627F8
:104ED000782F892F9A2F620F711D811D911D42E03D
:104EE000660F771F881F991F4A95D1F70895CF92B3
:104EF000DF92EF92FF92CF93DF936B017C010E94D0
:104F00005427EB01C114D104E104F10489F00E949B
:104F1000542D0E9454276C1B7D0B683E734090F308
:104F200081E0C81AD108E108F108C851DC4FEACF86
:104F3000DF91CF91FF90EF90DF90CF90089578941C
:104F400084B5826084BD84B5816084BD85B582608E
:104F500085BD85B5816085BDEEE6F0E0808181602C
:104F60008083E1E8F0E0108280818260808380812C
:104F700081608083E0E8F0E0808181608083E1EB04
:104F8000F0E0808184608083E0EBF0E080818160EC
:104F90008083EAE7F0E080818460808380818260A2
:104FA000808380818160808380818068808310928B
:104FB000C10008951F93CF93DF93182FEB0161E099
:104FC0000E946228209711F460E004C0CF3FD10511
:104FD00039F461E0812FDF91CF911F910C949B28D0
:104FE000E12FF0E0E45DF64FE491E330F9F048F4AE
:104FF000E130B9F0E230A1F584B5806284BDC8BD6E
:1050000034C0E730E9F0E83019F1E43049F5809137
:105010008000806280938000D0938B00C0938A00D0
:1050200024C084B5806884BDC7BD1FC08091800046
:10503000806880938000D0938900C093880015C059
:105040008091B00080688093B000C093B3000DC021
:105050008091B00080628093B000C093B40005C01E
:10506000C038D1050CF0B5CFAFCFDF91CF911F91F4
:105070000895833081F028F4813099F08230A1F0D6
:1050800008958730A9F08830B9F08430D1F4809148
:1050900080008F7D03C0809180008F778093800097
:1050A000089584B58F7702C084B58F7D84BD08953F
:1050B0008091B0008F7703C08091B0008F7D809386
:1050C000B0000895CF93DF9390E0FC01E05CF64FD1
:1050D0002491FC01EC5AF64F8491882349F190E029
:1050E000880F991FFC01E458F64FA591B4918E5892
:1050F000964FFC01C591D4919FB7611108C0F894F7
:105100008C91209582238C93888182230AC06230FF
:1051100051F4F8948C91322F309583238C938881AD
:10512000822B888304C0F8948C91822B8C939FBF30
:10513000DF91CF9108950F931F93CF93DF931F9229
:10514000CDB7DEB7282F30E0F901E45DF64F84914A
:10515000F901E05CF64F1491F901EC5AF64F049115
:105160000023C9F0882321F069830E9439286981CE
:10517000E02FF0E0EE0FFF1FEE58F64FA591B4912F
:105180009FB7F8948C91611103C01095812301C0E1
:10519000812B8C939FBF0F90DF91CF911F910F9127
:1051A0000895CF93DF93282F30E0F901E45DF64FA7
:1051B0008491F901E05CF64FD491F901EC5AF64F75
:1051C000C491CC2391F081110E943928EC2FF0E09A
:1051D000EE0FFF1FE859F64FA591B4912C912D23A6
:1051E00081E090E021F480E002C080E090E0DF9177
:1051F000CF910895FC01818D228D90E0805C9F4FBE
:10520000821B91098F7399270895FC01918D828DDE
:10521000981731F0828DE80FF11D858D90E008958B
:105220008FEF9FEF0895FC01918D828D981761F0AB
:10523000828DDF01A80FB11D5D968C91928D9F5FCD
:105240009F73928F90E008958FEF9FEF089587E905
:105250009AE2892B49F080E090E0892B29F00E94A6
:10526000972A81110C9400000895FC01848DDF01C0
:10527000A80FB11DA35ABF4F2C91848D90E00196C9
:105280008F739927848FA689B7892C93A089B189B8
:105290008C9180648C93938D848D981306C00288C2
:1052A000F389E02D80818F7D80830895CF93DF93F4
:1052B000EC01888D8823C9F0EA89FB89808185FD0E
:1052C00005C0A889B9898C9186FD0FC00FB607FC6F
:1052D000F5CF808185FFF2CFA889B9898C9185FFB0
:1052E000EDCFCE010E943529E7CFDF91CF91089510
:1052F000CF92DF92FF920F931F93CF93DF931F9272
:10530000CDB7DEB76C01DC015B969C915B975C9638
:105310008C915C97981307C05096ED91FC91519732
:10532000808185FD32C0F601038D10E00F5F1F4FB5
:105330000F731127F02EF601848DF81211C00FB6ED
:1053400007FCF9CFD6015096ED91FC9151978081E1
:1053500085FFF1CFC60169830E9435296981EBCFB2
:10536000838DE80FF11DE35AFF4F6083D6015B96F2
:105370000C935B975296ED91FC91539780818062DC
:10538000808381E058968C930DC0D6015696ED919E
:10539000FC91579760835096ED91FC9151978081D5
:1053A0008064808381E090E00F90DF91CF911F9126
:1053B0000F91FF90DF90CF900895BF92CF92DF9230
:1053C000EF92FF92CF93DF93EC016A017B01B22E43
:1053D000E889F98982E08083411581EE58076105EB
:1053E0007105A1F060E079E08DE390E0A7019601FE
:1053F0000E94BF3021503109410951095695479506
:1054000037952795211580E1380798F0E889F989C3
:10541000108260E874E88EE190E0A70196010E9496
:10542000BF302150310941095109569547953795AB
:105430002795EC85FD853083EE85FF852083188ECA
:10544000EC89FD89B082EA89FB8980818061808353
:10545000EA89FB89808188608083EA89FB89808171
:1054600080688083EA89FB8980818F7D8083DF91DA
:10547000CF91FF90EF90DF90CF90BF9008951F9253
:105480000F920FB60F9211242F938F939F93EF9348
:10549000FF93E0911705F09118058081E0911D05BB
:1054A000F0911E0582FD12C09081809120058F5FD2
:1054B0008F7320912105821751F0E0912005F0E0D3
:1054C000E95FFA4F958F8093200501C08081FF919D
:1054D000EF919F918F912F910F900FBE0F901F9082
:1054E00018951F920F920FB60F9211242F933F938E
:1054F0004F935F936F937F938F939F93AF93BF93DC
:10550000EF93FF9387E095E00E943529FF91EF919B
:10551000BF91AF919F918F917F916F915F914F91CB
:105520003F912F910F900FBE0F901F90189587E01D
:1055300095E00E94FA2821E0892B09F420E0822FCF
:10554000089510920A051092090588EE93E0A0E0F4
:10555000B0E080930B0590930C05A0930D05B093DC
:105560000E0582E792E0909308058093070585EC8D
:1055700090E0909314058093130584EC90E0909351
:1055800016058093150580EC90E0909318058093A4
:10559000170581EC90E090931A058093190582EC31
:1055A00090E090931C0580931B0586EC90E090930F
:1055B0001E0580931D051092200510922105109262
:1055C000220510922305089508950E949F270E94A6
:1055D000E42A0E942211C7E2D9E20E9440172097D4
:1055E000E1F30E942729F9CFCF92DF92EF92FF9249
:1055F0000F931F93CF93DF936C017A01EB01E60EBB
:10560000F71E00E010E0CE15DF0561F06991D601CC
:10561000ED91FC910190F081E02DC6010995080FF4
:10562000191FF1CFC801DF91CF911F910F91FF900A
:10563000EF90DF90CF9008956115710581F0DB0147
:105640000D900020E9F7AD0141505109461B570B61
:10565000DC01ED91FC910280F381E02D099480E062
:1056600090E008950C941C2BDC01ED91FC910190CD
:10567000F081E02D09940F931F93CF93DF93EC01FA
:105680006DE00E94342B8C016AE0CE010E94342B25
:10569000800F911FDF91CF911F910F9108950F936C
:1056A0001F93CF93DF93EC010E941C2B8C01CE0142
:1056B0000E943B2B800F911FDF91CF911F910F9183
:1056C00008958F929F92AF92BF92CF92DF92EF9206
:1056D000FF920F931F93CF93DF93CDB7DEB7A197C0
:1056E0000FB6F894DEBF0FBECDBF7C01C42EE52FF0
:1056F000CB01D22E19A221E02D1510F02AE0D22ED6
:105700008E010F5D1F4F8D2C912CA12CB12C6C2D77
:105710007E2FA50194010E94BF308C2DD29E80194E
:105720001124015011098A3014F4805D01C0895C94
:10573000F8018083211531054105510521F0C22E64
:10574000E32FCA01E4CFB801C7010E941C2BA19628
:105750000FB6F894DEBF0FBECDBFDF91CF911F9182
:105760000F91FF90EF90DF90CF90BF90AF909F9000
:105770008F900895CF92DF92EF92FF920F931F9335
:10578000CF93DF93EC016A017B012115310579F498
:10579000E881F9810190F081E02D642FDF91CF91B4
:1057A0001F910F91FF90EF90DF90CF9009942A30D6
:1057B0003105E9F477FF1AC06DE20E94342B8C01A9
:1057C00044275527BA014C195D096E097F092AE063
:1057D000CE010E94612B800F911FDF91CF911F910D
:1057E0000F91FF90EF90DF90CF9008952AE0B701DE
:1057F000A601CE01DF91CF911F910F91FF90EF9005
:10580000DF90CF900C94612B9A01AB01662757FD76
:105810006095762F0C94BA2B2115310541F4DC01EB
:10582000ED91FC910190F081E02D642F09940C948E
:10583000612B9A01462F50E060E070E00C940C2C34
:105840004F925F926F927F928F929F92AF92BF9290
:10585000CF92DF92EF92FF920F931F93CF93DF933C
:10586000EC016A017B01B22E9A01AB01C701B601BE
:105870000E949630882319F06EE772E027C0260157
:105880003701E89477F82FEF3FEF4FE75FE7C30169
:10589000B2010E94963081110DC02FEF3FEF4FE70C
:1058A0005FE7C301B2010E941C2E18161CF462E8C7
:1058B00072E00CC02FEF3FEF4FE75FE4C701B60186
:1058C0000E94DD2F1816ACF466E872E0CE01DF917D
:1058D000CF911F910F91FF90EF90DF90CF90BF90ED
:1058E000AF909F908F907F906F905F904F900C94AF
:1058F0001C2B2FEF3FEF4FE75FECC701B6010E9473
:105900001C2E87FDE1CF20E030E0A901C701B601E0
:105910000E941C2E87FF0AC06DE2CE010E94342B2C
:105920008C01F7FAF094F7F8F09402C000E010E070
:10593000A12C60E070E080E09FE3AB1441F020E038
:1059400030E040E251E40E94232EA394F6CF9B0165
:10595000AC01C701B6010E94562D6B017C010E946B
:10596000902E2B013C010E94BC2E9B01AC01C70173
:10597000B6010E94552D6B017C012AE0B301A20102
:10598000CE010E94612B080F191FBB2039F06AE875
:1059900072E0CE010E941C2B080F191F7B2C772070
:1059A00041F120E030E040E251E4C701B6010E943D
:1059B000E82F6B017C010E948B2E4B01AA2497FCDF
:1059C000A094BA2C2AE030E0B501A401CE010E94D7
:1059D000BA2B080F191FC501B4010E94BE2E9B01EE
:1059E000AC01C701B6010E94552D6B017C017A9470
:1059F000D6CFC801DF91CF911F910F91FF90EF900B
:105A0000DF90CF90BF90AF909F908F907F906F90DE
:105A10005F904F9008950C94202C4F925F926F925C
:105A20007F92AF92BF92CF92DF92EF92FF920F934D
:105A30001F93CF93DF93CDB7DEB729013A01621BE5
:105A4000730B840B950B29893A894B895C892A1938
:105A50003B094C095D09298B3A8B4B8B5C8B9B0175
:105A6000AC0169897A898B899C890E94AF30E418DE
:105A7000F50806091709A80197010E94E1302A0DCF
:105A80003B1D4C1D5D1DCA01B901DF91CF911F91D6
:105A90000F91FF90EF90DF90CF90BF90AF907F90ED
:105AA0006F905F904F90089508955058BB27AA2794
:105AB0000ED038C201D230F006D220F031F49F3F30
:105AC00011F41EF4C0C10EF4E095E7FBB6C1E92F56
:105AD0004BD280F3BA17620773078407950718F053
