:100000000C94E5040C9491260C94BE260C940D05DA
:100010000C940D050C940D050C940D050C940D0518
:100020000C940D050C940D050C940D050C940D0508
:100030000C940D050C940D050C940D050C940D05F8
:100040000C94EB260C940D050C942C2A0C945E2A2F
:100050000C940D050C940D050C940D050C940D05D8
:100060000C94051F0C940D05084AD73B3BCE016E3E
:1000700084BCBFFDC12F3D6C74319ABD56833DDAFF
:100080003D00C77F11BED9E4BB4C3E916BAAAABE0E
:10009000000000803F05A84CCDB2D44EB93836A937
:1000A000020C50B9918688083CA6AAAA2ABE000074
:1000B00000803F0001B202FFFF0190040923A13537
:1000C000016A020600016008000000000000000054
:1000D00000600440000000016202000000600400B3
:1000E000400000037B034CCD6C03AB033656760017
:1000F000680402CB47A202180400058BC1010C045E
:1001000000000000037F060CC92C97979703890312
:10011000264666006C022000024004000000000237
:1001200044040000000002480400000000024C04E7
:10013000000000000250040000000002540400000F
:10014000000002580400000000025C0400000000EF
:1001500002BC040000000001EC0400004000037F2A
:10016000060CC92C9797970402030D355D0409040A
:10017000872D353D00A3010000000001078601FE28
:10018000074105F120283038077E01300746019AE3
:10019000074704F1283038076C04F128303802167C
:1001A000020001FB00003E000B00360001000200CF
:1001B00003000000650054FFEF0000FA80000B12FE
:1001C00082000100020000000000000000000000AA
:1001D00000000000280000FFFF4581FFFFFA7200C9
:1001E000000000000003E80000000100017FFFFFA5
:1001F000FE8001001B000000000000000000000065
:10020000000000003E03304000000002CAE3093E47
:10021000800000200000000000000040000000609E
:1002200000000041FF000000000B2A0000165500EE
:10023000002182FD872650FD800000001F00000085
:100240000580000000000000010000000200000026
:10025000030000400000000000046F00026532004F
:10026000005EC04000000000000000000000000030
:10027000000000FB8C6F5DFD5D08D9007C733B00C6
:100280006C12CC3200139D3200D0D63200080040F0
:100290000001F4FFE68079020000000000D0D600E3
:1002A000002710FB000000400000000000000000DC
:1002B000000000000000010000000000000100013B
:1002C0000000000000FA36FFBC308E0005FBF0FF96
:1002D000D95BC8FFD09ABE000010A9FFF41EB2007F
:1002E000CEBBF70000000100000004000200020283
:1002F00000000CFFC280000001800000CF800040A1
:1003000000000000000001000000000000060000E6
:1003100000001400000000000000000000000000C9
:1003200000000000000000000000000000000000CD
:1003300000000000000000000000000000000000BD
:1003400000000000000000033F68B6793528BCC6F5
:100350007ED16C80000000400000000000B26A0006
:10036000000000000000000000000000003FF0005E
:10037000000030000000000000000000000000004D
:10038000000000000000000000000000000000006D
:100390000000000000254D002F706D000005AE002C
:1003A0000C02D00000000000650054FFEF000000C8
:1003B000000000000001000044000000000C0000EC
:1003C000000100000000000065000000540000FF74
:1003D000EF0000000000000000000000000000002E
:1003E00000000040000000000000000000000000CD
:1003F00000000040000000000000000000000000BD
:1004000000000000000001000000020000000000E9
:1004100000000000000000000000000000000000DC
:1004200000000000000000000000000000000000CC
:10043000000000001B0000000000000000000000A1
:1004400000000000000000000000000000000000AC
:10045000000000000000000000000000000000405C
:10046000000000001B000000000000000000000071
:10047000000000000000000000000000000000007C
:10048000000000000000000000000000000000006C
:10049000000000000000000000000000000000005C
:1004A000000000D8DCBAA2F1DEB2B8B4A88191F79E
:1004B0004A907F916AF3F9DBA8F9B0BAA080F2CE36
:1004C00081F3C2F1C1F2C3F3CCA2B280F1C6D880ED
:1004D000BAA7DFDFDFF2A7C3CBC5B6F087A29424AB
:1004E00048703C95406834589B78A2F183922D5512
:1004F0007DD8B1B4B8A1D09180F270F370F27C8055
:10050000A8F101B09887D943D886C988BAA1F20E5C
:10051000B89780F1A9DFDFDFAADFDFDFF2AAC5CD60
:10052000C7A90CC92C97979797F1A989264666B059
:10053000B4BA80ACDEF2CAF1B28C02A9B6980089D6
:100540000E161EB8A9B4992C547CB08AA8963656BB
:1005500076F1B9AFB4B083C0B8A89711B18F98B98C
:10056000AFF0240844106418F1A329557DAF83B57A
:1005700093AFF0002850F1A3869F61A6DADEDFD9A1
:10058000FAA38696DB31A6D9F8DFBAA68FC2C5C713
:10059000B28CC1B8A2DFDFDFA3DFDFDFD8D8F1B8CC
:1005A000A8B286B4980D355DB8AA98B0872D353DB0
:1005B000B2B6BAAF8C96198F9FA70E161EB49AB812
:1005C000AA872C547CB9A3DEDFDFA3B180F2C4CDAF
:1005D000C9F1B8A9B499830D355D89B9A32D557DAD
:1005E000B593A30E161EA92C547CB8B4B0F1978312
:1005F000A81184A50998A383F0DA2408441064188C
:10060000D8F1A529557DA58595021A2E3A565A404E
:1006100048F9F3A3D9F8F098832408441064189794
:1006200082A8F111F098A2240844106418DAF3DECD
:10063000D883A59401D9A302F1A2C3C5C7D8F18478
:1006400092A24DDA2AD84869D92AD86855DA32D820
:100650005071D932D8705DDA3AD85879D93AD87809
:1006600093A34DDA2AD84869D92AD86855DA32D8FE
:100670005071D932D8705DDA3AD85879D93AD878E9
:10068000A88A9AF02850789EF38818F19F1D98A8A0
:10069000D908D8C89F129EF315A8DA1210D8F1AF66
:1006A000C8978734B5B994A421F3D922D8F22DF391
:1006B000D92AD8F235F3D932D881A4606061D961E2
:1006C000D86C6869D969D8747071D971D8B1A384AC
:1006D000193D5DA3831A3E5E931030811011B8B0AE
:1006E000AF8F94F2DA3ED8B49AA88729DAF8D8877F
:1006F0009A35DAF8D8879A3DDAF8D8B1B9A498854E
:10070000022E56A581000C14A397B08AF12DD9288A
:10071000D84DD948D86DD968D8B1840DDA0ED8A390
:100720002983DA2C0ED8A3844983DA2C4C0ED8B84E
:10073000B0A88A9AF520AADADFD8A840AAD0DADED3
:10074000D8A860AADAD0DFD8F19786A8319B06999D
:1007500007AB9728889BF00C201440B8B0B4A88C45
:100760009CF0042851791D301438B282ABD0982CFB
:10077000505078789BF11AB0F08A9CA82951798B57
:100780002951798A2470598B2058718A4469388B91
:100790003940688A6448318B304960A588200971E6
:1007A000584468113964493019F1AC002C547CF07C
:1007B0008CA804285078F1889726A85998AC8C0208
:1007C000264666F0899CA8295179247059446938D5
:1007D000644831A98809205970AB11384069A819BB
:1007E0003148608CA83C415C207C00F187981986D8
:1007F000A86E767EA999882D557D9EB9A38A228AF6
:100800006E8A568A5E9FB183062646660E2E4E6E0F
:100810009DB8AD002C547CF2B18CB499B9A32D5580
:100820007D8191AC38AD3AB58391AC2DD928D84DA6
:10083000D948D86DD968D88C9DAE29D904AED85185
:10084000D904AED879D904D881F39DAD008DAE1905
:1008500081ADD901D8F2AEDA26D88E912983A7D9F5
:10086000ADADADADF32AD8D8F1B0AC89913E5E768E
:10087000F3AC2E2EF1B18C5A9CAC2C2828289CACC1
:100880003018A8988128343C9724A728343C9C240D
:10089000F2B089AC912C4C6C8A9B2DD9D8D851D907
:1008A000D8D879D9D8D8F19E88A331DAD8D8912D63
:1008B000D928D84DD948D86DD968D8B18393353D5A
:1008C0008025DAD8D88569DAD8D8B49381A32834BA
:1008D0003CF3AB8BF8A391B609B4D9ABDEFAB08781
:1008E0009CB9A3DDF1A3A3A3A395F1A3A3A39DF1B9
:1008F000A3A3A3A3F2A3B49080F2A3A3A3A3A3A34F
:10090000A3A3A3A3B2A3A3A3A3A3A3B087B599F161
:10091000A3A3A398F1A3A3A3A397A3A3A3A3F39B28
:10092000A3A3DCB9A7F1262626D8D8FF000000082B
:1009300000020100000304070000000000000000A6
:100940000102040810204080010204081020010266
:100950000408102004040404040404040202020233
:100960000202030303030303000000002300260028
:10097000290000000000250028002B0000000000D6
:10098000240027002A004E414E494E495459494EF1
:1009900046CDCCCC3D0AD7233C17B7D13877CC2BEA
:1009A000329595E6241FB14F0A000020410000C88F
:1009B0004200401C4620BCBE4CCA1B0E5AAEC59D10
:1009C000740058163D1D231E8E2A11241FBECFEF22
:1009D000D8E0DEBFCDBF12E0A0E0B1E0E0E1FCE690
:1009E00002C005900D92A236B107D9F725E0A2E624
:1009F000B2E001C01D92A038B207E1F719E0CAECDD
:100A0000D9E004C02297FE010E94F230C23CD10717
:100A1000C9F70E94D22A0C9406360C9400001F924B
:100A20000F920FB60F9211242F938F939F93AF9332
:100A3000BF9323B1822F817090E04A9B03C0892B22
:100A400019F00EC0892B61F08091670390916803C3
:100A5000A0916903B0916A030196A11DB11D0BC05D
:100A60008091670390916803A0916903B0916A0334
:100A70000197A109B1098093670390936803A0933C
:100A80006903B0936A03BF91AF919F918F912F91AA
:100A90000F900FBE0F901F9018951F920F920FB6D8
:100AA0000F9211242F938F939F93AF93BF9323B1F2
:100AB00021FB882780F990E04B9B03C0892B19F01C
:100AC0000EC0892B61F080916B0390916C03A09113
:100AD0006D03B0916E030196A11DB11D0BC08091F5
:100AE0006B0390916C03A0916D03B0916E0301971D
:100AF000A109B10980936B0390936C03A0936D03DC
:100B0000B0936E03BF91AF919F918F912F910F90F2
:100B10000FBE0F901F9018959C01FC01EE57FF4FE0
:100B200080819181680F791F6138710530F471837C
:100B300060830296820F931F089580E090E00895ED
:100B40009C01FC01EE5BFF4F80819181680F791F52
:100B50006134710530F4718360830296820F931FB4
:100B6000089580E090E00895609143017091440100
:100B70000E946B1B0E94221A21E06130710509F06E
:100B800020E0209332010895609143017091440167
:100B90000E946B1B0E94221A21E06130710509F04E
:100BA00020E02093F0030895609143017091440187
:100BB0000E946B1B0E94221A21E06130710509F02E
:100BC00020E020933301622F8CE00C9488280E944F
:100BD000FE19FC0181E0208131812230310508F4C9
:100BE00080E00895CF93DF93EC0167E471E00E9409
:100BF000E705882311F167E471E0CE010E946B1BC9
:100C000060E070E00E947D1A0E94131A0E94702E0C
:100C1000709364036093630367E471E0CE010E9404
:100C20006B1B61E070E00E947D1A0E94131A0E9403
:100C3000702E70936603609365036CE471E0CE01DF
:100C40000E94E705882309F459C06CE471E0CE01E5
:100C50000E946B1B60E070E00E947D1A0E94131AD4
:100C6000609335017093360180933701909338017A
:100C70006CE471E0CE010E946B1B61E070E00E94A9
:100C80007D1A0E94131A6093390170933A01809380
:100C90003B0190933C016CE471E0CE010E946B1B20
:100CA00062E070E00E947D1A0E94131A60933D0179
:100CB00070933E0180933F01909340011092110385
:100CC0001092120310921303109214031092440313
:100CD00010924503109246031092470310920D03A1
:100CE00010920E0310920F03109210031092400303
:100CF00010924103109242031092430360E571E0A9
:100D0000CE010E94E705882309F45CC060E571E02C
:100D1000CE010E946B1B60E070E00E947D1A0E9471
:100D2000221A80E593E00E94FA2360E571E0CE018B
:100D30000E946B1B61E070E00E947D1A0E94221AE3
:100D400080E593E00E94002460E571E0CE010E94FE
:100D50006B1B62E070E00E947D1A0E94221A80E5FF
:100D600093E00E94062460E571E0CE010E946B1BB7
:100D700063E070E00E947D1A0E94221A80E593E0F1
:100D80000E940C2460E571E0CE010E946B1B64E0C0
:100D900070E00E947D1A0E94221A80E593E00E9472
:100DA000122460E571E0CE010E946B1B65E070E0EB
:100DB0000E947D1A0E94221A80E593E0DF91CF9174
:100DC0000C941824DF91CF910895CF93DF93EC0119
:100DD00060914301709144010E946B1B0E94221A92
:100DE00021E06130710509F020E02093F10360916A
:100DF000410170914201CE010E94E705882369F00C
:100E00006091410170914201CE010E946B1B0E94D2
:100E1000221A70932D0160932C01DF91CF910895D8
:100E20008F929F92AF92BF92CF92EF920F931F93A8
:100E3000CF93DF93CDB7DEB7C059D1090FB6F89481
:100E4000DEBF0FBECDBF5C010E94EB226EE170E001
:100E500080E090E00E94642760E0C5010E94F222D9
:100E600021E041E060E1C5010E942C2466E0C5015B
:100E70000E943724C5010E943D2420E040E060E04C
:100E8000C5010E942C24C5010E946723C5010E9450
:100E90008523182FC5010E94AC23882EC5010E940E
:100EA000D323982E4FE760E0C5010E94AB2260E09B
:100EB000C5010E94D62248E660E0C5010E94AB222F
:100EC000C5010E94E42264E170E080E090E00E94AD
:100ED0006427EE24E39400E020E049E857E063EA69
:100EE00071E0C5010E949A25882309F40EC240ECE6
:100EF00050E063EE70E0C5010E946226882309F489
:100F000006C263E0C5010E94F92262E1C5010E94A8
:100F1000B72264E0C5010E94612261E0C5010E9420
:100F2000672263E0C5010E94722263E0C5010E944E
:100F30007D2263E0C5010E94652660E0C5010E9434
:100F40006B2660E0C5010E947E23612FC5010E94CF
:100F5000A123682DC5010E94C823692DC5010E94E7
:100F6000EF23812C912CF401EC54FF4FE491A1E884
:100F7000B0E0AC0FBD1FA80DB11DEC9381E0880D52
:100F80009FEF891A990AE3E0E81568F7CD57DF4F1C
:100F90004881C358D04050E09A012E5F3F4F90E007
:100FA0002817390704F7C12CEE24E394CE57DF4FFE
:100FB0000881C258D040CF57DF4F2881C158D04058
:100FC00061E870E06C0F7D1F6D5F7F4FC5010E946F
:100FD000B92460E0F401EC54FF4FE491A1E8B0E0E3
:100FE000AC0FBD1FA60FB11DEC936F5FFFEF8F1A03
:100FF0009F0A643078F3CD57DF4F4881C358D04003
:1010000050E09A012E5F3F4F862F90E02817390756
:101010000CF7C12CEE24E394CE57DF4F0881C25861
:10102000D040CF57DF4F2881C158D04061E870E0F1
:101030006C0F7D1F6D5F7F4FC5010E94B924C501F4
:101040000E94DD22C5010E941823482FBE016F5F58
:101050007F4FC5010E94342362E0C5010E949322A4
:101060006CE9C5010E949F2260E5C5010E9499229A
:1010700060E0C5010E94A522C5010E94DD2261E059
:10108000C5010E94CF2261E0C5010E941E24C50156
:101090000E94252460E0F401EC54FF4FE491A1E8A4
:1010A000B0E0AC0FBD1FA60FB11DEC936F5F8FEFCB
:1010B000881A980A643078F3CD57DF4F4881C358B7
:1010C000D04050E09A012E5F3F4F862F90E02817C6
:1010D00039070CF7C12CEE24E394CE57DF4F08817B
:1010E000C258D040CF57DF4F2881C158D04061E867
:1010F00070E06C0F7D1F6D5F7F4FC5010E94B924AA
:1011000060E0F401EC54FF4FE491A1E8B0E0AC0FD3
:10111000BD1FA60FB11DEC936F5F9FEF891A990A4F
:10112000643078F3CD57DF4F4881C358D04050E04A
:101130009A012E5F3F4F862F90E0281739070CF752
:10114000C12CEE24E394CE57DF4F0881C258D04023
:10115000CF57DF4F2881C158D04061E870E06C0F55
:101160007D1F6D5F7F4FC5010E94B92460E0F401CF
:10117000EC54FF4FE491A1E8B0E0AC0FBD1FA60F07
:10118000B11DEC936F5FEFEF8E1A9E0A643078F317
:10119000CD57DF4F4881C358D04050E09A012E5FB1
:1011A0003F4F862F90E0281739070CF7C12CEE240B
:1011B000E394CE57DF4F0881C258D040CF57DF4F5E
:1011C0002881C158D04061E870E06C0F7D1F6D5FD1
:1011D0007F4FC5010E94B924C5010E9418238330A6
:1011E0009105D0F3482FBE016F5F7F4FC5010E946C
:1011F0003423C5010E94BD2260E0F401EC54FF4F8E
:10120000E491A1E8B0E0AC0FBD1FA60FB11DEC93B7
:101210006F5FFFEF8F1A9F0A643078F3CD57DF4F6F
:101220004881C358D04050E09A012E5F3F4F862F2F
:1012300090E0281739070CF7CE57DF4F0881C258C6
:10124000D040CF57DF4F2881C158D04061E870E0CF
:101250006C0F7D1F6D5F7F4FC5010E944F24C5013C
:101260000E94182383309105D0F3482FBE016F5F91
:101270007F4FC5010E943423C5010E94BD22F401A5
:10128000EC54FF4F60E08491A1E8B0E0AC0FBD1FCB
:10129000A60FB11D8C936F5F643010F43196F3CFBD
:1012A000CD57DF4F4881C358D04050E09A012E5FA0
:1012B0003F4F862F90E02817390784F761E870E0E8
:1012C0006C0F7D1F6D5F7F4FC12CEE24E394CE57D2
:1012D000DF4F0881C258D040CF57DF4F2881C15817
:1012E000D040C5010E94B92460E0C5010E941E24BF
:1012F0008AE290E0F50193838283C5010E94DD229A
:10130000C5010E94BD2280E003C081E001C082E0EF
:10131000C057DF4F0FB6F894DEBF0FBECDBFDF91D1
:10132000CF911F910F91EF90CF90BF90AF909F9072
:101330008F900895CF93DF93DB01FA01309719F472
:10134000EC01E881F981808190E0982F8827218144
:10135000820F911D11969C938E93848190E0982F1B
:1013600088272581820F911D13969C938E93129747
:10137000808590E0982F88272185820F911D1596F2
:101380009C938E931497848590E0982F88272585C9
:10139000820F911D17969C938E93169780E0DF9194
:1013A000CF910895FF920F931F93CF93DF93CDB703
:1013B000DEB728970FB6F894DEBF0FBECDBF8B0106
:1013C000BE016F5F7F4F0E949A09F82E81114CC0B9
:1013D00069817A81882777FD8095982F0E94A32EB6
:1013E00020E030E040E858E30E94CD2FF801608310
:1013F0007183828393836B817C81882777FD8095BD
:10140000982F0E94A32E20E030E040E858E30E948D
:10141000CD2FF80164837583868397836D817E81E8
:10142000882777FD8095982F0E94A32E20E030E03A
:1014300040E858E30E94CD2FF801608771878287CA
:1014400093876F817885882777FD8095982F0E94F4
:10145000A32E20E030E040E858E30E94CD2FF801B1
:1014600064877587868797878F2D28960FB6F8949F
:10147000DEBF0FBECDBFDF91CF911F910F91FF90C7
:1014800008954F925F926F927F928F929F92AF9248
:10149000BF92CF92DF92EF92FF920F931F93CF9361
:1014A000DF93CDB7DEB728970FB6F894DEBF0FBE37
:1014B000CDBF8B01DA011496CD90DD90ED90FC90BC
:1014C00017971C964D905D906D907C901F978D9016
:1014D0009D90AD90BC90139718968D919D910D9015
:1014E000BC91A02D89839A83AB83BC83A301920115
:1014F000C701B6010E94CD2F6D837E838F839887AD
:1015000029813A814B815C81C501B4010E94CD2FB4
:101510009B01AC016D817E818F8198850E943A2D5F
:101520009B01AC010E943B2DF80160837183828393
:101530009383A7019601C501B4010E94CD2F6D834D
:101540007E838F839887A301920169817A818B8141
:101550009C810E94CD2F9B01AC016D817E818F818A
:1015600098850E943B2D9B01AC010E943B2DD80128
:1015700014966D937D938D939C931797A501940179
:10158000C501B4010E94CD2F4B015C01A70196015A
:10159000C701B6010E94CD2F9B01AC01C501B4016A
:1015A0000E943A2D6B017C0129813A814B815C813B
:1015B000CA01B9010E94CD2F9B01AC01C701B60140
:1015C0000E943A2D6B017C01A3019201C301B2017B
:1015D0000E94CD2F9B01AC01C701B6010E943B2D9B
:1015E000F801608771878287938780E028960FB61D
:1015F000F894DEBF0FBECDBFDF91CF911F910F9149
:10160000FF90EF90DF90CF90BF90AF909F908F9022
:101610007F906F905F904F9008952F923F924F92DE
:101620005F926F927F928F929F92AF92BF92CF9272
:10163000DF92EF92FF920F931F93CF93DF9300D02F
:1016400000D000D0CDB7DEB71B018A013E832D83C9
:10165000FA01C080D180E280F380A7019601C70122
:10166000B6010E943B2D69837A838B839C83F801AA
:1016700084809580A680B780A5019401C501B4013E
:101680000E943B2D2B013C01A701960169817A81C3
:101690008B819C810E94CD2F6B017C01A50194015F
:1016A000C301B2010E94CD2F9B01AC01C701B6015D
:1016B0000E943B2D20E030E040E85FE30E943A2D9D
:1016C0006B017C01F8012085318542855385C3017A
:1016D000B2010E94CD2F2B013C01F80124853585F4
:1016E0004685578569817A818B819C810E94CD2FA7
:1016F0009B01AC01C301B2010E943A2DA7019601E2
:101700000E94AE2DF1016083718382839383ED810A
:10171000FE816481758186819781C084D184E28451
:10172000F3849B01AC010E94CD2F4B015C01A7010A
:101730009601C701B6010E94CD2F9B01AC01C501E6
:10174000B4010E943B2D0E943A309B01AC01ED8117
:10175000FE8160817181828193810E94082E0E94A6
:10176000D92DF1016483758386839783ED81FE8192
:101770006081718182819381C084D184E284F38409
:101780009B01AC010E94CD2F4B015C01A70196018A
:10179000C701B6010E94CD2F9B01AC01C501B40168
:1017A0000E943B2D0E943A309B01AC01ED81FE81ED
:1017B00064817581868197810E94082E0E94D92DAF
:1017C000F101608771878287938780E026960FB644
:1017D000F894DEBF0FBECDBFDF91CF911F910F9167
:1017E000FF90EF90DF90CF90BF90AF909F908F9041
:1017F0007F906F905F904F903F902F9008954F9201
:101800005F926F927F928F929F92AF92BF92CF9290
:10181000DF92EF92FF920F931F93CF93DF93EC0130
:101820007B01882777FD8095982F0E94A32E2B019E
:101830003C012D813E814F8158850E94012E8823D5
:10184000A1F18C80F7FE03C081E08825882EB701C6
:10185000F7FE03C0719561957109882777FD809522
:10186000982F1F921F921F922FEF2F93A12CB12C14
:10187000650114E6E12EF12C00E010E020E030E0FC
:10188000A9010E94F22C6B017C01682D89810E94C4
:101890008828B60188810E94C7274D825E826F82A8
:1018A00078860F900F900F900F90DF91CF911F913E
:1018B0000F91FF90EF90DF90CF90BF90AF909F90EF
:1018C0008F907F906F905F904F9008956F927F926E
:1018D0008F929F92AF92BF92CF92DF92EF92FF9240
:1018E0000F931F93CF93DF93EC014A015B0160914B
:1018F000650370916603882777FD8095982F0E9475
:10190000A32E9B01AC01C501B4010E94CD2F20E0A4
:1019100030E048EC52E40E94082E6BA77CA78DA70C
:101920009EA7EF8AF88E098F1A8FCE2CDF2C7801B4
:10193000F7FE08C0F094E094D094C094C11CD11C70
:10194000E11CF11C21E03FEFC316D306E3063FE79D
:10195000F30609F420E02E8B11E020E030E0A9012D
:101960000E94012E811101C010E01D8B1BA21CA240
:101970001DA21EA21FA218A619A61AA61F8E18A283
:1019800019A21AA2DF91CF911F910F91FF90EF90B2
:10199000DF90CF90BF90AF909F908F907F906F908F
:1019A0000895EF92FF920F931F93CF93DF93EC0173
:1019B000EE24EA94FE2C0FEF1FE720E030E040E039
:1019C00050E0BA010E94660CEB8119861A861B86CC
:1019D0001C86198A1A8A1B8A1C8A84E0E89FF001F7
:1019E0001124E959FC4F10821182128213821BA22A
:1019F0001CA21DA21EA21FA218A619A61AA61F8EFF
:101A000018A219A21AA20E94352760937B03709333
:101A10007C0380937D0390937E03DF91CF911F9190
:101A20000F91FF90EF900895CF92DF92EF920F9376
:101A3000CF93DF931F92CDB7DEB76C01862FF601EF
:101A40006083418322830383E4829091330199234D
:101A500099F061E049830E944F2861E04981842F19
:101A60000E944F28C6010F90DF91CF910F91EF9008
:101A7000DF90CF900C94D10C0F90DF91CF910F910C
:101A8000EF90DF90CF9008958F929F92AF92BF9288
:101A9000CF92DF92EF92FF920F931F93CF93DF933A
:101AA0006C0164E571E00E94E705882349F064E574
:101AB00071E0C6010E946B1B0E94221AEB0102C05A
:101AC000C0E0D0E068E571E0C6010E94E705882328
:101AD00011F168E571E0C6010E946B1B0E94131AA8
:101AE0004B015C0120E030E0A9010E94C22F87FD7C
:101AF00006C0EE24EA94FE2C0FEF1FE705C0EE248B
:101B0000E394F12C00E010E89E01B501A4018DE101
:101B100093E00E94660C6BE571E0C6010E94E70548
:101B2000882311F16BE571E0C6010E946B1B0E94D6
:101B3000131A4B015C0120E030E0A9010E94C22F82
:101B400087FD06C0EE24EA94FE2C0FEF1FE705C0C8
:101B5000EE24E394F12C00E010E89E01B501A4010D
:101B60008AEE92E00E94660CDF91CF911F910F9157
:101B7000FF90EF90DF90CF90BF90AF909F908F90AD
:101B800008954F925F926F927F92AF92BF92CF92E1
:101B9000DF92EF92FF920F931F93CF93DF93CDB716
:101BA000DEB72C970FB6F894DEBF0FBECDBFE98627
:101BB000FA860B871C870E943A2D2B013C01ABA1B2
:101BC000BCA12D913D914D915C910E943B2D2FA187
:101BD00038A549A55AA50E94CD2F6D837E838F839A
:101BE0009887A3019201EDA1FEA16081718182819C
:101BF00093810E943A2D2FA138A549A55AA50E948C
:101C0000CD2F69837A838B839C83ED80FE800F8147
:101C10001885ABA1BCA1ED92FD920D931C93139777
:101C2000ADA1BEA16D937D938D939C931397E9A174
:101C3000FAA14082518262827382A3019201698576
:101C40007A858B859C850E94CD2F2B013C012D81AF
:101C50003E814F815885C601B5010E94CD2F9B0161
:101C6000AC01C301B2010E943B2D6B017C012981B3
:101C70003A814B815C816D8D7E8D8F8D98A10E9404
:101C8000CD2F9B01AC01C701B6010E943B2D2C96C4
:101C90000FB6F894DEBF0FBECDBFDF91CF911F917D
:101CA0000F91FF90EF90DF90CF90BF90AF907F901B
:101CB0006F905F904F9008952F923F924F925F9256
:101CC0006F927F928F929F92AF92BF92CF92DF924C
:101CD000EF92FF920F931F93CF93DF93CDB7DEB7B1
:101CE0002C970FB6F894DEBF0FBECDBF1C016B0161
:101CF000DC011D962D913D914D915C91509751962F
:101D00008D919D910D90BC91A02D281B390B4A0BF4
:101D10005B0BA8EEB3E00E94E530960140E050E096
:101D200029833A834B835C830E94C630CA01B90180
:101D30000E94A32E2B013C01D1019F966D937D93B0
:101D40008D939C93D297A0903901B0903A01C090A6
:101D50003B01D0903C0120913501309136014091FA
:101D60003701509138012D833E834F8358879B96CE
:101D70008D919D910D90BC91A02D89879A87AB87FD
:101D8000BC8769817A818B819C810E94A12E20E091
:101D900030E04AE754E40E94082E9F938F937F938C
:101DA0006F93C10187969F938F9304979F938F930F
:101DB00004979F938F93809140018F9380913F016F
:101DC0008F9380913E018F9380913D018F93ED80A1
:101DD000FE800F811885A301920169857A858B8524
:101DE0009C850E94C10D4B015C01F101C3A4D4A4E8
:101DF000E5A4F6A40FB6F894DEBF0FBECDBF20E079
:101E000030E0A901C701B6010E94012E882309F420
:101E10005AC020E030E0A901D1019F966D917D91DB
:101E20008D919C91D2970E94012E8823A1F1F101FE
:101E3000238D348D458D568DC501B4010E943B2DF7
:101E40006B017C0120E030E048EC52EC0E94012E56
:101E500087FD0FC020E030E048EC52E4B601C70136
:101E60000E94C22F181654F4C12CD12C98EC82E495
:101E700007C0C12CD12C98EC82EC02C09E2D8F2D76
:101E8000A601692F782FD1015B964D935D936D93D9
:101E90007C935E971FC020E030E0A901C701B60126
:101EA0000E94C22F87FD05C040E050E068E472E464
:101EB00004C040E050E068E472ECF101438F548FBD
:101EC000658F768F07C0D1015B961D921D921D9282
:101ED0001C925E97F1014585568567857089418B17
:101EE000528B638B748B2C960FB6F894DEBF0FBEAB
:101EF000CDBFDF91CF911F910F91FF90EF90DF90B9
:101F0000CF90BF90AF909F908F907F906F905F9099
:101F10004F903F902F90089510926B0310926C0396
:101F200010926D0310926E03109267031092680373
:101F30001092690310926A0362E082E00E944F28C7
:101F400062E083E00E944F2862E088E00E944F2810
:101F500062E089E00E944F2841E050E06FE075E0C8
:101F600080E00E94712641E050E06DE475E081E080
:101F70000E94712680913301882341F161E085E060
:101F80000E944F2860E085E00E94882861E086E09A
:101F90000E944F2860E086E00E94882861E08BE084
:101FA0000E944F2860E08BE00E94882861E081E178
:101FB0000E944F2860E081E10E9488288DE193E033
:101FC0000E94D10C8AEE92E00E94D10C10926F0315
:101FD00010927003109271031092720310927303A7
:101FE0001092740310927503109276031092770387
:101FF000109278031092790310927A0310923301B1
:102000000895CF92DF92EF92FF92CF93DF930E94D9
:1020100035276B017C0180917B0390917C03E60165
:10202000C81BD90BE091200380912103F0E0EE0F53
:10203000FF1FEE0FFF1FE959FC4F882361F08081DD
:102040009181A281B381B095A095909581959F4F84
:10205000AF4FBF4F04C080819181A281B381809333
:102060002A0390932B03A0932C03B0932D03E091AC
:10207000ED028091EE02F0E0EE0FFF1FEE0FFF1F6A
:10208000E959FC4F882361F080819181A281B3815D
:10209000B095A095909581959F4FAF4FBF4F04C0CD
:1020A00080819181A281B3818093F7029093F8029D
:1020B000A093F902B093FA02BE018DE193E00E9471
:1020C0005C0EBE018AEE92E00E945C0E60913803C5
:1020D0007091390380913A0390913B030E94702ED6
:1020E0008DE193E00E94FF0B609105037091060360
:1020F00080910703909108030E94702E8AEE92E06F
:102100000E94FF0BC0927B03D0927C03E0927D0380
:10211000F0927E03DF91CF91FF90EF90DF90CF9010
:102120000895EF92FF920F931F93CF93DF937C015B
:102130000CE011E0C0E0D0E06BED71E0C7010E945F
:102140006B1B0E94071ABC01F801808191810E94DB
:10215000C3350C5F1F4F892B81F4CC0FDD1FCC0FD3
:10216000DD1FC45FDE4FEA81FB81C701DF91CF91A4
:102170001F910F91FF90EF9009942196C730D105E0
:10218000D9F6DF91CF911F910F91FF90EF900895B5
:102190008C01C0E0D0E0C017D107B4F461E08DE05D
:1021A0000E94882868EC70E080E090E00E9464273C
:1021B00060E08DE00E94882868EC70E080E090E0AC
:1021C0000E9464272196E7CF68E572E080E090E006
:1021D0000E946427DECF26E040E052EC61E070E030
:1021E0008DED94E00E94CA2964E170E080E090E007
:1021F0000E94642761E08DE00E944F2861E08CE03E
:102200000E944F2862E084E00E944F2860E08DE049
:102210000E94882860E08CE00E9488280E948C0F31
:1022200080913401882309F47FC080E194E00E940A
:10223000E91D88E18093B80062E087E00E944F28A2
:1022400080E593E00E9404236AE070E080E090E083
:102250000E94642780E593E00E945F2380E593E07D
:102260000E9410078093E9036AE070E080E090E04C
:102270000E9464278091E90381113CC061E080E500
:1022800093E00E941E246AE070E080E090E00E94EB
:10229000642780E593E00E94BD228093EB03809148
:1022A00052038093EA036CED70E080E593E00E94B6
:1022B0000C246CE470E080E593E00E9412246BEA49
:1022C0007FEF80E593E00E9418246CEF76E080E5D4
:1022D00093E00E9406240E943527605D7A488F4F64
:1022E0009F4F6093630270936402809365029093A2
:1022F00066021AC06EE571E08DED94E00E941F2B1E
:102300004AE050E06091E9038DED94E00E94FE2BDD
:102310006FE671E08DED94E00E943C2B8091E90323
:1023200090E001960E94C81061E771E08DED94E0A5
:102330000C943C2BCF92DF92EF92FF92CF93DF93DE
:10234000EC01C880D980EA80FB802BED3FE049E4B6
:1023500050E4C701B6010E94C22F18166CF42BED91
:102360003FE049EC50E4C701B6010E943A2D688372
:1023700079838A839B83E5CF2BED3FE049E450ECE2
:102380006091F6037091F7038091F8039091F9033F
:102390000E94012E87FF0FC02BED3FE049EC50E477
:1023A000688179818A819B810E943B2D6883798332
:1023B0008A839B83E1CFDF91CF91FF90EF90DF90F5
:1023C000CF900895CF93DF93EC018DE193E00E94CD
:1023D000D10C8AEE92E00E94D10C1092F60310927A
:1023E000F7031092F8031092F9031092FA03109277
:1023F000FB031092FC031092FD031092FE03109257
:10240000FF03109200041092010468E971E0CE010C
:102410000E94E705882379F068E971E0CE010E9407
:102420006B1B0E94131A6093FE037093FF0380934B
:102430000004909301046AE971E0CE010E94E7056F
:10244000882379F06AE971E0CE010E946B1B0E943B
:10245000131A6093FA037093FB038093FC03909329
:10246000FD036CE971E0CE010E94E7058823A9F025
:102470006CE971E0CE010E946B1B0E94131A25E3E8
:102480003AEF4EE85CE30E94CD2F6093F603709321
:10249000F7038093F8039093F90386EF93E00E948B
:1024A0009A1120917F0330918003409181035091D4
:1024B00082036091F6037091F7038091F803909185
:1024C000F9030E943B2D6093F2037093F303809312
:1024D000F4039093F503DF91CF9108954F925F92AB
:1024E0006F927F928F929F92AF92BF92CF92DF9224
:1024F000EF92FF921F93CF93DF93CDB7DEB72C9768
:102500000FB6F894DEBF0FBECDBFE09120038091DF
:102510002103F0E08823B1F0EE0FFF1FEE0FFF1F45
:10252000E959FC4F80819181A281B3812227332711
:10253000A901281B390B4A0B5B0B2D833E834F836C
:10254000588711C09F01220F331F220F331F2959B3
:102550003C4FD9018D919D910D90BC91A02D8D8303
:102560009E83AF83B887E091ED028091EE02F0E0A8
:102570008823B1F0EE0FFF1FEE0FFF1FE959FC4F4C
:1025800080819181A281B38122273327A901281B51
:10259000390B4A0B5B0B29873A874B875C8711C045
:1025A0009F01220F331F220F331F29593C4FD9019E
:1025B0008D919D910D90BC91A02D89879A87AB87B5
:1025C000BC87C0906303D0906403EE24D7FCE094F2
:1025D000FE2C8091260390912703A0912803B091AF
:1025E00029032D813E814F815885281B390B4A0BC9
:1025F0005B0BA8EEB3E00E94E530A70196010E94B4
:10260000C630CA01B9010E94A32E4B015C01809122
:10261000F3029091F402A091F502B091F60229859F
:102620003A854B855C85281B390B4A0B5B0BA8EE62
:10263000B3E00E94E530A70196010E94C630CA01AE
:10264000B9010E94A32E2B013C012091F20330918D
:10265000F3034091F4035091F50360917F0370916F
:10266000800380918103909182030E943A2D6983B7
:102670007A838B839C8321EE3EE245E652E40E94FE
:10268000CD2F6B017C0120E030E0A9010E94C22F18
:1026900018166CF411E02DEC3CEC4CEC5DE3C7013A
:1026A000B6010E94C22F181674F010E00CC02DEC79
:1026B0003CEC4CEC5DEBC701B6010E94012E182FDB
:1026C000111F1127111FA3019201C501B4010E941E
:1026D0003B2D20E030E040E05FE30E94CD2F6B0116
:1026E0007C0120E030E0A9010E94C22F18165CF4A2
:1026F00020E030E040E85FE3C701B6010E94C22F4E
:10270000181654F00AC020E030E040E85FEBC70143
:10271000B6010E94012E87FD11E08090F603909093
:10272000F703A090F803B090F90320E030E040E018
:102730005FE369817A818B819C810E94CD2F9B010F
:10274000AC01C501B4010E943B2D2B013C010E944C
:1027500030309B01AC01C701B6010E94CD2F9B0117
:10276000AC016091FE037091FF0380910004909191
:1027700001040E943B2D6093FE037093FF0380933E
:10278000000490930104C301B2010E94052E9B0135
:10279000AC01C701B6010E94CD2F9B01AC01609135
:1027A000FA037091FB038091FC039091FD030E945A
:1027B0003B2D6093FA037093FB038093FC0390938B
:1027C000FD0329813A814B815C81C501B4010E94DE
:1027D0003B2D6093F6037093F7038093F803909377
:1027E000F90386EF93E00E949A1140917F03509184
:1027F000800360918103709182034093F2035093B0
:10280000F3036093F4037093F5032D813E814F81B0
:102810005885209326033093270340932803509331
:10282000290389859A85AB85BC858093F3029093B3
:10283000F402A093F502B093F602812F2C960FB606
:10284000F894DEBF0FBECDBFDF91CF911F91FF90F7
:10285000EF90DF90CF90BF90AF909F908F907F9040
:102860006F905F904F900895CF93DF9300D000D08A
:10287000CDB7DEB77A8369831C821B82BE016F5F8E
:102880007F4F0E94061B8B819C810F900F900F90B1
:102890000F90DF91CF910895CF92DF92EF92FF9248
:1028A0000F931F93CF93DF93CDB7DEB7C454D109F5
:1028B0000FB6F894DEBF0FBECDBF8CE092E09A83D6
:1028C000898325961FAE1EAE2597CE0101960E94E4
:1028D000CB198C016EE971E00E946B1B60EA71E01C
:1028E0000E943C1A20E030E04AE754E46091FE0385
:1028F0007091FF0380910004909101040E94082EC2
:102900006B017C0168E971E0C8010E946B1B24E047
:10291000B701A6010E94481A20E030E04AE754E4DB
:102920006091FA037091FB038091FC039091FD0389
:102930000E94082E6B017C016AE971E0C8010E94C7
:102940006B1B24E0B701A6010E94481A21EE3EE26B
:1029500045E652E46091F6037091F7038091F80325
:102960009091F9030E94CD2F6B017C016CE971E01D
:10297000C8010E946B1B21E0B701A6010E94481A02
:102980006DED74E0C8010E9434148DED94E00E9456
:10299000282BCC5BDF4F0FB6F894DEBF0FBECDBF48
:1029A000DF91CF911F910F91FF90EF90DF90CF902B
:1029B0000895CF92DF92EF92FF920F931F93CF93E0
:1029C000DF93CDB7DEB7C458D1090FB6F894DEBF98
:1029D0000FBECDBF82E192E09A838983CD57DF4F4E
:1029E00019821882C358D040CE0101960E94CB199B
:1029F0008C016EE971E00E946B1B65EA71E00E9438
:102A00003C1AC0904803D0904903E0904A03F090EC
:102A10004B036FEA71E0C8010E946B1B22E0B70113
:102A2000A6010E94481AC0901503D0901603E090AA
:102A30001703F090180362EB71E0C8010E946B1B52
:102A400022E0B701A6010E94481AC0904C03D09022
:102A50004D03E0904E03F0904F0365EB71E0C80129
:102A60000E946B1B22E0B701A6010E94481AC09089
:102A70001903D0901A03E0901B03F0901C0368EB3D
:102A800071E0C8010E946B1B22E0B701A6010E9401
:102A9000481AC0902203D0902303E0902403F090C2
:102AA00025036BEB71E0C8010E946B1B22E0B701AC
:102AB000A6010E94481AC090EF02D090F002E09068
:102AC000F102F090F2026EEB71E0C8010E946B1B04
:102AD00022E0B701A6010E94481AE09120038091EC
:102AE0002103F0E0EE0FFF1FEE0FFF1FE959FC4F2F
:102AF000C080D180E280F380882341F0F094E0949C
:102B0000D094C094C11CD11CE11CF11C61EC71E09B
:102B1000C8010E946B1BB701A6010E94571AE091E1
:102B2000ED028091EE02F0E0EE0FFF1FEE0FFF1FAF
:102B3000E959FC4FC080D180E280F380882341F0C6
:102B4000F094E094D094C094C11CD11CE11CF11C01
:102B500065EC71E0C8010E946B1BB701A6010E94E1
:102B6000571A6DED74E0C8010E9434148DED94E0A5
:102B70000E94282BCC57DF4F0FB6F894DEBF0FBE54
:102B8000CDBFDF91CF911F910F91FF90EF90DF901C
:102B9000CF900895FF920F931F93CF93DF93CDB7FC
:102BA000DEB7C454D1090FB6F894DEBF0FBECDBF57
:102BB000F82E2CE032E03A83298325961FAE1EAE14
:102BC0002597CE0101960E94CB198C016EE971E028
:102BD0000E946B1B69EC71E00E943C1A60914301FA
:102BE00070914401C8010E946B1B4F2D50E060E0C2
:102BF00070E00E94571A6DED74E0C8010E94341411
:102C00008DED94E00E94282BCC5BDF4F0FB6F8943B
:102C1000DEBF0FBECDBFDF91CF911F910F91FF900F
:102C20000895FF920F931F93CF93DF93CDB7DEB735
:102C3000C454D1090FB6F894DEBF0FBECDBFF82E35
:102C40002CE032E03A83298325961FAE1EAE2597ED
:102C5000CE0101960E94CB198C016EE971E00E94B1
:102C60006B1B60ED71E00E943C1A60914301709112
:102C70004401C8010E946B1B4F2D50E060E070E0E2
:102C80000E94571A6DED74E0C8010E9434148DED56
:102C900094E00E94282BCC5BDF4F0FB6F894DEBF88
:102CA0000FBECDBFDF91CF911F910F91FF9008957F
:102CB000EF920F931F9380E090E0A0E8BFE3809332
:102CC000970390939803A0939903B0939A0310925B
:102CD0009B0310929C0310929D0310929E031092EE
:102CE0009F031092A0031092A1031092A2031092CE
:102CF000A3031092A4031092A5031092A6031092AE
:102D00008B0310928C0310928D0310928E031092FD
:102D10008F031092900310929103109292031092DD
:102D2000930310929403109295031092960382ECF1
:102D300091E0909366038093650380E593E00E94A1
:102D40005D22EE24E39400E010E020E130E04BE06F
:102D500050E065E070E08DE193E00E94140DE12CFD
:102D600001E010E02FE030E041E150E066E070E08B
:102D70008AEE92E00E94140D1F910F91EF9008953A
:102D80000F931F93CF93DF93CDB7DEB7C458D1090C
:102D90000FB6F894DEBF0FBECDBF8DED94E00E945C
:102DA000E728892B09F44DC08DED94E00E9400299D
:102DB0002091E8023091E9028A3089F5C901019633
:102DC0009093E9028093E802F901E859FD4F1082DF
:102DD00082E192E09A838983CD57DF4F198218826E
:102DE000C358D0404AE068E672E0CE0101960E94E6
:102DF000251D8C016BED71E00E94E705882321F011
:102E0000C8010E94911006C066ED71E08DED94E05E
:102E10000E943C2B1092E9021092E80212C0A90114
:102E20004F5F5F4F5093E9024093E802F901E85980
:102E3000FD4F80834038510520F084E090E00E94EF
:102E4000C810CC57DF4F0FB6F894DEBF0FBECDBF12
:102E5000DF91CF911F910F9108950F931F93CF93FF
:102E6000DF93209128013091290140E050E06091EA
:102E7000EC037091ED038091EE039091EF030E94BB
:102E8000A430672B682B692BA1F40E943527009191
:102E90006302109164022091650230916602061768
:102EA00017072807390728F480916202882309F45C
:102EB000DCC00E94C016809132018823E9F101E054
:102EC00010E020E030E080912A0190912B01892BC5
:102ED00019F000E010E098014091EC035091ED03EF
:102EE0006091EE037091EF0340235123622373231B
:102EF000452B462B472B01F180916702811119C0A8
:102F000089B182958170C82F30E0D32F80910A015A
:102F100090910B01C817D90779F0D0930B01C0939A
:102F20000A0183E0809367028C2F81700E94CA158A
:102F300003C0815080936702809133018823B1F0F0
:102F400020912E0130912F0140E050E06091EC0380
:102F50007091ED038091EE039091EF030E94A430F5
:102F6000672B682B692B11F40E940110209130010E
:102F70003091310140E050E06091EC037091ED033D
:102F80008091EE039091EF030E94A430672B682B91
:102F9000692B49F40E946E12882329F08091F00376
:102FA00081110E944C1420912C0130912D0140E0A0
:102FB00050E06091EC037091ED038091EE039091ED
:102FC000EF030E94A430672B682B692B81F48DE0FE
:102FD0000E94BE2861E0892B09F060E08DE00E942C
:102FE00088288091F103882311F01D9977C0809182
:102FF0003401882311F14F9B20C080E593E00E94AB
:10300000BD228093EB0380E593E00E941823909308
:10301000E8038093E7032091EB0324FD04C08115AE
:10302000944009F05EC06FED71E08DED94E00E9478
:103030003C2B80E593E00E94DD228091EC0390918F
:10304000ED03A091EE03B091EF030196A11DB11D18
:103050008093EC039093ED03A093EE03B093EF0302
:10306000DF91CF911F910F91089511E010936202AB
:103070008DE193E00E94D10C8AEE92E00E94D10C87
:103080001092F6031092F7031092F8031092F903CE
:103090001092FA031092FB031092FC031092FD03AE
:1030A0001092FE031092FF0310920004109201048C
:1030B00040917F035091800360918103709182035E
:1030C0004093F2035093F3036093F4037093F5037A
:1030D0001093F00381E00E941116EBCE0E94D914E8
:1030E00086CF21FFA6CF4091EA0367EA73E080E52F
:1030F00093E00E94342347EA53E067E973E080E5F8
:1031000093E00E94D20947E953E06BE873E080E561
:1031100093E00E94410A2BE833E047E953E06FE770
:1031200073E080E593E00E940D0B83CFCF93DF9394
:10313000EC0188819981DC01ED91FC910190F08195
:10314000E02D09952A813B81280F391F3B832A8373
:10315000DF91CF910895DB01ED91FC9111970190E2
:10316000F081E02DBC01CD0109940F931F93CF9303
:10317000DF938C01F801C281D3818881992787FD73
:1031800090950E948D35892B29F02196F801D383E3
:10319000C283F0CFDF91CF911F910F9108950F93CC
:1031A0001F93CF93DF931F92CDB7DEB78C01698356
:1031B0000E94B518D8011296ED91FC911397808169
:1031C000698186130AC031961396FC93EE93129789
:1031D000C8010E94B51881E001C080E00F90DF9126
:1031E000CF911F910F910895FB012191BF012223DF
:1031F00079F0DC011296ED91FC9113973081321336
:1032000007C03196DC011396FC93EE931297ECCF36
:1032100081E0211180E00895BF92CF92DF92EF927A
:10322000FF920F931F93CF93DF937C01EB010097E5
:1032300071F464E172E0CE01DF91CF911F910F91A3
:10324000FF90EF90DF90CF90BF900C941F2BE88100
:10325000F9810190F081E02D62E2CE0109958C01A7
:10326000F70161917F01662351F0E4E2F2E0B08062
:10327000BB2079F191819617B1F03296F8CFE881B1
:10328000F9810190F081E02D62E2CE010995800F75
:10329000911FDF91CF911F910F91FF90EF90DF90E1
:1032A000CF90BF900895E881F9810190F081E02DE1
:1032B0006CE5CE0109956C01E881F9810190F081FE
:1032C000E02D6B2DCE0109958C0D9D1D080F191F4A
:1032D000C7CFE881F9810190F081E02DCE010995F9
:1032E000F5CFCF93FC015081523229F0573219F0BB
:1032F00080E090E023C09C012F5F3F4FD901F9018E
:10330000CF0101964081442399F3451791F04C3544
:1033100069F401964181E8E2F2E0C081CC2331F00A
:10332000C41302C0418102C03296F7CF4D93FC0115
:10333000E7CF1C92FB0191838083C901CF9108954F
:10334000DC011296ED91FC911397309731F06115E5
:10335000710531F4CF010296089582E094E008955A
:10336000615071090190F081E02DEFCFCF93DF9391
:10337000EC01BC0184E090E00E94AB18FC010097D6
:1033800029F0D183C0831382128202C08CE094E0C2
:10339000DF91CF910895CF93DF93EC01BC0184E0DE
:1033A00090E00E94AB18FC01009729F0D183C08304
:1033B0001382128202C088E094E0DF91CF910895D9
:1033C0000F931F93CF93DF938B01FC01C281D381B5
:1033D000209759F0B8018A819B810E94C335892BBF
:1033E00039F00990D881C02DF3CF80E090E001C082
:1033F000CE01DF91CF911F910F9108950E94E019A6
:10340000009711F00496089582E094E00895FC017D
:10341000208131812530310519F48281938108950D
:1034200080E090E00895FC01208131812730310552
:103430002CF06281738184819581089560E070E051
:10344000CB010895FC01208131812630310529F41A
:103450006281738184819581089560E070E0CB0181
:103460000895FC0180819181892B29F084E090E00E
:103470009183808362830895FC0180819181892BEF
:1034800031F085E090E091838083738362830895B7
:10349000FC0180819181892B49F030E0295F3F4F09
:1034A0003183208342835383648375830895FC01B1
:1034B00080819181892B41F086E090E09183808327
:1034C00042835383648375830895FC0180819181D5
:1034D000892B31F082E090E0918380837383628353
:1034E0000895FC0180819181892B31F083E090E087
:1034F00091838083738362830895FC0120813181ED
:103500002230310521F4828193810C94A01982E04C
:1035100094E00895CF93DF93FC01EB01208131818A
:103520002230310531F482819381DF91CF910C9467
:10353000E01A2330310531F482819381DF91CF91FC
:103540000C94061B2530310539F46881798182811C
:1035500093810E940C192BC02630310559F4428109
:103560005381648175812AE030E0888199810E94CD
:10357000A72B1DC02430310569F48281882319F0FE
:1035800069E172E002C06EE172E0888199810E9477
:103590001F2B0DC02730310584F0275030E04281C9
:1035A000538164817581888199810E94F02C2A81E0
:1035B0003B81280F391F3B832A83DF91CF910895E8
:1035C0000F931F93CF93DF93EC018B016BE5C80141
:1035D0000E9496180A80DB81C02D209779F0B801EF
:1035E000CE0102960E948A1A0990D881C02D209798
:1035F00029F06CE2C8010E949618F1CF6DE5C80170
:10360000DF91CF911F910F910C9496180F931F93F8
:10361000CF93DF938C01EB016BE7CE010E949618EC
:10362000F801028113810115110509F16881798181
:10363000F801828193810E940C192A813B81280F15
:10364000391F3B832A836AE3CE010E949618BE018C
:10365000C80104960E948A1AF8010081118101159F
:10366000110529F06CE2CE010E949618DFCF6DE7BC
:10367000CE01DF91CF911F910F910C949618FC0110
:10368000608171816115710579F08AE090E00E9496
:10369000AB18FC01009741F01182108281E090E0AC
:1036A00095838483CF01089580E090E00895DC0144
:1036B0001296ED91FC911397309749F0808191819A
:1036C000009711F0FC01FACF718360830895FC012B
:1036D000738362830895EF92FF920F931F93CF93AA
:1036E000DF938C017B010E94E019EC01009761F4EB
:1036F000C8010E943F1BEC01009749F0FB82EA825F
:10370000BC01C8010E94571BCE01049602C082E092
:1037100094E0DF91CF911F910F91FF90EF9008956A
:10372000FC01608171816115710579F088E090E09C
:103730000E94AB18FC01009741F01182108281E0D9
:1037400090E093838283CF01089580E090E0089514
:10375000DC011296ED91FC911397309749F080812E
:103760009181009711F0FC01FACF71836083089575
:10377000FC017383628308950F931F93CF93DF93AC
:103780008C010E94901BEC01009739F0BC01C8012C
:103790000E94A81BCE01029602C082E094E0DF9155
:1037A000CF911F910F910895EF92FF920F931F9366
:1037B000CF93DF93EC01888199810E94B6197C0137
:1037C0006BE5CE010E94CF18811103C08CE094E01C
:1037D00022C06DE5CE010E94CF1881111BC0C70128
:1037E0000E94BC1B8C01BC01CE010E94121CF8017E
:1037F000208131812230310548F36DE5CE010E94F0
:10380000CF18811107C06CE2CE010E94CF18811140
:10381000E6CFDCCFC701DF91CF911F910F91FF90D1
:10382000EF900895EF92FF920F931F93CF93DF9342
:1038300000D0CDB7DEB78C017B01DC0114968C91F2
:103840001497882309F4A3C0815014968C93C8015F
:103850000E94B518F80182819381DC012C912A33F2
:103860007CF420330CF03FC0273209F461C024F40B
:10387000223209F45DC065C02D522230A0F161C032
:103880002E3609F442C02CF42B3581F02636B1F0E7
:1038900058C0243799F02B3709F053C0C8010E9453
:1038A000D01CBC01C7010E94711A4BC0C8010E9404
:1038B000D41BBC01C7010E94651A43C069E172E0D4
:1038C000C8010E94F418882311F061E008C06EE17D
:1038D00072E0C8010E94F418882309F160E0C70172
:1038E0000E94311A2EC04AE050E0BE016F5F7F4F48
:1038F0000E945934AB01BC01E981FA8180818E328A
:1039000029F18F7D8534D1F521C064E172E0C801D1
:103910000E94F418882319F060E070E00FC086E080
:10392000E2E0F4E0D70101900D928A95E1F709C039
:10393000B8016E5F7F4F0E947119BC01C7010E94E0
:103940003C1AF80184818F5F848321C0B8016E5FC7
:103950007F4FD80112968D919C9113970E94F63259
:10396000AB01BC01F8012281338189819A81281B36
:10397000390B2150C7010E94481AE3CFD801139692
:10398000FC93EE931297C7010E94571ADACF0F905B
:103990000F90DF91CF911F910F91FF90EF900895BD
:1039A000CF92DF92EF92FF920F931F93CF93DF930B
:1039B000EC01888199810E94CB196C016BE7CE01E3
:1039C0000E94CF18811103C088E094E035C06DE7F4
:1039D000CE010E94CF1881112EC07E0182E0E80E38
:1039E000F11CB7018A819B810E9471198C0100979B
:1039F00059F36AE3CE010E94CF18882329F3B80156
:103A0000C6010E946B1B8C01BC01CE010E94121CDE
:103A1000F8012081318122303105B0F26DE7CE010D
:103A20000E94CF18811107C06CE2CE010E94CF180E
:103A30008111D7CFC9CFC601DF91CF911F910F91CF
:103A4000FF90EF90DF90CF900895CF93DF9300D059
:103A500000D01F92CDB7DEB79A8389837C836B83B6
:103A60004D83CE0101960E94D01C0F900F900F90B5
:103A70000F900F90DF91CF91089510920D04109246
:103A80000C0410920F0410920E041092090410926C
:103A9000080410920B0410920A041092030410926E
:103AA000020408958091400490E020914104821B1B
:103AB000910908952091410480914004281750F401
:103AC000E22FF0E0EE5BFB4F808190E02F5F2093D0
:103AD000410408958FEF9FEF0895E0914104809194
:103AE0004004E81730F4F0E0EE5BFB4F808190E09B
:103AF00008958FEF9FEF08950895CF92DF92EF9290
:103B0000FF920F931F93CF93DF937C01CB018A0128
:103B100020911C04222389F0EB016B01C40ED51EF9
:103B2000CC15DD0569F06991D701ED91FC9101900B
:103B3000F081E02DC7010995F3CF642F0E94DC1EB0
:103B4000C801DF91CF911F910F91FF90EF90DF900F
:103B5000CF900895CF93DF931F92CDB7DEB76983DF
:103B600020911C042223D1F020911D04203240F02A
:103B700021E030E0FC013383228380E090E015C037
:103B800080911E04E82FF0E0E15EFB4F9981908365
:103B90008F5F80931E0480931D0405C061E0CE01F9
:103BA00001960E94DC1E81E090E00F90DF91CF91A2
:103BB0000895FC011382128248EE53E060E070E049
:103BC000448355836683778387E392E09183808380
:103BD0000895109241041092400410921E04109215
:103BE0001D040C94271E862F413208F040E262E447
:103BF00074E00E94451E1092410480934004089591
:103C000021E00C94F31D81E080931C0460933F0439
:103C100010921E0410921D0408950F93062F21E0A8
:103C200040911D046FE174E080913F040E94891E61
:103C300010921E0410921D0410921C040F910895FE
:103C400061E00C940D1E80E194E00C94D91D10925B
:103C5000CF0481E08093CD041092CC0461E082E136
:103C60000E94882861E083E10E948828E9EBF0E067
:103C700080818E7F808380818D7F808388E48093A4
:103C8000B80085E48093BC000895413208F03FC03D
:103C90009091CF049111FCCF91E09093CF042093A9
:103CA000CD042FEF209362041092A704240F2093D9
:103CB000A6049093CE049091CE04880F892B809314
:103CC000CE048091CC04813041F41092CC048091D8
:103CD000CE048093BB0085EC01C085EE8093BC00D0
:103CE0008091CF048130E1F38091A704841710F410
:103CF0004091A70428EA34E0FB01D9018A2F821BF6
:103D0000841718F48D918193F9CF842F089580E062
:103D100008950F93413208F046C09091CF0491115D
:103D2000FCCF92E09093CF040093CD049FEF90934B
:103D300062041092A7044093A604FB0168EA74E0B1
:103D4000DB019A2F961B941718F491919D93F9CF4C
:103D50001092CE049091CE04880F892B8093CE04CC
:103D60008091CC04813041F41092CC048091CE0437
:103D70008093BB0085EC01C085EE8093BC002223BC
:103D800021F08091CF048230E1F3809162048F3F73
:103D900061F080916204803251F08091620480333E
:103DA00041F483E007C081E005C080E003C082E009
:103DB00001C084E00F910895613298F42091CF04FE
:103DC000243089F460938404FC0186E894E0DC01EB
:103DD0002A2F281B261718F421912D93F9CF80E064
:103DE000089581E0089582E0089585ED8093BC00F8
:103DF0008091BC0084FDFCCF1092CF04089585EC27
:103E00008093BC001092CF0408951F920F920FB6BA
:103E10000F9211242F933F934F935F936F937F9350
:103E20008F939F93AF93BF93EF93FF938091B900CC
:103E3000887F803609F49CC068F5883209F45BC03D
:103E400090F4803109F454C038F4882309F4F5C0A3
:103E5000883009F44DC0F5C0883109F44CC0803277
:103E600009F45DC0EEC0803409F468C048F48033C2
:103E700009F455C0883309F0E4C080936204A8C0F7
:103E8000803509F44FC0883509F45DC0883409F0E5
:103E9000D8C0D5C0883909F4C6C0A8F4883709F459
:103EA00067C038F4883609F463C0803709F460C00D
:103EB000C8C0883809F4B7C0803909F45FC08038B9
:103EC00009F0BFC05BC0803B09F485C038F4803A7C
:103ED00009F466C0883A09F47EC0B3C0803C09F496
:103EE000A6C0883C09F4A3C0883B09F489C0A9C0D6
:103EF0008091CE0410C09091A7048091A6049817D9
:103F000070F5E091A70481E08E0F8093A704F0E0A4
:103F1000E855FB4F80818093BB0085EC85C0809382
:103F200062048DC0E091A70481E08E0F8093A70406
:103F30008091BB00F0E0E855FB4F80839091A7048F
:103F40008091A6046DC0E091A70481E08E0F80935C
:103F5000A7048091BB00F0E0E855FB4F808380917F
:103F6000CD0481116CC081E08093CC0484EA60C0F0
:103F700083E08093CF0410926304CFCF80916304D9
:103F8000803208F050C0E091630481E08E0F80938E
:103F900063048091BB00F0E0EC59FB4F8083BDCF00
:103FA00080916304803230F4E0916304F0E0EC59D6
:103FB000FB4F10820E94F51E6091630470E0E09157
:103FC000C804F091C90484E694E009951092630452
:103FD0000E94FF1E36C084E08093CF0410928504B7
:103FE00010928404E091CA04F091CB040995809169
:103FF0008404811105C081E08093840410928604BA
:10400000E091850481E08E0F80938504F0E0EA570B
:10401000FB4F80818093BB00909185048091840444
:10402000981708F47ACF85E88093BC000AC085EC25
:104030008093BC001092CF0404C0109262040E94CE
:10404000F51EFF91EF91BF91AF919F918F917F915D
:104050006F915F914F913F912F910F900FBE0F90F5
:104060001F901895EF92FF920F931F93CF93DF93BA
:1040700000D0CDB7DEB7062F142F682F80E194E073
:1040800029833A830E94031E602F80E194E00E94FE
:10409000AA1D2981022FE22E3A81F32E8E2D801B3C
:1040A000811740F4F70161917F0180E194E00E9463
:1040B000AA1DF4CF80E194E00E94201E91E08111BE
:1040C00090E0892F0F900F90DF91CF911F910F916A
:1040D000FF90EF900895CF93DF931F92CDB7DEB797
:1040E00049839E012F5F3F4F41E00E9432200F9095
:1040F000DF91CF910895DF92EF92FF920F931F937C
:10410000CF93DF93C62F042F7901682F80E194E0CD
:104110000E94031E6C2F80E194E00E94AA1D10E013
:10412000000F111FD12CCD2DD0E0C017D1078CF47A
:10413000CC0FDD1FCE0DDF1D698180E194E00E9470
:10414000AA1D688180E194E00E94AA1DD394D394B3
:10415000EACF80E194E00E94201E91E0811190E07E
:10416000892FDF91CF911F910F91FF90EF90DF90FA
:104170000895CF93DF9300D0CDB7DEB75A8349833C
:104180009E012F5F3F4F41E00E947B200F900F90D8
:10419000DF91CF9108953F924F925F926F927F92FD
:1041A0008F929F92AF92BF92CF92DF92EF92FF9247
:1041B0000F931F93CF93DF9300D000D000D0CDB7E3
:1041C000DEB7682E562E742E3A8329830E94352737
:1041D0006B017C01312C412C872D90E09C838B83DB
:1041E0004801A12CB12C3714B0F5662D80E194E084
:1041F0000E94031E652D80E194E00E94AA1D80E1CB
:1042000094E00E94201E662D80E194E00E94031E2F
:104210004B815C81431951094132510514F040E250
:1042200050E0662D80E194E00E94001E80E194E061
:104230000E94521D892B59F10115110579F10E9437
:1042400035276C197D098E099F09681579058A053E
:104250009B0520F11CC00115110589F10E9435272D
:104260006C197D098E099F0920E030E06017710705
:104270008207930720F1872D90E0242D332727FD17
:10428000309528173907DCF444244A9418C0872D48
:1042900090E2971508F480E2380EA5CFE981FA8103
:1042A000E40DF11D47FCFA95FE83ED8380E194E077
:1042B0000E945A1DED81FE8180834394B7CF842DE7
:1042C00026960FB6F894DEBF0FBECDBFDF91CF911B
:1042D0001F910F91FF90EF90DF90CF90BF90AF9024
:1042E0009F908F907F906F905F904F903F90089538
:1042F0000F931F9389019A0141E00E94CB201F91E7
:104300000F910895DF92EF92FF920F931F93CF9337
:10431000DF931F92CDB7DEB7D42E79019801AE019D
:104320004F5F5F4F0E94782161E070E001C0660F2F
:10433000DA94EAF799819623F70190830F90DF9141
:10434000CF911F910F91FF90EF90DF900895CF9242
:10435000DF92EF92FF920F931F93CF93DF931F9201
:10436000CDB7DEB7C42ED22E9701AE014F5F5F4F9F
:104370000E9478218823F1F04C2D50E04D1951090D
:104380004F5F5F4F61E070E002C0660F771FDA9405
:10439000E2F761507109042E01C0660F0A94EAF732
:1043A0002981262330E002C0359527954A95E2F70A
:1043B000F80120830F90DF91CF911F910F91FF9013
:1043C000EF90DF90CF900895EF92FF920F931F939D
:1043D000CF93DF931F92CDB7DEB7182F062FF42EA1
:1043E000E22E2091450130914601AE014F5F5F4FB3
:1043F0000E947821898121E030E00F2C01C0220F3A
:104400000A94EAF7EE2019F0482F422B03C0422FFE
:10441000409548234983602F812F0E946B200F9085
:10442000DF91CF911F910F91FF90EF900895DF9250
:10443000EF92FF920F931F93CF93DF931F92CDB70D
:10444000DEB7F82EE62ED42E122F209145013091A2
:104450004601AE014F5F5F4F0E947821882319F11A
:104460004D2D50E0411B51094F5F5F4FE1E0F0E0FF
:1044700002C0EE0FFF1F1A95E2F73197042E01C01C
:10448000EE0F0A94EAF701C0000F4A95EAF74E2FA3
:10449000409589814823E0234E2B49836E2D8F2D33
:1044A0000E946B2001C080E00F90DF91CF911F919F
:1044B0000F91FF90EF90DF90089528E6FC01208394
:1044C0000895462F69E1FC0180810C946B200F93C5
:1044D000062F23E045E06AE1FC0180810E9417225B
:1044E0000F9108950F93062F23E042E06AE1FC014B
:1044F00080810E9417220F9108950F93062F22E0CA
:1045000044E06BE1FC0180810E9417220F91089525
:104510000F93062F22E044E06CE1FC0180810E94B1
:1045200017220F910895462F6FE1FC0180810C94B2
:104530006B20462F60E2FC0180810C946B20462F9B
:1045400061E2FC0180810C946B20462F62E2FC0149
:1045500080810C946B20643048F4262F220F260FA4
:104560002B5D622FFC0180810C946B200895462FF7
:1045700068E3FC0180810C946B20CF93DF93EC0106
:104580002091450130914601AC014F5F5F4F6AE3D6
:1045900088810E9478218981DF91CF910895262F0B
:1045A00046E06AE6FC0180810C94E421262F45E078
:1045B0006AE6FC0180810C94E42121E042E06AE695
:1045C000FC0180810C94E42121E041E06AE6FC01D9
:1045D00080810C94E42121E047E06BE6FC018081BE
:1045E0000C94E421262F46E06BE6FC0180810C94BC
:1045F000E4210F93062F23E042E06BE6FC0180816B
:104600000E9417220F910895CF93DF93EC0161E090
:104610000E94F92260E0CE010E947D2260E0CE017E
:104620000E94882260E0CE01DF91CF910C94F222AB
:104630000F931F93CF93DF93EC01009145011091ED
:1046400046019C012F5F3F4F42E062E788810E9454
:10465000CB20898190E0982F88272A81822BDF91B7
:10466000CF911F910F9108950F931F939B0100917C
:1046700045011091460164E7FC0180810E94CB2036
:104680001F910F910895EF92FF920F931F93CF9375
:10469000DF93EC01E0904501F09046018C010F5F43
:1046A0001F4F26E046E065E788810E94A7218981A7
:1046B000DF91CF911F910F91FF90EF9008950E948D
:1046C000432391E0843309F090E0892F08950F93FC
:1046D0001F93CF93DF93EC010091450110914601A8
:1046E0009C012F5F3F4F40E060E088810E94822163
:1046F0008981DF91CF911F910F910895262F40E07E
:1047000060E0FC0180810C94E421EF92FF920F9312
:104710001F93CF93DF93EC01E0904501F0904601A9
:104720008C010F5F1F4F26E046E060E088810E9409
:10473000A7218981DF91CF911F910F91FF90EF9079
:1047400008950F93062F26E046E060E0FC0180818B
:104750000E9417220F910895EF92FF920F931F93DB
:10476000CF93DF93EC01E0904501F09046018C017E
:104770000F5F1F4F26E046E061E088810E94A7217D
:104780008981DF91CF911F910F91FF90EF90089554
:104790000F93062F26E046E061E0FC0180810E9435
:1047A00017220F910895EF92FF920F931F93CF93CB
:1047B000DF93EC01E0904501F09046018C010F5F22
:1047C0001F4F26E046E062E088810E94A721898190
:1047D000DF91CF911F910F91FF90EF9008950F936C
:1047E000062F26E046E062E0FC0180810E9417224D
:1047F0000F910895AB0166E0FC0180810C94B92013
:10480000AB0168E0FC0180810C94B920AB016AE047
:10481000FC0180810C94B920AB0163E1FC01808133
:104820000C94B920AB0165E1FC0180810C94B920A6
:10483000AB0167E1FC0180810C94B920262F47E091
:104840006AE6FC0180810C94E42121E043E06AE601
:10485000FC0180810C94E4216F712111606241118F
:104860006064462F6DE6FC0180810C946B20462F1E
:104870006EE6FC0180810C946B20CF93DF93EC01FA
:104880002091450130914601AC014F5F5F4F6FE6CB
:1048900088810E9478218981DF91CF9108955F926C
:1048A0006F927F928F929F92AF92BF92CF92DF9240
:1048B000EF92FF920F931F93CF93DF937C015B01E5
:1048C0006A01622E702E20E040E0662D0E942C24AA
:1048D000602FC7010E943724C0E0D0E0812C9924CA
:1048E0009394CC15DD05A8F5CE014096C816D906DF
:1048F00018F45C2C5C1A02C0A0E15A2E252D30E081
:10490000C401871991098217930714F4572C519405
:10491000009145011091460195012C0F3D1F452D39
:104920006FE6F70180810E94CB20C50DD11D750C6B
:10493000CC15DD05B0F6711001C0639420E040E0B5
:10494000662DC7010E942C24672DC7010E943724C1
:10495000C8CFDF91CF911F910F91FF90EF90DF9023
:10496000CF90BF90AF909F908F907F906F905F900F
:1049700008952F923F924F925F926F927F928F9203
:104980009F92AF92BF92CF92DF92EF92FF920F93DE
:104990001F93CF93DF9300D000D01F92CDB7DEB727
:1049A0009D838C837B836A834A01322ED02EE982D9
:1049B00020E040E0632D0E942C24602F8C819D819B
:1049C0000E943724E980EE2029F080E190E00E94E7
:1049D00005315C01CC2031F080E190E00E9405318E
:1049E000582E492EE12CF12CE814F90408F07AC075
:1049F000C70140968816990618F4282C2E1802C074
:104A000010E1212E222D30E080E091E08D199109F6
:104A10008217930714F42D2C2194EA81FB81EE0D6B
:104A2000FF1DCC2059F0852DA52DB42D9A2F981B54
:104A3000921530F494919D933196F8CF5E2E4F2EBF
:104A4000252D342D422D6FE6AC81BD818C910E94C5
:104A50003220622C712CB981BB2369F1A114B104FD
:104A600051F120E040E0632D8C819D810E942C2437
:104A70006D2D8C819D810E943724009145011091FC
:104A800046019501422D6FE6EC81FD8180810E94F7
:104A9000CB20A301B501852D942D0E94AD35892B26
:104AA00051F0C5010E949D31CC2049F1852D942DF6
:104AB0000E949D3124C0E60CF71CD20CE814F904C6
:104AC00008F092CFD11001C0339420E040E0632D74
:104AD0008C819D810E942C246D2D8C819D810E9452
:104AE000372482CFF981FF2319F0C5010E949D313F
:104AF000CC2039F0852D942D0E949D3102C080E09C
:104B000001C081E00F900F900F900F900F90DF91F8
:104B1000CF911F910F91FF90EF90DF90CF90BF90BA
:104B2000AF909F908F907F906F905F904F903F904D
:104B30002F900895CF92EF920F93CC24C3940E94AC
:104B4000B9240F91EF90CF9008952F923F924F92FA
:104B50005F926F927F928F929F92AF92BF92CF920D
:104B6000DF92EF92FF920F931F93CF93DF9300D0CA
:104B70001F92CDB7DEB74C017B836A833A01D22EF8
:104B8000222331F088E090E00E940531182FF92EA1
:104B9000212C312C2614370408F051C0EA81FB8106
:104BA000E20DF31DC10103965C01DD20C1F04491CB
:104BB000F10131968A819B81E80FF91F0491F1017F
:104BC0003296E80FF91F5490511044C0F4E02F0EB4
:104BD000311CEA81FB81EA0DFB1D84910DC04081EF
:104BE00001815280EA81FB81E80FF91F51100DC04D
:104BF00084E0280E311C80818130D1F442E368E3E7
:104C0000F40180810E946B20C5CF1E2FFF2E452C02
:104C1000512CC12CEE24E394242FA201612F7F2D6F
:104C2000C4010E94B92412012A0C3B1C8111B2CF8D
:104C3000DD2061F0812F9F2D0E949D3107C0DD2076
:104C400039F0812F9F2D0E949D3102C080E024C049
:104C500081E022C0252C312CF2E0F51548F4B10199
:104C6000812F9F2D49830E942C32182FF92E4981C4
:104C7000812F9F2DA0E0B0E02A813B812A0D3B1DB2
:104C8000A215B30520F6F901EA0FFB1F5491FC01B0
:104C90005193CF011196F4CF0F900F900F90DF91A9
:104CA000CF911F910F91FF90EF90DF90CF90BF9029
:104CB000AF909F908F907F906F905F904F903F90BC
:104CC0002F90089521E00C94A525462F60E7FC0164
:104CD00080810C946B20462F61E7FC0180810C944D
:104CE0006B208230E8F4E82FF0E0EE0FFF1FE05376
:104CF000FB4F71836083813041F0809169008C7F2C
:104D0000842B80936900E89A089580916900440F8C
:104D1000551F440F551F837F842B80936900E99AA8
:104D200008951F920F920FB60F9211242F933F9365
:104D30004F935F936F937F938F939F93AF93BF93A3
:104D4000EF93FF938091D0049091D104892B29F0A7
:104D5000E091D004F091D1040995FF91EF91BF91BA
:104D6000AF919F918F917F916F915F914F913F9103
:104D70002F910F900FBE0F901F9018951F920F92BA
:104D80000FB60F9211242F933F934F935F936F931E
:104D90007F938F939F93AF93BF93EF93FF938091F4
:104DA000D2049091D304892B29F0E091D204F091A0
:104DB000D3040995FF91EF91BF91AF919F918F918E
:104DC0007F916F915F914F913F912F910F900FBE07
:104DD0000F901F9018951F920F920FB60F921124EB
:104DE0002F933F938F939F93AF93BF938091D5045D
:104DF0009091D604A091D704B091D8043091D404F6
:104E000023E0230F2D3720F40196A11DB11D05C00D
:104E100026E8230F0296A11DB11D2093D404809390
:104E2000D5049093D604A093D704B093D80480916E
:104E3000D9049091DA04A091DB04B091DC040196CE
:104E4000A11DB11D8093D9049093DA04A093DB04D3
:104E5000B093DC04BF91AF919F918F913F912F91BF
:104E60000F900FBE0F901F9018952FB7F894609178
:104E7000D5047091D6048091D7049091D8042FBFA7
:104E800008953FB7F8948091D9049091DA04A091E5
:104E9000DB04B091DC0426B5A89B05C02F3F19F0B8
:104EA0000196A11DB11D3FBF6627782F892F9A2F2C
:104EB000620F711D811D911D42E0660F771F881FD3
:104EC000991F4A95D1F70895CF92DF92EF92FF9202
:104ED000CF93DF936B017C010E944127EB01C1144A
:104EE000D104E104F10489F00E94392D0E94412788
:104EF0006C1B7D0B683E734090F381E0C81AD108AB
:104F0000E108F108C851DC4FEACFDF91CF91FF9063
:104F1000EF90DF90CF900895789484B5826084BD3F
:104F200084B5816084BD85B5826085BD85B58160AD
:104F300085BDEEE6F0E0808181608083E1E8F0E00D
:104F40001082808182608083808181608083E0E83C
:104F5000F0E0808181608083E1EBF0E0808184601B
:104F60008083E0EBF0E0808181608083EAE7F0E01D
:104F70008081846080838081826080838081816081
:104F800080838081806880831092C10008951F9380
:104F9000CF93DF93182FEB0161E00E944F282097F9
:104FA00011F460E004C0CF3FD10539F461E0812FF6
:104FB000DF91CF911F910C948828E12FF0E0E45D00
:104FC000F64FE491E330F9F048F4E130B9F0E23023
:104FD000A1F584B5806284BDC8BD34C0E730E9F076
:104FE000E83019F1E43049F58091800080628093C7
:104FF0008000D0938B00C0938A0024C084B5806861
:1050000084BDC7BD1FC080918000806880938000F0
:10501000D0938900C093880015C08091B00080684B
:105020008093B000C093B3000DC08091B000806247
:105030008093B000C093B40005C0C038D1050CF017
:10504000B5CFAFCFDF91CF911F910895833081F01D
:1050500028F4813099F08230A1F008958730A9F0CA
:105060008830B9F08430D1F4809180008F7D03C006
:10507000809180008F7780938000089584B58F772A
:1050800002C084B58F7D84BD08958091B0008F7774
:1050900003C08091B0008F7D8093B0000895CF93BE
:1050A000DF9390E0FC01E05CF64F2491FC01EC5AA8
:1050B000F64F8491882349F190E0880F991FFC01F5
:1050C000E458F64FA591B4918E58964FFC01C591C6
:1050D000D4919FB7611108C0F8948C9120958223D8
:1050E0008C93888182230AC0623051F4F8948C91A9
:1050F000322F309583238C938881822B888304C040
:10510000F8948C91822B8C939FBFDF91CF9108955F
:105110000F931F93CF93DF931F92CDB7DEB7282F46
:1051200030E0F901E45DF64F8491F901E05CF64F5F
:105130001491F901EC5AF64F04910023C9F0882329
:1051400021F069830E9426286981E02FF0E0EE0FAC
:10515000FF1FEE58F64FA591B4919FB7F8948C912C
:10516000611103C01095812301C0812B8C939FBFD7
:105170000F90DF91CF911F910F910895CF93DF93FF
:10518000282F30E0F901E45DF64F8491F901E05CED
:10519000F64FD491F901EC5AF64FC491CC2391F01B
:1051A00081110E942628EC2FF0E0EE0FFF1FE85936
:1051B000F64FA591B4912C912D2381E090E021F43C
:1051C00080E002C080E090E0DF91CF910895FC0183
:1051D000818D228D90E0805C9F4F821B91098F739F
:1051E00099270895FC01918D828D981731F0828D59
:1051F000E80FF11D858D90E008958FEF9FEF0895E2
:10520000FC01918D828D981761F0828DDF01A80FCE
:10521000B11D5D968C91928D9F5F9F73928F90E0F0
:1052200008958FEF9FEF089584E89AE2892B49F063
:1052300080E090E0892B29F00E94842A81110C944F
:1052400000000895FC01848DDF01A80FB11DA35A51
:10525000BF4F2C91848D90E001968F739927848F96
:10526000A689B7892C93A089B1898C9180648C938D
:10527000938D848D981306C00288F389E02D808178
:105280008F7D80830895CF93DF93EC01888D8823F1
:10529000C9F0EA89FB89808185FD05C0A889B989A3
:1052A0008C9186FD0FC00FB607FCF5CF808185FF7E
:1052B000F2CFA889B9898C9185FFEDCFCE010E94EC
:1052C0002229E7CFDF91CF910895CF92DF92FF920D
:1052D0000F931F93CF93DF931F92CDB7DEB76C016F
:1052E000DC015B969C915B975C968C915C97981324
:1052F00007C05096ED91FC915197808185FD32C099
:10530000F601038D10E00F5F1F4F0F731127F02E72
:10531000F601848DF81211C00FB607FCF9CFD60143
:105320005096ED91FC915197808185FFF1CFC60198
:1053300069830E9422296981EBCF838DE80FF11DDB
:10534000E35AFF4F6083D6015B960C935B975296AE
:10535000ED91FC91539780818062808381E0589623
:105360008C930DC0D6015696ED91FC9157976083B2
:105370005096ED91FC91519780818064808381E00B
:1053800090E00F90DF91CF911F910F91FF90DF90F0
:10539000CF900895BF92CF92DF92EF92FF92CF937A
:1053A000DF93EC016A017B01B22EE889F98982E082
:1053B0008083411581EE580761057105A1F060E019
:1053C00079E08DE390E0A70196010E94A43021507E
:1053D000310941095109569547953795279521156A
:1053E00080E1380798F0E889F989108260E874E86C
:1053F0008EE190E0A70196010E94A430215031096E
:10540000410951095695479537952795EC85FD85B6
:105410003083EE85FF852083188EEC89FD89B0826C
:10542000EA89FB89808180618083EA89FB898081A8
:1054300088608083EA89FB89808180688083EA892B
:10544000FB8980818F7D8083DF91CF91FF90EF90EA
:10545000DF90CF90BF9008951F920F920FB60F92DA
:1054600011242F938F939F93EF93FF93E091ED047B
:10547000F091EE048081E091F304F091F40482FD58
:1054800012C090818091F6048F5F8F732091F70492
:10549000821751F0E091F604F0E0E352FB4F958F54
:1054A0008093F60401C08081FF91EF919F918F91CD
:1054B0002F910F900FBE0F901F9018951F920F9273
:1054C0000FB60F9211242F933F934F935F936F93D7
:1054D0007F938F939F93AF93BF93EF93FF938DED44
:1054E00094E00E942229FF91EF91BF91AF919F918B
:1054F0008F917F916F915F914F913F912F910F907D
:105500000FBE0F901F9018958DED94E00E94E72834
:1055100021E0892B09F420E0822F08951092E00405
:105520001092DF0488EE93E0A0E0B0E08093E10405
:105530009093E204A093E304B093E40487E492E040
:105540009093DE048093DD0485EC90E09093EA0470
:105550008093E90484EC90E09093EC048093EB0456
:1055600080EC90E09093EE048093ED0481EC90E069
:105570009093F0048093EF0482EC90E09093F20417
:105580008093F10486EC90E09093F4048093F3040C
:105590001092F6041092F7041092F8041092F90495
:1055A000089508950E948C270E94D12A0E94EB1032
:1055B000C4E1D9E20E942D172097E1F30E9414293B
:1055C000F9CFCF92DF92EF92FF920F931F93CF9379
:1055D000DF936C017A01EB01E60EF71E00E010E0AC
:1055E000CE15DF0561F06991D601ED91FC91019036
:1055F000F081E02DC6010995080F191FF1CFC801F0
:10560000DF91CF911F910F91FF90EF90DF90CF909E
:1056100008956115710581F0DB010D900020E9F717
:10562000AD0141505109461B570BDC01ED91FC9136
:105630000280F381E02D099480E090E008950C94BD
:10564000092BDC01ED91FC910190F081E02D099492
:105650000F931F93CF93DF93EC016DE00E94212BFA
:105660008C016AE0CE010E94212B800F911FDF91F7
:10567000CF911F910F9108950F931F93CF93DF93B5
:10568000EC010E94092B8C01CE010E94282B800F77
:10569000911FDF91CF911F910F9108958F929F924B
:1056A000AF92BF92CF92DF92EF92FF920F931F9330
:1056B000CF93DF93CDB7DEB7A1970FB6F894DEBFD7
:1056C0000FBECDBF7C01C42EE52FCB01D22E19A277
:1056D00021E02D1510F02AE0D22E8E010F5D1F4F14
:1056E0008D2C912CA12CB12C6C2D7E2FA501940119
:1056F0000E94A4308C2DD29E8019112401501109D2
:105700008A3014F4805D01C0895CF8018083211522
:1057100031054105510521F0C22EE32FCA01E4CF26
:10572000B801C7010E94092BA1960FB6F894DEBFFD
:105730000FBECDBFDF91CF911F910F91FF90EF90E2
:10574000DF90CF90BF90AF909F908F900895CF92B1
:10575000DF92EF92FF920F931F93CF93DF93EC01B1
:105760006A017B012115310579F4E881F981019005
:10577000F081E02D642FDF91CF911F910F91FF9069
:10578000EF90DF90CF9009942A303105E9F477FF4C
:105790001AC06DE20E94212B8C0144275527BA01C3
:1057A0004C195D096E097F092AE0CE010E944E2B3B
:1057B000800F911FDF91CF911F910F91FF90EF907C
:1057C000DF90CF9008952AE0B701A601CE01DF91C6
:1057D000CF911F910F91FF90EF90DF90CF900C949D
:1057E0004E2B2115310541F4DC01ED91FC91019026
:1057F000F081E02D642F09940C944E2B9A01462FD2
:1058000050E060E070E00C94F12B4F925F926F9249
:105810007F928F929F92AF92BF92CF92DF92EF9240
:10582000FF920F931F93CF93DF93EC016A017B01EB
:10583000B22E9A01AB01C701B6010E947B308823CA
:1058400019F063E572E027C026013701E89477F884
:105850002FEF3FEF4FE75FE7C301B2010E947B30BC
:1058600081110DC02FEF3FEF4FE75FE7C301B2019A
:105870000E94012E18161CF467E572E00CC02FEF91
:105880003FEF4FE75FE4C701B6010E94C22F181631
:10589000ACF46BE572E0CE01DF91CF911F910F91D7
:1058A000FF90EF90DF90CF90BF90AF909F908F9040
:1058B0007F906F905F904F900C94092B2FEF3FEFEC
:1058C0004FE75FECC701B6010E94012E87FDE1CFD3
:1058D00020E030E0A901C701B6010E94012E87FF38
:1058E0000AC06DE2CE010E94212B8C01F7FAF094E0
:1058F000F7F8F09402C000E010E0A12C60E070E046
:1059000080E09FE3AB1441F020E030E040E251E45E
:105910000E94082EA394F6CF9B01AC01C701B601EB
:105920000E943B2D6B017C010E94752E2B013C01D6
:105930000E94A12E9B01AC01C701B6010E943A2D25
:105940006B017C012AE0B301A201CE010E944E2B23
:10595000080F191FBB2039F06FE572E0CE010E94DD
:10596000092B080F191F7B2C772041F120E030E034
:1059700040E251E4C701B6010E94CD2F6B017C01CA
:105980000E94702E4B01AA2497FCA094BA2C2AE006
:1059900030E0B501A401CE010E94A72B080F191F0A
:1059A000C501B4010E94A32E9B01AC01C701B60141
:1059B0000E943A2D6B017C017A94D6CFC801DF9109
:1059C000CF911F910F91FF90EF90DF90CF90BF90FC
:1059D000AF909F908F907F906F905F904F900895C1
:1059E0000C94052C4F925F926F927F92AF92BF9270
:1059F000CF92DF92EF92FF920F931F93CF93DF939B
:105A0000CDB7DEB729013A01621B730B840B950BEE
:105A100029893A894B895C892A193B094C095D0916
:105A2000298B3A8B4B8B5C8B9B01AC0169897A8902
:105A30008B899C890E949430E418F508060917099F
:105A4000A80197010E94C6302A0D3B1D4C1D5D1D0B
:105A5000CA01B901DF91CF911F910F91FF90EF9093
:105A6000DF90CF90BF90AF907F906F905F904F90FE
:105A7000089508955058BB27AA270ED038C201D2E6
:105A800030F006D220F031F49F3F11F41EF4C0C173
:105A90000EF4E095E7FBB6C1E92F4BD280F3BA17BD
:105AA000620773078407950718F071F49EF563C2C7
:105AB0000EF4E0950B2EBA2FA02D0B01B901900129
:105AC0000C01CA01A0011124FF27591B99F0593F6D
:105AD00050F4503E68F11A16F040A22F232F342FB5
