:100000000C9412050C9454270C9481270C943A05F7
:100010000C943A050C943A050C943A050C943A0564
:100020000C943A050C943A050C943A050C943A0554
:100030000C943A050C943A050C943A050C943A0544
:100040000C94AE270C943A050C94EF2A0C94212BB7
:100050000C943A050C943A050C943A050C943A0524
:100060000C9407260C943A05084AD73B3BCE016E08
:1000700084BCBFFDC12F3D6C74319ABD56833DDAFF
:100080003D00C77F11BED9E4BB4C3E916BAAAABE0E
:10009000000000803F05A84CCDB2D44EB93836A937
:1000A000020C50B9918688083CA6AAAA2ABE000074
:1000B00000803F002F2F2050696C6F742056325201
:1000C000312E313020286329207370696B656433C9
:1000D0002E636F6D0A005355423A436D642F002F13
:1000E0002F212036303530206661696C6564202808
:1000F000002F2F2120636D6447656F6D002F2F2027
:10010000636D6454657374310A0001B202FFFF012C
:1001100090040923A135016A02060001600800006D
:1001200000000000000000600440000000016202C6
:10013000000000600400400000037B034CCD6C0312
:10014000AB0336567600680402CB47A202180400BF
:10015000058BC1010C0400000000037F060CC92CB4
:10016000979797038903264666006C022000024099
:1001700004000000000244040000000002480400E3
:10018000000000024C0400000000025004000000C7
:1001900000025404000000000258040000000002A5
:1001A0005C040000000002BC040000000001EC043C
:1001B00000004000037F060CC92C979797040203A8
:1001C0000D355D040904872D353D00A301000000B5
:1001D0000001078601FE074105F120283038077E1F
:1001E00001300746019A074704F1283038076C04AC
:1001F000F12830380216020001FB00003E000B001F
:1002000036000100020003000000650054FFEF000B
:1002100000FA80000B1282000100020000000000C2
:1002200000000000000000000000280000FFFF4563
:1002300081FFFFFA7200000000000003E8000000E8
:100240000100017FFFFFFE8001001B000000000095
:10025000000000000000000000003E0330400000ED
:100260000002CAE3093E80000020000000000000F8
:1002700000400000006000000041FF000000000B93
:100280002A0000165500002182FD872650FD8000BF
:1002900000001F00000005800000000000000100B9
:1002A0000000020000000300004000000000000405
:1002B0006F0002653200005EC040000000000000D8
:1002C000000000000000000000FB8C6F5DFD5D0879
:1002D000D9007C733B006C12CC3200139D3200D0ED
:1002E000D632000800400001F4FFE68079020000E9
:1002F000000000D0D600002710FB000000400000E6
:1003000000000000000000000000000001000000EC
:100310000000000100010000000000FA36FFBC30C0
:100320008E0005FBF0FFD95BC8FFD09ABE0000101D
:10033000A9FFF41EB200CEBBF700000001000000D0
:1003400004000200020200000CFFC28000000180D5
:100350000000CF800040000000000000010000000D
:100360000000000600000000140000000000000073
:10037000000000000000000000000000000000007D
:10038000000000000000000000000000000000006D
:1003900000000000000000000000000000033F68B3
:1003A000B6793528BCC67ED16C80000000400000C4
:1003B000000000B26A000000000000000000000021
:1003C0000000003FF00000003000000000000000CE
:1003D000000000000000000000000000000000001D
:1003E0000000000000000000000000254D002F70FC
:1003F0006D000005AE000C02D0000000000065009A
:1004000054FFEF0000000000000000010000440065
:100410000000000C0000000100000000000065006A
:100420000000540000FFEF0000000000000000008A
:10043000000000000000000000400000000000007C
:10044000000000000000000000400000000000006C
:10045000000000000000000000000000010000009B
:10046000020000000000000000000000000000008A
:10047000000000000000000000000000000000007C
:10048000000000000000000000001B000000000051
:10049000000000000000000000000000000000005C
:1004A000000000000000000000000000000000004C
:1004B000000000000040000000001B0000000000E1
:1004C000000000000000000000000000000000002C
:1004D000000000000000000000000000000000001C
:1004E000000000000000000000000000000000000C
:1004F000000000000000000000D8DCBAA2F1DEB26B
:10050000B8B4A88191F74A907F916AF3F9DBA8F912
:10051000B0BAA080F2CE81F3C2F1C1F2C3F3CCA293
:10052000B280F1C6D880BAA7DFDFDFF2A7C3CBC5A0
:10053000B6F087A2942448703C95406834589B7864
:10054000A2F183922D557DD8B1B4B8A1D09180F29B
:1005500070F370F27C80A8F101B09887D943D886F7
:10056000C988BAA1F20EB89780F1A9DFDFDFAADF50
:10057000DFDFF2AAC5CDC7A90CC92C97979797F1D1
:10058000A989264666B0B4BA80ACDEF2CAF1B28C54
:1005900002A9B69800890E161EB8A9B4992C547CED
:1005A000B08AA896365676F1B9AFB4B083C0B8A871
:1005B0009711B18F98B9AFF0240844106418F1A3D3
:1005C00029557DAF83B593AFF0002850F1A3869FE6
:1005D00061A6DADEDFD9FAA38696DB31A6D9F8DF89
:1005E000BAA68FC2C5C7B28CC1B8A2DFDFDFA3DF56
:1005F000DFDFD8D8F1B8A8B286B4980D355DB8AAB7
:1006000098B0872D353DB2B6BAAF8C96198F9FA79B
:100610000E161EB49AB8AA872C547CB9A3DEDFDF6D
:10062000A3B180F2C4CDC9F1B8A9B499830D355DE9
:1006300089B9A32D557DB593A30E161EA92C547C04
:10064000B8B4B0F19783A81184A50998A383F0DA10
:10065000240844106418D8F1A529557DA585950274
:100660001A2E3A565A4048F9F3A3D9F8F098832441
:1006700008441064189782A8F111F098A224084445
:10068000106418DAF3DED883A59401D9A302F1A28D
:10069000C3C5C7D8F18492A24DDA2AD84869D92AAD
:1006A000D86855DA32D85071D932D8705DDA3AD874
:1006B0005879D93AD87893A34DDA2AD84869D92AF3
:1006C000D86855DA32D85071D932D8705DDA3AD854
:1006D0005879D93AD878A88A9AF02850789EF38821
:1006E00018F19F1D98A8D908D8C89F129EF315A885
:1006F000DA1210D8F1AFC8978734B5B994A421F3B2
:10070000D922D8F22DF3D92AD8F235F3D932D881AB
:10071000A4606061D961D86C6869D969D874707156
:10072000D971D8B1A384193D5DA3831A3E5E93109D
:1007300030811011B8B0AF8F94F2DA3ED8B49AA8D5
:100740008729DAF8D8879A35DAF8D8879A3DDAF81F
:10075000D8B1B9A49885022E56A581000C14A39790
:10076000B08AF12DD928D84DD948D86DD968D8B1DB
:10077000840DDA0ED8A32983DA2C0ED8A3844983FA
:10078000DA2C4C0ED8B8B0A88A9AF520AADADFD8AD
:10079000A840AAD0DADED8A860AADAD0DFD8F197CC
:1007A00086A8319B069907AB9728889BF00C2014EC
:1007B00040B8B0B4A88C9CF0042851791D3014388E
:1007C000B282ABD0982C505078789BF11AB0F08A56
:1007D0009CA82951798B2951798A2470598B2058EA
:1007E000718A4469388B3940688A6448318B304952
:1007F00060A588200971584468113964493019F19D
:10080000AC002C547CF08CA804285078F1889726F2
:10081000A85998AC8C02264666F0899CA829517983
:10082000247059446938644831A98809205970AB4B
:1008300011384069A8193148608CA83C415C207C83
:1008400000F187981986A86E767EA999882D557D26
:100850009EB9A38A228A6E8A568A5E9FB183062633
:1008600046660E2E4E6E9DB8AD002C547CF2B18CB7
:10087000B499B9A32D557D8191AC38AD3AB583912A
:10088000AC2DD928D84DD948D86DD968D88C9DAE13
:1008900029D904AED851D904AED879D904D881F376
:1008A0009DAD008DAE1981ADD901D8F2AEDA26D852
:1008B0008E912983A7D9ADADADADF32AD8D8F1B0CB
:1008C000AC89913E5E76F3AC2E2EF1B18C5A9CAC85
:1008D0002C2828289CAC3018A8988128343C9724D0
:1008E000A728343C9C24F2B089AC912C4C6C8A9B98
:1008F0002DD9D8D851D9D8D879D9D8D8F19E88A3AC
:1009000031DAD8D8912DD928D84DD948D86DD968A1
:10091000D8B18393353D8025DAD8D88569DAD8D81F
:10092000B49381A328343CF3AB8BF8A391B609B4FC
:10093000D9ABDEFAB0879CB9A3DDF1A3A3A3A3953D
:10094000F1A3A3A39DF1A3A3A3A3F2A3B49080F268
:10095000A3A3A3A3A3A3A3A3A3A3B2A3A3A3A3A358
:10096000A3B087B599F1A3A3A398F1A3A3A3A397D9
:10097000A3A3A3A3F39BA3A3DCB9A7F1262626D8A0
:10098000D8FF000000080002010000030407000077
:100990000000000000000102040810204080010255
:1009A00004081020010204081020040404040404B4
:1009B0000404020202020202030303030303000011
:1009C0000000230026002900000000002500280068
:1009D0002B0000000000240027002A004E414E4951
:1009E0004E495459494E46CDCCCC3D0AD7233C17ED
:1009F000B7D13877CC2B329595E6241FB14F0A003A
:100A00000020410000C84200401C4620BCBE4CCA29
:100A10001B0E5AAEC59D740047171D1A0B1BE01B19
:100A20002525512B11241FBECFEFD8E0DEBFCDBF4F
:100A300012E0A0E0B1E0E4EFF2E702C005900D9211
:100A4000A637B107D9F726E0A6E7B2E001C01D92AC
:100A5000AE36B207E1F71AE0C4E2DAE004C022974A
:100A6000FE010E94B431C831D107C9F70E94952B0D
:100A70000C9478390C9400001F920F920FB60F92CD
:100A800011242F938F939F93AF93BF9323B1822F02
:100A9000817090E04A9B03C0892B19F00EC0892B0E
:100AA00061F08091580490915904A0915A04B0913A
:100AB0005B040197A109B1090BC080915804909182
:100AC0005904A0915A04B0915B040196A11DB11D77
:100AD0008093580490935904A0935A04B0935B04F4
:100AE000BF91AF919F918F912F910F900FBE0F905B
:100AF0001F9018951F920F920FB60F9211242F93EB
:100B00008F939F93AF93BF9323B121FB882780F9E5
:100B100090E04B9B03C0892B19F00EC0892B61F02C
:100B200080915C0490915D04A0915E04B0915F049B
:100B30000197A109B1090BC080915C0490915D04FB
:100B4000A0915E04B0915F040196A11DB11D809338
:100B50005C0490935D04A0935E04B0935F04BF9126
:100B6000AF919F918F912F910F900FBE0F901F907B
:100B7000189581E008959C01FC01EE5FFE4F808195
:100B80009181680F791F613041E0740730F47183FF
:100B900060830296820F931F089580E090E008958D
:100BA0009C01FC01EE57FF4F80819181680F791FF6
:100BB0006138710530F4718360830296820F931F50
:100BC000089580E090E008959C01FC01EE5BFF4FEA
:100BD00080819181680F791F6134710530F47183D0
:100BE00060830296820F931F089580E090E008953D
:100BF0006DEF70E08BEC95E00E94E22B81E00895B0
:100C000061EF70E08BEC95E00E94E22B80E00895AC
:100C1000CF93DF93EC0166E571E00E94951A0E9484
:100C2000201B609368047093690480936A04909316
:100C30006B0468E571E0CE010E94951A0E94201BAA
:100C400060936404709365048093660490936704D2
:100C50006AE571E0CE010E94951A0E94201B609304
:100C6000600470936104809362049093630481E054
:100C7000DF91CF910895CF93DF93EC016CE571E0A4
:100C80000E94951A0E94201B6EE571E0CE010E9421
:100C9000951A0E94201B81E0DF91CF91089560E6B4
:100CA00071E00E94951A0E942F1B81E008956091C7
:100CB0004C0170914D010E94951A0E942F1B21E05A
:100CC0006130710509F020E02093480181E008952A
:100CD00060914C0170914D010E94951A0E942F1B4A
:100CE00021E06130710509F020E02093DF04622FDC
:100CF0008CE00E944B2981E00895E82FF0E0EE0F90
:100D0000FF1FEE0FFF1FE85AFB4F662371F0808133
:100D10009181A281B3819C01AD0166277727CB0128
:100D2000621B730B840B950B089560817181828126
:100D3000938108950E948C1AFC0181E02081318109
:100D40002230310508F480E00895CF93DF93EC0161
:100D500065E671E00E949A06882319F065E671E065
:100D600009C069E671E0CE010E949A06882339F035
:100D700069E671E0CE010E94951A0E94201BDF9166
:100D8000CF910895CF93DF93EC0160914C01709166
:100D90004D010E94951A0E942F1B21E061307105C0
:100DA00009F020E02093DE0460914A0170914B012C
:100DB000CE010E949A06882369F060914A017091E1
:100DC0004B01CE010E94951A0E942F1B7093430184
:100DD0006093420181E0DF91CF910895CF93DF933B
:100DE000EC0160914C0170914D010E94951A0E9496
:100DF0002F1B21E06130710509F020E02093DD0414
:100E000060914A0170914B01CE010E949A0688239D
:100E100069F060914A0170914B01CE010E94951AD0
:100E20000E942F1B709347016093460181E0DF9180
:100E3000CF9108958F929F92AF92BF92CF92EF92EF
:100E40000F931F93CF93DF93CDB7DEB7C059D1096E
:100E50000FB6F894DEBF0FBECDBF5C010E94DA2052
:100E60006EE170E080E090E00E94272860E0C5011C
:100E70000E94E12021E041E060E1C5010E940F22D3
:100E800066E0C5010E941A22C5010E94202220E0CE
:100E900040E060E0C5010E940F22C5010E9456217A
:100EA000C5010E947421182FC5010E949B21882E24
:100EB000C5010E94C221982E4FE760E0C5010E9443
:100EC0009A2060E0C5010E94C52048E660E0C501A7
:100ED0000E949A20C5010E94D32064E170E080E066
:100EE00090E00E942728EE24E39400E020E049E807
:100EF00057E069EF71E0C5010E947D23882309F462
:100F00000EC240EC50E069E371E0C5010E94452447
:100F1000882309F406C263E0C5010E94E82062E16B
:100F2000C5010E94A62064E0C5010E94502061E036
:100F3000C5010E94562063E0C5010E94612063E064
:100F4000C5010E946C2063E0C5010E94482460E056
:100F5000C5010E944E2460E0C5010E946D21612FF1
:100F6000C5010E949021682DC5010E94B721692DFD
:100F7000C5010E94DE21812C912CF401E65FFE4F19
:100F8000E491A1E8B0E0AC0FBD1FA80DB11DEC933A
:100F900081E0880D9FEF891A990AE3E0E81568F768
:100FA000CD57DF4F4881C358D04050E09A012E5FA3
:100FB0003F4F90E02817390704F7C12CEE24E39443
:100FC000CE57DF4F0881C258D040CF57DF4F28811E
:100FD000C158D04061E870E06C0F7D1F6D5F7F4F9E
:100FE000C5010E949C2260E0F401E65FFE4FE4919F
:100FF000A1E8B0E0AC0FBD1FA60FB11DEC936F5F71
:10100000FFEF8F1A9F0A643078F3CD57DF4F488186
:10101000C358D04050E09A012E5F3F4F862F90E09A
:10102000281739070CF7C12CEE24E394CE57DF4F75
:101030000881C258D040CF57DF4F2881C158D040D7
:1010400061E870E06C0F7D1F6D5F7F4FC5010E94EE
:101050009C22C5010E94CC20C5010E940721482F77
:10106000BE016F5F7F4FC5010E94232162E0C50171
:101070000E9482206CE9C5010E948E2060E5C501B6
:101080000E94882060E0C5010E949420C5010E9452
:10109000CC2061E0C5010E94BE2061E0C5010E9434
:1010A0000122C5010E94082260E0F401E65FFE4FC4
:1010B000E491A1E8B0E0AC0FBD1FA60FB11DEC9309
:1010C0006F5F8FEF881A980A643078F3CD57DF4F3F
:1010D0004881C358D04050E09A012E5F3F4F862F81
:1010E00090E0281739070CF7C12CEE24E394CE5773
:1010F000DF4F0881C258D040CF57DF4F2881C158F9
:10110000D04061E870E06C0F7D1F6D5F7F4FC501BF
:101110000E949C2260E0F401E65FFE4FE491A1E8AA
:10112000B0E0AC0FBD1FA60FB11DEC936F5F9FEF3A
:10113000891A990A643078F3CD57DF4F4881C35834
:10114000D04050E09A012E5F3F4F862F90E0281745
:1011500039070CF7C12CEE24E394CE57DF4F0881FA
:10116000C258D040CF57DF4F2881C158D04061E8E6
:1011700070E06C0F7D1F6D5F7F4FC5010E949C2248
:1011800060E0F401E65FFE4FE491A1E8B0E0AC0F4F
:10119000BD1FA60FB11DEC936F5FEFEF8E1A9E0A75
:1011A000643078F3CD57DF4F4881C358D04050E0CA
:1011B0009A012E5F3F4F862F90E0281739070CF7D2
:1011C000C12CEE24E394CE57DF4F0881C258D040A3
:1011D000CF57DF4F2881C158D04061E870E06C0FD5
:1011E0007D1F6D5F7F4FC5010E949C22C5010E943B
:1011F000072183309105D0F3482FBE016F5F7F4FE9
:10120000C5010E942321C5010E94AC2060E0F401C9
:10121000E65FFE4FE491A1E8B0E0AC0FBD1FA60F62
:10122000B11DEC936F5FFFEF8F1A9F0A643078F364
:10123000CD57DF4F4881C358D04050E09A012E5F10
:101240003F4F862F90E0281739070CF7CE57DF4F16
:101250000881C258D040CF57DF4F2881C158D040B5
:1012600061E870E06C0F7D1F6D5F7F4FC5010E94CC
:101270003222C5010E94072183309105D0F3482F07
:10128000BE016F5F7F4FC5010E942321C5010E94EF
:10129000AC20F401E65FFE4F60E08491A1E8B0E08D
:1012A000AC0FBD1FA60FB11D8C936F5F643010F49F
:1012B0003196F3CFCD57DF4F4881C358D04050E02F
:1012C0009A012E5F3F4F862F90E02817390784F749
:1012D00061E870E06C0F7D1F6D5F7F4FC12CEE24C5
:1012E000E394CE57DF4F0881C258D040CF57DF4F2D
:1012F0002881C158D040C5010E949C2260E0C501F0
:101300000E9401228AE290E0F50193838283C50165
:101310000E94CC20C5010E94AC2080E003C081E087
:1013200001C082E0C057DF4F0FB6F894DEBF0FBE9A
:10133000CDBFDF91CF911F910F91EF90CF90BF90D4
:10134000AF909F908F900895CF93DF93DB01FA01C8
:10135000309719F4EC01E881F981808190E0982FB1
:1013600088272181820F911D11969C938E938481F1
:1013700090E0982F88272581820F911D13969C93CA
:101380008E931297808590E0982F88272185820F71
:10139000911D15969C938E931497848590E0982FB9
:1013A00088272585820F911D17969C938E931697FB
:1013B00080E0DF91CF910895FF920F931F93CF9319
:1013C000DF93CDB7DEB728970FB6F894DEBF0FBE18
:1013D000CDBF8B01BE016F5F7F4F0E94A409F82E25
:1013E00081114CC069817A81882777FD8095982F7B
:1013F0000E94652F20E030E040E858E30E948F30E3
:10140000F80160837183828393836B817C81882759
:1014100077FD8095982F0E94652F20E030E040E80E
:1014200058E30E948F30F801648375838683978325
:101430006D817E81882777FD8095982F0E94652F8A
:1014400020E030E040E858E30E948F30F8016087E8
:101450007187828793876F817885882777FD80954C
:10146000982F0E94652F20E030E040E858E30E946A
:101470008F30F80164877587868797878F2D289628
:101480000FB6F894DEBF0FBECDBFDF91CF911F9195
:101490000F91FF9008954F925F926F927F928F927B
:1014A0009F92AF92BF92CF92DF92EF92FF920F93F3
:1014B0001F93CF93DF93CDB7DEB728970FB6F8947D
:1014C000DEBF0FBECDBF8B01DA011496CD90DD904B
:1014D000ED90FC9017971C964D905D906D907C90D0
:1014E0001F978D909D90AD90BC90139718968D91FD
:1014F0009D910D90BC91A02D89839A83AB83BC8371
:10150000A3019201C701B6010E948F306D837E83D3
:101510008F83988729813A814B815C81C501B40111
:101520000E948F309B01AC016D817E818F819885F7
:101530000E94FC2D9B01AC010E94FD2DF8016083EF
:10154000718382839383A7019601C501B4010E9430
:101550008F306D837E838F839887A3019201698189
:101560007A818B819C810E948F309B01AC016D81BF
:101570007E818F8198850E94FD2D9B01AC010E9488
:10158000FD2DD80114966D937D938D939C931797A1
:10159000A5019401C501B4010E948F304B015C018B
:1015A000A7019601C701B6010E948F309B01AC01D3
:1015B000C501B4010E94FC2D6B017C0129813A8197
:1015C0004B815C81CA01B9010E948F309B01AC0143
:1015D000C701B6010E94FC2D6B017C01A3019201A1
:1015E000C301B2010E948F309B01AC01C701B6015B
:1015F0000E94FD2DF801608771878287938780E0C4
:1016000028960FB6F894DEBF0FBECDBFDF91CF9105
:101610001F910F91FF90EF90DF90CF90BF90AF9010
:101620009F908F907F906F905F904F9008952F9232
:101630003F924F925F926F927F928F929F92AF9262
:10164000BF92CF92DF92EF92FF920F931F93CF93AF
:10165000DF9300D000D000D0CDB7DEB71B018A01E8
:101660003E832D83FA01C080D180E280F380A70100
:101670009601C701B6010E94FD2D69837A838B8391
:101680009C83F80184809580A680B780A501940191
:10169000C501B4010E94FD2D2B013C01A70196015B
:1016A00069817A818B819C810E948F306B017C01E2
:1016B000A5019401C301B2010E948F309B01AC01CE
:1016C000C701B6010E94FD2D20E030E040E85FE355
:1016D0000E94FC2D6B017C01F8012085318542853B
:1016E0005385C301B2010E948F302B013C01F801E8
:1016F000248535854685578569817A818B819C81D2
:101700000E948F309B01AC01C301B2010E94FC2DED
:10171000A70196010E94702EF1016083718382837C
:101720009383ED81FE816481758186819781C08478
:10173000D184E284F3849B01AC010E948F304B0181
:101740005C01A7019601C701B6010E948F309B0181
:10175000AC01C501B4010E94FD2D0E94FC309B012B
:10176000AC01ED81FE8160817181828193810E9453
:10177000CA2E0E949B2EF101648375838683978312
:10178000ED81FE816081718182819381C084D184E9
:10179000E284F3849B01AC010E948F304B015C0119
:1017A000A7019601C701B6010E948F309B01AC01D1
:1017B000C501B4010E94FD2D0E94FC309B01AC01CB
:1017C000ED81FE8164817581868197810E94CA2E98
:1017D0000E949B2EF101608771878287938780E04A
:1017E00026960FB6F894DEBF0FBECDBFDF91CF9126
:1017F0001F910F91FF90EF90DF90CF90BF90AF902F
:101800009F908F907F906F905F904F903F902F9020
:1018100008954F925F926F927F928F929F92AF92B4
:10182000BF92CF92DF92EF92FF920F931F93CF93CD
:10183000DF93EC017B01882777FD8095982F0E942C
:10184000652F2B013C019B01AC0168A979A98AA9EC
:101850009BA90E94C32E8823A1F18884F7FE03C0B0
:1018600081E08825882EB701F7FE03C07195619548
:101870007109882777FD8095982F1F921F921F92DC
:101880002FEF2F93A12CB12C650114E6E12EF12C42
:1018900000E010E020E030E0A9010E94B42D6B01CF
:1018A0007C01682D8D810E944B29B6018C810E949C
:1018B0008A2848AA59AA6AAA7BAA0F900F900F906B
:1018C0000F90DF91CF911F910F91FF90EF90DF90DC
:1018D000CF90BF90AF909F908F907F906F905F90D0
:1018E0004F9008952F923F924F925F926F927F9206
:1018F0008F929F92AF92BF92CF92DF92EF92FF9220
:101900000F931F93CF93DF93CDB7DEB72C970FB60E
:10191000F894DEBF0FBECDBF1C012A013B01098731
:101920001A872B873C8720E030E040EC5EE3DC0147
:10193000D8966D917D918D919C91DB970E948F300F
:1019400069837A838B839C8320E030E040E25FE30D
:10195000C301B2010E948F309B01AC0169817A8181
:101960008B819C810E94FD2D6D837E838F83988760
:10197000F10160AF71AF82AF93AF20E030E040E49F
:101980005FE364AD75AD86AD97AD0E948F3069831E
:101990007A838B839C8320E030E040E85EE3C301E0
:1019A000B2010E948F309B01AC0169817A818B81E9
:1019B0009C810E94FD2D2B013C01D101DC966D9391
:1019C0007D938D939C93DF97D4968D919D910D90EF
:1019D000BC91A02D89839A83AB83BC832D813E81EA
:1019E0004F81588569857A858B859C850E948F30CB
:1019F0009B01AC0169817A818B819C810E94FD2DC4
:101A000069877A878B879C87A30192016D817E818C
:101A10008F8198850E94FC2D9B01AC01C501B4010A
:101A20000E948F3029A13AA14BA15CA10E94CA2E2D
:101A30009B01AC0169857A858B859C850E94FD2D73
:101A40004B015C0129813A814B815C810E94FC2D14
:101A50009B01AC01C701B6010E948F3029A13AA1B8
:101A60004BA15CA10E948F309B01AC0169817A81FE
:101A70008B819C810E94FD2D6B017C0120E030E078
:101A800048EC52EC0E94C32E87FD0FC020E030E0EE
:101A900048EC52E4B601C7010E948430181654F491
:101AA000C12CD12C38EC22E407C0C12CD12C38EC4D
:101AB00022EC02C03E2D2F2DC601A32FB22FF10123
:101AC00084AB95ABA6ABB7ABC501B4012C960FB6F2
:101AD000F894DEBF0FBECDBFDF91CF911F910F9164
:101AE000FF90EF90DF90CF90BF90AF909F908F903E
:101AF0007F906F905F904F903F902F9008952F921E
:101B00003F924F925F926F927F928F929F92AF928D
:101B1000BF92CF92DF92EF92FF920F931F93CF93DA
:101B2000DF9300D000D000D0CDB7DEB79E838D8389
:101B30002A013B014801590120E030E0A901C5011B
:101B4000B4010E948430181624F0B7FAB094B7F8A4
:101B5000B09481E0AD81BE811F968C930E94F827DE
:101B6000ED81FE81608B718B828B938B86859701D3
:101B7000442737FD4095542F29833A834B835C8358
:101B80008F01085B1F4F8111FCC0608587810E9417
:101B90007D0629813A814B815C81261B370B480BDE
:101BA000590B1216130614061506A4F4AD81BE8156
:101BB00018966C91189717968C910E947D06298132
:101BC0003A814B815C81261B370B480B590BCA01AC
:101BD000B90111C0AD81BE8118966C911897179606
:101BE0008C910E947D0629813A814B815C81621B28
:101BF000730B840B950B0E94652F20E030E040E4CE
:101C000050E40E94C32E87FFBCC0F80110821182ED
:101C100012821382F80140805180628073802D808F
:101C20003E80FCE42F0E311CD101CD90DD90ED9073
:101C3000FC90A7019601C301B2010E94FC2D20E097
:101C400030E0A9010E94843087FF04C0B7FAB09445
:101C5000B7F8B094ED81FE81808E918EA28EB38E06
:101C6000A3019201C701B6010E94FC2DA5019401B8
:101C70000E94CA2E20E030E04AE754E40E948F30F0
:101C80000E94372F4B015C01AD81BE8190966D9310
:101C90007D938D939C939397A3019201C701B60105
:101CA0000E94FD2D6B017C01C501B4010E94632FD0
:101CB0009B01AC01C701B6010E948F3020E030E0EB
:101CC0004AEF54E40E94CA2E0E94322FED81FE8119
:101CD00060A771A782A793A7608587810E947D0670
:101CE000AD81BE8194966D937D938D939C939797D0
:101CF000F101C080D180E280F3805496CD92DD92D4
:101D0000ED92FC92579729813A814B815C819C9698
:101D10002D933D934D935C939F9720E030E0A90174
:101D2000F80160817181828193810E94C32E11E04C
:101D300081110AC020E030E0A901C701B6010E946C
:101D4000C32E811101C010E0AD81BE811E961C938F
:101D500026960FB6F894DEBF0FBECDBFDF91CF91B0
:101D60001F910F91FF90EF90DF90CF90BF90AF90B9
:101D70009F908F907F906F905F904F903F902F90AB
:101D80000895AD81BE8118966C91189717968C9125
:101D90000E947D0629813A814B815C81261B370B8D
:101DA000480B590B57FF04C077FA709477F870947A
:101DB000D8014D925D926D927C9213972BCF4F92EA
:101DC0005F926F927F928F929F92AF92BF92CF92CB
:101DD000DF92EF92FF920F931F93CF93DF93EC016B
:101DE0006B015A0128013901FC01E85BFF4F20E03B
:101DF00030E0A90160817181828193810E94C32EAC
:101E00008823B1F0B50180E090E00E94632F4B0180
:101E10005C01B601882777FD8095982F0E94652F79
:101E2000AB01BC01720195018401CE010E947F0DBE
:101E3000DF91CF911F910F91FF90EF90DF90CF90A6
:101E4000BF90AF909F908F907F906F905F904F90DA
:101E500008950F931F93CF93DF93EC010FEF1FEFC4
:101E60002FEF3FE748EE53E060E070E00E94DF0EA6
:101E7000EF8119861A861B861C861CA21DA21EA233
:101E80001FA284E0E89FF0011124E85AFB4F108262
:101E90001182128213820E94F827688B798B8A8BB9
:101EA0009B8BDF91CF911F910F910895CF92EF926D
:101EB000FF920F931F93CF93DF93EC01F42E122F19
:101EC0001B8243E050E00E949536FC821D830E8306
:101ED000EF82C8868091DF04882341F061E08F2D76
:101EE0000E94122961E0812F0E941229CE01DF9108
:101EF000CF911F910F91FF90EF90CF900C94290FED
:101F0000CF93DF93EC018BED93E00E94290F8FE7D5
:101F100093E00E94290F1092E4041092E5041092BD
:101F2000E6041092E7041092E8041092E90410927B
:101F3000EA041092EB041092EC041092ED0410925B
:101F4000EE041092EF046EE571E0CE010E949A0655
:101F5000882379F06EE571E0CE010E94951A0E9407
:101F6000201B6093EC047093ED048093EE04909337
:101F7000EF046CE571E0CE010E949A06882379F0A7
:101F80006CE571E0CE010E94951A0E94201B6093BF
:101F9000E8047093E9048093EA049093EB046DE6FF
:101FA00071E0CE010E949A068823A9F06DE671E0E7
:101FB000CE010E94951A0E94201B25E33AEF4EE8BD
:101FC0005CE30E948F306093E4047093E504809397
:101FD000E6049093E70420916C0430916D044091E5
:101FE0006E0450916F046091E4047091E504809157
:101FF000E6049091E7040E94FD2D6093E004709345
:10200000E1048093E2049093E30481E0DF91CF91B7
:1020100008950F931F93CF93DF93EC018091DF041A
:10202000882309F44EC06AEE71E0CE010E949A0640
:10203000882301F16AEE71E0CE010E94951A0E9498
:102040002F1B77FD05C00FEF1FEF2FEF3FE704C0F9
:1020500001E010E020E030E8FB0177FF04C0EE274C
:10206000FF27E61BF70B40E757E1BF018BED93E03D
:102070000E94DF0E63EA71E0CE010E949A06882377
:1020800001F163EA71E0CE010E94951A0E942F1BB4
:1020900077FD05C00FEF1FEF2FEF3FE704C001E012
:1020A00010E020E030E8FB0177FF04C0EE27FF27B7
:1020B000E61BF70B40E757E1BF018FE793E00E9473
:1020C000DF0E81E0DF91CF911F910F910895EF9284
:1020D000FF920F931F93FC0125852687222389F009
:1020E0001586EC5AFF4FE080F18034970081118112
:1020F00022813381389640815181628173810E94AF
:102100007F0D1F910F91FF90EF9008952F923F92B6
:102110004F925F926F927F928F929F92AF92BF92F7
:10212000CF92DF92EF92FF920F931F93CF93DF93A3
:10213000CDB7DEB762970FB6F894DEBF0FBECDBF46
:102140009A8B898B0E94F82769837A838B839C837F
:10215000E989FA8980899189A289B389248D358D8D
:10216000468D578D2D833E834F83588726852223A6
:1021700009F468C1C980DA80EB80FC80C81AD90AEA
:10218000EA0AFB0A20A131A142A153A180A491A493
:10219000A2A4B3A4E45BFF4F1F01C216D306E4065A
:1021A000F50608F058C0A7019601C501B4010E94C8
:1021B00056310E94632FA989BA8954962D913D9179
:1021C0004D915C9157970E94FD2D20E030E04AE749
:1021D00054E40E94CA2E4B015C01F10160837183BB
:1021E00082839383A989BA8994966D917D918D910B
:1021F0009C9197970E94652F9B01AC01C501B4018A
:102200000E94FD2D4B015C01C701B6010E94632FA6
:102210009B01AC01C501B4010E948F3020E030E089
:102220004AEF54E40E94CA2E0E94322F6B017C01B7
:10223000E989FA89608587810E947D06A701960158
:10224000261B370B480B590BCA01B9010E94652F99
:102250002B013C01A7C009891A89085B1F4FD801CF
:102260004D905D906D907C9040825182628273822D
:10227000A989BA8994966D917D918D919C9197973A
:10228000680D791D8A1D9B1D2D873E874F87588BB2
:102290000E94652F4B015C012D853E854F85588935
:1022A000C701B601621B730B840B950B0E94632F51
:1022B0009B01AC01C301B2010E948F3020E030E0ED
:1022C0004AE754E40E94CA2E9B01AC01C501B40147
:1022D0000E94FD2D0E94322F4B015C01E989FA8991
:1022E000608587810E947D06A5019401261B370B1E
:1022F000480B590BCA01B9010E94652F2B013C0103
:1023000020E030E0A901D8016D917D918D919C91E3
:102310000E94C32E811146C0E989FA898585811101
:102320003CC020E030E0A901C301B2010E9484302A
:10233000A989BA8990968D909D90AD90BC90939705
:1023400018165CF420E030E040E451E4C301B2012F
:102350000E94C32E87FD0BC015C020E030E040E492
:1023600051ECC301B2010E94843018165CF4D5010F
:10237000C4018C599F4FAF4FBF4F8C159D05AE05C3
:10238000BF0558F0B4EF8B0EB1E09B1EA11CB11C31
:102390008C149D04AE04BF0428F460E089899A89F6
:1023A0000E9467108090600490906104A090620485
:1023B000B0906304C0906404D0906504E09066041B
:1023C000F0906704209168043091690440916A0498
:1023D00050916B0429873A874B875C8769817A81A2
:1023E0008B819C812D813E814F815885621B730BAF
:1023F000840B950B0E94632F20E030E04AE754E401
:102400000E94CA2E9F938F937F936F9309851A859D
:102410002B853C85B301A20189899A890E94720C9F
:10242000A989BA89D0966D937D938D939C93D39708
:102430000E94322F89899A890E94090C0F900F906F
:102440000F900F9029813A814B815C81A989BA89CB
:102450005C962D933D934D935C935F9762960FB678
:10246000F894DEBF0FBECDBFDF91CF911F910F91CA
:10247000FF90EF90DF90CF90BF90AF909F908F90A4
:102480007F906F905F904F903F902F9008951092A3
:102490005C0410925D0410925E0410925F0410922E
:1024A00058041092590410925A0410925B0462E08E
:1024B00082E00E94122962E083E00E94122962E019
:1024C00088E00E94122962E089E00E94122941E01E
:1024D00050E06CE375E080E00E94342741E050E07A
:1024E0006AE775E081E00E9434278091DF04882349
:1024F00041F161E085E00E94122960E085E00E94E0
:102500004B2961E086E00E94122960E086E00E948B
:102510004B2961E08BE00E94122960E08BE00E9471
:102520004B2961E081E10E94122960E081E10E9473
:102530004B298BED93E00E94290F8FE793E00E94D7
:10254000290F1092DF040895EF92FF920F931F93CB
:10255000CF93DF937C010CE011E0C0E0D0E06FE6A8
:1025600071E0C7010E94951A0E94141BBC01F8017A
:10257000808191810E948C360C5F1F4F892B81F4E2
:10258000CC0FDD1FCC0FDD1FC45FDE4FEA81FB8166
:10259000C701DF91CF911F910F91FF90EF900994A8
:1025A0002196CD30D105D9F680E0DF91CF911F91F2
:1025B0000F91FF90EF9008958C01C0E0D0E0C0171C
:1025C000D107B4F461E08DE00E944B2968EC70E023
:1025D00080E090E00E94272860E08DE00E944B2977
:1025E00068EC70E080E090E00E9427282196E7CF19
:1025F00060E273E080E090E00E942728DECF26E0D2
:1026000040E052EC61E070E08BEC95E00E948D2A96
:1026100061E08DE00E94122961E08CE00E941229A5
:1026200062E084E00E94122960E08DE00E944B2964
:1026300060E08CE00E944B290E9447128091490182
:10264000882309F47FC08EEF94E00E94EB2488E198
:102650008093B80062E087E00E94122987E394E04B
:102660000E94F32064E170E080E090E00E9427285F
:1026700087E394E00E944E2187E394E00E941A07CA
:102680008093D70464E170E080E090E00E94272806
:102690008091D70481113CC061E087E394E00E94FF
:1026A000012264E170E080E090E00E94272887E347
:1026B00094E00E94AC208093D804809139048093E8
:1026C000D6046CED70E087E394E00E94EF216CE4A7
:1026D00070E087E394E00E94F5216BEA7FEF87E3E7
:1026E00094E00E94FB216CEF76E087E394E00E9487
:1026F000E9210E94F827605D7A488F4F9F4F6093D1
:102700007702709378028093790290937A021AC0CC
:102710006FED70E08BEC95E00E94E22B4AE050E018
:102720006091D7048BEC95E00E94C02C63E771E0C8
:102730008BEC95E00E94072C8091D70490E00196E5
:102740000E94DC128CE390E090934B0480934A0447
:1027500080E090E0AFE2B3E480934C0490934D04AA
:10276000A0934E04B0934F0480E090E0ACE5B3E456
:102770008093500490935104A0935204B093530457
:1027800082E192E8AFEDBDE3809354049093550449
:10279000A0935604B093570466ED70E08BEC95E07F
:1027A0000E94E22B60915001709151018BEC95E0F9
:1027B0000E94072C60914E0170914F018BEC95E0C7
:1027C0000E94072C64EB70E08BEC95E00C94E22BFC
:1027D0004F925F926F927F928F929F92AF92BF9231
:1027E000CF92DF92EF92FF921F93CF93DF93CDB7FB
:1027F000DEB760970FB6F894DEBF0FBECDBF609115
:10280000E3038091E2030E947D066D837E838F83C4
:10281000988760918703809186030E947D0669876F
:102820007A878B879C878091E4039091E503A09140
:10283000E603B091E7038D809E80AF80B884881A4C
:10284000990AAA0ABB0A8091880390918903A091F2
:102850008A03B0918B0349845A846B847C84481A20
:10286000590A6A0A7B0A80916C0490916D04A091C8
:102870006E04B0916F048D879E87AF87B88B2091CF
:10288000E0043091E1044091E2045091E304BC0182
:10289000CD010E94FC2D69837A838B839C8321EE7A
:1028A0003EE245E652E40E948F306B017C0120E05D
:1028B00030E0A9010E94843018166CF411E02DEC70
:1028C0003CEC4CEC5DE3C701B6010E948430181665
:1028D00074F010E00CC02DEC3CEC4CEC5DEBC7014F
:1028E000B6010E94C32E182F111F1127111FC501F9
:1028F000B401640D751D861D971D0E94652F2091E2
:1029000054043091550440915604509157040E944C
:102910008F3020E030E040E05FE30E948F306B01B9
:102920007C0120E030E0A9010E94843018165CF49C
:102930002AE037ED43E25CE3C701B6010E94843030
:10294000181654F00AC02AE037ED43E25CEBC701E9
:10295000B6010E94C32E87FD11E08090E4049090A0
:10296000E504A090E604B090E70420E030E040E009
:102970005FE369817A818B819C810E948F309B010A
:10298000AC01C501B4010E94FD2D2B013C010E9448
:10299000F2309B01AC01C701B6010E948F309B0150
:1029A000AC016091EC047091ED048091EE04909183
:1029B000EF040E94FD2D6093EC047093ED0480936E
:1029C000EE049093EF04C301B2010E94C72E9B0155
:1029D000AC01C701B6010E948F309B01AC01609130
:1029E000E8047091E9048091EA049091EB040E945C
:1029F000FD2D6093E8047093E9048093EA049093BA
:102A0000EB0429813A814B815C81C501B4010E94AC
:102A1000FD2D6B017C0120E030E0A9010E94C32E56
:102A200087FD09C0C092E404D092E504E092E60478
:102A3000F092E70410C02BED3FE049EC50E4C701F1
:102A4000B6010E94FD2D6093E4047093E504809329
:102A5000E6049093E704C090E404D090E504E0908D
:102A6000E604F090E7042BED3FE049EC50E4C701A9
:102A7000B6010E94843087FD10C02BED3FE049EC89
:102A800050E4C701B6010E94FC2D6093E4047093EA
:102A9000E5048093E6049093E7048D859E85AF85D9
:102AA000B8898093E0049093E104A093E204B0938A
:102AB000E3048D819E81AF81B8858093E403909378
:102AC000E503A093E603B093E70389859A85AB8578
:102AD000BC858093880390938903A0938A03B09365
:102AE0008B03812F60960FB6F894DEBF0FBECDBF6B
:102AF000DF91CF911F91FF90EF90DF90CF90BF902B
:102B0000AF909F908F907F906F905F904F900895BF
:102B1000CF93DF9300D000D0CDB7DEB77A8369833F
:102B20001C821B82BE016F5F7F4F0E94D21A8B8175
:102B30009C810F900F900F900F90DF91CF9108958F
:102B4000CF92DF92EF92FF920F931F93CF93DF9379
:102B5000CDB7DEB7C454D1090FB6F894DEBF0FBEAF
:102B6000CDBF8BE192E09A83898325961FAE1EAE7E
:102B70002597CE0101960E943E1A8C01E0905001EB
:102B8000F090510160915201709153010E94951A89
:102B9000B7010E94491B66E771E0C8010E94951ABF
:102BA00068E771E00E94491B20E030E04AE754E406
:102BB0006091EC047091ED048091EE049091EF042B
:102BC0000E94CA2E6B017C016EE571E0C8010E9473
:102BD000951A24E0B701A6010E94551B20E030E0C1
:102BE0004AE754E46091E8047091E9048091EA04B2
:102BF0009091EB040E94CA2E6B017C016CE571E0A0
:102C0000C8010E94951A24E0B701A6010E94551B35
:102C100021EE3EE245E652E46091E4047091E50461
:102C20008091E6049091E7040E948F306B017C0153
:102C30006DE671E0C8010E94951A22E0B701A60175
:102C40000E94551B6BEC75E0C8010E9488156091CD
:102C50004E0170914F018BEC95E00E94072CCC5BEC
:102C6000DF4F0FB6F894DEBF0FBECDBFDF91CF911F
:102C70001F910F91FF90EF90DF90CF900895EF920A
:102C8000FF920F931F93CF93DF93CDB7DEB7C45856
:102C9000D1090FB6F894DEBF0FBECDBF81E292E03E
:102CA0009A838983CD57DF4F19821882C358D04049
:102CB000CE0101960E943E1A8C01E0905001F090E6
:102CC000510160915201709153010E94951AB70110
:102CD0000E94491B66E771E0C8010E94951A6DE7E2
:102CE00071E00E94491B6BEC75E0C8010E948815D9
:102CF00060914E0170914F018BEC95E00E94072C82
:102D0000CC57DF4F0FB6F894DEBF0FBECDBFDF91BB
:102D1000CF911F910F91FF90EF900895DF92EF9266
:102D2000FF920F931F93CF93DF93CDB7DEB7C454B9
:102D3000D1090FB6F894DEBF0FBECDBFD82E2BE160
:102D400032E03A83298325961FAE1EAE2597CE0129
:102D500001960E943E1A8C01E0905001F0905101C2
:102D600060915201709153010E94951AB7010E941F
:102D7000491B66E771E0C8010E94951A67E871E097
:102D80000E94491B60914C0170914D01C8010E9445
:102D9000951A4D2D50E060E070E00E94641B6BECD2
:102DA00075E0C8010E94881560914E0170914F0135
:102DB0008BEC95E00E94072CCC5BDF4F0FB6F894AC
:102DC000DEBF0FBECDBFDF91CF911F910F91FF905E
:102DD000EF90DF900895CF92DF92EF92FF920F93E2
:102DE0001F93CF93DF93CDB7DEB7C458D1090FB689
:102DF000F894DEBF0FBECDBF7C0181E292E09A83E2
:102E00008983CD57DF4F19821882C358D040CE0135
:102E100001960E943E1A8C01C0905001D090510141
:102E200060915201709153010E94951AB6010E945F
:102E3000491B66E771E0C8010E94951A67E971E0D5
:102E40000E94491B6BE971E0C8010E94951AB70105
:102E50000E94491B6BEC75E0C8010E9488156091C7
:102E60004E0170914F018BEC95E00E94072CCC57DE
:102E7000DF4F0FB6F894DEBF0FBECDBFDF91CF910D
:102E80001F910F91FF90EF90DF90CF900895CF9218
:102E9000EF92FF920F931F9380E090E0A0E8BFE3D2
:102EA0008093840490938504A0938604B093870450
:102EB000109288041092890410928A0410928B0454
:102EC00010928C0410928D0410928E0410928F0434
:102ED0001092900410929104109292041092930414
:102EE000109278041092790410927A0410927B0464
:102EF00010927C0410927D0410927E0410927F0444
:102F00001092800410928104109282041092830423
:102F100087E394E00E944C20C12CE12CF12C00E1CD
:102F200010E02BE030E045E050E06FE971E08BED20
:102F300093E00E94560FCC24C394EE24E394F12C2A
:102F40000FE010E021E130E046E050E062EA71E09D
:102F50008FE793E00E94560F1F910F91FF90EF9023
:102F6000CF9008950F931F93CF93DF93CDB7DEB724
:102F7000C454D1400FB6F894DEBF0FBECDBF8BEC6A
:102F800095E00E94AA29892B09F47FC08BEC95E07B
:102F90000E94C3298D3009F478C020917D033091BF
:102FA0007E038A3009F05FC0C901019690937E03C9
:102FB00080937D03F901E358FD4F108287E292E090
:102FC0009A838983CD5FDE4F19821882C350D14026
:102FD0004AE06DE772E0CE0101960E94561A8C011C
:102FE00066E771E00E949A0666E771E0882379F04F
:102FF000C8010E94951A0E94141B6FE671E00E949E
:103000008C36892B09F5C8010E94A4121DC0C80185
:103010000E94951A0E94141B9F938F9385EA91E05A
:103020009F938F938E010B5F1E4F1F930F930E94F0
:10303000A436B8018BEC95E00E94072C0F900F90FE
:103040000F900F900F900F9040917D0350917E0351
:1030500060E070E08DE792E00E94853610927E037A
:1030600010927D0312C0A9014F5F5F4F50937E0302
:1030700040937D03F901E358FD4F80834115514092
:1030800020F084E090E00E94DC12CC5BDE4F0FB6B3
:10309000F894DEBF0FBECDBFDF91CF911F910F918E
:1030A00008950F931F93CF93DF93209140013091A8
:1030B000410140E050E06091D9047091DA048091C0
:1030C000DB049091DC040E946631672B682B692B2E
:1030D000A1F40E94F82700917702109178022091C4
:1030E000790230917A02061717072807390728F462
:1030F00080917602882309F4CEC00E94B217809195
:103100004801882349F180917B0290917C020097CD
:10311000F1F489B182958170C82F20E0D22F80917F
:103120000A0190910B01C817D907B1F0D0930B0198
:10313000C0930A0184E190E090937C0280937B022B
:10314000CE0131E0832781700E948E1605C0019761
:1031500090937C0280937B028091DF048823E1F0CE
:10316000209144013091450140E050E06091D90444
:103170007091DA048091DB049091DC040E94663146
:10318000672B682B692B41F48BED93E00E9486102E
:103190008FE793E00E94861020914601309147010D
:1031A00040E050E06091D9047091DA048091DB0432
:1031B0009091DC040E946631672B682B692B49F4DF
:1031C0000E94E813882329F08091DD0481110E9478
:1031D000A015209142013091430140E050E0609100
:1031E000D9047091DA048091DB049091DC040E9490
:1031F0006631672B682B692B81F48DE00E94812951
:1032000061E0892B09F060E08DE00E944B298091FC
:10321000DE04882311F01D9978C08091490188232C
:1032200011F14F9B20C087E394E00E94AC20809373
:10323000D80487E394E00E9407219093D5048093FB
:10324000D4042091D80424FD04C08115944009F0D1
:103250005FC087E394E00E94CC2068EB71E08BECC8
:1032600095E00E94072C8091D9049091DA04A091F6
:10327000DB04B091DC040196A11DB11D8093D9043B
:103280009093DA04A093DB04B093DC04DF91CF9138
:103290001F910F91089511E0109376028BED93E04A
:1032A0000E94290F8FE793E00E94290F1092E404F7
:1032B0001092E5041092E6041092E7041092E804DC
:1032C0001092E9041092EA041092EB041092EC04BC
:1032D0001092ED041092EE041092EF0440916C04F1
:1032E00050916D0460916E0470916F044093E004FE
:1032F0005093E1046093E2047093E3041093DD04BF
:1033000085EC91E00E94EB16F8CE0E943F1685CF27
:1033100021FFA9CF4091D60464E974E087E394E0EB
:103320000E94232144E954E064E874E087E394E0D8
:103330000E94DC0944E854E068E774E087E394E025
:103340000E944B0A28E734E044E854E06CE674E05D
:1033500087E394E00E94170B87E394E00E94CC205F
:1033600082CFCF93DF93EC0188819981DC01ED91CD
:10337000FC910190F081E02D09952A813B81280F75
:10338000391F3B832A83DF91CF910895CF93DF9339
:10339000EC0188819981009729F1DC01ED91FC9184
:1033A0000190F081E02D68E070E00995FC01009744
:1033B000C9F01182108281E090E093838283AA8118
:1033C000BB81109751F08D919C911197009711F04E
:1033D000DC01F9CFED93FC9302C0FB83EA83CF01BC
:1033E000029602C088EF94E0DF91CF9108950F9389
:1033F0001F93CF93DF93EC018B016BE5C8010E9413
:10340000B1190A80DB81C02D209779F0B801CE0177
:1034100002960E948A1B0990D881C02D209729F01E
:103420006CE2C8010E94B119F1CF6DE5C801DF91CE
:10343000CF911F910F910C94B1191092F104109239
:10344000F0041092F3041092F2040895CF93DF93E6
:10345000EC01E881F9810190F081E02D64E070E0F9
:103460000995FC01009729F0D183C0831382128251
:1034700002C080EF94E0DF91CF910895CF93DF9366
:10348000EC01E881F9810190F081E02D64E070E0C9
:103490000995FC01009729F0D183C0831382128221
:1034A00002C084EF94E0DF91CF910895CF93DF9332
:1034B00000D000D01F92CDB7DEB79A8389837C837A
:1034C0006B834D83CE0101960E943C1C0F900F90A0
:1034D0000F900F900F90DF91CF9108950F931F934E
:1034E000CF93DF938B01FC01C281D381209759F0E8
:1034F000B8018A819B810E948C36892B39F0099012
:10350000D881C02DF3CF80E090E001C0CE01DF91E3
:10351000CF911F910F9108950E946E1A009711F09C
:103520000496089588EF94E008950F931F93CF9326
:10353000DF93EC018B010E946E1AFC01009741F5AC
:1035400088819981009739F1DC01ED91FC9101901E
:10355000F081E02D6AE070E00995FC010097D9F058
:103560001182108281E090E095838483138302832B
:10357000AA81BB81109751F08D919C911197009772
:1035800011F0DC01F9CFED93FC9302C0FB83EA83D9
:10359000CF01049602C088EF94E0DF91CF911F9194
:1035A0000F9108950F931F93CF93DF938C01EB013D
:1035B0006BE7CE010E94B119F80102811381011558
:1035C000110509F168817981F801828193810E9456
:1035D0008D1D2A813B81280F391F3B832A836AE393
:1035E000CE010E94B119BE01C80104960E948A1B37
:1035F000F801008111810115110529F06CE2CE015D
:103600000E94B119DFCF6DE7CE01DF91CF911F91FD
:103610000F910C94B1191092F5041092F4041092C9
:10362000F7041092F6040895FC01208131812530C1
:10363000310519F482819381089580E090E0089526
:10364000FC0120813181273031052CF062817381AA
:1036500084819581089560E070E0CB010895FC01BC
:10366000208131812630310529F462817381848182
:103670009581089560E070E0CB010895FC018081A0
:103680009181892B29F084E090E09183808362838B
:103690000895FC0180819181892B31F085E090E0D3
:1036A00091838083738362830895FC01808191817B
:1036B000892B49F030E0295F3F4F318320834283DB
:1036C0005383648375830895FC0180819181892BE4
:1036D00041F086E090E0918380834283538364834A
:1036E00075830895FC0180819181892B31F082E0FE
:1036F00090E091838083738362830895FC018081CD
:103700009181892B31F083E090E0918380837383F2
:1037100062830895CF93DF93FC01EB012081318117
:103720002230310531F482819381DF91CF910C9465
:10373000F7192330310531F482819381DF91CF91E4
:103740000C94D21A2530310539F46881798182814F
:1037500093810E948D1D2BC02630310559F4428182
:103760005381648175812AE030E0888199810E94CB
:10377000692C1DC02430310569F48281882319F039
:1037800069E272E002C06EE272E0888199810E9473
:10379000072C0DC02730310584F0275030E04281DE
:1037A000538164817581888199810E94B22D2A811B
:1037B0003B81280F391F3B832A83DF91CF910895E6
:1037C0001092F9041092F80408950F931F93CF9369
:1037D000DF938C01F801C281D3818881992787FD0D
:1037E00090950E944F36892B29F02196F801D383BA
:1037F000C283F0CFDF91CF911F910F9108950F9366
:103800001F93CF93DF931F92CDB7DEB78C016983EF
:103810000E94E51BD8011296ED91FC9113978081CF
:10382000698186130AC031961396FC93EE93129722
:10383000C8010E94E51B81E001C080E00F90DF918C
:10384000CF911F910F910895FB012191BF01222378
:1038500079F0DC011296ED91FC91139730813213CF
:1038600007C03196DC011396FC93EE931297ECCFD0
:1038700081E0211180E00895CF92DF92EF92FF92D4
:103880000F931F93CF93DF93EC01888199810E945E
:103890003E1A6C016BE7CE010E94FF1B811103C031
:1038A00084EF94E035C06DE7CE010E94FF1B8111CB
:1038B0002EC07E0182E0E80EF11CB7018A819B8157
:1038C0000E94F21D8C01009759F36AE3CE010E9419
:1038D000FF1B882329F3B801C6010E94951A8C01A9
:1038E000BC01CE010E94911CF8012081318122305F
:1038F0003105B0F26DE7CE010E94FF1B811107C0B8
:103900006CE2CE010E94FF1B8111D7CFC9CFC60147
:10391000DF91CF911F910F91FF90EF90DF90CF90AB
:103920000895EF92FF920F931F93CF93DF9300D0F0
:10393000CDB7DEB78C017B01DC0114968C91149716
:10394000882309F4A3C0815014968C93C8010E9467
:10395000E51BF80182819381DC012C912A337CF4F0
:1039600020330CF03FC0273209F461C024F4223226
:1039700009F45DC065C02D522230A0F161C02E3621
:1039800009F442C02CF42B3581F02636B1F058C032
:10399000243799F02B3709F053C0C8010E943C1C12
:1039A000BC01C7010E947E1B4BC0C8010E944F1D75
:1039B000BC01C7010E94721B43C069E272E0C801EA
:1039C0000E94241C882311F061E008C06EE272E0BE
:1039D000C8010E94241C882309F160E0C7010E94ED
:1039E0003E1B2EC04AE050E0BE016F5F7F4F0E9439
:1039F0001B35AB01BC01E981FA8180818E3229F14E
:103A00008F7D8534D1F521C064E372E0C8010E9446
:103A1000241C882319F060E070E00FC086E0E8EF16
:103A2000F4E0D70101900D928A95E1F709C0B80141
:103A30006E5F7F4F0E94F21DBC01C7010E94491BAF
:103A4000F80184818F5F848321C0B8016E5F7F4F4E
:103A5000D80112968D919C9113970E94B833AB01B7
:103A6000BC01F8012281338189819A81281B390B9D
:103A70002150C7010E94551BE3CFD8011396FC9338
:103A8000EE931297C7010E94641BDACF0F900F903C
:103A9000DF91CF911F910F91FF90EF900895EF92DA
:103AA000FF920F931F93CF93DF93EC01888199814D
:103AB0000E94261A7C016BE5CE010E94FF1B81113A
:103AC00003C080EF94E022C06DE5CE010E94FF1B91
:103AD00081111BC0C7010E94C6198C01BC01CE0117
:103AE0000E94911CF801208131812230310548F378
:103AF0006DE5CE010E94FF1B811107C06CE2CE0173
:103B00000E94FF1B8111E6CFDCCFC701DF91CF916F
:103B10001F910F91FF90EF900895BF92CF92DF9287
:103B2000EF92FF920F931F93CF93DF937C01EB01F2
:103B3000009771F464E372E0CE01DF91CF911F91A1
:103B40000F91FF90EF90DF90CF90BF900C94072CD7
:103B5000E881F9810190F081E02D62E2CE010995C2
:103B60008C01F70161917F01662351F0E9E3F2E0F6
:103B7000B080BB2079F191819617B1F03296F8CFE1
:103B8000E881F9810190F081E02D62E2CE01099592
:103B9000800F911FDF91CF911F910F91FF90EF90B8
:103BA000DF90CF90BF900895E881F9810190F08176
:103BB000E02D6CE5CE0109956C01E881F981019059
:103BC000F081E02D6B2DCE0109958C0D9D1D080F08
:103BD000191FC7CFE881F9810190F081E02DCE0156
:103BE0000995F5CFCF93FC015081523229F057321D
:103BF00019F080E090E023C09C012F5F3F4FD90176
:103C0000F901CF0101964081442399F3451791F0C2
:103C10004C3569F401964181EDE3F2E0C081CC239B
:103C200031F0C41302C0418102C03296F7CF4D93E8
:103C3000FC01E7CF1C92FB0191838083C901CF91E6
:103C40000895EF92FF920F931F93CF93DF9300D0CD
:103C5000CDB7DEB7062F142F682F8EEF94E029839F
:103C60003A830E940525602F8EEF94E00E94AC24D9
:103C70002981022FE22E3A81F32E8E2D801B81178F
:103C800040F4F70161917F018EEF94E00E94AC2433
:103C9000F4CF8EEF94E00E94222591E0811190E014
:103CA000892F0F900F90DF91CF911F910F91FF906F
:103CB000EF900895CF93DF931F92CDB7DEB749837E
:103CC0009E012F5F3F4F41E00E94211E0F90DF9128
:103CD000CF910895DF92EF92FF920F931F93CF93AE
:103CE000DF93C62F042F7901682F8EEF94E00E9496
:103CF00005256C2F8EEF94E00E94AC2410E0000F9D
:103D0000111FD12CCD2DD0E0C017D1078CF4CC0FD2
:103D1000DD1FCE0DDF1D69818EEF94E00E94AC2483
:103D200068818EEF94E00E94AC24D394D394EACFC0
:103D30008EEF94E00E94222591E0811190E0892F7E
:103D4000DF91CF911F910F91FF90EF90DF90089539
:103D5000CF93DF9300D0CDB7DEB75A8349839E015E
:103D60002F5F3F4F41E00E946A1E0F900F90DF913E
:103D7000CF9108953F924F925F926F927F928F9270
:103D80009F92AF92BF92CF92DF92EF92FF920F93EA
:103D90001F93CF93DF9300D000D000D0CDB7DEB714
:103DA000682E562E742E3A8329830E94F8276B01C1
:103DB0007C01312C412C872D90E09C838B83480122
:103DC000A12CB12C3714B0F5662D8EEF94E00E9433
:103DD0000525652D8EEF94E00E94AC248EEF94E0D3
:103DE0000E942225662D8EEF94E00E9405254B81CE
:103DF0005C81431951094132510514F040E250E011
:103E0000662D8EEF94E00E9402258EEF94E00E94D2
:103E10005424892B59F10115110579F10E94F827D5
:103E20006C197D098E099F09681579058A059B051E
:103E300020F11CC00115110589F10E94F8276C19A9
:103E40007D098E099F0920E030E060177107820725
:103E5000930720F1872D90E0242D332727FD3095FF
:103E600028173907DCF444244A9418C0872D90E2BF
:103E7000971508F480E2380EA5CFE981FA81E40DA8
:103E8000F11D47FCFA95FE83ED838EEF94E00E94CE
:103E90005C24ED81FE8180834394B7CF842D2696E8
:103EA0000FB6F894DEBF0FBECDBFDF91CF911F914B
:103EB0000F91FF90EF90DF90CF90BF90AF909F90C9
:103EC0008F907F906F905F904F903F9008950F93E9
:103ED0001F9389019A0141E00E94BA1E1F910F9120
:103EE0000895DF92EF92FF920F931F93CF93DF938A
:103EF0001F92CDB7DEB7D42E79019801AE014F5F86
:103F00005F4F0E94671F61E070E001C0660FDA94A6
:103F1000EAF799819623F70190830F90DF91CF9173
:103F20001F910F91FF90EF90DF900895CF92DF9255
:103F3000EF92FF920F931F93CF93DF931F92CDB712
:103F4000DEB7C42ED22E9701AE014F5F5F4F0E94A5
:103F5000671F8823F1F04C2D50E04D1951094F5F38
:103F60005F4F61E070E002C0660F771FDA94E2F7FE
:103F700061507109042E01C0660F0A94EAF7298185
:103F8000262330E002C0359527954A95E2F7F801DF
:103F900020830F90DF91CF911F910F91FF90EF90B1
:103FA000DF90CF900895EF92FF920F931F93CF93DE
:103FB000DF931F92CDB7DEB7182F062FF42EE22E17
:103FC0002091540130915501AE014F5F5F4F0E9427
:103FD000671F898121E030E00F2C01C0220F0A9475
:103FE000EAF7EE2019F0482F422B03C0422F4095EC
:103FF00048234983602F812F0E945A1E0F90DF9122
:10400000CF911F910F91FF90EF900895DF92EF9263
:10401000FF920F931F93CF93DF931F92CDB7DEB71D
:10402000F82EE62ED42E122F2091540130915501F6
:10403000AE014F5F5F4F0E94671F882319F14D2D1E
:1040400050E0411B51094F5F5F4FE1E0F0E002C0DB
:10405000EE0FFF1F1A95E2F73197042E01C0EE0F05
:104060000A94EAF701C0000F4A95EAF74E2F4095EF
:1040700089814823E0234E2B49836E2D8F2D0E948A
:104080005A1E01C080E00F90DF91CF911F910F91D8
:10409000FF90EF90DF90089528E6FC0120830895BB
:1040A000462F69E1FC0180810C945A1E0F93062F64
:1040B00023E045E06AE1FC0180810E9406200F9127
:1040C00008950F93062F23E042E06AE1FC0180810E
:1040D0000E9406200F9108950F93062F22E044E0DE
:1040E0006BE1FC0180810E9406200F9108950F93DF
:1040F000062F22E044E06CE1FC0180810E94062052
:104100000F910895462F6FE1FC0180810C945A1E97
:10411000462F60E2FC0180810C945A1E462F61E21A
:10412000FC0180810C945A1E462F62E2FC018081C2
:104130000C945A1E643048F4262F220F260F2B5D54
:10414000622FFC0180810C945A1E0895462F68E36B
:10415000FC0180810C945A1ECF93DF93EC012091D7
:10416000540130915501AC014F5F5F4F6AE3888184
:104170000E94671F8981DF91CF910895262F46E025
:104180006AE6FC0180810C94D31F262F45E06AE685
:10419000FC0180810C94D31F21E042E06AE6FC011F
:1041A00080810C94D31F21E041E06AE6FC0180810C
:1041B0000C94D31F21E047E06BE6FC0180810C9456
:1041C000D31F262F46E06BE6FC0180810C94D31FA1
:1041D0000F93062F23E042E06BE6FC0180810E94F2
:1041E00006200F910895CF93DF93EC0161E00E94C8
:1041F000E82060E0CE010E946C2060E0CE010E94C9
:10420000772060E0CE01DF91CF910C94E1200F93F5
:104210001F93CF93DF93EC0100915401109155014E
:104220009C012F5F3F4F42E062E788810E94BA1EE7
:10423000898190E0982F88272A81822BDF91CF9166
:104240001F910F9108950F931F939B0100915401AB
:104250001091550164E7FC0180810E94BA1E1F91F4
:104260000F910895EF92FF920F931F93CF93DF93D7
:10427000EC01E0905401F09055018C010F5F1F4F4D
:1042800026E046E065E788810E94961F8981DF91DC
:10429000CF911F910F91FF90EF9008950E943221CE
:1042A00091E0843309F090E0892F08950F931F93D4
:1042B000CF93DF93EC0100915401109155019C01C3
:1042C0002F5F3F4F40E060E088810E94711F89812D
:1042D000DF91CF911F910F910895262F40E060E06C
:1042E000FC0180810C94D31FEF92FF920F931F93D8
:1042F000CF93DF93EC01E0905401F09055018C01D5
:104300000F5F1F4F26E046E060E088810E94961F05
:104310008981DF91CF911F910F91FF90EF900895C8
:104320000F93062F26E046E060E0FC0180810E94AA
:1043300006200F910895EF92FF920F931F93CF9352
:10434000DF93EC01E0905401F09055018C010F5F78
:104350001F4F26E046E061E088810E94961F898118
:10436000DF91CF911F910F91FF90EF9008950F93E0
:10437000062F26E046E061E0FC0180810E940620D5
:104380000F910895EF92FF920F931F93CF93DF93B6
:10439000EC01E0905401F09055018C010F5F1F4F2C
:1043A00026E046E062E088810E94961F8981DF91C5
:1043B000CF911F910F91FF90EF9008950F93062FCB
:1043C00026E046E062E0FC0180810E9406200F9119
:1043D0000895AB016AE0FC0180810C94A81EAB013A
:1043E00063E1FC0180810C94A81EAB0165E1FC0136
:1043F00080810C94A81EAB0167E1FC0180810C94C4
:10440000A81E262F47E06AE6FC0180810C94D31F8A
:1044100021E043E06AE6FC0180810C94D31F6F71B8
:104420002111606241116064462F6DE6FC018081BC
:104430000C945A1E462F6EE6FC0180810C945A1E85
:10444000CF93DF93EC012091540130915501AC01E1
:104450004F5F5F4F6FE688810E94671F8981DF9100
:10446000CF9108955F926F927F928F929F92AF92B9
:10447000BF92CF92DF92EF92FF920F931F93CF9351
:10448000DF937C015B016A01622E702E20E040E028
:10449000662D0E940F22602FC7010E941A22C0E0E1
:1044A000D0E0812C99249394CC15DD05A8F5CE019C
:1044B0004096C816D90618F45C2C5C1A02C0A0E11C
:1044C0005A2E252D30E0C4018719910982179307D0
:1044D00014F4572C519400915401109155019501F9
:1044E0002C0F3D1F452D6FE6F70180810E94BA1EFB
:1044F000C50DD11D750CCC15DD05B0F6711001C0D0
:10450000639420E040E0662DC7010E940F22672DD2
:10451000C7010E941A22C8CFDF91CF911F910F913E
:10452000FF90EF90DF90CF90BF90AF909F908F90D3
:104530007F906F905F9008952F923F924F925F927D
:104540006F927F928F929F92AF92BF92CF92DF92A3
:10455000EF92FF920F931F93CF93DF9300D000D081
:104560001F92CDB7DEB79D838C837B836A834A011C
:10457000322ED02EE98220E040E0632D0E940F22EF
:10458000602F8C819D810E941A22E980EE2029F003
:1045900080E190E00E94C7315C01CC2031F080E1E5
:1045A00090E00E94C731582E492EE12CF12CE814DE
:1045B000F90408F07AC0C70140968816990618F4E5
:1045C000282C2E1802C010E1212E222D30E080E090
:1045D00091E08D1991098217930714F42D2C2194E1
:1045E000EA81FB81EE0DFF1DCC2059F0852DA52D14
:1045F000B42D9A2F981B921530F494919D93319677
:10460000F8CF5E2E4F2E252D342D422D6FE6AC8136
:10461000BD818C910E94211E622C712CB981BB231B
:1046200069F1A114B10451F120E040E0632D8C81C7
:104630009D810E940F226D2D8C819D810E941A22E6
:1046400000915401109155019501422D6FE6EC81C6
:10465000FD8180810E94BA1EA301B501852D942D94
:104660000E946F36892B51F0C5010E945F32CC2029
:1046700049F1852D942D0E945F3224C0E60CF71C71
:10468000D20CE814F90408F092CFD11001C0339491
:1046900020E040E0632D8C819D810E940F226D2DD2
:1046A0008C819D810E941A2282CFF981FF2319F00B
:1046B000C5010E945F32CC2039F0852D942D0E94D7
:1046C0005F3202C080E001C081E00F900F900F9038
:1046D0000F900F90DF91CF911F910F91FF90EF906E
:1046E000DF90CF90BF90AF909F908F907F906F9012
:1046F0005F904F903F902F900895CF92EF920F933D
:10470000CC24C3940E949C220F91EF90CF900895E7
:104710002F923F924F925F926F927F928F929F92D1
:10472000AF92BF92CF92DF92EF92FF920F931F93BF
:10473000CF93DF9300D01F92CDB7DEB74C017B83C0
:104740006A833A01D22E222331F088E090E00E9461
:10475000C731182FF92E212C312C2614370408F0DC
:1047600051C0EA81FB81E20DF31DC10103965C019A
:10477000DD20C1F04491F10131968A819B81E80FDF
:10478000F91F0491F1013296E80FF91F549051106E
:1047900044C0F4E02F0E311CEA81FB81EA0DFB1DC1
:1047A00084910DC0408101815280EA81FB81E80F34
:1047B000F91F51100DC084E0280E311C808181301A
:1047C000D1F442E368E3F40180810E945A1EC5CF10
:1047D0001E2FFF2E452C512CC12CEE24E394242FA8
:1047E000A201612F7F2DC4010E949C2212012A0C7C
:1047F0003B1C8111B2CFDD2061F0812F9F2D0E94E3
:104800005F3207C0DD2039F0812F9F2D0E945F327B
:1048100002C080E024C081E022C0252C312CF2E0CF
:10482000F51548F4B101812F9F2D49830E94EE3286
:10483000182FF92E4981812F9F2DA0E0B0E02A8109
:104840003B812A0D3B1DA215B30520F6F901EA0FA5
:10485000FB1F5491FC015193CF011196F4CF0F909F
:104860000F900F90DF91CF911F910F91FF90EF90DC
:10487000DF90CF90BF90AF909F908F907F906F9080
:104880005F904F903F902F90089521E00C948823E3
:10489000462F60E7FC0180810C945A1E462F61E789
:1048A000FC0180810C945A1E80912E0590E020918D
:1048B0002F05821B9109089520912F0580912E05C7
:1048C000281750F4E22FF0E0E05DFA4F808190E08D
:1048D0002F5F20932F0508958FEF9FEF0895E091AC
:1048E0002F0580912E05E81730F4F0E0E05DFA4FD7
:1048F000808190E008958FEF9FEF08950895CF9203
:10490000DF92EF92FF920F931F93CF93DF937C017F
:10491000CB018A0120910A05222389F0EB016B016A
:10492000C40ED51ECC15DD0569F06991D701ED9156
:10493000FC910190F081E02DC7010995F3CF642F20
:104940000E94DE25C801DF91CF911F910F91FF904A
:10495000EF90DF90CF900895CF93DF931F92CDB764
:10496000DEB7698320910A052223D1F020910B053F
:10497000203240F021E030E0FC013383228380E0EC
:1049800090E015C080910C05E82FF0E0E35FFA4F4E
:10499000998190838F5F80930C0580930B0505C0F0
:1049A00061E0CE0101960E94DE2581E090E00F904B
:1049B000DF91CF910895FC011382128248EE53E0FB
:1049C00060E070E044835583668377838CE492E0F3
:1049D00091838083089510922F0510922E051092D6
:1049E0000C0510920B050C942925862F413208F0F6
:1049F00040E260E375E00E94472510922F05809306
:104A00002E05089521E00C94F52481E080930A0599
:104A100060932D0510920C0510920B0508950F93CD
:104A2000062F21E040910B056DE075E080912D058A
:104A30000E948B2510920C0510920B0510920A050E
:104A40000F91089561E00C940F258EEF94E00C9483
:104A5000DB241092BD0581E08093BB051092BA055E
:104A600061E082E10E944B2961E083E10E944B29D1
:104A7000E9EBF0E080818E7F808380818D7F808371
:104A800088E48093B80085E48093BC0008954132A7
:104A900008F03FC09091BD059111FCCF91E090933B
:104AA000BD052093BB052FEF20935005109295056F
:104AB000240F209394059093BC059091BC05880F1A
:104AC000892B8093BC058091BA05813041F4109206
:104AD000BA058091BC058093BB0085EC01C085EED2
:104AE0008093BC008091BD058130E1F380919505F4
:104AF000841710F44091950526E935E0FB01D901B2
:104B00008A2F821B841718F48D918193F9CF842FFB
:104B1000089580E008950F93413208F046C09091C7
:104B2000BD059111FCCF92E09093BD050093BB05AC
:104B30009FEF909350051092950540939405FB01CB
:104B400066E975E0DB019A2F961B941718F4919192
:104B50009D93F9CF1092BC059091BC05880F892BCD
:104B60008093BC058091BA05813041F41092BA055A
:104B70008091BC058093BB0085EC01C085EE8093DD
:104B8000BC00222321F08091BD058230E1F38091A9
:104B900050058F3F61F080915005803251F0809137
:104BA0005005803341F483E007C081E005C080E018
:104BB00003C082E001C084E00F910895613298F44F
:104BC0002091BD05243089F460937205FC0184E7CF
:104BD00095E0DC012A2F281B261718F421912D932C
:104BE000F9CF80E0089581E0089582E0089585ED91
:104BF0008093BC008091BC0084FDFCCF1092BD0569
:104C0000089585EC8093BC001092BD0508951F9215
:104C10000F920FB60F9211242F933F934F935F93F0
:104C20006F937F938F939F93AF93BF93EF93FF9374
:104C30008091B900887F803609F49CC068F588327D
:104C400009F45BC090F4803109F454C038F488232F
:104C500009F4F5C0883009F44DC0F5C0883109F475
:104C60004CC0803209F45DC0EEC0803409F468C0E5
:104C700048F4803309F455C0883309F0E4C08093C8
:104C80005005A8C0803509F44FC0883509F45DC0CF
:104C9000883409F0D8C0D5C0883909F4C6C0A8F452
:104CA000883709F467C038F4883609F463C0803760
:104CB00009F460C0C8C0883809F4B7C0803909F465
:104CC0005FC0803809F0BFC05BC0803B09F485C07D
:104CD00038F4803A09F466C0883A09F47EC0B3C05B
:104CE000803C09F4A6C0883C09F4A3C0883B09F4C1
:104CF00089C0A9C08091BC0510C090919505809194
:104D00009405981770F5E091950581E08E0F8093DA
:104D10009505F0E0EA56FA4F80818093BB0085EC60
:104D200085C0809350058DC0E091950581E08E0F80
:104D3000809395058091BB00F0E0EA56FA4F80839E
:104D400090919505809194056DC0E091950581E065
:104D50008E0F809395058091BB00F0E0EA56FA4FE4
:104D600080838091BB0581116CC081E08093BA057E
:104D700084EA60C083E08093BD0510925105CFCFD7
:104D800080915105803208F050C0E091510581E0DA
:104D90008E0F809351058091BB00F0E0EE5AFA4FE0
:104DA0008083BDCF80915105803230F4E091510570
:104DB000F0E0EE5AFA4F10820E94F72560915105FB
:104DC00070E0E091B605F091B70582E595E00995B0
:104DD000109251050E94012636C084E08093BD05E3
:104DE0001092730510927205E091B805F091B90523
:104DF000099580917205811105C081E0809372054B
:104E000010927405E091730581E08E0F8093730515
:104E1000F0E0EC58FA4F80818093BB0090917305CD
:104E200080917205981708F47ACF85E88093BC00CA
:104E30000AC085EC8093BC001092BD0504C010929E
:104E400050050E94F725FF91EF91BF91AF919F917F
:104E50008F917F916F915F914F913F912F910F9023
:104E60000FBE0F901F9018958230E8F4E82FF0E005
:104E7000EE0FFF1FE254FA4F71836083813041F0DF
:104E8000809169008C7F842B80936900E89A089553
:104E900080916900440F551F440F551F837F842B59
:104EA00080936900E99A08951F920F920FB60F92AE
:104EB00011242F933F934F935F936F937F938F931F
:104EC0009F93AF93BF93EF93FF938091BE05909113
:104ED000BF05892B29F0E091BE05F091BF0509952A
:104EE000FF91EF91BF91AF919F918F917F916F91C2
:104EF0005F914F913F912F910F900FBE0F901F9098
:104F000018951F920F920FB60F9211242F933F9373
:104F10004F935F936F937F938F939F93AF93BF93C1
:104F2000EF93FF938091C0059091C105892B29F0E3
:104F3000E091C005F091C1050995FF91EF91BF91F6
:104F4000AF919F918F917F916F915F914F913F9121
:104F50002F910F900FBE0F901F9018951F920F92D8
:104F60000FB60F9211242F933F938F939F93AF937C
:104F7000BF938091C3059091C405A091C505B091E0
:104F8000C6053091C20523E0230F2D3720F401968A
:104F9000A11DB11D05C026E8230F0296A11DB11D5C
:104FA0002093C2058093C3059093C405A093C505C3
:104FB000B093C6058091C7059091C805A091C90519
:104FC000B091CA050196A11DB11D8093C7059093AC
:104FD000C805A093C905B093CA05BF91AF919F9131
:104FE0008F913F912F910F900FBE0F901F901895AA
:104FF0002FB7F8946091C3057091C4058091C505E1
:105000009091C6052FBF08953FB7F8948091C705CA
:105010009091C805A091C905B091CA0526B5A89B75
:1050200005C02F3F19F00196A11DB11D3FBF662796
:10503000782F892F9A2F620F711D811D911D42E0DB
:10504000660F771F881F991F4A95D1F70895CF9251
:10505000DF92EF92FF92CF93DF936B017C010E946E
:105060000428EB01C114D104E104F10489F00E9489
:10507000FB2D0E9404286C1B7D0B683E734090F34F
:1050800081E0C81AD108E108F108C851DC4FEACF25
:10509000DF91CF91FF90EF90DF90CF9008957894BB
:1050A00084B5826084BD84B5816084BD85B582602D
:1050B00085BD85B5816085BDEEE6F0E080818160CB
:1050C0008083E1E8F0E010828081826080838081CB
:1050D00081608083E0E8F0E0808181608083E1EBA3
:1050E000F0E0808184608083E0EBF0E0808181608B
:1050F0008083EAE7F0E08081846080838081826041
:105100008083808181608083808180688083109229
:10511000C10008951F93CF93DF93182FEB0161E037
:105120000E941229209711F460E004C0CF3FD105FE
:1051300039F461E0812FDF91CF911F910C944B29BD
:10514000E12FF0E0EE57F64FE491E330F9F048F448
:10515000E130B9F0E230A1F584B5806284BDC8BD0C
:1051600034C0E730E9F0E83019F1E43049F58091D6
:105170008000806280938000D0938B00C0938A006F
:1051800024C084B5806884BDC7BD1FC080918000E5
:10519000806880938000D0938900C093880015C0F8
:1051A0008091B00080688093B000C093B3000DC0C0
:1051B0008091B00080628093B000C093B40005C0BD
:1051C000C038D1050CF0B5CFAFCFDF91CF911F9193
:1051D0000895833081F028F4813099F08230A1F075
:1051E00008958730A9F08830B9F08430D1F48091E7
:1051F00080008F7D03C0809180008F778093800036
:10520000089584B58F7702C084B58F7D84BD0895DD
:105210008091B0008F7703C08091B0008F7D809324
:10522000B0000895CF93DF9390E0FC01EA56F64F6B
:105230002491FC01E655F64F8491882349F190E0D2
:10524000880F991FFC01EE52F64FA591B491885337
:10525000964FFC01C591D4919FB7611108C0F89495
:105260008C91209582238C93888182230AC062309E
:1052700051F4F8948C91322F309583238C9388814C
:10528000822B888304C0F8948C91822B8C939FBFCF
:10529000DF91CF9108950F931F93CF93DF931F92C8
:1052A000CDB7DEB7282F30E0F901EE57F64F8491E5
:1052B000F901EA56F64F1491F901E655F64F0491BB
:1052C0000023C9F0882321F069830E94E9286981BD
:1052D000E02FF0E0EE0FFF1FE853F64FA591B491D9
:1052E0009FB7F8948C91611103C01095812301C080
:1052F000812B8C939FBF0F90DF91CF911F910F91C6
:105300000895CF93DF93282F30E0F901EE57F64F41
:105310008491F901EA56F64FD491F901E655F64F1A
:10532000C491CC2391F081110E94E928EC2FF0E088
:10533000EE0FFF1FE254F64FA591B4912C912D234F
:1053400081E090E021F480E002C080E090E0DF9115
:10535000CF910895FC01818D228D90E0805C9F4F5C
:10536000821B91098F7399270895FC01918D828D7D
:10537000981731F0828DE80FF11D858D90E008952A
:105380008FEF9FEF0895FC01918D828D981761F04A
:10539000828DDF01A80FB11D5D968C91928D9F5F6C
:1053A0009F73928F90E008958FEF9FEF089587E4A9
:1053B0009BE2892B49F080E090E0892B29F00E9444
:1053C000472B81110C9400000895FC01848DDF01AE
:1053D000A80FB11DA35ABF4F2C91848D90E0019668
:1053E0008F739927848FA689B7892C93A089B18957
:1053F0008C9180648C93938D848D981306C0028861
:10540000F389E02D80818F7D80830895CF93DF9392
:10541000EC01888D8823C9F0EA89FB89808185FDAC
:1054200005C0A889B9898C9186FD0FC00FB607FC0D
:10543000F5CF808185FFF2CFA889B9898C9185FF4E
:10544000EDCFCE010E94E529E7CFDF91CF910895FE
:10545000CF92DF92FF920F931F93CF93DF931F9210
:10546000CDB7DEB76C01DC015B969C915B975C96D7
:105470008C915C97981307C05096ED91FC915197D1
:10548000808185FD32C0F601038D10E00F5F1F4F54
:105490000F731127F02EF601848DF81211C00FB68C
:1054A00007FCF9CFD6015096ED91FC915197808180
:1054B00085FFF1CFC60169830E94E5296981EBCFA1
:1054C000838DE80FF11DE35AFF4F6083D6015B9691
:1054D0000C935B975296ED91FC915397808180627B
:1054E000808381E058968C930DC0D6015696ED913D
:1054F000FC91579760835096ED91FC915197808174
:105500008064808381E090E00F90DF91CF911F91C4
:105510000F91FF90DF90CF900895BF92CF92DF92CE
:10552000EF92FF92CF93DF93EC016A017B01B22EE1
:10553000E889F98982E08083411581EE5807610589
:105540007105A1F060E079E08DE390E0A70196019C
:105550000E946631215031094109510956954795FC
:1055600037952795211580E1380798F0E889F98962
:10557000108260E874E88EE190E0A70196010E9435
:1055800066312150310941095109569547953795A2
:105590002795EC85FD853083EE85FF852083188E69
:1055A000EC89FD89B082EA89FB89808180618083F2
:1055B000EA89FB89808188608083EA89FB89808110
:1055C00080688083EA89FB8980818F7D8083DF9179
:1055D000CF91FF90EF90DF90CF90BF9008951F92F2
:1055E0000F920FB60F9211242F938F939F93EF93E7
:1055F000FF93E091DB05F091DC058081E091E1050E
:10560000F091E20582FD12C090818091E4058F5FE8
:105610008F732091E505821751F0E091E405F0E0E9
:10562000E553FA4F958F8093E40501C08081FF9187
:10563000EF919F918F912F910F900FBE0F901F9020
:1056400018951F920F920FB60F9211242F933F932C
:105650004F935F936F937F938F939F93AF93BF937A
:10566000EF93FF938BEC95E00E94E529FF91EF917A
:10567000BF91AF919F918F917F916F915F914F916A
:105680003F912F910F900FBE0F901F9018958BECAC
:1056900095E00E94AA2921E0892B09F420E0822FBD
:1056A00008951092CE051092CD0588EE93E0A0E00B
:1056B000B0E08093CF059093D005A093D105B0932F
:1056C000D2058CE592E09093CC058093CB0585ECD8
:1056D00090E09093D8058093D70584EC90E0909368
:1056E000DA058093D90580EC90E09093DC058093F7
:1056F000DB0581EC90E09093DE058093DD0582EC84
:1057000090E09093E0058093DF0586EC90E0909325
:10571000E2058093E1051092E4051092E5051092F0
:10572000E6051092E705089508950E944F280E940B
:10573000942B0E94FF12C7EDD9E20E9451182097C6
:10574000E1F30E94D729F9CFCF92DF92EF92FF9237
:105750000F931F93CF93DF936C017A01EB01E60E59
:10576000F71E00E010E0CE15DF0561F06991D6016B
:10577000ED91FC910190F081E02DC6010995080F93
:10578000191FF1CFC801DF91CF911F910F91FF90A9
:10579000EF90DF90CF9008956115710581F0DB01E6
:1057A0000D900020E9F7AD0141505109461B570B00
:1057B000DC01ED91FC910280F381E02D099480E001
:1057C00090E00895EF92FF920F931F93CF93DF9392
:1057D0008C01FB01C0E0D0E064917F018FEFE81AFB
:1057E000F80A662361F0D801ED91FC910190F081F7
:1057F000E02DC8010995C80FD91FF701EDCFCE01E3
:10580000DF91CF911F910F91FF90EF9008950C942D
:10581000CC2BDC01ED91FC910190F081E02D0994FD
:105820008F929F92AF92BF92CF92DF92EF92FF92B0
:105830000F931F93CF93DF93CDB7DEB7A1970FB62A
:10584000F894DEBF0FBECDBF7C01C42EE52FCB0187
:10585000D22E19A221E02D1510F02AE0D22E8E01B1
:105860000F5D1F4F8D2C912CA12CB12C6C2D7E2FF8
:10587000A50194010E9466318C2DD29E80191124BD
:10588000015011098A3014F4805D01C0895CF8016F
:105890008083211531054105510521F0C22EE32FEA
:1058A000CA01E4CFB801C7010E94CC2BA1960FB664
:1058B000F894DEBF0FBECDBFDF91CF911F910F9146
:1058C000FF90EF90DF90CF90BF90AF909F908F9020
:1058D0000895CF92DF92EF92FF920F931F93CF9391
:1058E000DF93EC016A017B012115310579F4E88130
:1058F000F9810190F081E02D642FDF91CF911F910C
:105900000F91FF90EF90DF90CF9009942A303105EE
:10591000E9F477FF1AC06DE20E94092C8C0144273C
:105920005527BA014C195D096E097F092AE0CE019D
:105930000E94102C800F911FDF91CF911F910F912A
:10594000FF90EF90DF90CF9008952AE0B701A60175
:10595000CE01DF91CF911F910F91FF90EF90DF90DB
:10596000CF900C94102C2115310541F4DC01ED9100
:10597000FC910190F081E02D642F09940C94102C7F
:105980009A01462F50E060E070E00C94B32C4F92E7
:105990005F926F927F928F929F92AF92BF92CF92BF
:1059A000DF92EF92FF920F931F93CF93DF93EC015F
:1059B0006A017B01B22E9A01AB01C701B6010E94B8
:1059C0003D31882319F068E672E027C026013701CF
:1059D000E89477F82FEF3FEF4FE75FE7C301B2019D
:1059E0000E943D3181110DC02FEF3FEF4FE75FE780
:1059F000C301B2010E94C32E18161CF46CE672E0BB
:105A00000CC02FEF3FEF4FE75FE4C701B6010E94E4
:105A100084301816ACF460E772E0CE01DF91CF91CC
:105A20001F910F91FF90EF90DF90CF90BF90AF90BC
:105A30009F908F907F906F905F904F900C94CC2BA5
:105A40002FEF3FEF4FE75FECC701B6010E94C32E77
:105A500087FDE1CF20E030E0A901C701B6010E9437
:105A6000C32E87FF0AC06DE2CE010E94092C8C0173
:105A7000F7FAF094F7F8F09402C000E010E0A12CDF
:105A800060E070E080E09FE3AB1441F020E030E0A4
:105A900040E251E40E94CA2EA394F6CF9B01AC01D0
:105AA000C701B6010E94FD2D6B017C010E94372FBA
:105AB0002B013C010E94632F9B01AC01C701B60181
:105AC0000E94FC2D6B017C012AE0B301A201CE01F2
:105AD0000E94102C080F191FBB2039F064E772E0F8
