:100000000C94E5040C944B270C9478270C940D0564
:100010000C940D050C940D050C940D050C940D0518
:100020000C940D050C940D050C940D050C940D0508
:100030000C940D050C940D050C940D050C940D05F8
:100040000C94A5270C940D050C94E62A0C94182BFF
:100050000C940D050C940D050C940D050C940D05D8
:100060000C94BF1F0C940D05084AD73B3BCE016E84
:1000700084BCBFFDC12F3D6C74319ABD56833DDAFF
:100080003D00C77F11BED9E4BB4C3E916BAAAABE0E
:10009000000000803F05A84CCDB2D44EB93836A937
:1000A000020C50B9918688083CA6AAAA2ABE000074
:1000B00000803F0001B202FFFF0190040923A13537
:1000C000016A020600016008000000000000000054
:1000D00000600440000000016202000000600400B3
:1000E000400000037B034CCD6C03AB033656760017
:1000F000680402CB47A202180400058BC1010C045E
:1001000000000000037F060CC92C97979703890312
:10011000264666006C022000024004000000000237
:1001200044040000000002480400000000024C04E7
:10013000000000000250040000000002540400000F
:10014000000002580400000000025C0400000000EF
:1001500002BC040000000001EC0400004000037F2A
:10016000060CC92C9797970402030D355D0409040A
:10017000872D353D00A3010000000001078601FE28
:10018000074105F120283038077E01300746019AE3
:10019000074704F1283038076C04F128303802167C
:1001A000020001FB00003E000B00360001000200CF
:1001B00003000000650054FFEF0000FA80000B12FE
:1001C00082000100020000000000000000000000AA
:1001D00000000000280000FFFF4581FFFFFA7200C9
:1001E000000000000003E80000000100017FFFFFA5
:1001F000FE8001001B000000000000000000000065
:10020000000000003E03304000000002CAE3093E47
:10021000800000200000000000000040000000609E
:1002200000000041FF000000000B2A0000165500EE
:10023000002182FD872650FD800000001F00000085
:100240000580000000000000010000000200000026
:10025000030000400000000000046F00026532004F
:10026000005EC04000000000000000000000000030
:10027000000000FB8C6F5DFD5D08D9007C733B00C6
:100280006C12CC3200139D3200D0D63200080040F0
:100290000001F4FFE68079020000000000D0D600E3
:1002A000002710FB000000400000000000000000DC
:1002B000000000000000010000000000000100013B
:1002C0000000000000FA36FFBC308E0005FBF0FF96
:1002D000D95BC8FFD09ABE000010A9FFF41EB2007F
:1002E000CEBBF70000000100000004000200020283
:1002F00000000CFFC280000001800000CF800040A1
:1003000000000000000001000000000000060000E6
:1003100000001400000000000000000000000000C9
:1003200000000000000000000000000000000000CD
:1003300000000000000000000000000000000000BD
:1003400000000000000000033F68B6793528BCC6F5
:100350007ED16C80000000400000000000B26A0006
:10036000000000000000000000000000003FF0005E
:10037000000030000000000000000000000000004D
:10038000000000000000000000000000000000006D
:100390000000000000254D002F706D000005AE002C
:1003A0000C02D00000000000650054FFEF000000C8
:1003B000000000000001000044000000000C0000EC
:1003C000000100000000000065000000540000FF74
:1003D000EF0000000000000000000000000000002E
:1003E00000000040000000000000000000000000CD
:1003F00000000040000000000000000000000000BD
:1004000000000000000001000000020000000000E9
:1004100000000000000000000000000000000000DC
:1004200000000000000000000000000000000000CC
:10043000000000001B0000000000000000000000A1
:1004400000000000000000000000000000000000AC
:10045000000000000000000000000000000000405C
:10046000000000001B000000000000000000000071
:10047000000000000000000000000000000000007C
:10048000000000000000000000000000000000006C
:10049000000000000000000000000000000000005C
:1004A000000000D8DCBAA2F1DEB2B8B4A88191F79E
:1004B0004A907F916AF3F9DBA8F9B0BAA080F2CE36
:1004C00081F3C2F1C1F2C3F3CCA2B280F1C6D880ED
:1004D000BAA7DFDFDFF2A7C3CBC5B6F087A29424AB
:1004E00048703C95406834589B78A2F183922D5512
:1004F0007DD8B1B4B8A1D09180F270F370F27C8055
:10050000A8F101B09887D943D886C988BAA1F20E5C
:10051000B89780F1A9DFDFDFAADFDFDFF2AAC5CD60
:10052000C7A90CC92C97979797F1A989264666B059
:10053000B4BA80ACDEF2CAF1B28C02A9B6980089D6
:100540000E161EB8A9B4992C547CB08AA8963656BB
:1005500076F1B9AFB4B083C0B8A89711B18F98B98C
:10056000AFF0240844106418F1A329557DAF83B57A
:1005700093AFF0002850F1A3869F61A6DADEDFD9A1
:10058000FAA38696DB31A6D9F8DFBAA68FC2C5C713
:10059000B28CC1B8A2DFDFDFA3DFDFDFD8D8F1B8CC
:1005A000A8B286B4980D355DB8AA98B0872D353DB0
:1005B000B2B6BAAF8C96198F9FA70E161EB49AB812
:1005C000AA872C547CB9A3DEDFDFA3B180F2C4CDAF
:1005D000C9F1B8A9B499830D355D89B9A32D557DAD
:1005E000B593A30E161EA92C547CB8B4B0F1978312
:1005F000A81184A50998A383F0DA2408441064188C
:10060000D8F1A529557DA58595021A2E3A565A404E
:1006100048F9F3A3D9F8F098832408441064189794
:1006200082A8F111F098A2240844106418DAF3DECD
:10063000D883A59401D9A302F1A2C3C5C7D8F18478
:1006400092A24DDA2AD84869D92AD86855DA32D820
:100650005071D932D8705DDA3AD85879D93AD87809
:1006600093A34DDA2AD84869D92AD86855DA32D8FE
:100670005071D932D8705DDA3AD85879D93AD878E9
:10068000A88A9AF02850789EF38818F19F1D98A8A0
:10069000D908D8C89F129EF315A8DA1210D8F1AF66
:1006A000C8978734B5B994A421F3D922D8F22DF391
:1006B000D92AD8F235F3D932D881A4606061D961E2
:1006C000D86C6869D969D8747071D971D8B1A384AC
:1006D000193D5DA3831A3E5E931030811011B8B0AE
:1006E000AF8F94F2DA3ED8B49AA88729DAF8D8877F
:1006F0009A35DAF8D8879A3DDAF8D8B1B9A498854E
:10070000022E56A581000C14A397B08AF12DD9288A
:10071000D84DD948D86DD968D8B1840DDA0ED8A390
:100720002983DA2C0ED8A3844983DA2C4C0ED8B84E
:10073000B0A88A9AF520AADADFD8A840AAD0DADED3
:10074000D8A860AADAD0DFD8F19786A8319B06999D
:1007500007AB9728889BF00C201440B8B0B4A88C45
:100760009CF0042851791D301438B282ABD0982CFB
:10077000505078789BF11AB0F08A9CA82951798B57
:100780002951798A2470598B2058718A4469388B91
:100790003940688A6448318B304960A588200971E6
:1007A000584468113964493019F1AC002C547CF07C
:1007B0008CA804285078F1889726A85998AC8C0208
:1007C000264666F0899CA8295179247059446938D5
:1007D000644831A98809205970AB11384069A819BB
:1007E0003148608CA83C415C207C00F187981986D8
:1007F000A86E767EA999882D557D9EB9A38A228AF6
:100800006E8A568A5E9FB183062646660E2E4E6E0F
:100810009DB8AD002C547CF2B18CB499B9A32D5580
:100820007D8191AC38AD3AB58391AC2DD928D84DA6
:10083000D948D86DD968D88C9DAE29D904AED85185
:10084000D904AED879D904D881F39DAD008DAE1905
:1008500081ADD901D8F2AEDA26D88E912983A7D9F5
:10086000ADADADADF32AD8D8F1B0AC89913E5E768E
:10087000F3AC2E2EF1B18C5A9CAC2C2828289CACC1
:100880003018A8988128343C9724A728343C9C240D
:10089000F2B089AC912C4C6C8A9B2DD9D8D851D907
:1008A000D8D879D9D8D8F19E88A331DAD8D8912D63
:1008B000D928D84DD948D86DD968D8B18393353D5A
:1008C0008025DAD8D88569DAD8D8B49381A32834BA
:1008D0003CF3AB8BF8A391B609B4D9ABDEFAB08781
:1008E0009CB9A3DDF1A3A3A3A395F1A3A3A39DF1B9
:1008F000A3A3A3A3F2A3B49080F2A3A3A3A3A3A34F
:10090000A3A3A3A3B2A3A3A3A3A3A3B087B599F161
:10091000A3A3A398F1A3A3A3A397A3A3A3A3F39B28
:10092000A3A3DCB9A7F1262626D8D8FF000000082B
:1009300000020100000304070000000000000000A6
:100940000102040810204080010204081020010266
:100950000408102004040404040404040202020233
:100960000202030303030303000000002300260028
:10097000290000000000250028002B0000000000D6
:10098000240027002A004E414E494E495459494EF1
:1009900046CDCCCC3D0AD7233C17B7D13877CC2BEA
:1009A000329595E6241FB14F0A000020410000C88F
:1009B0004200401C4620BCBE4CCA1B0E5AAEC59D10
:1009C00074001217F71DDD1E482B11241FBECFEF38
:1009D000D8E0DEBFCDBF12E0A0E0B1E0E4E8FDE684
:1009E00002C005900D92A236B107D9F725E0A2E624
:1009F000B2E001C01D92A638B207E1F719E0CAECD7
:100A0000D9E004C02297FE010E94AC31C23CD1075C
:100A1000C9F70E948C2B0C94C0360C9400001F92D6
:100A20000F920FB60F9211242F938F939F93AF9332
:100A3000BF9323B1822F817090E04A9B03C0892B22
:100A400019F00EC0892B61F080916D0390916E03B7
:100A5000A0916F03B09170030196A11DB11D0BC051
:100A600080916D0390916E03A0916F03B09170031C
:100A70000197A109B10980936D0390936E03A09330
:100A80006F03B0937003BF91AF919F918F912F919E
:100A90000F900FBE0F901F9018951F920F920FB6D8
:100AA0000F9211242F938F939F93AF93BF9323B1F2
:100AB00021FB882780F990E04B9B03C0892B19F01C
:100AC0000EC0892B61F08091710390917203A09107
:100AD0007303B09174030196A11DB11D0BC08091E9
:100AE000710390917203A0917303B0917403019705
:100AF000A109B1098093710390937203A0937303CA
:100B0000B0937403BF91AF919F918F912F910F90EC
:100B10000FBE0F901F9018959C01FC01EE57FF4FE0
:100B200080819181680F791F6138710530F471837C
:100B300060830296820F931F089580E090E00895ED
:100B40009C01FC01EE5BFF4F80819181680F791F52
:100B50006134710530F4718360830296820F931FB4
:100B6000089580E090E00895609143017091440100
:100B70000E94251C0E94DC1A21E06130710509F0F9
:100B800020E0209332010895609143017091440167
:100B90000E94251C0E94DC1A21E06130710509F0D9
:100BA00020E02093F6030895609143017091440181
:100BB0000E94251C0E94DC1A21E06130710509F0B9
:100BC00020E020933301622F8CE00C9442290E9494
:100BD000B81AFC0181E0208131812230310508F40E
:100BE00080E00895CF93DF93EC0167E471E00E9409
:100BF000E705882311F167E471E0CE010E94251C0E
:100C000060E070E00E94371B0E94CD1A0E942A2FDC
:100C1000709364036093630367E471E0CE010E9404
:100C2000251C61E070E00E94371B0E94CD1A0E94D3
:100C30002A2F70936603609365036CE471E0CE0124
:100C40000E94E705882309F459C06CE471E0CE01E5
:100C50000E94251C60E070E00E94371B0E94CD1AA4
:100C6000609335017093360180933701909338017A
:100C70006CE471E0CE010E94251C61E070E00E94EE
:100C8000371B0E94CD1A6093390170933A0180930B
:100C90003B0190933C016CE471E0CE010E94251C65
:100CA00062E070E00E94371B0E94CD1A60933D0104
:100CB00070933E0180933F01909340011092110385
:100CC0001092120310921303109214031092440313
:100CD00010924503109246031092470310920D03A1
:100CE00010920E0310920F03109210031092400303
:100CF00010924103109242031092430360E571E0A9
:100D0000CE010E94E705882309F45CC060E571E02C
:100D1000CE010E94251C60E070E00E94371B0E94FB
:100D2000DC1A80E593E00E94B42460E571E0CE0116
:100D30000E94251C61E070E00E94371B0E94DC1AB3
:100D400080E593E00E94BA2460E571E0CE010E9444
:100D5000251C62E070E00E94371B0E94DC1A80E5CF
:100D600093E00E94C02460E571E0CE010E94251C42
:100D700063E070E00E94371B0E94DC1A80E593E07C
:100D80000E94C62460E571E0CE010E94251C64E04B
:100D900070E00E94371B0E94DC1A80E593E00E94FD
:100DA000CC2460E571E0CE010E94251C65E070E076
:100DB0000E94371B0E94DC1A80E593E0DF91CF91FF
:100DC0000C94D224DF91CF910895CF93DF93EC015F
:100DD00060914301709144010E94251C0E94DC1A1D
:100DE00021E06130710509F020E02093F703609164
:100DF000410170914201CE010E94E705882369F00C
:100E00006091410170914201CE010E94251C0E9417
:100E1000DC1A70932D0160932C01DF91CF9108951E
:100E20008F929F92AF92BF92CF92EF920F931F93A8
:100E3000CF93DF93CDB7DEB7C059D1090FB6F89481
:100E4000DEBF0FBECDBF5C010E94A5236EE170E046
:100E500080E090E00E941E2860E0C5010E94AC2363
:100E600021E041E060E1C5010E94E62466E0C501A1
:100E70000E94F124C5010E94F72420E040E060E0D8
:100E8000C5010E94E624C5010E942124C5010E94DB
:100E90003F24182FC5010E946624882EC5010E9498
:100EA0008D24982E4FE760E0C5010E94652360E025
:100EB000C5010E94902348E660E0C5010E946523B9
:100EC000C5010E949E2364E170E080E090E00E94F2
:100ED0001E28EE24E39400E020E049E857E063EAAE
:100EE00071E0C5010E945426882309F40EC240EC2B
:100EF00050E063EE70E0C5010E941C27882309F4CE
:100F000006C263E0C5010E94B32362E1C5010E94ED
:100F1000712364E0C5010E941B2361E0C5010E94AA
:100F2000212363E0C5010E942C2363E0C5010E94D8
:100F3000372363E0C5010E941F2760E0C5010E94BE
:100F4000252760E0C5010E943824612FC5010E9459
:100F50005B24682DC5010E948224692DC5010E9471
:100F6000A924812C912CF401EC54FF4FE491A1E8C9
:100F7000B0E0AC0FBD1FA80DB11DEC9381E0880D52
:100F80009FEF891A990AE3E0E81568F7CD57DF4F1C
:100F90004881C358D04050E09A012E5F3F4F90E007
:100FA0002817390704F7C12CEE24E394CE57DF4FFE
:100FB0000881C258D040CF57DF4F2881C158D04058
:100FC00061E870E06C0F7D1F6D5F7F4FC5010E946F
:100FD000732560E0F401EC54FF4FE491A1E8B0E028
:100FE000AC0FBD1FA60FB11DEC936F5FFFEF8F1A03
:100FF0009F0A643078F3CD57DF4F4881C358D04003
:1010000050E09A012E5F3F4F862F90E02817390756
:101010000CF7C12CEE24E394CE57DF4F0881C25861
:10102000D040CF57DF4F2881C158D04061E870E0F1
:101030006C0F7D1F6D5F7F4FC5010E947325C50139
:101040000E949723C5010E94D223482FBE016F5FE3
:101050007F4FC5010E94EE2362E0C5010E944D232F
:101060006CE9C5010E94592360E5C5010E94532324
:1010700060E0C5010E945F23C5010E94972361E0E3
:10108000C5010E94892361E0C5010E94D824C501E1
:101090000E94DF2460E0F401EC54FF4FE491A1E8EA
:1010A000B0E0AC0FBD1FA60FB11DEC936F5F8FEFCB
:1010B000881A980A643078F3CD57DF4F4881C358B7
:1010C000D04050E09A012E5F3F4F862F90E02817C6
:1010D00039070CF7C12CEE24E394CE57DF4F08817B
:1010E000C258D040CF57DF4F2881C158D04061E867
:1010F00070E06C0F7D1F6D5F7F4FC5010E947325EF
:1011000060E0F401EC54FF4FE491A1E8B0E0AC0FD3
:10111000BD1FA60FB11DEC936F5F9FEF891A990A4F
:10112000643078F3CD57DF4F4881C358D04050E04A
:101130009A012E5F3F4F862F90E0281739070CF752
:10114000C12CEE24E394CE57DF4F0881C258D04023
:10115000CF57DF4F2881C158D04061E870E06C0F55
:101160007D1F6D5F7F4FC5010E94732560E0F40114
:10117000EC54FF4FE491A1E8B0E0AC0FBD1FA60F07
:10118000B11DEC936F5FEFEF8E1A9E0A643078F317
:10119000CD57DF4F4881C358D04050E09A012E5FB1
:1011A0003F4F862F90E0281739070CF7C12CEE240B
:1011B000E394CE57DF4F0881C258D040CF57DF4F5E
:1011C0002881C158D04061E870E06C0F7D1F6D5FD1
:1011D0007F4FC5010E947325C5010E94D223833031
:1011E0009105D0F3482FBE016F5F7F4FC5010E946C
:1011F000EE23C5010E94772360E0F401EC54FF4F19
:10120000E491A1E8B0E0AC0FBD1FA60FB11DEC93B7
:101210006F5FFFEF8F1A9F0A643078F3CD57DF4F6F
:101220004881C358D04050E09A012E5F3F4F862F2F
:1012300090E0281739070CF7CE57DF4F0881C258C6
:10124000D040CF57DF4F2881C158D04061E870E0CF
:101250006C0F7D1F6D5F7F4FC5010E940925C50181
:101260000E94D22383309105D0F3482FBE016F5FD7
:101270007F4FC5010E94EE23C5010E947723F40130
:10128000EC54FF4F60E08491A1E8B0E0AC0FBD1FCB
:10129000A60FB11D8C936F5F643010F43196F3CFBD
:1012A000CD57DF4F4881C358D04050E09A012E5FA0
:1012B0003F4F862F90E02817390784F761E870E0E8
:1012C0006C0F7D1F6D5F7F4FC12CEE24E394CE57D2
:1012D000DF4F0881C258D040CF57DF4F2881C15817
:1012E000D040C5010E94732560E0C5010E94D8244A
:1012F0008AE290E0F50193838283C5010E949723DF
:10130000C5010E94772380E003C081E001C082E034
:10131000C057DF4F0FB6F894DEBF0FBECDBFDF91D1
:10132000CF911F910F91EF90CF90BF90AF909F9072
:101330008F900895CF93DF93DB01FA01309719F472
:10134000EC01E881F981808190E0982F8827218144
:10135000820F911D11969C938E93848190E0982F1B
:1013600088272581820F911D13969C938E93129747
:10137000808590E0982F88272185820F911D1596F2
:101380009C938E931497848590E0982F88272585C9
:10139000820F911D17969C938E93169780E0DF9194
:1013A000CF910895FF920F931F93CF93DF93CDB703
:1013B000DEB728970FB6F894DEBF0FBECDBF8B0106
:1013C000BE016F5F7F4F0E949A09F82E81114CC0B9
:1013D00069817A81882777FD8095982F0E945D2FFB
:1013E00020E030E040E858E30E948730F801608355
:1013F0007183828393836B817C81882777FD8095BD
:10140000982F0E945D2F20E030E040E858E30E94D2
:101410008730F80164837583868397836D817E812D
:10142000882777FD8095982F0E945D2F20E030E07F
:1014300040E858E30E948730F8016087718782870F
:1014400093876F817885882777FD8095982F0E94F4
:101450005D2F20E030E040E858E30E948730F8013B
:1014600064877587868797878F2D28960FB6F8949F
:10147000DEBF0FBECDBFDF91CF911F910F91FF90C7
:1014800008954F925F926F927F928F929F92AF9248
:10149000BF92CF92DF92EF92FF920F931F93CF9361
:1014A000DF93CDB7DEB728970FB6F894DEBF0FBE37
:1014B000CDBF8B01DA011496CD90DD90ED90FC90BC
:1014C00017971C964D905D906D907C901F978D9016
:1014D0009D90AD90BC90139718968D919D910D9015
:1014E000BC91A02D89839A83AB83BC83A301920115
:1014F000C701B6010E9487306D837E838F839887F2
:1015000029813A814B815C81C501B4010E948730F9
:101510009B01AC016D817E818F8198850E94F42DA5
:101520009B01AC010E94F52DF801608371838283D9
:101530009383A7019601C501B4010E9487306D8392
:101540007E838F839887A301920169817A818B8141
:101550009C810E9487309B01AC016D817E818F81CF
:1015600098850E94F52D9B01AC010E94F52DD801B4
:1015700014966D937D938D939C931797A501940179
:10158000C501B4010E9487304B015C01A70196019F
:10159000C701B6010E9487309B01AC01C501B401AF
:1015A0000E94F42D6B017C0129813A814B815C8181
:1015B000CA01B9010E9487309B01AC01C701B60185
:1015C0000E94F42D6B017C01A3019201C301B201C1
:1015D0000E9487309B01AC01C701B6010E94F52D26
:1015E000F801608771878287938780E028960FB61D
:1015F000F894DEBF0FBECDBFDF91CF911F910F9149
:10160000FF90EF90DF90CF90BF90AF909F908F9022
:101610007F906F905F904F9008952F923F924F92DE
:101620005F926F927F928F929F92AF92BF92CF9272
:10163000DF92EF92FF920F931F93CF93DF9300D02F
:1016400000D000D0CDB7DEB71B018A013E832D83C9
:10165000FA01C080D180E280F380A7019601C70122
:10166000B6010E94F52D69837A838B839C83F801F0
:1016700084809580A680B780A5019401C501B4013E
:101680000E94F52D2B013C01A701960169817A8109
:101690008B819C810E9487306B017C01A5019401A4
:1016A000C301B2010E9487309B01AC01C701B601A2
:1016B0000E94F52D20E030E040E85FE30E94F42D29
:1016C0006B017C01F8012085318542855385C3017A
:1016D000B2010E9487302B013C01F8012485358539
:1016E0004685578569817A818B819C810E948730EC
:1016F0009B01AC01C301B2010E94F42DA701960128
:101700000E94682EF1016083718382839383ED814F
:10171000FE816481758186819781C084D184E28451
:10172000F3849B01AC010E9487304B015C01A7014F
:101730009601C701B6010E9487309B01AC01C5012B
:10174000B4010E94F52D0E94F4309B01AC01ED81A3
:10175000FE8160817181828193810E94C22E0E94EC
:10176000932EF1016483758386839783ED81FE81D7
:101770006081718182819381C084D184E284F38409
:101780009B01AC010E9487304B015C01A7019601CF
:10179000C701B6010E9487309B01AC01C501B401AD
:1017A0000E94F52D0E94F4309B01AC01ED81FE8179
:1017B00064817581868197810E94C22E0E94932E3A
:1017C000F101608771878287938780E026960FB644
:1017D000F894DEBF0FBECDBFDF91CF911F910F9167
:1017E000FF90EF90DF90CF90BF90AF909F908F9041
:1017F0007F906F905F904F903F902F9008954F9201
:101800005F926F927F928F929F92AF92BF92CF9290
:10181000DF92EF92FF920F931F93CF93DF93EC0130
:101820007B01882777FD8095982F0E945D2F2B01E3
:101830003C012D813E814F8158850E94BB2E88231B
:10184000A1F18C80F7FE03C081E08825882EB701C6
:10185000F7FE03C0719561957109882777FD809522
:10186000982F1F921F921F922FEF2F93A12CB12C14
:10187000650114E6E12EF12C00E010E020E030E0FC
:10188000A9010E94AC2D6B017C01682D89810E9409
:101890004229B60188810E9481284D825E826F8232
:1018A00078860F900F900F900F90DF91CF911F913E
:1018B0000F91FF90EF90DF90CF90BF90AF909F90EF
:1018C0008F907F906F905F904F9008956F927F926E
:1018D0008F929F92AF92BF92CF92DF92EF92FF9240
:1018E0000F931F93CF93DF93EC014A015B0160914B
:1018F000650370916603882777FD8095982F0E9475
:101900005D2F9B01AC01C501B4010E94873020E02E
:1019100030E048EC52E40E94C22E6BA77CA78DA752
:101920009EA7EF8AF88E098F1A8FCE2CDF2C7801B4
:10193000F7FE08C0F094E094D094C094C11CD11C70
:10194000E11CF11C21E03FEFC316D306E3063FE79D
:10195000F30609F420E02E8B11E020E030E0A9012D
:101960000E94BB2E811101C010E01D8B20E030E0F1
:10197000A901C501B4010E94BB2E81110CC01BA29C
:101980001CA21DA21EA21FA218A619A61AA61F8E6F
:1019900018A219A21AA2DF91CF911F910F91FF9067
:1019A000EF90DF90CF90BF90AF909F908F907F90FF
:1019B0006F900895EF92FF920F931F93CF93DF9351
:1019C000EC01EE24EA94FE2C0FEF1FE720E030E05C
:1019D00040E050E0BA010E94660CEB8119861A863D
:1019E0001B861C86198A1A8A1B8A1C8A84E0E89F37
:1019F000F0011124E359FC4F1082118212821382EC
:101A00001BA21CA21DA21EA21FA218A619A61AA6DE
:101A10001F8E18A219A21AA20E94EF2760938103B9
:101A2000709382038093830390938403DF91CF911B
:101A30001F910F91FF90EF900895CF92DF92EF9258
:101A40000F93CF93DF931F92CDB7DEB76C01862F34
:101A5000F6016083418322830383E4829091330102
:101A6000992399F061E049830E94092961E0498145
:101A7000842F0E940929C6010F90DF91CF910F9109
:101A8000EF90DF90CF900C94DA0C0F90DF91CF9114
:101A90000F91EF90DF90CF9008954F925F926F92E9
:101AA0007F92AF92BF92CF92DF92EF92FF920F930D
:101AB0001F93CF93DF93CDB7DEB72C970FB6F89473
:101AC000DEBF0FBECDBFE986FA860B871C870E945A
:101AD000F42D2B013C01ABA1BCA12D913D914D9169
:101AE0005C910E94F52D2FA138A549A55AA50E9409
:101AF00087306D837E838F839887A3019201EDA148
:101B0000FEA160817181828193810E94F42D2FA1B9
:101B100038A549A55AA50E94873069837A838B83AB
:101B20009C83ED80FE800F811885ABA1BCA1ED9256
:101B3000FD920D931C931397ADA1BEA16D937D9360
:101B40008D939C931397E9A1FAA1408251826282FE
:101B50007382A301920169857A858B859C850E9499
:101B600087302B013C012D813E814F815885C60174
:101B7000B5010E9487309B01AC01C301B2010E94F4
:101B8000F52D6B017C0129813A814B815C816D8D42
:101B90007E8D8F8D98A10E9487309B01AC01C7017B
:101BA000B6010E94F52D2C960FB6F894DEBF0FBE3D
:101BB000CDBFDF91CF911F910F91FF90EF90DF90FC
:101BC000CF90BF90AF907F906F905F904F900895AF
:101BD0002F923F924F925F926F927F928F929F923D
:101BE000AF92BF92CF92DF92EF92FF920F931F932B
:101BF000CF93DF93CDB7DEB72C970FB6F894DEBF47
:101C00000FBECDBF1C016B01DC011D962D913D91D6
:101C10004D915C91509751968D919D910D90BC91F5
:101C2000A02D281B390B4A0B5B0BA8EEB3E00E94DA
:101C30009F31960140E050E029833A834B835C83D7
:101C40000E948031CA01B9010E945D2F2B013C0125
:101C5000D1019F966D937D938D939C93D297A09085
:101C60003901B0903A01C0903B01D0903C012091E5
:101C700035013091360140913701509138012D8363
:101C80003E834F8358879B968D919D910D90BC917B
:101C9000A02D89879A87AB87BC8769817A818B81E0
:101CA0009C810E945B2F20E030E04AE754E40E94D0
:101CB000C22E9F938F937F936F93C10187969F93BB
:101CC0008F9304979F938F9304979F938F93809103
:101CD00040018F9380913F018F9380913E018F93BC
:101CE00080913D018F93ED80FE800F811885A301C7
:101CF000920169857A858B859C850E944D0D4B01EB
:101D00005C01F101C3A4D4A4E5A4F6A40FB6F89431
:101D1000DEBF0FBECDBF20E030E0A901C701B60194
:101D20000E94BB2E882309F45AC020E030E0A901AC
:101D3000D1019F966D917D918D919C91D2970E943A
:101D4000BB2E8823A1F1F101238D348D458D568D55
:101D5000C501B4010E94F52D6B017C0120E030E04B
:101D600048EC52EC0E94BB2E87FD0FC020E030E013
:101D700048EC52E4B601C7010E947C30181654F4B6
:101D8000C12CD12C98EC82E407C0C12CD12C98EC4A
:101D900082EC02C09E2D8F2DA601692F782FD101D4
:101DA0005B964D935D936D937C935E971FC020E08F
:101DB00030E0A901C701B6010E947C3087FD05C053
:101DC00040E050E068E472E404C040E050E068E4C1
:101DD00072ECF101438F548F658F768F07C0D1016C
:101DE0005B961D921D921D921C925E97F101458596
:101DF000568567857089418B528B638B748B2C96CB
:101E00000FB6F894DEBF0FBECDBFDF91CF911F910B
:101E10000F91FF90EF90DF90CF90BF90AF909F9089
:101E20008F907F906F905F904F903F902F9008958C
:101E30001092710310927203109273031092740344
:101E400010926D0310926E0310926F031092700344
:101E500062E082E00E94092962E083E00E94092991
:101E600062E088E00E94092962E089E00E94092975
:101E700041E050E06FE075E080E00E942B2741E0F8
:101E800050E06DE475E081E00E942B2780913301E2
:101E9000882341F161E085E00E94092960E085E046
:101EA0000E94422961E086E00E94092960E086E004
:101EB0000E94422961E08BE00E94092960E08BE0EA
:101EC0000E94422961E081E10E94092960E081E1EC
:101ED0000E9442298DE193E00E94DA0C8AEE92E0A2
:101EE0000E94DA0C10927503109276031092770319
:101EF000109278031092790310927A0310927B0368
:101F000010927C0310927D0310927E0310927F0347
:101F100010928003109233010895EF92FF920F9375
:101F20001F93CF93DF937C010CE011E0C0E0D0E081
:101F30006CED71E0C7010E94251C0E94C11ABC0112
:101F4000F801808191810E947D360C5F1F4F892BA3
:101F500081F4CC0FDD1FCC0FDD1FC45FDE4FEA81A3
:101F6000FB81C701DF91CF911F910F91FF90EF90FF
:101F700009942196C730D105D9F6DF91CF911F91F1
:101F80000F91FF90EF9008958C01C0E0D0E0C01752
:101F9000D107B4F461E08DE00E94422968EC70E062
:101FA00080E090E00E941E2860E08DE00E944229BF
:101FB00068EC70E080E090E00E941E282196E7CF58
:101FC00068E572E080E090E00E941E28DECF26E007
:101FD00040E052EC61E070E083EE94E00E94842ADD
:101FE00064E170E080E090E00E941E2861E08DE0F6
:101FF0000E94092961E08CE00E94092962E084E0E6
:102000000E94092960E08DE00E94422960E08CE096
:102010000E9442290E94180F80913401882309F4FC
:102020007FC086E194E00E94A31E88E18093B800FF
:1020300062E087E00E94092980E593E00E94BE23C8
:102040006AE070E080E090E00E941E2880E593E066
:102050000E94192480E593E00E9410078093EF030B
:102060006AE070E080E090E00E941E288091EF031B
:1020700081113CC061E080E593E00E94D8246AE0D1
:1020800070E080E090E00E941E2880E593E00E94CE
:1020900077238093F103809152038093F0036CEDDA
:1020A00070E080E593E00E94C6246CE470E080E577
:1020B00093E00E94CC246BEA7FEF80E593E00E94DE
:1020C000D2246CEF76E080E593E00E94C0240E9469
:1020D000EF27605D7A488F4F9F4F60936302709344
:1020E000640280936502909366021AC064E571E011
:1020F00083EE94E00E94D92B4AE050E06091EF0318
:1021000083EE94E00E94B82C65E671E083EE94E0E3
:102110000E94F62B8091EF0390E001960E94C40F7D
:1021200067E671E083EE94E00C94F62BCF92DF9299
:10213000EF92FF92CF93DF93EC01C880D980EA80C1
:10214000FB802BED3FE049E450E4C701B6010E945B
:102150007C3018166CF42BED3FE049EC50E4C701DD
:10216000B6010E94F42D688379838A839B83E5CF2F
:102170002BED3FE049E450EC6091FC037091FD03CE
:102180008091FE039091FF030E94BB2E87FF0FC03A
:102190002BED3FE049EC50E4688179818A819B8195
:1021A0000E94F52D688379838A839B83E1CFDF9139
:1021B000CF91FF90EF90DF90CF9008958F929F92F4
:1021C000AF92BF92CF92DF92EF92FF921F93CF9385
:1021D000DF93CDB7DEB728970FB6F894DEBF0FBEFA
:1021E000CDBF6B017C0149015A010E94F42D6D8322
:1021F0007E838F839887A5019401C701B6010E9451
:10220000F52D69837A838B839C83CE0105960E948A
:102210009610CE0101960E949610C090FC03D090BB
:10222000FD03E090FE03F090FF032D813E814F817E
:102230005885C701B6010E947C3087FD0EC011E0B1
:1022400029813A814B815C81C701B6010E94BB2E76
:1022500018160CF410E0812F01C080E028960FB60C
:10226000F894DEBF0FBECDBFDF91CF911F91FF90DD
:10227000EF90DF90CF90BF90AF909F908F90089598
:10228000CF93DF93EC018DE193E00E94DA0C8AEEAC
:1022900092E00E94DA0C1092FC031092FD0310925F
:1022A000FE031092FF03109200041092010410929A
:1022B0000204109203041092040410920504109278
:1022C0000604109207046FE871E0CE010E94E70552
:1022D000882379F06FE871E0CE010E94251C0E94EE
:1022E000CD1A6093040470930504809306049093C0
:1022F000070461E971E0CE010E94E705882379F0C7
:1023000061E971E0CE010E94251C0E94CD1A609304
:10231000000470930104809302049093030463E922
:1023200071E0CE010E94E7058823A9F063E971E01E
:10233000CE010E94251C0E94CD1A25E33AEF4EE8FB
:102340005CE30E9487306093FC037093FD038093ED
:10235000FE039093FF038CEF93E00E949610209170
:1023600085033091860340918703509188036091E3
:10237000FC037091FD038091FE039091FF030E9486
:10238000F52D6093F8037093F9038093FA0390930B
:10239000FB03DF91CF910C945F144F925F926F9289
:1023A0007F92AF92BF92CF92DF92EF92FF920F9304
:1023B0001F93CF93DF9300D000D0CDB7DEB76C0171
:1023C00065E971E00E94E705882349F065E971E05D
:1023D000C6010E94251C0E94DC1A5B0102C0A12CD0
:1023E000B12C69E971E0C6010E94E705882311F16B
:1023F00069E971E0C6010E94251C0E94CD1A2B01DB
:102400003C0120E030E0A9010E947C3087FD06C03D
:10241000EE24EA94FE2C0FEF1FE705C0EE24E394B0
:10242000F12C00E010E89501B301A2018DE193E0E9
:102430000E94660C6CE971E0C6010E94E7058823E2
:1024400011F16CE971E0C6010E94251C0E94CD1AB1
:102450002B013C0120E030E0A9010E947C3087FD87
:1024600006C0EE24EA94FE2C0FEF1FE705C0EE2411
:10247000E394F12C00E010E89501B301A2018AEE8B
:1024800092E00E94660C6FE971E0C6010E94E705C8
:10249000882321F16FE971E0C6010E94251C0E948A
:1024A000CD1A25E33AEF4EE85CE30E94873069835A
:1024B0007A838B839C83CE0101960E94961089813A
:1024C0009A81AB81BC818093670390936803A0934A
:1024D0006903B0936A0381E080936C030F900F90BF
:1024E0000F900F90DF91CF911F910F91FF90EF9080
:1024F000DF90CF90BF90AF907F906F905F904F90A4
:1025000008954F925F926F927F928F929F92AF92B7
:10251000BF92CF92DF92EF92FF921F93CF93DF9300
:10252000CDB7DEB72C970FB6F894DEBF0FBECDBF88
:10253000E091200380912103F0E08823B1F0EE0FB9
:10254000FF1FEE0FFF1FE359FC4F80819181A28195
:10255000B38122273327A901281B390B4A0B5B0BB8
:102560002D833E834F83588711C09F01220F331F55
:10257000220F331F23593C4FD9018D919D910D900E
:10258000BC91A02D8D839E83AF83B887E091ED022F
:102590008091EE02F0E08823B1F0EE0FFF1FEE0F06
:1025A000FF1FE359FC4F80819181A281B3812227D3
:1025B0003327A901281B390B4A0B5B0B29873A8764
:1025C0004B875C8711C09F01220F331F220F331FDF
:1025D00023593C4FD9018D919D910D90BC91A02D17
:1025E00089879A87AB87BC87C0906303D0906403C8
:1025F000EE24D7FCE094FE2C8091260390912703D3
:10260000A0912803B09129032D813E814F815885E7
:10261000281B390B4A0B5B0BA8EEB3E00E949F31DD
:10262000A70196010E948031CA01B9010E945D2F65
:102630004B015C018091F3029091F402A091F502AC
:10264000B091F60229853A854B855C85281B390BAC
:102650004A0B5B0BA8EEB3E00E949F31A7019601E5
:102660000E948031CA01B9010E945D2F2B013C01FB
:102670002091F8033091F9034091FA035091FB0344
:102680006091850370918603809187039091880300
:102690000E94F42D69837A838B839C8321EE3EE232
:1026A00045E652E40E9487306B017C0120E030E077
:1026B000A9010E947C3018166CF411E02DEC3CEC62
:1026C0004CEC5DE3C701B6010E947C30181674F033
:1026D00010E00CC02DEC3CEC4CEC5DEBC701B601FE
:1026E0000E94BB2E182F111F1127111FA301920149
:1026F000C501B4010E94F52D20E030E040E05FE329
:102700000E9487306B017C0120E030E0A9010E942B
:102710007C3018165CF420E030E040E85FE3C7014D
:10272000B6010E947C30181654F00AC020E030E058
:1027300040E85FEBC701B6010E94BB2E87FD11E0A8
:102740008090FC039090FD03A090FE03B090FF03E7
:1027500020E030E040E05FE369817A818B819C81F9
:102760000E9487309B01AC01C501B4010E94F52D88
:102770002B013C010E94EA309B01AC01C701B6016C
:102780000E9487309B01AC016091040470910504A4
:1027900080910604909107040E94F52D6093040433
:1027A000709305048093060490930704C301B2015B
:1027B0000E94BF2E9B01AC01C701B6010E94873069
:1027C0009B01AC01609100047091010480910204AE
:1027D000909103040E94F52D60930004709301040E
:1027E000809302049093030429813A814B815C8198
:1027F000C501B4010E94F52D6093FC037093FD03A5
:102800008093FE039093FF038CEF93E00E94961059
:1028100040918503509186036091870370918803EE
:102820004093F8035093F9036093FA037093FB030A
:102830002D813E814F8158852093260330932703B5
:10284000409328035093290389859A85AB85BC85DD
:102850008093F3029093F402A093F502B093F602F2
:10286000812F2C960FB6F894DEBF0FBECDBFDF913F
:10287000CF911F91FF90EF90DF90CF90BF90AF90DE
:102880009F908F907F906F905F904F900895CF931F
:10289000DF9300D000D0CDB7DEB77A8369831C8286
:1028A0001B82BE016F5F7F4F0E94C01B8B819C818A
:1028B0000F900F900F900F90DF91CF910895CF92CE
:1028C000DF92EF92FF920F931F93CF93DF93CDB7D9
:1028D000DEB7C454D1090FB6F894DEBF0FBECDBF2A
:1028E0008DE092E09A83898325961FAE1EAE2597D0
:1028F000CE0101960E94851A8C0165EA71E00E9462
:10290000251C67EA71E00E94F61A20E030E04AE7F1
:1029100054E4609104047091050480910604909140
:1029200007040E94C22E6B017C016FE871E0C801B0
:102930000E94251C24E0B701A6010E94021B20E092
:1029400030E04AE754E46091000470910104809102
:102950000204909103040E94C22E6B017C0161E984
:1029600071E0C8010E94251C24E0B701A6010E9465
:10297000021B21EE3EE245E652E46091FC037091B9
:10298000FD038091FE039091FF030E9487306B014D
:102990007C0163E971E0C8010E94251C21E0B701B8
:1029A000A6010E94021B63EE74E0C8010E94471456
:1029B00083EE94E00E94E22BCC5BDF4F0FB6F894DD
:1029C000DEBF0FBECDBFDF91CF911F910F91FF9062
:1029D000EF90DF90CF900895CF92DF92EF92FF9229
:1029E0000F931F93CF93DF93CDB7DEB7C458D109B0
:1029F0000FB6F894DEBF0FBECDBF83E192E09A839D
:102A00008983CD57DF4F19821882C358D040CE0139
:102A100001960E94851A8C0165EA71E00E94251CCE
:102A20006CEA71E00E94F61AC0904803D090490306
:102A3000E0904A03F0904B0366EB71E0C8010E94FE
:102A4000251C22E0B701A6010E94021BC0901503BD
:102A5000D0901603E0901703F090180369EB71E033
:102A6000C8010E94251C22E0B701A6010E94021B9A
:102A7000C0904C03D0904D03E0904E03F0904F0374
:102A80006CEB71E0C8010E94251C22E0B701A60191
:102A90000E94021BC0901903D0901A03E0901B0300
:102AA000F0901C036FEB71E0C8010E94251C22E02E
:102AB000B701A6010E94021BE0912003809121032F
:102AC000F0E0EE0FFF1FEE0FFF1FE359FC4FC08039
:102AD000D180E280F380882341F0F094E094D09498
:102AE000C094C11CD11CE11CF11C62EC71E0C80156
:102AF0000E94251CB701A6010E94111BE091ED0266
:102B00008091EE02F0E0EE0FFF1FEE0FFF1FE35982
:102B1000FC4FC080D180E280F380882341F0F094A4
:102B2000E094D094C094C11CD11CE11CF11C66EC53
:102B300071E0C8010E94251CB701A6010E94111B6B
:102B400063EE74E0C8010E94471483EE94E00E9493
:102B5000E22BCC57DF4F0FB6F894DEBF0FBECDBFD0
:102B6000DF91CF911F910F91FF90EF90DF90CF9069
:102B70000895FF920F931F93CF93DF93CDB7DEB7E6
:102B8000C454D1090FB6F894DEBF0FBECDBFF82EE6
:102B90002DE032E03A83298325961FAE1EAE25979D
:102BA000CE0101960E94851A8C0165EA71E00E94AF
:102BB000251C6AEC71E00E94F61A60914301709145
:102BC0004401C8010E94251C4F2D50E060E070E0D8
:102BD0000E94111B63EE74E0C8010E94471483EE4B
:102BE00094E00E94E22BCC5BDF4F0FB6F894DEBF7F
:102BF0000FBECDBFDF91CF911F910F91FF90089530
:102C0000FF920F931F93CF93DF93CDB7DEB7C454DA
:102C1000D1090FB6F894DEBF0FBECDBFF82E2DE060
:102C200032E03A83298325961FAE1EAE2597CE014A
:102C300001960E94851A8C0110926B0310926C030E
:102C400065EA71E00E94251C61ED71E00E94F61AB0
:102C50006091430170914401C8010E94251C4F2DD1
:102C600050E060E070E00E94111B63EE74E0C80168
:102C70000E94471483EE94E00E94E22BCC5BDF4F6E
:102C80000FB6F894DEBF0FBECDBFDF91CF911F917D
:102C90000F91FF9008958F929F92AF92BF92EF9203
:102CA000FF920F931F93CF93DF930E94EF274B0167
:102CB0005C018091810390918203E401C81BD90BD0
:102CC00080916C03882381F06091670370916803A1
:102CD0008091690390916A0322EC38EB42EB5DE34B
:102CE0000E94DE10811183C0E091200380912103B6
:102CF000F0E0EE0FFF1FEE0FFF1FE359FC4F88239C
:102D000061F080819181A281B381B095A095909569
:102D100081959F4FAF4FBF4F04C080819181A281A9
:102D2000B38180932A0390932B03A0932C03B09339
:102D30002D03E091ED028091EE02F0E0EE0FFF1F17
:102D4000EE0FFF1FE359FC4F882361F080819181D2
:102D5000A281B381B095A095909581959F4FAF4F7B
:102D6000BF4F04C080819181A281B3818093F7021B
:102D70009093F802A093F902B093FA02BE018DE19C
:102D800093E00E94E80DBE018AEE92E00E94E80DF9
:102D9000609138037091390380913A0390913B031D
:102DA0000E942A2F8DE193E00E94FF0B60910503A2
:102DB0007091060380910703909108030E942A2FC7
:102DC0008AEE92E00E94FF0B809281039092820330
:102DD000A0928303B0928403DF91CF911F910F9152
:102DE000FF90EF90BF90AF909F908F900895E12C4F
:102DF000F12C870120E030E040E050E0BA018DE1A5
:102E000093E00E94660C20E030E040E050E0BA0120
:102E10008AEE92E00E94660C10926C0381E00E94A0
:102E2000001662CFEF920F931F9380E090E0A0E82E
:102E3000BFE380939D0390939E03A0939F03B09361
:102E4000A0031092A1031092A2031092A303109268
:102E5000A4031092A5031092A6031092A703109248
:102E6000A8031092A9031092AA031092AB03109228
:102E7000AC0310929103109292031092930310925C
:102E80009403109295031092960310929703109258
:102E900098031092990310929A0310929B03109238
:102EA0009C0382EC91E0909366038093650380E538
:102EB00093E00E941723EE24E39400E010E020E169
:102EC00030E04BE050E065E070E08DE193E00E947F
:102ED0001D0DE12C01E010E02FE030E041E150E079
:102EE00066E070E08AEE92E00E941D0D1F910F9146
:102EF000EF9008950F931F93CF93DF93CDB7DEB775
:102F0000C458D1090FB6F894DEBF0FBECDBF83EE13
:102F100094E00E94A129892B09F44DC083EE94E02E
:102F20000E94BA292091E8023091E9028A3089F59D
:102F3000C90101969093E9028093E802F901E859EA
:102F4000FD4F108283E192E09A838983CD57DF4F52
:102F500019821882C358D0404AE068E672E0CE0178
:102F600001960E94DF1D8C016CED71E00E94E70567
:102F7000882321F0C8010E948D0F06C067ED71E023
:102F800083EE94E00E94F62B1092E9021092E80280
:102F900012C0A9014F5F5F4F5093E9024093E802CE
:102FA000F901E859FD4F80834038510520F084E055
:102FB00090E00E94C40FCC57DF4F0FB6F894DEBFED
:102FC0000FBECDBFDF91CF911F910F9108950F9349
:102FD0001F93CF93DF93209128013091290140E086
:102FE00050E06091F2037091F3038091F4039091AB
:102FF000F5030E945E31672B682B692BA1F40E94B8
:10300000EF270091630210916402209165023091D4
:103010006602061717072807390728F4809162020D
:10302000882309F4DCC00E947A178091320188233A
:10303000E9F101E010E020E030E080912A01909178
:103040002B01892B19F000E010E098014091F20368
:103050005091F3036091F4037091F50340235123E1
:1030600062237323452B462B472B01F18091670286
:10307000811119C089B182958170C82F30E0D32F9A
:1030800080910A0190910B01C817D90779F0D0936C
:103090000B01C0930A0183E0809367028C2F81703B
:1030A0000E94B91503C0815080936702809133015B
:1030B0008823B1F020912E0130912F0140E050E0A3
:1030C0006091F2037091F3038091F4039091F50302
:1030D0000E945E31672B682B692B11F40E944B16FE
:1030E000209130013091310140E050E06091F203D5
:1030F0007091F3038091F4039091F5030E945E3187
:10310000672B682B692B49F40E948112882329F0D0
:103110008091F60381110E945F1420912C0130915F
:103120002D0140E050E06091F2037091F303809133
:10313000F4039091F5030E945E31672B682B692B95
:1031400081F48DE00E94782961E0892B09F060E02C
:103150008DE00E9442298091F703882311F01D9988
:1031600077C080913401882311F14F9B20C080E506
:1031700093E00E9477238093F10380E593E00E941F
:10318000D2239093EE038093ED032091F10324FD6D
:1031900004C08115944009F05EC060EE71E083EEDA
:1031A00094E00E94F62B80E593E00E9497238091A3
:1031B000F2039091F303A091F403B091F50301960B
:1031C000A11DB11D8093F2039093F303A093F40328
:1031D000B093F503DF91CF911F910F91089511E006
:1031E000109362028DE193E00E94DA0C8AEE92E085
:1031F0000E94DA0C1092FC031092FD031092FE0361
:103200001092FF0310920004109201041092020425
:103210001092030410920404109205041092060404
:1032200010920704409185035091860360918703B3
:10323000709188034093F8035093F9036093FA0365
:103240007093FB031093F60381E00E940016EBCE0F
:103250000E94EC1486CF21FFA6CF4091F0036DEAC7
:1032600073E080E593E00E94EE234DEA53E06DE9C0
:1032700073E080E593E00E94D2094DE953E061E9F3
:1032800073E080E593E00E94410A21E933E04DE9D3
:1032900053E065E873E080E593E00E940D0B83CF77
:1032A000CF93DF93EC0188819981DC01ED91FC9152
:1032B0000190F081E02D09952A813B81280F391F6B
:1032C0003B832A83DF91CF910895DB01ED91FC913F
:1032D00011970190F081E02DBC01CD0109940F936D
:1032E0001F93CF93DF938C01F801C281D381888132
:1032F000992787FD90950E944736892B29F02196C2
:10330000F801D383C283F0CFDF91CF911F910F914A
:1033100008950F931F93CF93DF931F92CDB7DEB71E
:103320008C0169830E946F19D8011296ED91FC916E
:1033300013978081698186130AC031961396FC9396
:10334000EE931297C8010E946F1981E001C080E0DE
:103350000F90DF91CF911F910F910895FB01219163
:10336000BF01222379F0DC011296ED91FC911397B5
:103370003081321307C03196DC011396FC93EE9333
:103380001297ECCF81E0211180E00895BF92CF9297
:10339000DF92EF92FF920F931F93CF93DF937C0105
:1033A000EB01009771F465E172E0CE01DF91CF91FE
:1033B0001F910F91FF90EF90DF90CF90BF900C94F2
:1033C000D92BE881F9810190F081E02D62E2CE01F4
:1033D00009958C01F70161917F01662351F0E5E2C7
:1033E000F2E0B080BB2079F191819617B1F032966E
:1033F000F8CFE881F9810190F081E02D62E2CE0101
:103400000995800F911FDF91CF911F910F91FF9030
:10341000EF90DF90CF90BF900895E881F9810190FF
:10342000F081E02D6CE5CE0109956C01E881F98110
:103430000190F081E02D6B2DCE0109958C0D9D1D25
:10344000080F191FC7CFE881F9810190F081E02DA5
:10345000CE010995F5CFCF93FC015081523229F06E
:10346000573219F080E090E023C09C012F5F3F4F5E
:10347000D901F901CF0101964081442399F3451701
:1034800091F04C3569F401964181E9E2F2E0C081A6
:10349000CC2331F0C41302C0418102C03296F7CF71
:1034A0004D93FC01E7CF1C92FB0191838083C901FE
:1034B000CF910895DC011296ED91FC91139730970E
:1034C00031F06115710531F4CF010296089588E05D
:1034D00094E00895615071090190F081E02DEFCFE3
:1034E000CF93DF93EC01BC0184E090E00E9465196A
:1034F000FC01009729F0D183C0831382128202C09D
:1035000082E194E0DF91CF910895CF93DF93EC01B6
:10351000BC0184E090E00E946519FC01009729F04D
:10352000D183C0831382128202C08EE094E0DF91C7
:10353000CF9108950F931F93CF93DF938B01FC01DD
:10354000C281D381209759F0B8018A819B810E9462
:103550007D36892B39F00990D881C02DF3CF80E0DA
:1035600090E001C0CE01DF91CF911F910F9108959E
:103570000E949A1A009711F00496089588E094E04A
:103580000895FC01208131812530310519F48281B3
:103590009381089580E090E00895FC0120813181BD
:1035A000273031052CF062817381848195810895E3
:1035B00060E070E0CB010895FC012081318126306C
:1035C000310529F46281738184819581089560E0D9
:1035D00070E0CB010895FC0180819181892B29F055
:1035E00084E090E09183808362830895FC01808170
:1035F0009181892B31F085E090E091838083738302
:1036000062830895FC0180819181892B49F030E02B
:10361000295F3F4F318320834283538364837583C3
:103620000895FC0180819181892B41F086E090E032
:103630009183808342835383648375830895FC015F
:1036400080819181892B31F082E090E091838083A9
:10365000738362830895FC0180819181892B31F00D
:1036600083E090E091838083738362830895FC01FB
:10367000208131812230310521F4828193810C94A3
:103680005A1A88E094E00895CF93DF93FC01EB0190
:10369000208131812230310531F482819381DF91A3
:1036A000CF910C949A1B2330310531F482819381A0
:1036B000DF91CF910C94C01B2530310539F468811E
:1036C0007981828193810E94C6192BC026303105F1
:1036D00059F442815381648175812AE030E0888108
:1036E00099810E94612C1DC02430310569F48281CA
:1036F000882319F06AE172E002C06FE172E088810C
:1037000099810E94D92B0DC02730310584F02750B4
:1037100030E04281538164817581888199810E9462
:10372000AA2D2A813B81280F391F3B832A83DF91F1
:10373000CF9108950F931F93CF93DF93EC018B01EB
:103740006BE5C8010E9450190A80DB81C02D2097CB
:1037500079F0B801CE0102960E94441B0990D881ED
:10376000C02D209729F06CE2C8010E945019F1CFBA
:103770006DE5C801DF91CF911F910F910C94501905
:103780000F931F93CF93DF938C01EB016BE7CE0177
:103790000E945019F801028113810115110509F1E8
:1037A00068817981F801828193810E94C6192A81FA
:1037B0003B81280F391F3B832A836AE3CE010E9495
:1037C0005019BE01C80104960E94441BF8010081F3
:1037D00011810115110529F06CE2CE010E945019EA
:1037E000DFCF6DE7CE01DF91CF911F910F910C9448
:1037F0005019FC01608171816115710579F08AE0D1
:1038000090E00E946519FC01009741F0118210823E
:1038100081E090E095838483CF01089580E090E07B
:103820000895DC011296ED91FC911397309749F0C1
:1038300080819181009711F0FC01FACF7183608340
:103840000895FC01738362830895EF92FF920F93B2
:103850001F93CF93DF938C017B010E949A1AEC0196
:10386000009761F4C8010E94F91BEC01009749F030
:10387000FB82EA82BC01C8010E94111CCE010496A1
:1038800002C088E094E0DF91CF911F910F91FF90EB
:10389000EF900895FC01608171816115710579F0E7
:1038A00088E090E00E946519FC01009741F01182C8
:1038B000108281E090E093838283CF01089580E0BD
:1038C00090E00895DC011296ED91FC9113973097EA
:1038D00049F080819181009711F0FC01FACF71834A
:1038E00060830895FC017383628308950F931F938F
:1038F000CF93DF938C010E944A1CEC01009739F0B2
:10390000BC01C8010E94621CCE01029602C088E080
:1039100094E0DF91CF911F910F910895EF92FF9264
:103920000F931F93CF93DF93EC01888199810E94BD
:10393000701A7C016BE5CE010E948919811103C0C8
:1039400082E194E022C06DE5CE010E9489198111C7
:103950001BC0C7010E94761C8C01BC01CE010E94D5
:10396000CC1CF801208131812230310548F36DE50E
:10397000CE010E948919811107C06CE2CE010E941C
:1039800089198111E6CFDCCFC701DF91CF911F915B
:103990000F91FF90EF900895EF92FF920F931F9376
:1039A000CF93DF9300D0CDB7DEB78C017B01DC0174
:1039B00014968C911497882309F4A3C0815014960F
:1039C0008C93C8010E946F19F80182819381DC01F8
:1039D0002C912A337CF420330CF03FC0273209F4B9
:1039E00061C024F4223209F45DC065C02D5222303A
:1039F000A0F161C02E3609F442C02CF42B3581F0C1
:103A00002636B1F058C0243799F02B3709F053C04F
:103A1000C8010E948A1DBC01C7010E942B1B4BC01C
:103A2000C8010E948E1CBC01C7010E941F1B43C01D
:103A30006AE172E0C8010E94AE19882311F061E0CA
:103A400008C06FE172E0C8010E94AE19882309F135
:103A500060E0C7010E94EB1A2EC04AE050E0BE01B0
:103A60006F5F7F4F0E941335AB01BC01E981FA8182
:103A700080818E3229F18F7D8534D1F521C065E1B9
:103A800072E0C8010E94AE19882319F060E070E06E
:103A90000FC086E0E8E0F4E0D70101900D928A952E
:103AA000E1F709C0B8016E5F7F4F0E942B1ABC017D
:103AB000C7010E94F61AF80184818F5F848321C0B8
:103AC000B8016E5F7F4FD80112968D919C9113972C
:103AD0000E94B033AB01BC01F8012281338189819E
:103AE0009A81281B390B2150C7010E94021BE3CF8A
:103AF000D8011396FC93EE931297C7010E94111BF5
:103B0000DACF0F900F90DF91CF911F910F91FF901F
:103B1000EF900895CF92DF92EF92FF920F931F9351
:103B2000CF93DF93EC01888199810E94851A6C0103
:103B30006BE7CE010E948919811103C08EE094E0E9
:103B400035C06DE7CE010E94891981112EC07E011A
:103B500082E0E80EF11CB7018A819B810E942B1A3A
:103B60008C01009759F36AE3CE010E9489198823DA
:103B700029F3B801C6010E94251C8C01BC01CE01AD
:103B80000E94CC1CF8012081318122303105B0F235
:103B90006DE7CE010E948919811107C06CE2CE0148
:103BA0000E9489198111D7CFC9CFC601DF91CF916A
:103BB0001F910F91FF90EF90DF90CF900895CF93DA
:103BC000DF9300D000D01F92CDB7DEB79A838983F0
:103BD0007C836B834D83CE0101960E948A1D0F90DA
:103BE0000F900F900F900F90DF91CF91089510924A
:103BF00013041092120410921504109214041092DF
:103C00000F0410920E0410921104109210041092DE
:103C100009041092080408958091460490E02091D0
:103C20004704821B9109089520914704809146041E
:103C3000281750F4E22FF0E0E85BFB4F808190E022
:103C40002F5F2093470408958FEF9FEF0895E09131
:103C5000470480914604E81730F4F0E0E85BFB4F3E
:103C6000808190E008958FEF9FEF08950895CF929F
:103C7000DF92EF92FF920F931F93CF93DF937C011C
:103C8000CB018A0120912204222389F0EB016B01F0
:103C9000C40ED51ECC15DD0569F06991D701ED91F3
:103CA000FC910190F081E02DC7010995F3CF642FBD
:103CB0000E94961FC801DF91CF911F910F91FF9035
:103CC000EF90DF90CF900895CF93DF931F92CDB701
:103CD000DEB76983209122042223D1F020912304AE
:103CE000203240F021E030E0FC013383228380E089
:103CF00090E015C080912404E82FF0E0EB5DFB4FCD
:103D0000998190838F5F809324048093230405C05E
:103D100061E0CE0101960E94961F81E090E00F9035
:103D2000DF91CF910895FC011382128248EE53E097
:103D300060E070E0448355836683778388E392E094
:103D40009183808308951092470410924604109244
:103D50002404109223040C94E11E862F413208F0B3
:103D600040E268E474E00E94FF1E109247048093D2
:103D70004604089521E00C94AD1E81E08093220456
:103D800060934504109224041092230408950F9325
:103D9000062F21E04091230465E274E08091450400
:103DA0000E94431F109224041092230410922204B4
:103DB0000F91089561E00C94C71E86E194E00C9485
:103DC000931E1092D50481E08093D3041092D20404
:103DD00061E082E10E94422961E083E10E94422980
:103DE000E9EBF0E080818E7F808380818D7F80830E
:103DF00088E48093B80085E48093BC000895413244
:103E000008F03FC09091D5049111FCCF91E09093C0
:103E1000D5042093D3042FEF209368041092AD04AF
:103E2000240F2093AC049093D4049091D404880F71
:103E3000892B8093D4048091D204813041F4109274
:103E4000D2048091D4048093BB0085EC01C085EE40
:103E50008093BC008091D5048130E1F38091AD0462
:103E6000841710F44091AD042EEA34E0FB01D9012F
:103E70008A2F821B841718F48D918193F9CF842F98
:103E8000089580E008950F93413208F046C0909164
:103E9000D5049111FCCF92E09093D5040093D30404
:103EA0009FEF909368041092AD044093AC04FB0123
:103EB0006EEA74E0DB019A2F961B941718F4919127
:103EC0009D93F9CF1092D4049091D404880F892B3C
:103ED0008093D4048091D204813041F41092D204B2
:103EE0008091D4048093BB0085EC01C085EE809363
:103EF000BC00222321F08091D5048230E1F380912F
:103F000068048F3F61F080916804803251F08091A5
:103F10006804803341F483E007C081E005C080E09D
:103F200003C082E001C084E00F910895613298F4EB
:103F30002091D504243089F460938A04FC018CE834
:103F400094E0DC012A2F281B261718F421912D93C9
:103F5000F9CF80E0089581E0089582E0089585ED2D
:103F60008093BC008091BC0084FDFCCF1092D504EE
:103F7000089585EC8093BC001092D50408951F929B
:103F80000F920FB60F9211242F933F934F935F938D
:103F90006F937F938F939F93AF93BF93EF93FF9311
:103FA0008091B900887F803609F49CC068F588321A
:103FB00009F45BC090F4803109F454C038F48823CC
:103FC00009F4F5C0883009F44DC0F5C0883109F412
:103FD0004CC0803209F45DC0EEC0803409F468C082
:103FE00048F4803309F455C0883309F0E4C0809365
:103FF0006804A8C0803509F44FC0883509F45DC055
:10400000883409F0D8C0D5C0883909F4C6C0A8F4EE
:10401000883709F467C038F4883609F463C08037FC
:1040200009F460C0C8C0883809F4B7C0803909F401
:104030005FC0803809F0BFC05BC0803B09F485C019
:1040400038F4803A09F466C0883A09F47EC0B3C0F7
:10405000803C09F4A6C0883C09F4A3C0883B09F45D
:1040600089C0A9C08091D40410C09091AD04809102
:10407000AC04981770F5E091AD0481E08E0F809349
:10408000AD04F0E0E255FB4F80818093BB0085ECEE
:1040900085C0809368048DC0E091AD0481E08E0FEF
:1040A0008093AD048091BB00F0E0E255FB4F80832C
:1040B0009091AD048091AC046DC0E091AD0481E0BD
:1040C0008E0F8093AD048091BB00F0E0E255FB4F72
:1040D00080838091D30481116CC081E08093D204ED
:1040E00084EA60C083E08093D50410926904CFCF46
:1040F00080916904803208F050C0E091690481E049
:104100008E0F809369048091BB00F0E0E659FB4F6D
:104110008083BDCF80916904803230F4E0916904DE
:10412000F0E0E659FB4F10820E94AF1F60916904D6
:1041300070E0E091CE04F091CF048AE694E0099516
:10414000109269040E94B91F36C084E08093D504A0
:1041500010928B0410928A04E091D004F091D10463
:10416000099580918A04811105C081E080938A04B9
:1041700010928C04E0918B0481E08E0F80938B046D
:10418000F0E0E457FB4F80818093BB0090918B045B
:1041900080918A04981708F47ACF85E88093BC0050
:1041A0000AC085EC8093BC001092D50404C0109224
:1041B00068040E94AF1FFF91EF91BF91AF919F9153
:1041C0008F917F916F915F914F913F912F910F90C0
:1041D0000FBE0F901F901895EF92FF920F931F93B1
:1041E000CF93DF9300D0CDB7DEB7062F142F682F03
:1041F00086E194E029833A830E94BD1E602F86E108
:1042000094E00E94641E2981022FE22E3A81F32E4F
:104210008E2D801B811740F4F70161917F0186E1AB
:1042200094E00E94641EF4CF86E194E00E94DA1EBE
:1042300091E0811190E0892F0F900F90DF91CF9145
:104240001F910F91FF90EF900895CF93DF931F92EE
:10425000CDB7DEB749839E012F5F3F4F41E00E94FB
:10426000EC200F90DF91CF910895DF92EF92FF92B3
:104270000F931F93CF93DF93C62F042F7901682FDD
:1042800086E194E00E94BD1E6C2F86E194E00E94BE
:10429000641E10E0000F111FD12CCD2DD0E0C017EF
:1042A000D1078CF4CC0FDD1FCE0DDF1D698186E1B7
:1042B00094E00E94641E688186E194E00E94641E7E
:1042C000D394D394EACF86E194E00E94DA1E91E081
:1042D000811190E0892FDF91CF911F910F91FF9075
:1042E000EF90DF900895CF93DF9300D0CDB7DEB786
:1042F0005A8349839E012F5F3F4F41E00E94352141
:104300000F900F90DF91CF9108953F924F925F925F
:104310006F927F928F929F92AF92BF92CF92DF92D5
:10432000EF92FF920F931F93CF93DF9300D000D0B3
:1043300000D0CDB7DEB7682E562E742E3A8329836F
:104340000E94EF276B017C01312C412C872D90E0DE
:104350009C838B834801A12CB12C3714B0F5662DBA
:1043600086E194E00E94BD1E652D86E194E00E94E6
:10437000641E86E194E00E94DA1E662D86E194E0D8
:104380000E94BD1E4B815C81431951094132510588
:1043900014F040E250E0662D86E194E00E94BA1EDF
:1043A00086E194E00E940C1E892B59F1011511053C
:1043B00079F10E94EF276C197D098E099F09681514
:1043C00079058A059B0520F11CC00115110589F1AD
:1043D0000E94EF276C197D098E099F0920E030E0CB
:1043E000601771078207930720F1872D90E0242D35
:1043F000332727FD309528173907DCF444244A94E5
:1044000018C0872D90E2971508F480E2380EA5CFEA
:10441000E981FA81E40DF11D47FCFA95FE83ED83F5
:1044200086E194E00E94141EED81FE818083439416
:10443000B7CF842D26960FB6F894DEBF0FBECDBF42
:10444000DF91CF911F910F91FF90EF90DF90CF9070
:10445000BF90AF909F908F907F906F905F904F90A4
:104460003F9008950F931F9389019A0141E00E94A4
:1044700085211F910F910895DF92EF92FF920F9384
:104480001F93CF93DF931F92CDB7DEB7D42E790160
:104490009801AE014F5F5F4F0E94322261E070E0F1
:1044A00001C0660FDA94EAF799819623F7019083A9
:1044B0000F90DF91CF911F910F91FF90EF90DF90C0
:1044C0000895CF92DF92EF92FF920F931F93CF93B5
:1044D000DF931F92CDB7DEB7C42ED22E9701AE0167
:1044E0004F5F5F4F0E9432228823F1F04C2D50E045
:1044F0004D1951094F5F5F4F61E070E002C0660FD8
:10450000771FDA94E2F761507109042E01C0660F3B
:104510000A94EAF72981262330E002C035952795D1
:104520004A95E2F7F80120830F90DF91CF911F9118
:104530000F91FF90EF90DF90CF900895EF92FF9250
:104540000F931F93CF93DF931F92CDB7DEB7182F32
:10455000062FF42EE22E2091450130914601AE0146
:104560004F5F5F4F0E943222898121E030E00F2CA3
:1045700001C0220F0A94EAF7EE2019F0482F422BCF
:1045800003C0422F409548234983602F812F0E940A
:1045900025210F90DF91CF911F910F91FF90EF9008
:1045A0000895DF92EF92FF920F931F93CF93DF93C3
:1045B0001F92CDB7DEB7F82EE62ED42E122F209103
:1045C000450130914601AE014F5F5F4F0E9432229C
:1045D000882319F14D2D50E0411B51094F5F5F4F6A
:1045E000E1E0F0E002C0EE0FFF1F1A95E2F731970D
:1045F000042E01C0EE0F0A94EAF701C0000F4A959D
:10460000EAF74E2F409589814823E0234E2B4983BA
:104610006E2D8F2D0E94252101C080E00F90DF912B
:10462000CF911F910F91FF90EF90DF90089528E6B2
:10463000FC0120830895462F69E1FC0180810C94E0
:1046400025210F93062F23E045E06AE1FC018081DC
:104650000E94D1220F9108950F93062F23E042E08C
:104660006AE1FC0180810E94D1220F9108950F938D
:10467000062F22E044E06BE1FC0180810E94D12200
:104680000F9108950F93062F22E044E06CE1FC01A6
:1046900080810E94D1220F910895462F6FE1FC0185
:1046A00080810C942521462F60E2FC0180810C94CE
:1046B0002521462F61E2FC0180810C942521462FA3
:1046C00062E2FC0180810C942521643048F4262F9D
:1046D000220F260F2B5D622FFC0180810C94252177
:1046E0000895462F68E3FC0180810C942521CF9327
:1046F000DF93EC012091450130914601AC014F5F01
:104700005F4F6AE388810E9432228981DF91CF91D5
:104710000895262F46E06AE6FC0180810C949E22D3
:10472000262F45E06AE6FC0180810C949E2221E060
:1047300042E06AE6FC0180810C949E2221E041E087
:104740006AE6FC0180810C949E2221E047E06BE642
:10475000FC0180810C949E22262F46E06BE6FC0132
:1047600080810C949E220F93062F23E042E06BE69B
:10477000FC0180810E94D1220F910895CF93DF9395
:10478000EC0161E00E94B32360E0CE010E94372378
:1047900060E0CE010E94422360E0CE01DF91CF9124
:1047A0000C94AC230F931F93CF93DF93EC010091F4
:1047B0004501109146019C012F5F3F4F42E062E7A7
:1047C00088810E948521898190E0982F88272A81FD
:1047D000822BDF91CF911F910F9108950F931F931B
:1047E0009B01009145011091460164E7FC01808125
:1047F0000E9485211F910F910895EF92FF920F93D0
:104800001F93CF93DF93EC01E0904501F0904601B8
:104810008C010F5F1F4F26E046E065E788810E940C
:1048200061228981DF91CF911F910F91FF90EF90CD
:1048300008950E94FD2391E0843309F090E0892FD0
:1048400008950F931F93CF93DF93EC0100914501DF
:10485000109146019C012F5F3F4F40E060E088814E
:104860000E943C228981DF91CF911F910F91089581
:10487000262F40E060E0FC0180810C949E22EF92A4
:10488000FF920F931F93CF93DF93EC01E0904501CC
:10489000F09046018C010F5F1F4F26E046E060E07C
:1048A00088810E9461228981DF91CF911F910F91B0
:1048B000FF90EF9008950F93062F26E046E060E00A
:1048C000FC0180810E94D1220F910895EF92FF9206
:1048D0000F931F93CF93DF93EC01E0904501F0908D
:1048E00046018C010F5F1F4F26E046E061E08881A2
:1048F0000E9461228981DF91CF911F910F91FF90DA
:10490000EF9008950F93062F26E046E061E0FC014A
:1049100080810E94D1220F910895EF92FF920F9310
:104920001F93CF93DF93EC01E0904501F090460197
:104930008C010F5F1F4F26E046E062E088810E94F5
:1049400061228981DF91CF911F910F91FF90EF90AC
:1049500008950F93062F26E046E062E0FC01808177
:104960000E94D1220F910895AB0166E0FC01808185
:104970000C947321AB0168E0FC0180810C947321DD
:10498000AB016AE0FC0180810C947321AB0163E10F
:10499000FC0180810C947321AB0165E1FC018081F5
:1049A0000C947321AB0167E1FC0180810C947321AD
:1049B000262F47E06AE6FC0180810C949E2221E0CC
:1049C00043E06AE6FC0180810C949E226F71211104
:1049D000606241116064462F6DE6FC0180810C9499
:1049E0002521462F6EE6FC0180810C942521CF9372
:1049F000DF93EC012091450130914601AC014F5FFE
:104A00005F4F6FE688810E9432228981DF91CF91CA
:104A100008955F926F927F928F929F92AF92BF9212
:104A2000CF92DF92EF92FF920F931F93CF93DF937A
:104A30007C015B016A01622E702E20E040E0662D51
:104A40000E94E624602FC7010E94F124C0E0D0E05C
:104A5000812C99249394CC15DD05A8F5CE014096C0
:104A6000C816D90618F45C2C5C1A02C0A0E15A2EB4
:104A7000252D30E0C401871991098217930714F49A
:104A8000572C5194009145011091460195012C0F2E
:104A90003D1F452D6FE6F70180810E948521C50DE0
:104AA000D11D750CCC15DD05B0F6711001C06394F5
:104AB00020E040E0662DC7010E94E624672DC70173
:104AC0000E94F124C8CFDF91CF911F910F91FF90E9
:104AD000EF90DF90CF90BF90AF909F908F907F909E
:104AE0006F905F9008952F923F924F925F926F92D6
:104AF0007F928F929F92AF92BF92CF92DF92EF926E
:104B0000FF920F931F93CF93DF9300D000D01F929B
:104B1000CDB7DEB79D838C837B836A834A01322EB7
:104B2000D02EE98220E040E0632D0E94E624602F31
:104B30008C819D810E94F124E980EE2029F080E1A2
:104B400090E00E94BF315C01CC2031F080E190E028
:104B50000E94BF31582E492EE12CF12CE814F904A3
:104B600008F07AC0C70140968816990618F4282CD8
:104B70002E1802C010E1212E222D30E080E091E0BD
:104B80008D1991098217930714F42D2C2194EA8131
:104B9000FB81EE0DFF1DCC2059F0852DA52DB42DE8
:104BA0009A2F981B921530F494919D933196F8CFDB
:104BB0005E2E4F2E252D342D422D6FE6AC81BD810A
:104BC0008C910E94EC20622C712CB981BB2369F17D
:104BD000A114B10451F120E040E0632D8C819D814E
:104BE0000E94E6246D2D8C819D810E94F12400910C
:104BF0004501109146019501422D6FE6EC81FD8142
:104C000080810E948521A301B501852D942D0E94EC
:104C10006736892B51F0C5010E945732CC2049F1EB
:104C2000852D942D0E94573224C0E60CF71CD20C1F
:104C3000E814F90408F092CFD11001C0339420E0B9
:104C400040E0632D8C819D810E94E6246D2D8C8136
:104C50009D810E94F12482CFF981FF2319F0C501C3
:104C60000E945732CC2039F0852D942D0E94573266
:104C700002C080E001C081E00F900F900F900F9074
:104C80000F90DF91CF911F910F91FF90EF90DF90E8
:104C9000CF90BF90AF909F908F907F906F905F90DC
:104CA0004F903F902F900895CF92EF920F93CC2486
:104CB000C3940E9473250F91EF90CF9008952F9287
:104CC0003F924F925F926F927F928F929F92AF929C
:104CD000BF92CF92DF92EF92FF920F931F93CF93E9
:104CE000DF9300D01F92CDB7DEB74C017B836A8380
:104CF0003A01D22E222331F088E090E00E94BF31A9
:104D0000182FF92E212C312C2614370408F051C00D
:104D1000EA81FB81E20DF31DC10103965C01DD20F8
:104D2000C1F04491F10131968A819B81E80FF91F0E
:104D30000491F1013296E80FF91F5490511044C0CC
:104D4000F4E02F0E311CEA81FB81EA0DFB1D8491FA
:104D50000DC0408101815280EA81FB81E80FF91F7B
:104D600051100DC084E0280E311C80818130D1F4B7
:104D700042E368E3F40180810E942521C5CF1E2F04
:104D8000FF2E452C512CC12CEE24E394242FA2019C
:104D9000612F7F2DC4010E94732512012A0C3B1C38
:104DA0008111B2CFDD2061F0812F9F2D0E945732FB
:104DB00007C0DD2039F0812F9F2D0E94573202C09D
:104DC00080E024C081E022C0252C312CF2E0F515D2
:104DD00048F4B101812F9F2D49830E94E632182F9C
:104DE000F92E4981812F9F2DA0E0B0E02A813B81DF
:104DF0002A0D3B1DA215B30520F6F901EA0FFB1F92
:104E00005491FC015193CF011196F4CF0F900F9064
:104E10000F90DF91CF911F910F91FF90EF90DF9056
:104E2000CF90BF90AF909F908F907F906F905F904A
:104E30004F903F902F90089521E00C945F26462FCD
:104E400060E7FC0180810C942521462F61E7FC017D
:104E500080810C9425218230E8F4E82FF0E0EE0FF9
:104E6000FF1FEA52FB4F71836083813041F08091D4
:104E700069008C7F842B80936900E89A0895809163
:104E80006900440F551F440F551F837F842B809367
:104E90006900E99A08951F920F920FB60F9211249C
:104EA0002F933F934F935F936F937F938F939F9332
:104EB000AF93BF93EF93FF938091D6049091D70463
:104EC000892B29F0E091D604F091D7040995FF9140
:104ED000EF91BF91AF919F918F917F916F915F9172
:104EE0004F913F912F910F900FBE0F901F901895EB
:104EF0001F920F920FB60F9211242F933F934F934F
:104F00005F936F937F938F939F93AF93BF93EF9331
:104F1000FF938091D8049091D904892B29F0E091D6
:104F2000D804F091D9040995FF91EF91BF91AF9109
:104F30009F918F917F916F915F914F913F912F91B1
:104F40000F900FBE0F901F9018951F920F920FB6E3
:104F50000F9211242F933F938F939F93AF93BF93FF
:104F60008091DB049091DC04A091DD04B091DE041B
:104F70003091DA0423E0230F2D3720F40196A11D90
:104F8000B11D05C026E8230F0296A11DB11D209377
:104F9000DA048093DB049093DC04A093DD04B093E7
:104FA000DE048091DF049091E004A091E104B091CF
:104FB000E2040196A11DB11D8093DF049093E004EB
:104FC000A093E104B093E204BF91AF919F918F91C0
:104FD0003F912F910F900FBE0F901F9018952FB7F4
:104FE000F8946091DB047091DC048091DD04909171
:104FF000DE042FBF08953FB7F8948091DF049091AD
:10500000E004A091E104B091E20426B5A89B05C09C
:105010002F3F19F00196A11DB11D3FBF6627782FC4
:10502000892F9A2F620F711D811D911D42E0660F1D
:10503000771F881F991F4A95D1F70895CF92DF9265
:10504000EF92FF92CF93DF936B017C010E94FB27CD
:10505000EB01C114D104E104F10489F00E94F32DA5
:105060000E94FB276C1B7D0B683E734090F381E030
:10507000C81AD108E108F108C851DC4FEACFDF9126
:10508000CF91FF90EF90DF90CF900895789484B502
:10509000826084BD84B5816084BD85B5826085BD34
:1050A00085B5816085BDEEE6F0E08081816080831A
:1050B000E1E8F0E0108280818260808380818160FD
:1050C0008083E0E8F0E0808181608083E1EBF0E0C4
:1050D000808184608083E0EBF0E080818160808368
:1050E000EAE7F0E080818460808380818260808351
:1050F0008081816080838081806880831092C1007C
:1051000008951F93CF93DF93182FEB0161E00E9466
:105110000929209711F460E004C0CF3FD10539F48C
:1051200061E0812FDF91CF911F910C944229E12FF3
:10513000F0E0E45DF64FE491E330F9F048F4E1305B
:10514000B9F0E230A1F584B5806284BDC8BD34C039
:10515000E730E9F0E83019F1E43049F5809180005A
:10516000806280938000D0938B00C0938A0024C01B
:1051700084B5806884BDC7BD1FC0809180008068F1
:1051800080938000D0938900C093880015C08091DF
:10519000B00080688093B000C093B3000DC08091D0
:1051A000B00080628093B000C093B40005C0C038E6
:1051B000D1050CF0B5CFAFCFDF91CF911F910895FE
:1051C000833081F028F4813099F08230A1F0089585
:1051D0008730A9F08830B9F08430D1F48091800014
:1051E0008F7D03C0809180008F7780938000089529
:1051F00084B58F7702C084B58F7D84BD089580917A
:10520000B0008F7703C08091B0008F7D8093B00095
:105210000895CF93DF9390E0FC01E05CF64F24917A
:10522000FC01EC5AF64F8491882349F190E0880FF5
:10523000991FFC01E458F64FA591B4918E58964FF2
:10524000FC01C591D4919FB7611108C0F8948C916D
:10525000209582238C93888182230AC0623051F486
:10526000F8948C91322F309583238C938881822BF4
:10527000888304C0F8948C91822B8C939FBFDF911C
:10528000CF9108950F931F93CF93DF931F92CDB7C4
:10529000DEB7282F30E0F901E45DF64F8491F90183
:1052A000E05CF64F1491F901EC5AF64F049100239B
:1052B000C9F0882321F069830E94E0286981E02FEA
:1052C000F0E0EE0FFF1FEE58F64FA591B4919FB797
:1052D000F8948C91611103C01095812301C0812B3A
:1052E0008C939FBF0F90DF91CF911F910F910895E5
:1052F000CF93DF93282F30E0F901E45DF64F8491DE
:10530000F901E05CF64FD491F901EC5AF64FC491E3
:10531000CC2391F081110E94E028EC2FF0E0EE0FF9
:10532000FF1FE859F64FA591B4912C912D2381E0F0
:1053300090E021F480E002C080E090E0DF91CF9126
:105340000895FC01818D228D90E0805C9F4F821B2F
:1053500091098F7399270895FC01918D828D98177B
:1053600031F0828DE80FF11D858D90E008958FEF6B
:105370009FEF0895FC01918D828D981761F0828DC9
:10538000DF01A80FB11D5D968C91928D9F5F9F7379
:10539000928F90E008958FEF9FEF08958EE39BE248
:1053A000892B49F080E090E0892B29F00E943E2B68
:1053B00081110C9400000895FC01848DDF01A80F79
:1053C000B11DA35ABF4F2C91848D90E001968F732D
:1053D0009927848FA689B7892C93A089B1898C914C
:1053E00080648C93938D848D981306C00288F38912
:1053F000E02D80818F7D80830895CF93DF93EC0132
:10540000888D8823C9F0EA89FB89808185FD05C0E4
:10541000A889B9898C9186FD0FC00FB607FCF5CF1E
:10542000808185FFF2CFA889B9898C9185FFEDCF66
:10543000CE010E94DC29E7CFDF91CF910895CF9272
:10544000DF92FF920F931F93CF93DF931F92CDB7FD
:10545000DEB76C01DC015B969C915B975C968C914E
:105460005C97981307C05096ED91FC9151978081FD
:1054700085FD32C0F601038D10E00F5F1F4F0F73E3
:105480001127F02EF601848DF81211C00FB607FC1B
:10549000F9CFD6015096ED91FC915197808185FF0F
:1054A000F1CFC60169830E94DC296981EBCF838D2E
:1054B000E80FF11DE35AFF4F6083D6015B960C9312
:1054C0005B975296ED91FC91539780818062808327
:1054D00081E058968C930DC0D6015696ED91FC91C3
:1054E000579760835096ED91FC915197808180642D
:1054F000808381E090E00F90DF91CF911F910F9119
:10550000FF90DF90CF900895BF92CF92DF92EF92FD
:10551000FF92CF93DF93EC016A017B01B22EE88901
:10552000F98982E08083411581EE58076105710594
:10553000A1F060E079E08DE390E0A70196010E9480
:105540005E312150310941095109569547953795EA
:105550002795211580E1380798F0E889F9891082AC
:1055600060E874E88EE190E0A70196010E945E3148
:10557000215031094109510956954795379527958D
:10558000EC85FD853083EE85FF852083188EEC89C0
:10559000FD89B082EA89FB89808180618083EA8904
:1055A000FB89808188608083EA89FB8980818068AB
:1055B0008083EA89FB8980818F7D8083DF91CF9111
:1055C000FF90EF90DF90CF90BF9008951F920F92C1
:1055D0000FB60F9211242F938F939F93EF93FF9306
:1055E000E091F304F091F4048081E091F904F091EA
:1055F000FA0482FD12C090818091FC048F5F8F734A
:105600002091FD04821751F0E091FC04F0E0ED518F
:10561000FB4F958F8093FC0401C08081FF91EF9137
:105620009F918F912F910F900FBE0F901F90189503
:105630001F920F920FB60F9211242F933F934F9307
:105640005F936F937F938F939F93AF93BF93EF93EA
:10565000FF9383EE94E00E94DC29FF91EF91BF91CC
:10566000AF919F918F917F916F915F914F913F91FA
:105670002F910F900FBE0F901F90189583EE94E01E
:105680000E94A12921E0892B09F420E0822F0895AE
:105690001092E6041092E50488EE93E0A0E0B0E0FA
:1056A0008093E7049093E804A093E904B093EA049C
:1056B00088E492E09093E4048093E30485EC90E026
:1056C0009093F0048093EF0484EC90E09093F204C4
:1056D0008093F10480EC90E09093F4048093F304C1
:1056E00081EC90E09093F6048093F50482EC90E0D6
:1056F0009093F8048093F70486EC90E09093FA047A
:105700008093F9041092FC041092FD041092FE04A0
:105710001092FF04089508950E9446280E948B2B42
:105720000E94E70FCEECD9E20E94E7172097E1F341
:105730000E94CE29F9CFCF92DF92EF92FF920F9382
:105740001F93CF93DF936C017A01EB01E60EF71EF6
:1057500000E010E0CE15DF0561F06991D601ED9112
:10576000FC910190F081E02DC6010995080F191FE9
:10577000F1CFC801DF91CF911F910F91FF90EF9072
:10578000DF90CF9008956115710581F0DB010D90D8
:105790000020E9F7AD0141505109461B570BDC01D0
:1057A000ED91FC910280F381E02D099480E090E07E
:1057B00008950C94C32BDC01ED91FC910190F081D4
:1057C000E02D09940F931F93CF93DF93EC016DE0CD
:1057D0000E94DB2B8C016AE0CE010E94DB2B800F44
:1057E000911FDF91CF911F910F9108950F931F93F8
:1057F000CF93DF93EC010E94C32B8C01CE010E945A
:10580000E22B800F911FDF91CF911F910F9108958F
:105810008F929F92AF92BF92CF92DF92EF92FF92C0
:105820000F931F93CF93DF93CDB7DEB7A1970FB63A
:10583000F894DEBF0FBECDBF7C01C42EE52FCB0197
:10584000D22E19A221E02D1510F02AE0D22E8E01C1
:105850000F5D1F4F8D2C912CA12CB12C6C2D7E2F08
:10586000A50194010E945E318C2DD29E80191124D5
:10587000015011098A3014F4805D01C0895CF8017F
:105880008083211531054105510521F0C22EE32FFA
:10589000CA01E4CFB801C7010E94C32BA1960FB67D
:1058A000F894DEBF0FBECDBFDF91CF911F910F9156
:1058B000FF90EF90DF90CF90BF90AF909F908F9030
:1058C0000895CF92DF92EF92FF920F931F93CF93A1
:1058D000DF93EC016A017B012115310579F4E88140
:1058E000F9810190F081E02D642FDF91CF911F911C
:1058F0000F91FF90EF90DF90CF9009942A303105FF
:10590000E9F477FF1AC06DE20E94DB2B8C0144277B
:105910005527BA014C195D096E097F092AE0CE01AD
:105920000E94082C800F911FDF91CF911F910F9142
:10593000FF90EF90DF90CF9008952AE0B701A60185
:10594000CE01DF91CF911F910F91FF90EF90DF90EB
:10595000CF900C94082C2115310541F4DC01ED9118
:10596000FC910190F081E02D642F09940C94082C97
:105970009A01462F50E060E070E00C94AB2C4F92FF
:105980005F926F927F928F929F92AF92BF92CF92CF
:10599000DF92EF92FF920F931F93CF93DF93EC016F
:1059A0006A017B01B22E9A01AB01C701B6010E94C8
:1059B0003531882319F064E572E027C026013701EC
:1059C000E89477F82FEF3FEF4FE75FE7C301B201AD
:1059D0000E94353181110DC02FEF3FEF4FE75FE798
:1059E000C301B2010E94BB2E18161CF468E572E0D8
:1059F0000CC02FEF3FEF4FE75FE4C701B6010E94F5
:105A00007C301816ACF46CE572E0CE01DF91CF91DA
:105A10001F910F91FF90EF90DF90CF90BF90AF90CC
:105A20009F908F907F906F905F904F900C94C32BBE
:105A30002FEF3FEF4FE75FECC701B6010E94BB2E8F
:105A400087FDE1CF20E030E0A901C701B6010E9447
:105A5000BB2E87FF0AC06DE2CE010E94DB2B8C01BA
:105A6000F7FAF094F7F8F09402C000E010E0A12CEF
:105A700060E070E080E09FE3AB1441F020E030E0B4
:105A800040E251E40E94C22EA394F6CF9B01AC01E8
:105A9000C701B6010E94F52D6B017C010E942F2FDA
:105AA0002B013C010E945B2F9B01AC01C701B60199
:105AB0000E94F42D6B017C012AE0B301A201CE010A
:105AC0000E94082C080F191FBB2039F060E672E015
:105AD000CE010E94C32B080F191F7B2C772041F1A8
