:100000000C94E5040C9456270C9483270C940D054E
:100010000C940D050C940D050C940D050C940D0518
:100020000C940D050C940D050C940D050C940D0508
:100030000C940D050C940D050C940D050C940D05F8
:100040000C94B0270C940D050C940E2B0C94402BA3
:100050000C940D050C940D050C940D050C940D05D8
:100060000C94CA1F0C940D05084AD73B3BCE016E79
:1000700084BCBFFDC12F3D6C74319ABD56833DDAFF
:100080003D00C77F11BED9E4BB4C3E916BAAAABE0E
:10009000000000803F05A84CCDB2D44EB93836A937
:1000A000020C50B9918688083CA6AAAA2ABE000074
:1000B00000803F0001B202FFFF0190040923A13537
:1000C000016A020600016008000000000000000054
:1000D00000600440000000016202000000600400B3
:1000E000400000037B034CCD6C03AB033656760017
:1000F000680402CB47A202180400058BC1010C045E
:1001000000000000037F060CC92C97979703890312
:10011000264666006C022000024004000000000237
:1001200044040000000002480400000000024C04E7
:10013000000000000250040000000002540400000F
:10014000000002580400000000025C0400000000EF
:1001500002BC040000000001EC0400004000037F2A
:10016000060CC92C9797970402030D355D0409040A
:10017000872D353D00A3010000000001078601FE28
:10018000074105F120283038077E01300746019AE3
:10019000074704F1283038076C04F128303802167C
:1001A000020001FB00003E000B00360001000200CF
:1001B00003000000650054FFEF0000FA80000B12FE
:1001C00082000100020000000000000000000000AA
:1001D00000000000280000FFFF4581FFFFFA7200C9
:1001E000000000000003E80000000100017FFFFFA5
:1001F000FE8001001B000000000000000000000065
:10020000000000003E03304000000002CAE3093E47
:10021000800000200000000000000040000000609E
:1002200000000041FF000000000B2A0000165500EE
:10023000002182FD872650FD800000001F00000085
:100240000580000000000000010000000200000026
:10025000030000400000000000046F00026532004F
:10026000005EC04000000000000000000000000030
:10027000000000FB8C6F5DFD5D08D9007C733B00C6
:100280006C12CC3200139D3200D0D63200080040F0
:100290000001F4FFE68079020000000000D0D600E3
:1002A000002710FB000000400000000000000000DC
:1002B000000000000000010000000000000100013B
:1002C0000000000000FA36FFBC308E0005FBF0FF96
:1002D000D95BC8FFD09ABE000010A9FFF41EB2007F
:1002E000CEBBF70000000100000004000200020283
:1002F00000000CFFC280000001800000CF800040A1
:1003000000000000000001000000000000060000E6
:1003100000001400000000000000000000000000C9
:1003200000000000000000000000000000000000CD
:1003300000000000000000000000000000000000BD
:1003400000000000000000033F68B6793528BCC6F5
:100350007ED16C80000000400000000000B26A0006
:10036000000000000000000000000000003FF0005E
:10037000000030000000000000000000000000004D
:10038000000000000000000000000000000000006D
:100390000000000000254D002F706D000005AE002C
:1003A0000C02D00000000000650054FFEF000000C8
:1003B000000000000001000044000000000C0000EC
:1003C000000100000000000065000000540000FF74
:1003D000EF0000000000000000000000000000002E
:1003E00000000040000000000000000000000000CD
:1003F00000000040000000000000000000000000BD
:1004000000000000000001000000020000000000E9
:1004100000000000000000000000000000000000DC
:1004200000000000000000000000000000000000CC
:10043000000000001B0000000000000000000000A1
:1004400000000000000000000000000000000000AC
:10045000000000000000000000000000000000405C
:10046000000000001B000000000000000000000071
:10047000000000000000000000000000000000007C
:10048000000000000000000000000000000000006C
:10049000000000000000000000000000000000005C
:1004A000000000D8DCBAA2F1DEB2B8B4A88191F79E
:1004B0004A907F916AF3F9DBA8F9B0BAA080F2CE36
:1004C00081F3C2F1C1F2C3F3CCA2B280F1C6D880ED
:1004D000BAA7DFDFDFF2A7C3CBC5B6F087A29424AB
:1004E00048703C95406834589B78A2F183922D5512
:1004F0007DD8B1B4B8A1D09180F270F370F27C8055
:10050000A8F101B09887D943D886C988BAA1F20E5C
:10051000B89780F1A9DFDFDFAADFDFDFF2AAC5CD60
:10052000C7A90CC92C97979797F1A989264666B059
:10053000B4BA80ACDEF2CAF1B28C02A9B6980089D6
:100540000E161EB8A9B4992C547CB08AA8963656BB
:1005500076F1B9AFB4B083C0B8A89711B18F98B98C
:10056000AFF0240844106418F1A329557DAF83B57A
:1005700093AFF0002850F1A3869F61A6DADEDFD9A1
:10058000FAA38696DB31A6D9F8DFBAA68FC2C5C713
:10059000B28CC1B8A2DFDFDFA3DFDFDFD8D8F1B8CC
:1005A000A8B286B4980D355DB8AA98B0872D353DB0
:1005B000B2B6BAAF8C96198F9FA70E161EB49AB812
:1005C000AA872C547CB9A3DEDFDFA3B180F2C4CDAF
:1005D000C9F1B8A9B499830D355D89B9A32D557DAD
:1005E000B593A30E161EA92C547CB8B4B0F1978312
:1005F000A81184A50998A383F0DA2408441064188C
:10060000D8F1A529557DA58595021A2E3A565A404E
:1006100048F9F3A3D9F8F098832408441064189794
:1006200082A8F111F098A2240844106418DAF3DECD
:10063000D883A59401D9A302F1A2C3C5C7D8F18478
:1006400092A24DDA2AD84869D92AD86855DA32D820
:100650005071D932D8705DDA3AD85879D93AD87809
:1006600093A34DDA2AD84869D92AD86855DA32D8FE
:100670005071D932D8705DDA3AD85879D93AD878E9
:10068000A88A9AF02850789EF38818F19F1D98A8A0
:10069000D908D8C89F129EF315A8DA1210D8F1AF66
:1006A000C8978734B5B994A421F3D922D8F22DF391
:1006B000D92AD8F235F3D932D881A4606061D961E2
:1006C000D86C6869D969D8747071D971D8B1A384AC
:1006D000193D5DA3831A3E5E931030811011B8B0AE
:1006E000AF8F94F2DA3ED8B49AA88729DAF8D8877F
:1006F0009A35DAF8D8879A3DDAF8D8B1B9A498854E
:10070000022E56A581000C14A397B08AF12DD9288A
:10071000D84DD948D86DD968D8B1840DDA0ED8A390
:100720002983DA2C0ED8A3844983DA2C4C0ED8B84E
:10073000B0A88A9AF520AADADFD8A840AAD0DADED3
:10074000D8A860AADAD0DFD8F19786A8319B06999D
:1007500007AB9728889BF00C201440B8B0B4A88C45
:100760009CF0042851791D301438B282ABD0982CFB
:10077000505078789BF11AB0F08A9CA82951798B57
:100780002951798A2470598B2058718A4469388B91
:100790003940688A6448318B304960A588200971E6
:1007A000584468113964493019F1AC002C547CF07C
:1007B0008CA804285078F1889726A85998AC8C0208
:1007C000264666F0899CA8295179247059446938D5
:1007D000644831A98809205970AB11384069A819BB
:1007E0003148608CA83C415C207C00F187981986D8
:1007F000A86E767EA999882D557D9EB9A38A228AF6
:100800006E8A568A5E9FB183062646660E2E4E6E0F
:100810009DB8AD002C547CF2B18CB499B9A32D5580
:100820007D8191AC38AD3AB58391AC2DD928D84DA6
:10083000D948D86DD968D88C9DAE29D904AED85185
:10084000D904AED879D904D881F39DAD008DAE1905
:1008500081ADD901D8F2AEDA26D88E912983A7D9F5
:10086000ADADADADF32AD8D8F1B0AC89913E5E768E
:10087000F3AC2E2EF1B18C5A9CAC2C2828289CACC1
:100880003018A8988128343C9724A728343C9C240D
:10089000F2B089AC912C4C6C8A9B2DD9D8D851D907
:1008A000D8D879D9D8D8F19E88A331DAD8D8912D63
:1008B000D928D84DD948D86DD968D8B18393353D5A
:1008C0008025DAD8D88569DAD8D8B49381A32834BA
:1008D0003CF3AB8BF8A391B609B4D9ABDEFAB08781
:1008E0009CB9A3DDF1A3A3A3A395F1A3A3A39DF1B9
:1008F000A3A3A3A3F2A3B49080F2A3A3A3A3A3A34F
:10090000A3A3A3A3B2A3A3A3A3A3A3B087B599F161
:10091000A3A3A398F1A3A3A3A397A3A3A3A3F39B28
:10092000A3A3DCB9A7F1262626D8D8FF000000082B
:1009300000020100000304070000000000000000A6
:100940000102040810204080010204081020010266
:100950000408102004040404040404040202020233
:100960000202030303030303000000002300260028
:10097000290000000000250028002B0000000000D6
:10098000240027002A004E414E494E495459494EF1
:1009900046CDCCCC3D0AD7233C17B7D13877CC2BEA
:1009A000329595E6241FB14F0A000020410000C88F
:1009B0004200401C4620BCBE4CCA1B0E5AAEC59D10
:1009C00074005517021EE81E702B11241FBECFEFB6
:1009D000D8E0DEBFCDBF12E0A0E0B1E0E4EDFDE67F
:1009E00002C005900D92A436B107D9F725E0A4E620
:1009F000B2E001C01D92AC38B207E1F719E0CAECD1
:100A0000D9E004C02297FE010E94D431C23CD10734
:100A1000C9F70E94B42B0C94E8360C9400001F9286
:100A20000F920FB60F9211242F938F939F93AF9332
:100A3000BF9323B1822F817090E04A9B03C0892B22
:100A400019F00EC0892B61F080917F039091800393
:100A5000A0918103B09182030196A11DB11D0BC02D
:100A600080917F0390918003A0918103B0918203D4
:100A70000197A109B10980937F0390938003A0930C
:100A80008103B0938203BF91AF919F918F912F917A
:100A90000F900FBE0F901F9018951F920F920FB6D8
:100AA0000F9211242F938F939F93AF93BF9323B1F2
:100AB00021FB882780F990E04B9B03C0892B19F01C
:100AC0000EC0892B61F08091830390918403A091E3
:100AD0008503B09186030196A11DB11D0BC08091C5
:100AE000830390918403A0918503B09186030197BD
:100AF000A109B1098093830390938403A093850394
:100B0000B0938603BF91AF919F918F912F910F90DA
:100B10000FBE0F901F9018959C01FC01EE57FF4FE0
:100B200080819181680F791F6138710530F471837C
:100B300060830296820F931F089580E090E00895ED
:100B40009C01FC01EE5BFF4F80819181680F791F52
:100B50006134710530F4718360830296820F931FB4
:100B6000089580E090E00895609143017091440100
:100B70000E94301C0E94E71A21E06130710509F0E3
:100B800020E0209332010895609143017091440167
:100B90000E94301C0E94E71A21E06130710509F0C3
:100BA00020E02093FC03089560914301709144017B
:100BB0000E94301C0E94E71A21E06130710509F0A3
:100BC00020E020933301622F8CE00C946A290E946C
:100BD000C31AFC0181E0208131812230310508F403
:100BE00080E00895CF93DF93EC0168E471E00E9408
:100BF000E705882311F168E471E0CE010E94301C02
:100C000060E070E00E94421B0E94D81A0E94522F9E
:100C1000709376036093750368E471E0CE010E94DF
:100C2000301C61E070E00E94421B0E94D81A0E94B2
:100C3000522F70937803609377036DE471E0CE01D7
:100C40000E94E705882309F469C06DE471E0CE01D4
:100C50000E94301C60E070E00E94421B0E94D81A83
:100C6000609335017093360180933701909338017A
:100C70006DE471E0CE010E94301C61E070E00E94E2
:100C8000421B0E94D81A6093390170933A018093F5
:100C90003B0190933C016DE471E0CE010E94301C59
:100CA00062E070E00E94421B0E94D81A60933D01EE
:100CB00070933E0180933F01909340011092130383
:100CC00010921403109215031092160310924E0303
:100CD00010924F03109250031092510310920F0381
:100CE00010921003109211031092120310924A03F3
:100CF00010924B0310924C0310924D0310920B0371
:100D000010920C0310920D0310920E0310924603E2
:100D100010924703109248031092490361E571E075
:100D2000CE010E94E705882309F45CC061E571E00B
:100D3000CE010E94301C60E070E00E94421B0E94C5
:100D4000E71A82E693E00E94BF2461E571E0CE01DC
:100D50000E94301C61E070E00E94421B0E94E71A72
:100D600082E693E00E94C52461E571E0CE010E9415
:100D7000301C62E070E00E94421B0E94E71A82E68B
:100D800093E00E94CB2461E571E0CE010E94301C0B
:100D900063E070E00E94421B0E94E71A82E693E043
:100DA0000E94D12461E571E0CE010E94301C64E014
:100DB00070E00E94421B0E94E71A82E693E00E94C4
:100DC000D72461E571E0CE010E94301C65E070E03F
:100DD0000E94421B0E94E71A82E693E0DF91CF91C6
:100DE0000C94DD24DF91CF910895CF93DF93EC0134
:100DF00060914301709144010E94301C0E94E71AE7
:100E000021E06130710509F020E02093FD0360913D
:100E1000410170914201CE010E94E705882369F0EB
:100E20006091410170914201CE010E94301C0E94EC
:100E3000E71A70932D0160932C01DF91CF910895F3
:100E40008F929F92AF92BF92CF92EF920F931F9388
:100E5000CF93DF93CDB7DEB7C059D1090FB6F89461
:100E6000DEBF0FBECDBF5C010E94B0236EE170E01B
:100E700080E090E00E94292860E0C5010E94B7232D
:100E800021E041E060E1C5010E94F12466E0C50176
:100E90000E94FC24C5010E94022520E040E060E0A1
:100EA000C5010E94F124C5010E942C24C5010E94A5
:100EB0004A24182FC5010E947124882EC5010E9462
:100EC0009824982E4FE760E0C5010E94702360E0EF
:100ED000C5010E949B2348E660E0C5010E94702383
:100EE000C5010E94A92364E170E080E090E00E94C7
:100EF0002928EE24E39400E020E049E857E063EA83
:100F000071E0C5010E945F26882309F40EC240ECFF
:100F100050E063EE70E0C5010E942727882309F4A2
:100F200006C263E0C5010E94BE2362E1C5010E94C2
:100F30007C2364E0C5010E94262361E0C5010E9474
:100F40002C2363E0C5010E94372363E0C5010E94A2
:100F5000422363E0C5010E942A2760E0C5010E9488
:100F6000302760E0C5010E944324612FC5010E9423
:100F70006624682DC5010E948D24692DC5010E943B
:100F8000B424812C912CF401EC54FF4FE491A1E89E
:100F9000B0E0AC0FBD1FA80DB11DEC9381E0880D32
:100FA0009FEF891A990AE3E0E81568F7CD57DF4FFC
:100FB0004881C358D04050E09A012E5F3F4F90E0E7
:100FC0002817390704F7C12CEE24E394CE57DF4FDE
:100FD0000881C258D040CF57DF4F2881C158D04038
:100FE00061E870E06C0F7D1F6D5F7F4FC5010E944F
:100FF0007E2560E0F401EC54FF4FE491A1E8B0E0FD
:10100000AC0FBD1FA60FB11DEC936F5FFFEF8F1AE2
:101010009F0A643078F3CD57DF4F4881C358D040E2
:1010200050E09A012E5F3F4F862F90E02817390736
:101030000CF7C12CEE24E394CE57DF4F0881C25841
:10104000D040CF57DF4F2881C158D04061E870E0D1
:101050006C0F7D1F6D5F7F4FC5010E947E25C5010E
:101060000E94A223C5010E94DD23482FBE016F5FAD
:101070007F4FC5010E94F92362E0C5010E945823F9
:101080006CE9C5010E94642360E5C5010E945E23EE
:1010900060E0C5010E946A23C5010E94A22361E0AD
:1010A000C5010E94942361E0C5010E94E324C501AB
:1010B0000E94EA2460E0F401EC54FF4FE491A1E8BF
:1010C000B0E0AC0FBD1FA60FB11DEC936F5F8FEFAB
:1010D000881A980A643078F3CD57DF4F4881C35897
:1010E000D04050E09A012E5F3F4F862F90E02817A6
:1010F00039070CF7C12CEE24E394CE57DF4F08815B
:10110000C258D040CF57DF4F2881C158D04061E846
:1011100070E06C0F7D1F6D5F7F4FC5010E947E25C3
:1011200060E0F401EC54FF4FE491A1E8B0E0AC0FB3
:10113000BD1FA60FB11DEC936F5F9FEF891A990A2F
:10114000643078F3CD57DF4F4881C358D04050E02A
:101150009A012E5F3F4F862F90E0281739070CF732
:10116000C12CEE24E394CE57DF4F0881C258D04003
:10117000CF57DF4F2881C158D04061E870E06C0F35
:101180007D1F6D5F7F4FC5010E947E2560E0F401E9
:10119000EC54FF4FE491A1E8B0E0AC0FBD1FA60FE7
:1011A000B11DEC936F5FEFEF8E1A9E0A643078F3F7
:1011B000CD57DF4F4881C358D04050E09A012E5F91
:1011C0003F4F862F90E0281739070CF7C12CEE24EB
:1011D000E394CE57DF4F0881C258D040CF57DF4F3E
:1011E0002881C158D04061E870E06C0F7D1F6D5FB1
:1011F0007F4FC5010E947E25C5010E94DD238330FB
:101200009105D0F3482FBE016F5F7F4FC5010E944B
:10121000F923C5010E94822360E0F401EC54FF4FE2
:10122000E491A1E8B0E0AC0FBD1FA60FB11DEC9397
:101230006F5FFFEF8F1A9F0A643078F3CD57DF4F4F
:101240004881C358D04050E09A012E5F3F4F862F0F
:1012500090E0281739070CF7CE57DF4F0881C258A6
:10126000D040CF57DF4F2881C158D04061E870E0AF
:101270006C0F7D1F6D5F7F4FC5010E941425C50156
:101280000E94DD2383309105D0F3482FBE016F5FAC
:101290007F4FC5010E94F923C5010E948223F401FA
:1012A000EC54FF4F60E08491A1E8B0E0AC0FBD1FAB
:1012B000A60FB11D8C936F5F643010F43196F3CF9D
:1012C000CD57DF4F4881C358D04050E09A012E5F80
:1012D0003F4F862F90E02817390784F761E870E0C8
:1012E0006C0F7D1F6D5F7F4FC12CEE24E394CE57B2
:1012F000DF4F0881C258D040CF57DF4F2881C158F7
:10130000D040C5010E947E2560E0C5010E94E32413
:101310008AE290E0F50193838283C5010E94A223B3
:10132000C5010E94822380E003C081E001C082E009
:10133000C057DF4F0FB6F894DEBF0FBECDBFDF91B1
:10134000CF911F910F91EF90CF90BF90AF909F9052
:101350008F900895CF93DF93DB01FA01309719F452
:10136000EC01E881F981808190E0982F8827218124
:10137000820F911D11969C938E93848190E0982FFB
:1013800088272581820F911D13969C938E93129727
:10139000808590E0982F88272185820F911D1596D2
:1013A0009C938E931497848590E0982F88272585A9
:1013B000820F911D17969C938E93169780E0DF9174
:1013C000CF910895FF920F931F93CF93DF93CDB7E3
:1013D000DEB728970FB6F894DEBF0FBECDBF8B01E6
:1013E000BE016F5F7F4F0E94AA09F82E81114CC089
:1013F00069817A81882777FD8095982F0E94852FB3
:1014000020E030E040E858E30E94AF30F80160830C
:101410007183828393836B817C81882777FD80959C
:10142000982F0E94852F20E030E040E858E30E948A
:10143000AF30F80164837583868397836D817E81E5
:10144000882777FD8095982F0E94852F20E030E037
:1014500040E858E30E94AF30F801608771878287C7
:1014600093876F817885882777FD8095982F0E94D4
:10147000852F20E030E040E858E30E94AF30F801CB
:1014800064877587868797878F2D28960FB6F8947F
:10149000DEBF0FBECDBFDF91CF911F910F91FF90A7
:1014A00008954F925F926F927F928F929F92AF9228
:1014B000BF92CF92DF92EF92FF920F931F93CF9341
:1014C000DF93CDB7DEB728970FB6F894DEBF0FBE17
:1014D000CDBF8B01DA011496CD90DD90ED90FC909C
:1014E00017971C964D905D906D907C901F978D90F6
:1014F0009D90AD90BC90139718968D919D910D90F5
:10150000BC91A02D89839A83AB83BC83A3019201F4
:10151000C701B6010E94AF306D837E838F839887A9
:1015200029813A814B815C81C501B4010E94AF30B1
:101530009B01AC016D817E818F8198850E941C2E5C
:101540009B01AC010E941D2EF80160837183828390
:101550009383A7019601C501B4010E94AF306D834A
:101560007E838F839887A301920169817A818B8121
:101570009C810E94AF309B01AC016D817E818F8187
:1015800098850E941D2E9B01AC010E941D2ED80142
:1015900014966D937D938D939C931797A501940159
:1015A000C501B4010E94AF304B015C01A701960157
:1015B000C701B6010E94AF309B01AC01C501B40167
:1015C0000E941C2E6B017C0129813A814B815C8138
:1015D000CA01B9010E94AF309B01AC01C701B6013D
:1015E0000E941C2E6B017C01A3019201C301B20178
:1015F0000E94AF309B01AC01C701B6010E941D2EB5
:10160000F801608771878287938780E028960FB6FC
:10161000F894DEBF0FBECDBFDF91CF911F910F9128
:10162000FF90EF90DF90CF90BF90AF909F908F9002
:101630007F906F905F904F9008952F923F924F92BE
:101640005F926F927F928F929F92AF92BF92CF9252
:10165000DF92EF92FF920F931F93CF93DF9300D00F
:1016600000D000D0CDB7DEB71B018A013E832D83A9
:10167000FA01C080D180E280F380A7019601C70102
:10168000B6010E941D2E69837A838B839C83F801A7
:1016900084809580A680B780A5019401C501B4011E
:1016A0000E941D2E2B013C01A701960169817A81C0
:1016B0008B819C810E94AF306B017C01A50194015C
:1016C000C301B2010E94AF309B01AC01C701B6015A
:1016D0000E941D2E20E030E040E85FE30E941C2EB7
:1016E0006B017C01F8012085318542855385C3015A
:1016F000B2010E94AF302B013C01F80124853585F1
:101700004685578569817A818B819C810E94AF30A3
:101710009B01AC01C301B2010E941C2EA7019601DE
:101720000E94902EF1016083718382839383ED8107
:10173000FE816481758186819781C084D184E28431
:10174000F3849B01AC010E94AF304B015C01A70107
:101750009601C701B6010E94AF309B01AC01C501E3
:10176000B4010E941D2E0E941C319B01AC01ED8131
:10177000FE8160817181828193810E94EA2E0E94A4
:10178000BB2EF1016483758386839783ED81FE818F
:101790006081718182819381C084D184E284F384E9
:1017A0009B01AC010E94AF304B015C01A701960187
:1017B000C701B6010E94AF309B01AC01C501B40165
:1017C0000E941D2E0E941C319B01AC01ED81FE8107
:1017D00064817581868197810E94EA2E0E94BB2ECA
:1017E000F101608771878287938780E026960FB624
:1017F000F894DEBF0FBECDBFDF91CF911F910F9147
:10180000FF90EF90DF90CF90BF90AF909F908F9020
:101810007F906F905F904F903F902F9008954F92E0
:101820005F926F927F928F929F92AF92BF92CF9270
:10183000DF92EF92FF920F931F93CF93DF93EC0110
:101840007B01882777FD8095982F0E94852F2B019B
:101850003C012D813E814F8158850E94E32E8823D3
:10186000A1F18C80F7FE03C081E08825882EB701A6
:10187000F7FE03C0719561957109882777FD809502
:10188000982F1F921F921F922FEF2F93A12CB12CF4
:10189000650114E6E12EF12C00E010E020E030E0DC
:1018A000A9010E94D42D6B017C01682D89810E94C1
:1018B0006A29B60188810E94A9284D825E826F82C2
:1018C00078860F900F900F900F90DF91CF911F911E
:1018D0000F91FF90EF90DF90CF90BF90AF909F90CF
:1018E0008F907F906F905F904F9008956F927F924E
:1018F0008F929F92AF92BF92CF92DF92EF92FF9220
:101900000F931F93CF93DF93EC014A015B0160912A
:10191000770370917803882777FD8095982F0E9430
:10192000852F9B01AC01C501B4010E94AF3020E0BE
:1019300030E048EC52E40E94EA2E69AB7AAB8BAB04
:101940009CABEF8AF88E098F1A8FCE2CDF2C780192
:10195000F7FE08C0F094E094D094C094C11CD11C50
:10196000E11CF11C21E03FEFC316D306E3063FE77D
:10197000F30609F420E02E8B11E020E030E0A9010D
:101980000E94E32E811101C010E01D8B20E030E0A9
:10199000A901C501B4010E94E32E81110CC01BA254
:1019A0001CA21DA21EA21FA218A619A61AA61F8E4F
:1019B00018A219A21AA2DF91CF911F910F91FF9047
:1019C000EF90DF90CF90BF90AF909F908F907F90DF
:1019D0006F900895EF92FF920F931F93CF93DF9331
:1019E000EC01EE24EA94FE2C0FEF1FE720E030E03C
:1019F00040E050E0BA010E94760CEB8119861A860D
:101A00001B861C86198A1A8A1B8A1C8A84E0E89F16
:101A1000F0011124E158FC4F1082118212821382CE
:101A20001BA21CA21DA21EA21FA218A619A61AA6BE
:101A30001F8E18A219A21AA20E94FA276093870388
:101A4000709388038093890390938A03DF91CF91E9
:101A50001F910F91FF90EF900895CF92DF92EF9238
:101A60000F93CF93DF931F92CDB7DEB76C01862F14
:101A7000D6019B961D921D921D921C929E97D09608
:101A80001C921E929F97EAE0F0E0DA96FC93EE93A8
:101A9000D9976C9311964C93119712962C93129799
:101AA00013960C9313971496EC929091330199230B
:101AB00099F061E049830E94312961E04981842FD6
:101AC0000E943129C6010F90DF91CF910F91EF90C5
:101AD000DF90CF900C94EA0C0F90DF91CF910F9193
:101AE000EF90DF90CF9008952F923F924F925F92A8
:101AF0006F927F928F929F92AF92BF92CF92DF921E
:101B0000EF92FF920F931F93CF93DF93CDB7DEB782
:101B10002C970FB6F894DEBF0FBECDBF8DA09EA050
:101B20002FA038A40E941C2E6D837E838F839887FC
:101B30002BA53CA54DA55EA50E94AF309B01AC0135
:101B4000D1016D917D918D919C910E941D2EF1018D
:101B50006083718382839383D4012D913D914D9154
:101B60005C916D817E818F8198850E941C2E698792
:101B70007A878B879C8720E030E040EA51E46BA5B0
:101B80007CA58DA59EA50E94AF309B01AC01698507
:101B90007A858B859C850E94EA2E69837A838B8364
:101BA0009C83E9A5FAA560837183828393832D8149
:101BB0003E814F815885C801B7010E94AF302B018B
:101BC0003C01F1012081318142815381C601B5017F
:101BD0000E94AF309B01AC01C301B2010E941D2ED7
:101BE0002B013C0129813A814B815C8169A17AA159
:101BF0008BA19CA10E94AF309B01AC01C301B2013B
:101C00000E941D2EED80FE800F811885D401ED927B
:101C1000FD920D931C9313972C960FB6F894DEBF8C
:101C20000FBECDBFDF91CF911F910F91FF90EF902D
:101C3000DF90CF90BF90AF909F908F907F906F90EC
:101C40005F904F903F902F9008952F923F924F9228
:101C50005F926F927F928F929F92AF92BF92CF923C
:101C6000DF92EF92FF920F931F93CF93DF93CDB745
:101C7000DEB72C970FB6F894DEBF0FBECDBF1C01A8
:101C800080E090E00E94832F69837A838B839C831A
:101C9000D1019B962D913D914D915C919E970E9413
:101CA0001D2E2B013C01F10163A774A785A796A700
:101CB00087A590A99C012F5F3F4F30AB27A721AD8F
:101CC00032AD8217930761F585849684A784B08826
:101CD00081899289A389B489A5019401281B390BB4
:101CE0004A0B5B0BA8EEB3E00E94C7310E94852F20
:101CF000A30192010E94EA2ED101D5966D937D93A6
:101D00008D939C93D897F10113A614A615A616A639
:101D100010AA17A651968D929D92AD92BC9254979F
:101D2000A0903901B0903A01C0903B01D0903C01A5
:101D30004090350150903601609037017090380125
:101D4000D101D5968D919D910D90BC91A02D8D8343
:101D50009E83AF83B887D101D1968D919D910D90CF
:101D6000BC91A02D89879A87AB87BC8720E030E0A3
:101D70004AE754E469817A818B819C810E94EA2E32
:101D80009F938F937F936F93C10187969F938F93B8
:101D900004979F938F9304979F938F938091400113
:101DA0008F9380913F018F9380913E018F9380911B
:101DB0003D018F93830172012D813E814F815885B2
:101DC00069857A858B859C850E94740D4B015C0129
:101DD000F101C1A8D2A8E3A8F4A80FB6F894DEBF19
:101DE0000FBECDBF20E030E0A901C701B6010E94BF
:101DF000E32E882309F47AC020E030E0A901D10164
:101E0000D5966D917D918D919C91D8970E94E32EEE
:101E10008823A1F1F101238D348D458D568DC501A7
:101E2000B4010E941D2E6B017C0120E030E048ECE3
:101E300052EC0E94E32E87FD0FC020E030E048EC1A
:101E400052E4B601C7010E94A430181654F4C12C04
:101E5000D12C98EC82E407C0C12CD12C98EC82ECF8
:101E600002C09E2D8F2DA601692F782FD1015B9680
:101E70004D935D936D937C935E973DC020E030E081
:101E8000A901C701B6010E94A430F101C38CD48C12
:101E9000E58CF68C20E030E04CE852E487FD0DC084
:101EA000C701B6010E94E32E87FF18C0C12CD12CB8
:101EB0007CE8E72E72E4F72E11C0C701B6010E943C
:101EC000E32E87FD05C0F7FAF094F7F8F09406C00A
:101ED000C12CD12C6CE8E62E62ECF62ED1015B967B
:101EE000CD92DD92ED92FC925E9705C0F101138ECA
:101EF000148E158E168E2C960FB6F894DEBF0FBE7C
:101F0000CDBFDF91CF911F910F91FF90EF90DF90A8
:101F1000CF90BF90AF909F908F907F906F905F9089
:101F20004F903F902F900895109283031092840356
:101F3000109285031092860310927F031092800303
:101F4000109281031092820362E082E00E943129A4
:101F500062E083E00E94312962E088E00E9431293A
:101F600062E089E00E94312941E050E06FE075E0D5
:101F700080E00E94362741E050E06DE475E081E0AA
:101F80000E94362780913301882341F161E085E08A
:101F90000E94312960E085E00E946A2961E086E0C4
:101FA0000E94312960E086E00E946A2961E08BE0AE
:101FB0000E94312960E08BE00E946A2961E081E1A2
:101FC0000E94312960E081E10E946A2987E293E062
:101FD0000E94EA0C8CEE92E00E94EA0C109233010F
:101FE0000895EF92FF920F931F93CF93DF937C019D
:101FF0000CE011E0C0E0D0E06DED71E0C7010E949F
:10200000301C0E94CC1ABC01F801808191810E9491
:10201000A5360C5F1F4F892B81F4CC0FDD1FCC0F31
:10202000DD1FC45FDE4FEA81FB81C701DF91CF91E5
:102030001F910F91FF90EF9009942196C730D10521
:10204000D9F6DF91CF911F910F91FF90EF900895F6
:102050008C01C0E0D0E0C017D107B4F461E08DE09E
:102060000E946A2968EC70E080E090E00E942928D4
:1020700060E08DE00E946A2968EC70E080E090E00A
:102080000E9429282196E7CF68E572E080E090E081
:102090000E942928DECF26E040E052EC61E070E0AB
:1020A00089EE94E00E94AC2A64E170E080E090E068
:1020B0000E94292861E08DE00E94312961E08CE0D6
:1020C0000E94312962E084E00E94312960E08DE0C5
:1020D0000E946A2960E08CE00E946A290E94940FA5
:1020E00080913401882309F47FC08CE194E00E9440
:1020F000AE1E88E18093B80062E087E00E9431293B
:1021000082E693E00E94C9236AE070E080E090E0FC
:102110000E94292882E693E00E94242482E693E02C
:102120000E9420078093F5036AE070E080E090E071
:102130000E9429288091F50381113CC061E082E66C
:1021400093E00E94E3246AE070E080E090E00E9467
:10215000292882E693E00E9482238093F7038091EE
:1021600064038093F6036CED70E082E693E00E94D6
:10217000D1246CE470E082E693E00E94D7246BEAFD
:102180007FEF82E693E00E94DD246CEF76E082E64A
:1021900093E00E94CB240E94FA27605D7A488F4F1B
:1021A0009F4F6093650270936602809367029093DD
:1021B00068021AC065E571E089EE94E00E94012C86
:1021C0004AE050E06091F50389EE94E00E94E02C33
:1021D00066E671E089EE94E00E941E2C8091F50382
:1021E00090E001960E94281068E671E089EE94E084
:1021F0000C941E2CCF92DF92EF92FF92CF93DF933D
:10220000EC01C880D980EA80FB802BED3FE049E4F7
:1022100050E4C701B6010E94A43018166CF42BEDEF
:102220003FE049EC50E4C701B6010E941C2E6883D0
:1022300079838A839B83E5CF2BED3FE049E450EC23
:10224000609102047091030480910404909105044C
:102250000E94E32E87FF0FC02BED3FE049EC50E4D6
:10226000688179818A819B810E941D2E6883798390
:102270008A839B83E1CFDF91CF91FF90EF90DF9036
:10228000CF9008958F929F92AF92BF92CF92DF929C
:10229000EF92FF921F93CF93DF93CDB7DEB72897CE
:1022A0000FB6F894DEBF0FBECDBF6B017C014901B4
:1022B0005A010E941C2E6D837E838F839887A5010F
:1022C0009401C701B6010E941D2E69837A838B8316
:1022D0009C83CE0105960E94FA10CE0101960E94C1
:1022E000FA10C0900204D0900304E0900404F0902F
:1022F00005042D813E814F815885C701B6010E949A
:10230000A43087FD0EC011E029813A814B815C81A8
:10231000C701B6010E94E32E18160CF410E0812FBD
:1023200001C080E028960FB6F894DEBF0FBECDBF87
:10233000DF91CF911F91FF90EF90DF90CF90BF90F2
:10234000AF909F908F900895CF93DF93EC0187E239
:1023500093E00E94EA0C8CEE92E00E94EA0C10924C
:1023600002041092030410920404109205041092C7
:1023700006041092070410920804109209041092A7
:102380000A0410920B0410920C0410920D0461E9DF
:1023900071E0CE010E94E705882379F061E971E0E0
:1023A000CE010E94301C0E94D81A60930A047093D8
:1023B0000B0480930C0490930D0463E971E0CE014B
:1023C0000E94E705882379F063E971E0CE010E945D
:1023D000301C0E94D81A60930604709307048093FF
:1023E00008049093090465E971E0CE010E94E705B5
:1023F0008823A9F065E971E0CE010E94301C0E949B
:10240000D81A25E33AEF4EE85CE30E94AF306093C0
:10241000020470930304809304049093050482E003
:1024200094E00E94FA1020918B0330918C0340912C
:102430008D0350918E03609102047091030480918A
:102440000404909105040E941D2E6093FE03709376
:10245000FF038093000490930104DF91CF910C94CB
:10246000C3144F925F926F927F92AF92BF92CF92BE
:10247000DF92EF92FF920F931F93CF93DF9300D0E1
:1024800000D0CDB7DEB76C0167E971E00E94E705C7
:10249000882349F067E971E0C6010E94301C0E9460
:1024A000E71A5B0102C0A12CB12C6BE971E0C601F7
:1024B0000E94E705882311F16BE971E0C6010E94D3
:1024C000301C0E94D81A2B013C0120E030E0A90109
:1024D0000E94A43087FD06C0EE24EA94FE2C0FEF84
:1024E0001FE705C0EE24E394F12C00E010E895010D
:1024F000B301A20187E293E00E94760C6EE971E0DD
:10250000C6010E94E705882311F16EE971E0C6015A
:102510000E94301C0E94D81A2B013C0120E030E0C0
:10252000A9010E94A43087FD06C0EE24EA94FE2C87
:102530000FEF1FE705C0EE24E394F12C00E010E854
:102540009501B301A2018CEE92E00E94760C61EA43
:1025500071E0C6010E94E705882321F161EA71E07C
:10256000C6010E94301C0E94D81A25E33AEF4EE8BB
:102570005CE30E94AF3069837A838B839C83CE01B6
:1025800001960E94FA1089819A81AB81BC81809367
:10259000790390937A03A0937B03B0937C0381E04B
:1025A00080937E030F900F900F900F90DF91CF914B
:1025B0001F910F91FF90EF90DF90CF90BF90AF9061
:1025C0007F906F905F904F9008954F925F926F92BF
:1025D0007F928F929F92AF92BF92CF92DF92EF92B3
:1025E000FF921F93CF93DF93CDB7DEB72C970FB633
:1025F000F894DEBF0FBECDBFE0912A0380912B037C
:10260000F0E08823B1F0EE0FFF1FEE0FFF1FE1583F
:10261000FC4F80819181A281B38122273327A901B8
:10262000281B390B4A0B5B0B2D833E834F83588746
:1026300011C09F01220F331F220F331F21583C4F1F
:10264000D9018D919D910D90BC91A02D8D839E837C
:10265000AF83B887E091EF028091F002F0E0882329
:10266000B1F0EE0FFF1FEE0FFF1FE158FC4F80810E
:102670009181A281B38122273327A901281B390B1D
:102680004A0B5B0B29873A874B875C8711C09F01F8
:10269000220F331F220F331F21583C4FD9018D9138
:1026A0009D910D90BC91A02D89879A87AB87BC879F
:1026B000C0907503D0907603EE24D7FCE094FE2CF6
:1026C0008091300390913103A0913203B091330394
:1026D0002D813E814F815885281B390B4A0B5B0B9E
:1026E000A8EEB3E00E94C731A70196010E94A8316D
:1026F000CA01B9010E94852F4B015C018091F5024E
:102700009091F602A091F702B091F80229853A85DE
:102710004B855C85281B390B4A0B5B0BA8EEB3E09D
:102720000E94C731A70196010E94A831CA01B901D0
:102730000E94852F2B013C012091FE033091FF0365
:10274000409100045091010460918B0370918C03BF
:1027500080918D0390918E030E941C2E69837A8351
:102760008B839C8321EE3EE245E652E40E94AF302B
:102770006B017C0120E030E0A9010E94A430181612
:102780006CF411E02DEC3CEC4CEC5DE3C701B601C0
:102790000E94A430181674F010E00CC02DEC3CEC34
:1027A0004CEC5DEBC701B6010E94E32E182F111F00
:1027B0001127111FA3019201C501B4010E941D2E12
:1027C00020E030E040E05FE30E94AF306B017C012D
:1027D00020E030E0A9010E94A43018165CF420E04B
:1027E00030E040E85FE3C701B6010E94A43018164C
:1027F00054F00AC020E030E040E85FEBC701B601CA
:102800000E94E32E87FD11E0809002049090030463
:10281000A0900404B090050420E030E040E05FE3C5
:1028200069817A818B819C810E94AF309B01AC01D0
:10283000C501B4010E941D2E2B013C010E941231E2
:102840009B01AC01C701B6010E94AF309B01AC01F6
:1028500060910A0470910B0480910C0490910D0416
:102860000E941D2E60930A0470930B0480930C0445
:1028700090930D04C301B2010E94E72E9B01AC01AD
:10288000C701B6010E94AF309B01AC016091060404
:102890007091070480910804909109040E941D2EF4
:1028A00060930604709307048093080490930904CE
:1028B00029813A814B815C81C501B4010E941D2EA2
:1028C00060930204709303048093040490930504BE
:1028D00082E094E00E94FA1040918B0350918C03A7
:1028E00060918D0370918E034093FE035093FF031C
:1028F00060930004709301042D813E814F815885BF
:1029000020933003309331034093320350933303C9
:1029100089859A85AB85BC858093F5029093F602F4
:10292000A093F702B093F802812F2C960FB6F8947B
:10293000DEBF0FBECDBFDF91CF911F91FF90EF9013
:10294000DF90CF90BF90AF909F908F907F906F90CF
:102950005F904F900895CF93DF9300D000D0CDB714
:10296000DEB77A8369831C821B82BE016F5F7F4F53
:102970000E94CB1B8B819C810F900F900F900F902A
:10298000DF91CF910895CF92DF92EF92FF920F9354
:102990001F93CF93DF93CDB7DEB7C454D1090FB6E1
:1029A000F894DEBF0FBECDBF8EE092E09A8389839C
:1029B00025961FAE1EAE2597CE0101960E94901A55
:1029C0008C0167EA71E00E94301C69EA71E00E94A4
:1029D000011B20E030E04AE754E460910A04709162
:1029E0000B0480910C0490910D040E94EA2E6B015F
:1029F0007C0161E971E0C8010E94301C24E0B7014C
:102A0000A6010E940D1B20E030E04AE754E46091EB
:102A100006047091070480910804909109040E94B3
:102A2000EA2E6B017C0163E971E0C8010E94301C51
:102A300024E0B701A6010E940D1B21EE3EE245E60F
:102A400052E4609102047091030480910404909117
:102A500005040E94AF306B017C0165E971E0C8019B
:102A60000E94301C21E0B701A6010E940D1B69EEF7
:102A700074E0C8010E94AB1489EE94E00E940A2C15
:102A8000CC5BDF4F0FB6F894DEBF0FBECDBFDF913A
:102A9000CF911F910F91FF90EF90DF90CF9008950D
:102AA000CF92DF92EF92FF920F931F93CF93DF931A
:102AB000CDB7DEB7C458D1090FB6F894DEBF0FBE4C
:102AC000CDBF84E192E09A838983CD57DF4F19828D
:102AD0001882C358D040CE0101960E94901A8C01F2
:102AE00067EA71E00E94301C6EEA71E00E94011BEF
:102AF000C0905803D0905903E0905A03F0905B03C4
:102B000068EB71E0C8010E94301C22E0B701A60109
:102B10000E940D1BC0905C03D0905D03E0905E03AB
:102B2000F0905F036BEB71E0C8010E94301C22E063
:102B3000B701A6010E940D1BC0904A03D0904B0321
:102B4000E0904C03F0904D036EEB71E0C8010E94E1
:102B5000301C22E0B701A6010E940D1BC0904E035D
:102B6000D0904F03E0905003F090510361EC71E07E
:102B7000C8010E94301C22E0B701A6010E940D1B73
:102B8000C0902C03D0902D03E0902E03F0902F03E3
:102B900064EC71E0C8010E94301C22E0B701A6017C
:102BA0000E940D1B809129030E948C287C0168ECF7
:102BB00071E0C8010E94301CA701662757FD60958F
:102BC000762F0E941C1B69EE74E0C8010E94AB14B2
:102BD00089EE94E00E940A2CCC57DF4F0FB6F89490
:102BE000DEBF0FBECDBFDF91CF911F910F91FF9040
:102BF000EF90DF90CF900895FF920F931F93CF93A4
:102C0000DF93CDB7DEB7C454D1090FB6F894DEBF59
:102C10000FBECDBFF82E2EE032E03A8329832596F1
:102C20001FAE1EAE2597CE0101960E94901A8C0110
:102C300067EA71E00E94301C6BEC71E00E94011B9E
:102C40006091430170914401C8010E94301C4F2DD6
:102C500050E060E070E00E941C1B69EE74E0C80167
:102C60000E94AB1489EE94E00E940A2CCC5BDF4FEB
:102C70000FB6F894DEBF0FBECDBFDF91CF911F918D
:102C80000F91FF900895FF920F931F93CF93DF93BF
:102C9000CDB7DEB7C454D1090FB6F894DEBF0FBE6E
:102CA000CDBFF82E2EE032E03A83298325961FAE61
:102CB0001EAE2597CE0101960E94901A8C011092AB
:102CC0007D0310927E0367EA71E00E94301C62ED82
:102CD00071E00E94011B6091430170914401C801A1
:102CE0000E94301C4F2D50E060E070E00E941C1BE1
:102CF00069EE74E0C8010E94AB1489EE94E00E9472
:102D00000A2CCC5BDF4F0FB6F894DEBF0FBECDBFF1
:102D1000DF91CF911F910F91FF9008958F929F9215
:102D2000AF92BF92EF92FF920F931F93CF93DF93D7
:102D30000E94FA274B015C018091870390918803E0
:102D4000E401C81BD90B80917E03882381F0609138
:102D5000790370917A0380917B0390917C0322EC3C
:102D600038EB42EB5DE30E944211811183C0E09198
:102D70002A0380912B03F0E0EE0FFF1FEE0FFF1FE1
:102D8000E158FC4F882361F080819181A281B38159
:102D9000B095A095909581959F4FAF4FBF4F04C0C0
:102DA00080819181A281B381809334039093350314
:102DB000A0933603B0933703E091EF028091F002C5
:102DC000F0E0EE0FFF1FEE0FFF1FE158FC4F8823CE
:102DD00061F080819181A281B381B095A095909599
:102DE00081959F4FAF4FBF4F04C080819181A281D9
:102DF000B3818093F9029093FA02A093FB02B093FF
:102E0000FC02BE0187E293E00E94250EBE018CEE1B
:102E100092E00E94250E60914203709143038091DD
:102E20004403909145030E94522F87E293E00E9451
:102E30000F0C609107037091080380910903909132
:102E40000A030E94522F8CEE92E00E940F0C809297
:102E5000870390928803A0928903B0928A03DF913E
:102E6000CF911F910F91FF90EF90BF90AF909F90E7
:102E70008F900895E12CF12C870120E030E040E0B4
:102E800050E0BA0187E293E00E94760C20E030E047
:102E900040E050E0BA018CEE92E00E94760C109275
:102EA0007E0381E00E94431662CFEF920F931F933F
:102EB00080E090E0A0E8BFE38093A3039093A40395
:102EC000A093A503B093A6031092A7031092A803A2
:102ED0001092A9031092AA031092AB031092AC03B4
:102EE0001092AD031092AE031092AF031092B00394
:102EF0001092B1031092B2031092970310929803AC
:102F00001092990310929A0310929B0310929C03C3
:102F100010929D0310929E0310929F031092A003A3
:102F20001092A1031092A20382EC91E09093780397
:102F30008093770382E693E00E942223EE24E394B9
:102F400000E010E020E130E04BE050E065E070E0B0
:102F500087E293E00E942D0DE12C01E010E02FE0CC
:102F600030E041E150E066E070E08CEE92E00E94DB
:102F70002D0D1F910F91EF9008950F931F93CF93F5
:102F8000DF93CDB7DEB7C458D1090FB6F894DEBFD2
:102F90000FBECDBF89EE94E00E94C929892B09F4A8
:102FA0004EC089EE94E00E94E2292091EA0230911D
:102FB000EB028A3089F5C90101969093EB02809368
:102FC000EA02F901E659FD4F108284E192E09A830A
:102FD0008983CD57DF4F19821882C358D0404AE009
:102FE0006AE672E0CE0101960E94EA1D8C016DED49
:102FF00071E00E94E705882321F0C8010E94F10FCB
:1030000006C068ED71E089EE94E00E941E2C1092DB
:10301000EB021092EA0213C0A9014F5F5F4F509379
:10302000EB024093EA02F901E659FD4F80834038F4
:10303000510508F4AFCF84E090E00E942810CC57EF
:10304000DF4F0FB6F894DEBF0FBECDBFDF91CF913B
:103050001F910F9108950F931F93CF93DF930E94B9
:10306000BD178091640281112AC0209128013091FE
:10307000290140E050E06091F8037091F9038091DC
:10308000FA039091FB030E948631672B682B692B12
:10309000B1F40E94FA270091650210916602209116
:1030A000670230916802061717072807390738F4B6
:1030B00081E0809364028093FC030E944316809118
:1030C00032018823A1F120912A0130912B0140E0A7
:1030D00050E06091F8037091F9038091FA039091A8
:1030E000FB030E948631672B682B692B01F58091C9
:1030F0006902811119C089B182958170C82F20E0C1
:10310000D22F80910A0190910B01C817D90779F04D
:10311000D0930B01C0930A0183E0809369028C2F46
:1031200081700E94FC1503C08150809369028091D8
:1031300033018823B1F020912E0130912F0140E01E
:1031400050E06091F8037091F9038091FA03909137
:10315000FB030E948631672B682B692B11F40E94B8
:103160008E16209130013091310140E050E06091A5
:10317000F8037091F9038091FA039091FB030E9488
:103180008631672B682B692B49F40E94E51288234E
:1031900029F08091FC0381110E94C31420912C011D
:1031A00030912D0140E050E06091F8037091F903F7
:1031B0008091FA039091FB030E948631672B682B64
:1031C000692B81F48DE00E94A02961E0892B09F030
:1031D00060E08DE00E946A298091FD03882311F050
:1031E0001D995FC080913401882309F442C04F9B30
:1031F00040C082E693E00E9482238093F70382E638
:1032000093E00E94DD239093F4038093F3032091D5
:10321000F70324FD49C08115944009F445C080910D
:10322000F70381FF22C04091F60363EB73E082E66F
:1032300093E00E94F92343EB53E063EA73E082E6F4
:1032400093E00E94E20943EA53E067E973E082E613
:1032500093E00E94510A27E933E043EA53E06BE828
:1032600073E082E693E00E941D0B82E693E00E94E9
:10327000A2238091F8039091F903A091FA03B091F1
:10328000FB030196A11DB11D8093F8039093F903F0
:10329000A093FA03B093FB03DF91CF911F910F919D
:1032A00008950E9450159ECF61EE71E089EE94E082
:1032B0000E941E2CB4CFCF93DF93EC0188819981BB
:1032C000DC01ED91FC910190F081E02D09952A81BE
:1032D0003B81280F391F3B832A83DF91CF910895CB
:1032E000DB01ED91FC9111970190F081E02DBC0183
:1032F000CD0109940F931F93CF93DF938C01F801B5
:10330000C281D3818881992787FD90950E946F366D
:10331000892B29F02196F801D383C283F0CFDF9166
:10332000CF911F910F9108950F931F93CF93DF9328
:103330001F92CDB7DEB78C0169830E947A19D8013C
:103340001296ED91FC9113978081698186130AC0D2
:1033500031961396FC93EE931297C8010E947A1946
:1033600081E001C080E00F90DF91CF911F910F911C
:103370000895FB012191BF01222379F0DC0112960F
:10338000ED91FC9113973081321307C03196DC0127
:103390001396FC93EE931297ECCF81E0211180E01D
:1033A0000895BF92CF92DF92EF92FF920F931F93F7
:1033B000CF93DF937C01EB01009771F466E172E03B
:1033C000CE01DF91CF911F910F91FF90EF90DF9091
:1033D000CF90BF900C94012CE881F9810190F0818D
:1033E000E02D62E2CE0109958C01F70161917F0128
:1033F000662351F0E6E2F2E0B080BB2079F19181E2
:103400009617B1F03296F8CFE881F9810190F081FA
:10341000E02D62E2CE010995800F911FDF91CF91DF
:103420001F910F91FF90EF90DF90CF90BF90089584
:10343000E881F9810190F081E02D6CE5CE010995DC
:103440006C01E881F9810190F081E02D6B2DCE01B6
:1034500009958C0D9D1D080F191FC7CFE881F981B3
:103460000190F081E02DCE010995F5CFCF93FC01BD
:103470005081523229F0573219F080E090E023C099
:103480009C012F5F3F4FD901F901CF010196408187
:10349000442399F3451791F04C3569F40196418125
:1034A000EAE2F2E0C081CC2331F0C41302C04181D2
:1034B00002C03296F7CF4D93FC01E7CF1C92FB017F
:1034C00091838083C901CF910895DC011296ED911B
:1034D000FC911397309731F06115710531F4CF01EC
:1034E000029608958EE094E008956150710901906C
:1034F000F081E02DEFCFCF93DF93EC01BC0184E0AE
:1035000090E00E947019FC01009729F0D183C083DC
:103510001382128202C088E194E0DF91CF91089576
:10352000CF93DF93EC01BC0184E090E00E9470191E
:10353000FC01009729F0D183C0831382128202C05C
:1035400084E194E0DF91CF9108950F931F93CF937F
:10355000DF938B01FC01C281D381209759F0B80120
:103560008A819B810E94A536892B39F00990D881E8
:10357000C02DF3CF80E090E001C0CE01DF91CF916C
:103580001F910F9108950E94A51A009711F00496BB
:1035900008958EE094E00895FC012081318125306A
:1035A000310519F482819381089580E090E00895B7
:1035B000FC0120813181273031052CF0628173813B
:1035C00084819581089560E070E0CB010895FC014D
:1035D000208131812630310529F462817381848113
:1035E0009581089560E070E0CB010895FC01808131
:1035F0009181892B29F084E090E09183808362831C
:103600000895FC0180819181892B31F085E090E063
:1036100091838083738362830895FC01808191810B
:10362000892B49F030E0295F3F4F3183208342836B
:103630005383648375830895FC0180819181892B74
:1036400041F086E090E091838083428353836483DA
:1036500075830895FC0180819181892B31F082E08E
:1036600090E091838083738362830895FC0180815D
:103670009181892B31F083E090E091838083738383
:1036800062830895FC01208131812230310521F4CB
:10369000828193810C94651A8EE094E00895CF9313
:1036A000DF93FC01EB01208131812230310531F4BF
:1036B00082819381DF91CF910C94A51B233031053A
:1036C00031F482819381DF91CF910C94CB1B253013
:1036D000310539F468817981828193810E94D11901
:1036E0002BC02630310559F44281538164817581A4
:1036F0002AE030E0888199810E94892C1DC0243005
:10370000310569F48281882319F06BE172E002C00F
:1037100060E272E0888199810E94012C0DC02730FF
:10372000310584F0275030E04281538164817581F6
:10373000888199810E94D22D2A813B81280F391FCF
:103740003B832A83DF91CF9108950F931F93CF93EB
:10375000DF93EC018B016BE5C8010E945B190A80C5
:10376000DB81C02D209779F0B801CE0102960E942E
:103770004F1B0990D881C02D209729F06CE2C80119
:103780000E945B19F1CF6DE5C801DF91CF911F91C8
:103790000F910C945B190F931F93CF93DF938C01C0
:1037A000EB016BE7CE010E945B19F80102811381E6
:1037B0000115110509F168817981F80182819381F0
:1037C0000E94D1192A813B81280F391F3B832A830C
:1037D0006AE3CE010E945B19BE01C80104960E94F3
:1037E0004F1BF801008111810115110529F06CE2D0
:1037F000CE010E945B19DFCF6DE7CE01DF91CF9143
:103800001F910F910C945B19FC016081718161150E
:10381000710579F08AE090E00E947019FC01009730
:1038200041F01182108281E090E095838483CF0182
:10383000089580E090E00895DC011296ED91FC91EE
:103840001397309749F080819181009711F0FC0126
:10385000FACF718360830895FC01738362830895B6
:10386000EF92FF920F931F93CF93DF938C017B0115
:103870000E94A51AEC01009761F4C8010E94041C83
:10388000EC01009749F0FB82EA82BC01C8010E946A
:103890001C1CCE01049602C08EE094E0DF91CF9113
:1038A0001F910F91FF90EF900895FC01608171814D
:1038B0006115710579F088E090E00E947019FC01B3
:1038C000009741F01182108281E090E0938382831F
:1038D000CF01089580E090E00895DC011296ED910B
:1038E000FC911397309749F080819181009711F0F6
:1038F000FC01FACF718360830895FC0173836283B6
:1039000008950F931F93CF93DF938C010E94551C52
:10391000EC01009739F0BC01C8010E946D1CCE017A
:10392000029602C08EE094E0DF91CF911F910F913B
:103930000895EF92FF920F931F93CF93DF93EC01C3
:10394000888199810E947B1A7C016BE5CE010E94DF
:103950009419811103C088E194E022C06DE5CE0185
:103960000E94941981111BC0C7010E94811C8C0107
:10397000BC01CE010E94D71CF80120813181223088
:10398000310548F36DE5CE010E949419811107C0FD
:103990006CE2CE010E9494198111E6CFDCCFC70101
:1039A000DF91CF911F910F91FF90EF900895EF92CB
:1039B000FF920F931F93CF93DF9300D0CDB7DEB765
:1039C0008C017B01DC0114968C911497882309F4F7
:1039D000A3C0815014968C93C8010E947A19F801F3
:1039E00082819381DC012C912A337CF420330CF00A
:1039F0003FC0273209F461C024F4223209F45DC0CB
:103A000065C02D522230A0F161C02E3609F442C0AB
:103A10002CF42B3581F02636B1F058C0243799F0BC
:103A20002B3709F053C0C8010E94951DBC01C70186
:103A30000E94361B4BC0C8010E94991CBC01C701E3
:103A40000E942A1B43C06BE172E0C8010E94B919B1
:103A5000882311F061E008C060E272E0C8010E94B2
:103A6000B919882309F160E0C7010E94F61A2EC037
:103A70004AE050E0BE016F5F7F4F0E943B35AB01D3
:103A8000BC01E981FA8180818E3229F18F7D8534F4
:103A9000D1F521C066E172E0C8010E94B9198823FE
:103AA00019F060E070E00FC086E0EEE0F4E0D701CE
:103AB00001900D928A95E1F709C0B8016E5F7F4FC2
:103AC0000E94361ABC01C7010E94011BF8018481C3
:103AD0008F5F848321C0B8016E5F7F4FD80112963B
:103AE0008D919C9113970E94D833AB01BC01F801D2
:103AF0002281338189819A81281B390B2150C7018A
:103B00000E940D1BE3CFD8011396FC93EE931297FE
:103B1000C7010E941C1BDACF0F900F90DF91CF914D
:103B20001F910F91FF90EF900895CF92DF92EF9247
:103B3000FF920F931F93CF93DF93EC0188819981BC
:103B40000E94901A6C016BE7CE010E9494198111BA
:103B500003C084E194E035C06DE7CE010E94941962
:103B600081112EC07E0182E0E80EF11CB7018A812E
:103B70009B810E94361A8C01009759F36AE3CE01AB
:103B80000E949419882329F3B801C6010E94301CB1
:103B90008C01BC01CE010E94D71CF801208131812B
:103BA00022303105B0F26DE7CE010E9494198111E7
:103BB00007C06CE2CE010E9494198111D7CFC9CF02
:103BC000C601DF91CF911F910F91FF90EF90DF9091
:103BD000CF900895CF93DF9300D000D01F92CDB740
:103BE000DEB79A8389837C836B834D83CE010196F4
:103BF0000E94951D0F900F900F900F900F90DF91E6
:103C0000CF910895109219041092180410921B0479
:103C100010921A04109215041092140410921704B2
:103C20001092160410920F0410920E0408958091C1
:103C30004C0490E020914D04821B9109089520913D
:103C40004D0480914C04281750F4E22FF0E0E25B21
:103C5000FB4F808190E02F5F20934D0408958FEFFC
:103C60009FEF0895E0914D0480914C04E81730F4E3
:103C7000F0E0E25BFB4F808190E008958FEF9FEFD3
:103C800008950895CF92DF92EF92FF920F931F93C2
:103C9000CF93DF937C01CB018A012091280422235A
:103CA00089F0EB016B01C40ED51ECC15DD0569F062
:103CB0006991D701ED91FC910190F081E02DC70150
:103CC0000995F3CF642F0E94A11FC801DF91CF9106
:103CD0001F910F91FF90EF90DF90CF900895CF93B9
:103CE000DF931F92CDB7DEB769832091280422238A
:103CF000D1F020912904203240F021E030E0FC0195
:103D00003383228380E090E015C080912A04E82F5D
:103D1000F0E0E55DFB4F998190838F5F80932A04EB
:103D20008093290405C061E0CE0101960E94A11F85
:103D300081E090E00F90DF91CF910895FC01138214
:103D4000128248EE53E060E070E04483558366835E
:103D5000778389E392E091838083089510924D04E4
:103D600010924C0410922A04109229040C94EC1E18
:103D7000862F413208F040E26EE474E00E940A1F90
:103D800010924D0480934C04089521E00C94B81EC9
:103D900081E08093280460934B0410922A041092CF
:103DA000290408950F93062F21E0409129046BE226
:103DB00074E080914B040E944E1F10922A041092CE
:103DC0002904109228040F91089561E00C94D21EEA
:103DD0008CE194E00C949E1E1092DB0481E08093B1
:103DE000D9041092D80461E082E10E946A2961E05E
:103DF00083E10E946A29E9EBF0E080818E7F808375
:103E000080818D7F808388E48093B80085E48093EF
:103E1000BC000895413208F03FC09091DB0491113D
:103E2000FCCF91E09093DB042093D9042FEF2093F3
:103E30006E041092B304240F2093B2049093DA041A
:103E40009091DA04880F892B8093DA048091D8044A
:103E5000813041F41092D8048091DA048093BB0041
:103E600085EC01C085EE8093BC008091DB0481303D
:103E7000E1F38091B304841710F44091B30424EB70
:103E800034E0FB01D9018A2F821B841718F48D912D
:103E90008193F9CF842F089580E008950F934132E4
:103EA00008F046C09091DB049111FCCF92E0909312
:103EB000DB040093D9049FEF90936E041092B30437
:103EC0004093B204FB0164EB74E0DB019A2F961B74
:103ED000941718F491919D93F9CF1092DA04909170
:103EE000DA04880F892B8093DA048091D80481301A
:103EF00041F41092D8048091DA048093BB0085ECE1
:103F000001C085EE8093BC00222321F08091DB0468
:103F10008230E1F380916E048F3F61F080916E04F6
:103F2000803251F080916E04803341F483E007C009
:103F300081E005C080E003C082E001C084E00F9111
:103F40000895613298F42091DB04243089F4609361
:103F50009004FC0182E994E0DC012A2F281B26173B
:103F600018F421912D93F9CF80E0089581E0089510
:103F700082E0089585ED8093BC008091BC0084FDB3
:103F8000FCCF1092DB04089585EC8093BC00109266
:103F9000DB0408951F920F920FB60F9211242F93F6
:103FA0003F934F935F936F937F938F939F93AF93C1
:103FB000BF93EF93FF938091B900887F803609F417
:103FC0009CC068F5883209F45BC090F4803109F434
:103FD00054C038F4882309F4F5C0883009F44DC082
:103FE000F5C0883109F44CC0803209F45DC0EEC0E0
:103FF000803409F468C048F4803309F455C088332C
:1040000009F0E4C080936E04A8C0803509F44FC065
:10401000883509F45DC0883409F0D8C0D5C0883926
:1040200009F4C6C0A8F4883709F467C038F48836A4
:1040300009F463C0803709F460C0C8C0883809F447
:10404000B7C0803909F45FC0803809F0BFC05BC0D9
:10405000803B09F485C038F4803A09F466C0883A98
:1040600009F47EC0B3C0803C09F4A6C0883C09F4C2
:10407000A3C0883B09F489C0A9C08091DA0410C0AC
:104080009091B3048091B204981770F5E091B30455
:1040900081E08E0F8093B304F0E0EC54FB4F8081FD
:1040A0008093BB0085EC85C080936E048DC0E09149
:1040B000B30481E08E0F8093B3048091BB00F0E0E5
:1040C000EC54FB4F80839091B3048091B2046DC097
:1040D000E091B30481E08E0F8093B3048091BB0024
:1040E000F0E0EC54FB4F80838091D90481116CC0C7
:1040F00081E08093D80484EA60C083E08093DB048D
:1041000010926F04CFCF80916F04803208F050C0BE
:10411000E0916F0481E08E0F80936F048091BB006B
:10412000F0E0E059FB4F8083BDCF80916F04803277
:1041300030F4E0916F04F0E0E059FB4F10820E94F0
:10414000BA1F60916F0470E0E091D404F091D5043F
:1041500080E794E0099510926F040E94C41F36C056
:1041600084E08093DB041092910410929004E0911B
:10417000D604F091D704099580919004811105C06F
:1041800081E08093900410929204E091910481E088
:104190008E0F80939104F0E0EE56FB4F8081809368
:1041A000BB009091910480919004981708F47ACF05
:1041B00085E88093BC000AC085EC8093BC00109217
:1041C000DB0404C010926E040E94BA1FFF91EF91AD
:1041D000BF91AF919F918F917F916F915F914F911F
:1041E0003F912F910F900FBE0F901F901895EF9257
:1041F000FF920F931F93CF93DF9300D0CDB7DEB71D
:10420000062F142F682F8CE194E029833A830E94B3
:10421000C81E602F8CE194E00E946F1E2981022F3E
:10422000E22E3A81F32E8E2D801B811740F4F70188
:1042300061917F018CE194E00E946F1EF4CF8CE1CC
:1042400094E00E94E51E91E0811190E0892F0F908B
:104250000F90DF91CF911F910F91FF90EF900895F4
:10426000CF93DF931F92CDB7DEB749839E012F5FB7
:104270003F4F41E00E94F7200F90DF91CF910895CA
:10428000DF92EF92FF920F931F93CF93DF93C62F8E
:10429000042F7901682F8CE194E00E94C81E6C2FD6
:1042A0008CE194E00E946F1E10E0000F111FD12CD2
:1042B000CD2DD0E0C017D1078CF4CC0FDD1FCE0D73
:1042C000DF1D69818CE194E00E946F1E68818CE1A2
:1042D00094E00E946F1ED394D394EACF8CE194E0D3
:1042E0000E94E51E91E0811190E0892FDF91CF912E
:1042F0001F910F91FF90EF90DF900895CF93DF9380
:1043000000D0CDB7DEB75A8349839E012F5F3F4F60
:1043100041E00E9440210F900F90DF91CF910895CE
:104320003F924F925F926F927F928F929F92AF9245
:10433000BF92CF92DF92EF92FF920F931F93CF9392
:10434000DF9300D000D000D0CDB7DEB7682E562E58
:10435000742E3A8329830E94FA276B017C01312C49
:10436000412C872D90E09C838B834801A12CB12C9C
:104370003714B0F5662D8CE194E00E94C81E652DBF
:104380008CE194E00E946F1E8CE194E00E94E51E97
:10439000662D8CE194E00E94C81E4B815C8143191C
:1043A00051094132510514F040E250E0662D8CE194
:1043B00094E00E94C51E8CE194E00E94171E892B98
:1043C00059F10115110579F10E94FA276C197D093F
:1043D0008E099F09681579058A059B0520F11CC087
:1043E0000115110589F10E94FA276C197D098E09C2
:1043F0009F0920E030E0601771078207930720F1E2
:10440000872D90E0242D332727FD30952817390775
:10441000DCF444244A9418C0872D90E2971508F4E0
:1044200080E2380EA5CFE981FA81E40DF11D47FC49
:10443000FA95FE83ED838CE194E00E941F1EED81CE
:10444000FE8180834394B7CF842D26960FB6F894CF
:10445000DEBF0FBECDBFDF91CF911F910F91FF90B7
:10446000EF90DF90CF90BF90AF909F908F907F9014
:104470006F905F904F903F9008950F931F93890125
:104480009A0141E00E9490211F910F910895DF92BF
:10449000EF92FF920F931F93CF93DF931F92CDB7AD
:1044A000DEB7D42E79019801AE014F5F5F4F0E94B5
:1044B0003D2261E070E001C0660FDA94EAF799816D
:1044C0009623F70190830F90DF91CF911F910F9169
:1044D000FF90EF90DF900895CF92DF92EF92FF92DE
:1044E0000F931F93CF93DF931F92CDB7DEB7C42EE8
:1044F000D22E9701AE014F5F5F4F0E943D2288236D
:10450000F1F04C2D50E04D1951094F5F5F4F61E0C4
:1045100070E002C0660F771FDA94E2F7615071090C
:10452000042E01C0660F0A94EAF72981262330E0A1
:1045300002C0359527954A95E2F7F80120830F9040
:10454000DF91CF911F910F91FF90EF90DF90CF906F
:104550000895EF92FF920F931F93CF93DF931F92D3
:10456000CDB7DEB7182F062FF42EE22E209145018D
:1045700030914601AE014F5F5F4F0E943D2289811D
:1045800021E030E00F2C01C0220F0A94EAF7EE2060
:1045900019F0482F422B03C0422F409548234983EE
:1045A000602F812F0E9430210F90DF91CF911F91BA
:1045B0000F91FF90EF900895DF92EF92FF920F938B
:1045C0001F93CF93DF931F92CDB7DEB7F82EE62E61
:1045D000D42E122F2091450130914601AE014F5F3C
:1045E0005F4F0E943D22882319F14D2D50E0411B61
:1045F00051094F5F5F4FE1E0F0E002C0EE0FFF1F97
:104600001A95E2F73197042E01C0EE0F0A94EAF7EB
:1046100001C0000F4A95EAF74E2F40958981482343
:10462000E0234E2B49836E2D8F2D0E94302101C037
:1046300080E00F90DF91CF911F910F91FF90EF904D
:10464000DF90089528E6FC0120830895462F69E154
:10465000FC0180810C9430210F93062F23E045E06C
:104660006AE1FC0180810E94DC220F9108950F9382
:10467000062F23E042E06AE1FC0180810E94DC22F7
:104680000F9108950F93062F22E044E06BE1FC01A7
:1046900080810E94DC220F9108950F93062F22E063
:1046A00044E06CE1FC0180810E94DC220F910895BE
:1046B000462F6FE1FC0180810C943021462F60E28F
:1046C000FC0180810C943021462F61E2FC01808145
:1046D0000C943021462F62E2FC0180810C94302141
:1046E000643048F4262F220F260F2B5D622FFC0129
:1046F00080810C9430210895462F68E3FC0180816D
:104700000C943021CF93DF93EC012091450130913F
:104710004601AC014F5F5F4F6AE388810E943D22F2
:104720008981DF91CF910895262F46E06AE6FC014A
:1047300080810C94A922262F45E06AE6FC01808145
:104740000C94A92221E042E06AE6FC0180810C94ED
:10475000A92221E041E06AE6FC0180810C94A922B3
:1047600021E047E06BE6FC0180810C94A922262F12
:1047700046E06BE6FC0180810C94A9220F93062F82
:1047800023E042E06BE6FC0180810E94DC220F9175
:104790000895CF93DF93EC0161E00E94BE2360E0B7
:1047A000CE010E94422360E0CE010E944D2360E0D2
:1047B000CE01DF91CF910C94B7230F931F93CF932A
:1047C000DF93EC0100914501109146019C012F5FA0
:1047D0003F4F42E062E788810E949021898190E00A
:1047E000982F88272A81822BDF91CF911F910F91DB
:1047F00008950F931F939B0100914501109146016D
:1048000064E7FC0180810E9490211F910F9108951F
:10481000EF92FF920F931F93CF93DF93EC01E09001
:104820004501F09046018C010F5F1F4F26E046E0E6
:1048300065E788810E946C228981DF91CF911F9169
:104840000F91FF90EF9008950E94082491E0843327
:1048500009F090E0892F08950F931F93CF93DF9372
:10486000EC0100914501109146019C012F5F3F4FE3
:1048700040E060E088810E9447228981DF91CF91EA
:104880001F910F910895262F40E060E0FC01808188
:104890000C94A922EF92FF920F931F93CF93DF9373
:1048A000EC01E0904501F09046018C010F5F1F4F35
:1048B00026E046E060E088810E946C228981DF91D9
:1048C000CF911F910F91FF90EF9008950F93062FB6
:1048D00026E046E060E0FC0180810E94DC220F912E
:1048E0000895EF92FF920F931F93CF93DF93EC0104
:1048F000E0904501F09046018C010F5F1F4F26E0CC
:1049000046E061E088810E946C228981DF91CF912D
:104910001F910F91FF90EF9008950F93062F26E0BF
:1049200046E061E0FC0180810E94DC220F91089545
:10493000EF92FF920F931F93CF93DF93EC01E090E0
:104940004501F09046018C010F5F1F4F26E046E0C5
:1049500062E088810E946C228981DF91CF911F9152
:104960000F91FF90EF9008950F93062F26E046E0F9
:1049700062E0FC0180810E94DC220F910895AB016E
:1049800066E0FC0180810C947E21AB0168E0FC01B3
:1049900080810C947E21AB016AE0FC0180810C9443
:1049A0007E21AB0163E1FC0180810C947E21AB018F
:1049B00065E1FC0180810C947E21AB0167E1FC0183
:1049C00080810C947E21262F47E06AE6FC018081DD
:1049D0000C94A92221E043E06AE6FC0180810C945A
:1049E000A9226F712111606241116064462F6DE64A
:1049F000FC0180810C943021462F6EE6FC01808101
:104A00000C943021CF93DF93EC012091450130913C
:104A10004601AC014F5F5F4F6FE688810E943D22E7
:104A20008981DF91CF9108955F926F927F928F92EB
:104A30009F92AF92BF92CF92DF92EF92FF920F932D
:104A40001F93CF93DF937C015B016A01622E702E6E
:104A500020E040E0662D0E94F124602FC7010E94F3
:104A6000FC24C0E0D0E0812C99249394CC15DD0582
:104A7000A8F5CE014096C816D90618F45C2C5C1A2D
:104A800002C0A0E15A2E252D30E0C40187199109FA
:104A90008217930714F4572C5194009145011091FB
:104AA000460195012C0F3D1F452D6FE6F7018081D2
:104AB0000E949021C50DD11D750CCC15DD05B0F6F9
:104AC000711001C0639420E040E0662DC7010E9490
:104AD000F124672DC7010E94FC24C8CFDF91CF913C
:104AE0001F910F91FF90EF90DF90CF90BF90AF900C
:104AF0009F908F907F906F905F9008952F923F923C
:104B00004F925F926F927F928F929F92AF92BF92DD
:104B1000CF92DF92EF92FF920F931F93CF93DF9389
:104B200000D000D01F92CDB7DEB79D838C837B83EE
:104B30006A834A01322ED02EE98220E040E0632DC4
:104B40000E94F124602F8C819D810E94FC24E980C9
:104B5000EE2029F080E190E00E94E7315C01CC205A
:104B600031F080E190E00E94E731582E492EE12C8F
:104B7000F12CE814F90408F07AC0C70140968816B1
:104B8000990618F4282C2E1802C010E1212E222D8F
:104B900030E080E091E08D1991098217930714F4B9
:104BA0002D2C2194EA81FB81EE0DFF1DCC2059F0C4
:104BB000852DA52DB42D9A2F981B921530F4949124
:104BC0009D933196F8CF5E2E4F2E252D342D422DFC
:104BD0006FE6AC81BD818C910E94F720622C712C14
:104BE000B981BB2369F1A114B10451F120E040E087
:104BF000632D8C819D810E94F1246D2D8C819D817E
:104C00000E94FC2400914501109146019501422D1E
:104C10006FE6EC81FD8180810E949021A301B501A6
:104C2000852D942D0E948F36892B51F0C5010E944D
:104C30007F32CC2049F1852D942D0E947F3224C0F3
:104C4000E60CF71CD20CE814F90408F092CFD1104E
:104C500001C0339420E040E0632D8C819D810E944F
:104C6000F1246D2D8C819D810E94FC2482CFF981DD
:104C7000FF2319F0C5010E947F32CC2039F0852D29
:104C8000942D0E947F3202C080E001C081E00F902D
:104C90000F900F900F900F90DF91CF911F910F9178
:104CA000FF90EF90DF90CF90BF90AF909F908F904C
:104CB0007F906F905F904F903F902F900895CF928C
:104CC000EF920F93CC24C3940E947E250F91EF9016
:104CD000CF9008952F923F924F925F926F927F9262
:104CE0008F929F92AF92BF92CF92DF92EF92FF92FC
:104CF0000F931F93CF93DF9300D01F92CDB7DEB7F2
:104D00004C017B836A833A01D22E222331F088E062
:104D100090E00E94E731182FF92E212C312C261417
:104D2000370408F051C0EA81FB81E20DF31DC10197
:104D300003965C01DD20C1F04491F10131968A8136
:104D40009B81E80FF91F0491F1013296E80FF91FDA
:104D50005490511044C0F4E02F0E311CEA81FB81C5
:104D6000EA0DFB1D84910DC0408101815280EA81D2
:104D7000FB81E80FF91F51100DC084E0280E311C93
:104D800080818130D1F442E368E3F40180810E94A4
:104D90003021C5CF1E2FFF2E452C512CC12CEE24C7
:104DA000E394242FA201612F7F2DC4010E947E2550
:104DB00012012A0C3B1C8111B2CFDD2061F0812F42
:104DC0009F2D0E947F3207C0DD2039F0812F9F2D5B
:104DD0000E947F3202C080E024C081E022C0252CE6
:104DE000312CF2E0F51548F4B101812F9F2D498354
:104DF0000E940E33182FF92E4981812F9F2DA0E09C
:104E0000B0E02A813B812A0D3B1DA215B30520F697
:104E1000F901EA0FFB1F5491FC015193CF01119648
:104E2000F4CF0F900F900F90DF91CF911F910F91C2
:104E3000FF90EF90DF90CF90BF90AF909F908F90BA
:104E40007F906F905F904F903F902F90089521E05A
:104E50000C946A26462F60E7FC0180810C94302177
:104E6000462F61E7FC0180810C9430218230E8F408
:104E7000E82FF0E0EE0FFF1FE452FB4F71836083D9
:104E8000813041F0809169008C7F842B8093690090
:104E9000E89A089580916900440F551F440F551FEB
:104EA000837F842B80936900E99A08951F920F9263
:104EB0000FB60F9211242F933F934F935F936F93ED
:104EC0007F938F939F93AF93BF93EF93FF938091C3
:104ED000DC049091DD04892B29F0E091DC04F09151
:104EE000DD040995FF91EF91BF91AF919F918F9153
:104EF0007F916F915F914F913F912F910F900FBED6
:104F00000F901F9018951F920F920FB60F921124B9
:104F10002F933F934F935F936F937F938F939F93C1
:104F2000AF93BF93EF93FF938091DE049091DF04E2
:104F3000892B29F0E091DE04F091DF040995FF91BF
:104F4000EF91BF91AF919F918F917F916F915F9101
:104F50004F913F912F910F900FBE0F901F9018957A
:104F60001F920F920FB60F9211242F933F938F939E
:104F70009F93AF93BF938091E1049091E204A0913D
:104F8000E304B091E4043091E00423E0230F2D37D3
:104F900020F40196A11DB11D05C026E8230F02963D
:104FA000A11DB11D2093E0048093E1049093E204DD
:104FB000A093E304B093E4048091E5049091E604A7
:104FC000A091E704B091E8040196A11DB11D809362
:104FD000E5049093E604A093E704B093E804BF913E
:104FE000AF919F918F913F912F910F900FBE0F9096
:104FF0001F9018952FB7F8946091E1047091E20426
:105000008091E3049091E4042FBF08953FB7F89492
:105010008091E5049091E604A091E704B091E80442
:1050200026B5A89B05C02F3F19F00196A11DB11D03
:105030003FBF6627782F892F9A2F620F711D811D20
:10504000911D42E0660F771F881F991F4A95D1F77F
:105050000895CF92DF92EF92FF92CF93DF936B018F
:105060007C010E940628EB01C114D104E104F10483
:1050700089F00E941B2E0E9406286C1B7D0B683E47
:10508000734090F381E0C81AD108E108F108C851D3
:10509000DC4FEACFDF91CF91FF90EF90DF90CF9080
:1050A0000895789484B5826084BD84B5816084BDA0
:1050B00085B5826085BD85B5816085BDEEE6F0E091
:1050C000808181608083E1E8F0E0108280818260ED
:1050D0008083808181608083E0E8F0E0808181606E
:1050E0008083E1EBF0E0808184608083E0EBF0E09E
:1050F000808181608083EAE7F0E080818460808342
:1051000080818260808380818160808380818068EB
:1051100080831092C10008958E3008F08E50877001
:105120002091470190E4299F90011124822B8093C4
:105130007C0080917A00806480937A0080917A006C
:1051400086FDFCCF809178002091790090E0922B31
:1051500008951F93CF93DF93182FEB0161E00E9416
:105160003129209711F460E004C0CF3FD10539F414
:1051700061E0812FDF91CF911F910C946A29E12F7B
:10518000F0E0E45DF64FE491E330F9F048F4E1300B
:10519000B9F0E230A1F584B5806284BDC8BD34C0E9
:1051A000E730E9F0E83019F1E43049F5809180000A
:1051B000806280938000D0938B00C0938A0024C0CB
:1051C00084B5806884BDC7BD1FC0809180008068A1
:1051D00080938000D0938900C093880015C080918F
:1051E000B00080688093B000C093B3000DC0809180
:1051F000B00080628093B000C093B40005C0C03896
:10520000D1050CF0B5CFAFCFDF91CF911F910895AD
:10521000833081F028F4813099F08230A1F0089534
:105220008730A9F08830B9F08430D1F480918000C3
:105230008F7D03C0809180008F77809380000895D8
:1052400084B58F7702C084B58F7D84BD0895809129
:10525000B0008F7703C08091B0008F7D8093B00045
:105260000895CF93DF9390E0FC01E05CF64F24912A
:10527000FC01EC5AF64F8491882349F190E0880FA5
:10528000991FFC01E458F64FA591B4918E58964FA2
:10529000FC01C591D4919FB7611108C0F8948C911D
:1052A000209582238C93888182230AC0623051F436
:1052B000F8948C91322F309583238C938881822BA4
:1052C000888304C0F8948C91822B8C939FBFDF91CC
:1052D000CF9108950F931F93CF93DF931F92CDB774
:1052E000DEB7282F30E0F901E45DF64F8491F90133
:1052F000E05CF64F1491F901EC5AF64F049100234B
:10530000C9F0882321F069830E9408296981E02F70
:10531000F0E0EE0FFF1FEE58F64FA591B4919FB746
:10532000F8948C91611103C01095812301C0812BE9
:105330008C939FBF0F90DF91CF911F910F91089594
:10534000CF93DF93282F30E0F901E45DF64F84918D
:10535000F901E05CF64FD491F901EC5AF64FC49193
:10536000CC2391F081110E940829EC2FF0E0EE0F80
:10537000FF1FE859F64FA591B4912C912D2381E0A0
:1053800090E021F480E002C080E090E0DF91CF91D6
:105390000895FC01818D228D90E0805C9F4F821BDF
:1053A00091098F7399270895FC01918D828D98172B
:1053B00031F0828DE80FF11D858D90E008958FEF1B
:1053C0009FEF0895FC01918D828D981761F0828D79
:1053D000DF01A80FB11D5D968C91928D9F5F9F7329
:1053E000928F90E008958FEF9FEF089586E69BE2FD
:1053F000892B49F080E090E0892B29F00E94662BF0
:1054000081110C9400000895FC01848DDF01A80F28
:10541000B11DA35ABF4F2C91848D90E001968F73DC
:105420009927848FA689B7892C93A089B1898C91FB
:1054300080648C93938D848D981306C00288F389C1
:10544000E02D80818F7D80830895CF93DF93EC01E1
:10545000888D8823C9F0EA89FB89808185FD05C094
:10546000A889B9898C9186FD0FC00FB607FCF5CFCE
:10547000808185FFF2CFA889B9898C9185FFEDCF16
:10548000CE010E94042AE7CFDF91CF910895CF92F9
:10549000DF92FF920F931F93CF93DF931F92CDB7AD
:1054A000DEB76C01DC015B969C915B975C968C91FE
:1054B0005C97981307C05096ED91FC9151978081AD
:1054C00085FD32C0F601038D10E00F5F1F4F0F7393
:1054D0001127F02EF601848DF81211C00FB607FCCB
:1054E000F9CFD6015096ED91FC915197808185FFBF
:1054F000F1CFC60169830E94042A6981EBCF838DB5
:10550000E80FF11DE35AFF4F6083D6015B960C93C1
:105510005B975296ED91FC915397808180628083D6
:1055200081E058968C930DC0D6015696ED91FC9172
:10553000579760835096ED91FC91519780818064DC
:10554000808381E090E00F90DF91CF911F910F91C8
:10555000FF90DF90CF900895BF92CF92DF92EF92AD
:10556000FF92CF93DF93EC016A017B01B22EE889B1
:10557000F98982E08083411581EE58076105710544
:10558000A1F060E079E08DE390E0A70196010E9430
:105590008631215031094109510956954795379572
:1055A0002795211580E1380798F0E889F98910825C
:1055B00060E874E88EE190E0A70196010E948631D0
:1055C000215031094109510956954795379527953D
:1055D000EC85FD853083EE85FF852083188EEC8970
:1055E000FD89B082EA89FB89808180618083EA89B4
:1055F000FB89808188608083EA89FB89808180685B
:105600008083EA89FB8980818F7D8083DF91CF91C0
:10561000FF90EF90DF90CF90BF9008951F920F9270
:105620000FB60F9211242F938F939F93EF93FF93B5
:10563000E091F904F091FA048081E091FF04F09187
:10564000000582FD12C09081809102058F5F8F73EB
:1056500020910305821751F0E0910205F0E0E75137
:10566000FB4F958F8093020501C08081FF91EF91E0
:105670009F918F912F910F900FBE0F901F901895B3
:105680001F920F920FB60F9211242F933F934F93B7
:105690005F936F937F938F939F93AF93BF93EF939A
:1056A000FF9389EE94E00E94042AFF91EF91BF914D
:1056B000AF919F918F917F916F915F914F913F91AA
:1056C0002F910F900FBE0F901F90189589EE94E0C8
:1056D0000E94C92921E0892B09F420E0822F089536
:1056E0001092EC041092EB0488EE93E0A0E0B0E09E
:1056F0008093ED049093EE04A093EF04B093F00434
:1057000089E492E09093EA048093E90485EC90E0C8
:105710009093F6048093F50484EC90E09093F80461
:105720008093F70480EC90E09093FA048093F9045E
:1057300081EC90E09093FC048093FB0482EC90E079
:105740009093FE048093FD0486EC90E09093000516
:105750008093FF0410920205109203051092040535
:1057600010920505089508950E9451280E94B32BB8
:105770000E944B10C6EFD9E20E942B182097E1F34C
:105780000E94F629F9CFCF92DF92EF92FF920F930A
:105790001F93CF93DF936C017A01EB01E60EF71EA6
:1057A00000E010E0CE15DF0561F06991D601ED91C2
:1057B000FC910190F081E02DC6010995080F191F99
:1057C000F1CFC801DF91CF911F910F91FF90EF9022
:1057D000DF90CF9008956115710581F0DB010D9088
:1057E0000020E9F7AD0141505109461B570BDC0180
:1057F000ED91FC910280F381E02D099480E090E02E
:1058000008950C94EB2BDC01ED91FC910190F0815B
:10581000E02D09940F931F93CF93DF93EC016DE07C
:105820000E94032C8C016AE0CE010E94032C800FA1
:10583000911FDF91CF911F910F9108950F931F93A7
:10584000CF93DF93EC010E94EB2B8C01CE010E94E1
:105850000A2C800F911FDF91CF911F910F91089516
:105860008F929F92AF92BF92CF92DF92EF92FF9270
:105870000F931F93CF93DF93CDB7DEB7A1970FB6EA
:10588000F894DEBF0FBECDBF7C01C42EE52FCB0147
:10589000D22E19A221E02D1510F02AE0D22E8E0171
:1058A0000F5D1F4F8D2C912CA12CB12C6C2D7E2FB8
:1058B000A50194010E9486318C2DD29E801911245D
:1058C000015011098A3014F4805D01C0895CF8012F
:1058D0008083211531054105510521F0C22EE32FAA
:1058E000CA01E4CFB801C7010E94EB2BA1960FB605
:1058F000F894DEBF0FBECDBFDF91CF911F910F9106
:10590000FF90EF90DF90CF90BF90AF909F908F90DF
:105910000895CF92DF92EF92FF920F931F93CF9350
:10592000DF93EC016A017B012115310579F4E881EF
:10593000F9810190F081E02D642FDF91CF911F91CB
:105940000F91FF90EF90DF90CF9009942A303105AE
:10595000E9F477FF1AC06DE20E94032C8C01442702
:105960005527BA014C195D096E097F092AE0CE015D
:105970000E94302C800F911FDF91CF911F910F91CA
:10598000FF90EF90DF90CF9008952AE0B701A60135
:10599000CE01DF91CF911F910F91FF90EF90DF909B
:1059A000CF900C94302C2115310541F4DC01ED91A0
:1059B000FC910190F081E02D642F09940C94302C1F
:1059C0009A01462F50E060E070E00C94D32C4F9287
:1059D0005F926F927F928F929F92AF92BF92CF927F
:1059E000DF92EF92FF920F931F93CF93DF93EC011F
:1059F0006A017B01B22E9A01AB01C701B6010E9478
:105A00005D31882319F065E572E027C02601370172
:105A1000E89477F82FEF3FEF4FE75FE7C301B2015C
:105A20000E945D3181110DC02FEF3FEF4FE75FE71F
:105A3000C301B2010E94E32E18161CF469E572E05E
:105A40000CC02FEF3FEF4FE75FE4C701B6010E94A4
:105A5000A4301816ACF46DE572E0CE01DF91CF9161
:105A60001F910F91FF90EF90DF90CF90BF90AF907C
:105A70009F908F907F906F905F904F900C94EB2B46
:105A80002FEF3FEF4FE75FECC701B6010E94E32E17
:105A900087FDE1CF20E030E0A901C701B6010E94F7
:105AA000E32E87FF0AC06DE2CE010E94032C8C0119
:105AB000F7FAF094F7F8F09402C000E010E0A12C9F
:105AC00060E070E080E09FE3AB1441F020E030E064
:105AD00040E251E40E94EA2EA394F6CF9B01AC0170
